:020000040800F2
:10C00000005000200DC1000891E4000893E40008EE
:10C0100095E4000897E4000899E400080000000097
:10C020000000000000000000000000009BE4000889
:10C030009DE40008000000009FE40008A1E400085F
:10C0400059C1000859C1000859C10008A5E40008F9
:10C0500059C1000859C1000859C1000859C1000858
:10C06000C5E4000859C1000859C1000859C10008B9
:10C0700059C1000859C1000859C10008BFE40008AF
:10C0800059C1000859C1000859C1000859C1000828
:10C0900061E5000859C1000859C1000859C10008EC
:10C0A00059C1000859C1000859C1000819E5000824
:10C0B00059C1000859C1000859C1000859C10008F8
:10C0C00059C1000859C1000859C1000859C10008E8
:10C0D00059C1000859C1000859C1000859C10008D8
:10C0E000F9E4000859C1000859C100080000000027
:10C0F0000000000000000000000000000000000040
:0CC1000000000000000000005FF808F1E3
:10C10C00002100F004B80C4B5B58435004310B4831
:10C11C000B4B42189A42FFF4F6AF0A4A00F003B8F0
:10C12C00002342F8043B084B9A42FFF4F9AF02F0AB
:10C13C0013FA01F027FD70478C270108000000203E
:10C14C00B8070020B8070020B8160020FFF7FEBF84
:10C15C0010B500240E4BDA6A944206DA33F8240048
:10C16C00002101F0FDFF0134F4E7012000F076FE20
:10C17C006FF07F4000F078FE064801684FF41650CF
:10C18C008847054B4FF416501A68904710BD00BFF6
:10C19C0000000020580200203C0200204FF4805187
:10C1AC004FF4937202F0F2B8F0B500231446023447
:10C1BC008B420CDAC65C084D370906F00F067F5D22
:10C1CC00755D04F8027C04F8015C0133EFE7002391
:10C1DC0013761046F0BD00BFC524010810B500242D
:10C1EC00054BDA6A944206DA33F82400002102F097
:10C1FC0055F80134F4E710BD000000200028084B6E
:10C20C0008DB084A116B884204DA02EB8002516B9E
:10C21C001960704700201860E72000F097BE00BF3F
:10C22C00B80700200000002008B5054B186830B195
:10C23C0000F01AFEE720BDE8084000F063BE08BD20
:10C24C00B807002038B50D46084905F093FE0024C8
:10C25C0050B1042CD8BF45F824000449D8BF013490
:10C26C00002005F087FEF3E738BD00BFD624010897
:10C27C0038B50D46094905F07DFE002460B1032C4C
:10C28C0005DC04F0A9FFC0B245F8240001340020FD
:10C29C00024905F06FFEF1E7284638BDEC25010890
:10C2AC00054B10B598688047044904468A68904746
:10C2BC002043C0B210BD00BF580200203C02002039
:10C2CC0010B5054CA368984718B9044CA068804772
:10C2DC0008B1E168884710BD580200203C020020DC
:10C2EC00044B10B599690446884703488269204677
:10C2FC00904710BD580200203C02002030B589B098
:10C30C0069461446FFF7B4FF02200121062204F00F
:10C31C008FFC051E2BDB022323211D22ADF81030D0
:10C32C00009B8DF812108DF813200199029A8DF84C
:10C33C001430039B8DF815108DF8162004A91022CB
:10C34C008DF8173004F0C8FC002803DA0A48FFF710
:10C35C00C7FF0CE00948FFF7C3FF204605F0F6F9CC
:10C36C00214602460023284604F0F2FD01E04FF07E
:10C37C00FF3009B030BD00BFD9240108E824010802
:10C38C0008B542F21D31FFF7B9FF0448FFF7A8FFCB
:10C39C00034B4FF6FF721A6008BD00BF032501085E
:10C3AC00B807002073B5044600200D46024601462E
:10C3BC0004F0A2FE204605F0C9F90646284605F011
:10C3CC00C5F921460190324600230095032004F064
:10C3DC002FFE06494FF0FF10054B08600548002260
:10C3EC001A7002B0BDE87040FFF77ABFB8070020A2
:10C3FC00BC00002013250108002008B500F016FF32
:10C40C00632807D9002000F019FF0348BDE8084055
:10C41C00FFF766BF08BD00BF2925010838B5051E0A
:10C42C0003DB094CE36A9D4204DD0848BDE8384053
:10C43C00FFF756BFFFF7D2FE34F825000121BDE807
:10C44C00384001F02BBF00BF00000020332501084D
:10C45C00044B10B559690446884703484269204685
:10C46C00904710BD580200203C02002037B505460D
:10C47C0000246946285901F0C9FD6846FFF7E8FF1A
:10C48C0004340348FFF7E4FF102CF2D13EBD00BF8B
:10C49C00EC250108002004F081BD002001F002B859
:10C4AC0030B5564B56499A68096D8FB08A4203DAFB
:10C4BC0054498854013200E0002220289A6002D1AD
:10C4CC000020986098E03B2840F096804E48FFF79B
:10C4DC0007FF4E48FFF7BCFF4A48FFF701FF4948EA
:10C4EC004B4905F0D1FB28B14A48FFF7F9FEFFF79D
:10C4FC00D1FF0AE04348484905F0C6FB044640B169
:10C50C004648FFF7EDFEFFF7C8FF4548FFF7E8FE8A
:10C51C0072E03C48434905F0B7FB0546E0B13749AA
:10C52C0041488C60FFF7DCFE09A92846FFF78AFE1C
:10C53C003E48FFF7D5FE0998FFF7D2FE0A98FFF7A1
:10C54C00CFFE0B98FFF7CCFE3948FFF7C9FE0A98CF
:10C55C000B99FFF727FF4FE02A48364905F094FB6B
:10C56C000446E0B1254B30489D60FFF7B9FE09A9A0
:10C57C002046FFF767FE0998FFF7B2FE0A98FFF70F
:10C58C00AFFE0B98FFF7ACFE0C98FFF7A9FE2A48FC
:10C59C00FFF7A6FE0AAA07CAFFF7F2FE2CE019481D
:10C5AC00264905F071FB054630B3144884601E48DB
:10C5BC00FFF796FE09A92846FFF744FE0998FFF7F6
:10C5CC008FFE0A98FFF78CFE0B98FFF789FE0C98EC
:10C5DC00FFF786FE01A90A98FFF74AFE01A8FFF7AC
:10C5EC0045FF2C200B2316222121089005A805932A
:10C5FC0006920791FFF73AFF0FB030BDB807002045
:10C60C00000000201D0800204B2501085A250108B8
:10C61C00382301086D25010840230108AE250108C7
:10C62C007C25010849230108BE250108CC250108F9
:10C63C00D525010852230108E325010858230108D8
:10C64C0030B55E4CADF55F7DE368A3B101F05CFEE7
:10C65C005B494B6DB0FBF3F202FB130048B9246944
:10C66C0014B95848FFF73CFE544B1A69501C18611A
:10C67C0001E00021216101F047FE514CA16DB0FB9E
:10C68C00F1F303FB11021AB9FFF7B6FE6420A065A3
:10C69C004D490B78A3B94D4A107888B1474C616964
:10C6AC0071B901254A486561FFF71AFE4848FFF742
:10C6BC0017FE484B484A4FF47F401D7015702060A0
:10C6CC00FFF7B2FDFFF7ECFD002873D0FFF7F8FD84
:10C6DC00C5B204462846FFF7E3FE3949C86D0A4641
:10C6EC00844207DB0B6E9C4204DC201AFFF796FE9B
:10C6FC003A485DE0516E8C4208DB3148826E9442C0
:10C70C0004DC601AFFF77AFD354851E0542C0FD148
:10C71C004BAC01F0F9FD214601F078FC00232354C9
:10C72C003048FFF795FE2046FFF792FE2E483FE07B
:10C73C00582C01D1012002E05A2C03D100201F4AB1
:10C74C00D06037E0562C01D1284831E04D2C13D164
:10C75C00274A01AB1068516803C3916801A819609E
:10C76C004BAA0C21FFF720FD2248FFF771FE4BA8C6
:10C77C00FFF76EFE20481BE0202C1BD06A2C0CD13E
:10C78C0001A8FFF70BFD01A84FF493714BAAFFF71B
:10C79C000BFD1A48FFF7A4FD09E001A801214BAAE3
:10C7AC008DF80450FFF700FD1548FFF751FE4BA81C
:10C7BC00FFF796FD0DF55F7D30BD00BFB80700207B
:10C7CC0000000020EE250108BC000020A51300206D
:10C7DC00F5250108931300209D1300202426010841
:10C7EC002D26010836260108652601084326010876
:10C7FC00E8F7FF1F63260108672601086C2601086D
:10C80C007A26010808B5064B00221860054906482F
:10C81C009A601961DA80DA609A80036A984708BDD9
:10C82C00200A0020340E00206416002062B67047E7
:10C83C0008B572B606484FF4805103F08FF9054BDA
:10C84C00022218699A6019680530884708BD00BF34
:10C85C00000C0140200A002070B50646002014464A
:10C86C000D4600F0BBFD012EA4B207D1304629467F
:10C87C00224600F03BFD0020124907E0124B01203C
:10C88C001969224600F032FD00202946224600F0AC
:10C89C002DFD0E480221012203F015F8012000F0B5
:10C8AC009DFD0A4803F017F80028FAD1084803F058
:10C8BC0012F80028FAD10748802103F07EFA0028EC
:10C8CC00F9D170BD74000020200A002058000240ED
:10C8DC00440002400038004003460A460120194635
:10C8EC00FFF7BABF70B50646002014460D4600F09F
:10C8FC0075FD012EA4B207D130462946224600F020
:10C90C00F5FC0020104907E0104B01201969224664
:10C91C0000F0ECFC00202946224600F0E7FC012048
:10C92C0000F05CFD0A4802F0D6FF0028FAD1094855
:10C93C0002F0D1FF0028FAD10748802103F03DFA1C
:10C94C000028F9D170BD00BF74000020200A00201F
:10C95C0058000240440002400038004003460A469A
:10C96C0000201946FFF7BEBF70B50E4D04460E46AB
:10C97C0028464FF4805103F0F3F80020214604229E
:10C98C00FFF7B0FF0020211D321FFFF7ABFF064B56
:10C99C00022228464FF480519A6003F0DFF8002001
:10C9AC0070BD00BF000C0140200A002070B501F0E2
:10C9BC000106044686F001000D18012300262370A1
:10C9CC00C5F307221D4BE67026716270A570053108
:10C9DC009D68081886B215B99A68012AFCD1996825
:10C9EC00164D012907D120463146FFF7BDFFAA6835
:10C9FC00022AFCD11FE0A8680228FCD11048802133
:10CA0C0003F0DBF90028F9D10E4BDD69A8470028AB
:10CA1C00FAD00A4D03220C484FF48051AA60EC6006
:10CA2C00AE8003F09DF80749C86980470028FAD00A
:10CA3C00AB68022BFCD1002070BD00BF200A002087
:10CA4C000038004064160020000C014070B5184EF0
:10CA5C0035696B79022B08D0042B25D1287A441E1A
:10CA6C0014F0010F18BF044614E0681D032103F0F5
:10CA7C00E9FBB0F5806F044608DB05F10A004FF4C2
:10CA8C0080610724FFF728FFB4600EE0C30701D4D0
:10CA9C00441C00E024B105F10A00A1B2FFF71CFF11
:10CAAC00034908228A6000E00024204670BD00BFC4
:10CABC00200A0020024B012019690A22FFF7CCBE84
:10CACC00200A002008B5FFF7C1FF18B9BDE80840DF
:10CADC00FFF7AEBE08BD000070B5384C4FF4003007
:10CAEC00266902F0FBFE05464FF4005002F0F6FEFC
:10CAFC00A368062B0BD1002D5ED000285CD04FF420
:10CB0C00083002F0F9FEBDE87040FFF7DBBFA1680A
:10CB1C0007291BD100284FD04FF4083002F0ECFE4F
:10CB2C000321701D03F08EFBA0F58064A1B2234C91
:10CB3C00CA0758BFA0F2FF31206958BF89B200F272
:10CB4C000A40FFF7C9FE0823A36070BDA268082A3B
:10CB5C0009D1002830D04FF4083002F0CDFEBDE8EA
:10CB6C007040FFF765BEA068052814D1002D23D0B6
:10CB7C001348802103F021F90028F9D14FF4083033
:10CB8C0002F0BAFE4FF480510E4802F0E7FF0B4A58
:10CB9C000221916070BDA368042B0DD165B1A088F2
:10CBAC00E2680521A0F58063A16002F5806099B26E
:10CBBC00BDE87040FFF7D2BE70BD00BF200A002058
:10CBCC0000380040000C014008B5184BD86980476C
:10CBDC0000282AD1164B9A6812B90120986008BD1A
:10CBEC00996802290AD1062212484FF480519A60A2
:10CBFC0002F0B6FFBDE80840FFF75CBF9A68032A55
:10CC0C0013D19A88B2F5806F06D805219960D9683E
:10CC1C00BDE80840FFF720BE04209860D8684FF4A8
:10CC2C008061BDE80840FFF799BE08BD641600207E
:10CC3C00200A0020000C014010B501310023934262
:10CC4C000ED0040F092C01D8303400E0373401F831
:10CC5C00014C01330024000101F8024BDBB2EEE77A
:10CC6C0010BD08B54FF000604FF4404102F070FD6C
:10CC7C004FF4A060BDE8084002F02CBD10B504468E
:10CC8C0045F2555002F088FF062002F08BFF42F26D
:10CC9C001070844228BF044628216143C1F30F2041
:10CCAC0002F086FF02F08AFFBDE8104002F08EBF52
:10CCBC00082812D8012907D10A4B0B4A53F8201027
:10CCCC0032F8100008610AE049B9064B064A53F8DD
:10CCDC00201032F81000486101E0FF2300E000232F
:10CCEC0058B270477C0000206023010837B50E4D08
:10CCFC00044605EB80031869012102F0CBFF35F8DF
:10CD0C0014000A4B1021ADF804008DF80710032213
:10CD1C0053F8240001A98DF8062002F0C9FE204624
:10CD2C000021FFF7C5FF3EBD602301087C000020F9
:10CD3C0070B5012188B04FF4006002F0ABFF314BAD
:10CD4C0042F210701C686326B4FBF0F14A1E2E4CA4
:10CD5C0001A895B203F080F901A803F07DF901A9AF
:10CD6C00ADF8045020460025ADF80860ADF80A5027
:10CD7C00ADF8065003F028F804A803F076F9022069
:10CD8C0060230126ADF8180004A92046ADF8103038
:10CD9C00ADF81260ADF81650ADF81C5003F05EF80B
:10CDAC002046294603F09AF9204604A903F09AF884
:10CDBC002046294603F09AF9204604A903F0D6F838
:10CDCC002046294603F09CF9204604A9ADF81050E2
:10CDDC00ADF81260ADF81650ADF8185003F008F924
:10CDEC002046294603F094F92046314603F06AF9AF
:10CDFC002046314603F043F92046314603F04BF907
:10CE0C0008B070BD74020020002C014030B5114BED
:10CE1C001A78F2B91049C0F307428C8DA5B26C1C7C
:10CE2C005443FF22B4FBF2F5ACB2DC808D8DACB276
:10CE3C000134C0F307256C43B4FBF2F4A4B21C819B
:10CE4C00898DC0B289B201314843B0FBF2F291B284
:10CE5C00998030BDE0070020002C0140014B187078
:10CE6C00704700BFE007002038B5044C002325783C
:10CE7C002370FFF7CBFF257038BD00BFE007002003
:10CE8C0037B50F4D044605EB8003186B012105EBFC
:10CE9C00440502F0FFFEB5F84000ADF804000CB9F3
:10CEAC00102100E01821074B8DF8071003EB8404C8
:10CEBC000322206A01A98DF8062002F0F9FD3EBD7F
:10CECC00602301087C0000200B4B1A789AB960B1E2
:10CEDC00E72810D1D988094A88B21087198988B2F5
:10CEEC0090879B8899B2918605E0054A4FF40053D0
:10CEFC00106A036170477047E0070020002C014066
:10CF0C007C00002038B5044C002325782370FFF7F3
:10CF1C00DBFF257038BD00BFE0070020084B1978F7
:10CF2C0069B930B1E7280AD1064A118791879186F1
:10CF3C0005E005484FF40051036A5961704770478A
:10CF4C00E0070020002C01407C00002038B5044C88
:10CF5C00002325782370FFF7E1FF257038BD00BF53
:10CF6C00E00700200F4A1378D3B990B1E72817D106
:10CF7C000D4B198FD088414088B21887998F108932
:10CF8C00414088B29887998E92884A4090B2988690
:10CF9C0006E0064B196ACA6882F40050C8607047F4
:10CFAC00704700BFE0070020002C01407C000020EF
:10CFBC002B4B1A78002A52D1E72850D1D888294B0C
:10CFCC0080B268B1284A118F88B208B9012007E0F5
:10CFDC00118F928D88B291B24A1C904201D1FF20E0
:10CFEC0018701F4B2148198989B269B11E4A938F59
:10CFFC0099B209B9012107E0938F928D99B293B23E
:10D00C005A1C914201D1FF210170154883881848A0
:10D01C009BB26BB1144A918E8BB20BB9012307E012
:10D02C00918E928D8BB291B24A1C934201D1FF2307
:10D03C0003700D480B49028F91F900309A1891B288
:10D04C000A4A018792F90010838FCB189AB20849CB
:10D05C00828791F90020838ED31899B2818670470C
:10D06C00E007002076130020002C01403512002030
:10D07C003412002073B5104C0E4604EB400494F8A7
:10D08C004C10054694F8480002F06CFDB4F8504082
:10D09C00204602F077FC09480023451995F830101A
:10D0AC00684600948DF804308DF805108DF80660F4
:10D0BC0002F02CFC7CBD00BF602301087C0000202A
:10D0CC00F7B5224E8700F3190546586D0C4640F013
:10D0DC000100012102F0DEFD1D4B06EB45065A193D
:10D0EC0092F83210B6F85C0002AADF198DF8031022
:10D0FC0022F8080D6946786B02F0DAFC012C23D17A
:10D10C001021002213481B2702F0D3FF00238DF8B7
:10D11C00047001A802278DF806308DF805708DF883
:10D12C00074002F0E1FAB6F8601001A88DF804107F
:10D13C008DF805708DF806408DF8074002F0D4FA92
:10D14C0028462146FFF796FFFEBD00BF602301086D
:10D15C007C000020002C014010B501214FF0C05084
:10D16C0002F0A4FD012002F039FDFFF77AFD012049
:10D17C00014602F08FFD0024E0B20134FFF7B6FD4A
:10D18C00082CF9D1FFF7D4FD0020FFF779FE012020
:10D19C00FFF776FE0220FFF773FE0320FFF770FE09
:10D1AC0000200146FFF78CFF154B4FF47A701A687C
:10D1BC00144BB2FBF0F14A1E1349F0205A6081F86F
:10D1CC002300002207209A601860CB68C3F302206A
:10D1DC00011D0629C0F1070388BFC21E042B28BFFE
:10D1EC000423012000FA03F14B1E03F0030000FAA4
:10D1FC0002F2054B1101C8B283F8230010BD00BF29
:10D20C007402002010E000E000ED00E0054A064B3F
:10D21C0002EB800103EB4002486BB2F85C1002F0A9
:10D22C0097BC00BF7C00002060230108024B03EB7D
:10D23C004000418988B27047E0070020024B002271
:10D24C0003EB400042817047E007002030B5082016
:10D25C0087B0012102F01EFD224C01214FF48040C9
:10D26C0002F024FD18204FF4005301258DF8030023
:10D27C0069462046ADF800308DF8025002F018FCDB
:10D28C004FF40041ADF800102046694602F010FC46
:10D29C0004234FF4804220466946ADF800208DF8F7
:10D2AC00033002F005FC0020ADF804004FF482714D
:10D2BC00ADF80800ADF80A00ADF812000720ADF883
:10D2CC0006104FF400722023ADF8140001A9064893
:10D2DC00ADF80C50ADF80E20ADF8103002F034FD66
:10D2EC0007B030BD000C01400038004070B504465A
:10D2FC0001208CB00E460146154602F0BFFC124BC5
:10D30C00002080224FF44051012C0193029605908D
:10D31C0006920790089009900A910B9006D1039001
:10D32C000A48049502F02CFA084807E04CB910237F
:10D33C0007480393049502F023FA054801A902F06B
:10D34C0097FA0CB070BD00BF0C380040440002408E
:10D35C005800024073B50F230124002501A88DF855
:10D36C0004308DF805508DF80650174E8DF8074097
:10D37C0002F0BAF9FFF76AFF20462A461349FFF775
:10D38C00B5FF28462A461249124DFFF7AFFF30462B
:10D39C000221224602F097FA28462146224602F044
:10D3AC00FEFC22462846022102F0F9FC28462146C2
:10D3BC0002F0E9FC2146084802F07AFA3046214690
:10D3CC0002F076FA7CBD00BF58000240340E0020FB
:10D3DC00340A0020003800404400024010B50446D6
:10D3EC002146044802F064FA03482146BDE8104087
:10D3FC0002F05EBA440002405800024008B54FF4F7
:10D40C000061024802F0A4FB08BD00BF000C014003
:10D41C0030B5092085B0012102F03CFC4FF40064CA
:10D42C004823694614488DF80330ADF8004002F0EB
:10D43C003FFB0B21012002F095FB204602F0A2FAE3
:10D44C000C200294002501248DF80D0002A88DF803
:10D45C000C508DF80E4002F059FA282101A88DF8D5
:10D46C0004108DF805508DF806408DF8074002F039
:10D47C003BF905B030BD00BF000C01401FB528239F
:10D48C00002401A88DF804308DF8074002F02CF927
:10D49C004FF40060029002A88DF80E4002F036FAAC
:10D4AC001FBD000020B105484FF4807102F056BB3F
:10D4BC0002484FF4807102F053BB00BF000C0140D6
:10D4CC0037B5114C0820012102F0E4FB1020032396
:10D4DC004FF480558DF8070001A920468DF80630D1
:10D4EC00ADF8045002F0E4FA2046294602F036FB6F
:10D4FC004FF48071ADF80410204601A902F0D8FA5F
:10D50C000020FFF7CFFF3EBD000C014070B5082096
:10D51C0086B0012102F0BEFB2E4C01214FF480405D
:10D52C0002F0C4FB18204FF4005301258DF80300C2
:10D53C0069462046ADF800308DF8025002F0B8FA7A
:10D54C004FF40041ADF800102046694602F0B0FAE5
:10D55C0004264FF4804220466946ADF800208DF831
:10D56C00036002F0A5FA102003234FF400768DF827
:10D57C000300694620468DF80230ADF8006002F0D9
:10D58C0097FA2046314602F0E9FA0021ADF8041072
:10D59C00ADF808102020ADF81210A4F55444072162
:10D5AC004FF482720223ADF81000ADF8141020462F
:10D5BC0001A9ADF80620ADF80A30ADF80C50ADF865
:10D5CC000E6002F0C1FB2046294602F0DCFB06B0DF
:10D5DC0070BD00BF000C014007B50820012102F00E
:10D5EC0059FB032014214FF480638DF806008DF84D
:10D5FC000710034801A9ADF8043002F059FA0EBD2A
:10D60C00000C0140002008B502F0EEFA4FF40000C7
:10D61C000121BDE8084002F049BB07B501201423E5
:10D62C008DF8050000228DF8070001A88DF8043054
:10D63C008DF8062002F058F80EBD000020B1054808
:10D64C004FF4806102F08CBA02484FF4806102F012
:10D65C0085BA00BF000C014008B5064B1860FFF7F7
:10D66C00BBFFFFF7CFFFFFF7D8FFBDE8084001F085
:10D67C00F3BD00BFDC020020074B1868052808D159
:10D68C0006498A7B012A04D1087C8B7CC11AC8B25A
:10D69C0070470020704700BF18080020E0070020EA
:10D6AC000D4B10B51868052813D10C4CA17B012922
:10D6BC000FD1228A638AD01A012804D100210320B9
:10D6CC00A17301F034FF638A054A591CD05C618256
:10D6DC0010BD4FF0FF3010BD18080020E0070020EF
:10D6EC0036120020074B196805290AD1064B074949
:10D6FC005A698854501CB0F5807F586101D10022C2
:10D70C005A61704718080020E007002076120020AC
:10D71C0070B51D4A137E012B34D0D069B0F5807FD3
:10D72C0001D10021D161D36952691748934202D1CA
:10D73C000021017670BD8CBFC3F58072C3EB020271
:10D74C00114C0262256A99B2402D05D94033403DF7
:10D75C00E3612562402604E0E8180023AEB2E061E4
:10D76C0023620A4A01255018C0213246257601F061
:10D77C0055FE2846314601F05BFF2846BDE8704057
:10D78C0001F0C4BE70BD00BFE0070020761200207F
:10D79C00094B10B593E814000833186810180AD018
:10D7AC0008220649FFF748FA054920460422BDE83D
:10D7BC001040FFF741BA10BDE8F7FF1F8A020020A6
:10D7CC009A020020BFF34F8F054A064BD16801F433
:10D7DC00E06040EA0301D160BFF34F8FFEE700BF6A
:10D7EC0000ED00E00400FA050023036018467047C2
:10D7FC0000230360184670470023036018467047E7
:10D80C0048F20203984210B517D007DC992849D08A
:10D81C00591E884249D10122244845E048F21003A0
:10D82C0098422FD0703398423FD1214A2148012190
:10D83C00117001700022204836E01C4C22783AB15D
:10D84C004FF47F40FFF7E2FAE720FFF73DFB07E0DC
:10D85C001A4B187808B1411E01E0194B01211970BF
:10D86C00184A1949194B0020087010701870184A82
:10D87C00184B012110701970174A1849107020703C
:10D88C00087010BD0B7D0F4853B9012101704FF486
:10D89C007F40FFF7BBFAE720BDE81040FFF714BB51
:10D8AC00002201E00E480122027010BD7A13002004
:10D8BC00AC130020BC130020BC0000207B13002004
:10D8CC0090130020A5130020931300209E1300201A
:10D8DC009D130020B4130020A4130020A6130020D5
:10D8EC0078130020024B18601A68002AFCD170478C
:10D8FC0098130020054B06481A88064942800B886D
:10D90C00054A83801188C180704700BF004C000815
:10D91C00BC000020024C0008044C000810B502F0BA
:10D92C004DF8342002F05EF80F4802F0A3F80428FA
:10D93C0019D10E4C0C48618802F080F8042811D1E2
:10D94C000B48A18802F07AF804280AD10948E1882A
:10D95C0002F074F8042803D1BDE8104002F03AB884
:10D96C00FEE7FEE7FEE7FEE7004C0008BC000020E7
:10D97C00024C0008044C000838B5614B61491A6828
:10D98C00501C18600C6814B10B685A1E0A605E4C6F
:10D99C00206810B12268531E06E05C4D297829B12D
:10D9AC00E720FFF705FB1923236019E0584B1A7881
:10D9BC004AB9584B1A7812B1E720FFF7D3FA5249FB
:10D9CC00642008600CE0544C207848B94FF6FF7086
:10D9DC00FFF71CFAE720FFF777FA01212970217075
:10D9EC000020FFF723FC40F6B731884209D900200C
:10D9FC00FFF724FC494B4FF6FF749C80FFF78EFF1A
:10DA0C0028E0474841F287320368934204D9002248
:10DA1C00026002F0D3F802E001684B1C036041483D
:10DA2C00017819B3404B1A7802BB40480178B9B958
:10DA3C003F4847F22F52016891420DD93D4D0224C7
:10DA4C002C702D783C4B012103F8015F0E200A4607
:10DA5C0003F062F8FFF7B6FE0368591C016005E09D
:10DA6C000378022B02D9334D0324E9E72E480278C0
:10DA7C00002A43D02D4C237813B10020207001E0F4
:10DA8C002B490B602D4C01222D4B22701968C72994
:10DA9C0007D900251D6000F0AFFAA84204DA257002
:10DAAC0002E01868421C1A60194B197869B12548B4
:10DABC0043F697220368934204D9002202601F4860
:10DACC00027002E001684B1C03601C490B78012BAF
:10DADC0014D01848042202700178174B0E2003F85A
:10DAEC00011F01210A4603F017F800F05DF90E48FA
:10DAFC00074A0E490023037013700B7038BD00BF2A
:10DB0C00B81300209813002094130020A4130020B5
:10DB1C009D130020B413002004080020BC0000203A
:10DB2C008C1300207A13002093130020A6130020DE
:10DB3C00B0130020791300207B1300209E130020CB
:10DB4C00A8130020A01300201FB50A224FF4615027
:10DB5C004FF461613C230A4C8DE80F004FF6FF73C4
:10DB6C006380FFF7DBFE684601A902AA03AB02F053
:10DB7C0061FF4AF6AA206080FFF7D0FE1FBD00BFF0
:10DB8C00BC0000201FB5FFF7E7FA6FF07F40FFF7EE
:10DB9C003DF9E720FFF798F97D2002F093F820B1CA
:10DBAC00394B01221A7002F0A1F843F69820FFF7C6
:10DBBC0065F8FFF79FFE3548C188B1F5404F04D09A
:10DBCC004FF44044C480FFF7A9FE00F01DFC2E4A20
:10DBDC001378012B03D02E4808B1FEF7B9FAFFF7E2
:10DBEC006FFC2C4CFFF7B6FB2B492C4A2C4B0091AD
:10DBFC0002922C492C4A03932C482D4B019403F090
:10DC0C00B9F96420FFF76EFE002003F0C7F948F263
:10DC1C00442003F0AFFA0E2010210022254B02F015
:10DC2C004DFF60B1FF2003F08BFA10210E2002F0A3
:10DC3C00BFFF0E20102100221E4B02F06DFF1D486D
:10DC4C00124B417858881C4C4AF6AA2290422170FB
:10DC5C001C4601D0FFF778FF184802F08FFF21789F
:10DC6C0011B9174B187810B94FF47F4000E0FF2022
:10DC7C00FFF7CCF8134CE720FFF726F901222270AE
:10DC8C00FEF7DEFCFCE700BF9C130020BC0000206C
:10DC9C005DC100081DD4000809D4000889D400080F
:10DCAC00B1D40008F5D70008FDD700080DD800083E
:10DCBC0005D800087B130020791300209113002055
:10DCCC0090130020B413002008B5064B4FF4A04469
:10DCDC00DC80FFF723FE2820214601F043FDFFF7EF
:10DCEC0071FD00BFBC0000200346A0F13000C0B2A3
:10DCFC00092817D9612B0CD0622B0CD0632B0CD0BC
:10DD0C00642B0CD0652B0CD0662B14BF00200F207D
:10DD1C0070470A2070470B2070470C2070470D206D
:10DD2C0070470E2070472DE9F041C0B00F46804679
:10DD3C001646684600214FF480721D4603F004FB22
:10DD4C004FB1384603F002FD044639466846224678
:10DD5C0003F04CFA00E03C4666B1304603F0F6FCAA
:10DD6C0000AB02463146181903F040FA304603F076
:10DD7C00EDFC041965B1284603F0E8FC024600A846
:10DD8C000019294603F032FA284603F0DFFC041987
:10DD9C000A210DF8041040466946621C002303F06A
:10DDAC00D7F840B0BDE8F08110B5044C206802F003
:10DDBC006DFF10B94FF0FF33236010BDC41300206A
:10DDCC00284BF7B51E682EB9274831464FF48072A0
:10DDDC0003F0BAFA254F01213868254D00F01F02D7
:10DDEC0001FA02F1002443092C6055F8232001307C
:10DDFC000A4345F823201F4B4FF4FA7159601C60FD
:10DE0C00294600932246234602F092FFA042C6F117
:10DE1C00FF0602DC002E22DC1CE03868430955F8B2
:10DE2C00231000F01F0241FA02F3DB07F2D50D4D6F
:10DE3C000D4F2A682346B918324603F011F8002812
:10DE4C000EDB2968081828600A21384603F012FBFB
:10DE5C000028DFD0034B002218681A6000E0002075
:10DE6C00FEBD00BF08080020C8130020C41300200A
:10DE7C00C0130020D814002070B54C4C032220464F
:10DE8C004B4903F093FC024618B94A4B4A491868AF
:10DE9C0016E020464949052203F088FC90B9484811
:10DEAC0003780BB901210170464A474800231360DF
:10DEBC0002784049086812B144491A466FE03F495C
:10DECC0013466CE020464249062203F06FFC10B961
:10DEDC00FFF7FAFE67E03F4D20462946062203F085
:10DEEC0065FC064680B9A079A871FFF7FDFE0121FB
:10DEFC00FEF7DEFE2F4A0346106813B936492A4650
:10DF0C004DE036492A4619E0204605F10801052264
:10DF1C0003F04CFC064698B960796873FFF7E4FE91
:10DF2C003146FEF7C5FE2349034608681BB92A494A
:10DF3C0005F1080233E0294905F1080233462EE0C9
:10DF4C0020462749092203F031FCF0B904F10900FD
:10DF5C000A2103F08FFA30B110F8011C0D2908BF0B
:10DF6C0001380022027000214FF480721D4803F02A
:10DF7C00EBF91D4803F0EAFB1B490246194803F074
:10DF8C0035F91A481A4B18600DE02046194903F070
:10DF9C00EFFA40B1074B1149186822460023BDE83F
:10DFAC007040FFF7C0BE002070BD00BFC81300203A
:10DFBC00CB230108C4130020CF230108DF23010861
:10DFCC009D130020A01300209C130020E5230108C2
:10DFDC00ED230108CE000020F4230108F8230108EA
:10DFEC00FE230108E0140020D113002061E000089A
:10DFFC00E01500200824010808B5FFF7E1FE002811
:10E00C0003DDBDE80840FFF737BF08BD10B518B9F0
:10E01C0030220A70012318E002460023002A05DD95
:10E02C000A24013392FBF4F2DBB2F7E7C91800289B
:10E03C000BDD0A2490FBF4F204FB1200044C2018B4
:10E04C00C07B01F8010D1046F1E7184610BD00BF6A
:10E05C00CE0000201FB50C4BA3B10C48002404606B
:10E06C000B48AFF3008001A9FFF7D0FF04A90A18F1
:10E07C00084B094902F80C4C186801F10A0201AB73
:10E08C00FFF751FE1FBD00BF00000000E01500208F
:10E09C00E0140020C4130020F42301087047000092
:10E0AC00014608B5044802F0B1F80348802102F09B
:10E0BC00B5F80028F9D008BD0044004010B5441E46
:10E0CC0014F8010F10B1FFF7EBFFF9E710BD0000DA
:10E0DC0008B5FFF7F3FF0248BDE80840FFF7EEBFB5
:10E0EC0080260108202108B5034802F097F800307B
:10E0FC0018BF012008BD00BF0044004008B502480D
:10E10C0002F088F808BD00BF0044004008B5044880
:10E11C00002102F06FF8034B00221A7008BD00BFFB
:10E12C00004400400C080020FFF7DCBA10B5441E78
:10E13C0014F8010F10B1FFF7D5FAF9E710BD000084
:10E14C0008B5FFF7F3FF0248BDE80840FFF7EEBF44
:10E15C0080260108FFF7A4BAFFF78EBAFFF77CBA46
:10E16C0014282DE9F34104460E465BD8FF2959D0FB
:10E17C002D4B1878012803D1A4F11201012951D992
:10E18C002A4D2701EA192A4BEF5904209F42B2F875
:10E19C00048003D02748874203D10820012101F0D5
:10E1AC0079FDADF80480052E38D8DFE806F00310B1
:10E1BC00171E25301D4B102103EB041403220020E5
:10E1CC00A0738DF807108DF80620083426E0042083
:10E1DC008DF8070005EB041401221EE048238DF88E
:10E1EC00073005EB0414022217E028228DF80720D3
:10E1FC0005EB0414032210E00C49182303208DF8BE
:10E20C0007308DF8060001EB0414042205E0002110
:10E21C008DF8071005EB04140522A273384601A9EA
:10E22C0001F046FCBDE8FC810C080020E800002051
:10E23C0000080140000C01401FB5044601200146B6
:10E24C0001F028FD4FF40030012101F02FFD1220C8
:10E25C000121FFF785FF13200421FFF781FF0094B4
:10E26C000C4C0C200023ADF80A0069462046ADF892
:10E27C000430ADF80630ADF80830ADF80C3001F0D4
:10E28C0061FF0121204601F0B5FF034901220A700C
:10E29C001FBD00BF004400400C080020142838B5F6
:10E2AC0004460D462BD8164B03EB0010817B01293D
:10E2BC0025D0022923D0032921D005291FD0FF29DD
:10E2CC001DD0104A1378012B03D1A4F112000128A0
:10E2DC0015D9042903D120460021FFF741FF012D58
:10E2EC0006D1074924010A190B599088186138BDC9
:10E2FC002DB9034924010A190B599088586138BD6E
:10E30C00E80000200C080020014B1868704700BF83
:10E31C00B813002010B504460A48022101F04DFD47
:10E32C000028F9D00748214601F042FD054801219B
:10E33C0001F043FD0028F9D0024801F03BFDC0B2CA
:10E34C0010BD00BF00380040F8B50F4C4FF4007101
:10E35C00204601F005FC9F20FFF7DCFFFF20FFF7B4
:10E36C00D9FF0646FF20FFF7D5FF0746FF20FFF732
:10E37C00D1FF3F0205464FF40071204601F0EEFB41
:10E38C0047EA06402843F8BD000C014070B50C4626
:10E39C0006464FF400711148154601F0E1FB0320CD
:10E3AC00FFF7B8FFC4F30740FFF7B4FFC4F307202F
:10E3BC00FFF7B0FFE0B2FFF7ADFF3DB1FF20FFF775
:10E3CC00A9FF013D06F8010BADB2F6E703484FF487
:10E3DC000071BDE8704001F0C1BB00BF000C0140F2
:10E3EC0010B5084C4FF40071204601F0B9FB042025
:10E3FC00FFF790FF20464FF40071BDE8104001F08C
:10E40C00ADBB00BF000C014008B5FFF77FF8FFF76C
:10E41C00E7FFFFF799FF194B984202D04C3B98420B
:10E42C002BD14FF40071164801F09AFB8020FFF7B6
:10E43C0071FF13484FF4007101F090FB4FF4007121
:10E44C000F4801F08DFB5020FFF764FF0C484FF490
:10E45C00007101F083FB4FF40071094801F080FB5F
:10E46C000120FFF757FF0020FFF754FF04484FF43B
:10E47C000071BDE8084001F071BB08BD8D25BF00DF
:10E48C00000C01407047FEE7FEE7FEE7FEE7704731
:10E49C0070477047FFF770BA08B5012001F038FCDF
:10E4AC0030B1012001F046FCBDE8084001F026BC6B
:10E4BC0008BDFEF711BB000008B5042001F068FA96
:10E4CC0078B1042001F074FA0020064B0146188044
:10E4DC00FEF7D0FD044810210122BDE8084001F0F0
:10E4EC00E8BD08BDEA070020002C014008B54FF438
:10E4FC00006001F04DFA38B14FF4006001F058FAA9
:10E50C00BDE80840FEF760BB08BD000008B50F4829
:10E51C00102101F007FEC0B10C48102101F00DFED6
:10E52C000020FEF773FE28B9094B1A880A3290B204
:10E53C00188008BD10210548002201F0BAFD00200A
:10E54C000121BDE80840FEF795BD08BD002C014037
:10E55C00EA07002000F0E0B83A4B82B01A6842F0AB
:10E56C00010018605968384A0A405A60186820F04F
:10E57C00847121F480321A60186820F480211960AB
:10E58C005A684FF41F0122F4FE0000225860996073
:10E59C0000920192186840F480311960294B1A6876
:10E5AC0002F40030019000994A1C0092019818B9AD
:10E5BC000099B1F5A06FF1D11B6813F4003218BFAC
:10E5CC00012201920198012805D0204B4FF00062E6
:10E5DC009A6002B070471E490B6843F010020A6043
:10E5EC00086820F003030B600A68A1F5805342F021
:10E5FC0002000860596859605A685A60586840F4BB
:10E60C00806159605A6822F47C105860596841F452
:10E61C00E8125A60186840F0807119601868094A4D
:10E62C008101FBD5536823F003015160506840F021
:10E63C0002035360034A516801F00C000828F9D119
:10E64C00C3E700BF001002400000FFF800ED00E03F
:10E65C000020024038B514490B78012B23D1134A02
:10E66C0013680BB90B7038BD114C402B206881B26C
:10E67C0005D94030403B20601360402504E09DB23A
:10E68C00C3180020236010600A4A5018C0212A4683
:10E69C0000F0C4FE0120294600F0CAFF0120BDE8AD
:10E6AC00384000F033BF38BDF807002000080020C8
:10E6BC00FC07002076120020094908B50020094B00
:10E6CC000122088003201A7000F0DEFF064B024680
:10E6DC00188006484FF48871BDE8084000F0B5BEBC
:10E6EC00F2070020EE070020F00700203612002071
:10E6FC00074B1868052809D1064B1A68511C052AC6
:10E70C00196003D100201860FFF702B8704700BFF2
:10E71C00180800201008002038B5194B194A196840
:10E72C00194D88B2108014882988214001F400709A
:10E73C0082B24AB14FF6FF541C60144B1D78691C11
:10E74C00C8B21870FFF7D4FF0E4A0F4B14881D88FF
:10E75C00254005F4004188B215461C4608B100F06E
:10E76C0097FD2A882388134003F4806188B230B166
:10E77C00034B07494FF6FF321A604868804738BD93
:10E78C00445C0040E41500201816002014080020FA
:10E79C0014030020034B987A10B1034905220A6038
:10E7AC00704700BFF415002018080020014B04220C
:10E7BC001A60704718080020034B1A78202A01D1E0
:10E7CC0000201870704700BF15080020704700002B
:10E7DC00212810B508D111480368197801F07F027F
:10E7EC00212A11D0022010BD2028FBD10B4B196817
:10E7FC000A780B4902F07F030A4A212B0CBF0B4607
:10E80C00002310700BB9EDE7074B044C2068002473
:10E81C008361448220469847204610BD1416002080
:10E82C0085E80008150800206DE80008074B1968FA
:10E83C000A7802F07F03212B05D1022801D1002098
:10E84C0070472228FBD00220704700BF141600200E
:10E85C0009B1022070470128FBD808467047000018
:10E86C0020B9034B082219680A8270470148704787
:10E87C0014160020DC02002020B9034B0822196872
:10E88C000A8270470148704714160020DC020020F1
:10E89C00054B1968CA78042A04D8044B03EBC2014F
:10E8AC0000F076BA0020704714160020E402002015
:10E8BC00014900F06DBA00BF04030020014900F0CB
:10E8CC0067BA00BF0C030020334A344BD179186867
:10E8DC0010B5002441728472C472204600F0C8FD49
:10E8EC0020464FF4007100F0CBFD1021204600F0C3
:10E8FC00D3FD4021204600F06FFE8021204600F021
:10E90C005BFE204600F024FE254B204693F8641055
:10E91C0000F09CFE204600F00AFE0120214600F08B
:10E92C00AFFD0120C02100F047FE0120202100F0A6
:10E93C00B3FD0120214600F0CCFD02204FF4C06154
:10E94C0000F09EFD02204FF4807100F035FE022095
:10E95C00214600F0BEFD0220202100F09DFD032089
:10E96C00214600F08DFD03204FF4887100F034FE39
:10E97C000320402100F06AFE03204FF4405100F0C8
:10E98C00A8FD0320214600F087FD204600F012FC74
:10E99C00044A0120106010BD7024010814160020D8
:10E9AC00DC0200201808002010B5FEF7F1FE054B24
:10E9BC0000241868847200F009F800F07BFE02490C
:10E9CC000C6010BD141600201808002008B501209A
:10E9DC00FEF734FE064B0749012200201A6018602E
:10E9EC00086005494FF4E0520A801A6008BD00BF68
:10E9FC00405C0040445C00401816002010B5064CEA
:10EA0C0018B9236801221A8210BD044B18680168DA
:10EA1C00884720680A3010BD1416002010160020FC
:10EA2C0010B5064C18B9236801221A8210BD044B8C
:10EA3C0018688168884720680C3010BD14160020B7
:10EA4C001016002008B5234A18B9136802221A823E
:10EA5C0008BD214B002012681880117811F07F013D
:10EA6C0013D1507A00F02002D1B209B102221A70EF
:10EA7C0000F04003D8B2184B18B11A7842F00101DB
:10EA8C001EE0197821F001011AE001291FD002299A
:10EA9C001ED1507900F00F024FEA820110F0800F66
:10EAAC0001F1804000F5B842116803D001F030024A
:10EABC00102A03E001F44050B0F5805F01D1012130
:10EACC001970064B186801698847034808BD184639
:10EADC0008BD00BF14160020E615002010160020FB
:10EAEC00F8B5224B1C68238A267AABB9042E13D1B5
:10EAFC001F48017801291F490AD11F4C226894B282
:10EB0C001E4AA2185200136030220A80037028E0BB
:10EB1C0010260E80072624E0A58AA169AB428CBF83
:10EB2C00022604269D4228BF1D46284688470746D4
:10EB3C00002000F061FD2A460146384600F06EFCCC
:10EB4C002946002000F074FD208A638A421BED18D0
:10EB5C0008480B4B228230214FF4405201806582D1
:10EB6C001A80024B18680672F8BD00BF14160020FC
:10EB7C001C0800201C160020505C004002300020B5
:10EB8C001A16002010B50A4B0A4918684B78C2783F
:10EB9C0093420AD3817841B9848834B98272064889
:10EBAC00026853689847204610BD022010BD00BF74
:10EBBC0014160020680300201016002038B50E4AE9
:10EBCC000E4C106823688269D9785879904721686F
:10EBDC008B7A7BB170B9087960B98D7855B9084AD0
:10EBEC001168CB68984720684279C178C27201736A
:10EBFC00284638BD022038BDEC1500201416002024
:10EC0C001016002010B5324B1B68187810F07F00DE
:10EC1C0004D15A7A22F02001597210BD022855D124
:10EC2C005A88002A53D11979002950D15A7922F0E7
:10EC3C0080004FEA800404F1804101F5B84421685A
:10EC4C00244C12F0800F247814BF01F0300101F431
:10EC5C004051A0423AD2002938D09B7A002B35D0B3
:10EC6C00840002F0800204F18043D1B203F5B84471
:10EC7C00226861B102F03002102A21D1C4B22046C0
:10EC8C0000F087FC2046302100F006FC18E002F46E
:10EC9C004051B1F5805F13D128B90F4B93F82C106C
:10ECAC0000F0D4FC01E000F062FC20684BF68F729F
:10ECBC00024082F4405141F4004343F08000206054
:10ECCC0006490B6858698047002010BD022010BD12
:10ECDC0014160020680300201403002010160020D6
:10ECEC0010B51F4B19684A7922F080034FEA830054
:10ECFC0000F1804404F5B8401A4C0068247812F0F6
:10ED0C00800F14BF00F0300000F44050A34224D216
:10ED1C004C8814BB08B3897AF9B19B0003F180418C
:10ED2C0002F0800201F5B843D0B2196828B148F658
:10ED3C00BF720A4082F0100004E04BF68F720A405A
:10ED4C0082F4805040F4004141F080001860064B82
:10ED5C001A6891698847002010BD022010BD00BFC1
:10ED6C0014160020680300201016002008B5064B6E
:10ED7C001868064B427A42F0200141721868C26949
:10ED8C009047002008BD00BF14160020101600206C
:10ED9C00054B1A68538A18B98988CB1A13827047A5
:10EDAC000868C018704700BF1416002008B50B4B3C
:10EDBC00002093F82C1000F049FC09480168087AEF
:10EDCC00082806D1074B4FF480521A80064A1021AE
:10EDDC001180B0F109035842584108BD14030020BA
:10EDEC00141600201A1600201C16002070B52E4B8D
:10EDFC001C68207A02284FD004284DD0032801D05B
:10EE0C00052843D1A169208AA9B1A0B1A58A854260
:10EE1C0028BF054628468847228A0646608A531B27
:10EE2C00291861822382002000F0F4FB2A46014657
:10EE3C00304600F00AFB228A52B11C4B4FF4405072
:10EE4C0018800020014600F0F3FB194A3021118094
:10EE5C00208AA38A1449834202D80B68032202E059
:10EE6C0018B10B6805221A720CE00A6806231149C6
:10EE7C0013720A68104993B25A1853000C4918605F
:10EE8C0030200880084801680B7A06E0072803D177
:10EE9C000A490A68D36898470823034A1068037222
:10EEAC00BDE87040FFF782BF141600201A16002030
:10EEBC001C160020505C004002300020EC15002095
:10EECC00944B73B51A68944990B24418934E6500EC
:10EEDC002A6835682B7A092B15D090B2410001F1C4
:10EEEC00804404F5C04422782A7063786B70A08843
:10EEFC0000F0DAFB68802089356800F0D5FBA8802B
:10EF0C00A0893168C880854D01242B68DA881C7271
:10EF1C005C78002A64D1187810F07F0238D1092C63
:10EF2C0002D1FFF72FFE45E0052C0FD193F90320FA
:10EF3C00002A01DA08214FE099780029FAD1988843
:10EF4C000028F7D19B7A002B38D0F3E7032C10D193
:10EF5C00D878012807D0724A204611684B69984727
:10EF6C00032829D137E09B88002BF4D1FFF7FEFE54
:10EF7C0020E0012CEFD1D9780129ECD19888002818
:10EF8C00E9D15B7A03F02002D1B20029E3D00AE088
:10EF9C00012A04D10B2CDED1FFF710FE0AE0022A65
:10EFAC00D9D1012C02D1FFF72DFE03E0032CD2D1D5
:10EFBC00FFF796FE10B1CEE70028BBD15548594B50
:10EFCC00026891B2C818584B4100002230200A60E8
:10EFDC001880062100E00921504A10680172D3E024
:10EFEC00062C13D11C7861067AD19A784C4B012AE5
:10EFFC0002D11C68E36969E0022A02D11868036A2D
:10F00C0064E0032A6CD119684B6A5FE0002C3ED196
:10F01C005988002964D1586820F47F42B2F5003F2A
:10F02C005ED11C7814F07F0004D19888002800F081
:10F03C00AE8055E001280CD1394A58791468A26980
:10F04C00904700284CD12B68997A002940F09F807A
:10F05C0046E0022844D15B7903F00F014FEA8102AC
:10F06C0002F1804404F5B840304C0268207813F06B
:10F07C00800F14BF02F0300202F4405281422FD2B2
:10F08C0013F0700F2CD1002A40F0818028E0082C5E
:10F09C0003D119784A067CD022E00A2C20D11878AA
:10F0AC0000F07F0101291BD19C7ACCB15988B9B9E8
:10F0BC005A6822F47F40B0F5803F11D1184C587932
:10F0CC0022689469A047002865D009E043B1134831
:10F0DC000024016820464C828B61984720460AE048
:10F0EC000F4A0E4C116823680A6958789047032818
:10F0FC0001D1236806E0094B4FF6FF711B681A8A91
:10F10C008A4201D1092103E0022800D082B90821EA
:10F11C00197239E0505C00400430002014160020B5
:10F12C00EC150020023000201C1600206803002083
:10F13C0093F90000002821DAD988019101988242C4
:10F14C0002D9019A1A8211E08A420FD21349086837
:10F15C0090F82C108A4201D2002105E092FBF1F0CC
:10F16C0001FB102212B901210D4801700B490868EE
:10F17C0090F82C209A82FFF7B3FC05E003221A7258
:10F18C00084B4FF440511980FFF710FE7CBD064B25
:10F19C009DE7064B9BE7064B99E700BFEC1500205B
:10F1AC001C0800201A16002051EA000809EA000881
:10F1BC002DEA000870B50D4B1C780023A34210D229
:10F1CC0003F1805202F5B855A90043F400420E68D1
:10F1DC0042F0800540F60F7232402A430A60013338
:10F1EC00ECE7034940F08000086070BD6803002024
:10F1FC004C5C004010B514490B680C461A7A022A74
:10F20C0001D0042A04D1FFF76BFC2168087A13E0C3
:10F21C00062A10D15878052809D11978480606D144
:10F22C00D878FFF7C7FF094B1A68106A804708495E
:10F23C000B689A6890470820034B1A681072BDE857
:10F24C001040FFF7B3BD00BF1416002010160020AD
:10F25C00EC1500207047000008B5074A074B022048
:10F26C00136018720649074B0748084A0B60106078
:10F27C001B68984708BD00BF14160020F415002029
:10F28C00EC1500201403002044030020101600206D
:10F29C0037B50023ADF806305848594B026891B287
:10F2AC001204198040F1A8801888564900F00F020A
:10F2BC000A70002A6ED1544C2568AAB2534D2A808C
:10F2CC002988534A01F03000108029884BF6BF7210
:10F2DC0001F44050288021680A4082F4005080F0EC
:10F2EC00200141F4004242F0800020601B8803F0B2
:10F2FC0010018AB23AB9226848F60F7010402060AB
:10F30C00FFF778FF1DE0206883B2ADF80630BDF83A
:10F31C00061001F4006290B238B1216840F68F7388
:10F32C000B402360FFF7CCFD0BE0BDF8063019B2A3
:10F33C000029B1DA226840F68F7010402060FFF788
:10F34C0055FD21682A884BF6BF7302F480500B40A0
:10F35C0081B209B183F480532C4A108800F4005117
:10F36C008AB20AB183F400532948018801F01002D3
:10F37C0091B209B183F01003008800F0200291B221
:10F38C0009B183F0200343F400401F4A40F0800190
:10F39C00116031E0930003F1804000F5B843196827
:10F3AC0088B2ADF80600BDF8061008B2002809DADC
:10F3BC00186840F68F7101401960164B013A53F8EA
:10F3CC0022008047BDF8061001F0800293B2002B9A
:10F3DC003FF462AF0B480278910001F1804303F5D2
:10F3EC00B841086848F60F7303400B600A49013AAC
:10F3FC0051F8220080474FE73EBD00BF445C0040FF
:10F40C00E4150020F0150020005C00401A160020C6
:10F41C001C160020A4020020C002002030B501F10F
:10F42C00005101F5405301325900521000230230B3
:10F43C00934209D010F8015C10F8024C44EA052400
:10F44C0021F823400133F2E730BD01F1005110B532
:10F45C00013201F54054521064000023934205D050
:10F46C0054F8231020F813100133F7E710BD0000F7
:10F47C004FF6F873014A034013607047505C00402C
:10F48C00800000F1804202F5B842106848F68F13F4
:10F49C000340194311607047800000F1804202F56F
:10F4AC00B842106848F6BF73034001F0100080B2F8
:10F4BC0008B99BB201E083F0100301F0200188B27F
:10F4CC0008B183F0200343F4004141F08000106048
:10F4DC007047800000F1804202F5B84210684BF68C
:10F4EC008F73034001F4805080B208B99BB201E0E5
:10F4FC0083F4805301F4005188B208B183F40053B3
:10F50C0043F4004141F0800010607047800000F12E
:10F51C00804202F5B840016848F6BF730B4083F097
:10F52C00300242F4004141F08003036070478000D8
:10F53C0000F1804202F5B84001684BF68F730B4026
:10F54C0083F4405242F4004141F080030360704761
:10F55C00800000F1804202F5B840016840F60F636C
:10F56C000B4043F4004242F0800101607047800080
:10F57C0000F1804303F5B8400268510408D50168D6
:10F58C0040F60F730B4043F4404242F0800101609F
:10F59C007047800000F1804303F5B8431A685006A9
:10F5AC0008D5196840F60F70084040F4004242F04C
:10F5BC00C001196070470000064B49081A6893B2E5
:10F5CC0003EBC00000F1005202F5405358004A0012
:10F5DC0002607047505C0040054B49081A6893B2B2
:10F5EC00044A03EBC000831858004A0002607047BD
:10F5FC00505C004004300020054B19688AB202EBC5
:10F60C00C00000F1005303F540514A0010887047C8
:10F61C00505C0040044B1968044B8AB202EBC000EA
:10F62C00C1184A0010887047505C0040043000201C
:10F63C00044B1A6893B2044A03EBC00083185800B9
:10F64C0001607047505C0040023000200C4B1A687F
:10F65C0093B20C4A03EBC00083185A003E2908D918
:10F66C004B09C90601D1581E83B2990241F40041DD
:10F67C0004E04B08C80748BF01339902116070477A
:10F68C00505C004006300020054B1968054B8AB2CF
:10F69C0002EBC000C1184A0010688305980D704732
:10F6AC00505C004006300020C3B2000A40EA032040
:10F6BC0070470000044B00201860044A044B4FF4C0
:10F6CC000641118019607047445C004018160020F8
:10F6DC00405C004040F0BF60024B40F40031D96008
:10F6EC00704700BF00ED00E0C37810B503B3164CB3
:10F6FC00E168CB43C3F302244178C4F1040201FA5C
:10F70C0002F10F2222FA04F28478037822400A4391
:10F71C00110103F16043CAB203F5614181F8002382
:10F72C000078012200F01F03410902FA03F007E000
:10F73C000078012200F01F03410902FA03F0203186
:10F74C00024B43F8210010BD00ED00E000E100E0A9
:10F75C0021F0604121F07F02014B1043986070470B
:10F76C0000ED00E0054A82B0002301930192019B59
:10F77C00C0180190019A116002B07047006C0040F3
:10F78C0002684FF6FE73134003602D4B0021984224
:10F79C00016041608160C16022D02A49884229D031
:10F7AC00294B984230D02949884237D0284B98426F
:10F7BC003ED0284B984206D153F8681C41F4700097
:10F7CC0043F8680C70472449884206D151F87C0CE8
:10F7DC0040F0706241F87C2C7047204B984206D167
:10F7EC0053F8042C42F00F0143F8041C70471C49D9
:10F7FC00884206D151F8183C43F0F00041F8180C3F
:10F80C007047184B984206D153F82C2C42F4706177
:10F81C0043F82C1C70471449884206D151F8403CDF
:10F82C0043F4704041F8400C7047104B984205D19E
:10F83C0053F8542C42F4702143F8541C704700BF09
:10F84C00080002401C00024030000240440002400C
:10F85C00580002406C000240800002400804024044
:10F86C001C0402403004024044040240580402408C
:10F87C0070B506688C680D6A26F4FF4222F070069B
:10F88C000A6945EA04034C6913438A692343CC692A
:10F89C0013431C434B6A44EA03028B6A1A433243F8
:10F8AC000260CB680A68496843608260C16070BDC1
:10F8BC0019B1016841F0010303E002684FF6FE73D1
:10F8CC0013400360704703680AB1194301E023EA4F
:10F8DC00010101607047406880B27047C3004CBFA3
:10F8EC00034B044B196801420CBF002001207047E8
:10F8FC000004024000000240C2004CBF014B024B0E
:10F90C00586070470004024000000240837910B533
:10F91C00002B29D01A4B01681C68CA4314401C6088
:10F92C005C6822405A60027902F1804404F582320C
:10F93C0014682143116002689C68D1430C409C60A0
:10F94C00DC68407921401028D96006D198681043B2
:10F95C009860D9680A43DA6010BD00F1804303F562
:10F96C00823319680A4308E00179006801F180428A
:10F97C0002F582331A6822EA00021A6010BD00BF39
:10F98C0000040140014B5861704700BF0004014066
:10F99C00064B1A68596910EA010304D010420CBFD7
:10F9AC000020012070471846704700BF000401403A
:10F9BC00014B5861704700BF00040140034A044BDF
:10F9CC0002F188305A605860704700BF23016745C8
:10F9DC0000200240024B1A6942F080001861704707
:10F9EC0000200240014BD860704700BF002002404D
:10F9FC00084BDA68D20709D4D868400708D4D9680C
:10FA0C0011F0100F0CBF0420032070470120704729
:10FA1C00022070470020024010B50446FFF7E8FFB3
:10FA2C00012806D11CB1FFF7E3FF013CF8E70520E4
:10FA3C0010BD002C08BF052010BD000070B5054698
:10FA4C004FF400500E46FFF7E7FF04280ED1084C88
:10FA5C00236943F0010020612E804FF40050FFF722
:10FA6C00DBFF226941F6FE711140216170BD00BFC0
:10FA7C000020024038B505464FF43020FFF7CCFF8C
:10FA8C00042812D1094C236943F0020020616561FE
:10FA9C0021694FF4302041F040022261FFF7BCFF96
:10FAAC00216941F6FD730B40236138BD00200240F3
:10FABC00CB78F0B5DA0648BF8A78098803F00F05D1
:10FACC0048BF154311F0FF0F1ED004680022012718
:10FADC0007FA02F707EA0106BE4211D197004FF070
:10FAEC000F0C0CFA07FC05FA07F724EA0C04282B78
:10FAFC0044EA070401D1466102E0482B08BF0661C5
:10FB0C000132082AE3D10460FF2920D9446800227D
:10FB1C0002F10806012707FA06F707EA0106BE42BA
:10FB2C0011D197004FF00F0C0CFA07FC05FA07F7F0
:10FB3C0024EA0C04282B44EA070401D1466102E0B4
:10FB4C00482B08BF06610132082AE1D14460F0BDA0
:10FB5C00836819420CBF0020012070470161704777
:10FB6C004161704701F0030230B592000F2404FA92
:10FB7C0002F400FA02F0074B8908023153F82150C5
:10FB8C0025EA040443F8214053F82140044343F888
:10FB9C00214030BD00000140014B1860704700BF90
:10FBAC0000300040014B5860704700BF00300040EF
:10FBBC00014B9860704700BF00300040024B4AF682
:10FBCC00AA221A60704700BF00300040024B4CF66E
:10FBDC00CC421A60704700BF00300040014B1860E7
:10FBEC00704700BF20000E42014B1860704700BFE9
:10FBFC00D80042421D4B10B55A6802F00C01042982
:10FC0C0001D0082902D01A4A02600EE05C685968DB
:10FC1C00C4F38342941CC90302D55B689B0301D5D2
:10FC2C00144900E012494C430460104A124B5468CA
:10FC3C00C4F303115C5C016821FA04F1416054685F
:10FC4C00C4F302241C5D21FA04F484605468C4F3E8
:10FC5C00C2241C5D21FA04F1C1605268C2F38132E6
:10FC6C009B181A7CB1FBF2F1016110BD001002402F
:10FC7C0000127A0000093D006C030020044B5A6905
:10FC8C0009B1104301E022EA00005861704700BF3F
:10FC9C0000100240044B9A6909B1104301E022EABA
:10FCAC0000009861704700BF00100240044BDA69F5
:10FCBC0009B1104301E022EA0000D861704700BF8F
:10FCCC00001002404309012B074A01D1136803E0DD
:10FCDC00022B0CBF136A536A00F01F0023FA00F1C9
:10FCEC0001F00100704700BF00100240024B5A6A3D
:10FCFC0042F080705862704700100240034B9888A5
:10FD0C0000F020018AB2002AF8D070470028004089
:10FD1C00074B9A881B8891B210EA030206D0084060
:10FD2C0010F0FF0F0CBF00200120704710467047E9
:10FD3C0000280040034B9A8891B221EA0000988079
:10FD4C00704700BF002800400B8810B54C88028813
:10FD5C0023438C8802F441522343CC8823430C89DF
:10FD6C0023434C8923438C892343CC89098A23431D
:10FD7C001A4393B20380828B22F400631A04130C8F
:10FD8C008383018210BD038819B199B241F04003FD
:10FD9C0003E023F040010A04130C038070478388AE
:10FDAC009BB20AB1194301E023EA0101818070473B
:10FDBC0081817047808980B27047038919420CBFDA
:10FDCC000020012070470000224A038890429BB219
:10FDDC0012D002F5006290420ED0B0F1804F0BD0E1
:10FDEC00A2F59832904207D002F58062904203D07F
:10FDFC0002F58062904203D14A8823F070031343CA
:10FE0C00154A904208D002F58062904204D023F447
:10FE1C004073CA889BB2134303808B880A888385FE
:10FE2C000C4B028598420FD003F5006290420BD028
:10FE3C0002F54063984207D003F58062904203D0EC
:10FE4C0002F58063984201D1097A018601228282EF
:10FE5C00704700BF002C014000100040038C70B5AF
:10FE6C0023F001021404250C0584068C8388028B74
:10FE7C009CB222F073052B040D881A0C26F0020696
:10FE8C0033042A434E880D891B0C3543ADB22B43EA
:10FE9C00134DA8420FD005F50065A8420BD005F50F
:10FEAC004065A84207D005F58065A84203D005F54A
:10FEBC008065A8420ED123F008064B898D881E431D
:10FECC0026F004032B43CE898D8924F440743543EA
:10FEDC00ADB22C43C988848002838186038470BDB3
:10FEEC00002C0140038C30B523F010021404250CB7
:10FEFC000584038C8288048B23F0200324F4E645CC
:10FF0C002C040D88240C44EA05241D042B0C0D89AB
:10FF1C0092B243EA05134D88A4B243EA0513124D7D
:10FF2C009BB2A84203D005F50065A84215D14D89B6
:10FF3C0023F080039BB243EA05134FF6BF751D40B7
:10FF4C008B8822F4406245EA0315ABB28D8942EAF4
:10FF5C008502CD8942EA850292B2C98882800483E7
:10FF6C000187038430BD00BF002C0140038C30B5E9
:10FF7C0023F480721404250C0584038C8288848BF2
:10FF8C0023F4007324F073052C040D88240C2C43EB
:10FF9C001D042B0C0D8992B243EA05234D8843EACC
:10FFAC000523124D9BB2A84203D005F50065A8426B
:10FFBC0015D14D8923F400639BB243EA05234FF618
:10FFCC00FF351D408B8822F4405245EA0325ABB225
:10FFDC008D8942EA0512CD8942EA051292B2C9888E
:10FFEC00828084838187038430BD00BF002C014054
:04FFFC00038C30B58D
:020000040801F1
:1000000023F480521404250C0584038C8288858B8C
:1000100094B225F4E64215042A0C0D8823F400530B
:1000200042EA05221D042B0C0D8992B243EA0533E6
:100030004D8843EA05330A4D9BB2A84203D005F52B
:100040000065A84205D18D8924F4804444EA8514D2
:10005000A4B2C98884808283A0F84010038430BD94
:10006000002C014000214FF6FF7383800180C18086
:100070004180017270470023038043808380C380E6
:10008000038143818381C3817047038819B199B289
:1000900041F0010303E023F001010A04130C038083
:1000A0007047B0F8443029B16FEA43436FEA5341D7
:1000B0008AB201E059044A0CA0F8442070478389B1
:1000C0009BB20AB1194301E023EA01018181704723
:1000D000038819B199B241F0800303E023F0800155
:1000E0000A04130C03807047038B23F008021304E7
:1000F0001A0C114301837047038B23F4006213042D
:100100001A0C42EA01218BB203837047838B23F0E0
:10011000080213041A0C114381837047838B23F464
:10012000006213041A0C42EA01218BB283837047E8
:10013000038A828911EA030092B203D011420CBFF4
:10014000002001207047C9438AB202827047000034
:10015000038A30B50D460446EA8898B220F440512F
:1001600011432182A3892889A98823F4B05340EA46
:100170000102688923F00C0102430804030C1A43AE
:1001800091B2A181A08AAA8983B223F4407187B079
:100190001143A18201A8FFF733FD1848A3898442C7
:1001A0000CBF0498039819B200294FF019032A686C
:1001B00003FB00F001DA510000E09100B0FBF1F127
:1001C0006423B1FBF3F21201100903FB1011A089A3
:1001D00000B2002806DAC9003231B1FBF3F303F0B4
:1001E000070005E009013231B1FBF3F303F00F0022
:1001F000024390B2208107B030BD00BF00380140FB
:10020000838919B199B241F4005303E023F40051FA
:100210000A04130C83817047C905CA0D8280704798
:100220008088C105C80D7047038819420CBF0020A3
:100230000120704701700B0A0A0C090E437082708E
:10024000C170043070470170090A41700230704774
:1002500043185A78405C00EB022188B2704710B511
:1002600043189A78DC78415C120402EB04625878F7
:10027000521802EB002010BD73B544790023022C04
:1002800001930FD0032C19D0012C2BD1164D2869C6
:100290002E4620B1296901A888470246B8B9B1683D
:1002A00001201BE0104DE8682E4620B1E96801A846
:1002B0008847024658B9B16802200FE00A4D6A69C2
:1002C0002E464AB16B6901A89847024620B1A96839
:1002D0002046BDF8043003E0B16803200022134635
:1002E00000F04AFB7CBD00BF64160020072810B553
:1002F0000CD801290AD8012404FA00F401FA00F00C
:10030000034B1A6822EA040202431A6010BD00BFC0
:1003100080030020F0B5012187B00546FFF798FF64
:1003200000F48043044698B250B3B4F5824F27D10D
:1003300028460521FFF78CFF00260746073534467F
:10034000BE4208D028460221FFF782FF013624185A
:100350000435B6B2F4E76A4B188E21188AB21A86B1
:10036000D86B2418DC63D96B9A6B914240F0C28041
:1003700093F84000002800F0BD809B69992092E02E
:1003800024F4FF4121F07F0293B2002B00F08F8014
:1003900048F210039C421ED00AD8B4F5004F40F238
:1003A000AB8048F20200844278D9811C8C420FE075
:1003B00048F28002944271D005D848F240039C4232
:1003C00040F09A8047E0B4F5024F67D0B4F5084F8B
:1003D00040F0928062E00022A81841790DF80210E6
:1003E0000132042AF8D16B7AA87AE97A2A7B8DF84F
:1003F00004308DF805008DF806108DF8072005F102
:100400000D00002306A9CA18C15C0133042B02F8B1
:10041000101CF7D105F11100002306AAD218C15C07
:100420000133042B02F80C1CF7D105F11500002351
:1004300000AAD218C15C0133042B1174F8D13049E1
:1004400028798A698DF81400002A53D08B692046D8
:100450006946152229E0053500212846FFF7FFFEF1
:10046000042100902846FFF7FAFE08210190284653
:10047000FFF7F5FE0C2102902846FFF7F0FE102151
:1004800003902846FFF7EBFE04901D488169002980
:1004900030D0836969462046142206E0184B9A69D9
:1004A00042B39B69204600210A46984722E041F268
:1004B0000300844205D00C30844202D0411E8C429D
:1004C0001AD16C1D04212046FFF7C9FE393013D123
:1004D0002D790B4A00212046D562FFF7C0FE04218A
:1004E00005462046FFF7BBFE393003D128460121DF
:1004F000FFF7FCFE012000E0002007B0F0BD00BFC8
:100500006416002038B50A4C638898B208B90020F8
:1005100038BD606801780429F9D1FFF7FBFE012896
:100520000546F4D100226280FCF786F9284638BDE2
:10053000641600202DE9F0470446884691460025C0
:10054000BC4B5A8890B20028FAD05E6831780429F2
:1005500040F0728130460121FFF77AFE05463046B1
:10056000FFF7D8FE002840F05C8141F20703771DB9
:100570009D4253D85A1E954280F0AC8040F2022032
:10058000854200F0A78014D80C2D09D8082D80F0E2
:10059000A180002D00F04581062D40F29B80DDE01A
:1005A0000D2D00F0948040F20127BD4240F03981CA
:1005B0008DE041F20202954218D8B5F5805F00F255
:1005C0008980B5F5017F40F2828040F207218D429B
:1005D00040F027813379002104F8013B3846FFF7CA
:1005E0003EFE01462046FFF725FE1AE141F20400D7
:1005F000854200F0898040F2A08038460021FFF754
:100600002EFE042120603846FFF729FE6060083482
:1006100006F10D07224606F11D016EE041F21100C0
:10062000854254D02CD841F20B02954252D01CD8AE
:1006300041F209018D424DD000F28B8000213846F5
:10064000FFF70DFE042120603846FFF708FE082161
:1006500060603846FFF703FE0C21A0603846FFF7C4
:10066000FEFD04F10C0AE060DAE041F20F00854281
:1006700063D035D841F20D02954240F0D28043E07C
:1006800042F206018D4222D008D8B5F5005F40F253
:10069000C88042F204039D4219D983E042F2080364
:1006A0009D42C0F0BE80581C854210D944F20B0216
:1006B000954240F0B6807179DFF878A13846AAF803
:1006C00030100121FFF7C4FDAAF83200A9E0377904
:1006D0002770A6E038460021FFF7C1FD2060A0E0AA
:1006E00000213846FFF7BBFDA2464AF8040B04215F
:1006F0003846FFF7B4FD606092E057F8043B8F4244
:1007000042F8043BF9D18CE000213846FFF7A7FD01
:10071000042120603846FFF7A2FD082160603846BA
:10072000FFF79DFD04F1080AA060E46814F13903A5
:1007300076D10121FFF7DAFD72E000213846FFF79C
:100740008EFD042120603846FFF789FD6060083483
:1007500067E0337923713F68276062E03846002103
:10076000FFF77DFD042120603846FFF778FD082162
:1007700060603846FFF76CFD0A21A0603846FFF73D
:1007800067FDC4F80A000C3406F11107224606F191
:10079000350157F8043B8F4242F8043BF9D13888C1
:1007A00010803EE00022B7187879A0540132042A64
:1007B000F9D106F109070023F95CE0180133042B95
:1007C0000171F9D106F10D070020395C22180130C2
:1007D00004281172F9D106F111070023F95CE2181F
:1007E0000133042B1173F9D106F115000022875C47
:1007F000A1180132042A0F74F9D106F1190000235F
:10080000C75CE1180133062B0F75F9D106F11F0003
:100810000021475C6218013120299776F9D100E068
:100820005446044B188882B2954225D10021198084
:1008300022E000BF6416002030460321B778FFF79E
:1008400007FD8246B8F1000F0CD00421701DFFF7A0
:1008500006FD0346C9F8000006F115014046DAB26C
:1008600000F0CAFC7A1DB1182046C7EB0A0200F05E
:10087000C3FC0F490020C8860D4F00237B80FBF787
:10088000DBFF3078042805D1B5F5805F02D1304612
:10089000FFF7F2FC3A8891B200297FF451AE044B85
:1008A000D88E80B200287FF44BAEBDE8F08700BF41
:1008B0006416002007284FF0010308D803FA00F05F
:1008C00004490A6810420CBF0020012070471846F6
:1008D000704700BF80030020034B188008460021AA
:1008E0000A46FFF727BE00BF6416002010B5034B71
:1008F0000124DC86BDE81040FFF71CBE6416002012
:1009000038B50346154601224A710C46881D194622
:10091000FFF799FC291D05702046FCF74DF80020D3
:1009200038BD38B5BDF814500C469B18A071E818B6
:1009300085B202216171E271294604F10800FFF7D6
:1009400082FC6A1D204691B2FCF736F8002038BDC3
:1009500038B59B180C469DB202216171A071E271FD
:10096000294604F10800FFF76EFC6A1D204691B28B
:10097000BDE83840FCF720B82DE9F0471D4605F1E9
:10098000020A032301F107091FFA8AFA88714B71E1
:100990000C46484651461746FFF755FCB5F57A7F99
:1009A000804613D82946FFF74EFC29464046FFF7FC
:1009B0004AFC394604F10B002A4600F01DFCA91D33
:1009C000204689B2BDE8F047FBF7F6BF4FF47A76D0
:1009D000B5FBF6F10AEB410291B2FFF734FC314668
:1009E0004046FFF730FC394604F10B00324600F078
:1009F00003FCA5F57A75204640F2EE31ADB2BF1981
:100A0000FBF7DAFFB5F57A7F05D9A5F57A7085B2DF
:100A10004FF47A7601E02E460025A046394628F8A4
:100A2000056F4846324600F0E7FBB31C404699B2DA
:100A3000BF19FBF7C1FF002DE4D1BDE8F08700002E
:100A40002DE9F34106460C461E4831681546D0F89C
:100A500008804A1E1F46FF23122A8DF8073008F12E
:100A6000090001D81423336021684A1E122A01D8D4
:100A70001423236029684A1E122A01D814232B60EC
:100A800039684A1E122A01D814233B603168FFF7E7
:100A9000D1FB2168FFF7CEFB2968FFF7CBFB396854
:100AA000FFF7C8FB4146142242F20900FFF728FF76
:100AB00042F209000DF10701FFF70EFF9DF9070053
:100AC000BDE8FC81641600202DE9F34186461448F8
:100AD0000D46866871461F4602ACFF2306F10900E9
:100AE00004F8013D9046FFF7A5FB2946FFF7A2FB5E
:100AF00040F201254146FFF79DFB0C223146284676
:100B0000FFF7FEFE28462146FFF7E6FE00213846A5
:100B10000A46FFF7EBFE9DF80700BDE8FC8100BF29
:100B2000641600202DE9F341864616480C46866877
:100B30007146984602AD4FF0FF3306F10A0045F8C2
:100B4000043D1746FFF776FB0C21FFF773FB2146A8
:100B5000FFF770FB3946FFF76DFB4146224606F171
:100B60001A0000F049FB902031461022A3B2FFF793
:100B7000EFFE40F202202946FFF7AEFE0198BDE8E5
:100B8000FC8100BF6416002037B50B4B40F20725EF
:100B90000446996800222846FFF7B2FE28466946B7
:100BA000FFF79AFE9DF803009DF804102070617015
:100BB0009DF800003EBD00BF6416002037B50D4A09
:100BC000034695680C4605F109001946FFF732FB0C
:100BD000214640F20324FFF72DFB29460822204638
:100BE000FFF78EFE20460DF10601FFF775FEBDF8FA
:100BF00006003EBD6416002038B505460E4CE36A7B
:100C00004BB100F0F3FAE36A03600020E06200F009
:100C1000EDFA006838BD2846FFF74CFE40B9228E39
:100C200091B20029EAD0238E5A1E91B2218638BD96
:100C30004FF0FF3038BD00BF64160020F7B5034603
:100C400014480D4686681946174602AC4FF0FF322D
:100C500006F1090044F8042DFFF7ECFA2946FFF7E6
:100C6000E9FA41F201053946FFF7E4FA0C22314670
:100C70002846FFF745FE21462846FFF72DFE00F0E7
:100C8000B5FA0199016008460021FFF72FFB019892
:100C9000FEBD00BF64160020F7B5054610484FF0B2
:100CA000FF33876802AC294641F20B0607F10900C1
:100CB00044F8043DFFF7BEFA042239463046FFF7F8
:100CC0001FFE21463046FFF707FE00F08FFA01991C
:100CD000016028460121FFF709FB0198FEBD00BF16
:100CE0006416002037B5034613484FF0FF3284687E
:100CF0000D4604F1090019460192FFF79BFA0821FD
:100D0000FFF798FA0821FFF795FA0023E95CC15430
:100D10000133082BFAD11422214641F20700FFF7D4
:100D2000EFFD01A941F20700FFF7D6FD00F05EFAE2
:100D3000019A026010463EBD641600202DE9FF4175
:100D40001D46314B8646D3F808800F4608F109004E
:100D5000714616460A9CFFF76DFA1421FFF76AFAEE
:100D60001421FFF767FA1421FFF764FA1421FFF743
:100D700061FAD4F1010138BF0021FFF75BFA0FB12E
:100D8000396800E03946FFF755FA0EB1316800E0E6
:100D90003146FFF74FFA0DB1296800E02946FFF709
:100DA00049FA74B1216839B9636841F287329342D4
:100DB000DCBF41F288336360FFF73CFA6168FFF7FC
:100DC00039FA2C22414641F20800FFF799FD41F221
:100DD00008006946FFF780FD009B002B09DB0FB17F
:100DE000019838600EB1029A326045B103992960CA
:100DF00005E000F0FBF900994FF0FF330160184661
:100E000004B0BDE8F08100BF641600202DE9FF4169
:100E10009846154B07469D6814460E4605F1090095
:100E20003946FFF707FA2146FFF704FA4146FFF774
:100E300001FABDF830400C2229462046FFF760FD3C
:100E4000204601A9FFF748FD0298002804DD30463E
:100E50000A990B9AFFF74AFD00F0C8F90299016060
:100E6000084604B0BDE8F081641600201FB50024D8
:100E70000094019441F204040294FFF7C7FF04B008
:100E800010BD00002DE9F04F89B0039114469B4638
:100E9000139E149D0290FFF7AFFEDDF808C00028F6
:100EA00057D12D4B9A6B511C9963D3F80890812D23
:100EB00009F10A0307D0832D0AD104F1080A09F1C8
:100EC0002208182704E009F11A0810270646129094
:100ED00061461846FFF7AEF9391FFFF7ABF9214617
:100EE000FFF7A8F95946FFF7A5F9832D05D151461B
:100EF000FFF7A0F90821FFF79DF90022A24205DAC9
:100F00000398815C08F802100132F7E7002CA8BFB3
:100F1000A044832D0ED0129AB6B200920196E8B288
:100F200049463A46A3B2FFF7FCFC832D0BD141F2B0
:100F30000F000AE00020B042EDDA12990B5C08F8CD
:100F400000300130F7E741F2030005A9FFF7C4FCC8
:100F5000204609B0BDE8F08F641600201FB50024BC
:100F60000094019481240294FFF78CFF04B010BD1B
:100F7000024B01225A805860FFF7C4BA6416002061
:100F800010B5084CE16022616361029B0399E36143
:100F9000049A059B21626262A362A061012084F829
:100FA000400010BD6416002070B5214C0546214854
:100FB0000023A363E363238023866386A386E386FB
:100FC000E36263806360A0601B48FBF721FCE1697A
:100FD0008847A26A06460120904706B3E169884720
:100FE0000028FBD1124C0035A16818BF01254D72B5
:100FF00001224FF48040FFF783FC00214FF4804032
:10100000FFF76AFCA168002244F20B00FFF778FCAE
:1010100044F20B000021BDE87040FFF75DBCE369BE
:1010200098470028FBD0E06980470028FBD1D9E72A
:1010300064160020340A0020710F01082DE9F04FDA
:1010400083462F4885B0D0F80890144600259A466C
:1010500088464FF0FF331C2109F1090001930F9ED0
:101060000E9F0295ADF80C50FFF7E4F82146FFF70C
:10107000E1F85946FFF7DEF804F11001FFF7DAF85E
:101080003146FFF7D7F82946FFF7DDF8BAF1000F30
:1010900008D01AF8052042550135062DF9D1063041
:1010A000002207E0534602AA995CC1540133062B83
:1010B000F9D1F4E7A24204DA18F80210815401329F
:1010C000F8E7002CA8BF00193EB100232FB1B342AE
:1010D00003DAFA5CC2540133F9E71C34A319DAB21B
:1010E00049460120FFF70CFC01A90120FFF7F4FBA2
:1010F00000F07CF801990160084605B0BDE8F08F6A
:1011000064160020F7B503460F480E468568194659
:10111000174602AC4FF0FF3205F1090044F8042DE8
:10112000FFF788F83146FFF785F83946FFF782F870
:1011300029460C220420FFF7E3FB04202146FFF799
:10114000CBFB0198FEBD00BF6416002037B50B4BEA
:1011500001469D6802AC05F10900FFF76BF84FF0FE
:10116000FF3044F8040D294604220620FFF7C8FB8F
:1011700006202146FFF7B0FB01983EBD6416002013
:1011800037B548F2080248F2080102408A42034695
:1011900013490BD10020934281F840001FD023F463
:1011A000004424F0080545F4004302E0012081F8E2
:1011B00040000B494FF0FF328D6802AC194605F133
:1011C000090044F8042DFFF735F8294604220820C9
:1011D000FFF796FB08202146FFF77EFB01983EBDF6
:1011E0006416002000210A2200F09CBF40F2B07378
:1011F000C2F20003186870470F2A2DE9F00340F28D
:10120000A18041EA00039B0740F09E800C68A2F198
:10121000100504604B68AC4643608C68BCF10F0F4E
:101220008460CC68C5F30015C46000F1100301F1BF
:1012300010042BD975B12568ACF1100C1D606568E0
:101240005D60A5689D60E5681034DD601033BCF119
:101250000F0F1BD9276804F110061F60676803F1A0
:1012600010055F60A768ACF1200C9F60E768DF6045
:1012700024691C61776806F110046F60B768203339
:10128000AF60F668BCF10F0FEE60E3D8A2F1100872
:1012900028F00F0302F00F0403F1100C032C00EBF5
:1012A0000C0301EB0C0851D9211F4FEA9109444668
:1012B00008EB890C54F8046BC8EB0C010CF1040C1E
:1012C0001D46644545F8046BC1F3800112D029B175
:1012D00054F8041B644545F8041B0BD0274657F807
:1012E000041B2E4646F8041B64686C603C1D351DCB
:1012F0006445F3D109F1010C4FEA8C0902F00302B5
:1013000008EB09014B44D2B10D789A18DC4303F87D
:10131000015B1419934204F0010410D02CB111F8B0
:10132000014F03F8014B934209D04D781C4604F855
:10133000015B8D7802315D70631C9342F5D1BDE88D
:10134000F00370470346DEE70346DDE741462246E9
:10135000D9E700BFF0B48407034600F08D80541E27
:10136000002A00F08780E507CEB211D41A4602F8B1
:10137000016B13461546920710D0621E002C79D0DF
:1013800003F8016B14469A071D4607D0013CEDE7B0
:10139000034603F8016B9A071D46F7D1032C52D977
:1013A000CEB246EA06270F2C47EA07432DD9A4F10F
:1013B000100217460F2FC2F300162B606B60AB6054
:1013C000EB6005F1100216D93EB1103F1360536077
:1013D0009360D36010320F2F0DD9203F02F1100619
:1013E000136053609360D360136153619361D36161
:1013F00020320F2FF1D8A4F1100222F00F0204F0D6
:101400000F041032032C15441DD9271F3E462A46CF
:10141000032E42F8043BC7F380070DD927B1043EE1
:10142000032E42F8043B07D9174647F8043B083E11
:1014300053603A1D032EF7D8231F23F00302131D18
:1014400004F00304ED18ACB1C9B2EA432C1905F855
:10145000011BA318A54203F001020BD01AB105F835
:10146000011BA54206D02B4603F8011B69705D1CC9
:10147000A542F8D1F0BC7047054614468EE700BF80
:10148000C9B2F0B400294BD082070FD00278002AED
:1014900071D0914242D0431C05E013F8012B002A81
:1014A0003BD091423AD09A071846F6D1036841EAF8
:1014B0000127A3F1013222EA030212F0803F47EA3A
:1014C00007471CD17B40A3F1013222EA030313F04A
:1014D000803F14D1021D02E014F0803F0FD110466E
:1014E00052F8043BA3F1013687EA030426EA03031A
:1014F000A4F1013513F0803F25EA0404ECD0027812
:10150000002A38D0914209D0431C01E0914205D015
:10151000184613F8012B002AF8D11046F0BC70478A
:1015200083070BD00278002AF8D0431C03E001782F
:1015300001330029F2D099071846F8D10168A1F1CA
:10154000013323EA010212F0803F0AD1031D18463D
:1015500053F8041BA1F1013424EA010212F0803F88
:10156000F5D00378002BD9D0421C117810460132F7
:101570000029FAD1D2E71046D0E700BF80EA010285
:1015800012F0030F40F03A8010F0030220F0030045
:1015900021F0030150F804CB08BF51F8043B0DD0F3
:1015A00082F003024FEAC2026FF07F4323FA02F295
:1015B00051F8043B4CEA020C43EA0203ACF101325D
:1015C0009C4501BF22EA0C0212F0803F50F804CB88
:1015D00051F8043BF2D04FEA0C604FEA1C2C012872
:1015E00028BFB0EB036F08BF1B0AF4D003F0FF0362
:1015F0004FEA1060A0EB0300704700BF10F0030F2C
:101600000AD010F8012B11F8013B012A28BF9A4299
:10161000F4D0A2EB030070474DF8045D4DF8044D83
:101620004FF0010242EA022242EA024201F0030CB8
:1016300021F0030150F8044B51F8045BBCF1020F98
:1016400026D04BD824F07F4CBCEB152FA4EB020323
:1016500023EA04030DD113EAC21308BF51F8045B57
:101660000AD18CEA040CBCEB056F0CD150F8044B8A
:10167000E8E74FEA15255CE033F07F4352D10D785F
:101680004FEA146C55E04FEA146C05F0FF0550E08A
:101690004FEA044CA4EB02034FEA1C4C23EA040378
:1016A000BCEB154F17D113EAC21308BF51F8045B06
:1016B00007D18CEA040CBCEB054F08D150F8044B61
:1016C000E6E71B042ED10D884FEA144C31E04FEAB7
:1016D00005454FEA144C4FEA15452AE004F0FF0C8B
:1016E000BCEB156FA4EB020323EA04030DD113EA4C
:1016F000C21308BF51F8045B0AD18CEA040CBCEB9E
:10170000052F0AD150F8044BE8E74FEA156510E0C1
:1017100014F0FF0F06D051F8045B4FEA142C25F0AB
:101720007F4506E04FF000005DF8044B5DF8045B78
:1017300070470CF0FF0205F0FF00012828BF90421F
:1017400004BF4FEA1C2C2D0AF3D0A2EB00005DF879
:10175000044B5DF8045B704720F0030110F00300B8
:10176000C0F1000051F8043B00F1040C4FEACC0C2E
:101770006FF000021CBF22FA0CF213434FF0010C71
:101780004CEA0C2C4CEA0C4CA3EB0C0222EA0302B0
:1017900012EACC1204BF51F8043B0430F4D013F029
:1017A000FF0F1FBF013013F47F4F013013F47F0F81
:1017B00018BF0130704700BFF0B4002A00F08380EA
:1017C00041EA000313F003052ED0551E03780A7872
:1017D000934226D1002D7AD0002B7AD001358C1C73
:1017E0004D192B1BDB0716D510F8013F14F8012CFF
:1017F000934216D1CC1C73B936E0AC4234D00134DC
:10180000002B31D014F8012C10F8013F0134934221
:1018100007D1002B28D010F8013F14F8012C934277
:10182000EBD0981AF0BC7047032ACED904680B6835
:101830009C42CAD1131F4CD0A4F1013222EA040405
:1018400014F0803F43D15A072FD542684C680430CA
:101850000431A24239D1043B06D0A2F1013424EA7A
:10186000020212F0803F20D00020DBE7726864683B
:10187000A2F10135A24225EA020526D1043B00F17E
:10188000040001F10401EFD015F0803FECD1DCF849
:1018900004207C68A2F10135A24225EA020514D198
:1018A000043BE1D015F0803FDED10C460646043102
:1018B0000430032B84460F46D8D85D1E002B85D1FB
:1018C00033792279ADE71046ACE75D1E7EE7284606
:1018D000A8E71846A6E700BF2DE9F00701273C4618
:1018E00000254FF0FF3663198B4200EB060C0DD23A
:1018F0001CF804A010F80380D0452ED201241D4608
:101900009F1B63198B4200EB060CF1D34FF0010AC9
:101910001760544600254FF0FF3C6319994200EBD5
:101920000C080ED918F8048010F80390C1451AD994
:1019300001241D46CCEB030A6319994200EB0C0805
:10194000F0D80CF101000136B0423CBFBA46304637
:10195000C2F800A0BDE8F00770470BD001272E4663
:101960003C46ED19BFE709D04FF0010AAC4654469A
:101970005544D2E7BC4205D00134B4E7544505D004
:101980000134CAE727461D460124ACE7A2461D469E
:101990000124C2E72DE9F04FADF2244D154606466D
:1019A00089461046194607AA1C46FFF795FF07AB64
:1019B00082460DF21C411A1D5C6008338B42546054
:1019C000F9D114B301232F78611E08A8A34240F86F
:1019D000271001EA030218D032B16A7802234F1EA1
:1019E000A34240F8227010D0B046A4465C1C15F803
:1019F00003E0CE1A2A5D02330F1B634540F82E60C8
:101A000040F82270F2D14646644607992846691884
:101A1000524600F035FC002840F0B6800AF1FF3E47
:101A200005EB0E0CCDF808E0CAF1010E834604F177
:101A3000FF38CDF80CC0CDF814E00746CDF810A063
:101A40004A460095019408E027B1079FBB4201D2A6
:101A50000199CB1B9B4400272246019CB0185C4493
:101A60000021A21A00F06CFB002840F08780002CB7
:101A700000F08480301910F8013C08A951F8233097
:101A8000002BE1D1049B9F4228BF3B46434527D210
:101A9000DDF8009006EB0B0119F80350CA5C09EB66
:101AA0000300954266D1DD43454415F0010F02461F
:101AB00013D00133434513D24078CD5C01328542C7
:101AC0000BD057E012F8010FCD5C854252D10133A3
