:020000040800F2
:10500000005000207D7A0008157100081771000813
:10501000197100081B7100081D71000800000000D4
:1050200000000000000000000000000021710008E6
:1050300049710008000000004D7100089D710008D2
:10504000CD7A0008CD7A0008CD7A0008CD7300082B
:10505000CD7A0008CD7A000809720008297200088C
:10506000497200087D7200089D720008CD7A000820
:10507000CD7A0008CD7A0008CD7A0008297400089E
:10508000CD7A0008CD7A0008B9710008CD7A000801
:105090002D740008CD7A0008CD7A0008BD72000892
:1050A000CD7A0008CD7A0008CD7A00088573000813
:1050B000CD7A0008CD7A0008CD7A0008D9710008B1
:1050C000E9710008CD7A0008CD7A0008F97100086E
:1050D000CD7A0008CD7A0008C9710008CD7A0008A1
:1050E0000D730008E9730008CD7A00080000000085
:1050F00000000000000000000000000000000000B0
:0C51000000000000000000005FF808F153
:1051100070B5012188B0044601F019FCA0F13005FA
:10512000072D37D803226846214601F039FC1C4977
:1051300004A801F092FB204604A901F0F6FB064604
:1051400004A801F048FB1EB1ADB22846002110E0D2
:10515000144904A801F081FB204604A901F0E5FBF5
:10516000044604A801F037FB74B10A35ADB22846F5
:10517000314600F03FFF684601F019FCC1B22846F5
:1051800001F0D4F8012401E06FF00104684601F059
:1051900022FB01E04FF0FF34204608B070BD00BF95
:1051A000784C01087A4C01087FB50121054601F0D1
:1051B000CEFBA0F13004072C23D81549684601F036
:1051C0004CFB2846694601F0B0FB0646684601F0F4
:1051D00002FB6EB90F49684601F03FFB284669465D
:1051E00001F0A3FB0546684601F0F5FA65B10A3403
:1051F000A4B22046012100F0FDFE204601F03CF85B
:1052000004E04FF0FF3001E06FF0010004B070BD2A
:10521000784C01087A4C0108F0B5012185B00446AC
:1052200001F095FBA0F13006072E49D868462146CB
:105230000322072301F08EFB6846264901F04BFB51
:105240000546684601F0C7FA7DB968462146032243
:10525000062301F07FFB68461F4901F03CFB07462F
:10526000684601F0B8FA0FB92DE001251B496846E0
:1052700001F0F3FA2046694601F057FB07466846FD
:1052800001F0A9FA1FB1B6B23046002110E014496E
:10529000684601F0E2FA2046694601F046FB044602
:1052A000684601F098FA8CB10A36B6B230463946F3
:1052B00000F0A0FE3046294600F020FF012007E064
:1052C0004FF0FF3004E06FF0010001E06FF00200EA
:1052D00005B0F0BD7C4C0108814C0108784C0108F8
:1052E0007A4C01087FB50121054601F030FBA0F1A1
:1052F0003004072C23D81549684601F0AEFA284639
:10530000694601F012FB0646684601F064FA6EB980
:105310000F49684601F0A1FA2846694601F005FBED
:105320000546684601F057FA65B10A34A4B2204632
:10533000032100F05FFE204600F028FF04E04FF05C
:10534000FF3001E06FF0010004B070BD784C01083F
:105350007A4C010808B50948094900F04BFC094896
:10536000094900F047FC0948094900F043FC094895
:105370000949BDE8084000F03DBC00BF854C01086C
:10538000E5520008914C0108195200089E4C010892
:10539000A9510008A94C01081151000870470000EC
:1053A00007B5002100910A460B46024801F040F97A
:1053B0000EBD00BF240B002010B501310023934225
:1053C0000ED0040F092C01D8303400E0373401F836
:1053D000014C01330024000101F8024BDBB2EEE77F
:1053E00010BD000008B50F4B1878012801D00E49F8
:1053F00039B90E4A1378002BFBD10A48017819B14C
:10540000F7E7FFF7A7FFF4E7094A0AB1FFF7C6FF7E
:10541000084B18780028ECD000F06EFC00F09EFCE1
:10542000E7E700BFE82C002055530008AE26002017
:105430009D530008AD26002010B505F09DFA1B48CD
:1054400001F0BCFC01F070FD194B18780028F9D070
:10545000184C2178B9B900F03DFD002811D002DACE
:105460004FF47F0007E0012801D1134803E0022830
:1054700003D14FF0FF1004F079FCE72004F0F2FCB8
:1054800001E00122227000F0E9FC0028DAD10B4B88
:10549000187808B104F0BAFC09490A4A054B0448D7
:1054A00000240C7014701C700470CBE7695E000857
:1054B000AC260020AD2600200060FF001C27002045
:1054C000AE260020AF26002010B54FF000604FF44C
:1054D000A04105F085FC374B01213748197005F0D4
:1054E0006BFF04F0EDFD0021344C00220A55013120
:1054F000B1F5006FF8D1324B4FF0807004F5F861D0
:10550000C4F8FC07C4F8F837C4F8F427C4F8E02757
:10551000C4F8001810462B4C002202550130B0F59B
:10552000A06FF8D14FF080732749C4F8FC34274BA3
:10553000C4F8F424C4F8E024C4F8F8141F48196827
:1055400004F59864C0F8044D42F21074B1FBF4F015
:105550001F4C2049431EF0204B6084F823008A60D2
:1055600007220A60D023E02184F82330E17701216B
:1055700084F82200402005F0E7FF6FF07F4004F040
:10558000F5FBE72004F06EFC13480124047004F0DE
:10559000B9FA7D2006F008F818B1104A147006F028
:1055A00017F840F6B83004F015FB05F053F800DFAB
:1055B000FEE700BF32270020000430002C0B002043
:1055C0003954000830130020E5530008CC020020B5
:1055D00000ED00E010E000E0AF260020E82C002005
:1055E000534B70B5D3F8082D501CC3F8080DD3F8F1
:1055F000081D09290DD9D3F80C4D4E48621CC3F87B
:105600000C2D016811B10468621E02600020C3F80D
:10561000080D494B197829B1484B1978E1B1484C2C
:105620002CBB19E0474C226812B12068411E12E0E1
:105630004548037883B945490A786AB944480378EC
:1056400053B9444E444D3178B1B1E72004F084FCA5
:105650002A787AB1C82121603B4A147824BB2046BD
:1056600004F078FD40F6B733984247D81CE000F0CC
:1056700043FCF1E70A21EEE72A784AB14FF6FF70C2
:1056800004F074FB0124E72004F0ECFB3470E3E742
:10569000E72004F015FC3148037813B14FF4FA7198
:1056A000D9E74FF47A71D6E7002004F053FD41F6B4
:1056B0005731884205D9002004F054FD284A0120C2
:1056C0001070284B1A7852B92349087838B1264B04
:1056D00026491868884227D91A6000F077FC244BC5
:1056E0001968B1F57A7F05D300211960BDE87040D3
:1056F00005F0C0BE1A68501C186070BD204604F04A
:1057000031FD184B19780029DBD11A4802782AB1EB
:10571000124B1148197802780A4202D001200A4A35
:10572000CEE700F053FCF9E71A68501C1860D6E782
:105730002C0B0020F02C00201C270020C41B002074
:10574000F95E0008EC2C0020AA260020AE260020DE
:10575000B0260020AF260020AD260020AC26002079
:10576000B9260020C3260020B4260020DF930400C1
:10577000F42C0020AB26002008B5064B186004F07E
:1057800013FF04F027FF04F045FFBDE8084006F0D2
:10579000C9BD00BFDC010020084B186805280BD1EB
:1057A000074991F8102D012A06D191F8120D91F8B0
:1057B000143DC11AC8B27047002070474C27002022
:1057C0002C0B0020114B10B5186805281AD1104C6D
:1057D00094F8101D012915D1B4F8122DB4F8143D18
:1057E000D01A012805D10021032084F8101D06F0ED
:1057F00004FFB4F8143DE218591C92F8160DA4F8F1
:10580000141D10BD4FF0FF3010BD00BF4C2700200D
:105810002C0B0020094B196805290ED1084BD3F831
:10582000582D991881F85C0D501CB0F5807FC3F895
:10583000580D02D10022C3F8582D70474C27002084
:105840002C0B002070B5234A92F85C3E012B40D00F
:10585000D2F8600EB0F5807F02D10021C2F8601E40
:10586000D2F8603ED2F8582D1A48934203D1002155
:1058700080F85C1E70BD8CBFC3F58072C3EB020262
:10588000144CC0F8642ED4F8645E99B2402D07D948
:105890004033403DC4F8603EC4F8645E402606E0F4
:1058A000E8180023AEB2C4F8600EC4F8643E0A4A99
:1058B00001255018C021324684F85C5E06F014FEC3
:1058C0002846314606F01AFF2846BDE8704006F02B
:1058D00083BE70BD2C0B002088180020094B10B52A
:1058E00093E814000833186810180AD008220649F3
:1058F000FFF762FD054920460422BDE81040FFF78E
:105900005BBD10BDE8F7FF1F8A0100209A0100204F
:1059100038B50D460446AC4203D254F8043B9847D0
:10592000F9E738BD08B507480749FFF7F1FF074811
:105930000749FFF7EDFF07480749BDE80840FFF7B3
:10594000E7BF00BF244F0108244F0108244F01087E
:105950006C4F01086C4F01086C4F0108FEE7000016
:10596000054A08B51368054918188842106001D91E
:105970000BF0C0F9184608BD00000020004E0020C2
:105980004FF0FF307047012070470000014B18684E
:10599000704700BF94190020064B0246582000FBB8
:1059A000013101F1080303CB106051601868906069
:1059B000704700BF94190020014BD3F86401704771
:1059C00094190020064B0246142000FB013101F51A
:1059D000B67303CB1060516018689060704700BFC9
:1059E00094190020084B1A680023934208DA0749EB
:1059F000582000FB031090F8511019B90133F4E757
:105A00000020704701207047941900209819002049
:105A100010B50A4B1868002383420BDA58225A4308
:105A200006498C1894F8554014B18818806D10BD43
:105A30000133F1E74FF0FF3010BD00BF9419002093
:105A400038B50546064C28B104F032FA012384F833
:105A5000303238BD04F0DAF984F8305238BD00BF76
:105A6000941900200E4B2DE9F041D3F86471804663
:105A70000024BC4211DA14256543094E41467019D1
:105A800000F5B6700C220CF07BFB20B97519D5F827
:105A90006801BDE8F0810134EBE70020BDE8F0814A
:105AA00094190020174B2DE9F047D3F80090824657
:105AB0000E4600244C4523DA06B358256543114FA2
:105AC000514607F1040808EB050004300C220CF0E5
:105AD00057FB98B930460CF023FB05F11001402824
:105AE00034BF0246402208EB010031460BF02AFD8C
:105AF0007D19012285F85420BDE8F0870134D9E7EB
:105B0000BDE8F08794190020024B00221A7004F0BF
:105B100069BE00BFAE260020034B01224FF4C02017
:105B20001A7004F0FBBD00BFAE2600202DE9F34142
:105B3000264B07461878884618B925490D782E4611
:105B400015B14FF0FF303FE0224C0120D4F8343241
:105B500084F8385203F01F0100FA01F05A0984F862
:105B6000395284F83A5284F83B5204EB8202D2F85C
:105B70003812C4F83C520143C2F8381204F50F70D1
:105B800041F28832C4F8402204F50E7100902A4692
:105B9000581C2B4603F00EF9002815DDD4F83432DA
:105BA000590904EB8104D4F8384203F01F0244FA87
:105BB00002F414F0010007D0184639463346424635
:105BC00003F090F9044B1E60BDE8FC81C226002062
:105BD000C326002094190020B42600200A46044958
:105BE0000346D1F834021946002303F0F3B900BF8D
:105BF000941900202DE9F84F05468946002945D023
:105C0000002843D0224B1E68042E3FD00024B4420B
:105C1000204F4FF058080FDA08FB04F857F8082017
:105C20004A4507D107EB0803181D29460C220CF042
:105C3000A7FA58B30134EAE708FB06F8A7F1040A0B
:105C40000AEB080408F1100000214022C4F8049077
:105C500038180BF0FDFD07EB0801081D0C22002190
:105C60000BF0F6FD2868696804F1080203C2AB680E
:105C700000204FF0FF31013604F1040B136084F86B
:105C8000540084F85500A16547F8046CBDE8F88F0E
:105C900094190020981900200F4B2DE9F041D3F8FA
:105CA000647180460024BC4211DA142565430A4E13
:105CB0004146701900F5B6700C220CF061FA20B95B
:105CC000751995F87801BDE8F0810134EBE74FF0E4
:105CD000FF30BDE8F08100BF9419002008B5FFF740
:105CE000DBFF0138082802D8024B185C08BD0220EF
:105CF00008BD00BFA022010830B5174B89B0196854
:105D000000238B4225DA58245C43134D2A1D1019B9
:105D100090F85000D8B104F110015118684600F015
:105D20009CFD2C19694604A8656800F0B8FD04A81C
:105D3000A847A06504A800F04EFD0020012284F8C9
:105D4000540084F85520684600F045FD01E0013319
:105D5000D7E709B030BD00BF94190020084B0022DE
:105D6000D3F8481203F513738A4208DA93F8500007
:105D700010B1002083F8500001325133F4E770472E
:105D80009419002030B52048ADF57B7D06F048FD24
:105D9000002836D11D481E4B1E4905901E4D1F4838
:105DA000049306911E4A1F4B1F4909950B901F4DE6
:105DB0001F4807920A930C911E4A1F4B1F490E95CC
:105DC00010901F4D1F48204C0D920F931F4A204BDF
:105DD000119120491395159061AD17A81292149353
:105DE0001691089403900CAC029504F00DFD284622
:105DF00004F010FD00940448174902AA04AB06F011
:105E000016FD0DF57B7D30BDD41C00202D5B0008F8
:105E1000DD5B0008195B000869A70008A56400089D
:105E2000095B0008415A00088D590008A55A00086E
:105E3000115A000899590008E5590008B959000895
:105E4000DD5C000821A8000845A80008C559000825
:105E5000655A000835A80008E8F7FF1F014807F059
:105E600000BB00BFD41C002030B5022011228DB031
:105E7000014602F01FFF051E28DB154907A806F0A2
:105E8000E7FD022316200024ADF80C308DF80E003B
:105E90003321E0220123BB208DF811408DF80F1033
:105EA0008DF810208DF812308DF813000324102285
:105EB00003A90091019200231322284607A903F0A9
:105EC00093F8013CF3D1284602F022FF0DB030BD1B
:105ED000E8F7FF1F10B5074CFFF754FF204606F008
:105EE000A2FC204607F01FF80446FFF7BDFF20463E
:105EF00010BD00BFD41C002038B5124CD4F8645B30
:105F00002DB1D4F8643B581EC4F8640B38BDD4F8E6
:105F1000683B0D4A02EB8300C06803F04FFFE720A7
:105F200003F0A0FF094AD4F8683B4FF47A71C4F833
:105F3000641B1168581C8842C4F8680BA8BFC4F8D9
:105F4000685B38BD94190020A022010804000020DD
:105F500010B5054CD4F8340202F0DAFE18B94FF04F
:105F6000FF33C4F8343210BD9419002008B5FFF790
:105F7000EFFF02200121062202F09CFE114B0028B7
:105F8000C3F834021ADB0221A3F86C1B332116225A
:105F900083F86F1BD02183F86E2B83F8711B362298
:105FA000042183F8702B83F8731BE522064983F8DC
:105FB000722B1022BDE8084002F0D0BE4FF0FF3037
:105FC00008BD00BF9419002000250020044B0122C9
:105FD00000205A801880D886024B1A70704700BF84
:105FE0007C280020C2260020014806F009BC00BF22
:105FF000D41C002014282DE9F34104460E4675D820
:10600000FF2973D000F0A8FB28B10D2C6ED00F2C07
:106010006CD00E2C6AD000F0BDFA08B1012C65D905
:1060200000F01EFD18B1A4F11203012B5ED9304D12
:1060300020012F582F492A188F42B2F8048001D12D
:10604000042003E02C4B9F4203D10820012105F0DE
:1060500087FAADF80480062E44D8DFE806F0041174
:10606000181F26313C00224A102302EB041403209F
:106070000021A1738DF807308DF80600083431E057
:1060800004218DF8071005EB0414012229E04822B1
:106090008DF8072005EB0414022222E028208DF859
:1060A000070005EB041403221BE0114B1822032107
:1060B0008DF807208DF8061003EB0414042210E07D
:1060C0000B481C2103238DF807108DF8063000EBD8
:1060D0000414052205E000208DF8070005EB0414E8
:1060E0000622A273384601A905F00CF9BDE8FC812F
:1060F0001400002000080140000C0140142870B575
:1061000004460E463ED8204B03EB0010817B01294C
:1061100038D0022936D0032934D0062932D0FF29BD
:1061200030D000F019FB30B10D2C2BD00F2C29D022
:106130000E2C00D170BD00F02DFA10B1012C00D84A
:1061400070BD00F08DFC20B1A4F11202012A00D82C
:1061500070BD0D4D05EB0413987B042803D1204638
:106160000021FFF747FF012E05D1240128192959E5
:1061700083880B6170BD2EB9240129192B598A8897
:106180005A6170BD70BD00BF14000020142810B506
:10619000044602D94FF0FF3010BD1A4B03EB00103C
:1061A000817B0029F6D0FF29F4D000F0D5FA28B180
:1061B0000D2CEFD00F2CEDD00E2CEBD000F0EAF927
:1061C00008B1012CE6D900F04BFC18B1A4F1120281
:1061D000012ADFD90B4B03EB0410817B062908D180
:1061E00093F850114A1ED3B2FD2BD3D82046FFF7A7
:1061F00001FF0448240101198988005905F0D2F8EB
:1062000010BD00BF1400002010B54FF4004086B050
:1062100005F072F901214FF4007005F0A1F915485D
:1062200004F0E8FD012400234FF46022114801A985
:1062300001938DF808308DF80930039204938DF89E
:10624000144004F005FE0B48214604F025FE0948E1
:1062500004F02BFE074804F02DFE0028FAD1054873
:1062600004F02CFE034804F02EFE0028FAD106B0FC
:1062700010BD00BF00240140092838B5044601D8EC
:106280000A34A4B200F068FA40B10D2C02D14FF0EC
:10629000FF3038BD0F2CFAD00E2CF8D000F07AF970
:1062A00000F0DEFB18B1A4F11203012BEFD9142C7E
:1062B000EDD81C4D05EB04108279FF2AE7D095F844
:1062C0005111914206D0837B0621204685F850313A
:1062D000FFF790FE95F85251012D05D1FFF794FF7D
:1062E000104A002082F852010E4D05EB0414A179EA
:1062F00095F851318B4207D00B480122002304F05E
:10630000EFFDA17985F851110748012104F0DFFD67
:106310000548022104F034FE0028F9D0024804F0B8
:106320002CFE38BD14000020002401402DE9F0416E
:10633000142888B004460D4600F2A780544B03EBA6
:1063400000108168002900F0A08000F005FA40B13B
:106350000D2C00F09A800F2C00F097800E2C00F08E
:10636000948000F017F910B1012C40F28E8000F0FB
:1063700077FB20B1A4F11202012A40F28680444B3F
:1063800003EB0410817B09B104297ED1414E424ABE
:1063900037684BF680316943B7FBF2F3581EFF258F
:1063A00086B2012091FBF5F7014605F0D9F80421EA
:1063B0002046FFF71FFE364ABFB202EB041399686E
:1063C000B1F1804F02D10120014608E0334D022097
:1063D000A94203D03248814203D10420012105F0B3
:1063E000CBF82B4B4BF67F3203EB0415ADF8046072
:1063F000A868002601A9ADF80A60ADF80660ADF8FE
:10640000082005F095F9ADF81860AE8960210120EB
:1064100005F10808ADF81010ADF81200ADF81670CF
:1064200046B9A86804A905F0CDF9A868082105F0C7
:1064300009FB1FE0042E08D1A86804A905F006FA9C
:10644000A868082105F006FB14E0082E08D1A8680A
:1064500004A905F03FFAA868314605F005FB09E0FC
:106460000C2E07D1A86804A905F076FAA8680821BF
:1064700005F002FB064A012102EB0414A06805F0B6
:10648000D5FAA068012105F0AEFA08B0BDE8F081A8
:1064900014000020CC02002000366E0100040040F1
:1064A00000080040014B1868704700BF38180020F2
:1064B00007B5002100910A460B46024800F0B8F8E3
:1064C0000EBD00BF1C250020024B18785978401AD9
:1064D000704700BF24250020064B5A781978914256
:1064E00004D99818013280785A7070474FF0FF3005
:1064F000704700BF24250020054B5A781978914237
:1065000002D99818807870474FF0FF30704700BF6D
:106510002425002070470000F8B5094B054693F884
:106520002200164650B10C468F18BC4206D029688E
:1065300028460A6814F8011B9047F6E73046F8BD74
:106540002425002010B50C4B012293F822408CB179
:1065500093F823401F2C02D94260002010BD93F80D
:1065600024001C1884F82510411CC8B283F82400AC
:1065700083F82300104610BD24250020002242602D
:10658000024A4FF47A71816002607047D02201089C
:1065900070477047014B93F859007047242500203D
:1065A00013B5084C0021009104F164000A460B4623
:1065B00000F03EF804F16C0002B0BDE81040FFF7B7
:1065C000DDBF00BF2425002008B5034B53F8200091
:1065D00000B1804708BD00BFA025002007B50021FD
:1065E00000910A460B46024800F022F80EBD00BF9B
:1065F000E02500202DE9F041002407460E462546FF
:106600003B1919790A22304600F08CF82E21804679
:10661000304600F055F801344044032C0544EFD1D6
:106620003046F9790A2200F07DF82818BDE8F0819B
:1066300030B58371044D9DF80C300446056001713E
:106640004271C37130BD00BFF0220108044B054AFE
:1066500000201A60187158719871D871704700BF86
:10666000E8250020F022010807B5002100910A4624
:106670000B460248FFF7DCFF0EBD00BFF0250020EF
:10668000F8B506460C468F180025BC4207D0336883
:1066900030461A6814F8011B90472D18F5E7284674
:1066A000F8BD38B505460C46084641B10BF038FD3B
:1066B0002B6802465B6828462146984738BD38BD9E
:1066C00008B503681A68904708BD70B500238AB002
:1066D0008DF82430012A98BF0A220DF12303B1FB63
:1066E000F2F505FB1211CCB2092C1E4601D830344C
:1066F00000E03734E4B203F801492946002DEED119
:106700003146FFF7CEFF0AB070BD10B5044622B97E
:106710000268C9B21268904710BDD2B2BDE81040FD
:10672000FFF7D3BFFFF7F1BF07B5002100910A467D
:106730000B460248FFF77CFF0EBD00BFFC25002082
:1067400007B5002100910A460B460248FFF770FF8B
:106750000EBD00BF04260020014B587D704700BFCE
:106760000C2600207047000007B5002100910A4662
:106770000B460248FFF75CFF0EBD00BF2426002039
:1067800007B5002100910A460B460248FFF750FF6B
:106790000EBD00BF3026002010B50378BBB12D2BF5
:1067A0000CBF4FF0FF34012414BF0146411C0023ED
:1067B00011F8012B42B1A2F13000092809D80A20B2
:1067C00000FB0323303BF3E703FB04F010BD184646
:1067D00010BD002010BD10B5044600680AF0B6FBDD
:1067E000204610BD10B50446006808B10AF0AEFBA3
:1067F00000232360A360636010BD38B504460D46D6
:10680000006801310BF0E2F810B184E821000120AA
:1068100038BD036810B5044613B14068884207D2FA
:106820002046FFF7EAFF20B1A16809B9226811707C
:10683000012010BD70B50E46114604461546FFF7FF
:10684000E8FF18B92046FFF7CDFF04E0A5602068F7
:1068500031460BF007FC204670BD38B500230446D6
:1068600003604360836003730D4639B108460BF043
:1068700057FC294602462046FFF7DCFF204638BD7C
:10688000884210B50B46044607D0096819B19A68CA
:10689000FFF7D0FF01E0FFF7A5FF204610BD002362
:1068A00010B504460360436083600373FFF7E8FF9D
:1068B000204610BD38B505460C4641B108460BF0E0
:1068C0002FFC214602462846FFF7B4FF01E0FFF700
:1068D00089FF284638BD826808B50B4612B919B938
:1068E000012008BD11B90368187802E000680BF0B8
:1068F000CBFAD0F1010038BF002008BD10B58B687D
:106900008468E41AA2420CD8006868B1096851B1E1
:1069100080181A460BF034FCD0F1010038BF00207B
:1069200010BD002010BD084610BD82688B689A42D9
:1069300002D30022FFF7E2BF00207047836899422C
:1069400003D2006810B1405C704700207047FFF729
:10695000F5BF00009A422DE9F04107460D46144666
:106960001E4601D93446164638460C49FFF775FFD6
:10697000A86884420FD82968864228BF06460022AC
:1069800011F806808A552B6838461919FFF792FFCF
:10699000286800F806803846BDE8F0816C4E010892
:1069A00010B58B680446FFF7D5FF204610BD006880
:1069B00008B1FFF7F1BE704707B5002100910A4604
:1069C0000B460248FFF734FE0EBD00BF38260020FC
:1069D00007B5002100910A460B460248FFF728FE42
:1069E0000EBD00BF4026002007B5002100910A46D9
:1069F0000B460248FFF71CFE0EBD00BF48260020D4
:106A00004FF0FF307047704708B5054805F04DF866
:106A10000348802105F051F80028F9D0012008BD75
:106A200000440040202108B5034805F046F8003036
:106A300018BF012008BD00BF0044004008B502484F
:106A400005F037F808BD00BF004400400022426056
:106A5000024A4FF47A718160026070470023010896
:106A6000014B187C704700BF5026002013B5084C1E
:106A70000021009104F114000A460B46FFF7D8FDEF
:106A800004F11C0002B0BDE81040FFF7DFBF00BFFB
:106A90005026002070474FF0FF307047084608B579
:106AA000FEF7B8FE012008BD08B5FEF775FE08BD6B
:106AB000FEF788BE00224260024A4FF47A7181607C
:106AC00002607047202301080846FEF755BE00000B
:106AD00013B5074C0021009120460A460B46FFF7EC
:106AE000A7FD04F1080002B0BDE81040FFF7E2BFC7
:106AF0007C260020002303601846704700230360B3
:106B00001846704700230360184670472DE9F0418E
:106B100091F8008086B00C46B8F1000F14BF904683
:106B20004FF0000806460BF0FBFA074620460BF034
:106B3000F7FA012518231E210222019302910392E4
:106B40000590002300950494404631463A4602F0F1
:106B50008BFB034B18705D7006B0BDE8F08100BF81
:106B60009426002048F20203984210B517D008DCA2
:106B7000992844D0591E884245D1234801224271A8
:106B800010BD48F21002904228D0703290423AD1A3
:106B90001D48012100238170C170037110BD1A4C82
:106BA000627952B11948002202704FF47F4003F01D
:106BB000DDF8E72003F056F906E0A07910B1431E96
:106BC000A37101E00121A17500216171E1752176B8
:106BD0006176A176E1762177216210BD0A7D0A48AF
:106BE00052B90123C3754FF47F4003F0BFF8E7208B
:106BF000BDE8104003F036B90021C17510BD024B4D
:106C0000012183F8241010BD942600201C270020A9
:106C10001FB54FF03C0C0A234FF461514FF46162F1
:106C20008DE80E10684601A902AA03AB01F080FBB3
:106C300005B000BD1FB50023009301930293039399
:106C400001A8694602AA03AB01F03AFB05B000BDFA
:106C500030B5564D002497B0FF20AC70EC706C70CE
:106C60006C71EC7585F824402C766C76AC76EC76FD
:106C70002C6203F07BF8E72003F0F4F8214622466B
:106C8000204602F0CDFA2B46012103F8074F0E20D3
:106C90000A4601F0D1FB454B5879012805D1642003
:106CA00002F00EFF01F06EF8F5E710210C2001F064
:106CB0000FFC3F4801F0D6FF3E4802F025FC0120C2
:106CC00002F006FC68463C4900F0B0FD374DA9785B
:106CD0006A780A431ED195F82550002D5CD0FF201C
:106CE00002F0AAFB002857D11A24013C06D0E72065
:106CF00003F0E6F8322002F0E3FEF6E72B4D0E201B
:106D00002B4603F8064F0121224601F095FB85F83A
:106D10002540DBE7E72003F0A5F80E200121002243
:106D2000AB1D01F05BFBAC7814B102F00BFC2870DA
:106D30001E4C012123780022581C234603F8060F1D
:106D40000E2001F079FB00200146012202F068FAD2
:106D500001252346294603F8075F2A460E2001F045
:106D60006BFB02F0E3F9642002F0AAFE002002F0BF
:106D700091F948F2442084F8265002F077FB4FF452
:106D80007F4002F0F3FFE72003F06CF8FFF740FFCD
:106D90000021A17517B030BDE72003F091F8FA206B
:106DA00002F08EFE684600F095FD8FE794260020E5
:106DB00038230108680100200D6B000830B5394CFC
:106DC00085B0A06203F020FB03F060FA364B374831
:106DD0003749384A00930190374B02910392374963
:106DE000374A384802F042F9642002F069FE002078
:106DF00002F050F90025012348F24420E57684F89A
:106E0000263002F033FB30480188012906D00E20DD
:106E100010212A46A31D01F0E1FAA8B1FF2002F0DB
:106E20000BFB10210E2001F053FB0021274B002407
:106E3000CC5401311029F9D122460E2001F0FCFA80
:106E4000214A148003F028FC164C237993B9A079C9
:106E500010B90121A1750DE0E07958B90146012270
:106E600002F0DEF90121234603F8071F0E200A462F
:106E700001F0E2FA0B4B1A795AB9987D48B11448DF
:106E800001F00CFBFFF7D6FE05B0BDE83040FFF780
:106E9000BFBE4FF47F4002F069FFE72002F0E2FF3F
:106EA000EDE700BF9426002045A3000859A3000881
:106EB000C5A30008EDA30008056B0008F56A0008EB
:106EC000FD6A0008656B0008BE0200209A260020BB
:106ED000C026002030B502200121062285B001F035
:106EE000E9FE051E1ADB00213522082402238DF855
:106EF00002108DF80320694610228DF804408DF8A9
:106F000005408DF806408DF80740ADF8003001F0DF
:106F100025FF0446284601F0FBFE01E04FF0FF3458
:106F2000204605B030BD00002DE9F3416E4C94F8C9
:106F30002E202346002A3ED194F82F0000283AD173
:106F400094F8260020B902F0A5F8012184F8261053
:106F5000654CA17D11B1FFF77BFE05E022791AB1E6
:106F6000E67D3546002E55D05F4BD878012814D1E8
:106F7000DC7D012C11D1597901290ED103245B4804
:106F80000BF0CEF8594982B2012002F039F8621EA6
:106F900012F0FF04F3D1544BDC70534CE07D002819
:106FA00000F09F8094F82F10002940F09A80227EF4
:106FB000002A46D095E093F82640002CC8D04C4DCE
:106FC0002A780AB102F022FF474C00252846657155
:106FD000E57584F82E5084F8265025766576A576DA
:106FE000E5762577256203F001FA642002F068FD5A
:106FF000A37D3BB1284602F04DF8012084F826001D
:10700000FFF726FE4FF47F4002F0B0FEE72002F0CB
:1070100029FF9DE731463246304602F001F93548F6
:107020000BF07EF8344F804638460BF079F8009725
:107030000190791F03204246334602F08DF82671F5
:1070400092E7642002F03CFD04F1300001F0B4F955
:10705000247F0CB34FF47F0002F088FE224C207F87
:1070600090B1E72002F0FEFE4FF4FA7002F028FD26
:10707000E72002F005FF4FF4FA7002F021FD237FB4
:10708000591ECAB22277E9E7234603F8090F012106
:107090000E20032201F0D0F94FF6FF7002F066FED9
:1070A000E72002F0DFFEFEF761FF00280E4C16DA43
:1070B00094F82E10A9B9FFF70DFF002801DA02227B
:1070C00000E003222277084C0121207F234603F8A9
:1070D000090F03220E2001F0AFF9002300E0012385
:1070E0002376BDE8FC8100BF942600206B010020C0
:1070F0001C270020720100207701002007B5002125
:1071000000910A460B460248FFF792FA0EBD00BFF7
:10711000002700207047FEE7FEE7FEE7FEE70000DD
:107120000748084A4FF000031360D0F800C0BCE8DD
:10713000F00F8CF309884EF0040E70477047000082
:107140002C130020840100207047000072B6104804
:107150001049114AEFF3098C2CE9F00F136813F072
:10716000010F0CBFC0F800C0C1F800C083F00103DC
:10717000136013F0010F0CBFD0F800C0D1F800C0AD
:10718000BCE8F00F8CF3098862B6704770470000C6
:107190002C1300203018002084010020044B1868B4
:1071A000431C03D003494FF080520A60FEF718BA1F
:1071B0008401002004ED00E008B5024B0BB1AFF3F1
:1071C000008008BD0000000008B5024B0BB1AFF312
:1071D000008008BD0000000008B5024B0BB1FFF7AE
:1071E000D7F908BD9165000808B5024B0BB1FFF750
:1071F000D0F908BD9365000808B5024B0BB1FFF745
:10720000B1FA08BD6567000808B5012003F0EAFF80
:1072100038B1012003F0F6FF024B13B10020FFF755
:10722000D3F908BDC965000808B5022003F0DAFFEC
:1072300038B1022003F0E6FF024B13B10120FFF743
:10724000C3F908BDC965000808B5042003F0CAFFEA
:1072500078B1042003F0D6FF0020064B01461880C9
:1072600002F0BCFE044810210122BDE8084004F0F1
:10727000D4BB08BD2E270020002C014008B50820F3
:1072800003F0B0FF38B1082003F0BCFF024B13B18C
:107290000320FFF799F908BDC965000808B510205B
:1072A00003F0A0FF38B1102003F0ACFF024B13B184
:1072B0000420FFF789F908BDC965000808B520203A
:1072C00003F090FF38B1202003F09CFF0E4B13B168
:1072D0000520FFF779F9402003F084FF38B1402002
:1072E00003F090FF084810B10620FFF76DF98020E9
:1072F00003F078FF38B1802003F084FF024911B118
:107300000720FFF761F908BDC965000808B54FF40B
:10731000005003F067FF40B14FF4005003F072FFDC
:10732000174B13B10D20FFF74FF94FF4804003F0D6
:1073300059FF40B14FF4804003F064FF104810B192
:107340000E20FFF741F94FF4004003F04BFF40B12E
:107350004FF4004003F056FF094911B10F20FFF729
:1073600033F94FF4006003F03DFF38B14FF4006093
:1073700003F048FFBDE8084002F036BB08BD00BF7F
:10738000C965000808B50F48102104F07FFBC0B1A3
:107390000C48102104F085FB002002F0CBFE28B938
:1073A000094B1A880A3290B2188008BD102105488E
:1073B000002204F032FB00200121BDE8084002F069
:1073C0000DBE08BD002C01402E27002008B501206D
:1073D00004F052F930B1012004F060F9BDE8084032
:1073E00004F02EB908BD000008B5022004F044F9ED
:1073F000B0B10C4B00224FF400301A7003F002FFC2
:10740000012004F061F810B1012004F067F804F0E5
:1074100017F9022004F042F9BDE8084004F010B961
:1074200008BD00BFC326002002F06CBA00F062B8AD
:1074300038B514490B78012B23D1134A13680BB9C3
:107440000B7038BD114C402B206881B205D94030FB
:10745000403B20601360402504E09DB2C31800202B
:10746000236010600A4A5018C0212A4605F03CF8F3
:107470000120294605F042F90120BDE8384005F019
:10748000ABB838BD88190020901900208C19002055
:1074900088180020094908B50020094B01220880FE
:1074A00003201A7005F056F9064B0246188006486C
:1074B0004FF48871BDE8084005F02DB84018002051
:1074C0003C1800203E18002042180020074B186886
:1074D000052809D1064B1A68511C052A196003D1E9
:1074E00000201860FEF7AEB9704700BF4C2700209F
:1074F000082700203A4A38B511683A4B88B23A4D0D
:1075000018801C882988214001F4007084B244B19D
:107510004FF6FF5515609A78511CC8B29870FFF766
:10752000D5FF304C304B25881A882A4002F40041A0
:1075300088B225461C4608B104F010FF2A8823882B
:10754000134003F4806188B230B1254B27494FF6D0
:10755000FF321A6048688047224A234B11881B88F3
:10756000194001F4005081B219B11D494DF6FF7068
:1075700008601288134003F4805398B230B1184A5F
:107580004EF6FF711160002003F0A8FB154B164961
:1075900018880A88024002F4006398B260B1144966
:1075A0000A7812B103F07AFB02E0022003F096FBA6
:1075B0000B4B4FF2FF7018600A490B480A8803888A
:1075C000134003F480718AB242B1054B4FF6FF605D
:1075D00018600720BDE8384003F080BB38BD00BF0D
:1075E000445C00400C270020342D002014020020B1
:1075F000E0020020034B987A10B1034905220A608B
:10760000704700BF102D00204C270020014B0422A2
:107610001A6070474C270020034B1A78202A01D1AA
:1076200000201870704700BF10270020704700002E
:10763000212810B508D111480368197801F07F029C
:10764000212A11D0022010BD2028FBD10B4B196834
:107650000A780B4902F07F030A4A212B0CBF0B4624
:10766000002310700BB9EDE7074B044C2068002491
:107670008361448220469847204610BD302D00206B
:10768000D976000810270020C1760008074B19683A
:107690000A7802F07F03212B05D1022801D10020B6
:1076A00070472228FBD00220704700BF302D0020F9
:1076B00009B1022070470128FBD808467047000036
:1076C00020B9034B082219680A82704701487047A5
:1076D000302D0020DC01002020B9034B082219685E
:1076E0000A82704701487047302D0020DC010020DD
:1076F000054B1968CA78042A04D8044B03EBC2016D
:1077000004F0ACBB00207047302D0020E4010020C5
:10771000014904F0A3BB00BF04020020014904F0AA
:107720009DBB00BF0C020020334A344BD17918684E
:1077300010B5002441728472C472204604F0FEFE2B
:1077400020464FF4007104F001FF1021204604F0A0
:1077500009FF4021204604F0A5FF8021204604F0C7
:1077600091FF204604F05AFF254B204693F8641001
:1077700004F0D2FF204604F040FF0120214604F02F
:10778000E5FE0120C02104F07DFF0120202104F04E
:10779000E9FE0120214604F002FF02204FF4C061FF
:1077A00004F0D4FE02204FF4807104F06BFF02203D
:1077B000214604F0F4FE0220202104F0D3FE032031
:1077C000214604F0C3FE03204FF4887104F06AFFE1
:1077D0000320402104F0A0FF03204FF4405104F0A7
:1077E000DEFE0320214604F0BDFE204604F048FDE5
:1077F000044A0120106010BDA5230108302D00208F
:10780000DC0100204C27002010B5FEF767F8054B7F
:1078100000241868847203F029FA04F0B1FF0249C9
:107820000C6010BD302D00204C27002038B50446D8
:107830000D46FFF73FF9204625614FF41651FFF73B
:1078400043F9204638BD70B506460D46002428464B
:107850000AF066FC844208D2295D3046FFF71EF923
:10786000012002F02DF90134F1E770BD2DE9F84354
:1078700004460F4690460D46C7EB05095FFA89F9A5
:107880002046FFF711F90028FADD2046FFF710F92E
:10789000C145C6B206D100232B7020460C49FFF724
:1078A000D2FF0AE00D2EF6D00A2EF4D02046314643
:1078B000FFF7F4F805F8016BDEE72046FFF7F4F870
:1078C000002803DD2046FFF7F3F8F6E7BDE8F8836C
:1078D0006A4E0108F0B585B00446FFF7E5F80028C8
:1078E00040F39D802046FFF7E3F8C0B2772867D1C8
:1078F00004F1140600212122304604F1350509F077
:10790000A7FF00212122284609F0A2FF04F1560713
:10791000002284F8562020467A704249FFF793FFF0
:10792000204631462022FFF7A1FF20463E49FFF7BF
:107930008AFF394601222046FFF798FF94F8563017
:10794000A3F130010329F0D8312B0BD12046374960
:10795000FFF779FF20463649FFF775FF2046354986
:10796000FFF771FF94F85600B0F1300708D02046B9
:107970003149FFF768FF204629462022FFF776FFAE
:1079800020462E49FFF75FFF23693A4630462946D5
:10799000984720462A49FFF756FF20462949FFF716
:1079A00052FF20462849FFF74EFF20462749FFF7A0
:1079B0004AFF20462649FFF746FF2046254929E091
:1079C00069282CD1244A01AB10685168002503C3F3
:1079D0009168204619602149FFF735FF01AEAE5D81
:1079E000300900F13001392988BF00F1570106F054
:1079F0000F062046FFF752F806F13001392988BFFB
:107A000006F1570120460135FFF748F80C2DE5D166
:107A10001349204605B0BDE8F040FFF714BF05B09C
:107A2000F0BD00BFBE4C0108C54C0108F24C010876
:107A3000284D0108534D0108994D0108A44D010836
:107A4000E74D0108074E01083A4E01086D4E010846
:107A5000AC4E0108DD4E0108E8F7FF1FF34E0108A8
:107A60006A4E010807B5002100910A460B460248FC
:107A7000FEF7DEFD0EBD00BF14270020002100F040
:107A800004B80D4B5B58435004310C480C4B421862
:107A90009A42FFF4F6AF0B4A00F003B8002342F815
:107AA000043B094B9A42FFF4F9AF03F061F8FDF78C
:107AB00039FFFDF709FD70476C4F010800000020F9
:107AC000240B0020240B0020402D0020FFF7FEBFD8
:107AD00073B544790023022C01930FD0032C19D0E5
:107AE000012C2BD1164D28692E4620B1296901A8F9
:107AF00088470246B8B9B16801201BE0104DE8681C
:107B00002E4620B1E96801A88847024658B9B168F5
:107B100002200FE00A4D6A692E464AB16B6901A83E
:107B20009847024620B1A9682046BDF8043003E01A
:107B3000B16803200022134600F05EFB7CBD00BF4D
:107B40007C280020072810B50CD801290AD8012468
:107B500004FA00F401FA00F0034B1A6822EA040266
:107B600002431A6010BD00BF6C020020F0B5012175
:107B700087B0054604F022FE00F48043044698B224
:107B800050B3B4F5824F27D12846052104F016FEE4
:107B90000026074607353446BE4208D02846022153
:107BA00004F00CFE013624180435B6B2F4E7744B29
:107BB000188E21188AB21A86D86B2418DC63D96B08
:107BC0009A6B914240F0CE8093F84000002800F07C
:107BD000C9809B69992033E024F4FF4121F07F02A2
:107BE00090B2002800F09B8048F2100294422AD004
:107BF0000CD8B4F5004F40F2C08048F202039C421A
:107C000017D9991C8C4240F0B88012E048F28000ED
:107C100084420ED005D848F24002944240F0AD8034
:107C200051E0B4F5024F04D0B4F5084F40F0A58000
:107C30006CE053498869002800F094808B692046E5
:107C400000210A4669E00023EA1851790DF8031073
:107C50000133042BF8D1687A2B7BAA7AE97A8DF864
:107C600004008DF807308DF805208DF8061005F119
:107C70000D00002306AAD218C15C0133042B02F8C0
:107C8000101CF7D105F11100002306AAD218C15C1F
:107C90000133042B02F80C1CF7D105F11500002369
:107CA00000AAD218C15C0133042B1174F8D13449F5
:107CB00028798A698DF81400002A53D08B692046F0
:107CC0006946152229E005350021284604F07DFD8E
:107CD00004210090284604F078FD082101902846F0
:107CE00004F073FD0C210290284604F06EFD102173
:107CF0000390284604F069FD214B049099690029FE
:107D000030D09B6920466946142206E01C488269EF
:107D100042B38369691D20460122984722E041F25F
:107D200003039C4205D00C339C4202D0591E8C4266
:107D30001AD16C1D0421204604F047FD39301CD1B6
:107D40002D790F480021C562204604F03EFD042134
:107D50000546204604F039FD393003D1284601217B
:107D6000FFF7F0FE012009E0054A138899B28C4222
:107D700004D0B4F5805FF5D100E0002007B0F0BD7D
:107D80007C28002038B50A4C638898B208B90020D6
:107D900038BD606801780429F9D1FFF7E7FE0128B2
:107DA0000546F4D10022628001F05AFC284638BD15
:107DB0007C2800202DE9F04704468846914600259E
:107DC000BC4B5A8890B20028FAD05E6831780429FA
:107DD00040F072813046012104F0F0FC0546304647
:107DE000FFF7C4FE002840F05C8141F20703771DD5
:107DF0009D4253D85A1E954280F0AC8040F202203A
:107E0000854200F0A78014D80C2D09D8082D80F0E9
:107E1000A180002D00F04581062D40F29B80DDE021
:107E20000D2D00F0948040F20127BD4240F03981D1
:107E30008DE041F20202954218D8B5F5805F00F25C
:107E40008980B5F5017F40F2828040F207218D42A2
:107E500040F027813379002104F8013B384604F0D3
:107E6000B4FC0146204604F09BFC1AE141F20400F8
:107E7000854200F0898040F2A0803846002104F05D
:107E8000A4FC04212060384604F09FFC60600834A4
:107E900006F10D07224606F11D016EE041F21100C8
:107EA000854254D02CD841F20B02954252D01CD8B6
:107EB00041F209018D424DD000F28B8000213846FD
:107EC00004F083FC04212060384604F07EFC082185
:107ED0006060384604F079FC0C21A060384604F05C
:107EE00074FC04F10C0AE060DAE041F20F00854214
:107EF00063D035D841F20D02954240F0D28043E084
:107F000042F206018D4222D008D8B5F5005F40F25A
:107F1000C88042F204039D4219D983E042F208036B
:107F20009D42C0F0BE80581C854210D944F20B021D
:107F3000954240F0B6807179DFF878A13846AAF80A
:107F40003010012104F03AFCAAF83200A9E0377998
:107F50002770A6E03846002104F037FC2060A0E03E
:107F60000021384604F031FCA2464AF8040B0421F3
:107F7000384604F02AFC606092E057F8043B8F42D8
:107F800042F8043BF9D18CE00021384604F01DFC96
:107F900004212060384604F018FC0821606038464F
:107FA00004F013FC04F1080AA060E46814F139033A
:107FB00076D10121FFF7C6FD72E00021384604F0BA
:107FC00004FC04212060384604F0FFFB60600834A4
:107FD00067E0337923713F68276062E0384600210B
:107FE00004F0F3FB04212060384604F0EEFB082186
:107FF0006060384604F0E2FB0A21A060384604F0D5
:10800000DDFBC4F80A000C3406F11107224606F124
:10801000350157F8043B8F4242F8043BF9D13888C8
:1080200010803EE00022B7187879A0540132042A6B
:10803000F9D106F109070023F95CE0180133042B9C
:108040000171F9D106F10D070020395C22180130C9
:1080500004281172F9D106F111070023F95CE21826
:108060000133042B1173F9D106F115000022875C4E
:10807000A1180132042A0F74F9D106F11900002366
:10808000C75CE1180133062B0F75F9D106F11F000B
:108090000021475C6218013120299776F9D100E070
:1080A0005446044B188882B2954225D1002119808C
:1080B00022E000BF7C28002030460321B77804F07E
:1080C0007DFB8246B8F1000F0CD00421701D04F036
:1080D0007CFB0346C9F8000006F115014046DAB200
:1080E00009F030FA7A1DB1182046C7EB0A0209F0F0
:1080F00029FA0F490020C8860D4F00237B8001F02C
:10810000AFFA3078042805D1B5F5805F02D130464A
:10811000FFF7DEFC3A8891B200297FF451AE044BA0
:10812000D88E80B200287FF44BAEBDE8F08700BF48
:108130007C28002007284FF0010308D803FA00F03C
:1081400004490A6810420CBF0020012070471846FD
:10815000704700BF6C020020034B188008460021C6
:108160000A46FFF727BE00BF7C28002010B5034B4E
:108170000124DC86BDE81040FFF71CBE7C280020EF
:1081800038B50346154601224A710C46881D19462A
:1081900004F00FFB291D0570204601F023FB002091
:1081A00038BD38B5BDF814500C469B18A071E818BE
:1081B00085B202216171E271294604F1080004F0E0
:1081C000F8FA6A1D204691B201F00CFB002038BD80
:1081D00038B59B180C469DB202216171A071E27105
:1081E000294604F1080004F0E4FA6A1D204691B221
:1081F000BDE8384001F0F6BA2DE9F0471D4605F11B
:10820000020A032301F107091FFA8AFA88714B71E8
:108210000C4648465146174604F0CBFAB5F57A7F2E
:10822000804613D8294604F0C4FA2946404604F093
:10823000C0FA394604F10B002A4609F083F9A91D5A
:10824000204689B2BDE8F04701F0CCBA4FF47A7607
:10825000B5FBF6F10AEB410291B204F0AAFA3146FD
:10826000404604F0A6FA394604F10B00324609F004
:1082700069F9A5F57A75204640F2EE31ADB2BF1925
:1082800001F0B0FAB5F57A7F05D9A5F57A7085B217
:108290004FF47A7601E02E460025A046394628F8AC
:1082A000056F4846324609F04DF9B31C404699B275
:1082B000BF1901F097FA002DE4D1BDE8F087000066
:1082C000F7B51A4C1E46A468FF238DF80730002529
:1082D000475D63190135042D5F72F9D100200D5CF3
:1082E0002318013004285D73F9D10021505C631814
:1082F000013104295874F9D104F11500002104F06A
:108300004FFA0022B35C83540132042AFAD1214689
:10831000142242F20100FFF733FF42F201000DF197
:108320000701FFF719FF9DF90700FEBD7C2800201B
:108330002DE9F34106460C461E4831681546D0F833
:1083400008804A1E1F46FF23122A8DF8073008F1C5
:10835000090001D81423336021684A1E122A01D86B
:108360001423236029684A1E122A01D814232B6083
:1083700039684A1E122A01D814233B60316804F080
:108380000FFA216804F00CFA296804F009FA396838
:1083900004F006FA4146142242F20900FFF7F0FE0B
:1083A00042F209000DF10701FFF7D6FE9DF9070023
:1083B000BDE8FC817C28002038B5074B42F205045B
:1083C0000546996820460022FFF7DAFE2046294636
:1083D000BDE83840FFF7C0BE7C2800202DE9F341FE
:1083E000864614480D46866871461F4602ACFF2338
:1083F00006F1090004F8013D904604F0D1F9294640
:1084000004F0CEF940F20125414604F0C9F90C22EE
:1084100031462846FFF7B4FE28462146FFF79CFE6A
:10842000002138460A46FFF7A1FE9DF80700BDE887
:10843000FC8100BF7C2800202DE9F34186461648C8
:108440000C4686687146984602AD4FF0FF3306F140
:108450000A0045F8043D174604F0A2F90C2104F087
:108460009FF9214604F09CF9394604F099F94146F8
:10847000224606F11A0009F065F8902031461022D4
:10848000A3B2FFF7A5FE40F202202946FFF764FEE3
:108490000198BDE8FC8100BF7C28002037B50B4B5C
:1084A00040F207250446996800222846FFF768FE37
:1084B00028466946FFF750FE9DF803009DF804101A
:1084C000207061709DF800003EBD00BF7C28002038
:1084D00037B50D4A034695680C4605F10900194663
:1084E00004F05EF9214640F2032404F059F92946CC
:1084F00008222046FFF744FE20460DF10601FFF753
:108500002BFEBDF806003EBD7C2800202DE9F0437F
:108510000023CA5CC2540133102BFAD10022334B22
:10852000467B991891F8018004789F19F97A88EAB6
:108530000405847B85EA01081D194178EF7A90F8DB
:108540000CC04F40C17B80F810805D1895F80B90EF
:108550008578634489EA050593F80B90C3784774DE
:1085600089EA030390F80490FFB288EA090890F8BA
:108570000590857487EA090790F80690EDB285EAC0
:10858000090590F80790C374DBB283EA090390F8F9
:10859000089080F814805FFA88F888EA090890F853
:1085A00009904775FFB287EA090790F80A90857528
:1085B000EDB285EA090590F80B90C375DBB283EA4A
:1085C000090388EA0C0C7E406C405940013280F867
:1085D000188047768576C37680F81CC04677847706
:1085E000C17710300A2A9AD1BDE8F083FA23010836
:1085F00010F0800F4FEA400018BF80F01B00C0B29F
:10860000704700002DE9F04F037891F8A0A00446D0
:108610008AEA030A80F800A091F8A1204078A778A0
:1086200082EA0005657091F8A260E07886EA0703A7
:10863000A37091F8A32097B0059582EA0005E57034
:1086400091F8A4902679069389EA060984F80490A3
:1086500091F8A5706379079587EA0302627191F832
:10866000A600A579E37980EA0506A67191F8A770BE
:108670000C9287EA030B84F807B0227A91F8A8805D
:10868000607A88EA020884F8088091F8A970089650
:108690004740677291F8AA50A67AE07A85EA060305
:1086A000A37291F8AB20267B82EA0005E57291F86F
:1086B000ACC009938CEA060C84F80CC091F8ADE0CC
:1086C000637BA27B8EEA030E84F80DE00D9591F892
:1086D000AE50E07B5540A57391F8AF204B4B424024
:1086E000E2739A4491F890009AF80B6199444640DD
:1086F000267091F8940099F80BA198448AEA000634
:10870000267191F8980098F80B919C4489EA00062C
:1087100026729CF80BA191F89C009E448AEA000600
:108720002673DF199EF80B8197F80BC191F8910021
:1087300091F89D6088EA00098CEA060060730C9F3E
:10874000DDF814A0DE1996F80B0191F89970DDF8A8
:10875000208080EA0706667203EB0A0091F89560B4
:1087600090F80B7184F8019087EA0600607103EBC2
:108770000800DDF818E090F80B91099803EB0E075C
:1087800003EB000E9EF80BC191F8920091F89A60ED
:1087900097F80B718CEA000A77405D1991F89E609A
:1087A00084F802A091F8960095F80B81A772079FB4
:1087B00088EA000589EA0606A673A571DE1996F80F
:1087C0000B0191F89F5003EB0B0791F89360454024
:1087D00097F80B019A1880EA06070D98E7701E18A3
:1087E00096F80B7191F897004FF0090B87EA000695
:1087F000E67191F89B3092F80B71E57387EA0300FC
:10880000E0720D46CDF840B002E000BFFA23010847
:1088100094F80090A77887EA0900FFF7E9FEFFF7D0
:10882000E7FE94F80180E678824686EA0800FFF7C2
:10883000DFFEFFF7DDFE8AEA070380EA08022779F8
:108840007040A6798AEA09015FFA80F886EA070093
:108850005FFA82FB5FFA83FA5FFA81F90397029667
:10886000FFF7C6FEFFF7C4FEE6796779014686EAA0
:1088700007000491FFF7BCFEFFF7BAFE039B049AC2
:1088800094F808C082EA0301CBB2029947404A40FB
:10889000A17A7040C6B2059381EA0C00D3B202916E
:1088A000CDF804C006930796FFF7A2FEFFF7A0FEDF
:1088B000637AE67A024686EA030003930492FFF79E
:1088C00097FEFFF795FE049ADDF804C0039B82EA49
:1088D0000C015FFA81FC80EA0301CBB20299099393
:1088E0004A40D3B2CDF820C00A9394F80CC0A17BC3
:1088F0007040C6B281EA0C000291CDF804C00B961C
:10890000FFF776FEFFF774FE637BE67B024686EA9E
:10891000030003930492FFF76BFEFFF769FEDDF897
:1089200004C0049A039B82EA0C015FFA81FC80EA8E
:108930000301CBB2029970404A40C6B288EA0A01EC
:108940008BEA09000D93D3B20E930291CDF830C09B
:108950000F9681EA0006FFF74BFE89EA000286EADD
:10896000020C5FFA8CFC8AEA0B0084F800C0CDF898
:1089700004C0FFF73DFE8BEA000386EA030B029971
:108980005FFA8BFC84F801C00846CDF844C0FFF7BD
:108990002FFE8AEA000286EA020A5FFA8AFB88EA68
:1089A000090084F802B0CDF848B0FFF721FE88EA4C
:1089B0000000DDF818900599079A4640FFB2F6B21C
:1089C00082EA090887EA0100E670139688EA000641
:1089D000FFF70EFE059B584086EA0001CAB24846E2
:1089E000227178401492FFF703FE474086EA07039E
:1089F000D8B2159060714046FFF7FAFD89EA000190
:108A0000059B86EA01020798D7B25840A7710697DE
:108A1000FFF7EEFD0799089A48404640F6B20A9FD4
:108A20000596E67109980B9E50407E4086EA000745
:108A3000FFF7DEFDDDF820A08AEA000387EA030CD9
:108A40005FFA8CF884F8088009990A984840FFF783
:108A5000CFFD099A504087EA000B5FFA8BF9304648
:108A600084F80990FFF7C4FD0A9E524686EA000387
:108A700087EA03010B985FFA81FB504084F80AB043
:108A8000FFF7B6FDDDF82CA00E998AEA00000C9ED7
:108A900047400F9B0D98FFB24B407040E77283EA4E
:108AA000000A0293FFF7A4FD0C9A0D9B50408AEA3E
:108AB00000060E98F6B226735840FFF799FD0D99FF
:108AC000029B81EA00028AEA0200C1B26173184681
:108AD0000391FFF78DFD0E9A0C9B50408AEA00012E
:108AE0000F98CAB2A27358400492FFF781FD0F9904
:108AF000514B48408AEA000C5FFA8CFADDF804C05A
:108B000084F80FA003EB0C0295F8800092F80B118B
:108B1000DDF850C081EA0002227003EB0C0195F8E9
:108B2000840091F80B219E1982EA000103EB0802F0
:108B3000217195F8880092F80BC196F80B218CEA08
:108B40000001217295F88C00039E82EA00012173D6
:108B50009A1995F8811092F80B0103EB090680EA47
:108B6000010295F88D0096F80B11DDF844C081EAFA
:108B7000000615996673581890F80B6195F88910DE
:108B8000DF1986EA0100607203EB0C0695F8850098
:108B900096F80B116270129A81EA000666719918B4
:108BA000DDF818C095F88A6091F80B0103EB0C0210
:108BB00095F88E10704092F80B6103EB0B02714038
:108BC00092F80BC195F882608CEA0602049EA270AE
:108BD0009A1992F80B6195F886205640A671A072FA
:108BE0001398A173191895F88F2091F80B61DDF88F
:108BF00014C0724003EB0C0695F8831096F80B0135
:108C000053444840E07095F8871097F80B014840AE
:108C1000E07195F88B0093F80B11E273109A81EADA
:108C20000003511E103D11F0FF00E37210907FF41D
:108C3000EFAD17B0BDE8F08FFA23010838B5054C49
:108C400005462046FFF762FC28462146BDE838402D
:108C5000FFF7D8BC88270020034610210C200022F3
:108C6000FFF7BCBB034610210C200022FFF7E4BB3A
:108C700038B505460E4CE36A4BB108F043F8E36A99
:108C800003600020E06208F03DF8006838BD284627
:108C9000FFF750FA40B9228E91B20029EAD0238E14
:108CA0005A1E91B2218638BD4FF0FF3038BD00BF4B
:108CB0007C280020F7B5034614480D4686681946FF
:108CC000174602AC4FF0FF3206F1090044F8042DBC
:108CD00003F066FD294603F063FD41F201053946C4
:108CE00003F05EFD0C2231462846FFF749FA214683
:108CF0002846FFF731FA08F005F8019901600846A7
:108D00000021FEF71FFF0198FEBD00BF7C28002058
:108D1000F7B5054610484FF0FF33876802AC294687
:108D200041F20B0607F1090044F8043D03F038FD59
:108D3000042239463046FFF723FA21463046FFF732
:108D40000BFA07F0DFFF0199016028460121FEF7C9
:108D5000F9FE0198FEBD00BF7C28002037B5034610
:108D600013484FF0FF3284680D4604F1090019469C
:108D7000019203F015FD082103F012FD082103F014
:108D80000FFD0023E95CC1540133082BFAD11422F2
:108D9000214641F20700FFF7F3F901A941F207006C
:108DA000FFF7DAF907F0AEFF019A026010463EBD08
:108DB0007C2800202DE9FF411D46314B8646D3F823
:108DC00008800F4608F10900714616460A9C03F018
:108DD000E7FC142103F0E4FC142103F0E1FC14216E
:108DE00003F0DEFC142103F0DBFCD4F1010138BFF9
:108DF000002103F0D5FC0FB1396800E0394603F0DB
:108E0000CFFC0EB1316800E0314603F0C9FC0DB172
:108E1000296800E0294603F0C3FC74B1216839B920
:108E2000636841F287329342DCBF41F2883363606A
:108E300003F0B6FC616803F0B3FC2C22414641F21A
:108E40000800FFF79DF941F208006946FFF784F931
:108E5000009B002B09DB0FB1019838600EB1029A1C
:108E6000326045B10399296005E007F04BFF009996
:108E70004FF0FF330160184604B0BDE8F08100BF39
:108E80007C2800202DE9FF419846154B07469D6838
:108E900014460E4605F10900394603F081FC2146CF
:108EA00003F07EFC414603F07BFCBDF830400C2211
:108EB00029462046FFF764F9204601A9FFF74CF93F
:108EC0000298002804DD30460A990B9AFFF74EF904
:108ED00007F018FF02990160084604B0BDE8F08170
:108EE0007C2800201FB500240094019441F2040462
:108EF0000294FFF7C7FF04B010BD00002DE9F04F4A
:108F000089B0039114469B46139E149D0290FFF76F
:108F1000AFFEDDF808C0002857D12D4B9A6B511CCD
:108F20009963D3F80890812D09F10A0307D0832DA6
:108F30000AD104F1080A09F12208182704E009F10E
:108F40001A081027064612906146184603F028FCBE
:108F5000391F03F025FC214603F022FC594603F09B
:108F60001FFC832D05D1514603F01AFC082103F0A4
:108F700017FC0022A24205DA0398815C08F802106F
:108F80000132F7E7002CA8BFA044832D0ED0129A1F
:108F9000B6B200920196E8B249463A46A3B2FFF74C
:108FA00000F9832D0BD141F20F000AE00020B042FE
:108FB000EDDA12990B5C08F800300130F7E741F266
:108FC000030005A9FFF7C8F8204609B0BDE8F08FF7
:108FD0007C2800201FB50024009401948124029471
:108FE000FFF78CFF04B010BD1FB5069C0094079CD2
:108FF000019483240294FFF781FF04B010BD0000A8
:10900000202A73B503460E46144622D8124A194642
:10901000956805F1090003F0C3FB082103F0C0FBCC
:10902000214603F0BDFB0022A24203DAB15C815469
:109030000132F9E704F10C032946DAB241F21100DA
:10904000FFF79EF841F2110001A9FFF785F801989A
:1090500001E04FF0FF307CBD7C280020024B012254
:109060005A805860FEF78EBE7C28002010B5084C50
:10907000E16022616361029B0399E361049A059BAD
:1090800021626262A362A061012084F8400010BDE9
:109090007C28002070B5224C054622480023A3639B
:1090A000E363238023866386A386E386E36263808B
:1090B0006360A0601C4800F0B1FAE1698847A26AC9
:1090C0000646012090470EB3E16988470028FBD18E
:1090D000134C002D14BF02250025A16801224D72FA
:1090E0004FF48040FFF74CF800214FF48040FFF729
:1090F00033F8A168002244F20B00FFF741F844F274
:109100000B000021BDE87040FFF726B8E3699847DF
:109110000028FBD0E06980470028FBD1D8E700BFDA
:109120007C280020E42800205D90000838B5094C18
:109130000020A36A98472546E869064C8047002826
:10914000FAD0A16809B10022A260BDE8384000F061
:1091500079BA00BF7C2800202DE9F04F83462F48C4
:1091600085B0D0F80890144600259A4688464FF0FE
:10917000FF331C2109F1090001930F9E0E9F0295F8
:10918000ADF80C5003F00CFB214603F009FB5946E7
:1091900003F006FB04F1100103F002FB314603F07B
:1091A000FFFA294603F005FBBAF1000F08D01AF8C0
:1091B000052042550135062DF9D10630002207E081
:1091C000534602AA995CC1540133062BF9D1F4E746
:1091D000A24204DA18F8021081540132F8E7002C98
:1091E000A8BF00193EB100232FB1B34203DAFA5CE5
:1091F000C2540133F9E71C34A319DAB249460120FD
:10920000FEF7BEFF01A90120FEF7A6FF07F07AFDD9
:1092100001990160084605B0BDE8F08F7C28002068
:10922000F7B503460F480E4685681946174602AC47
:109230004FF0FF3205F1090044F8042D03F0B0FAB5
:10924000314603F0ADFA394603F0AAFA29460C225A
:109250000420FEF795FF04202146FEF77DFF0198CC
:10926000FEBD00BF7C2800202DE9F04F83467148E9
:1092700085B0D0F808900D4614465946002209F1F1
:1092800009009A460E9F0F9E0292ADF80C2003F043
:1092900087FABBF1030F00F2BE80DFE80BF0022F6C
:1092A0007676142103F07CFA214603F079FA002146
:1092B00003F07FFABAF1000F07D000221AF802106B
:1092C00081540132062AF9D106E0534602A95A5CBC
:1092D000C2540133062BF9D10630394603F060FA47
:1092E0004FF00008A04506D015F8083000F8083007
:1092F00008F10108F6E708F118008AE0202103F0E0
:109300004FFA214603F04CFA002103F052FABAF169
:10931000000F07D000221AF8021081540132062AE9
:10932000F9D106E0534602AA995CC1540133062BD9
:10933000F9D13946063003F033FA04F10C0103F099
:109340002FFA314603F02CFA109903F029FA002283
:10935000A24203D0AF5C87540132F9E70019002222
:109360000421129D8718AD180023B34205D015F8CB
:1093700003E007F803E00133F7E701391A44F0D1BD
:1093800004F1240C0CEB830043E0282103F008FADD
:10939000214603F005FA002103F00BFABAF1000FA1
:1093A00007D000221AF8021081540132062AF9D19E
:1093B00006E0534602A95A5CC2540133062BF9D188
:1093C0003946063003F0ECF9314603F0E9F910991B
:1093D00003F0E6F9119903F0E3F904F1080103F051
:1093E000DFF9139903F0DCF90021A14203D06A5C94
:1093F00042540131F9E70019002313998B4204D03C
:10940000129AD15CC1540133F7E704F12C0808EB40
:1094100003001FFA80F849465FFA88F20520FEF73C
:10942000AFFE052001A9FEF797FE019805B0BDE843
:10943000F08F00BF7C28002037B50B4B01469D689C
:1094400002AC05F1090003F0ABF94FF0FF3044F82E
:10945000040D294604220620FEF792FE062021462E
:10946000FEF77AFE01983EBD7C28002037B548F211
:10947000080248F2080102408A42034613490BD110
:109480000020934281F840001FD023F4004424F0D0
:10949000080545F4004302E0012081F840000B4933
:1094A0004FF0FF328D6802AC194605F1090044F80F
:1094B000042D03F075F9294604220820FEF760FE0A
:1094C00008202146FEF748FE01983EBD7C2800207A
:1094D00073B50C4B01469D684FF0FF3602AC05F1A9
:1094E0000900019603F05CF944F8046D2946042252
:1094F0000A20FEF745FE0A202146FEF72DFE0198C0
:109500007CBD00BF7C28002007B50D4A4FF0FF331B
:109510000193916890B154234370037083704B7230
:1095200042788A7280780322C8720C20FEF728FEE7
:109530000C2001A9FEF710FE019800E018460EBDB0
:109540007C2800202DE9F041314886B0FFF784FBEC
:109550000546002858D12F4E2A460D204321334678
:10956000FEF73CFF054600284ED13778284907F121
:10957000030808EB06042046FFF760FB3378F61873
:109580007078102804D904F110002149FFF756FB28
:10959000E17F204A21B112F808301F2B04D101E0ED
:1095A00012F80830013400E02023107811188A786E
:1095B000032A29D8DFE802F0020E1919002001253C
:1095C00000950190029003900490059012493A464C
:1095D000034616E001208DE809000023029303935F
:1095E000049405930C493A460BE0012018211E22F1
:1095F00002258DE8270008490593049403203A4684
:109600000023FFF731FE0546284606B0BDE8F0818D
:10961000C0280020382800203928002008B5064B33
:1096200000221860054906489A601961DA80DA60FC
:109630009A80036A984708BDD0280020E42A0020B9
:109640007C28002008B5044B1A690AB10020186173
:1096500002494B6A984708BDD02800207C2800208A
:10966000024B4FF480725A60704700BF00E100E087
:1096700008B5074B4FF48072C3F8842000F05AFEFF
:10968000044902200A6988600B68501D984708BD8C
:1096900000E100E0D028002070B506460020144606
:1096A0000D4600F037FE012EA4B207D13046294600
:1096B000224600F0B7FD0020124907E0124B0120BE
:1096C0001969224600F0AEFD00202946224600F02E
:1096D000A9FD0E480221012201F01FFD012000F02A
:1096E00019FE0A4801F021FD0028FAD1084801F0CE
:1096F0001CFD0028FAD10748802102F012F800284A
:10970000F9D170BD70020020D0280020580002401E
:10971000440002400038004003460A460120194632
:10972000FFF7BABF70B50646002014460D4600F09C
:10973000F1FD012EA4B207D130462946224600F0A1
:1097400071FD0020104907E0104B012019692246E5
:1097500000F068FD00202946224600F063FD01204C
:1097600000F0D8FD0A4801F0E0FC0028FAD10948D1
:1097700001F0DBFC0028FAD10748802101F0D1FF7D
:109780000028F9D170BD00BF70020020D028002051
:1097900058000240440002400038004003460A4698
:1097A00000201946FFF7BEBF38B504460D4600F04D
:1097B000DDFE322000F090F9214604220020FFF760
:1097C000B1FF322000F088F90020211D2A1FFFF789
:1097D000A9FF034B02229A6000F0ACFD002038BDC7
:1097E000D0280020F8B501F00106044686F00100FB
:1097F0000D18012300262370C5F307221B4BE670CA
:1098000026716270A57005319D68081886B215B979
:109810009A68012AFCD19968144D012907D1204684
:109820003146FFF7C1FFA8680228FCD11CE0AF68F1
:10983000022FFCD10E48802101F073FF0028F9D1DE
:109840000C4DE86980472F460028F9D0074D0323C7
:10985000AB60EC60AE8000F089FEFA6990470028AA
:10986000FBD0A9680229FCD10020F8BDD028002037
:10987000003800407C28002070B5184E35696B799F
:10988000022B08D0042B25D1287A441E14F0010F96
:1098900018BF044614E0681D032102F08FFFB0F5E5
:1098A000007F044608DB05F10A004FF4007107242D
:1098B000FFF732FFB4600EE0C30701D4441C00E0A0
:1098C00024B105F10A00A1B2FFF726FF03490822DF
:1098D0008A6000E00024204670BD00BFD028002030
:1098E000024B012019690A22FFF7D6BED0280020BA
:1098F00008B5FFF7C1FF18B9BDE80840FFF7B8BECB
:1099000008BD000070B5364C4FF40030266901F0F8
:109910000FFC05464FF4005001F00AFCA368062B2B
:109920000BD1002D5BD0002859D04FF4083001F046
:109930000DFCBDE87040FFF7DBBFA16807291BD114
:1099400000284CD04FF4083001F000FC0321701DBA
:1099500002F034FFA0F50074A1B2CC0703D46FF479
:10996000FF73C01881B21E4C226902F20A20FFF771
:10997000D3FE0821A16070BDA268082A09D1002881
:109980002DD04FF4083001F0E1FBBDE87040FFF747
:109990006FBEA068052811D1002D20D0114880216C
:1099A00001F0BFFE0028F9D14FF4083001F0CEFBE2
:1099B00000F0C0FC0A4A0221916070BDA368042B2C
:1099C0000DD165B1A088E2680521A0F50073A16002
:1099D00002F5007099B2BDE87040FFF7DFBE70BDC0
:1099E000D02800200038004008B5174BD8698047C0
:1099F000002827D1154B9A6812B90120986008BD3C
:109A00009968022907D106229A6000F0AFFDBDE8EF
:109A10000840FFF765BF9A68032A13D19A88B2F508
:109A2000007F06D805219960D968BDE80840FFF796
:109A300033BE04209860D8684FF40071BDE8084038
:109A4000FFF7ACBE08BD00BF7C280020D028002056
:109A5000BFF34F8F054A064BD16801F4E06040EA3E
:109A60000301D160BFF34F8FFEE700BF00ED00E0C0
:109A70000400FA050D4B0E4A197839B9D88881B21D
:109A80001187188981B291879B8806E0D88981B2B5
:109A90001187188A81B291879B8906489BB2938669
:109AA000FF21632202704170704700BF1C27002015
:109AB000002C0140780200204FF4407001F052B9B0
:109AC00082B00190019A034B1A6018680028FCD1FB
:109AD00002B07047F02C002013B50749074B0190E6
:109AE0000C68074901985A68B4FBF1F100FB0120AA
:109AF0005A689042FCD81CBDCC020020001000E047
:109B000040420F0030B54FF4003085B001F07AFBD1
:109B100008204FF40033002501248DF80D0068441F
:109B200002938DF80C508DF80E4001F019FB0321C3
:109B300001A88DF804108DF805108DF806508DF8E9
:109B4000074001F019F9042329220DEB03008DF8D9
:109B500004208DF805308DF806508DF8074001F08F
:109B60000BF9022001F0B0FC50B1022001F0B6FC6C
:109B700001F070FD24204FF6FF7101F007FA27E095
:109B8000242001F011FA4AF2A551884201D101F0D6
:109B900087FC012001F0BAFC412001F005FD0028FE
:109BA000FAD04FF4807001F0C1FC012001F0C6FC36
:109BB00001F050FD01F044FD0320012101F010FDF2
:109BC00001F03EFD47F6FF7001F02AFD01F038FD7F
:109BD00005B030BD10B5044645F2555001F038FCD3
:109BE000062001F03BFC42F21070844228BF04467C
:109BF00028216143C1F30F2001F036FC01F03AFC4B
:109C0000BDE8104001F03EBC082814D8012908D155
:109C10000B490C4A01EB8003596832F810000861C7
:109C20000BE051B9064B074A03EB80014B6832F851
:109C30001000586101E0FF2300E0002358B2704794
:109C4000780200200826010873B50E4E85007319AE
:109C500004460121186901F083FC0B4B36F814000F
:109C600010215D19ADF804008DF807100322686813
:109C700001A98DF8062001F045FB20460021FFF7E1
:109C8000C3FF7CBD082601087802002070B50121C1
:109C900088B04FF4006001F063FC314B31481C6820
:109CA00042F20F76B4FBF0F14A1E2F4C01A895B298
:109CB00001F086FE01A801F083FE01A9ADF8045071
:109CC00020460025ADF80860ADF80A50ADF8065002
:109CD00001F02EFD04A801F07CFE02206023012685
:109CE000ADF8180004A92046ADF81030ADF81260A8
:109CF000ADF81650ADF81C5001F064FD2046294621
:109D000001F0A0FE204604A901F0A0FD204629464E
:109D100001F0A0FE204604A901F0DCFD2046294602
:109D200001F0A2FE204604A9ADF81050ADF8126073
:109D3000ADF81650ADF8185001F00EFE2046294639
:109D400001F09AFE2046314601F070FE2046314671
:109D500001F049FE2046314601F051FE08B070BDC9
:109D6000CC02002040420F00002C014030B51049C9
:109D7000104B8C8D93F82420A5B26C1C5443C0F377
:109D800007435C430C4B250CDD808C8DA5B26C1C0D
:109D90005443C0F307256C43240C1C81898DC0B249
:109DA00089B2013148434243120C9A8030BD00BF52
:109DB000002C0140780200201C27002030B51049FB
:109DC000104B8C8D93F82420A5B26C1C5443C0F327
:109DD00007435C430C4B250CDD818C8DA5B26C1CBC
:109DE0005443C0F307256C43240C1C82898DC0B2F8
:109DF00089B2013148434243120C9A8130BD00BF01
:109E0000002C0140780200201C270020024B002279
:109E10001A70FFF72FBE00BF1C27002037B50F4D6B
:109E2000044605EB8003186B012105EB440501F0A6
:109E300097FBB5F84000ADF804000CB9102100E024
:109E40001821074B8DF8071003EB84040322A06A46
:109E500001A98DF8062001F055FA3EBD082601083B
:109E60007802002018B1E72807D1FFF703BE034BA3
:109E70004FF40052986A02617047704778020020E0
:109E800058B1E7280FD1084A002308481387938761
:109E9000938601220370427005E0044B4FF400509A
:109EA000996A486170477047002C01407802002091
:109EB000024B0122E7201A70FFF7E2BF1C270020A7
:109EC00010B1E72840D106E020498B6ADA6882F4B5
:109ED0000050D86070471E4A1E4B1178C1B9188FC8
:109EE00080B208B1198702E0D1888AB21A879B8FA5
:109EF000184899B209B1002102E0154A138999B2B4
:109F000081871449888E82B2C2B9114B988819E0B2
:109F1000188F81B209B1002001E0D28990B2188770
:109F20009B8F0C499AB20AB1002202E00848038ACA
:109F30009AB28A870749888E83B20BB1002002E06B
:109F4000034A908980B28886704700BF780200205B
:109F50001C270020002C014010B51D4A13780BB9B6
:109F6000012102E0632B01D1FF2151705178E728D4
:109F70000B44DBB2137029D1164A632014781649BA
:109F80007CB9D488A4B25C43B4FBF0F4A4B20C87CF
:109F90001489A4B25C43B4FBF0F4A4B28C87928819
:109FA0000EE0D489A4B25C43B4FBF0F4A4B20C87F5
:109FB000148AA4B25C43B4FBF0F4A4B28C879289F7
:109FC00092B25343B3FBF0F398B2888610BD00BF42
:109FD000780200201C270020002C014073B5104C93
:109FE0000E4604EB400494F84C10054694F84800E3
:109FF00001F014FAB4F85040204601F0EDF8094899
:10A000000023451995F83810684600948DF80430FF
:10A010008DF805108DF8066001F0A2F87CBD00BF38
:10A020000826010878020020F7B5224E8700F319B0
:10A030000546586D0C4640F00100012101F090FAF0
:10A040001D4B06EB45065A1992F83A10B6F85C001B
:10A0500002AADF198DF8031022F8080D6946F86B83
:10A0600001F050F9012C24D11021002213481B27A4
:10A0700001F0D3FC05238DF8047001A800278DF8AA
:10A0800005308DF806708DF8074000F075FEB6F8C3
:10A09000601006208DF8050001A88DF804108DF8D9
:10A0A00006708DF8074000F067FE28462146FFF74E
:10A0B00095FFFEBD0826010878020020002C014013
:10A0C0001A4B1B49DA6810B542F080700024D86042
:10A0D0004C600B684FF0C05043F001020A60012150
:10A0E00001F04AFA012001F0D5F9FFF7E5FC012063
:10A0F000014601F035FAE0B20134FFF7A5FD082C66
:10A10000F9D1FFF7C3FD0020FFF788FE0120FFF71C
:10A1100085FE0220FFF782FE0320FFF77FFE00206E
:10A120000121BDE81040FFF77FBF00BFF0ED00E068
:10A13000001000E0054A064B02EB800103EB4002F1
:10A14000C86BB2F85C1001F02DB900BF7802002096
:10A1500008260108024B03EB4000418A88B2704791
:10A160001C270020024B002203EB40004282704774
:10A170001C27002010B5082086B0012101F0F0F95D
:10A18000264C4FF48040012101F0F6F903201821FC
:10A190004FF400538DF802008DF8031020466946F5
:10A1A000ADF8003001F0AEF84FF4004220466946A9
:10A1B000ADF8002001F0A6F804204FF480438DF89C
:10A1C000030069462046ADF8003001F09BF80021FD
:10A1D000ADF804104FF48272ADF80810ADF80A1013
:10A1E0004FF40070ADF81210A4F554440721012378
:10A1F000ADF80620ADF80E000822ADF81410204688
:10A2000001A9ADF80C30ADF8102001F051FA238807
:10A21000034A98B2108006B010BD00BF000C014088
:10A22000FE2C002070B5044601208CB00E4601467D
:10A23000154601F089F9124B002080224FF440515D
:10A24000012C0193029605900692079008900990C0
:10A250000A910B9006D103900A48049500F0BAFECB
:10A26000084807E04CB9102307480393049500F011
:10A27000B1FE054801A900F025FF0CB070BD00BF7C
:10A280000C380040440002405800024073B50F23D0
:10A290000124002501A88DF804308DF805508DF8B3
:10A2A0000650174E8DF8074000F066FDFFF762FF7D
:10A2B00020462A461349FFF7B5FF28462A46124989
:10A2C000124DFFF7AFFF30460221224600F025FF76
:10A2D00028462146224601F016FA22462846022147
:10A2E00001F011FA2846214601F001FA21460848FA
:10A2F00000F008FF3046214600F004FF7CBD00BF9F
:10A3000058000240E42A0020E428002000380040E1
:10A310004400024010B504462146044800F0F2FE15
:10A3200003482146BDE8104000F0ECBE4400024066
:10A330005800024002484FF4805101F039B800BF84
:10A34000000C014008B54FF40061024801F02AF802
:10A3500008BD00BF000C014030B5092085B00121C7
:10A3600001F0FEF84FF400644823694614488DF864
:10A370000330ADF8004000F0C5FF0B21012001F0D3
:10A380004DF8204600F028FF0C20029400250124FF
:10A390008DF80D0002A88DF80C508DF80E4000F0DD
:10A3A000DFFE282101A88DF804108DF805408DF8F6
:10A3B00006508DF8074000F0DFFC05B030BD00BF4F
:10A3C000000C01401FB52823002401A88DF804309B
:10A3D0008DF8074000F0D0FC4FF40060029002A816
:10A3E0008DF80E4000F0BCFE1FBD000020B10548F6
:10A3F0004FF4807100F0DCBF02484FF4807100F030
:10A40000D9BF00BF000C014013B5082001210F4C3B
:10A4100001F0A6F8032010214FF480538DF80600B8
:10A420008DF80710204601A9ADF8043000F06AFF4E
:10A43000FFF780FF4FF48072204601A9ADF8042099
:10A4400000F060FF0020FFF7D1FF1CBD000C0140B1
:10A4500010B50B4C238823F0400001040A0C228025
:10A46000FFF768FF074B188881B2074841F04002A8
:10A470004FF400712280BDE8104000F09BBF00BF88
:10A4800000380040FC2C0020000C014002484FF432
:10A49000007100F08DBF00BF000C014070B50820B6
:10A4A00086B0012101F05CF82E4C01214FF4804070
:10A4B00001F062F818204FF4005303268DF80300D2
:10A4C00069462046ADF800308DF8026000F01AFFB2
:10A4D0004FF40041ADF800102046694600F012FF2D
:10A4E00004254FF4804220466946ADF800208DF8DF
:10A4F000035000F007FF4FF4007510232046694613
:10A500008DF80330A4F55444ADF800508DF8026086
:10A5100000F0F8FEFFF7BAFF00204FF48271082226
:10A52000ADF80400ADF80610ADF80800ADF80A006B
:10A53000ADF80C00ADF812000723204601A9ADF8D4
:10A540001020ADF80E50ADF8143001F0B1F82088AD
:10A55000054A81B211802046012101F0C8F806B0F9
:10A5600070BD00BF000C0140FC2C002010B50B4C4E
:10A57000238823F0400001040A0C2280FFF786FFA5
:10A58000074B188881B2074841F040024FF48051D0
:10A590002280BDE8104000F00DBF00BF0038004031
:10A5A000FE2C0020000C014007B50820012100F01E
:10A5B000D7FF032014214FF480638DF806008DF837
:10A5C0000710034801A9ADF8043000F09BFE0EBD52
:10A5D000000C0140002008B500F088FF4FF4000097
:10A5E0000121BDE8084000F0C7BF0000014B032275
:10A5F0001A6070474C270020044B05489A7A0AB12C
:10A60000052100E001210160704700BF102D0020EE
:10A610004C27002007B5022014238DF805000021E7
:10A62000012201A88DF804308DF806108DF807205E
:10A6300000F0A2FB0EBD000020B105484FF4806180
:10A6400000F0B8BE02484FF4806100F0B1BE00BF18
:10A65000000C01400A4B987D80B10A490A4B0A88D8
:10A660000A48A3F844200188094AA3F84610108834
:10A670000849A3F848000A88A3F84A20704700BF99
:10A680001C270020004C000878020020024C000823
:10A69000044C0008064C000810B51A4B987D0028A1
:10A6A0002FD000F0B5FD342000F0C6FD164800F0B4
:10A6B0000BFE042824D1154C1348B4F8441000F0C4
:10A6C000E7FD04281BD11248B4F8461000F0E0FD65
:10A6D000042813D10F48B4F8481000F0D9FD04281D
:10A6E0000BD10D48B4F84A1000F0D2FD042803D174
:10A6F000BDE8104000F098BDFEE7FEE7FEE7FEE78C
:10A70000FEE710BD1C270020004C00087802002046
:10A71000024C0008044C0008064C000838B50546F9
:10A720004FF0FF10FFF722FBFFF7A4F90C4B0024BA
:10A73000A3F84A40FFF7B0FF0A4820228562C261B1
:10A740000462084C216AE369994207D205EB0130A3
:10A7500000F0F3F9206A421C2262F2E738BD00BF24
:10A76000780200201C2700202DE9F04106460F4604
:10A770004FEA91080024444516D056F82420174883
:10A78000174D0270C2F30721C2F30743EA62120EAB
:10A790004170C270A96A0422837000F065F9A86A4A
:10A7A0000134011DA962E6E7BB0711D056F8243039
:10A7B0000A480B4AC3F307214170C3F30741D36230
:10A7C000037081701B0E916A0422C37000F04CF973
:10A7D000E720BDE8F041FFF773BB00BFF82C002075
:10A7E0001C27002008B5074B0524A3F84840FFF7B5
:10A7F00053FF2820214600F0C9FB0020FFF71CFF73
:10A80000FFF726F9780200204FF480514FF493723D
:10A8100000F07DB84FF400514FF4197200F077B892
:10A82000034BB3F84A00421E514251EB02007047FD
:10A8300078020020024B0022A3F84A20FFF72CBF29
:10A840007802002070B50E46054600F0BDFBB30847
:10A850002C461A46013A0434511C114905D054F8CB
:10A86000040C90FAA0F00860F4E705EB8303086895
:10A8700090FAA0F106F003069E19B3420ED013F829
:10A88000014B0822614011F0010F4FEA510416BF3D
:10A89000044921466140013AF5D1EEE7C84370BD55
:10A8A000003002402083B8ED10B504460A4802216A
:10A8B00000F037FF0028F9D00748214600F02CFFB0
:10A8C0000548012100F02DFF0028F9D0024800F0D2
:10A8D00025FFC0B210BD00BF0038004070B5FFF7C3
:10A8E000B7FD9F20FFF7E0FFFF20FFF7DDFF0446E5
:10A8F000FF20FFF7D9FF0546FF20FFF7D5FF2D0208
:10A900000646FFF7C3FD45EA0440304370BD70B50D
:10A910000C4615460646FFF79BFD0320FFF7C4FFD4
:10A92000C4F30740FFF7C0FFC4F30720FFF7BCFFE5
:10A93000E0B2FFF7B9FF3DB1FF20FFF7B5FF013DE2
:10A9400006F8010BADB2F6E7BDE87040FFF79EBD1B
:10A9500008B5FFF77DFD0620FFF7A6FFBDE808401C
:10A96000FFF794BD08B5FFF773FD0420FFF79CFFC8
:10A97000BDE80840FFF78ABD08B5FFF78FFDFFF778
:10A98000F1FFFFF7ABFF104B984202D04C3B9842CF
:10A9900019D1FFF75DFD8020FFF786FFFFF776FDF9
:10A9A000FFF756FD5020FFF77FFFFFF76FFDFFF722
:10A9B0004FFD0120FFF778FF0020FFF775FFBDE88E
:10A9C0000840FFF763BD08BD8D25BF0008B5FFF740
:10A9D0003FFD0520FFF768FFFF20FFF765FFC30776
:10A9E000FAD4BDE80840FFF751BD70B50D461646D4
:10A9F0000446FFF7ADFFFFF72BFDAD20FFF754FF37
:10AA0000C5F30740FFF750FFC5F30720FFF74CFFE2
:10AA1000E8B2FFF749FF2078FFF746FF6078FFF7BD
:10AA200043FFFFF733FDFFF7D1FFA51C2C4602348F
:10AA30002B1BF01881B289B1FFF70AFDAD20FFF79B
:10AA400033FF14F8020CFFF72FFF14F8010CFFF787
:10AA50002BFFFFF71BFDFFF7B9FFE8E7FFF716FD38
:10AA6000BDE87040FFF77EBF2DE9F84F11F0FF09F8
:10AA700006460D4617464FEA12381DD1B8F1000FB1
:10AA800003D1304629463A4651E004465FFA89F23E
:10AA9000A81B904504EB000109D020464FF48052DA
:10AAA000FFF7A3FF04F5805409F10109EEE74FEA2F
:10AAB00008317018491939E0C9F10004E4B2B8F15D
:10AAC000000F0DD1D2B2A242DBD902EB09035FFA2B
:10AAD00083F92246FFF789FF301961194A4626E0BB
