:020000040800F2
:10C00000005000200DC100086DD600086FD6000852
:10C0100071D6000873D6000875D60008000000002D
:10C0200000000000000000000000000077D60008BB
:10C0300079D60008000000007BD600087DD60008F5
:10C0400059C1000859C1000859C1000881D600082B
:10C0500059C1000859C1000859C1000859C1000858
:10C06000A1D6000859C1000859C1000859C10008EB
:10C0700059C1000859C1000859C100089BD60008E1
:10C0800059C1000859C1000859C1000859C1000828
:10C090003DD7000859C1000859C1000859C100081E
:10C0A00059C1000859C1000859C10008F5D6000857
:10C0B00059C1000859C1000859C1000859C10008F8
:10C0C00059C1000859C1000859C1000859C10008E8
:10C0D00059C1000859C1000859C1000859C10008D8
:10C0E000D5D6000859C1000859C100080000000059
:10C0F0000000000000000000000000000000000040
:0CC1000000000000000000005FF808F1E3
:10C10C00002100F004B80C4B5B58435004310B4831
:10C11C000B4B42189A42FFF4F6AF0A4A00F003B8F0
:10C12C00002342F8043B084B9A42FFF4F9AF01F0AC
:10C13C0001FB01F047F8704770F500080000002083
:10C14C00780300207803002064100020FFF7FEBF66
:10C15C0010B500240B4BDA6A944206DA33F824004B
:10C16C00002101F015F90134F4E7012000F0D6FBB1
:10C17C006FF07F4000F0D8FB034801684FF4165075
:10C18C00884710BD0000002050020020F0B50023AD
:10C19C00144602348B420CDAC65C084D370906F0A3
:10C1AC000F067F5D755D04F8027C04F8015C0133B9
:10C1BC00EFE7002313761046F0BD00BF05F500082D
:10C1CC0010B50024054BDA6A944206DA33F82400E1
:10C1DC00002101F07BF90134F4E710BD00000020D0
:10C1EC0038B5051E03DB094CE36A9D4204DD0848A3
:10C1FC0081690848884738BDFFF7E2FF34F825000D
:10C20C000121BDE8384001F061B900BF00000020F9
:10C21C005002002016F500080028084B08DB084ADD
:10C22C00116B884204DA02EB8002516B1960704783
:10C23C0000201860E72000F0E9BB00BF7803002065
:10C24C000000002008B5054B186830B100F06CFBFD
:10C25C00E720BDE8084000F0B5BB08BD780300201E
:10C26C00002008B500F042FD632806D9002000F03C
:10C27C0045FD024B02489969884708BD50020020D1
:10C28C002EF5000810B5474C8CB06368ABB101F0CB
:10C29C0053F945490B6DB0FBF3F202FB130050B997
:10C2AC00A4681CB9414B42489A6990473D48816843
:10C2BC004C1C846001E00021A16001F03DF93A4C76
:10C2CC00636DB0FBF3F202FB130018B9FFF7C8FF64
:10C2DC0064216165354CFFF7B5FFA36898470028CA
:10C2EC005ED0E2689047304B9A6D1946904208DB5D
:10C2FC00DB6D984205DC801AFFF772FFA2692D48AE
:10C30C004DE0096E88420ADB274A536E984206DCE0
:10C31C00401AFFF781FF2548826927483FE05428DF
:10C32C000ED1224C01F008F904A900F0ABFF6169B1
:10C33C0022488847626904A89047A26920482EE0E9
:10C34C00582801D1012002E05A2803D10020154BB6
:10C35C00586025E04D2815D11A4C01AB2068616856
:10C36C0004AA03C3A068114C18600C2101A8FFF7A4
:10C37C000DFF616914488847626904A89047A26957
:10C38C0012480CE0094C04AA8DF80400012101A804
:10C39C00FFF7FCFE0E4861698847A26904A8904724
:10C3AC000CB010BD780300200000002050020020CB
:10C3BC0038F500083FF5000848F5000851F500086D
:10C3CC0060F50008E8F7FF1F5EF5000862F500084D
:10C3DC0067F5000808B572B606484FF4805102F0B4
:10C3EC009DFC054B022218699A6019680530884734
:10C3FC0008BD00BF000C0140CC03002070B5064600
:10C40C00002014460D4600F0B5FC012EA4B207D155
:10C41C0030462946224600F079FC0020124907E0FC
:10C42C00124B01201969224600F070FC00202946AD
:10C43C00224600F06BFC0E480221012202F023FB85
:10C44C00012000F097FC0A4802F025FB0028FAD1E5
:10C45C00084802F020FB0028FAD10748802102F09E
:10C46C0083FD0028F9D170BD6C000020CC030020A6
:10C47C0058000240440002400038004003460A467F
:10C48C0001201946FFF7BABF70B5064600201446C6
:10C49C000D4600F06FFC012EA4B207D130462946A0
:10C4AC00224600F033FC0020104907E0104B01201D
:10C4BC001969224600F02AFC00202946224600F089
:10C4CC0025FC012000F056FC0A4802F0E4FA002892
:10C4DC00FAD1094802F0DFFA0028FAD10748802186
:10C4EC0002F042FD0028F9D170BD00BF6C000020A5
:10C4FC00CC030020580002404400024000380040A9
:10C50C0003460A4600201946FFF7BEBF70B5184E09
:10C51C0035696B79022B08D0042B25D1287A441E5F
:10C52C0014F0010F18BF044614E0681D032102F03B
:10C53C0051FFB0F5806F044608DB05F10A004FF49B
:10C54C0080610724FFF79AFFB4600EE0C30701D4A3
:10C55C00441C00E024B105F10A00A1B2FFF78EFFE4
:10C56C00034908228A6000E00024204670BD00BF09
:10C57C00CC030020024B012019690A22FFF73EBFB1
:10C58C00CC03002008B5FFF7C1FF18B9BDE808407F
:10C59C00FFF720BF08BD000070B5384C4FF40030D9
:10C5AC00266902F07BFA05464FF4005002F076FA49
:10C5BC00A368062B0BD1002D5ED000285CD04FF465
:10C5CC00083002F079FABDE87040FFF7DBBFA168D4
:10C5DC0007291BD100284FD04FF4083002F06CFA19
:10C5EC000321701D02F0F6FEA0F58064A1B2234C6D
:10C5FC00CA0758BFA0F2FF31206958BF89B200F2B8
:10C60C000A40FFF73BFF0823A36070BDA268082A0D
:10C61C0009D1002830D04FF4083002F04DFABDE8B3
:10C62C007040FFF7D7BEA068052814D1002D23D089
:10C63C001348802102F098FC0028F9D14FF40830FF
:10C64C0002F03AFA4FF480510E4802F067FB0B4AA5
:10C65C000221916070BDA368042B0DD165B1A08837
:10C66C00E2680521A0F58063A16002F5806099B2B3
:10C67C00BDE87040FFF744BF70BD00BFCC03002085
:10C68C0000380040000C014008B5184BD8698047B1
:10C69C0000282AD1164B9A6812B90120986008BD5F
:10C6AC00996802290AD1062212484FF480519A60E7
:10C6BC0002F036FBBDE80840FFF75CBF9A68032A1E
:10C6CC0013D19A88B2F5806F06D805219960D96884
:10C6DC00BDE80840FFF792BE04209860D8684FF47C
:10C6EC008061BDE80840FFF70BBF08BD10100020AB
:10C6FC00CC030020000C014010B501310023934203
:10C70C000ED0040F092C01D8303400E0373401F876
:10C71C00014C01330024000101F8024BDBB2EEE7BF
:10C72C0010BD08B54FF000604FF4404102F0FEF828
:10C73C004FF4A060BDE8084002F0BAB810B504464A
:10C74C0045F2555002F008FB062002F00BFB42F2BA
:10C75C001070844228BF044628216143C1F30F2086
:10C76C0002F006FB02F00AFBBDE8104002F00EBB23
:10C77C00082812D8012907D10A4B0B4A53F820106C
:10C78C0032F8100008610AE049B9064B064A53F822
:10C79C00201032F81000486101E0FF2300E0002374
:10C7AC0058B2704774000020F0F3000837B50E4DF6
:10C7BC00044605EB80031869012102F04BFB35F8A8
:10C7CC0014000A4B1021ADF804008DF80710032259
:10C7DC0053F8240001A98DF8062002F049FA2046EE
:10C7EC000021FFF7C5FF3EBDF0F3000874000020E8
:10C7FC0070B5012188B04FF4006002F02BFB314B77
:10C80C0042F210701C686326B4FBF0F14A1E2E4CE9
:10C81C0001A895B202F0F6FC01A802F0F3FC01A904
:10C82C00ADF8045020460025ADF80860ADF80A506C
:10C83C00ADF8065002F09EFB04A802F0ECFC0220BE
:10C84C0060230126ADF8180004A92046ADF810307D
:10C85C00ADF81260ADF81650ADF81C5002F0D4FBD8
:10C86C002046294602F010FD204604A902F010FCD7
:10C87C002046294602F010FD204604A902F04CFC8B
:10C88C002046294602F012FD204604A9ADF81050AE
:10C89C00ADF81260ADF81650ADF8185002F07EFCF1
:10C8AC002046294602F00AFD2046314602F0E0FC03
:10C8BC002046314602F0B9FC2046314602F0C1FC5C
:10C8CC0008B070BD6C020020002C014030B5114B3B
:10C8DC001A78F2B91049C0F307428C8DA5B26C1CC2
:10C8EC005443FF22B4FBF2F5ACB2DC808D8DACB2BC
:10C8FC000134C0F307256C43B4FBF2F4A4B21C81E1
:10C90C00898DC0B289B201314843B0FBF2F291B2C9
:10C91C00998030BD94030020002C0140014B18700D
:10C92C00704700BF9403002038B5044C00232578D1
:10C93C002370FFF7CBFF257038BD00BF9403002098
:10C94C0037B50F4D044605EB8003186B012105EB41
:10C95C00440502F07FFAB5F84000ADF804000CB9BC
:10C96C00102100E01821074B8DF8071003EB84040D
:10C97C000322206A01A98DF8062002F079F93EBD48
:10C98C00F0F30008740000200B4B1A789AB960B1D0
:10C99C00E72810D1D988094A88B21087198988B23A
:10C9AC0090879B8899B2918605E0054A4FF4005315
:10C9BC00106A03617047704794030020002C0140FB
:10C9CC007400002038B5044C002325782370FFF741
:10C9DC00DBFF257038BD00BF94030020084B19788D
:10C9EC0069B930B1E7280AD1064A11879187918637
:10C9FC0005E005484FF40051036A596170477047D0
:10CA0C0094030020002C01407400002038B5044C25
:10CA1C00002325782370FFF7E1FF257038BD00BF98
:10CA2C00940300200F4A1378D3B990B1E72817D19B
:10CA3C000D4B198FD088414088B21887998F108977
:10CA4C00414088B29887998E92884A4090B29886D5
:10CA5C0006E0064B196ACA6882F40050C860704739
:10CA6C00704700BF94030020002C0140740000208C
:10CA7C002B4B1A78002A52D1E72850D1D888294B51
:10CA8C0080B268B1284A118F88B208B9012007E03A
:10CA9C00118F928D88B291B24A1C904201D1FF2025
:10CAAC0018701F4B2148198989B269B11E4A938F9E
:10CABC0099B209B9012107E0938F928D99B293B283
:10CACC005A1C914201D1FF210170154883881848E6
:10CADC009BB26BB1144A918E8BB20BB9012307E058
:10CAEC00918E928D8BB291B24A1C934201D1FF234D
:10CAFC0003700D480B49028F91F900309A1891B2CE
:10CB0C000A4A018792F90010838FCB189AB2084910
:10CB1C00828791F90020838ED31899B28186704751
:10CB2C0094030020220D0020002C0140E10B00207A
:10CB3C00E00B002073B5104C0E4604EB400494F847
:10CB4C004C10054694F8480002F0ECF8B4F850404C
:10CB5C00204601F0F7FF09480023451995F83010DD
:10CB6C00684600948DF804308DF805108DF8066039
:10CB7C0001F0ACFF7CBD00BFF0F300087400002096
:10CB8C00F7B5224E8700F3190546586D0C4640F058
:10CB9C000100012102F05EF91D4B06EB45065A1906
:10CBAC0092F83210B6F85C0002AADF198DF8031067
:10CBBC0022F8080D6946786B02F05AF8012C23D143
:10CBCC001021002213481B2702F049FB00238DF88B
:10CBDC00047001A802278DF806308DF805708DF8C9
:10CBEC00074001F06FFEB6F8601001A88DF8041034
:10CBFC008DF805708DF806408DF8074001F062FE47
:10CC0C0028462146FFF796FFFEBD00BFF0F3000853
:10CC1C0074000020002C014010B501214FF0C050D1
:10CC2C0002F024F9012002F0B9F8FFF77AFD012097
:10CC3C00014602F00FF90024E0B20134FFF7B6FD13
:10CC4C00082CF9D1FFF7D4FD0020FFF779FE012065
:10CC5C00FFF776FE0220FFF773FE0320FFF770FE4E
:10CC6C0000200146FFF78CFF154B4FF47A701A68C1
:10CC7C00144BB2FBF0F14A1E1349F0205A6081F8B4
:10CC8C002300002207209A601860CB68C3F30220AF
:10CC9C00011D0629C0F1070388BFC21E042B28BF43
:10CCAC000423012000FA03F14B1E03F0030000FAE9
:10CCBC0002F2054B1101C8B283F8230010BD00BF6E
:10CCCC006C02002010E000E000ED00E0054A064B8D
:10CCDC0002EB800103EB4002486BB2F85C1002F0EF
:10CCEC0017B800BF74000020F0F30008024B03EBF0
:10CCFC004000418988B2704794030020024B002207
:10CD0C0003EB4000428170479403002070B5044649
:10CD1C0001208CB00E460146154602F08FF8124BDE
:10CD2C00002080224FF44051012C01930296059073
:10CD3C0006920790089009900A910B9006D10390E7
:10CD4C000A48049501F0FCFD084807E04CB9102393
:10CD5C0007480393049501F0F3FD054801A901F080
:10CD6C0067FE0CB070BD00BF0C38004044000240A0
:10CD7C005800024010B504462146044801F078FEE4
:10CD8C0003482146BDE8104001F072BE4400024049
:10CD9C005800024070B5082086B0012102F05AF804
:10CDAC002E4C01214FF4804002F060F818204FF413
:10CDBC00005301258DF8030069462046ADF800307C
:10CDCC008DF8025001F054FF4FF40041ADF8001003
:10CDDC002046694601F04CFF04264FF48042204661
:10CDEC006946ADF800208DF8036001F041FF10207A
:10CDFC0003234FF400768DF80300694620468DF826
:10CE0C000230ADF8006001F033FF2046314601F0EE
:10CE1C0085FF0021ADF80410ADF808102020ADF806
:10CE2C001210A4F5544407214FF482720223ADF87A
:10CE3C001000ADF81410204601A9ADF80620ADF88D
:10CE4C000A30ADF80C50ADF80E6002F05DF82046DB
:10CE5C00294602F078F806B070BD00BF000C014006
:10CE6C0007B50820012101F0F5FF032014214FF430
:10CE7C0080638DF806008DF80710034801A9ADF802
:10CE8C00043001F0F5FE0EBD000C0140002008B589
:10CE9C0001F08AFF4FF400000121BDE8084001F0C9
:10CEAC00E5BF07B5012014238DF8050000228DF88D
:10CEBC00070001A88DF804308DF8062001F002FD62
:10CECC000EBD000020B105484FF4806101F028BF71
:10CEDC0002484FF4806101F021BF00BF000C0140FB
:10CEEC0008B5064B1860FFF7BBFFFFF7CFFFFFF746
:10CEFC00D8FFBDE8084001F09DBA00BFD402002065
:10CF0C00074B1868052808D106498A7B012A04D1E9
:10CF1C00087C8B7CC11AC8B270470020704700BFD8
:10CF2C00C4030020940300200D4B10B5186805288D
:10CF3C0013D10C4CA17B01290FD1228A638AD01A00
:10CF4C00012804D100210320A17301F0DEFB638AC8
:10CF5C00054A591CD05C618210BD4FF0FF3010BDEA
:10CF6C00C403002094030020E20B0020074B196837
:10CF7C0005290AD1064B07495A698854501CB0F54B
:10CF8C00807F586101D100225A617047C403002090
:10CF9C0094030020220C002070B51D4A137E012B37
:10CFAC0034D0D069B0F5807F01D10021D161D36933
:10CFBC0052691748934202D10021017670BD8CBF93
:10CFCC00C3F58072C3EB0202114C0262256A99B25E
:10CFDC00402D05D94033403DE3612562402604E0F5
:10CFEC00E8180023AEB2E06123620A4A012550180A
:10CFFC00C0213246257601F0FFFA2846314601F071
:10D00C0005FC2846BDE8704001F06EBB70BD00BF4A
:10D01C0094030020220C0020094B10B593E8140057
:10D02C000833186810180AD008220649FFF764FB69
:10D03C00054920460422BDE81040FFF75DBB10BD3A
:10D04C00E8F7FF1F8202002092020020BFF34F8FEF
:10D05C00054A064BD16801F4E06040EA0301D16057
:10D06C00BFF34F8FFEE700BF00ED00E00400FA05B0
:10D07C00054B06481A88064902800B88054A4380EE
:10D08C0011888180704700BF004C0008B40000205C
:10D09C00024C0008044C000810B501F06FFD342060
:10D0AC0001F080FD0F4801F0C5FD042819D10E4C8C
:10D0BC000C48218801F0A2FD042811D10B4861888D
:10D0CC0001F09CFD04280AD10948A18801F096FDC5
:10D0DC00042803D1BDE8104001F05CBDFEE7FEE77B
:10D0EC00FEE7FEE7004C0008B4000020024C0008EC
:10D0FC00044C000838B52A4B2A491A68501C186091
:10D10C000C6814B10B685A1E0A60274C206810B1C9
:10D11C002268531E06E0254D297829B1E720FFF738
:10D12C00A7FC1923236019E0214B1A784AB9214B2B
:10D13C001A7812B1E720FFF775FC1B4964200860D0
:10D14C000CE01D4C207848B94FF6FF70FFF7BEFB82
:10D15C00E720FFF719FC0121297021700020FFF74F
:10D16C00C5FD40F6B73188420AD9144C00204FF661
:10D17C00FF75FFF7C3FD6580FFF78EFFFFF766FFB6
:10D18C000F4841F287320368934205D900220260AE
:10D19C00BDE8384001F0F2BD01684B1C036038BD9E
:10D1AC00640D0020440D0020400D0020500D002087
:10D1BC00490D0020600D0020B8030020B4000020B1
:10D1CC00380D002010B5FFF727FD6FF07F40FFF7FB
:10D1DC007DFBE720FFF7D8FB7D2001F053FE20B14B
:10D1EC00204B01221A7001F061FE43F69820FFF7E4
:10D1FC00A5FAFFF73DFF1C488188B1F5404F04D0DC
:10D20C004FF440448480FFF747FF00F0EBF9154AD8
:10D21C001378012B03D0154808B1FEF799FF144978
:10D22C004C7814B9134A137813B94FF47F4000E0CB
:10D23C00FF20FFF74BFBE720FFF7A6FB0E49012071
:10D24C000870084C2278012A03D00C4B0BB1FFF765
:10D25C0019F820780128F4D009490C68002CF0D07A
:10D26C00A047EEE7480D0020B40000205DC1000887
:10D27C00B80300203C0D0020600D002091C2000876
:10D28C008C0F002010B518B930220A70012318E059
:10D29C0002460023002A05DD0A24013392FBF4F236
:10D2AC00DBB2F7E7C91800280BDD0A2490FBF4F277
:10D2BC0004FB1200044C2018C07B01F8010D104631
:10D2CC00F1E7184610BD00BFC400002070470000F5
:10D2DC00014608B5044802F06FF80348802102F0BB
:10D2EC0073F80028F9D008BD0044004010B5441E66
:10D2FC0014F8010F10B1FFF7EBFFF9E710BD0000B8
:10D30C0008B5FFF7F3FF0248BDE80840FFF7EEBF92
:10D31C006DF50008202108B5034802F055F80030DF
:10D32C0018BF012008BD00BF0044004008B50248EA
:10D33C0002F046F808BD00BF0044004008B50448A0
:10D34C00002102F02DF8034B00221A7008BD00BF1B
:10D35C0000440040BA030020FFF708BE10B5441E7D
:10D36C0014F8010F10B1FFF701FEF9E710BD000032
:10D37C0008B5FFF7F3FF0248BDE80840FFF7EEBF22
:10D38C006DF50008FFF7D0BDFFF7BABDFFF7A8BDDC
:10D39C0014282DE9F34104460E465BD8FF2959D0D9
:10D3AC002D4B1878012803D1A4F11201012951D970
:10D3BC002A4D2701EA192A4BEF5904209F42B2F853
:10D3CC00048003D02748874203D10820012101F0B3
:10D3DC0041FDADF80480052E38D8DFE806F00310C7
:10D3EC00171E25301D4B102103EB041403220020C3
:10D3FC00A0738DF807108DF80620083426E0042061
:10D40C008DF8070005EB041401221EE048238DF86B
:10D41C00073005EB0414022217E028228DF80720B0
:10D42C0005EB0414032210E00C49182303208DF89B
:10D43C0007308DF8060001EB0414042205E00021EE
:10D44C008DF8071005EB04140522A273384601A9C8
:10D45C0001F00EFCBDE8FC81BA030020E0000020C6
:10D46C0000080140000C01401FB504460120014694
:10D47C0001F0F0FC4FF40030012101F0F7FC122018
:10D48C000121FFF785FF13200421FFF781FF009492
:10D49C000C4C0C200023ADF80A0069462046ADF870
:10D4AC000430ADF80630ADF80830ADF80C3001F0B2
:10D4BC001FFF0121204601F073FF034901220A706E
:10D4CC001FBD00BF00440040BA030020142838B52B
:10D4DC0004460D462BD8164B03EB0010817B01291B
:10D4EC0025D0022923D0032921D005291FD0FF29BB
:10D4FC001DD0104A1378012B03D1A4F1120001287E
:10D50C0015D9042903D120460021FFF741FF012D35
:10D51C0006D1074924010A190B599088186138BDA6
:10D52C002DB9034924010A190B599088586138BD4B
:10D53C00E0000020BA030020014B1868704700BFC0
:10D54C00640D002010B504460A48022101F00CFDC0
:10D55C000028F9D00748214601F001FD05480121BA
:10D56C0001F002FD0028F9D0024801F0FAFCC0B22B
:10D57C0010BD00BF00380040F8B50F4C4FF40071DF
:10D58C00204601F0CDFB9F20FFF7DCFFFF20FFF7CB
:10D59C00D9FF0646FF20FFF7D5FF0746FF20FFF710
:10D5AC00D1FF3F0205464FF40071204601F0B6FB57
:10D5BC0047EA06402843F8BD000C014010B5084C62
:10D5CC004FF40071204601F0ABFB0420FFF7BAFFCB
:10D5DC0020464FF40071BDE8104001F09FBB00BF26
:10D5EC00000C014008B5FFF7D5FBFFF7E7FFFFF78D
:10D5FC00C3FF194B984202D04C3B98422BD14FF4AD
:10D60C000071164801F08CFB8020FFF79BFF13483C
:10D61C004FF4007101F082FB4FF400710F4801F0E0
:10D62C007FFB5020FFF78EFF0C484FF4007101F088
:10D63C0075FB4FF40071094801F072FB0120FFF7F4
:10D64C0081FF0020FFF77EFF04484FF40071BDE816
:10D65C00084001F063BB08BD8D25BF00000C0140E4
:10D66C007047FEE7FEE7FEE7FEE77047704770473E
:10D67C00FFF740BD08B5012001F02AFC30B10120B4
:10D68C0001F038FCBDE8084001F018BC08BDFEF7FD
:10D69C0083BF000008B5042001F05AFA78B10420C9
:10D6AC0001F066FA0020064B01461880FFF742FA9B
:10D6BC00044810210122BDE8084001F0D0BD08BD8E
:10D6CC009E030020002C014008B54FF4006001F0CF
:10D6DC003FFA38B14FF4006001F04AFABDE8084057
:10D6EC00FEF7D2BF08BD000008B50F48102101F0AD
:10D6FC00EFFDC0B10C48102101F0F5FD0020FFF743
:10D70C00E5FA28B9094B1A880A3290B2188008BD7C
:10D71C0010210548002201F0A2FD00200121BDE8E6
:10D72C000840FFF707BA08BD002C01409E030020FB
:10D73C0000F0E0B83A4B82B01A6842F00100186071
:10D74C005968384A0A405A60186820F0847121F4EC
:10D75C0080321A60186820F4802119605A684FF4DE
:10D76C001F0122F4FE000022586099600092019281
:10D77C00186840F480311960294B1A6802F40030A3
:10D78C00019000994A1C0092019818B90099B1F5C2
:10D79C00A06FF1D11B6813F4003218BF0122019263
:10D7AC000198012805D0204B4FF000629A6002B01E
:10D7BC0070471E490B6843F010020A60086820F09D
:10D7CC0003030B600A68A1F5805342F00200086065
:10D7DC00596859605A685A60586840F480615960B9
:10D7EC005A6822F47C105860596841F4E8125A6067
:10D7FC00186840F0807119601868094A8101FBD5DE
:10D80C00536823F003015160506840F002035360E9
:10D81C00034A516801F00C000828F9D1C3E700BF96
:10D82C00001002400000FFF800ED00E00020024074
:10D83C0038B514490B78012B23D1134A13680BB953
:10D84C000B7038BD114C402B206881B205D940308B
:10D85C00403B20601360402504E09DB2C3180020BB
:10D86C00236010600A4A5018C0212A4600F0C4FEFA
:10D87C000120294600F0CAFF0120BDE8384000F025
:10D88C0033BF38BDAC030020B4030020B00300202C
:10D89C00220C0020094908B50020094B0122088000
:10D8AC0003201A7000F0DEFF064B02461880064873
:10D8BC004FF48871BDE8084000F0B5BEA603002007
:10D8CC00A2030020A4030020E20B0020074B1868E1
:10D8DC00052809D1064B1A68511C052A196003D179
:10D8EC0000201860FFF758BB704700BFC40300202E
:10D8FC00BC03002038B5194B194A1968194D88B268
:10D90C00108014882988214001F4007082B24AB139
:10D91C004FF6FF541C60144B1D78691CC8B218706C
:10D92C00FFF7D4FF0E4A0F4B14881D88254005F4D1
:10D93C00004188B215461C4608B100F097FD2A88B4
:10D94C002388134003F4806188B230B1034B07493C
:10D95C004FF6FF321A604868804738BD445C00407F
:10D96C00900F0020C40F0020C00300200C030020E7
:10D97C00034B987A10B1034905220A60704700BF27
:10D98C00A00F0020C4030020014B04221A60704732
:10D99C00C4030020034B1A78202A01D100201870F0
:10D9AC00704700BFC103002070470000212810B54C
:10D9BC0008D111480368197801F07F02212A11D08F
:10D9CC00022010BD2028FBD10B4B19680A780B499B
:10D9DC0002F07F030A4A212B0CBF0B460023107068
:10D9EC000BB9EDE7074B044C20680024836144829B
:10D9FC0020469847204610BDC00F002061DA000871
:10DA0C00C103002049DA0008074B19680A7802F0B4
:10DA1C007F03212B05D1022801D100207047222839
:10DA2C00FBD00220704700BFC00F002009B10220BC
:10DA3C0070470128FBD808467047000020B9034BFB
:10DA4C00082219680A82704701487047C00F0020ED
:10DA5C00D402002020B9034B082219680A827047AF
:10DA6C0001487047C00F0020D4020020054B1968F4
:10DA7C00CA78042A04D8044B03EBC20100F076BA2E
:10DA8C0000207047C00F0020DC020020014900F08C
:10DA9C006DBA00BFFC020020014900F067BA00BF5C
:10DAAC0004030020334A344BD179186810B5002494
:10DABC0041728472C472204600F0C8FD20464FF4B7
:10DACC00007100F0CBFD1021204600F0D3FD402169
:10DADC00204600F06FFE8021204600F05BFE2046C1
:10DAEC0000F024FE254B204693F8641000F09CFEB9
:10DAFC00204600F00AFE0120214600F0AFFD012077
:10DB0C00C02100F047FE0120202100F0B3FD0120D0
:10DB1C00214600F0CCFD02204FF4C06100F09EFDC8
:10DB2C0002204FF4807100F035FE0220214600F0F7
:10DB3C00BEFD0220202100F09DFD0320214600F0B7
:10DB4C008DFD03204FF4887100F034FE032040213A
:10DB5C0000F06AFE03204FF4405100F0A8FD0320B2
:10DB6C00214600F087FD204600F012FC044A0120FB
:10DB7C00106010BDB0F40008C00F0020D4020020CB
:10DB8C00C403002010B5FFF747FA054B00241868B2
:10DB9C00847200F009F800F07BFE02490C6010BDA5
:10DBAC00C00F0020C403002008B50120FFF78AF93C
:10DBBC00064B0749012200201A60186008600549CD
:10DBCC004FF4E0520A801A6008BD00BF405C004070
:10DBDC00445C0040C40F002010B5064C18B92368F3
:10DBEC0001221A8210BD044B18680168884720680E
:10DBFC000A3010BDC00F0020BC0F002010B5064C21
:10DC0C0018B9236801221A8210BD044B1868816868
:10DC1C00884720680C3010BDC00F0020BC0F0020BE
:10DC2C0008B5234A18B9136802221A8208BD214B81
:10DC3C00002012681880117811F07F0113D1507AEE
:10DC4C0000F02002D1B209B102221A7000F0400398
:10DC5C00D8B2184B18B11A7842F001011EE01978AD
:10DC6C0021F001011AE001291FD002291ED150799F
:10DC7C0000F00F024FEA820110F0800F01F180409A
:10DC8C0000F5B842116803D001F03002102A03E00D
:10DC9C0001F44050B0F5805F01D101211970064BA1
:10DCAC00186801698847034808BD184608BD00BFBD
:10DCBC00C00F0020920F0020BC0F0020F8B5224BA3
:10DCCC001C68238A267AABB9042E13D11F4801781D
:10DCDC0001291F490AD11F4C226894B21E4AA2186E
:10DCEC005200136030220A80037028E010260E8048
:10DCFC00072624E0A58AA169AB428CBF0226042624
:10DD0C009D4228BF1D46284688470746002000F044
:10DD1C0061FD2A460146384600F06EFC294600207B
:10DD2C0000F074FD208A638A421BED1808480B4BE7
:10DD3C00228230214FF44052018065821A80024BBE
:10DD4C0018680672F8BD00BFC00F0020C803002081
:10DD5C00C80F0020505C004002300020C60F00208D
:10DD6C0010B50A4B0A4918684B78C27893420AD30B
:10DD7C00817841B9848834B9827206480268536844
:10DD8C009847204610BD022010BD00BFC00F0020D8
:10DD9C0060030020BC0F002038B50E4A0E4C1068F2
:10DDAC0023688269D9785879904721688B7A7BB13E
:10DDBC0070B9087960B98D7855B9084A1168CB6883
:10DDCC00984720684279C178C2720173284638BDE1
:10DDDC00022038BD980F0020C00F0020BC0F00207F
:10DDEC0010B5324B1B68187810F07F0004D15A7AAA
:10DDFC0022F02001597210BD022855D15A88002AF0
:10DE0C0053D11979002950D15A7922F080004FEA68
:10DE1C00800404F1804101F5B8442168244C12F0CF
:10DE2C00800F247814BF01F0300101F44051A0425E
:10DE3C003AD2002938D09B7A002B35D0840002F0DE
:10DE4C00800204F18043D1B203F5B844226861B179
:10DE5C0002F03002102A21D1C4B2204600F087FC17
:10DE6C002046302100F006FC18E002F44051B1F5D8
:10DE7C00805F13D128B90F4B93F82C1000F0D4FC11
:10DE8C0001E000F062FC20684BF68F72024082F4D5
:10DE9C00405141F4004343F08000206006490B6878
:10DEAC0058698047002010BD022010BDC00F002013
:10DEBC00600300200C030020BC0F002010B51F4B8A
:10DECC0019684A7922F080034FEA830000F18044FC
:10DEDC0004F5B8401A4C0068247812F0800F14BF77
:10DEEC0000F0300000F44050A34224D24C8814BB04
:10DEFC0008B3897AF9B19B0003F1804102F08002EA
:10DF0C0001F5B843D0B2196828B148F6BF720A407F
:10DF1C0082F0100004E04BF68F720A4082F48050BD
:10DF2C0040F4004141F080001860064B1A6891697A
:10DF3C008847002010BD022010BD00BFC00F00207C
:10DF4C0060030020BC0F002008B5064B1868064B78
:10DF5C00427A42F0200141721868C2699047002051
:10DF6C0008BD00BFC00F0020BC0F0020054B1A6875
:10DF7C00538A18B98988CB1A138270470868C0185D
:10DF8C00704700BFC00F002008B50B4B002093F862
:10DF9C002C1000F049FC09480168087A082806D1C1
:10DFAC00074B4FF480521A80064A10211180B0F1B1
:10DFBC0009035842584108BD0C030020C00F002033
:10DFCC00C60F0020C80F002070B52E4B1C68207A9D
:10DFDC0002284FD004284DD0032801D0052843D166
:10DFEC00A169208AA9B1A0B1A58A854228BF05469E
:10DFFC0028468847228A0646608A531B2918618264
:10E00C002382002000F0F4FB2A460146304600F043
:10E01C000AFB228A52B11C4B4FF44050188000204E
:10E02C00014600F0F3FB194A30211180208AA38AA3
:10E03C001449834202D80B68032202E018B10B6822
:10E04C0005221A720CE00A680623114913720A6839
:10E05C00104993B25A1853000C49186030200880AC
:10E06C00084801680B7A06E0072803D10A490A68B8
:10E07C00D36898470823034A10680372BDE87040C0
:10E08C00FFF782BFC00F0020C60F0020C80F002072
:10E09C00505C004002300020980F0020944B73B568
:10E0AC001A68944990B24418934E65002A683568F2
:10E0BC002B7A092B15D090B2410001F1804404F564
:10E0CC00C04422782A7063786B70A08800F0DAFB69
:10E0DC0068802089356800F0D5FBA880A08931685C
:10E0EC00C880854D01242B68DA881C725C78002A64
:10E0FC0064D1187810F07F0238D1092C02D1FFF7C7
:10E10C002FFE45E0052C0FD193F90320002A01DAEC
:10E11C0008214FE099780029FAD198880028F7D186
:10E12C009B7A002B38D0F3E7032C10D1D878012838
:10E13C0007D0724A204611684B699847032829D1A9
:10E14C0037E09B88002BF4D1FFF7FEFE20E0012C7A
:10E15C00EFD1D9780129ECD198880028E9D15B7AE4
:10E16C0003F02002D1B20029E3D00AE0012A04D145
:10E17C000B2CDED1FFF710FE0AE0022AD9D1012CBC
:10E18C0002D1FFF72DFE03E0032CD2D1FFF796FE50
:10E19C0010B1CEE70028BBD15548594B026891B25B
:10E1AC00C818584B4100002230200A601880062104
:10E1BC0000E00921504A10680172D3E0062C13D1FB
:10E1CC001C7861067AD19A784C4B012A02D11C68D2
:10E1DC00E36969E0022A02D11868036A64E0032A41
:10E1EC006CD119684B6A5FE0002C3ED1598800292C
:10E1FC0064D1586820F47F42B2F5003F5ED11C78A0
:10E20C0014F07F0004D19888002800F0AE8055E00F
:10E21C0001280CD1394A58791468A2699047002812
:10E22C004CD12B68997A002940F09F8046E0022857
:10E23C0044D15B7903F00F014FEA810202F1804473
:10E24C0004F5B840304C0268207813F0800F14BFEE
:10E25C0002F0300202F4405281422FD213F0700FC0
:10E26C002CD1002A40F0818028E0082C03D11978A9
:10E27C004A067CD022E00A2C20D1187800F07F01CD
:10E28C0001291BD19C7ACCB15988B9B95A6822F4AE
:10E29C007F40B0F5803F11D1184C587922689469B1
:10E2AC00A047002865D009E043B113480024016859
:10E2BC0020464C828B61984720460AE00F4A0E4C50
:10E2CC00116823680A6958789047032801D123689C
:10E2DC0006E0094B4FF6FF711B681A8A8A4201D17E
:10E2EC00092103E0022800D082B90821197239E013
:10E2FC00505C004004300020C00F0020980F00201C
:10E30C0002300020C80F00206003002093F90000A9
:10E31C00002821DAD98801910198824202D9019A08
:10E32C001A8211E08A420FD21349086890F82C1017
:10E33C008A4201D2002105E092FBF1F001FB102290
:10E34C0012B901210D4801700B49086890F82C2076
:10E35C009A82FFF7B3FC05E003221A72084B4FF4C4
:10E36C0040511980FFF710FE7CBD064B9DE7064B14
:10E37C009BE7064B99E700BF980F0020C8030020CD
:10E38C00C60F00202DDC0008E5DB000809DC0008C6
:10E39C0070B50D4B1C780023A34210D203F18052B0
:10E3AC0002F5B855A90043F400420E6842F080050E
:10E3BC0040F60F7232402A430A600133ECE70349FE
:10E3CC0040F08000086070BD600300204C5C004091
:10E3DC0010B514490B680C461A7A022A01D0042A8B
:10E3EC0004D1FFF76BFC2168087A13E0062A10D1E0
:10E3FC005878052809D11978480606D1D878FFF73E
:10E40C00C7FF094B1A68106A804708490B689A685D
:10E41C0090470820034B1A681072BDE81040FFF7B4
:10E42C00B3BD00BFC00F0020BC0F0020980F002010
:10E43C007047000008B5074A074B0220136018729A
:10E44C000649074B0748084A0B6010601B68984741
:10E45C0008BD00BFC00F0020A00F0020980F0020A7
:10E46C000C0300203C030020BC0F002037B5002318
:10E47C00ADF806305848594B026891B21204198015
:10E48C0040F1A8801888564900F00F020A70002A43
:10E49C006ED1544C2568AAB2534D2A802988534A10
:10E4AC0001F03000108029884BF6BF7201F4405007
:10E4BC00288021680A4082F4005080F0200141F449
:10E4CC00004242F0800020601B8803F010018AB2E9
:10E4DC003AB9226848F60F7010402060FFF778FFB9
:10E4EC001DE0206883B2ADF80630BDF8061001F4CB
:10E4FC00006290B238B1216840F68F730B402360F4
:10E50C00FFF7CCFD0BE0BDF8063019B20029B1DAEB
:10E51C00226840F68F7010402060FFF755FD21688F
:10E52C002A884BF6BF7302F480500B4081B209B1BC
:10E53C0083F480532C4A108800F400518AB20AB13B
:10E54C0083F400532948018801F0100291B209B1FB
:10E55C0083F01003008800F0200291B209B183F01F
:10E56C00200343F400401F4A40F08001116031E069
:10E57C00930003F1804000F5B843196888B2ADF8F8
:10E58C000600BDF8061008B2002809DA186840F633
:10E59C008F7101401960164B013A53F822008047E5
:10E5AC00BDF8061001F0800293B2002B3FF462AF6D
:10E5BC000B480278910001F1804303F5B8410868DB
:10E5CC0048F60F7303400B600A49013A51F82200D8
:10E5DC0080474FE73EBD00BF445C0040900F0020D9
:10E5EC009C0F0020005C0040C60F0020C80F0020CC
:10E5FC009C020020B802002030B501F1005101F559
:10E60C00405301325900521000230230934209D07A
:10E61C0010F8015C10F8024C44EA052421F8234060
:10E62C000133F2E730BD01F1005110B5013201F5B3
:10E63C004054521064000023934205D054F8231028
:10E64C0020F813100133F7E710BD00004FF6F873F4
:10E65C00014A034013607047505C0040800000F199
:10E66C00804202F5B842106848F68F1303401943F4
:10E67C0011607047800000F1804202F5B8421068CA
:10E68C0048F6BF73034001F0100080B208B99BB28A
:10E69C0001E083F0100301F0200188B208B183F08F
:10E6AC00200343F4004141F080001060704780006B
:10E6BC0000F1804202F5B84210684BF68F730340AC
:10E6CC0001F4805080B208B99BB201E083F480530E
:10E6DC0001F4005188B208B183F4005343F40041B3
:10E6EC0041F0800010607047800000F1804202F51C
:10E6FC00B840016848F6BF730B4083F0300242F417
:10E70C00004141F0800303607047800000F18042BB
:10E71C0002F5B84001684BF68F730B4083F44052FE
:10E72C0042F4004141F0800303607047800000F127
:10E73C00804202F5B840016840F60F630B4043F489
:10E74C00004242F0800101607047800000F180437C
:10E75C0003F5B8400268510408D5016840F60F7300
:10E76C000B4043F4404242F080010160704780004E
:10E77C0000F1804303F5B8431A68500608D51968B0
:10E78C0040F60F70084040F4004242F0C00119609E
:10E79C0070470000064B49081A6893B203EBC0009F
:10E7AC0000F1005202F5405358004A0002607047D5
:10E7BC00505C0040054B49081A6893B2044A03EBBD
:10E7CC00C000831858004A0002607047505C00403B
:10E7DC0004300020054B19688AB202EBC00000F12E
:10E7EC00005303F540514A0010887047505C0040BC
:10E7FC00044B1968044B8AB202EBC000C1184A00E2
:10E80C0010887047505C004004300020044B1A689C
:10E81C0093B2044A03EBC0008318580001607047A0
:10E82C00505C0040023000200C4B1A6893B20C4A2A
:10E83C0003EBC00083185A003E2908D94B09C906BE
:10E84C0001D1581E83B2990241F4004104E04B08F7
:10E85C00C80748BF0133990211607047505C0040F3
:10E86C0006300020054B1968054B8AB202EBC0003C
:10E87C00C1184A0010688305980D7047505C004021
:10E88C0006300020C3B2000A40EA032070470000A3
:10E89C00044B00201860044A044B4FF406411180CD
:10E8AC0019607047445C0040C40F0020405C00407D
:10E8BC0040F0BF60024B40F40031D960704700BF9C
:10E8CC0000ED00E0C37810B503B3164CE168CB4300
:10E8DC00C3F302244178C4F1040201FA02F10F22BD
:10E8EC0022FA04F28478037822400A43110103F1DE
:10E8FC006043CAB203F5614181F80023007801221C
:10E90C0000F01F03410902FA03F007E0007801222E
:10E91C0000F01F03410902FA03F02031024B43F8C7
:10E92C00210010BD00ED00E000E100E021F06041AD
:10E93C0021F07F02014B10439860704700ED00E01E
:10E94C0002684FF6FE73134003602D4B0021984272
:10E95C00016041608160C16022D02A49884229D07F
:10E96C00294B984230D02949884237D0284B9842BD
:10E97C003ED0284B984206D153F8681C41F47000E5
:10E98C0043F8680C70472449884206D151F87C0C36
:10E99C0040F0706241F87C2C7047204B984206D1B5
:10E9AC0053F8042C42F00F0143F8041C70471C4927
:10E9BC00884206D151F8183C43F0F00041F8180C8D
:10E9CC007047184B984206D153F82C2C42F47061C6
:10E9DC0043F82C1C70471449884206D151F8403C2E
:10E9EC0043F4704041F8400C7047104B984205D1ED
:10E9FC0053F8542C42F4702143F8541C704700BF58
:10EA0C00080002401C00024030000240440002405A
:10EA1C00580002406C000240800002400804024092
:10EA2C001C040240300402404404024058040240DA
:10EA3C0070B506688C680D6A26F4FF4222F07006E9
:10EA4C000A6945EA04034C6913438A692343CC6978
:10EA5C0013431C434B6A44EA03028B6A1A43324346
:10EA6C000260CB680A68496843608260C16070BD0F
:10EA7C0019B1016841F0010303E002684FF6FE731F
:10EA8C0013400360704703680AB1194301E023EA9D
:10EA9C00010101607047406880B27047C3004CBFF1
:10EAAC00034B044B196801420CBF00200120704736
:10EABC000004024000000240C2004CBF014B024B5C
:10EACC00586070470004024000000240837910B582
:10EADC00002B29D01A4B01681C68CA4314401C60D7
:10EAEC005C6822405A60027902F1804404F582325B
:10EAFC0014682143116002689C68D1430C409C60EF
:10EB0C00DC68407921401028D96006D19868104300
:10EB1C009860D9680A43DA6010BD00F1804303F5B0
:10EB2C00823319680A4308E00179006801F18042D8
:10EB3C0002F582331A6822EA00021A6010BD00BF87
:10EB4C0000040140014B5861704700BF00040140B4
:10EB5C00064B1A68596910EA010304D010420CBF25
:10EB6C000020012070471846704700BF0004014088
:10EB7C00014B5861704700BF00040140034A044B2D
:10EB8C0002F188305A605860704700BF2301674516
:10EB9C0000200240024B1A6942F080001861704755
:10EBAC0000200240014BD860704700BF002002409B
:10EBBC00084BDA68D20709D4D868400708D4D9685A
:10EBCC0011F0100F0CBF0420032070470120704778
:10EBDC00022070470020024010B50446FFF7E8FF02
:10EBEC00012806D11CB1FFF7E3FF013CF8E7052033
:10EBFC0010BD002C08BF052010BD000070B50546E7
:10EC0C004FF400500E46FFF7E7FF04280ED1084CD6
:10EC1C00236943F0010020612E804FF40050FFF770
:10EC2C00DBFF226941F6FE711140216170BD00BF0E
:10EC3C000020024038B505464FF43020FFF7CCFFDA
:10EC4C00042812D1094C236943F00200206165614C
:10EC5C0021694FF4302041F040022261FFF7BCFFE4
:10EC6C00216941F6FD730B40236138BD0020024041
:10EC7C00CB78F0B5DA0648BF8A78098803F00F051F
:10EC8C0048BF154311F0FF0F1ED004680022012766
:10EC9C0007FA02F707EA0106BE4211D197004FF0BE
:10ECAC000F0C0CFA07FC05FA07F724EA0C04282BC6
:10ECBC0044EA070401D1466102E0482B08BF066113
:10ECCC000132082AE3D10460FF2920D944680022CC
:10ECDC0002F10806012707FA06F707EA0106BE4209
:10ECEC0011D197004FF00F0C0CFA07FC05FA07F73F
:10ECFC0024EA0C04282B44EA070401D1466102E003
:10ED0C00482B08BF06610132082AE1D14460F0BDEE
:10ED1C00836819420CBF00200120704701617047C5
:10ED2C004161704701F0030230B592000F2404FAE0
:10ED3C0002F400FA02F0074B8908023153F8215013
:10ED4C0025EA040443F8214053F82140044343F8D6
:10ED5C00214030BD00000140014B1860704700BFDE
:10ED6C0000300040014B5860704700BF003000403D
:10ED7C00014B9860704700BF00300040024B4AF6D0
:10ED8C00AA221A60704700BF00300040024B4CF6BC
:10ED9C00CC421A60704700BF00300040014B186035
:10EDAC00704700BF20000E42014B1860704700BF37
:10EDBC00D80042421D4B10B55A6802F00C010429D0
:10EDCC0001D0082902D01A4A02600EE05C6859682A
:10EDDC00C4F38342941CC90302D55B689B0301D521
:10EDEC00144900E012494C430460104A124B546819
:10EDFC00C4F303115C5C016821FA04F141605468AE
:10EE0C00C4F302241C5D21FA04F484605468C4F336
:10EE1C00C2241C5D21FA04F1C1605268C2F3813234
:10EE2C009B181A7CB1FBF2F1016110BD001002407D
:10EE3C0000127A0000093D0064030020044B5A695B
:10EE4C0009B1104301E022EA00005861704700BF8D
:10EE5C0000100240044B9A6909B1104301E022EA08
:10EE6C0000009861704700BF00100240044BDA6943
:10EE7C0009B1104301E022EA0000D861704700BFDD
:10EE8C00001002404309012B074A01D1136803E02B
:10EE9C00022B0CBF136A536A00F01F0023FA00F117
:10EEAC0001F00100704700BF00100240024B5A6A8B
:10EEBC0042F080705862704700100240034B9888F3
:10EECC0000F020018AB2002AF8D0704700280040D8
:10EEDC00074B9A881B8891B210EA030206D00840AF
:10EEEC0010F0FF0F0CBF0020012070471046704738
:10EEFC0000280040034B9A8891B221EA00009880C8
:10EF0C00704700BF002800400B8810B54C88028861
:10EF1C0023438C8802F441522343CC8823430C892D
:10EF2C0023434C8923438C892343CC89098A23436B
:10EF3C001A4393B20380828B22F400631A04130CDD
:10EF4C008383018210BD038819B199B241F040034B
:10EF5C0003E023F040010A04130C03807047818105
:10EF6C007047808980B27047038919420CBF00201A
:10EF7C0001207047224A038890429BB212D002F5BE
:10EF8C00006290420ED0B0F1804F0BD0A2F59832B7
:10EF9C00904207D002F58062904203D002F5806265
:10EFAC00904203D14A8823F070031343154A9042D0
:10EFBC0008D002F58062904204D023F44073CA88D2
:10EFCC009BB2134303808B880A8883850C4B028584
:10EFDC0098420FD003F5006290420BD002F54063CB
:10EFEC00984207D003F58062904203D002F580630B
:10EFFC00984201D1097A018601228282704700BFB2
:10F00C00002C014000100040038C70B523F001026D
:10F01C001404250C0584068C8388028B9CB222F088
:10F02C0073052B040D881A0C26F0020633042A43B0
:10F03C004E880D891B0C3543ADB22B43134DA842A2
:10F04C000FD005F50065A8420BD005F54065A84228
:10F05C0007D005F58065A84203D005F58065A84268
:10F06C000ED123F008064B898D881E4326F004032D
:10F07C002B43CE898D8924F440743543ADB22C4397
:10F08C00C988848002838186038470BD002C014072
:10F09C00038C30B523F010021404250C0584038C6A
:10F0AC008288048B23F0200324F4E6452C040D887D
:10F0BC00240C44EA05241D042B0C0D8992B243EA5E
:10F0CC0005134D88A4B243EA0513124D9BB2A84216
:10F0DC0003D005F50065A84215D14D8923F08003B6
:10F0EC009BB243EA05134FF6BF751D408B8822F483
:10F0FC00406245EA0315ABB28D8942EA8502CD899F
:10F10C0042EA850292B2C988828004830187038413
:10F11C0030BD00BF002C0140038C30B523F480724D
:10F12C001404250C0584038C8288848B23F40073CF
:10F13C0024F073052C040D88240C2C431D042B0C7B
:10F14C000D8992B243EA05234D8843EA0523124DFB
:10F15C009BB2A84203D005F50065A84215D14D8994
:10F16C0023F400639BB243EA05234FF6FF351D40A1
:10F17C008B8822F4405245EA0325ABB28D8942EAD2
:10F18C000512CD8942EA051292B2C9888280848325
:10F19C008187038430BD00BF002C0140038C30B547
:10F1AC0023F480521404250C0584038C8288858BEF
:10F1BC0094B225F4E64215042A0C0D8823F400536E
:10F1CC0042EA05221D042B0C0D8992B243EA053349
:10F1DC004D8843EA05330A4D9BB2A84203D005F58E
:10F1EC000065A84205D18D8924F4804444EA851435
:10F1FC00A4B2C98884808283A0F84010038430BDF7
:10F20C00002C014000214FF6FF7383800180C180E8
:10F21C004180017270470023038043808380C38048
:10F22C00038143818381C3817047038819B199B2EB
:10F23C0041F0010303E023F001010A04130C0380E5
:10F24C007047B0F8443029B16FEA43436FEA534139
:10F25C008AB201E059044A0CA0F844207047838913
:10F26C009BB20AB1194301E023EA01018181704785
:10F27C00038819B199B241F0800303E023F08001B7
:10F28C000A04130C03807047038B23F00802130449
:10F29C001A0C114301837047038B23F4006213048F
:10F2AC001A0C42EA01218BB203837047838B23F043
:10F2BC00080213041A0C114381837047838B23F4C7
:10F2CC00006213041A0C42EA01218BB2838370474B
:10F2DC00038A828911EA030092B203D011420CBF57
:10F2EC00002001207047C9438AB202827047000097
:10F2FC00038A30B50D460446EA8898B220F4405192
:10F30C0011432182A3892889A98823F4B05340EAA8
:10F31C000102688923F00C0102430804030C1A4310
:10F32C0091B2A181A08AAA8983B223F4407187B0DB
:10F33C001143A18201A8FFF73DFD1848A38984421F
:10F34C000CBF0498039819B200294FF019032A68CE
:10F35C0003FB00F001DA510000E09100B0FBF1F189
:10F36C006423B1FBF3F21201100903FB1011A08905
:10F37C0000B2002806DAC9003231B1FBF3F303F016
:10F38C00070005E009013231B1FBF3F303F00F0084
:10F39C00024390B2208107B030BD00BF003801405D
:10F3AC00838919B199B241F4005303E023F400515D
:10F3BC000A04130C83817047C905CA0D82807047FB
:10F3CC008088C105C80D7047038819420CBF002006
:10F3DC000120704743185A78405C00EB022188B238
:10F3EC0070470000800040002000100008000080E2
:10F3FC000040002008000000080000000800000089
:10F40C0008000000080000000400000004000000D8
:10F41C0004000000040000000400000004000000D0
:10F42C0004000000002000010002000401000000A4
:10F43C0002000000040000000800000000000000B2
:10F44C0004000000080000003203530054004D007B
:10F45C003300320020005600690072007400750001
:10F46C0061006C00200043004F004D002000500054
:10F47C006F0072007400200020002603530054001B
:10F48C004D006900630072006F0065006C00650040
:10F49C006300740072006F006E00690063007300FB
:10F4AC000403090409024300020100C032090400EC
:10F4BC0000010202010005240010010524010001D5
:10F4CC00042402020524060001070582030800FF3C
:10F4DC0009040100020A00000007050302400000B5
:10F4EC000705810240000012010002020000408367
:10F4FC0004405700020102030130313233343536F7
:10F50C00373839414243444546004552524F523AEE
:10F51C002057656972642070696E2076616C756520
:10F52C000A0042544E20444F574E0A00414C495653
:10F53C00450A004F4B2050494E200A004F4B204C9F
:10F54C004544200A005468652074696D6520697310
:10F55C003A0049443A003A454E44004855483A204E
:04F56C00000D0A0084
:10F570000A0000000B0000000C0000000D0000005D
:10F580000E0000000F00000010000000110000003D
:10F590000000000001000000020000000B0000005D
:10F5A000070000000000FF0000FF0000FF00000057
:10F5B00000FFFF00FFFF0000FF00FF00FFFFFF0054
:10F5C000C409000064000000300000003F0000009B
:10F5D000410000004900000032000000030000006C
:10F5E00000000000000C0140000C0140000C014034
:10F5F000000C0140000C01400008014000080140DF
:10F6000000080140000801400008014000080140D6
:10F61000000801400C004800000C01400000000000
:10F6200080250000FFFFFFFFFFFF54545443433386
:10F630003030300048494748204420004C4F572084
:10F640004420003031323334353637383900000049
:10F65000000C01408000FF00000800400400FF0093
:10F66000000C01404000FF00000800400000FF00C7
:10F67000000C01402000FF0000000000FF00FF0020
:10F68000000C01401000FF0000000000FF00FF0020
:10F69000000C01400800FF0000000000FF00FF0018
:10F6A000000801400080FF0000000000FF00FF0094
:10F6B000000801400040FF0000000000FF00FF00C4
:10F6C000000801400020FF0000000000FF00FF00D4
:10F6D000000801400001FF0000000000FF00FF00E3
:10F6E000000801400002FF0000000000FF00FF00D2
:10F6F0000008014001000000000000400000FF0081
:10F700000008014002000100000000400400FF006A
:10F71000000801401000040000000000FF00FF008E
:10F72000000801402000050000000000FF00FF006D
:10F730000008014040000600000400400000FF00F7
:10F740000008014080000700000400400400FF00A2
:10F75000000C014001000800000400400800FF0008
:10F76000000C014002000900000400400C00FF00F2
:10F770000008014008000300000000400C00FF00EA
:10F780000008014004000200000000400800FF00E3
:10F79000000801400004FF0000000000FF00FF001F
:10F7A000FFFF010075D4000849D3000821D30008E9
:10F7B00039D30008DDD20008F9D200080DD30008C3
:10F7C00099D30008D9D2000895D3000891D3000836
:10F7D00065D3000869D300087DD3000800A24A045D
:10F7E00000000000000000000102030406070809F1
:10F7F0001A03530054004D00330032000000000093
:10F800000000000000000000000000003DE40008CF
:10F810003DE40008A1D800083DE400083DE40008EC
:10F820003DE400083DE400083DD800083DE4000840
:10F830003DE400083DE400083DE400083DE4000824
:10F840003DE4000800C2010000000800ACF400081C
:10F850000400000086F400082600000054F40008AC
:10F8600032000000800200201A000000B0F40008FE
:10F8700043000000F3F400081200000091DB0008D0
:10F88000B1DA0008A1D90008B5D90008B9D9000833
:10F8900015DA000839DA0008A5DA000899DA000854
:10F8A00079DA000800000000400000003DE4000894
:10F8B0007DD900083DE400083DE400083DE400086F
:10F8C0003DE400083DE400083DE4000895D9000847
:10F8D000040100000000000001020304010203040F
:08F8E0000607080902040608EE
:040000050800C10C22
:00000001FF
