:020000040800F2
:1050000000500020C56A0008B9630008BB630008AF
:10501000BD630008BF630008C16300080000000012
:10502000000000000000000000000000C563000850
:10503000D963000800000000DD6300083564000843
:10504000156B0008156B0008156B00084D6600080D
:10505000156B0008156B000889640008A964000836
:10506000C9640008FD6400081D650008156B000890
:10507000156B0008156B0008156B0008A966000881
:10508000156B0008156B000839640008156B0008E3
:10509000AD660008156B0008156B00083D6500083B
:1050A000156B0008156B0008156B000805660008F5
:1050B000156B0008156B0008156B00085964000893
:1050C00069640008156B0008156B00087964000816
:1050D000156B0008156B000849640008156B000883
:1050E0008D65000869660008156B00080000000067
:1050F00000000000000000000000000000000000B0
:0C51000000000000000000005FF808F153
:1051100070B5012188B0044601F074F8A0F13005A3
:10512000072D37D803226846214601F093F81C4921
:1051300004A801F007F8204604A901F051F806463A
:1051400004A800F0BDFF1EB1ADB22846002110E05A
:10515000144904A800F0F6FF204604A901F040F825
:10516000044604A800F0ACFF74B10A35ADB228467D
:10517000314600F0BFFB684601F073F8C1B2284623
:1051800000F054FD012401E04FF0FF34684600F0C8
:1051900097FF01E04FF0FF34204608B070BD00BF1C
:1051A000B8A90008BAA900087FB50121054601F099
:1051B00029F8A0F13004072C02D94FF0FF3023E08A
:1051C0001249684600F0BEFF2846694601F008F81B
:1051D0000646684600F074FF76B90D49684600F04F
:1051E000B1FF2846694600F0FBFF0546684600F01F
:1051F00067FF002DE1D00A34A4B22046012100F05F
:1052000079FB204600F0B8FC04B070BDB8A90008D6
:10521000BAA90008F0B5012185B0044600F0F2FFFC
:10522000A0F13006072E02D94FF0FF3049E0684662
:1052300021460322072300F0E7FF6846224900F0D9
:10524000A5FF0546684600F03BFF7DB9684621464C
:105250000322062300F0D8FF68461C4900F096FFA1
:105260000746684600F02CFF0FB9DDE70125184915
:10527000684600F067FF2046694600F0B1FF074628
:10528000684600F01DFF1FB1B6B23046002111E0A4
:105290001049684600F056FF2046694600F0A0FF1E
:1052A0000446684600F00CFF002CBDD00A36B6B2AA
:1052B0003046394600F01EFB3046294600F09EFB82
:1052C000012005B0F0BD00BFBCA90008C1A90008BD
:1052D000B8A90008BAA900087FB50121054600F069
:1052E00091FFA0F13004072C02D94FF0FF3023E0EA
:1052F0001249684600F026FF2846694600F070FF14
:105300000646684600F0DCFE76B90D49684600F0B6
:1053100019FF2846694600F063FF0546684600F01D
:10532000CFFE002DE1D00A34A4B22046032100F0C4
:10533000E1FA204600F0AAFB04B070BDB8A900084D
:10534000BAA9000808B50948094900F041FA094816
:10535000094900F03DFA0948094900F039FA0948BD
:105360000949BDE8084000F033BA00BFC5A90008EC
:10537000D9520008D1A9000815520008DEA900087A
:10538000A9510008E9A90008115100087047000060
:1053900007B5002100910A460B46024800F0DCFDEB
:1053A0000EBD00BFF80A002010B501310023934262
:1053B0000ED0040F092C01D8303400E0373401F846
:1053C000014C01330024000101F8024BDBB2EEE78F
:1053D00010BD10B50121044601F0DCFD642000F091
:1053E000F1FC2046002101F0D5FD6420BDE810400D
:1053F00000F0E8BC08B50B4B0BB1FFF7A3FF012091
:10540000FFF7E7FF084801780029F8D1074A137829
:10541000002BF4D1064808B1FFF7B8FF00F050FAAE
:10542000EDE700BF455300081A1C0020A825002006
:105430008D53000810B54FF000604FF4A04102F00A
:1054400043FB254B01212548197002F0A9FD02F00C
:1054500017F80022224C0021A1540132B2F5407FFE
:10546000F8D1204B4FF08070C4F8FC02C4F8F83239
:10547000C4F8F412C4F8E01204F53071C4F8001353
:10548000194CF02284F82220E27701F0D1FC0121AE
:10549000402002F047FE6FF07F4001F029FEE72038
:1054A00001F096FE11480124047001F0F1FC7D200A
:1054B00002F068FE18B10E4B1C7002F077FE40F649
:1054C000B83001F04DFD02F03FF902F09BF90020E9
:1054D000FFF77FFFFBE700BF9E1C002000043000A9
:1054E000000B0020F553000800ED00E01B1C00201D
:1054F000A82500202C4B2D49D3F8042370B5501C4F
:10550000C3F804030B6813B10A68501E08602849E9
:105510000B7823B1274BE3B100F0A8F919E0264C32
:10552000226812B121684B1E12E02448017881B92B
:10553000234B1A786AB92348017851B9224E234D7A
:105540003378D3B1E72001F09BFE287898B114237B
:1055500023601F480268B2F57A7F04D300220260FC
:1055600002F07CFD02E001684B1C036019494FF01A
:105570008050086070BD0123EAE72A784AB14FF6EF
:10558000FF7001F0B5FDE72001F022FE012232702C
:10559000DFE7E72001F042FE0F48017809B132232E
:1055A000D6E76423D4E700BF000B0020B425002019
:1055B000981C00206D580008AC250020161C002007
:1055C0001A1C00201C1C00201B1C0020191C002081
:1055D000B825002004ED00E0181C0020084B1868D6
:1055E00005280BD1074991F80823012A06D191F823
:1055F0000A0391F80C33C11AC8B2704700207047F3
:10560000B81C0020000B0020114B10B518680528AD
:105610001AD1104C94F80813012915D1B4F80A23B3
:10562000B4F80C33D01A012805D10021032084F8E6
:10563000081303F0AAFDB4F80C33E218591C92F8D1
:105640000E03A4F80C1310BD4FF0FF3010BD00BFC7
:10565000B81C0020000B0020094B196805290ED149
:10566000084BD3F85023991881F85403501CB0F517
:10567000807FC3F8500302D10022C3F85023704743
:10568000B81C0020000B002070B5234A92F8543457
:10569000012B40D0D2F85804B0F5807F02D1002110
:1056A000C2F85814D2F85834D2F850231A4893420A
:1056B00003D1002180F8541470BD8CBFC3F58072F3
:1056C000C3EB0202144CC0F85C24D4F85C5499B2C9
:1056D000402D07D94033403DC4F85834C4F85C54D9
:1056E000402606E0E8180023AEB2C4F85804C4F817
:1056F0005C340A4A01255018C021324684F85454BB
:1057000003F0BAFC2846314603F0C0FD2846BDE848
:10571000704003F029BD70BD000B0020540E002026
:10572000094B10B593E814000833186810180AD014
:1057300008220649FFF738FE054920460422BDE845
:105740001040FFF731BE10BDE8F7FF1F6A010020CF
:105750007A01002038B50D460446AC4203D254F815
:10576000043B9847F9E738BD08B507480749FFF7F4
:10577000F1FF07480749FFF7EDFF07480749BDE874
:105780000840FFF7E7BF00BF08AB000808AB000800
:1057900008AB000850AB000850AB000850AB000845
:1057A000FEE70000054A08B5136805491818884245
:1057B000106001D903F0E2FD184608BD000000208A
:1057C000004800204FF0FF30704701207047000074
:1057D0002DE9F84F04468946002941D000283FD0E2
:1057E000204B1D68042D3BD00027AF421E4E4FF0CA
:1057F00058080FDA08FB07F856F80810494507D192
:1058000006EB0802101D21460C2204F0C5FE38B339
:105810000137EAE708FB05F8A6F1040A0AEB0807D6
:1058200008F11000C7F8049000214022301804F05D
:105830003FFA06EB0801081D0C22002104F038FA9B
:105840002068616807F1080203C2A36800200135DF
:1058500007F1040B87F858001360543746F8045CCE
:10586000BDE8F88F640F0020680F002038B5114C98
:10587000D4F8005B2DB1D4F8001B4B1EC4F8003BDC
:1058800038BDD4F8043B0C4A52F8230001F056FC12
:10589000E72001F09DFC094A6420D4F8041BC4F8F9
:1058A000000B10684B1C8342C4F8043BA8BFC4F82B
:1058B000045B38BD640F002004A800080400002029
:1058C000084B0022D3F8401203F511738A4208DA1C
:1058D00093F8500010B1002083F85000013251338A
:1058E000F4E77047640F0020014803F036BD00BFA5
:1058F0009C12002014282DE9F34104460E4675D869
:10590000FF2973D000F0BCFB28B10D2C6ED00F2CFA
:105910006CD00E2C6AD000F0D1FA08B1012C65D9F8
:1059200000F0F8FC18B1A4F11203012B5ED9304D40
:1059300020012F582F492A188F42B2F8048001D134
:10594000042003E02C4B9F4203D10820012102F0E8
:10595000F5FBADF80480062E44D8DFE806F004110C
:10596000181F26313C00224A102302EB04140320A6
:105970000021A1738DF807308DF80600083431E05E
:1059800004218DF8071005EB0414012229E04822B8
:105990008DF8072005EB0414022222E028208DF860
:1059A000070005EB041403221BE0114B182203210E
:1059B0008DF807208DF8061003EB0414042210E084
:1059C0000B481C2103238DF807108DF8063000EBDF
:1059D0000414052205E000208DF8070005EB0414EF
:1059E0000622A273384601A902F080FABDE8FC81C4
:1059F0001400002000080140000C0140142870B57C
:105A000004460E463ED8204B03EB0010817B012953
:105A100038D0022936D0032934D0062932D0FF29C4
:105A200030D000F02DFB30B10D2C2BD00F2C29D015
:105A30000E2C00D170BD00F041FA10B1012C00D83D
:105A400070BD00F067FC20B1A4F11202012A00D859
:105A500070BD0D4D05EB0413987B042803D120463F
:105A60000021FFF747FF012E05D1240128192959EC
:105A700083880B6170BD2EB9240129192B598A889E
:105A80005A6170BD70BD00BF14000020142810B50D
:105A9000044602D94FF0FF3010BD1A4B03EB001043
:105AA000817B0029F6D0FF29F4D000F0E9FA28B173
:105AB0000D2CEFD00F2CEDD00E2CEBD000F0FEF91A
:105AC00008B1012CE6D900F025FC18B1A4F11202AE
:105AD000012ADFD90B4B03EB0410817B062908D187
:105AE00093F850114A1ED3B2FD2BD3D82046FFF7AE
:105AF00001FF0448240101198988005902F046FA7F
:105B000010BD00BF1400002010B54FF4004086B057
:105B100002F0E0FA01214FF4007002F00FFB15488B
:105B200001F0DCFF012400234FF46022114801A999
:105B300001938DF808308DF80930039204938DF8A5
:105B4000144001F0F9FF0B48214602F019F809480A
:105B500002F01FF8074802F021F80028FAD10548A2
:105B600002F020F8034802F022F80028FAD106B02B
:105B700010BD00BF00240140092838B5044601D8F3
:105B80000A34A4B200F07CFA40B10D2C02D14FF0DF
:105B9000FF3038BD0F2CFAD00E2CF8D000F08EF963
:105BA00000F0B8FB18B1A4F11203012BEFD9142CAB
:105BB000EDD81C4D05EB04108279FF2AE7D095F84B
:105BC0005111914206D0837B0621204685F8503141
:105BD000FFF790FE95F85251012D05D1FFF794FF84
:105BE000104A002082F852010E4D05EB0414A179F1
:105BF00095F851318B4207D00B480122002301F068
:105C0000E3FFA17985F851110748012101F0D3FF85
:105C10000548022102F028F80028F9D0024802F0D5
:105C200020F838BD14000020002401402DE9F04187
:105C3000142888B004460D4600F2A780544B03EBAD
:105C400000108168002900F0A08000F019FA40B12E
:105C50000D2C00F09A800F2C00F097800E2C00F095
:105C6000948000F02BF910B1012C40F28E8000F0EE
:105C700051FB20B1A4F11202012A40F28680444B6C
:105C800003EB0410817B09B104297ED1414E424AC5
:105C900037684BF680316943B7FBF2F3581EFF2596
:105CA00086B2012091FBF5F7014602F047FA042184
:105CB0002046FFF71FFE364ABFB202EB0413996875
:105CC000B1F1804F02D10120014608E0334D02209E
:105CD000A94203D03248814203D10420012102F0BD
:105CE00039FA2B4B4BF67F3203EB0415ADF8046009
:105CF000A868002601A9ADF80A60ADF80660ADF805
:105D0000082002F0F9FAADF81860AE896021012090
:105D100005F10808ADF81010ADF81200ADF81670D6
:105D200046B9A86804A902F031FBA868082102F06E
:105D30006DFC1FE0042E08D1A86804A902F06AFBDC
:105D4000A868082102F06AFC14E0082E08D1A868AF
:105D500004A902F0A3FBA868314602F069FC09E03F
:105D60000C2E07D1A86804A902F0DAFBA868082164
:105D700002F066FC064A012102EB0414A06802F05E
:105D800039FCA068012102F012FC08B0BDE8F081E6
:105D900014000020A002002000366E010004004024
:105DA000000800400549064B0A6858684FF47A73AA
:105DB000B2FBF3F1B0FBF1F0704700BFA00200208E
:105DC000001000E010B50446FFF7ECFF0419FFF7E0
:105DD000E9FF8442FBD810BD07B5002100910A46B7
:105DE0000B46024800F0B8F80EBD00BF881A00202C
:105DF000024B18785978401A704700BF901A00205B
:105E0000064B5A781978914204D998180132807853
:105E10005A7070474FF0FF30704700BF901A002053
:105E2000054B5A781978914202D9981880787047B2
:105E30004FF0FF30704700BF901A002070470000FD
:105E4000F8B5094B054693F82200164650B10C46AA
:105E50008F18BC4206D0296828460A6814F8011B2E
:105E60009047F6E73046F8BD901A002010B50C4B6D
:105E7000012293F822408CB193F823401F2C02D9C1
:105E80004260002010BD93F824001C1884F82510EF
:105E9000411CC8B283F8240083F82300104610BDCB
:105EA000901A002000224260024A4FF47A71816009
:105EB0000260704738A8000870477047014B93F89C
:105EC00059007047901A002013B5084C002100912A
:105ED00004F164000A460B4600F03EF804F16C0041
:105EE00002B0BDE81040FFF7DDBF00BF901A0020F0
:105EF00008B5034B53F8200000B1804708BD00BF30
:105F00000C1B002007B5002100910A460B460248F1
:105F100000F022F80EBD00BF4C1B00202DE9F0411F
:105F2000002407460E4625463B1919790A223046B9
:105F300000F08CF82E218046304600F055F80134F0
:105F40004044032C0544EFD13046F9790A2200F091
:105F50007DF82818BDE8F08130B58371044D9DF8B7
:105F60000C300446056001714271C37130BD00BF41
:105F700058A80008044B054A00201A60187158718F
:105F80009871D871704700BF541B002058A80008B2
:105F900007B5002100910A460B460248FFF7DCFFD7
:105FA0000EBD00BF5C1B0020F8B506460C468F18DE
:105FB0000025BC4207D0336830461A6814F8011B2C
:105FC00090472D18F5E72846F8BD38B505460C462C
:105FD000084641B104F0B0FA2B6802465B682846D7
:105FE0002146984738BD38BD08B503681A68904700
:105FF00008BD70B500238AB08DF82430012A98BFFF
:106000000A220DF12303B1FBF2F505FB1211CCB20C
:10601000092C1E4601D8303400E03734E4B203F8CE
:1060200001492946002DEED13146FFF7CEFF0AB0D7
:1060300070BD10B5044622B90268C9B21268904713
:1060400010BDD2B2BDE81040FFF7D3BFFFF7F1BFDC
:1060500007B5002100910A460B460248FFF77CFF76
:106060000EBD00BF681B002007B5002100910A4645
:106070000B460248FFF770FF0EBD00BF701B0020EB
:10608000014B587D704700BF781B0020704700000F
:1060900007B5002100910A460B460248FFF75CFF56
:1060A0000EBD00BF901B002007B5002100910A46DD
:1060B0000B460248FFF750FF0EBD00BF9C1B00209F
:1060C00010B50446006803F07BFA204610BD10B5F9
:1060D0000446006808B103F073FA00232360A3604C
:1060E000636010BD38B504460D460068013103F009
:1060F00079FE10B184E82100012038BD036810B595
:10610000044613B14068884207D22046FFF7EAFFF1
:1061100020B1A16809B922681170012010BD70B5C5
:106120000E46114604461546FFF7E8FF18B920460B
:10613000FFF7CDFF04E0A5602068314604F09EF92A
:10614000204670BD38B50023044603604360836079
:1061500003730D4639B1084604F0EEF929460246AC
:106160002046FFF7DCFF204638BD38B505460C4613
:1061700041B1084604F0E0F9214602462846FFF7FF
:10618000CEFF01E0FFF7A3FF284638BD826808B5BF
:106190000B4612B919B9012008BD11B90368187866
:1061A00002E0006804F07CF8D0F1010038BF002064
:1061B00008BD10B58B688468E41AA2420CD8006848
:1061C00068B1096851B180181A4604F0E5F9D0F1B8
:1061D000010038BF002010BD002010BD084610BDD2
:1061E00082688B689A4202D30022FFF7E2BF002048
:1061F00070478368994203D2006810B1405C7047D1
:1062000000207047FFF7F5BF9A422DE9F04107469D
:106210000D4614461E4601D93446164638460C49EA
:10622000FFF790FFA86884420FD82968864228BFEC
:106230000646002211F806808A552B68384619193F
:10624000FFF793FF286800F806803846BDE8F08124
:10625000BBA9000810B58B680446FFF7D5FF2046A0
:1062600010BD006808B103F091B8704707B5002170
:1062700000910A460B460248FFF76EFE0EBD00BFB6
:10628000A41B002007B5002100910A460B460248D6
:10629000FFF762FE0EBD00BFAC1B002007B500215A
:1062A00000910A460B460248FFF756FE0EBD00BF9E
:1062B000B41B00204FF0FF307047704708B5054809
:1062C00002F0D7F90348802102F0DBF90028F9D069
:1062D000012008BD00440040202108B5034802F019
:1062E000D0F9003018BF012008BD00BF00440040B5
:1062F00008B5024802F0C1F908BD00BF00440040E3
:1063000000224260024A4FF47A7181600260704755
:1063100068A80008014B187C704700BFBC1B002018
:1063200013B5084C0021009104F114000A460B46F5
:10633000FFF712FE04F11C0002B0BDE81040FFF7A9
:10634000DFBF00BFBC1B002070474FF0FF3070471D
:10635000084608B5FFF780F9012008BD08B5FFF72A
:106360003DF908BDFFF750B900224260024A4FF4E0
:106370007A7181600260704788A8000813B5074CE5
:106380000021009120460A460B46FFF7E5FD04F187
:10639000080002B0BDE81040FFF7E6BFE81B002090
:1063A00007B5002100910A460B460248FFF7D4FDCD
:1063B0000EBD00BF6C1C00207047FEE7FEE7FEE745
:1063C000FEE700000349086880F309884EF0040ED8
:1063D00070477047000E00207047000072B61348E7
:1063E00013491EF0040F0CBFEFF3088CEFF3098C78
:1063F0002CE9F00F1EF0040F0CBFC0F800C0C1F86C
:1064000000C01EF0040F0CBFD1F800C0D0F800C0CF
:10641000BCE8F00F1EF0040F0CBF8CF309888CF35E
:10642000088862B68EF0040E70470000600F0020EE
:10643000000E0020FFF75EB808B5024B0BB1AFF3BA
:10644000008008BD0000000008B5024B0BB1AFF39F
:10645000008008BD0000000008B5024B0BB1FFF73B
:106460002BFD08BDB95E000808B5024B0BB1FFF764
:1064700024FD08BDBB5E000808B5024B0BB1FFF759
:1064800005FE08BD8D60000808B5012001F018FD6B
:1064900038B1012001F024FD024B13B10020FFF7B9
:1064A00027FD08BDF15E000808B5022001F008FDD7
:1064B00038B1022001F014FD024B13B10120FFF7A7
:1064C00017FD08BDF15E000808B5042001F0F8FCD6
:1064D00078B1042001F004FD0020064B014618802D
:1064E00000F05CFF044810210122BDE8084002F0E2
:1064F00078B808BD9A1C0020002C014008B508207F
:1065000001F0DEFC38B1082001F0EAFC024B13B1C7
:106510000320FFF7EDFC08BDF15E000808B5102070
:1065200001F0CEFC38B1102001F0DAFC024B13B1BF
:106530000420FFF7DDFC08BDF15E000808B520204F
:1065400001F0BEFC38B1202001F0CAFC0E4B13B1A3
:106550000520FFF7CDFC402001F0B2FC38B140200F
:1065600001F0BEFC084810B10620FFF7C1FC8020F6
:1065700001F0A6FC38B1802001F0B2FC024911B153
:106580000720FFF7B5FC08BDF15E000808B54FF421
:10659000005001F095FC40B14FF4005001F0A0FC18
:1065A000174B13B10D20FFF7A3FC4FF4804001F00F
:1065B00087FC40B14FF4804001F092FC104810B1CC
:1065C0000E20FFF795FC4FF4004001F079FC40B13C
:1065D0004FF4004001F084FC094911B10F20FFF78E
:1065E00087FC4FF4006001F06BFC38B14FF40060A1
:1065F00001F076FCBDE8084000F0E2BB08BD00BF3A
:10660000F15E000808B50F48102102F023F8C0B170
:106610000C48102102F029F8002000F06BFF28B987
:10662000094B1A880A3290B2188008BD102105481B
:10663000002201F0D6FF00200121BDE8084000F053
:10664000ADBE08BD002C01409A1C002008B50120F9
:1066500001F000FE30B1012001F00EFEBDE808405F
:1066600001F0DCBD08BD000008B5022001F0F2FD1C
:10667000B0B10C4B00224FF400301A7001F030FC26
:10668000012001F015FD10B1012001F01BFD01F00A
:10669000C5FD022001F0F0FDBDE8084001F0BEBDDF
:1066A00008BD00BF2F1C002000F018BB00F062B82E
:1066B00038B514490B78012B23D1134A13680BB951
:1066C0000B7038BD114C402B206881B205D9403089
:1066D000403B20601360402504E09DB2C3180020B9
:1066E000236010600A4A5018C0212A4602F0C4FCF8
:1066F0000120294602F0CAFD0120BDE8384002F021
:1067000033BD38BD540F00205C0F0020580F00200F
:10671000540E0020094908B50020094B01220880C9
:1067200003201A7002F0DEFD064B02461880064870
:106730004FF48871BDE8084002F0B5BC0C0E002093
:10674000080E00200A0E00200E0E0020074B1868CD
:10675000052809D1064B1A68511C052A196003D176
:1067600000201860FEF790BF704700BFB81C0020E3
:10677000741C00203A4A38B511683A4B88B23A4D39
:1067800018801C882988214001F4007084B244B12B
:106790004FF6FF5515609A78511CC8B29870FFF7F4
:1067A000D5FF304C304B25881A882A4002F400412E
:1067B00088B225461C4608B102F098FB2A88238837
:1067C000134003F4806188B230B1254B27494FF65E
:1067D000FF321A6048688047224A234B11881B8881
:1067E000194001F4005081B219B11D494DF6FF70F6
:1067F00008601288134003F4805398B230B1184AED
:106800004EF6FF711160002001F0DCF8154B1649BF
:1068100018880A88024002F4006398B260B11449F3
:106820000A7812B101F0AEF802E0022001F0CAF8D5
:106830000B4B4FF2FF7018600A490B480A88038817
:10684000134003F480718AB242B1054B4FF6FF60EA
:1068500018600720BDE8384001F0B4B838BD00BF6B
:10686000445C0040781C0020FC250020F40100203E
:10687000B4020020034B987A10B1034905220A6044
:10688000704700BFD8250020B81C0020014B04220F
:106890001A607047B81C0020034B1A78202A01D1D7
:1068A00000201870704700BF7C1C0020704700005B
:1068B000212810B508D111480368197801F07F022A
:1068C000212A11D0022010BD2028FBD10B4B1968C2
:1068D0000A780B4902F07F030A4A212B0CBF0B46B2
:1068E000002310700BB9EDE7074B044C206800241F
:1068F0008361448220469847204610BDF825002039
:10690000596900087C1C002041690008074B196880
:106910000A7802F07F03212B05D1022801D1002043
:1069200070472228FBD00220704700BFF8250020C6
:1069300009B1022070470128FBD8084670470000C3
:1069400020B9034B082219680A8270470148704732
:10695000F8250020BC01002020B9034B082219684B
:106960000A82704701487047F8250020BC010020CA
:10697000054B1968CA78042A04D8044B03EBC201FA
:1069800002F050B800207047F8250020C401002014
:10699000014902F047B800BFE4010020014902F0BC
:1069A00041B800BFEC010020334A344BD17918685C
:1069B00010B5002441728472C472204602F086FB36
:1069C00020464FF4007102F089FB1021204602F0AE
:1069D00091FB4021204602F02DFC8021204602F050
:1069E00019FC204602F0E2FB254B204693F8641088
:1069F00002F05AFC204602F0C8FB0120214602F0BA
:106A00006DFB0120C02102F005FC0120202102F0D5
:106A100071FB0120214602F08AFB02204FF4C06185
:106A200002F05CFB02204FF4807102F0F3FB0220C5
:106A3000214602F07CFB0220202102F05BFB0320B8
:106A4000214602F04BFB03204FF4887102F0F2FB69
:106A50000320402102F028FC03204FF4405102F0B3
:106A600066FB0320214602F045FB204602F0ECF9CC
:106A7000044A0120106010BDFCA80008F825002081
:106A8000BC010020B81C002010B5FEF749FE054BE4
:106A900000241868847200F05DFF02F039FC02499E
:106AA0000C6010BDF8250020B81C002007B500219F
:106AB00000910A460B460248FFF74EFA0EBD00BF92
:106AC000801C0020002100F004B80D4B5B5843509F
:106AD00004310C480C4B42189A42FFF4F6AF0B4AB3
:106AE00000F003B8002342F8043B094B9A42FFF43C
:106AF000F9AF00F0B1FEFEF737FEFEF79BFC7047E2
:106B000050AB000800000020F80A0020F80A00201E
:106B100008260020FFF7FEBF08B572B600F03EFD64
:106B2000034B022218699A6019680530884708BD2E
:106B30008C1D002070B50646322014460D4600F02C
:106B400091F9002000F01AFD012EA4B207D13046C1
:106B50002946224600F0DEFC0020134907E0134BD3
:106B600001201969224600F0D5FC00202946224662
:106B700000F0D0FC0E480221012201F03CF9012076
:106B800000F0FCFC0A4801F03EF90028FAD109485F
:106B900001F039F90028FAD10748802101F0A6FB5D
:106BA0000028F9D170BD00BF4C0200208C1D0020D0
:106BB00058000240440002400038004003460A46A4
:106BC00001201946FFF7B6BF70B5064632201446BD
:106BD0000D4600F047F9002000F0D0FC012EA4B2D1
:106BE00007D130462946224600F094FC0020104987
:106BF00007E0104B01201969224600F08BFC0020B1
:106C00002946224600F086FC012000F0B7FC0A4825
:106C100001F0F9F80028FAD1084801F0F4F800284A
:106C2000FAD10748802101F061FB0028F9D170BD3D
:106C30004C0200208C1D00205800024044000240FD
:106C40000038004003460A4600201946FFF7BCBF43
:106C500070B5184E35696B79022B08D0042B25D1FD
:106C6000287A441E14F0010F18BF044614E0681D72
:106C7000032102F05DFBB0F5806F044608DB05F1EF
:106C80000A004FF480610724FFF798FFB4600EE01C
:106C9000C30701D4441C00E024B105F10A00A1B2ED
:106CA000FFF78CFF034908228A6000E00024204699
:106CB00070BD00BF8C1D0020024B012019690A2203
:106CC000FFF738BF8C1D002008B5FFF7C1FF18B9CA
:106CD000BDE80840FFF720BF08BD000070B5364C86
:106CE0004FF40030266901F091F805464FF400504A
:106CF00001F08CF8A368062B0BD1002D5BD0002887
:106D000059D04FF4083001F08FF8BDE87040FFF71C
:106D1000DBBFA16807291BD100284CD04FF40830F5
:106D200001F082F80321701D02F002FBA0F58064DF
:106D3000A1B2214CCA0758BFA0F2FF31206958BF49
:106D400089B200F20A40FFF739FF0823A36070BD43
:106D5000A268082A09D100282DD04FF4083001F08C
:106D600063F8BDE87040FFF7D7BEA068052811D1D1
:106D7000002D20D01148802101F0B8FA0028F9D167
:106D80004FF4083001F050F800F008FC0A4A0221E4
:106D9000916070BDA368042B0DD165B1A088E26835
:106DA0000521A0F58063A16002F5806099B2BDE87D
:106DB0007040FFF747BF70BD8C1D002000380040B9
:106DC00008B5174BD8698047002827D1154B9A681A
:106DD00012B90120986008BD9968022907D10622DE
:106DE0009A6000F071FCBDE80840FFF765BF9A6843
:106DF000032A13D19A88B2F5806F06D805219960CD
:106E0000D968BDE80840FFF795BE04209860D868AF
:106E10004FF48061BDE80840FFF714BF08BD00BF14
:106E2000381D00208C1D00204FF4407000F00EBE75
:106E3000094B4FF47A701A68084BB2FBF0F14A1E06
:106E40005A60074AF021002082F82310986007203A
:106E5000186082F823107047A002002010E000E0C4
:106E600000ED00E013B50749074B01900C68074996
:106E700001985A68B4FBF1F100FB01205A68904276
:106E8000FCD81CBDA0020020001000E040420F0012
:106E900030B54FF4003085B001F022F808204FF4EF
:106EA0000033002501248DF80D00684402938DF80D
:106EB0000C508DF80E4000F0C1FF032101A88DF8A1
:106EC00004108DF805108DF806508DF8074000F07D
:106ED000C7FD042329220DEB03008DF804208DF853
:106EE00005308DF806508DF8074000F0B9FD0220FE
:106EF00001F0DEF850B1022001F0E4F801F098F959
:106F000024204FF6FF7100F0B5FE27E0242000F0AA
:106F1000BFFE4AF2A551884201D101F0B5F8012027
:106F200001F0E2F8412001F02DF90028FAD04FF4E9
:106F3000807001F0E9F8012001F0EEF801F078F935
:106F400001F06CF90320012101F038F901F066F934
:106F500047F6FF7001F052F901F060F905B030BD5D
:106F600010B5044645F2555001F066F8062001F0D0
:106F700069F842F21070844228BF04462821614318
:106F8000C1F30F2001F064F801F068F8BDE810408B
:106F900001F06CB8082812D8012907D10A4B0B4A16
:106FA00053F8201032F8100008610AE049B9064B86
:106FB000064A53F8201032F81000486101E0FF2320
:106FC00000E0002358B270475402002054A9000882
:106FD00037B50E4D044605EB80031869012101F019
:106FE000ADF835F814000A4B1021ADF804008DF807
:106FF0000710032253F8240001A98DF8062000F0A1
:1070000075FF20460021FFF7C5FF3EBD54A90008CB
:107010005402002070B5012188B04FF4006001F0E7
:107020008DF8314B42F210701C686326B4FBF0F10E
:107030004A1E2E4C01A895B201F0A6FA01A801F053
:10704000A3FA01A9ADF8045020460025ADF8086068
:10705000ADF80A50ADF8065001F04EF904A801F061
:107060009CFA022060230126ADF8180004A92046EE
:10707000ADF81030ADF81260ADF81650ADF81C50F8
:1070800001F084F92046294601F0C0FA204604A9FF
:1070900001F0C0F92046294601F0C0FA204604A9B3
:1070A00001F0FCF92046294601F0C2FA204604A965
:1070B000ADF81050ADF81260ADF81650ADF818509C
:1070C00001F02EFA2046294601F0BAFA2046314650
:1070D00001F090FA2046314601F069FA2046314627
:1070E00001F071FA08B070BDA0020020002C014030
:1070F000104930B58C8DC0F30743A2B2551C5D43D7
:10710000FF22B5FBF2F40C4BA5B29D808C8DC0F331
:107110000725A4B201346C43B4FBF2F4A4B2DC80C2
:10712000898DC0B289B201314843B0FBF2F291B20D
:10713000598030BD002C0140881C0020104930B51A
:107140008C8DC0F30743A2B2551C5D43FF22B5FBF3
:10715000F2F40C4BA5B29D818C8DC0F30725A4B22F
:1071600001346C43B4FBF2F4A4B2DC81898DC0B26B
:1071700089B201314843B0FBF2F291B2598130BD7E
:10718000002C0140881C002037B50F4D044605EB4C
:107190008003186B012105EB440500F0CFFFB5F823
:1071A0004000ADF804000CB9102100E01821074B95
:1071B0008DF8071003EB84040322206A01A98DF8DF
:1071C000062000F093FE3EBD54A9000854020020A2
:1071D00010B1E7281BD105E00D4A4FF40051106AA9
:1071E000016170470B4B0C4A197C39B9988881B200
:1071F0001187D88881B291875B8806E0988981B22F
:107200001187D88981B291875B899BB29386704739
:1072100054020020881C0020002C014010B1E728F7
:1072200027D106E0134B196AC86880F40052CA607F
:107230007047114A114B117C61B9198F90884140F8
:1072400088B21887998FD088414088B29887998EE4
:1072500052880BE0198F9089414088B21887998F26
:10726000D089414088B29887998E52894A4092B21B
:107270009A86704754020020881C0020002C014090
:10728000E7287FD14049414B087C414A48BB898867
:1072900088B208B918700DE0118F88B208B90120C2
:1072A00007E0118F928D88B291B24A1C904201D1B1
:1072B000FF201870344B3748D98889B269B1344AF5
:1072C000938F99B209B9012107E0938F928D99B2FA
:1072D00093B25A1C914201D1FF2101702A48438880
:1072E00028E0898988B208B918700DE0118F88B23A
:1072F00008B9012007E0118F928D88B291B24A1C23
:10730000904201D1FF2018701F4B2248D98989B2C1
:1073100069B11F4A938F99B209B9012107E0938F90
:10732000928D99B293B25A1C914201D1FF21017002
:107330001548438998B2184B68B1154A918E88B2A6
:1073400008B9012007E0918E928D88B291B24A1C53
:10735000904201D1FF2018700D4B0C491A8F91F902
:107360000000821891B20B4A198792F90010988F89
:10737000081882B208499A8791F90020988E10184F
:1073800081B29986704700BF881C0020C02500206C
:10739000002C0140B0250020A025002073B5104C22
:1073A0000E4604EB400494F84C10054694F848004F
:1073B00000F028FEB4F85040204600F07BFD09485C
:1073C0000023451995F83010684600948DF8043074
:1073D0008DF805108DF8066000F030FD7CBD00BF13
:1073E00054A9000854020020F7B5224E8700F31973
:1073F0000546586D0C4640F00100012100F09EFE4C
:107400001D4B06EB45065A1992F83210B6F85C008F
:1074100002AADF198DF8031022F8080D6946786B6F
:1074200000F064FD012C24D11021002213481B27F9
:1074300001F0D7F805238DF8047001A800278DF816
:1074400005308DF806708DF8074000F009FBB6F89E
:10745000601006208DF8050001A88DF804108DF845
:1074600006708DF8074000F0FBFA28462146FFF72A
:1074700095FFFEBD54A9000854020020002C0140D5
:107480001A4B1B49DA6810B542F080700024D860AE
:107490004C600B684FF0C05043F001020A600121BC
:1074A00000F058FE012000F0E9FDFFF7BDFC0120CF
:1074B000014600F043FEE0B20134FFF789FD082CDD
:1074C000F9D1FFF7A7FD0020FFF75EFE0120FFF7CF
:1074D0005BFE0220FFF758FE0320FFF755FE002059
:1074E0000121BDE81040FFF77FBF00BFF0ED00E0D5
:1074F000001000E0054A064B02EB800103EB40025E
:10750000486BB2F85C1000F041BD00BF540200208F
:1075100054A9000870B5044601208CB00E460146FF
:10752000154600F0FFFD124B002080224FF4405121
:10753000012C0193029605900692079008900990FD
:107540000A910B9006D103900A48049500F0B0FB15
:10755000084807E04CB9102307480393049500F04E
:10756000A7FB054801A900F01BFC0CB070BD00BFD3
:107570000C380040440002405800024010B5044658
:107580002146044800F02CFC03482146BDE8104089
:1075900000F026BC440002405800024002484FF46C
:1075A000805100F0F9BC00BF000C014010B50B4C3D
:1075B000238823F0400001040A0C2280FFF7EEFF2D
:1075C000074B188881B2074841F040024FF4007120
:1075D0002280BDE8104000F0E1BC00BF0038004050
:1075E000C2250020000C014002484FF4007100F059
:1075F000D3BC00BF000C014070B5082086B001214B
:1076000000F09CFD2E4C01214FF4804000F0A2FDC3
:1076100018204FF4005301258DF8030069462046D9
:10762000ADF800308DF8025000F060FC4FF40041DE
:10763000ADF800102046694600F058FC04264FF4CF
:10764000804220466946ADF800208DF8036000F0C6
:107650004DFC1020032369464FF400768DF803009B
:1076600020468DF80230A4F55444ADF8006000F0D7
:107670003DFCFFF7B9FF002107202023ADF80410DF
:107680004FF48272ADF80810ADF80A10ADF80C1086
:10769000ADF81210ADF8140001A92046ADF806208F
:1076A000ADF81030ADF80E6000F0F0FD2188054B0C
:1076B0008AB2204629461A8000F007FE06B070BD47
:1076C000000C0140C225002010B50B4C238823F08C
:1076D000400001040A0C2280FFF786FF074B188840
:1076E00081B2074841F040024FF480512280BDE84A
:1076F000104000F053BC00BF00380040C4250020FB
:10770000000C0140014B03221A607047B81C002096
:10771000044B05489A7A0AB1052100E00121016075
:10772000704700BFD8250020B81C002020B10548B4
:107730004FF4806100F032BC02484FF4806100F0E9
:107740002BBC00BF000C0140094B987D70B109496A
:10775000094B0A8809489A870188094AD9871088FD
:107760000849A3F840000A88A3F84220704700BFE8
:10777000881C0020004C000854020020024C000825
:10778000044C0008064C000810B504460A480221C3
:1077900000F0ACFD0028F9D00748214600F0A1FD1B
:1077A0000548012100F0A2FD0028F9D0024800F0B0
:1077B0009AFDC0B210BD00BF0038004070B5FFF7A1
:1077C000F5FE9F20FFF7E0FFFF20FFF7DDFF0446F7
:1077D000FF20FFF7D9FF0546FF20FFF7D5FF2D0259
:1077E0000646FFF701FF45EA0440304370BD08B587
:1077F000FFF7DCFE0420FFF7C7FFBDE80840FFF7F6
:10780000F3BE000008B5FFF7F7FEFFF7F0FFFFF744
:10781000D5FF104B984202D04C3B984219D1FFF74C
:10782000C5FE8020FFF7B0FFFFF7DEFEFFF7BEFECC
:107830005020FFF7A9FFFFF7D7FEFFF7B7FE0120A3
:10784000FFF7A2FF0020FFF79FFFBDE80840FFF70A
:10785000CBBE08BD8D25BF003A4B82B01A6842F0FE
:10786000010018605968384A0A405A60186820F0C8
:10787000847121F480321A60186820F48021196024
:107880005A684FF41F0122F4FE00002258609960EC
:1078900000920192186840F480311960294B1A68EF
:1078A00002F40030019000994A1C0092019818B926
:1078B0000099B1F5A06FF1D11B6813F4003218BF25
:1078C000012201920198012805D0204B4FF000625F
:1078D0009A6002B070471E490B6843F010020A60BC
:1078E000086820F003030B600A68A1F5805342F09A
:1078F00002000860596859605A685A60586840F434
:10790000806159605A6822F47C105860596841F4CB
:10791000E8125A60186840F0807119601868094AC6
:107920008101FBD5536823F003015160506840F09A
:1079300002035360034A516801F00C000828F9D192
:10794000C3E700BF001002400000FFF800ED00E0B8
:107950000020024008B50120FFF7E8FE064B07496A
:10796000012200201A601860086005494FF4E052B7
:107970000A801A6008BD00BF405C0040445C0040C3
:10798000FC250020064B1A6890B240F008011960EF
:107990001A6890B240F004011960FFF7B3BE00BF4F
:1079A000405C004010B5064C4FF6FB732268134054
:1079B0002360FFF7ADFE4FF43F40206010BD00BFD5
:1079C000405C00401F4B072810B518BF18701A788C
:1079D0001C4C052A33D8DFE802F003070C101823EB
:1079E000FFF7E0FF062202E0FFF7DCFF042222702F
:1079F00010BD02215970032022E059784A1ED0B2EE
:107A000058705B78EBB9042017E00F4B186881B20F
:107A100041F010021A600A2005232370607010BD27
:107A20005878411ECAB25A705B7853B906484FF66F
:107A3000EF7201680A4002600620024B00E0062057
:107A4000187010BDC6250020405C004040F0BF60AB
:107A5000024B40F40031D960704700BF00ED00E0F8
:107A6000C37810B503B3164CE168CB43C3F30224CB
:107A70004178C4F1040201FA02F10F2222FA04F261
:107A80008478037822400A43110103F16043CAB2AB
:107A900003F5614181F800230078012200F01F0303
:107AA000410902FA03F007E00078012200F01F0309
:107AB000410902FA03F02031024B43F8210010BDC6
:107AC00000ED00E000E100E021F0604121F07F02E4
:107AD000014B10439860704700ED00E008B5134B70
:107AE000984207D14FF40070012100F03FFB4FF4A2
:107AF000007014E00E49884207D14FF480600121E4
:107B000000F034FB4FF4806009E00A4A90420BD148
:107B10004FF40040012100F029FB4FF40040002108
:107B2000BDE8084000F022BB08BD00BF00240140B2
:107B300000280140003C0140426810B522F4702347
:107B40000A6823F4807444EA02030C7943EA0422AD
:107B50004260CB688A6884681A43084B2340134309
:107B60004A7943EA42038360097CC26A4B1E22F4CD
:107B70007002D9B242EA0152C26210BDFDF7F1FFB4
:107B8000836811B143F0010101E023F0010181603C
:107B90007047836843F00801816070478068C0F3D4
:107BA000C0007047836843F00401816070478068BB
:107BB000C0F380007047836811B143F4A00101E075
:107BC00023F4A00181607047092970B54FF00304C8
:107BD0000CD94C4307251E3C05FA04F503FA04F3BF
:107BE000C66826EA05052B43C3600BE04C43072516
:107BF00005FA04F503FA04F3066926EA050545EAE1
:107C000003040461062A4FF005030DD8013A5343DB
:107C10001F2202FA03F201FA03F1446B24EA020282
:107C200042EA0103436370BD0C2A0DD853431F225F
:107C3000233B02FA03F201FA03F1046B24EA020285
:107C400042EA0103036370BD53431F22413B02FA22
:107C500003F201FA03F1C46A24EA02021143C16289
:107C600070BDC06C80B27047036819420CBF002021
:107C700001207047054A82B0002301930192019BC5
:107C8000C0180190019A116002B07047006C00406A
:107C9000064982B0002301930191019A8018019056
:107CA000019B198888B202B0704700BF006C004089
:107CB00002684FF6FE73134003602D4B002198427B
:107CC000016041608160C16022D02A49884229D088
:107CD000294B984230D02949884237D0284B9842C6
:107CE0003ED0284B984206D153F8681C41F47000EE
:107CF00043F8680C70472449884206D151F87C0C3F
:107D000040F0706241F87C2C7047204B984206D1BD
:107D100053F8042C42F00F0143F8041C70471C492F
:107D2000884206D151F8183C43F0F00041F8180C95
:107D30007047184B984206D153F82C2C42F47061CE
:107D400043F82C1C70471449884206D151F8403C36
:107D500043F4704041F8400C7047104B984205D1F5
:107D600053F8542C42F4702143F8541C704700BF60
:107D7000080002401C000240300002404400024063
:107D8000580002406C00024080000240080402409B
:107D90001C040240300402404404024058040240E3
:107DA00070B506688C680D6A26F4FF4222F07006F2
:107DB0000A6945EA04034C6913438A692343CC6981
:107DC00013431C434B6A44EA03028B6A1A4332434F
:107DD0000260CB680A68496843608260C16070BD18
:107DE00019B1016841F0010303E002684FF6FE7328
:107DF00013400360704703680AB1194301E023EAA6
:107E0000010101607047406880B27047C3004CBFF9
:107E1000034B044B196801420CBF0020012070473E
:107E20000004024000000240C2004CBF014B024B64
:107E3000586070470004024000000240837910B58A
:107E4000002B29D01A4B01681C68CA4314401C60DF
:107E50005C6822405A60027902F1804404F5823263
:107E600014682143116002689C68D1430C409C60F7
:107E7000DC68407921401028D96006D19868104309
:107E80009860D9680A43DA6010BD00F1804303F5B9
:107E9000823319680A4308E00179006801F18042E1
:107EA00002F582331A6822EA00021A6010BD00BF90
:107EB00000040140014B5861704700BF00040140BD
:107EC000064B1A68596910EA010304D010420CBF2E
:107ED0000020012070471846704700BF0004014091
:107EE000014B5861704700BF00040140CB78F0B5EA
:107EF000DA0648BF8A78098803F00F0548BF1543A2
:107F000011F0FF0F1ED004680022012707FA02F7C4
:107F100007EA0106BE4211D197004FF00F0C0CFA90
:107F200007FC05FA07F724EA0C04282B44EA0704A7
:107F300001D1466102E0482B08BF06610132082AE0
:107F4000E3D10460FF2920D94468002202F1080629
:107F5000012707FA06F707EA0106BE4211D197008A
:107F60004FF00F0C0CFA07FC05FA07F724EA0C0493
:107F7000282B44EA070401D1466102E0482B08BFE0
:107F800006610132082AE1D14460F0BD83681942DC
:107F90000CBF0020012070470161704741617047AC
:107FA0000028174B30B500F44014B4BFDB695B68A0
:107FB000B4F5401F82B207D1114C23F0706365689D
:107FC00025F0706565600FE0C40205D5C0F3034479
:107FD000032505FA04F403E0440D240102FA04F435
:107FE00023EA040343F0706321B1410D090102FA51
:107FF00001F2134300280248B4BFC361436030BD9F
:108000000000014001F0030230B592000F2404FA91
:1080100002F400FA02F0074B8908023153F82150AC
:1080200025EA040443F8214053F82140044343F86F
:10803000214030BD00000140014B1860704700BF77
:1080400000300040014B5860704700BF00300040D6
:10805000014B9860704700BF00300040024B4AF669
:10806000AA221A60704700BF00300040024B4CF655
:10807000CC421A60704700BF00300040014B1860CE
:10808000704700BF20000E42074B1A6842F0040000
:108090001860196841F002021A60044B186940F038
:1080A0000401196130BF70470070004000ED00E02E
:1080B000034B596808420CBF00200120704700BFE5
:1080C00000700040024B1A6842EA80001860704756
:1080D00000700040034B5A6822F440410843586046
:1080E000704700BF00100240064B002201281A70A2
:1080F0001A7004D0042804D10520187001E018700B
:108100007047704720100240024B1A6A10431862F1
:10811000704700BF00100240014B1860704700BF5D
:108120003C044242044B5A6909B1104301E022EA7F
:1081300000005861704700BF00100240044B9A696C
:1081400009B1104301E022EA00009861704700BFC6
:1081500000100240044BDA6909B1104301E022EA41
:108160000000D861704700BF00100240044BDA687D
:1081700009B1104301E022EA0000D860704700BF57
:10818000001002404309012B074A01D1136803E0A4
:10819000022B0CBF136A536A00F01F0023FA00F190
:1081A00001F00100704700BF00100240024B5A6A04
:1081B00042F080705862704700100240044B1A88E9
:1081C00092B209B1104301E022EA00001880704722
:1081D00000280040034B9A8890B240F0100199802B
:1081E000704700BF00280040034A938823F0100026
:1081F00001040B0C938070470028004010B5044622
:10820000FFF7E8FF044BC4F30342A4B21A819C8138
:10821000BDE81040FFF7E8BF00280040034B9888F6
:1082200000F020018AB2002AF8D0704700280040F0
:10823000074A938823F0080001040B0C9380044A3A
:10824000908800F008018BB2002BF8D0704700BF77
:1082500000280040074B9A881B8891B210EA03025D
:1082600006D0084010F0FF0F0CBF0020012070471F
:108270001046704700280040034B9A8891B221EACB
:1082800000009880704700BF002800400B8810B5A0
:108290004C88028823438C8802F441522343CC88C3
:1082A00023430C8923434C8923438C892343CC8962
:1082B000098A23431A4393B20380828B22F400631A
:1082C0001A04130C8383018210BD038819B199B27B
:1082D00041F0400303E023F040010A04130C038043
:1082E000704781817047808980B270470389194245
:1082F0000CBF002001207047224A038890429BB2A5
:1083000012D002F5006290420ED0B0F1804F0BD037
:10831000A2F59832904207D002F58062904203D0D5
:1083200002F58062904203D14A8823F07003134320
:10833000154A904208D002F58062904204D023F49E
:108340004073CA889BB2134303808B880A88838555
:108350000C4B028598420FD003F5006290420BD07F
:1083600002F54063984207D003F58062904203D043
:1083700002F58063984201D1097A01860122828246
:10838000704700BF002C014000100040038C70B506
:1083900023F001021404250C0584068C8388028BCB
:1083A0009CB222F073052B040D881A0C26F00206ED
:1083B00033042A434E880D891B0C3543ADB22B4341
:1083C000134DA8420FD005F50065A8420BD005F566
:1083D0004065A84207D005F58065A84203D005F5A1
:1083E0008065A8420ED123F008064B898D881E4374
:1083F00026F004032B43CE898D8924F44074354341
:10840000ADB22C43C988848002838186038470BD09
:10841000002C0140038C30B523F010021404250C0D
:108420000584038C8288048B23F0200324F4E64522
:108430002C040D88240C44EA05241D042B0C0D8902
:1084400092B243EA05134D88A4B243EA0513124DD4
:108450009BB2A84203D005F50065A84215D14D890D
:1084600023F080039BB243EA05134FF6BF751D400E
:108470008B8822F4406245EA0315ABB28D8942EA4B
:108480008502CD8942EA850292B2C988828004833E
:108490000187038430BD00BF002C0140038C30B540
:1084A00023F480721404250C0584038C8288848B49
:1084B00023F4007324F073052C040D88240C2C4342
:1084C0001D042B0C0D8992B243EA05234D8843EA23
:1084D0000523124D9BB2A84203D005F50065A842C2
:1084E00015D14D8923F400639BB243EA05234FF66F
:1084F000FF351D408B8822F4405245EA0325ABB27C
:108500008D8942EA0512CD8942EA051292B2C988E4
:10851000828084838187038430BD00BF002C0140AA
:10852000038C30B523F480521404250C0584038C8D
:108530008288858B94B225F4E64215042A0C0D88B6
:1085400023F4005342EA05221D042B0C0D8992B23C
:1085500043EA05334D8843EA05330A4D9BB2A842EE
:1085600003D005F50065A84205D18D8924F4804427
:1085700044EA8514A4B2C98884808283A0F840109C
:10858000038430BD002C014000214FF6FF7383802F
:108590000180C180418001727047002303804380C5
:1085A0008380C380038143818381C38170470388B3
:1085B00019B199B241F0010303E023F001010A046B
:1085C000130C03807047B0F8443029B16FEA43437D
:1085D0006FEA53418AB201E059044A0CA0F84420E2
:1085E000704783899BB20AB1194301E023EA010174
:1085F00081817047038819B199B241F0800303E08B
:1086000023F080010A04130C03807047038B23F0CE
:10861000080213041A0C114301837047038B23F4DF
:10862000006213041A0C42EA01218BB203837047E3
:10863000838B23F0080213041A0C114381837047C3
:10864000838B23F4006213041A0C42EA01218BB2DB
:1086500083837047038A828911EA030092B203D0B0
:1086600011420CBF002001207047C9438AB2028228
:108670007047C905CA0D828070478088C105C80D42
:108680007047038819420CBF00200120704700008A
:1086900010B5064C18B9236801221A8210BD044B8C
:1086A00018680168884720680A3010BDF825002046
:1086B000F425002010B5064C18B9236801221A824F
:1086C00010BD044B18688168884720680C3010BDC5
:1086D000F8250020F425002008B5234A18B91368AE
:1086E00002221A8208BD214B0020126818801178DE
:1086F00011F07F0113D1507A00F02002D1B209B1FC
:1087000002221A7000F04003D8B2184B18B11A7840
:1087100042F001011EE0197821F001011AE001295F
:108720001FD002291ED1507900F00F024FEA8201BA
:1087300010F0800F01F1804000F5B842116803D0BD
:1087400001F03002102A03E001F44050B0F5805FE0
:1087500001D101211970064B186801698847034847
:1087600008BD184608BD00BFF8250020C825002018
:10877000F4250020F8B5224B1C68238A267AABB971
:10878000042E13D11F48017801291F490AD11F4C1B
:10879000226894B21E4AA2185200136030220A8046
:1087A000037028E010260E80072624E0A58AA16920
:1087B000AB428CBF022604269D4228BF1D46284698
:1087C00088470746002000F045FD2A460146384606
:1087D00000F052FC2946002000F058FD208A638AF0
:1087E000421BED1808480B4B228230214FF44052B7
:1087F000018065821A80024B18680672F8BD00BFBE
:10880000F8250020BC1C002000260020505C004001
:1088100002300020FE25002010B50A4B0A491868D6
:108820004B78C27893420AD3817841B9848834B9AD
:1088300082720648026853689847204610BD02209D
:1088400010BD00BFF825002048020020F4250020BC
:1088500038B50E4A0E4C106823688269D978587969
:10886000904721688B7A7BB170B9087960B98D78AF
:1088700055B9084A1168CB68984720684279C17891
:10888000C2720173284638BD022038BDD0250020B1
:10889000F8250020F425002010B5324B1B6818780D
:1088A00010F07F0004D15A7A22F02001597210BDD5
:1088B000022855D15A88002A53D11979002950D15C
:1088C0005A7922F080004FEA800404F1804101F5DA
:1088D000B8442168244C12F0800F247814BF01F0B2
:1088E000300101F44051A0423AD2002938D09B7A9D
:1088F000002B35D0840002F0800204F18043D1B215
:1089000003F5B844226861B102F03002102A21D187
:10891000C4B2204600F06BFC2046302100F0EAFB98
:1089200018E002F44051B1F5805F13D128B90F4B24
:1089300093F82C1000F0B8FC01E000F046FC206831
:108940004BF68F72024082F4405141F4004343F0F1
:108950008000206006490B6858698047002010BDE0
:10896000022010BDF825002048020020F40100205C
:10897000F425002010B51F4B19684A7922F08003B6
:108980004FEA830000F1804404F5B8401A4C0068B7
:10899000247812F0800F14BF00F0300000F4405033
:1089A000A34224D24C8814BB08B3897AF9B19B0046
:1089B00003F1804102F0800201F5B843D0B219689A
:1089C00028B148F6BF720A4082F0100004E04BF66E
:1089D0008F720A4082F4805040F4004141F08000E0
:1089E0001860064B1A6891698847002010BD022064
:1089F00010BD00BFF825002048020020F42500200B
:108A000008B5064B1868064B427A42F020014172C5
:108A10001868C2699047002008BD00BFF8250020F3
:108A2000F4250020054B1A68538A18B98988CB1A97
:108A3000138270470868C018704700BFF8250020EF
:108A400008B50B4B002093F82C1000F02DFC0948C2
:108A50000168087A082806D1074B4FF480521A8023
:108A6000064A10211180B0F109035842584108BD4F
:108A7000F4010020F8250020FE250020002600201B
:108A800070B52E4B1C68207A02284FD004284DD098
:108A9000032801D0052843D1A169208AA9B1A0B13A
:108AA000A58A854228BF054628468847228A064669
:108AB000608A531B291861822382002000F0D8FBB2
:108AC0002A460146304600F0EEFA228A52B11C4B8B
:108AD0004FF4405018800020014600F0D7FB194A9F
:108AE00030211180208AA38A1449834202D80B685E
:108AF000032202E018B10B6805221A720CE00A6822
:108B00000623114913720A68104993B25A18530088
:108B10000C49186030200880084801680B7A06E08C
:108B2000072803D10A490A68D36898470823034AEB
:108B300010680372BDE87040FFF782BFF82500207F
:108B4000FE25002000260020505C0040023000205E
:108B5000D0250020944B73B51A68944990B24418FC
:108B6000934E65002A6835682B7A092B15D090B290
:108B7000410001F1804404F5C04422782A706378F2
:108B80006B70A08800F0BEFB68802089356800F01B
:108B9000B9FBA880A0893168C880854D01242B6865
:108BA000DA881C725C78002A64D1187810F07F0291
:108BB00038D1092C02D1FFF72FFE45E0052C0FD14B
:108BC00093F90320002A01DA08214FE0997800295F
:108BD000FAD198880028F7D19B7A002B38D0F3E798
:108BE000032C10D1D878012807D0724A204611688A
:108BF0004B699847032829D137E09B88002BF4D193
:108C0000FFF7FEFE20E0012CEFD1D9780129ECD14D
:108C100098880028E9D15B7A03F02002D1B20029BC
:108C2000E3D00AE0012A04D10B2CDED1FFF710FEBD
:108C30000AE0022AD9D1012C02D1FFF72DFE03E070
:108C4000032CD2D1FFF796FE10B1CEE70028BBD19E
:108C50005548594B026891B2C818584B4100002240
:108C600030200A601880062100E00921504A10686F
:108C70000172D3E0062C13D11C7861067AD19A7860
:108C80004C4B012A02D11C68E36969E0022A02D137
:108C90001868036A64E0032A6CD119684B6A5FE0C4
:108CA000002C3ED15988002964D1586820F47F42B5
:108CB000B2F5003F5ED11C7814F07F0004D1988893
:108CC000002800F0AE8055E001280CD1394A5879CF
:108CD0001468A269904700284CD12B68997A002922
:108CE00040F09F8046E0022844D15B7903F00F01F9
:108CF0004FEA810202F1804404F5B840304C02682A
:108D0000207813F0800F14BF02F0300202F44052BA
:108D100081422FD213F0700F2CD1002A40F08180B5
:108D200028E0082C03D119784A067CD022E00A2CCE
:108D300020D1187800F07F0101291BD19C7ACCB199
:108D40005988B9B95A6822F47F40B0F5803F11D1F3
:108D5000184C587922689469A047002865D009E02A
:108D600043B113480024016820464C828B61984728
:108D700020460AE00F4A0E4C116823680A695878A9
:108D80009047032801D1236806E0094B4FF6FF7195
:108D90001B681A8A8A4201D1092103E0022800D007
:108DA00082B90821197239E0505C0040043000207B
:108DB000F8250020D02500200230002000260020C9
:108DC0004802002093F90000002821DAD988019197
:108DD0000198824202D9019A1A8211E08A420FD286
:108DE0001349086890F82C108A4201D2002105E04E
:108DF00092FBF1F001FB102212B901210D48017024
:108E00000B49086890F82C209A82FFF7B3FC05E024
:108E100003221A72084B4FF440511980FFF710FEDD
:108E20007CBD064B9DE7064B9BE7064B99E700BFD1
:108E3000D0250020BC1C0020FE250020D98600087B
:108E400091860008B586000870B50D4B1C7800238C
:108E5000A34210D203F1805202F5B855A90043F4A1
:108E600000420E6842F0800540F60F7232402A43FD
:108E70000A600133ECE7034940F08000086070BDF0
:108E8000480200204C5C004010B514490B680C46A9
:108E90001A7A022A01D0042A04D1FFF76BFC216858
:108EA000087A13E0062A10D15878052809D11978D4
:108EB000480606D1D878FFF7C7FF094B1A68106A31
:108EC000804708490B689A6890470820034B1A6846
:108ED0001072BDE81040FFF7B3BD00BFF8250020B9
:108EE000F4250020D02500207047000037B500236E
:108EF000ADF806305848594B026891B212041980F7
:108F000040F1A8801888564900F00F020A70002A24
:108F10006ED1544C2568AAB2534D2A802988534AF1
:108F200001F03000108029884BF6BF7201F44050E8
:108F3000288021680A4082F4005080F0200141F42A
:108F4000004242F0800020601B8803F010018AB2CA
:108F50003AB9226848F60F7010402060FFF794FF7E
:108F60001DE0206883B2ADF80630BDF8061001F4AC
:108F7000006290B238B1216840F68F730B402360D5
:108F8000FFF7E8FD0BE0BDF8063019B20029B1DAB1
:108F9000226840F68F7010402060FFF771FD216855
:108FA0002A884BF6BF7302F480500B4081B209B19E
:108FB00083F480532C4A108800F400518AB20AB11D
:108FC00083F400532948018801F0100291B209B1DD
:108FD00083F01003008800F0200291B209B183F001
:108FE000200343F400401F4A40F08001116031E04B
:108FF000930003F1804000F5B843196888B2ADF8DA
:109000000600BDF8061008B2002809DA186840F614
:109010008F7101401960164B013A53F822008047C6
:10902000BDF8061001F0800293B2002B3FF462AF4E
:109030000B480278910001F1804303F5B8410868BC
:1090400048F60F7303400B600A49013A51F82200B9
:1090500080474FE73EBD00BF445C0040781C0020C5
:10906000D4250020005C0040FE25002000260020C2
:1090700084010020A001002030B501F1005101F56C
:10908000405301325900521000230230934209D05C
:1090900010F8015C10F8024C44EA052421F8234042
:1090A0000133F2E730BD01F1005110B5013201F595
:1090B0004054521064000023934205D054F823100A
:1090C00020F813100133F7E710BD00004FF6F873D6
:1090D000014A034013607047505C0040800000F17B
:1090E000804202F5B842106848F68F1303401943D6
:1090F00011607047800000F1804202F5B8421068AC
:1091000048F6BF73034001F0100080B208B99BB26B
:1091100001E083F0100301F0200188B208B183F070
:10912000200343F4004141F080001060704780004C
:1091300000F1804202F5B84210684BF68F7303408D
:1091400001F4805080B208B99BB201E083F48053EF
:1091500001F4005188B208B183F4005343F4004194
:1091600041F0800010607047800000F1804202F5FD
:10917000B840016848F6BF730B4083F0300242F4F8
:10918000004141F0800303607047800000F180429D
:1091900002F5B84001684BF68F730B4083F44052E0
:1091A00042F4004141F0800303607047800000F109
:1091B000804202F5B840016840F60F630B4043F46B
:1091C000004242F0800101607047800000F180435E
:1091D00003F5B8400268510408D5016840F60F73E2
:1091E0000B4043F4404242F0800101607047800030
:1091F00000F1804303F5B8431A68500608D5196892
:1092000040F60F70084040F4004242F0C00119607F
:1092100070470000064B49081A6893B203EBC00080
:1092200000F1005202F5405358004A0002607047B6
:10923000505C0040054B49081A6893B2044A03EB9E
:10924000C000831858004A0002607047505C00401C
:1092500004300020054B19688AB202EBC00000F10F
:10926000005303F540514A0010887047505C00409D
:10927000044B1968044B8AB202EBC000C1184A00C3
:1092800010887047505C004004300020044B1A687E
:1092900093B2044A03EBC000831858000160704782
:1092A000505C0040023000200C4B1A6893B20C4A0C
:1092B00003EBC00083185A003E2908D94B09C906A0
:1092C00001D1581E83B2990241F4004104E04B08D9
:1092D000C80748BF0133990211607047505C0040D5
:1092E00006300020054B1968054B8AB202EBC0001E
:1092F000C1184A0010688305980D7047505C004003
:1093000006300020C3B2000A40EA03207047000084
:10931000044B00201860044A044B4FF43F41118075
:1093200019607047445C0040FC250020405C004010
:1093300043185A78405C00EB022188B270470168FC
:1093400000F2395301F5A762C0F8C437C0F8C0373E
:109350008318591CC0F8BC17704700214FF42073C4
:1093600010B50446036080F8361580F8371580F88C
:109370003815FFF7E4FF204610BD000008B50620B1
:1093800000F070FF0120FCF70BFA00BF00210A2259
:1093900001F02ABAF8B5224D0F46044600F01EFD32
:1093A000AB685E6826F0030606F6EF70C11B0A0B79
:1093B000571E3F03B7F5805F07DB0021204600F012
:1093C00013FFAB689919884204D0204600F008FDCD
:1093D0000020F8BD7942204600F006FF01300DD094
:1093E000104BA8681A68F61B46F00106D71B4660AA
:1093F00020461F6000F0F4FC0120F8BD002120464B
:1094000000F0F2FEAB68C21A0F2ADEDD064942F018
:10941000010209685A60401A02490860D5E700BF96
:10942000E4060020CC1C0020F00A00202DE9F041C9
:109430000D460646002955D000F0D0FC55F8041C16
:10944000DFF86CC1A5F1080421F00103E218DCF893
:1094500008005768904227F0030765D011F001011A
:10946000576032D00021D0194068C00706D4DB19FC
:10947000906800294AD0D268C260906043F0010031
:109480006060E350E1B9B3F5007F2DD35A0A042A96
:1094900066D89809383042000CEB820EDEF80820BE
:1094A0004349724562D0506820F003018B4202D2DA
:1094B00092689645F7D1D368E360A260D4609C605F
:1094C0003046BDE8F04100F08BBC55F8085C0CF16B
:1094D0000808641BA0685B1940453FD0E568C5607B
:1094E000A860C0E7BDE8F081D9088A10012000FA21
:1094F00002F00CEBC103DCF804109A680843E36047
:10950000A260CCF804009C60D460D9E7294DA84241
:10951000B1D143F00101CCF81440CCF81040E06028
:10952000A0606160E350CBE7FF18CB0707D455F884
:10953000080C241AE368A2683F18D3609A601E489A
:1095400047F00101036861609F42CCF80840B7D33F
:109550001A4A30461168FFF71DFFB1E7012182E783
:10956000142A0CD802F15B00420095E78010012517
:1095700005FA00F548681346284348609CE7542ADA
:1095800003D8180B6E30420086E7B2F5AA7F03D8E5
:10959000D80B773042007FE740F254518A4203D81B
:1095A000980C7C30420077E7FC227E2074E700BFF5
:1095B000E4060020EC060020EC0A0020C81C002075
:1095C00040F2E063C2F2000301461868FFF72EBFC5
:1095D0002DE9F04F01F10B05162D83B0064627D972
:1095E00035F0070527D4A94225D8304600F0F6FB10
:1095F000B5F5FC7F23D2B94F4FEAD50C07EBCC026F
:10960000D468944200F0D8816368E26823F00301D3
:1096100063185868A16840F001005860CA60916002
:10962000304600F0DDFB0834204603B0BDE8F08F83
:109630001025A942D9D90C2434600024F4E75FEA4C
:10964000552C00F08980BCF1040F00F253814FEAE1
:10965000951707F1380E4FEA4E01A04F07EB810135
:10966000CC68A14205D10CE0002A7ADAE468A14274
:1096700007D0636823F00300421B0F2AF4DD0EF1CC
:10968000FF3E0EF1010C954B3C6903F1080E744549
:1096900000F07081616821F003014A1B0F2A00F37A
:1096A0005681002AC3F814E0C3F810E067DAB1F578
:1096B000007F80F02D81C90888104FF0010808FA5A
:1096C00000F803EBC1015A68886848EA0202E160C9
:1096D000A0605A608C60C46001204FEAAC0400FABC
:1096E00004F0904255D8024206D12CF0030C400001
:1096F00002420CF1040CFAD007EBCC094C46E046D0
:10970000E3689C4207D137E1002A80F25F81DB6881
:109710009C4200F03181596821F003014A1B0F2A55
:10972000F2DD1C46D86854F808CF591945F00108F5
:1097300042F00105CCF80C00C0F808C0C3F8048062
:1097400079613961C1F80CE0C1F808E04D608A50D8
:10975000304600F045FB67E74FEAD50E4FEA4E0171
:109760007BE722185068E368A16840F00100506070
:10977000CB609960304600F033FB083454E7621840
:109780005368304643F00101516000F029FB083472
:109790004AE7BC68606820F00309A94504D3C5EB1B
:1097A00009030F2B00F38D804D4A4E4B116818684A
:1097B000013104EB090B05EB000300F0518103F5C7
:1097C00080500F3020F47F6121F00F0C614630464D
:1097D0008DE8041000F008FD9DE80410B0F1FF3F93
:1097E000804600F04681834500F20881DFF800A141
:1097F000C345DAF800306344CAF8003000F03E8117
:109800001268013200F04B81CBEB080B5B44CAF8C5
:10981000003018F0070100F00481C1F10800C1F523
:109820008053804403F1080208EB0C010805030D86
:10983000C3EB020B3046594600F0D6FC431C00F047
:109840003A81C8EB00020BEB020141F00100DAF8AB
:109850000030BC425B44C7F80880CAF80030C8F842
:10986000040015D0B9F10F0F40F2E9806168A9F149
:109870000C0222F0070201F0010C0520A11842EAB7
:109880000C0E0F2AC4F804E04860886000F20B81D7
:10989000154ABC681068834288BF1360134A116878
:1098A0008B4288BF1360636823F00300A842C5EBB6
:1098B000000301D30F2B04DC304600F091FA0024A2
:1098C000B2E6621943F0010145F0010565603046DA
:1098D0005160BA6000F084FA0834A5E6E40600207E
:1098E000F00A0020C81C0020C41C0020C01C00205E
:1098F000CC1C0020BCF1140F77D9BCF1540F00F23E
:1099000086804FEA153404F16E0E4FEA4E01A4E64C
:10991000480A04286ED9142800F2A58000F15B02E1
:10992000500007EB80008368DFF8C88183427BD05A
:109930005A6822F00302914202D29B689842F7D102
:10994000D9687A68E160A360DC608C60C4E6611964
:1099500042F0010045F001056560596119614860F8
:10996000C1F80CE0C1F808E08A50304600F038FA3F
:10997000083459E65A68AFE608F10108083418F0CF
:10998000030F7FF4BDAE49461CF0030FA1F108049C
:109990000CF1FF3C00F0A2800968A142F4D07C6881
:1099A0004000A0423FF6F5AE00283FF4F2AE04427C
:1099B00000F09980C4469FE604F108036469A3425D
:1099C00008BF0CF1020C3FF45EAE1DE65918486862
:1099D0001C4654F8082FDB6840F001004860D36053
:1099E0009A60304600F0FCF91EE60CF15B0E4FEA7F
:1099F0004E0132E68A093832500092E7BC423FF409
:109A0000F5AE3C4CA468626822F003004EE7BCF55A
:109A1000AA7F1AD84FEAD53202F1770E4FEA4E01EB
:109A20001BE64FF48052FFE69110012000FA01F08E
:109A3000D8F8042019460243C8F8042082E701221E
:109A4000C8F804204446002030E740F254539C45B7
:109A500021D84FEA954000F17C0E4FEA4E01FCE51B
:109A600003F1100CB2E6542829D80A0B6E325000CC
:109A700057E7BC68616821F0030017E74FEA0B5015
:109A8000010D00297FF4BCAEB8680CEB090141F070
:109A900001044460FCE6FC214FF07E0EDDE5164833
:109AA000C0F80080B5E604F10801144C3046FFF719
:109AB000BDFC2368ECE601204FF0000BC7E6B0F5D3
:109AC000AA7F03D8CA0B773250002AE740F25453DA
:109AD00098420CD88A0C7C32500022E77C6824EA39
:109AE00000047C605CE7400008F104085FE7FC20AC
:109AF0007E2216E7E4060020F00A0020CC1C00209D
:109B000088422DE9F00326D98C18A04223D283186D
:109B1000551EEAB1224612F8011D05F0010403F8B2
:109B2000011D691EA5B13CB112F8014D0139B1F119
:109B3000FF3F03F8014D0BD012F8014D023903F835
:109B4000014D12F8014DB1F1FF3F03F8014DF3D182
:109B5000BDE8F00370470F2A40F2A28041EA0003FB
:109B60009B0740F09F800C68A2F1100504604B68D1
:109B7000AC4643608C68BCF10F0F8460CC68C5F3C1
:109B80000015C46000F1100301F110042AD975B169
:109B90002568ACF1100C1D6065685D60A5689D606E
:109BA000E5681034DD601033BCF10F0F1AD9276857
:109BB00004F110061F60676803F110055F60A76875
:109BC000ACF1200C9F60E768DF60276920341F61DB
:109BD000776820336F60B768BCF10F0FAF60F6682D
:109BE000EE60E4D8A2F1100828F00F0302F00F0491
:109BF00003F1100C032C00EB0C0301EB0C0853D900
:109C0000211F4FEA9109444608EB890C54F8046B74
:109C1000C8EB0C010CF1040C1D46644545F8046BBF
:109C2000C1F3800112D029B154F8041B644545F8F2
:109C3000041B0BD0274657F8041B2E4646F8041B7E
:109C400064686C603C1D351D6445F3D109F1010C5D
:109C50004FEA8C0902F0030208EB09014B44002A89
:109C60003FF476AF0D789A18DC4303F8015B1419C2
:109C7000934204F001043FF46BAF34B111F8014F8B
:109C800003F8014B93423FF463AF4D781C4604F850
:109C9000015B8D7802315D70631C9342F5D157E70B
:109CA0000346DCE70346DDE741462246D7E700BF2F
:109CB000F0B48407034600F08D80541E002A00F0A3
:109CC0008780E507CEB211D41A4602F8016B13461D
:109CD0001546920710D0621E002C79D003F8016B54
:109CE00014469A071D4607D0013CEDE7034603F8EA
:109CF000016B9A071D46F7D1032C52D9CEB246EA22
:109D000006270F2C47EA07432DD9A4F11002174666
:109D10000F2FC2F300162B606B60AB60EB6005F198
:109D2000100216D93EB1103F136053609360D360A8
:109D300010320F2F0DD9203F02F11006136053602F
:109D40009360D360136153619361D36120320F2F0D
:109D5000F1D8A4F1100222F00F0204F00F04103227
:109D6000032C15441DD9271F3E462A46032E42F8D0
:109D7000043BC7F380070DD927B1043E032E42F8F8
:109D8000043B07D9174647F8043B083E53603A1D89
:109D9000032EF7D8231F23F00302131D04F003043E
:109DA000ED18ACB1C9B2EA432C1905F8011BA31890
:109DB000A54203F001020BD01AB105F8011BA54220
:109DC00006D02B4603F8011B69705D1CA542F8D133
:109DD000F0BC7047054614468EE700BF704700BFD1
:109DE000704700BF10B440F2E063C2F200030446C3
:109DF00018680A46214610BC00F000B82DE9F04F63
:109E00000C4683B081461746002900F0C680FFF754
:109E1000E5FF07F10B0554F8043C162DA4F1080AE0
:109E200023F0030650D810210D46AF4251D88E4280
:109E300054DADFF8B0C30AEB0602DCF808009042FF
:109E400000F0B180D2F804E02EF001089044D8F878
:109E5000048018F0010F5BD04FF0000E7246DB0754
:109E600076D454F8083CC3EB0A0BDBF8043023F03B
:109E700003039B190193002A67D082420EEB03086B
:109E800000F0F480884560DBD16890685F46C1606F
:109E90008860DBF80C3057F8081F321F242ACB608B
:109EA000996000F22D81132A40F2BB8021681B2AA1
:109EB000CBF808106068CBF80C0000F238810BF189
:109EC000100004F10803AEE025F00705002D294637
:109ED000ABDA0C27C9F80070002715E0B046C5EBD7
:109EE00008070F2F03F001001DD840EA0801CAF847
:109EF0000410C244DAF8043043F00102CAF8042026
:109F00004846FFF76DFF2746384603B0BDE8F08F9F
:109F10002EF0030E0EEB06088845A0DBD76892688A
:109F2000D760BA60DBE70AEB0501054347F00100A3
:109F3000CAF80450CF1948607B68484643F00102D4
:109F40007A600831FFF772FADAE7019A8A4235DA65
:109F500039464846FFF73CFB0746D0B154F8043C6D
:109F6000A0F1080123F001025244914200F0C180A7
:109F7000321F242A76D8132A48D80346204602687E
:109F80001A60416859608068986048462146FFF72A
:109F90004DFA4846FFF724FFB6E7114603B0BDE887
:109FA000F04FFFF715BB426805F1100822F0030ED1
:109FB0000EEB0602424541DA024650E75F46DBF807
:109FC0000C3057F8081F321F242ACB60996000F22A
:109FD000A380132A40F29D8023681B2ACBF8083007
:109FE0006168CBF80C1000F2B8800BF1100004F19E
:109FF000080213683C4603605768DDF80480476038
:10A000009268DA468260DBF8043068E721681B2A30
:10A0100001606368436061D800F1080304F108003F
:10A02000ADE7384623461A683C4602605F68DA4668
:10A0300047609B688360DBF8043050E7571B0AEBEE
:10A04000050347F00100586054F8041C484601F02D
:10A050000102154344F8045CCCF808302746FFF7AA
:10A06000BFFE51E72146FFF74BFD8EE705F11000DB
:10A070008045FFF66AAF5F46DBF80C0057F8081F13
:10A08000321F242AC860816000F28C80132A7CD998
:10A0900020681B2ACBF808006168CBF80C1000F28E
:10A0A0008A800BF1100308342068186062685A60D7
:10A0B000A1689960C5EB08000BEB050340F00102B5
:10A0C0005A60DBF80410484601F001021543CBF852
:10A0D0000450CCF80830FFF783FE15E7A068242A67
:10A0E000B860E168F9602FD007F1100304F11000A7
:10A0F00045E750F8047C27F0030C0CEB0608EEE66D
:10A1000021463846FFF7FCFC3C46DBF80430DA46D3
:10A11000E5E6384622466CE721463846FFF7F0FC74
:10A120003C46DBF80430DDF80480DA46D7E6A36865
:10A13000242ACBF81030E168CBF814101AD00BF1B8
:10A14000180004F110036EE7226907F118033A6161
:10A15000616904F11800796111E7A068242ACBF83D
:10A160001000E368CBF8143011D00BF1180004F1A3
:10A1700010023EE722690BF12000CBF8182061693C
:10A1800004F11803CBF81C104DE73B468CE722691D
:10A190000BF12000CBF81820616904F11802CBF80C
:10A1A0001C1026E738462146CDF800C0FFF7A8FC72
:10A1B000DDF800C07EE7A368242ACBF81030E06801
:10A1C000CBF8140003D00BF1180310346CE72269AC
:10A1D0000BF12003CBF8182061691834CBF81C1060
:10A1E00062E700BFE406002038B5074C00230546AF
:10A1F00008462360FBF7D6FA431C00D038BD21681F
:10A200000029FBD0296038BD042600201F2938B55D
:10A210000C46054620D8D0F8DC229AB152F82130FD
:10A2200083B1012B0CD0591C06D00025204642F8E2
:10A2300024509847284638BD16202860012038BD94
:10A24000002038BD284600F029F82246014628465D
:10A25000BDE8384000F00EB8162101604FF0FF3025
:10A2600038BD00BF40F2E063C2F200030146186847
:10A27000FFF7CCBF38B5084C002305460846114609
:10A280002360FBF79FFA431C00D038BD21680029EA
:10A29000FBD0296038BD00BF04260020FBF795BA2B
:10A2A00080EA010212F0030F40F03A8010F003023E
:10A2B00020F0030021F0030150F804CB08BF51F84F
:10A2C000043B0DD082F003024FEAC2026FF07F43DD
:10A2D00023FA02F251F8043B4CEA020C43EA02036F
:10A2E000ACF101329C4501BF22EA0C0212F0803F22
:10A2F00050F804CB51F8043BF2D04FEA0C604FEA1F
:10A300001C2C012828BFB0EB036F08BF1B0AF4D038
:10A3100003F0FF034FEA1060A0EB0300704700BF9B
:10A3200010F0030F0AD010F8012B11F8013B012A9D
:10A3300028BF9A42F4D0A2EB030070474DF8045DA9
:10A340004DF8044D4FF0010242EA022242EA024275
:10A3500001F0030C21F0030150F8044B51F8045BA9
:10A36000BCF1020F26D04BD824F07F4CBCEB152F4C
:10A37000A4EB020323EA04030DD113EAC21308BFBE
:10A3800051F8045B0AD18CEA040CBCEB056F0CD1CC
:10A3900050F8044BE8E74FEA15255CE033F07F43C3
:10A3A00052D10D784FEA146C55E04FEA146C05F069
:10A3B000FF0550E04FEA044CA4EB02034FEA1C4CAB
:10A3C00023EA0403BCEB154F17D113EAC21308BFED
:10A3D00051F8045B07D18CEA040CBCEB054F08D1A3
:10A3E00050F8044BE6E71B042ED10D884FEA144CBD
:10A3F00031E04FEA05454FEA144C4FEA15452AE093
:10A4000004F0FF0CBCEB156FA4EB020323EA04037A
:10A410000DD113EAC21308BF51F8045B0AD18CEACC
:10A42000040CBCEB052F0AD150F8044BE8E74FEAC7
:10A43000156510E014F0FF0F06D051F8045B4FEAE9
:10A44000142C25F07F4506E04FF000005DF8044B2A
:10A450005DF8045B70470CF0FF0205F0FF00012877
:10A4600028BF904204BF4FEA1C2C2D0AF3D0A2EB68
:10A4700000005DF8044B5DF8045B704780EA010260
:10A48000844612F0030F4FD111F0030F32D14DF873
:10A49000044D11F0040F51F8043B0BD0A3F101322D
:10A4A0009A4312F0803F04BF4CF8043B51F8043B40
:10A4B00016D100BF51F8044BA3F101329A4312F0B8
:10A4C000803FA4F101320BD14CF8043BA24312F0BF
:10A4D000803F04BF51F8043B4CF8044BEAD02346BC
:10A4E0000CF8013B13F0FF0F4FEA3323F8D15DF86E
:10A4F000044B704711F0010F06D011F8012B0CF836
:10A50000012B002A08BF704711F0020FBFD031F8AD
:10A51000022B12F0FF0F16BF2CF8022B8CF8002034
:10A5200012F47F4FB3D1704711F8012B0CF8012BB7
:10A53000002AF9D1704700BF20F0030110F003009A
:10A54000C0F1000051F8043B00F1040C4FEACC0CC0
:10A550006FF000021CBF22FA0CF213434FF0010C03
:10A560004CEA0C2C4CEA0C4CA3EB0C0222EA030242
:10A5700012EACC1204BF51F8043B0430F4D013F0BB
:10A58000FF0F1FBF013013F47F4F013013F47F0F13
:10A5900018BF0130704700BFF0B4002A00F083807C
:10A5A00041EA000313F003052ED0551E03780A7804
:10A5B000934226D1002D7AD0002B7AD001358C1C05
:10A5C0004D192B1BDB0716D510F8013F14F8012C91
:10A5D000934216D1CC1C73B936E0AC4234D001346E
:10A5E000002B31D014F8012C10F8013F01349342B4
:10A5F00007D1002B28D010F8013F14F8012C93420A
:10A60000EBD0981AF0BC7047032ACED904680B68C7
:10A610009C42CAD1131F4CD0A4F1013222EA040497
:10A6200014F0803F43D15A072FD542684C6804305C
:10A630000431A24239D1043B06D0A2F1013424EA0C
:10A64000020212F0803F20D00020DBE772686468CD
:10A65000A2F10135A24225EA020526D1043B00F110
:10A66000040001F10401EFD015F0803FECD1DCF8DB
:10A6700004207C68A2F10135A24225EA020514D12A
:10A68000043BE1D015F0803FDED10C460646043194
:10A690000430032B84460F46D8D85D1E002B85D18D
:10A6A00033792279ADE71046ACE75D1E7EE7284698
:10A6B000A8E71846A6E700BF2DE9F00F494C82B085
:10A6C000D4F800C001900F463C4614F8015B0CEB37
:10A6D00005004678274606F00800C6B2002EF3D1E2
:10A6E0002D2D61D02B2D04BF244614F8015BB346F9
:10A6F000002B41D1302D43D00A239A46BBF1000FE5
:10A700000CBF6FF000474FF00047B7FBFAF90AFBA8
:10A7100019700090002080460CE0303DAB421BDDFC
:10A72000461C05D0C84539D835D00AFB0858012049
:10A7300014F8015B0CEB0506767806F00407FFB20F
:10A74000002FEAD116F0030606D0012E14BF5726BB
:10A750003726AD1BAB42E3DC431C2AD0BBF1000F14
:10A7600001D0C8F10008002A31D0D0B940461160AC
:10A7700002B0BDE8F00F7047102BBED1302DBCD118
:10A780002578782D25D0582D23D043BB4FF0080ACB
:10A7900030255346B2E700988542C6DD4FF0FF30C2
:10A7A000C6E74046611EE2E714F8015B4FF0010B7B
:10A7B0009EE7BBF1000F01990CBF6FF000404FF016
:10A7C000004022230B60002AD2D0611ECFE7404612
:10A7D000CEE74FF0100A6578534602348EE79A466A
:10A7E00030258BE7F40A002070B440F2E064C2F236
:10A7F000000406460D462068134631462A4670BCC2
:10A80000FFF75ABFEE82EE0082004B00FF0000000F
:10A8100000FF000000FFFF0000A5FF000000FF0098
:10A82000010202040202020209000000000000000E
:10A8300000000000000000006D5E0008415E00089E
:10A84000F15D0008015E0008215E00083D5E000821
:10A8500000000000000000001D5F00080000000074
:10A860000000000000000000BD620008A95F0008B1
:10A87000D9620008F1620008B5620008BB620008F6
:10A88000000000000000000051630008A95F0008FC
:10A890005D630008656300084B63000849630008B6
:10A8A000320353007000610072006B00200043000F
:10A8B0006F00720065002000770069007400680076
:10A8C0002000570069004600690020002000200099
:10A8D0002000260353007000610072006B0020000E
:10A8E0004400650076006900630065007300200085
:10A8F0002000200020002000040309040902430076
:10A90000020100C0E1090400000102020100052467
:10A9100000100105240100010424020205240600A0
:10A9200001070582030800FF09040100020A000074
:10A9300000070503024000000705810240000012E5
:10A9400001000202000040501D7D60000201020370
:10A95000010000008000400020001000080000807E
:10A96000004000200800000008000000080000006F
:10A9700008000000080000000400000004000000BF
:10A9800004000000040000000400000004000000B7
:10A99000040000000020000100020004010000008B
:10A9A0000200000004000000080000000000000099
:10A9B00004000000080000004400410048494748E6
:10A9C000004C4F57006469676974616C726561641B
:10A9D000006469676974616C777269746500616E9F
:10A9E000616C6F677265616400616E616C6F67773F
:10A9F0007269746500252525642E256466000000B3
:10AA00004300000000202020202020202020282893
:10AA1000282828202020202020202020202020201E
:10AA2000202020202088101010101010101010105E
:10AA3000101010101004040404040404040404108E
:10AA4000101010101010414141414141010101011C
:10AA500001010101010101010101010101010101E6
:10AA600010101010101042424242424202020202F2
:10AA700002020202020202020202020202020202B6
:10AA80001010101020000000000000000000000066
:10AA900000000000000000000000000000000000B6
:10AAA00000000000000000000000000000000000A6
:10AAB0000000000000000000000000000000000096
:10AAC0000000000000000000000000000000000086
:10AAD0000000000000000000000000000000000076
