:020000040800F2
:105000000050002079790008117000081370000822
:1050100015700008177000081970000800000000E3
:105020000000000000000000000000001D700008EB
:1050300045700008000000004970000899700008E1
:10504000C9790008C9790008C9790008C97200083F
:10505000C9790008C97900080571000825710008A0
:10506000457100087971000899710008C979000834
:10507000C9790008C9790008C979000825730008B2
:10508000C9790008C9790008B5700008C979000815
:1050900029730008C9790008C9790008B9710008A6
:1050A000C9790008C9790008C97900088172000827
:1050B000C9790008C9790008C9790008D5700008C5
:1050C000E5700008C9790008C9790008F570000882
:1050D000C9790008C9790008C5700008C9790008B5
:1050E00009720008E5720008C97900080000000094
:1050F00000000000000000000000000000000000B0
:0C51000000000000000000005FF808F153
:1051100070B5012188B0044601F090FBA0F1300584
:10512000072D37D803226846214601F0AFFB1C4902
:1051300004A801F009FB204604A901F06DFB064616
:1051400004A801F0BFFA1EB1ADB22846002110E05C
:10515000144904A801F0F8FA204604A901F05CFB08
:10516000044604A801F0AEFA74B10A35ADB228467F
:10517000314600F0D5FE684601F08FFBC1B22846EB
:1051800001F06AF8012401E04FF0FF34684601F0B5
:1051900099FA01E04FF0FF34204608B070BD00BF1F
:1051A000A84C0108AA4C01087FB50121054601F071
:1051B00045FBA0F13004072C02D94FF0FF3023E06B
:1051C0001249684601F0C0FA2846694601F024FBFE
:1051D0000646684601F076FA76B90D49684601F050
:1051E000B3FA2846694601F017FB0546684601F008
:1051F00069FA002DE1D00A34A4B22046012100F062
:105200008FFE204600F0CEFF04B070BDA84C010810
:10521000AA4C0108F0B5012185B0044601F00EFB4F
:10522000A0F13006072E02D94FF0FF3049E0684662
:1052300021460322072301F003FB6846224901F0BF
:10524000C1FA0546684601F03DFA7DB96846214637
:105250000322062301F0F4FA68461C4901F0B2FA71
:105260000746684601F02EFA0FB9DDE70125184917
:10527000684601F069FA2046694601F0CDFA074612
:10528000684601F01FFA1FB1B6B23046002111E0A6
:105290001049684601F058FA2046694601F0BCFA08
:1052A0000446684601F00EFA002CBDD00A36B6B2AC
:1052B0003046394600F034FE3046294600F0B4FE50
:1052C000012005B0F0BD00BFAC4C0108B14C010895
:1052D000A84C0108AA4C01087FB50121054601F040
:1052E000ADFAA0F13004072C02D94FF0FF3023E0D3
:1052F0001249684601F028FA2846694601F08CFAFE
:105300000646684601F0DEF976B90D49684601F0B7
:105310001BFA2846694601F07FFA0546684601F007
:10532000D1F9002DE1D00A34A4B22046032100F0C7
:10533000F7FD204600F0C0FE04B070BDA84C010887
:10534000AA4C010808B50948094900F027FC09489A
:10535000094900F023FC0948094900F01FFC0948ED
:105360000949BDE8084000F019BC00BFB54C010870
:10537000D9520008C14C010815520008CE4C010852
:10538000A9510008D94C01081151000870470000CC
:1053900007B5002100910A460B46024801F0DEF8ED
:1053A0000EBD00BF200B002010B501310023934239
:1053B0000ED0040F092C01D8303400E0373401F846
:1053C000014C01330024000101F8024BDBB2EEE78F
:1053D00010BD000008B50E4B1878012801D00D490A
:1053E00039B90D4A1378002BFBD10948017819B15E
:1053F000F7E7FFF7A7FFF4E7084A0AB1FFF7C6FF90
:10540000074B18780028ECD000F070FDE9E700BFEA
:10541000902C002045530008522200208D53000894
:105420005122002010B505F03BFA1B4801F03AFC70
:1054300001F0F8FC194B18780028F9D0184C2178A5
:10544000B9B900F099FC002811D002DA4FF47F00BE
:1054500007E0012801D1134803E0022803D14FF0EF
:10546000FF1004F0DBFBE72004F048FC01E0012220
:10547000227000F045FC0028DAD10B4B187808B1F7
:1054800004F062FC09490A4A054B044800240C70E8
:1054900014701C700470CBE70D5D000850220020D2
:1054A000512200200060FF00D02200205222002064
:1054B0005322002010B54FF000604FF4A04105F0DA
:1054C00023FC384B01213848197005F009FF04F01E
:1054D00091FD0021354C00220A550131B1F5006FD4
:1054E000F8D1334B4FF0807004F5F861C4F8FC0735
:1054F000C4F8F837C4F8F427C4F8E027C4F8001853
:1055000010462C4A002484540130B0F5807FF8D135
:1055100002F580734FF08071274A43F8041C274935
:1055200043F80C4C43F8204C43F8082CA3F14000FE
:105530001E4B0A68C3F8040942F21070B2FBF0F384
:105540001F495A1E1F4BF0204A6083F823008C60CD
:1055500007240C60D022E02183F82320D97783F838
:1055600022000121402005F083FF6FF07F4004F00E
:1055700055FBE72004F0C2FB134B01241C7004F020
:105580001DFA7D2005F0A4FF18B11048047005F045
:10559000B3FF40F6B83004F079FA04F0F3FF00DF0F
:1055A000FEE700BFD622002000043000280B0020B8
:1055B000255400082C130020D5530008C4020020F5
:1055C00010E000E000ED00E053220020902C0020CD
:1055D0004E4B4F49D3F8082970B5501CC3F8080941
:1055E0000C6814B10B685A1E0A604A48017829B148
:1055F00049480178E1B1494C34BB19E0484C236873
:1056000013B12268511E12E0464A107880B946490B
:105610000B786BB9454A107850B9454E454D3178F5
:10562000B9B1E72004F0E6FB2B7883B1C8212160F3
:105630003C4B1C78002C36D1204604F025FD40F66A
:10564000B73290421DD82EE000F0A8FBF0E70A2107
:10565000EDE72B784BB14FF6FF7004F0DFFA012431
:10566000E72004F04BFB3470E2E7E72004F090FB06
:10567000314A107810B14FF4FA71D8E74FF47A71CB
:10568000D5E7204604F008FD2C4A1178C1B92C4812
:1056900003782BB1284A2748117803780B422DD084
:1056A0000120204B0BE0002004F0EEFC41F65731C6
:1056B000884205D9002004F0EFFC224B012018702D
:1056C0001E4A12785AB91B49087840B11E4B47F25E
:1056D0002F511868884214D91A6000F0C9FB1B4B7F
:1056E0001968B1F57A7F05D300211960BDE87040D3
:1056F00005F054BE1A68501C186070BD00F0B8FB6D
:10570000CEE71A68501C1860E9E700BF280B00209C
:105710009C2C0020D0220020BC1700209D5D00089A
:10572000942C00204E2200205222002054220020DF
:105730005322002051220020502200206722002006
:105740004F2200205D22002058220020A02C0020A3
:1057500008B5064B186004F0BFFE04F0D3FE04F059
:10576000F1FEBDE8084006F071BD00BFDC0100207D
:10577000084B186805280BD1074991F80C29012A14
:1057800006D191F80E0991F81039C11AC8B27047C4
:1057900000207047F0220020280B0020114B10B58C
:1057A000186805281AD1104C94F80C19012915D144
:1057B000B4F80E29B4F81039D01A012805D1002107
:1057C000032084F80C1906F0ACFEB4F81039E21886
:1057D000591C92F81209A4F8101910BD4FF0FF30AF
:1057E00010BD00BFF0220020280B0020094B1968D3
:1057F00005290ED1084BD3F85429991881F8580976
:10580000501CB0F5807FC3F8540902D10022C3F8C0
:1058100054297047F0220020280B002070B5234A3D
:1058200092F8583A012B40D0D2F85C0AB0F5807F4C
:1058300002D10021C2F85C1AD2F85C3AD2F854299D
:105840001A48934203D1002180F8581A70BD8CBFCA
:10585000C3F58072C3EB0202144CC0F8602AD4F87E
:10586000605A99B2402D07D94033403DC4F85C3AA4
:10587000C4F8605A402606E0E8180023AEB2C4F827
:105880005C0AC4F8603A0A4A01255018C021324621
:1058900084F8585A06F0BCFD2846314606F0C2FE90
:1058A0002846BDE8704006F02BBE70BD280B0020D6
:1058B00080140020094B10B593E8140008331868D1
:1058C00010180AD008220649FFF76EFD0549204648
:1058D0000422BDE81040FFF767BD10BDE8F7FF1FC9
:1058E0008A0100209A01002038B50D460446AC42DA
:1058F00003D254F8043B9847F9E738BD08B5074888
:105900000749FFF7F1FF07480749FFF7EDFF074891
:105910000749BDE80840FFF7E7BF00BF585001083E
:105920005850010858500108A0500108A050010823
:10593000A0500108FEE70000054A08B513680549B4
:1059400018188842106001D90BF042F9184608BDBA
:1059500000000020004E00204FF0FF307047012073
:1059600070470000014B1868704700BF8C1500207D
:10597000064B0246582000FB013101F1080303CB1E
:105980001060516018689060704700BF8C1500204F
:10599000014BD3F8640170478C150020064B02467A
:1059A000142000FB013101F5B67303CB1060516088
:1059B00018689060704700BF8C1500200E4B2DE9D1
:1059C000F041D3F8647180460024BC4211DA1425FA
:1059D0006543094E4146701900F5B6700C220CF073
:1059E00041FB20B97519D5F86801BDE8F081013493
:1059F000EBE70020BDE8F0818C1500202DE9F04791
:105A000088B0814668460D4600F09EFE1E4B00247D
:105A1000D3F800A054452DDA55B3582666431A4FE3
:105A2000494607F1040808EB060004300C220CF08C
:105A300019FBE8B928460CF0E5FA06F110014028F8
:105A400034BF0246402208EB010029460BF0ECFC73
:105A5000BE19012286F85820694604A8746800F02F
:105A600095FE04A8A047044604A800F02BFE03E01E
:105A70000134CFE74FF0FF34684600F023FE2046A4
:105A800008B0BDE8F08700BF8C15002038B505468A
:105A9000064C28B104F074F9012384F8303238BD83
:105AA00004F052F984F8305238BD00BF8C15002044
:105AB000024B00221A7004F029BE00BF52220020BF
:105AC000034B01224FF4C0201A7004F0BBBD00BF8D
:105AD000522200202DE9F341264B074618788846CC
:105AE00018B925490D782E4615B14FF0FF303FE02B
:105AF000224C0120D4F8343284F8385203F01F01CC
:105B000000FA01F05A0984F8395284F83A5284F8BC
:105B10003B5204EB8202D2F83812C4F83C520143E3
:105B2000C2F8381204F50F7041F28832C4F84022EE
:105B300004F50E7100902A46581C2B4603F0B8F865
:105B4000002815DDD4F83432590904EB8104D4F867
:105B5000384203F01F0244FA02F414F0010007D0A7
:105B6000184639463346424603F03AF9044B1E6064
:105B7000BDE8FC8166220020672200208C150020F1
:105B8000582200200A4604490346D1F83402194637
:105B9000002303F09DB900BF8C1500202DE9F84FBC
:105BA00004468946002941D000283FD0204B1D687B
:105BB000042D3BD00027AF421E4E4FF058080FDA9D
:105BC00008FB07F856F80810494507D106EB08020C
:105BD000101D21460C220CF045FA38B30137EAE7D4
:105BE00008FB05F8A6F1040A0AEB080708F1100003
:105BF000C7F804900021402230180BF09BFD06EB03
:105C00000801081D0C2200210BF094FD206861683A
:105C100007F1080203C2A3680020013507F1040B55
:105C200087F858001360543746F8045CBDE8F88FD5
:105C30008C1500209015002030B51E48ADF5797DFB
:105C400006F082FD002832D11B4B1C481C4D0493EA
:105C50001C491D4A1D4B059009951D481D4D069177
:105C600007920A931C491D4A1D4B0B900E951D4827
:105C70001D4D1E4C0C910D921D491E4A0F931E4B3B
:105C80001090139515A85FAD11911292149308947A
:105C900003900CAC029504F04BFD284604F04EFD39
:105CA00000940448154902AA04AB06F054FD0DF512
:105CB000797D30BDCC180020855B0008D55A0008DE
:105CC00091A60008C15A0008B15A00088D5A000870
:105CD000D1630008FD590008655900087159000892
:105CE000915900089D59000849A700086DA70008B0
:105CF000D15E0008BD5900085DA70008E8F7FF1F46
:105D0000014807F0FCB800BFCC18002030B50220D5
:105D100011228DB0014602F04BFF051E28DB15490C
:105D200007A806F023FE022316200024ADF80C304D
:105D30008DF80E003321E0220123BB208DF81140A5
:105D40008DF80F108DF810208DF812308DF813009B
:105D50000324102203A90091019200231322284654
:105D600007A903F0BFF8013CF3D1284602F04EFF2B
:105D70000DB030BDE8F7FF1F10B5074CFFF75CFF13
:105D8000204606F0E4FC204607F038F80446FFF70A
:105D9000BDFF204610BD00BFCC18002038B5124C06
:105DA000D4F8105B2DB1D4F8101B4B1EC4F8103B77
:105DB00038BDD4F8143B0D4A52F8230003F054FFC9
:105DC000E72003F09BFF0A4AD4F8141B4FF47A70C3
:105DD000C4F8100B10684B1C8342C4F8143BA8BFD6
:105DE000C4F8145B38BD00BF8C150020D022010818
:105DF0000400002010B5054CD4F8340202F006FF70
:105E000018B94FF0FF33C4F8343210BD8C150020A0
:105E100008B5FFF7EFFF02200121062202F0C8FEBD
:105E2000114B0028C3F834021ADB0221A3F8181B17
:105E30003321162283F81B1BD02183F81A2B83F8F9
:105E40001D1B3622042183F81C2B83F81F1BE5221F
:105E5000064983F81E2B1022BDE8084002F0FCBE64
:105E60004FF0FF3008BD00BF8C150020A42000209B
:105E7000044B012200205A801880D886024B1A70E9
:105E8000704700BF20240020662200200F4B2DE920
:105E9000F041D3F8647180460024BC4211DA142525
:105EA00065430A4E4146701900F5B6700C220CF09D
:105EB000D9F820B9751995F87801BDE8F081013459
:105EC000EBE74FF0FF30BDE8F08100BF8C150020FC
:105ED00008B5FFF7DBFF0138082803D8024B191873
:105EE000087F08BD022008BDD0220108084B00220F
:105EF000D3F8481203F513738A4208DA93F8500076
:105F000010B1002083F8500001325133F4E770479C
:105F10008C150020014806F007BC00BFCC180020FB
:105F200014282DE9F34104460E4675D8FF2973D095
:105F300000F0A8FB28B10D2C6ED00F2C6CD00E2CCD
:105F40006AD000F0BDFA08B1012C65D900F0FEFC62
:105F500018B1A4F11203012B5ED9304D20012F5846
:105F60002F492A188F42B2F8048001D1042003E09F
:105F70002C4B9F4203D10820012105F085FAADF892
:105F80000480062E44D8DFE806F00411181F2631DD
:105F90003C00224A102302EB041403200021A173C9
:105FA0008DF807308DF80600083431E004218DF8B3
:105FB000071005EB0414012229E048228DF8072080
:105FC00005EB0414022222E028208DF8070005EBDF
:105FD000041403221BE0114B182203218DF8072023
:105FE0008DF8061003EB0414042210E00B481C216A
:105FF00003238DF807108DF8063000EB04140522FA
:1060000005E000208DF8070005EB04140622A273BA
:10601000384601A905F00AF9BDE8FC81140000200A
:1060200000080140000C0140142870B504460E46DB
:106030003ED8204B03EB0010817B012938D0022988
:1060400036D0032934D0062932D0FF2930D000F0D1
:1060500019FB30B10D2C2BD00F2C29D00E2C00D1D8
:1060600070BD00F02DFA10B1012C00D870BD00F009
:106070006DFC20B1A4F11202012A00D870BD0D4DB3
:1060800005EB0413987B042803D120460021FFF779
:1060900047FF012E05D124012819295983880B6156
:1060A00070BD2EB9240129192B598A885A6170BDF7
:1060B00070BD00BF14000020142810B5044602D99A
:1060C0004FF0FF3010BD1A4B03EB0010817B00290D
:1060D000F6D0FF29F4D000F0D5FA28B10D2CEFD07E
:1060E0000F2CEDD00E2CEBD000F0EAF908B1012C0A
:1060F000E6D900F02BFC18B1A4F11202012ADFD975
:106100000B4B03EB0410817B062908D193F8501147
:106110004A1ED3B2FD2BD3D82046FFF701FF044817
:10612000240101198988005905F0D0F810BD00BF7D
:106130001400002010B54FF4004086B005F070F94F
:1061400001214FF4007005F09FF9154804F0E6FDB9
:10615000012400234FF46022114801A901938DF816
:1061600008308DF80930039204938DF8144004F040
:1061700003FE0B48214604F023FE094804F029FEE3
:10618000074804F02BFE0028FAD1054804F02AFE47
:10619000034804F02CFE0028FAD106B010BD00BF61
:1061A00000240140092838B5044601D80A34A4B2B5
:1061B00000F068FA40B10D2C02D14FF0FF3038BD2D
:1061C0000F2CFAD00E2CF8D000F07AF900F0BEFBBC
:1061D00018B1A4F11203012BEFD9142CEDD81C4DEA
:1061E00005EB04108279FF2AE7D095F8511191420E
:1061F00006D0837B0621204685F85031FFF790FEBC
:1062000095F85251012D05D1FFF794FF104A002057
:1062100082F852010E4D05EB0414A17995F8513125
:106220008B4207D00B480122002304F0EDFDA17939
:1062300085F851110748012104F0DDFD05480221D0
:1062400004F032FE0028F9D0024804F02AFE38BDDE
:1062500014000020002401402DE9F041142888B0EA
:1062600004460D4600F2A780544B03EB00108168F2
:10627000002900F0A08000F005FA40B10D2C00F0DC
:106280009A800F2C00F097800E2C00F0948000F084
:1062900017F910B1012C40F28E8000F057FB20B1AD
:1062A000A4F11202012A40F28680444B03EB041051
:1062B000817B09B104297ED1414E424A37684BF6B1
:1062C00080316943B7FBF2F3581EFF2586B20120E7
:1062D00091FBF5F7014605F0D7F804212046FFF7BA
:1062E0001FFE364ABFB202EB04139968B1F1804F2A
:1062F00002D10120014608E0334D0220A94203D01B
:106300003248814203D10420012105F0C9F82B4B0A
:106310004BF67F3203EB0415ADF80460A868002645
:1063200001A9ADF80A60ADF80660ADF8082005F0E7
:1063300093F9ADF81860AE896021012005F10808D5
:10634000ADF81010ADF81200ADF8167046B9A86897
:1063500004A905F0CBF9A868082105F007FB1FE0A8
:10636000042E08D1A86804A905F004FAA868082139
:1063700005F004FB14E0082E08D1A86804A905F074
:106380003DFAA868314605F003FB09E00C2E07D161
:10639000A86804A905F074FAA868082105F000FBB4
:1063A000064A012102EB0414A06805F0D3FAA068A4
:1063B000012105F0ACFA08B0BDE8F081140000201E
:1063C000C402002000366E010004004000080040B6
:1063D000014B1868704700BF3014002007B500213A
:1063E00000910A460B46024800F0B8F80EBD00BF07
:1063F000C0200020024B18785978401A704700BF1F
:10640000C8200020064B5A781978914204D9981870
:10641000013280785A7070474FF0FF30704700BFEC
:10642000C8200020054B5A781978914202D9981853
:10643000807870474FF0FF30704700BFC8200020C1
:1064400070470000F8B5094B054693F82200164640
:1064500050B10C468F18BC4206D0296828460A68FD
:1064600014F8011B9047F6E73046F8BDC82000201D
:1064700010B50C4B012293F822408CB193F82340C5
:106480001F2C02D94260002010BD93F824001C1874
:1064900084F82510411CC8B283F8240083F8230037
:1064A000104610BDC820002000224260024A4FF46E
:1064B0007A7181600260704700230108704770475D
:1064C000014B93F859007047C820002013B5084CC1
:1064D0000021009104F164000A460B4600F03EF8EA
:1064E00004F16C0002B0BDE81040FFF7DDBF00BF53
:1064F000C820002008B5034B53F8200000B18047A6
:1065000008BD00BF4421002007B5002100910A46C4
:106510000B46024800F022F80EBD00BF8421002087
:106520002DE9F041002407460E4625463B1919790E
:106530000A22304600F08CF82E218046304600F0CA
:1065400055F801344044032C0544EFD13046F97925
:106550000A2200F07DF82818BDE8F08130B583717B
:10656000044D9DF80C300446056001714271C37101
:1065700030BD00BF20230108044B054A00201A60EB
:10658000187158719871D871704700BF8C21002024
:106590002023010807B5002100910A460B46024856
:1065A000FFF7DCFF0EBD00BF94210020F8B50646C2
:1065B0000C468F180025BC4207D0336830461A6855
:1065C00014F8011B90472D18F5E72846F8BD38B59B
:1065D00005460C46084641B10BF014FD2B680246F7
:1065E0005B6828462146984738BD38BD08B5036822
:1065F0001A68904708BD70B500238AB08DF8243022
:10660000012A98BF0A220DF12303B1FBF2F505FB25
:106610001211CCB2092C1E4601D8303400E03734B8
:10662000E4B203F801492946002DEED13146FFF7C7
:10663000CEFF0AB070BD10B5044622B90268C9B2D7
:106640001268904710BDD2B2BDE81040FFF7D3BF2B
:10665000FFF7F1BF07B5002100910A460B4602483B
:10666000FFF77CFF0EBD00BFA021002007B5002171
:1066700000910A460B460248FFF770FF0EBD00BFAF
:10668000A8210020014B587D704700BFB021002099
:106690007047000007B5002100910A460B460248EA
:1066A000FFF75CFF0EBD00BFC821002007B5002129
:1066B00000910A460B460248FFF750FF0EBD00BF8F
:1066C000D421002010B5044600680AF0B1FB204632
:1066D00010BD10B50446006808B10AF0A9FB0023FC
:1066E0002360A360636010BD38B504460D460068A2
:1066F00001310BF0DDF810B184E82100012038BD34
:10670000036810B5044613B14068884207D220469A
:10671000FFF7EAFF20B1A16809B9226811700120D2
:1067200010BD70B50E46114604461546FFF7E8FF4A
:1067300018B92046FFF7CDFF04E0A5602068314678
:106740000BF002FC204670BD38B500230446036000
:106750004360836003730D4639B108460BF052FC69
:10676000294602462046FFF7DCFF204638BD884216
:1067700010B50B46044607D0096819B19A68FFF7AF
:10678000D0FF01E0FFF7A5FF204610BD002310B5A4
:1067900004460360436083600373FFF7E8FF20460D
:1067A00010BD38B505460C4641B108460BF02AFC31
:1067B000214602462846FFF7B4FF01E0FFF789FFB4
:1067C000284638BD826808B50B4612B919B90120B0
:1067D00008BD11B90368187802E000680BF0C6FA2A
:1067E000D0F1010038BF002008BD10B58B68846867
:1067F000E41AA2420CD8006868B1096851B1801847
:106800001A460BF02FFCD0F1010038BF002010BD5C
:10681000002010BD084610BD82688B689A4202D3E2
:106820000022FFF7E2BF002070478368994203D23D
:10683000006810B1405C704700207047FFF7F5BF5B
:106840009A422DE9F04107460D4614461E4601D9ED
:106850003446164638460C49FFF776FFA86884424E
:106860000FD82968864228BF0646002211F8068004
:106870008A552B6838461919FFF793FF286800F8E6
:1068800006803846BDE8F0819C4E010810B58B6843
:106890000446FFF7D5FF204610BD006808B10AF096
:1068A0009FB9704707B5002100910A460B46024880
:1068B000FFF754FE0EBD00BFDC21002007B500210C
:1068C00000910A460B460248FFF748FE0EBD00BF86
:1068D000E421002007B5002100910A460B4602483A
:1068E000FFF73CFE0EBD00BFEC2100204FF0FF3053
:1068F0007047704708B5054805F06BF803488021DC
:1069000005F06FF80028F9D0012008BD00440040D0
:10691000202108B5034805F064F8003018BF0120B5
:1069200008BD00BF0044004008B5024805F055F816
:1069300008BD00BF0044004000224260024A4FF4FC
:106940007A7181600260704730230108014B187C26
:10695000704700BFF421002013B5084C00210091BE
:1069600004F114000A460B46FFF7F8FD04F11C0081
:1069700002B0BDE81040FFF7DFBF00BFF4210020E8
:1069800070474FF0FF307047084608B5FEF72EFFFE
:10699000012008BD08B5FEF7EBFE08BDFEF7FEBE00
:1069A00000224260024A4FF47A71816002607047AF
:1069B000502301080846FEF7CBBE000013B5074C74
:1069C0000021009120460A460B46FFF7C7FD04F15F
:1069D000080002B0BDE81040FFF7E2BF202200200F
:1069E0000023036018467047002303601846704771
:1069F00000230360184670472DE9F04191F80080AC
:106A000086B00C46B8F1000F14BF90464FF0000856
:106A100006460BF0F7FA074620460BF0F3FA01257D
:106A200018231E2102220193029103920590002354
:106A300000950494404631463A4602F093FB034BDE
:106A400018705D7006B0BDE8F08100BF38220020EC
:106A500048F20203984210B517D008DC992844D0B8
:106A6000591E884245D123480122427110BD48F287
:106A70001002904228D0703290423AD11D48012134
:106A800000238170C170037110BD1A4C627952B13C
:106A90001948002202704FF47F4003F0BFF8E7204E
:106AA00003F02CF906E0A07910B1431EA37101E0B8
:106AB0000121A17500216171E17521766176A176D0
:106AC000E1762177216210BD0A7D0A4852B901237F
:106AD000C3754FF47F4003F0A1F8E720BDE81040F4
:106AE00003F00CB90021C17510BD024B012183F8E0
:106AF000241010BD38220020D02200201FB54FF0F6
:106B00003C0C0A234FF461514FF461628DE80E1082
:106B1000684601A902AA03AB01F088FB05B000BDDD
:106B20001FB50023009301930293039301A86946C4
:106B300002AA03AB01F042FB05B000BD30B5554DD4
:106B4000002497B0FF20AC70EC706C706C71EC7529
:106B500085F824402C766C76AC76EC762C6203F0CB
:106B60005DF8E72003F0CAF821462246204602F0ED
:106B7000D5FA2B46012103F8074F0E200A4601F0F3
:106B8000D9FB444B5879012805D1642002F0F4FE6A
:106B900001F076F8F5E710210C2001F017FC3E48D3
:106BA00001F0DEFF3D4802F02DFC012002F00EFC5A
:106BB00068463B4900F0B8FD364DA9786A780A432B
:106BC0001ED195F82550002D5AD0FF2002F0B2FBBF
:106BD000002855D11A24013C06D0E72003F0D8F84C
:106BE000322002F0C9FEF6E72A4D0E202B4603F8AC
:106BF000064F0121224601F09DFB85F82540DBE789
:106C0000E72003F07BF80E2001210022AB1D01F0EC
:106C100063FBAC7814B102F013FC28701D4C012109
:106C200023780022581C234603F8060F0E2001F09B
:106C300081FB00200146012202F070FA0125234663
:106C4000294603F8075F2A460E2001F073FB02F085
:106C5000EBF9642002F090FE002002F099F948F26E
:106C6000442084F8265002F07FFB4FF47F4002F06E
:106C7000D5FFE72003F042F80021A17517B030BD21
:106C8000E72003F085F8FA2002F076FE684600F06F
:106C90009FFD91E738220020682301086801002049
:106CA000F969000830B53E4C85B0A06203F044FBA2
:106CB00003F084FA3B4B3C483C493D4A0093019029
:106CC0003C4B029103923C493C4A3D4802F04CF94E
:106CD000642002F051FE002002F05AF90025012341
:106CE00048F24420E57684F8263002F03DFB354832
:106CF0000188012906D00E2010212A46A31D01F08B
:106D0000EBFAA8B1FF2002F015FB10210E2001F0D4
:106D10005DFB00212C4B0024CC5401311029F9D10A
:106D200022460E2001F006FB264A148003F04AFC9E
:106D30001B4C237A4BB9FFF7E1FE0121234603F8F0
:106D4000081F0E20022201F0F5FA154C207990B9A7
:106D5000A17911B90122A2750DE0E07958B9014677
:106D6000012202F0DBF90121234603F8071F0E2060
:106D70000A4601F0DFFA0A4B187948B9997D39B112
:106D8000124801F009FB05B0BDE83040FFF7C8BE6E
:106D90004FF47F4002F042FFE72002F0AFFFEFE741
:106DA0003822002075A2000889A20008F5A2000878
:106DB0001DA30008F1690008E1690008E9690008FD
:106DC000516A0008B60200203E2200206422002002
:106DD00030B502200121062285B001F0E9FE051E32
:106DE00002DA4FF0FF341AE0002135220824022392
:106DF0008DF802108DF80320694610228DF80440AA
:106E00008DF805408DF806408DF80740ADF800304C
:106E100001F022FF041EE4DB284601F0F7FE2046C5
:106E200005B030BD2DE9F3416E4C94F82E20234679
:106E3000002A3ED194F82F0000283AD194F8260079
:106E400020B902F0A5F8012184F82610654CA17D37
:106E500011B1FFF773FE05E022791AB1E67D3546E0
:106E6000002E55D05F4BD878012814D1DC7D012C41
:106E700011D1597901290ED103245B480BF0C2F8D6
:106E8000594982B2012002F039F8621E12F0FF0463
:106E9000F3D1544BDC70534CE07D002800F09F8010
:106EA00094F82F10002940F09A80227E002A46D0C4
:106EB00095E093F82640002CC8D04C4D2A780AB1B2
:106EC00002F042FF474C002528466571E57584F8BD
:106ED0002E5084F8265025766576A576E5762577BA
:106EE000256203F01BFA642002F046FDA37D3BB14E
:106EF000284602F04DF8012084F82600FFF71EFE18
:106F00004FF47F4002F08AFEE72002F0F7FE9DE793
:106F100031463246304602F001F935480BF072F83E
:106F2000344F804638460BF06DF800970190791F7A
:106F300003204246334602F08DF8267192E7642022
:106F400002F01AFD04F1300001F0B4F9247F0CB313
:106F50004FF47F0002F062FE224C207F90B1E720C8
:106F600002F0CCFE4FF4FA7002F006FDE72002F0CA
:106F7000F3FE4FF4FA7002F0FFFC237F591ECAB2F1
:106F80002277E9E7234603F8090F01210E200322A7
:106F900001F0D0F94FF6FF7002F040FEE72002F05A
:106FA000ADFEFEF735FF00280E4C16DA94F82E10D1
:106FB000A9B9FFF70DFF002801DA022200E0032241
:106FC0002277084C0121207F234603F8090F032272
:106FD0000E2001F0AFF9002300E001232376BDE885
:106FE000FC8100BF382200206B010020D02200204D
:106FF000720100207701002007B5002100910A46A8
:107000000B460248FFF7AAFA0EBD00BFA4220020DB
:107010007047FEE7FEE7FEE7FEE700000748084A84
:107020004FF000031360D0F800C0BCE8F00F8CF301
:1070300009884EF0040E70477047000028130020A6
:10704000840100207047000072B610481049114AB0
:10705000EFF3098C2CE9F00F136813F0010F0CBF4C
:10706000C0F800C0C1F800C083F00103136013F042
:10707000010F0CBFD0F800C0D1F800C0BCE8F00F81
:107080008CF3098862B6704770470000281300200F
:107090002C14002084010020044B1868431C03D0EA
:1070A00003494FF080520A60FEF792BA8401002033
:1070B00004ED00E008B5024B0BB1AFF3008008BD52
:1070C0000000000008B5024B0BB1AFF3008008BD13
:1070D0000000000008B5024B0BB1FFF7EFF908BD47
:1070E000BD64000808B5024B0BB1FFF7E8F908BD15
:1070F000BF64000808B5024B0BB1FFF7C9FA08BD21
:107100009166000808B5012004F000F838B10120AC
:1071100004F00CF8024B13B10020FFF7EBF908BDA7
:10712000F564000808B5022003F0F0FF38B1022032
:1071300003F0FCFF024B13B10120FFF7DBF908BDA0
:10714000F564000808B5042003F0E0FF78B10420DE
:1071500003F0ECFF0020064B0146188002F0D8FE39
:10716000044810210122BDE8084004F0EABB08BD34
:10717000D2220020002C014008B5082003F0C6FFF1
:1071800038B1082003F0D2FF024B13B10320FFF700
:10719000B1F908BDF564000808B5102003F0B6FF8A
:1071A00038B1102003F0C2FF024B13B10420FFF7E7
:1071B000A1F908BDF564000808B5202003F0A6FF7A
:1071C00038B1202003F0B2FF0E4B13B10520FFF7BA
:1071D00091F9402003F09AFF38B1402003F0A6FF58
:1071E000084810B10620FFF785F9802003F08EFFD4
:1071F00038B1802003F09AFF024911B10720FFF750
:1072000079F908BDF564000808B54FF4005003F0A3
:107210007DFF40B14FF4005003F088FF174B13B1CE
:107220000D20FFF767F94FF4804003F06FFF40B186
:107230004FF4804003F07AFF104810B10E20FFF7A2
:1072400059F94FF4004003F061FF40B14FF40040A2
:1072500003F06CFF094911B10F20FFF74BF94FF410
:10726000006003F053FF38B14FF4006003F05EFF9D
:10727000BDE8084002F036BB08BD00BFF564000859
:1072800008B50F48102104F095FBC0B10C4810213F
:1072900004F09BFB002002F0E7FE28B9094B1A8896
:1072A0000A3290B2188008BD10210548002204F06F
:1072B00048FB00200121BDE8084002F029BE08BDBE
:1072C000002C0140D222002008B5012004F068F90A
:1072D00030B1012004F076F9BDE8084004F044B96B
:1072E00008BD000008B5022004F05AF9B0B10C4BFB
:1072F00000224FF400301A7003F018FF012004F050
:1073000077F810B1012004F07DF804F02DF9022087
:1073100004F058F9BDE8084004F026B908BD00BFE4
:107320006722002002F06CBA00F062B838B5144948
:107330000B78012B23D1134A13680BB90B7038BD9E
:10734000114C402B206881B205D94030403B206071
:107350001360402504E09DB2C31800202360106034
:107360000A4A5018C0212A4605F052F80120294641
:1073700005F058F90120BDE8384005F0C1B838BD26
:10738000801500208815002084150020801400201E
:10739000094908B50020094B0122088003201A7012
:1073A00005F06CF9064B0246188006484FF48871C8
:1073B000BDE8084005F043B838140020341400201C
:1073C000361400203A140020074B1868052809D10C
:1073D000064B1A68511C052A196003D10020186059
:1073E000FEF71CBA704700BFF0220020AC2200203C
:1073F0003A4A38B511683A4B88B23A4D18801C8821
:107400002988214001F4007084B244B14FF6FF5541
:1074100015609A78511CC8B29870FFF7D5FF304CB0
:10742000304B25881A882A4002F4004188B225464C
:107430001C4608B104F026FF2A882388134003F471
:10744000806188B230B1254B27494FF6FF321A6070
:1074500048688047224A234B11881B88194001F451
:10746000005081B219B11D494DF6FF7008601288B5
:10747000134003F4805398B230B1184A4EF6FF71AE
:107480001160002003F0BEFB154B164918880A88CE
:10749000024002F4006398B260B114490A7812B154
:1074A00003F090FB02E0022003F0ACFB0B4B4FF229
:1074B000FF7018600A490B480A880388134003F4D8
:1074C00080718AB242B1054B4FF6FF601860072009
:1074D000BDE8384003F096BB38BD00BF445C0040B7
:1074E000B0220020E42C002014020020D80200204A
:1074F000034B987A10B1034905220A60704700BF18
:10750000C02C0020F0220020014B04221A6070479A
:10751000F0220020034B1A78202A01D10020187095
:10752000704700BFB422002070470000212810B52A
:1075300008D111480368197801F07F02212A11D07F
:10754000022010BD2028FBD10B4B19680A780B498B
:1075500002F07F030A4A212B0CBF0B460023107058
:107560000BB9EDE7074B044C20680024836144828B
:1075700020469847204610BDE02C0020D575000815
:10758000B4220020BD750008074B19680A7802F084
:107590007F03212B05D1022801D10020704722282A
:1075A000FBD00220704700BFE02C002009B1022070
:1075B00070470128FBD808467047000020B9034BEC
:1075C000082219680A82704701487047E02C0020A1
:1075D000DC01002020B9034B082219680A82704799
:1075E00001487047E02C0020DC010020054B1968A1
:1075F000CA78042A04D8044B03EBC20104F0C2BBCE
:1076000000207047E02C0020E4010020014904F034
:10761000B9BB00BF04020020014904F0B3BB00BFA6
:107620000C020020334A344BD179186810B500247D
:1076300041728472C472204604F014FF20464FF455
:10764000007104F017FF1021204604F01FFF4021B5
:10765000204604F0BBFF8021204604F0A7FF20460F
:1076600004F070FF254B204693F8641004F0E8FF07
:10767000204604F056FF0120214604F0FBFE0120C5
:10768000C02104F093FF0120202104F0FFFE01201F
:10769000214604F018FF02204FF4C06104F0EAFE16
:1076A00002204FF4807104F081FF0220214604F093
:1076B0000AFF0220202104F0E9FE0320214604F005
:1076C000D9FE03204FF4887104F080FF032040218D
:1076D00004F0B6FF03204FF4405104F0F4FE032001
:1076E000214604F0D3FE204604F05EFD044A01204A
:1076F000106010BDD5230108E02C0020DC01002023
:10770000F022002010B5FEF7D5F8054B00241868CC
:10771000847203F03FFA04F0C7FF02490C6010BD09
:10772000E02C0020F022002038B504460D46FFF77B
:1077300037F9204625614FF41651FFF73BF92046F3
:1077400038BD70B506460D46002428460AF05AFC9E
:10775000844208D2295D3046FFF716F9012002F075
:107760000BF90134F1E770BD2DE9F84304460F46EB
:1077700090460D46C7EB05095FFA89F92046FFF7E9
:1077800009F90028FADD2046FFF708F9C145C6B21D
:1077900006D100232B7020460C49FFF7D2FF0AE0E8
:1077A0000D2EF6D00A2EF4D020463146FFF7ECF825
:1077B00005F8016BDEE72046FFF7ECF8002803DD53
:1077C0002046FFF7EBF8F6E7BDE8F8839A4E01088C
:1077D000F0B585B00446FFF7DDF8002840F39D8042
:1077E0002046FFF7DBF8C0B2772867D104F1140612
:1077F00000212122304604F1350509F09BFF0021CC
:107800002122284609F096FF04F15607002284F849
:10781000562020467A704249FFF793FF20463146B2
:107820002022FFF7A1FF20463E49FFF78AFF394695
:1078300001222046FFF798FF94F85630A3F130015B
:107840000329F0D8312B0BD120463749FFF779FFB8
:1078500020463649FFF775FF20463549FFF771FF8F
:1078600094F85600B0F1300708D020463149FFF7B0
:1078700068FF204629462022FFF776FF20462E4942
:10788000FFF75FFF23693A4630462946984720466E
:107890002A49FFF756FF20462949FFF752FF2046A5
:1078A0002849FFF74EFF20462749FFF74AFF2046A9
:1078B0002649FFF746FF2046254929E069282CD1B3
:1078C000244A01AB10685168002503C39168204623
:1078D00019602149FFF735FF01AEAE5D300900F1B7
:1078E0003001392988BF00F1570106F00F06204604
:1078F000FFF74AF806F13001392988BF06F1570130
:1079000020460135FFF740F80C2DE5D113492046FC
:1079100005B0BDE8F040FFF714BF05B0F0BD00BFF3
:10792000EE4C0108F54C0108224D0108584D0108A4
:10793000834D0108C94D0108D44D0108174E0108B7
:10794000374E01086A4E01089D4E0108DC4E0108C1
:107950000D4F0108E8F7FF1F234F01089A4E010859
:1079600007B5002100910A460B460248FEF7F6FDD6
:107970000EBD00BFB8220020002100F004B80D4B5E
:107980005B58435004310C480C4B42189A42FFF4A8
:10799000F6AF0B4A00F003B8002342F8043B094B52
:1079A0009A42FFF4F9AF03F077F8FDF7A7FFFDF770
:1079B00081FD7047A050010800000020200B00202E
:1079C000200B0020F02C0020FFF7FEBF73B5447998
:1079D0000023022C01930FD0032C19D0012C2BD1A2
:1079E000164D28692E4620B1296901A8884702460C
:1079F000B8B9B16801201BE0104DE8682E4620B1EF
:107A0000E96801A88847024658B9B16802200FE02A
:107A10000A4D6A692E464AB16B6901A89847024629
:107A200020B1A9682046BDF8043003E0B168032006
:107A30000022134600F05EFB7CBD00BF2024002026
:107A4000072810B50CD801290AD8012404FA00F43B
:107A500001FA00F0034B1A6822EA040202431A609A
:107A600010BD00BF6C020020F0B5012187B00546B3
:107A700004F038FE00F48043044698B250B3B4F5E5
:107A8000824F27D12846052104F02CFE0026074608
:107A900007353446BE4208D02846022104F022FEB3
:107AA000013624180435B6B2F4E7744B188E211849
:107AB0008AB21A86D86B2418DC63D96B9A6B914210
:107AC00040F0CE8093F84000002800F0C9809B6908
:107AD000992033E024F4FF4121F07F0290B2002886
:107AE00000F09B8048F2100294422AD00CD8B4F5E2
:107AF000004F40F2C08048F202039C4217D9991C03
:107B00008C4240F0B88012E048F2800084420ED0EF
:107B100005D848F24002944240F0AD8051E0B4F5FF
:107B2000024F04D0B4F5084F40F0A5806CE05349F3
:107B30008869002800F094808B69204600210A465D
:107B400069E00023EA1851790DF803100133042B82
:107B5000F8D1687A2B7BAA7AE97A8DF804008DF83F
:107B600007308DF805208DF8061005F10D00002373
:107B700006AAD218C15C0133042B02F8101CF7D1FD
:107B800005F11100002306AAD218C15C0133042BB1
:107B900002F80C1CF7D105F11500002300AAD21839
:107BA000C15C0133042B1174F8D1344928798A69F6
:107BB0008DF81400002A53D08B692046694615229F
:107BC00029E005350021284604F093FD04210090AA
:107BD000284604F08EFD08210190284604F089FD16
:107BE0000C210290284604F084FD102103902846C1
:107BF00004F07FFD214B04909969002930D09B69E6
:107C000020466946142206E01C48826942B3836913
:107C1000691D20460122984722E041F203039C425D
:107C200005D00C339C4202D0591E8C421AD16C1DD7
:107C30000421204604F05DFD39301CD12D790F4818
:107C40000021C562204604F054FD0421054620466B
:107C500004F04FFD393003D128460121FFF7F0FE33
:107C6000012009E0054A138899B28C4204D0B4F58A
:107C7000805FF5D100E0002007B0F0BD2024002097
:107C800038B50A4C638898B208B9002038BD6068DE
:107C900001780429F9D1FFF7E7FE01280546F4D160
:107CA0000022628001F05AFC284638BD20240020C2
:107CB0002DE9F0470446884691460025BC4B5A887A
:107CC00090B20028FAD05E683178042940F07281C1
:107CD0003046012104F006FD05463046FFF7C4FE9C
:107CE000002840F05C8141F20703771D9D4253D884
:107CF0005A1E954280F0AC8040F20220854200F08E
:107D0000A78014D80C2D09D8082D80F0A180002D53
:107D100000F04581062D40F29B80DDE00D2D00F046
:107D2000948040F20127BD4240F039818DE041F25C
:107D30000202954218D8B5F5805F00F28980B5F54A
:107D4000017F40F2828040F207218D4240F027817E
:107D50003379002104F8013B384604F0CAFC01469F
:107D6000204604F0B1FC1AE141F20400854200F023
:107D7000898040F2A0803846002104F0BAFC04213A
:107D80002060384604F0B5FC6060083406F10D0749
:107D9000224606F11D016EE041F21100854254D0E9
:107DA0002CD841F20B02954252D01CD841F2090165
:107DB0008D424DD000F28B800021384604F099FCB2
:107DC00004212060384604F094FC082160603846A5
:107DD00004F08FFC0C21A060384604F08AFC04F10A
:107DE0000C0AE060DAE041F20F00854263D035D83A
:107DF00041F20D02954240F0D28043E042F206018A
:107E00008D4222D008D8B5F5005F40F2C88042F21A
:107E100004039D4219D983E042F208039D42C0F059
:107E2000BE80581C854210D944F20B02954240F0A6
:107E3000B6807179DFF878A13846AAF830100121B0
:107E400004F050FCAAF83200A9E037792770A6E0C8
:107E50003846002104F04DFC2060A0E000213846A7
:107E600004F047FCA2464AF8040B0421384604F00B
:107E700040FC606092E057F8043B8F4242F8043BBC
:107E8000F9D18CE00021384604F033FC0421206055
:107E9000384604F02EFC08216060384604F029FCC6
:107EA00004F1080AA060E46814F1390376D10121D5
:107EB000FFF7C6FD72E00021384604F01AFC0421E9
:107EC0002060384604F015FC6060083467E03379C0
:107ED00023713F68276062E03846002104F009FC06
:107EE00004212060384604F004FC08216060384614
:107EF00004F0F8FB0A21A060384604F0F3FBC4F854
:107F00000A000C3406F11107224606F1350157F834
:107F1000043B8F4242F8043BF9D1388810803EE0A0
:107F20000022B7187879A0540132042AF9D106F159
:107F300009070023F95CE0180133042B0171F9D122
:107F400006F10D070020395C221801300428117257
:107F5000F9D106F111070023F95CE2180133042B73
:107F60001173F9D106F115000022875CA1180132C6
:107F7000042A0F74F9D106F119000023C75CE11837
:107F80000133062B0F75F9D106F11F000021475C64
:107F90006218013120299776F9D100E05446044B4C
:107FA000188882B2954225D10021198022E000BFB5
:107FB0002024002030460321B77804F093FB82464A
:107FC000B8F1000F0CD00421701D04F092FB0346A1
:107FD000C9F8000006F115014046DAB209F024FAAA
:107FE0007A1DB1182046C7EB0A0209F01DFA0F49A5
:107FF0000020C8860D4F00237B8001F0AFFA307857
:10800000042805D1B5F5805F02D13046FFF7DEFCCC
:108010003A8891B200297FF451AE044BD88E80B2D9
:1080200000287FF44BAEBDE8F08700BF202400207D
:1080300007284FF0010308D803FA00F004490A6842
:1080400010420CBF0020012070471846704700BF47
:108050006C020020034B1880084600210A46FFF7F7
:1080600027BE00BF2024002010B5034B0124DC866E
:10807000BDE81040FFF71CBE2024002038B50346A1
:10808000154601224A710C46881D194604F025FB4D
:10809000291D0570204601F023FB002038BD38B5AE
:1080A000BDF814500C469B18A071E81885B2022147
:1080B0006171E271294604F1080004F00EFB6A1DAB
:1080C000204691B201F00CFB002038BD38B59B185A
:1080D0000C469DB202216171A071E271294604F142
:1080E000080004F0FAFA6A1D204691B2BDE8384053
:1080F00001F0F6BA2DE9F0471D4605F1020A032307
:1081000001F107091FFA8AFA88714B710C4648463B
:108110005146174604F0E1FAB5F57A7F804613D848
:10812000294604F0DAFA2946404604F0D6FA3946E0
:1081300004F10B002A4609F077F9A91D204689B2FF
:10814000BDE8F04701F0CCBA4FF47A76B5FBF6F112
:108150000AEB410291B204F0C0FA3146404604F005
:10816000BCFA394604F10B00324609F05DF9A5F579
:108170007A75204640F2EE31ADB2BF1901F0B0FA87
:10818000B5F57A7F05D9A5F57A7085B24FF47A7680
:1081900001E02E460025A046394628F8056F4846DE
:1081A000324609F041F9B31C404699B2BF1901F0BB
:1081B00097FA002DE4D1BDE8F0870000F7B51A4C1E
:1081C0001E46A468FF238DF807300025475D63191C
:1081D0000135042D5F72F9D100200D5C23180130A8
:1081E00004285D73F9D10021505C63180131042922
:1081F0005874F9D104F11500002104F065FA002249
:10820000B35C83540132042AFAD12146142242F28B
:108210000100FFF733FF42F201000DF10701FFF704
:1082200019FF9DF90700FEBD202400202DE9F34130
:1082300006460C461E4831681546D0F808804A1E8E
:108240001F46FF23122A8DF8073008F1090001D8D4
:108250001423336021684A1E122A01D81423236094
:1082600029684A1E122A01D814232B6039684A1E35
:10827000122A01D814233B60316804F025FA2168E2
:1082800004F022FA296804F01FFA396804F01CFA95
:108290004146142242F20900FFF7F0FE42F20900C3
:1082A0000DF10701FFF7D6FE9DF90700BDE8FC813F
:1082B0002024002038B5074B42F205040546996892
:1082C00020460022FFF7DAFE20462946BDE8384066
:1082D000FFF7C0BE202400202DE9F3418646144854
:1082E0000D46866871461F4602ACFF2306F1090061
:1082F00004F8013D904604F0E7F9294604F0E4F95A
:1083000040F20125414604F0DFF90C2231462846AF
:10831000FFF7B4FE28462146FFF79CFE00213846B1
:108320000A46FFF7A1FE9DF80700BDE8FC8100BFEB
:10833000202400202DE9F341864616480C46866825
:108340007146984602AD4FF0FF3306F10A0045F83A
:10835000043D174604F0B8F90C2104F0B5F92146A4
:1083600004F0B2F9394604F0AFF94146224606F16D
:108370001A0009F059F8902031461022A3B2FFF7F5
:10838000A5FE40F202202946FFF764FE0198BDE8F1
:10839000FC8100BF2024002037B50B4B40F207259D
:1083A0000446996800222846FFF768FE2846694679
:1083B000FFF750FE9DF803009DF8041020706170D7
:1083C0009DF800003EBD00BF2024002037B50D4AB7
:1083D000034695680C4605F10900194604F074F946
:1083E000214640F2032404F06FF929460822204672
:1083F000FFF744FE20460DF10601FFF72BFEBDF806
:1084000006003EBD202400202DE9F0430023CA5C75
:10841000C2540133102BFAD10022334B467B9918FA
:1084200091F8018004789F19F97A88EA0405847B21
:1084300085EA01081D194178EF7A90F80CC04F4089
:10844000C17B80F810805D1895F80B9085786344A7
:1084500089EA050593F80B90C378477489EA03030A
:1084600090F80490FFB288EA090890F805908574A6
:1084700087EA090790F80690EDB285EA090590F8B9
:108480000790C374DBB283EA090390F8089080F880
:1084900014805FFA88F888EA090890F8099047750F
:1084A000FFB287EA090790F80A908575EDB285EA70
:1084B000090590F80B90C375DBB283EA090388EADB
:1084C0000C0C7E406C405940013280F81880477691
:1084D0008576C37680F81CC046778477C1771030E4
:1084E0000A2A9AD1BDE8F0832A24010810F0800FEF
:1084F0004FEA400018BF80F01B00C0B27047000078
:108500002DE9F04F037891F8A0A004468AEA030A07
:1085100080F800A091F8A1204078A77882EA0005B1
:10852000657091F8A260E07886EA0703A37091F87D
:10853000A32097B0059582EA0005E57091F8A49014
:108540002679069389EA060984F8049091F8A570C3
:108550006379079587EA0302627191F8A600A5790D
:10856000E37980EA0506A67191F8A7700C9287EA74
:10857000030B84F807B0227A91F8A880607A88EA21
:10858000020884F8088091F8A9700896474067723D
:1085900091F8AA50A67AE07A85EA0603A37291F8C8
:1085A000AB20267B82EA0005E57291F8ACC0099306
:1085B0008CEA060C84F80CC091F8ADE0637BA27BDA
:1085C0008EEA030E84F80DE00D9591F8AE50E07B35
:1085D0005540A57391F8AF204B4B4240E2739A444B
:1085E00091F890009AF80B6199444640267091F8F2
:1085F000940099F80BA198448AEA0006267191F834
:10860000980098F80B919C4489EA000626729CF821
:108610000BA191F89C009E448AEA00062673DF199C
:108620009EF80B8197F80BC191F8910091F89D602D
:1086300088EA00098CEA060060730C9FDDF814A03C
:10864000DE1996F80B0191F89970DDF8208080EA28
:108650000706667203EB0A0091F8956090F80B71BB
:1086600084F8019087EA0600607103EB0800DDF8EA
:1086700018E090F80B91099803EB0E0703EB000E3E
:108680009EF80BC191F8920091F89A6097F80B71DF
:108690008CEA000A77405D1991F89E6084F802A088
:1086A00091F8960095F80B81A772079F88EA00055C
:1086B00089EA0606A673A571DE1996F80B0191F8F2
:1086C0009F5003EB0B0791F89360454097F80B011F
:1086D0009A1880EA06070D98E7701E1896F80B7135
:1086E00091F897004FF0090B87EA0006E67191F8C0
:1086F0009B3092F80B71E57387EA0300E0720D4638
:10870000CDF840B002E000BF2A24010894F80090A0
:10871000A77887EA0900FFF7E9FEFFF7E7FE94F87C
:108720000180E678824686EA0800FFF7DFFEFFF761
:10873000DDFE8AEA070380EA080227797040A679FD
:108740008AEA09015FFA80F886EA07005FFA82FB8D
:108750005FFA83FA5FFA81F903970296FFF7C6FE84
:10876000FFF7C4FEE6796779014686EA07000491BF
:10877000FFF7BCFEFFF7BAFE039B049A94F808C00B
:1087800082EA0301CBB2029947404A40A17A704085
:10879000C6B2059381EA0C00D3B20291CDF804C0B1
:1087A00006930796FFF7A2FEFFF7A0FE637AE67A2C
:1087B000024686EA030003930492FFF797FEFFF751
:1087C00095FE049ADDF804C0039B82EA0C015FFA6F
:1087D00081FC80EA0301CBB2029909934A40D3B2EB
:1087E000CDF820C00A9394F80CC0A17B7040C6B2AB
:1087F00081EA0C000291CDF804C00B96FFF776FEDB
:10880000FFF774FE637BE67B024686EA0300039370
:108810000492FFF76BFEFFF769FEDDF804C0049ACF
:10882000039B82EA0C015FFA81FC80EA0301CBB270
:10883000029970404A40C6B288EA0A018BEA0900F0
:108840000D93D3B20E930291CDF830C00F9681EA0A
:108850000006FFF74BFE89EA000286EA020C5FFA87
:108860008CFC8AEA0B0084F800C0CDF804C0FFF746
:108870003DFE8BEA000386EA030B02995FFA8BFC4C
:1088800084F801C00846CDF844C0FFF72FFE8AEAFD
:10889000000286EA020A5FFA8AFB88EA090084F885
:1088A00002B0CDF848B0FFF721FE88EA0000DDF8FD
:1088B00018900599079A4640FFB2F6B282EA090875
:1088C00087EA0100E670139688EA0006FFF70EFEBD
:1088D000059B584086EA0001CAB24846227178409A
:1088E0001492FFF703FE474086EA0703D8B21590BB
:1088F00060714046FFF7FAFD89EA0001059B86EAB0
:1089000001020798D7B25840A7710697FFF7EEFD0E
:108910000799089A48404640F6B20A9F0596E671C4
:1089200009980B9E50407E4086EA0007FFF7DEFD67
:10893000DDF820A08AEA000387EA030C5FFA8CF8CE
:1089400084F8088009990A984840FFF7CFFD099AF2
:10895000504087EA000B5FFA8BF9304684F80990A3
:10896000FFF7C4FD0A9E524686EA000387EA030128
:108970000B985FFA81FB504084F80AB0FFF7B6FD10
:10898000DDF82CA00E998AEA00000C9E47400F9B50
:108990000D98FFB24B407040E77283EA000A0293E1
:1089A000FFF7A4FD0C9A0D9B50408AEA00060E9832
:1089B000F6B226735840FFF799FD0D99029B81EAA4
:1089C00000028AEA0200C1B2617318460391FFF700
:1089D0008DFD0E9A0C9B50408AEA00010F98CAB296
:1089E000A27358400492FFF781FD0F99514B484004
:1089F0008AEA000C5FFA8CFADDF804C084F80FA054
:108A000003EB0C0295F8800092F80B11DDF850C0D2
:108A100081EA0002227003EB0C0195F8840091F8C2
:108A20000B219E1982EA000103EB0802217195F8DF
:108A3000880092F80BC196F80B218CEA0001217294
:108A400095F88C00039E82EA000121739A1995F82B
:108A5000811092F80B0103EB090680EA010295F8F8
:108A60008D0096F80B11DDF844C081EA00061599D7
:108A70006673581890F80B6195F88910DF1986EA2B
:108A80000100607203EB0C0695F8850096F80B1157
:108A90006270129A81EA000666719918DDF818C0B2
:108AA00095F88A6091F80B0103EB0C0295F88E1093
:108AB000704092F80B6103EB0B02714092F80BC10E
:108AC00095F882608CEA0602049EA2709A1992F8C8
:108AD0000B6195F886205640A671A0721398A17379
:108AE000191895F88F2091F80B61DDF814C07240C9
:108AF00003EB0C0695F8831096F80B01534448409D
:108B0000E07095F8871097F80B014840E07195F8F0
:108B10008B0093F80B11E273109A81EA0003511E47
:108B2000103D11F0FF00E37210907FF4EFAD17B02D
:108B3000BDE8F08F2A24010838B5054C05462046CB
:108B4000FFF762FC28462146BDE83840FFF7D8BC55
:108B50002C230020034610210C200022FFF7BCBB71
:108B6000034610210C200022FFF7E4BB38B5054670
:108B70000E4CE36A4BB108F037F8E36A036000205B
:108B8000E06208F031F8006838BD2846FFF750FA77
:108B900040B9228E91B20029EAD0238E5A1E91B29A
:108BA000218638BD4FF0FF3038BD00BF20240020A3
:108BB000F7B5034614480D4686681946174602ACB9
:108BC0004FF0FF3206F1090044F8042D03F07CFD5C
:108BD000294603F079FD41F20105394603F074FDA1
:108BE0000C2231462846FFF749FA21462846FFF76E
:108BF00031FA07F0F9FF0199016008460021FEF7FC
:108C00001FFF0198FEBD00BF20240020F7B50546D8
:108C100010484FF0FF33876802AC294641F20B063B
:108C200007F1090044F8043D03F04EFD04223946E3
:108C30003046FFF723FA21463046FFF70BFA07F0DC
:108C4000D3FF0199016028460121FEF7F9FE019842
:108C5000FEBD00BF2024002037B5034613484FF067
:108C6000FF3284680D4604F109001946019203F0B1
:108C70002BFD082103F028FD082103F025FD00232A
:108C8000E95CC1540133082BFAD11422214641F288
:108C90000700FFF7F3F901A941F20700FFF7DAF93E
:108CA00007F0A2FF019A026010463EBD202400207A
:108CB0002DE9FF411D46314B8646D3F808800F460B
:108CC00008F10900714616460A9C03F0FDFC1421C8
:108CD00003F0FAFC142103F0F7FC142103F0F4FC78
:108CE000142103F0F1FCD4F1010138BF002103F09D
:108CF000EBFC0FB1396800E0394603F0E5FC0EB13A
:108D0000316800E0314603F0DFFC0DB1296800E076
:108D1000294603F0D9FC74B1216839B9636841F27E
:108D200087329342DCBF41F28833636003F0CCFCAE
:108D3000616803F0C9FC2C22414641F20800FFF7AC
:108D40009DF941F208006946FFF784F9009B002B6A
:108D500009DB0FB1019838600EB1029A326045B15B
:108D60000399296005E007F03FFF00994FF0FF33BA
:108D70000160184604B0BDE8F08100BF2024002047
:108D80002DE9FF419846154B07469D6814460E464F
:108D900005F10900394603F097FC214603F094FCE5
:108DA000414603F091FCBDF830400C222946204694
:108DB000FFF764F9204601A9FFF74CF90298002853
:108DC00004DD30460A990B9AFFF74EF907F00CFFC5
:108DD00002990160084604B0BDE8F081202400201B
:108DE0001FB500240094019441F204040294FFF79B
:108DF000C7FF04B010BD00002DE9F04F89B003910A
:108E000014469B46139E149D0290FFF7AFFEDDF8BB
:108E100008C0002857D12D4B9A6B511C9963D3F889
:108E20000890812D09F10A0307D0832D0AD104F19E
:108E3000080A09F12208182704E009F11A08102786
:108E4000064612906146184603F03EFC391F03F0B7
:108E50003BFC214603F038FC594603F035FC832DDA
:108E600005D1514603F030FC082103F02DFC00220F
:108E7000A24205DA0398815C08F802100132F7E794
:108E8000002CA8BFA044832D0ED0129AB6B2009237
:108E90000196E8B249463A46A3B2FFF700F9832D9E
:108EA0000BD141F20F000AE00020B042EDDA129936
:108EB0000B5C08F800300130F7E741F2030005A928
:108EC000FFF7C8F8204609B0BDE8F08F2024002045
:108ED0001FB500240094019481240294FFF78CFFB5
:108EE00004B010BD1FB5069C0094079C0194832418
:108EF0000294FFF781FF04B010BD0000202A73B573
:108F000003460E46144622D8124A1946956805F1C2
:108F1000090003F0D9FB082103F0D6FB214603F03A
:108F2000D3FB0022A24203DAB15C81540132F9E79B
:108F300004F10C032946DAB241F21100FFF79EF862
:108F400041F2110001A9FFF785F8019801E04FF007
:108F5000FF307CBD20240020024B01225A80586043
:108F6000FEF78EBE2024002010B5084CE16022617F
:108F70006361029B0399E361049A059B216262622B
:108F8000A362A061012084F8400010BD20240020CD
:108F900070B5224C054622480023A363E363238077
:108FA00023866386A386E386E36263806360A060B2
:108FB0001C4800F0B1FAE1698847A26A0646012020
:108FC00090470EB3E16988470028FBD1134C002D70
:108FD00014BF02250025A16801224D724FF4804084
:108FE000FFF74CF800214FF48040FFF733F8A168F9
:108FF000002244F20B00FFF741F844F20B0000217D
:10900000BDE87040FFF726B8E36998470028FBD019
:10901000E06980470028FBD1D8E700BF202400206A
:1090200088240020598F000838B5094C0020A36A15
:1090300098472546E869064C80470028FAD0A16881
:1090400009B10022A260BDE8384000F079BA00BF43
:10905000202400202DE9F04F83462F4885B0D0F81A
:109060000890144600259A4688464FF0FF331C218D
:1090700009F1090001930F9E0E9F0295ADF80C5067
:1090800003F022FB214603F01FFB594603F01CFBB3
:1090900004F1100103F018FB314603F015FB2946DB
:1090A00003F01BFBBAF1000F08D01AF80520425557
:1090B0000135062DF9D10630002207E0534602AAF9
:1090C000995CC1540133062BF9D1F4E7A24204DACA
:1090D00018F8021081540132F8E7002CA8BF0019DB
:1090E0003EB100232FB1B34203DAFA5CC25401331C
:1090F000F9E71C34A319DAB249460120FEF7BEFF96
:1091000001A90120FEF7A6FF07F06EFD019901609D
:10911000084605B0BDE8F08F20240020F7B50346CF
:109120000F480E4685681946174602AC4FF0FF32CD
:1091300005F1090044F8042D03F0C6FA314603F0A6
:10914000C3FA394603F0C0FA29460C220420FEF780
:1091500095FF04202146FEF77DFF0198FEBD00BF6C
:10916000202400202DE9F04F8346714885B0D0F8C7
:1091700008900D4614465946002209F109009A4606
:109180000E9F0F9E0292ADF80C2003F09DFABBF1EA
:10919000030F00F2BE80DFE80BF0022F7676142179
:1091A00003F092FA214603F08FFA002103F095FABA
:1091B000BAF1000F07D000221AF8021081540132D0
:1091C000062AF9D106E0534602A95A5CC25401337B
:1091D000062BF9D10630394603F076FA4FF0000835
:1091E000A04506D015F8083000F8083008F101084D
:1091F000F6E708F118008AE0202103F065FA21461D
:1092000003F062FA002103F068FABAF1000F07D008
:1092100000221AF8021081540132062AF9D106E020
:10922000534602AA995CC1540133062BF9D1394641
:10923000063003F049FA04F10C0103F045FA314617
:1092400003F042FA109903F03FFA0022A24203D041
:10925000AF5C87540132F9E7001900220421129D06
:109260008718AD180023B34205D015F803E007F8BE
:1092700003E00133F7E701391A44F0D104F1240C7B
:109280000CEB830043E0282103F01EFA214603F093
:109290001BFA002103F021FABAF1000F07D00022D7
:1092A0001AF8021081540132062AF9D106E0534619
:1092B00002A95A5CC2540133062BF9D13946063053
:1092C00003F002FA314603F0FFF9109903F0FCF9BC
:1092D000119903F0F9F904F1080103F0F5F9139974
:1092E00003F0F2F90021A14203D06A5C425401313B
:1092F000F9E70019002313998B4204D0129AD15C2C
:10930000C1540133F7E704F12C0808EB03001FFAFE
:1093100080F849465FFA88F20520FEF7AFFE052087
:1093200001A9FEF797FE019805B0BDE8F08F00BFD8
:109330002024002037B50B4B01469D6802AC05F197
:10934000090003F0C1F94FF0FF3044F8040D29463D
:1093500004220620FEF792FE06202146FEF77AFE42
:1093600001983EBD2024002037B548F2080248F29B
:10937000080102408A42034613490BD10020934260
:1093800081F840001FD023F4004424F0080545F480
:10939000004302E0012081F840000B494FF0FF320A
:1093A0008D6802AC194605F1090044F8042D03F05C
:1093B0008BF9294604220820FEF760FE082021468A
:1093C000FEF748FE01983EBD2024002073B50C4BEB
:1093D00001469D684FF0FF3602AC05F10900019689
:1093E00003F072F944F8046D294604220A20FEF7BE
:1093F00045FE0A202146FEF72DFE01987CBD00BFE8
:109400002024002007B50D4A4FF0FF3301939168E7
:1094100090B154234370037083704B7242788A7208
:1094200080780322C8720C20FEF728FE0C2001A9C8
:10943000FEF710FE019800E018460EBD2024002023
:109440002DE9F041314886B0FFF784FB054600283E
:1094500058D12F4E2A460D2043213346FEF73CFFBC
:10946000054600284ED13778284907F1030808EB54
:1094700006042046FFF760FB3378F6187078102852
:1094800004D904F110002149FFF756FBE17F204A7F
:1094900021B112F808301F2B04D101E012F8083076
:1094A000013400E02023107811188A78032A29D883
:1094B000DFE802F0020E1919002001250095019045
:1094C000029003900490059012493A46034616E034
:1094D00001208DE80900002302930393049405936F
:1094E0000C493A460BE0012018211E2202258DE886
:1094F000270008490593049403203A460023FFF708
:1095000031FE0546284606B0BDE8F08164240020FF
:10951000DC230020DD23002008B5064B0022186064
:10952000054906489A601961DA80DA609A80036A10
:10953000984708BD7424002088280020202400209B
:1095400008B5044B1A690AB10020186102494B6A38
:10955000984708BD7424002020240020024B4FF4BB
:1095600080725A60704700BF00E100E008B5074B09
:109570004FF48072C3F8842000F074FE0449022086
:109580000A6988600B68501D984708BD00E100E03B
:109590007424002070B50646322014460D4600F0B3
:1095A000F7F9002000F04EFE012EA4B207D130469C
:1095B0002946224600F0CEFD0020134907E0134B58
:1095C00001201969224600F0C5FD002029462246E7
:1095D00000F0C0FD0E480221012201F032FD012001
:1095E00000F030FE0A4801F034FD0028FAD10948A5
:1095F00001F02FFD0028FAD10748802102F025F85C
:109600000028F9D170BD00BF700200207424002032
:1096100058000240440002400038004003460A4619
:1096200001201946FFF7B6BF70B506463220144632
:109630000D4600F0ADF9002000F004FE012EA4B2AA
:1096400007D130462946224600F084FD002010490B
:1096500007E0104B01201969224600F07BFD002035
:109660002946224600F076FD012000F0EBFD0A4875
:1096700001F0EFFC0028FAD1084801F0EAFC0028CC
:10968000FAD10748802101F0E0FF0028F9D170BD30
:109690007002002074240020580002404400024060
:1096A0000038004003460A4600201946FFF7BCBFB9
:1096B00038B504460D4600F0F1FE00202146042294
:1096C000FFF7B2FF0020211D2A1FFFF7ADFF034B5C
:1096D00002229A6000F0C6FD002038BD74240020EC
:1096E000F8B501F00106044686F001000D180123CB
:1096F00000262370C5F307221B4BE67026716270AB
:10970000A57005319D68081886B215B99A68012AB6
:10971000FCD19968144D012907D120463146FFF745
:10972000C7FFA8680228FCD11CE0AF68022FFCD15B
:109730000E48802101F089FF0028F9D10C4DE8691D
:1097400080472F460028F9D0074D0323AB60EC601B
:10975000AE8000F0A3FEFA6990470028FBD0A9680C
:109760000229FCD10020F8BD7424002000380040FC
:109770002024002070B5184E35696B79022B08D073
:10978000042B25D1287A441E14F0010F18BF04467B
:1097900014E0681D032102F0A5FFB0F5806F0446B8
:1097A00008DB05F10A004FF480610724FFF736FF5C
:1097B000B4600EE0C30701D4441C00E024B105F1FD
:1097C0000A00A1B2FFF72AFF034908228A6000E0DD
:1097D0000024204670BD00BF74240020024B0120ED
:1097E00019690A22FFF7D6BE7424002008B5FFF7D6
:1097F000C1FF18B9BDE80840FFF7B8BE08BD0000BA
:1098000070B5364C4FF40030266901F025FC054652
:109810004FF4005001F020FCA368062B0BD1002D63
:109820005BD0002859D04FF4083001F023FCBDE88C
:109830007040FFF7DBBFA16807291BD100284CD07F
:109840004FF4083001F016FC0321701D02F04AFFAE
:10985000A0F58064A1B2214CCA0758BFA0F2FF3125
:10986000206958BF89B200F20A40FFF7D7FE0823EB
:10987000A36070BDA268082A09D100282DD04FF43A
:10988000083001F0F7FBBDE87040FFF76FBEA0683D
:10989000052811D1002D20D01148802101F0D5FEDE
:1098A0000028F9D14FF4083001F0E4FB00F0DAFCB5
:1098B0000A4A0221916070BDA368042B0DD165B1E5
:1098C000A088E2680521A0F58063A16002F58060B0
:1098D00099B2BDE87040FFF7E5BE70BD742400206A
:1098E0000038004008B5174BD8698047002827D1B9
:1098F000154B9A6812B90120986008BD9968022931
:1099000007D106229A6000F0C9FDBDE80840FFF7C4
:1099100065BF9A68032A13D19A88B2F5806F06D87A
:1099200005219960D968BDE80840FFF733BE0420DF
:109930009860D8684FF48061BDE80840FFF7B2BE78
:1099400008BD00BF2024002074240020BFF34F8FE7
:10995000054A064BD16801F4E06040EA0301D1609A
:10996000BFF34F8FFEE700BF00ED00E00400FA05F3
:109970004FF4407001F08AB982B00190019A034B14
:109980001A6018680028FCD102B070479C2C002097
:1099900013B50749074B01900C68074901985A68AD
:1099A000B4FBF1F100FB01205A689042FCD81CBDC9
:1099B000C4020020001000E040420F0030B54FF418
:1099C000003085B001F0B2FB08204FF400330025D1
:1099D00001248DF80D00684402938DF80C508DF829
:1099E0000E4001F051FB032101A88DF804108DF801
:1099F00005108DF806508DF8074001F051F9042349
:109A000029220DEB03008DF804208DF805308DF828
:109A100006508DF8074001F043F9022001F0E8FC00
:109A200050B1022001F0EEFC01F0A8FD24204FF619
:109A3000FF7101F03FFA27E0242001F049FA4AF2D1
:109A4000A551884201D101F0BFFC012001F0F2FCD8
:109A5000412001F03DFD0028FAD04FF4807001F064
:109A6000F9FC012001F0FEFC01F088FD01F07CFD15
:109A70000320012101F048FD01F076FD47F6FF705B
:109A800001F062FD01F070FD05B030BD10B5044677
:109A900045F2555001F070FC062001F073FC42F2D3
:109AA0001070844228BF044628216143C1F30F206F
:109AB00001F06EFC01F072FCBDE8104001F076BCD4
:109AC000082812D8012907D10A4B0B4A53F8201055
:109AD00032F8100008610AE049B9064B064A53F80B
:109AE000201032F81000486101E0FF2300E000235D
:109AF00058B27047780200203826010837B50E4D5D
:109B0000044605EB80031869012101F0BDFC35F81E
:109B100014000A4B1021ADF804008DF80710032241
:109B200053F8240001A98DF8062001F07FFB2046A0
:109B30000021FFF7C5FF3EBD38260108780200204E
:109B400070B5012188B04FF4006001F09DFC314BED
:109B500042F210701C686326B4FBF0F14A1E2E4CD2
:109B600001A895B201F0C0FE01A801F0BDFE01A957
:109B7000ADF8045020460025ADF80860ADF80A5055
:109B8000ADF8065001F068FD04A801F0B6FE022011
:109B900060230126ADF8180004A92046ADF8103066
:109BA000ADF81260ADF81650ADF81C5001F09EFDF6
:109BB0002046294601F0DAFE204604A901F0DAFD2C
:109BC0002046294601F0DAFE204604A901F016FEDF
:109BD0002046294601F0DCFE204604A9ADF81050CD
:109BE000ADF81260ADF81650ADF8185001F048FE0F
:109BF0002046294601F0D4FE2046314601F0AAFE57
:109C00002046314601F083FE2046314601F08BFEAE
:109C100008B070BDC4020020002C0140104930B5CE
:109C20008C8DC0F30743A2B2551C5D43FF22B5FBE8
:109C3000F2F40C4BA5B29D808C8DC0F30725A4B225
:109C400001346C43B4FBF2F4A4B2DC80898DC0B261
:109C500089B201314843B0FBF2F291B2598030BD74
:109C6000002C0140C0220020104930B58C8DC0F37B
:109C70000743A2B2551C5D43FF22B5FBF2F40C4B27
:109C8000A5B29D818C8DC0F30725A4B201346C432D
:109C9000B4FBF2F4A4B2DC81898DC0B289B2013187
:109CA0004843B0FBF2F291B2598130BD002C014023
:109CB000C022002037B50F4D044605EB8003186B1A
:109CC000012105EB440501F0DFFBB5F84000ADF8DC
:109CD00004000CB9102100E01821074B8DF8071083
:109CE00003EB84040322206A01A98DF8062001F009
:109CF0009DFA3EBD382601087802002010B1E72801
:109D00001BD105E00D4A4FF40051106A0161704704
:109D10000B4B0C4A197C39B9988881B21187D888C5
:109D200081B291875B8806E0988981B21187D889D2
:109D300081B291875B899BB293867047780200203D
:109D4000C0220020002C0140024B0022E7201A74A0
:109D5000FFF7D4BFC022002038B1E7280BD1064B53
:109D600000221A879A879A8605E004484FF4005328
:109D7000016A4B6170477047002C01407802002057
:109D8000024B0122E7201A74FFF7E6BFC022002031
:109D900010B1E72827D106E0134B196AC86880F490
:109DA0000052CA607047114A114B117C61B9198F7A
:109DB0009088414088B21887998FD088414088B2F6
:109DC0009887998E52880BE0198F9089414088B20C
:109DD0001887998FD089414088B29887998E528987
:109DE0004A4092B29A86704778020020C022002032
:109DF000002C0140E7287FD14049414B087C414A73
:109E000048BB898888B208B918700DE0118F88B2F4
:109E100008B9012007E0118F928D88B291B24A1CD7
:109E2000904201D1FF201870344B3748D98889B24D
:109E300069B1344A938F99B209B9012107E0938F30
:109E4000928D99B293B25A1C914201D1FF210170B7
:109E50002A48438828E0898988B208B918700DE03B
:109E6000118F88B208B9012007E0118F928D88B256
:109E700091B24A1C904201D1FF2018701F4B22481A
:109E8000D98989B269B11F4A938F99B209B9012161
:109E900007E0938F928D99B293B25A1C914201D1EF
:109EA000FF2101701548438998B2184B68B1154AD3
:109EB000918E88B208B9012007E0918E928D88B208
:109EC00091B24A1C904201D1FF2018700D4B0C49F1
:109ED0001A8F91F90000821891B20B4A198792F9F2
:109EE0000010988F081882B208499A8791F90020CB
:109EF000988E101881B29986704700BFC02200204A
:109F0000A82C0020002C0140982C0020882C002038
:109F100073B5104C0E4604EB400494F84C10054603
:109F200094F8480001F00EFAB4F85040204601F0D1
:109F3000E7F809480023451995F830106846009461
:109F40008DF804308DF805108DF8066001F09CF84E
:109F50007CBD00BF3826010878020020F7B5224EEC
:109F60008700F3190546586D0C4640F001000121A9
:109F700001F08AFA1D4B06EB45065A1992F8321089
:109F8000B6F85C0002AADF198DF8031022F8080D5C
:109F90006946786B01F04AF9012C24D11021002286
:109FA00013481B2701F0CDFC05238DF8047001A890
:109FB00000278DF805308DF806708DF8074000F009
:109FC0006FFEB6F8601006208DF8050001A88DF828
:109FD00004108DF806708DF8074000F061FE2846E9
:109FE0002146FFF795FFFEBD3826010878020020C4
:109FF000002C01401A4B1B49DA6810B542F0807002
:10A000000024D8604C600B684FF0C05043F0010250
:10A010000A60012101F044FA012001F0CFF9FFF7B5
:10A02000A7FC0120014601F02FFAE0B20134FFF74E
:10A0300065FD082CF9D1FFF783FD0020FFF73AFEFC
:10A040000120FFF737FE0220FFF734FE0320FFF761
:10A0500031FE00200121BDE81040FFF77FBF00BFA7
:10A06000F0ED00E0001000E0054A064B02EB800135
:10A0700003EB4002486BB2F85C1001F027B900BF57
:10A080007802002038260108024B03EB4000418A89
:10A0900088B27047C0220020024B002203EB400030
:10A0A00042827047C022002030B5082087B00121CD
:10A0B00001F0EAF9254C4FF48040012101F0F0F95C
:10A0C00018204FF4005301258DF8030069462046FF
:10A0D000ADF800308DF8025001F0A8F84FF40041BF
:10A0E0002046ADF80010694601F0A0F84FF4804218
:10A0F000042320466946ADF800208DF8033001F0B6
:10A1000095F80020ADF804004FF48271ADF8080016
:10A11000ADF80A00ADF81200A4F5544407204FF43E
:10A1200000722023ADF80610ADF8140001A92046F6
:10A13000ADF80E20ADF81030ADF80C5001F04CFA2F
:10A140002188034B8AB21A8007B030BD000C014051
:10A15000AC2C002070B5044601208CB00E460146A0
:10A16000154601F085F9124B002080224FF4405132
:10A17000012C019302960590069207900890099091
:10A180000A910B9006D103900A48049500F0B6FEA0
:10A19000084807E04CB9102307480393049500F0E2
:10A1A000ADFE054801A900F021FF0CB070BD00BF55
:10A1B0000C380040440002405800024073B50F23A1
:10A1C0000124002501A88DF804308DF805508DF884
:10A1D0000650174E8DF8074000F062FDFFF764FF50
:10A1E00020462A461349FFF7B5FF28462A4612495A
:10A1F000124DFFF7AFFF30460221224600F021FF4B
:10A2000028462146224601F012FA2246284602211B
:10A2100001F00DFA2846214601F0FDF921460848D3
:10A2200000F004FF3046214600F000FF7CBD00BF77
:10A230005800024088280020882400200038004070
:10A240004400024010B504462146044800F0EEFEEA
:10A2500003482146BDE8104000F0E8BE440002403B
:10A260005800024002484FF4805101F035B800BF59
:10A27000000C014008B54FF40061024801F026F8D7
:10A2800008BD00BF000C014030B5092085B0012198
:10A2900001F0FAF84FF400644823694614488DF839
:10A2A0000330ADF8004000F0C1FF0B21012001F0A8
:10A2B00049F8204600F024FF0C20029400250124D8
:10A2C0008DF80D0002A88DF80C508DF80E4000F0AE
:10A2D000DBFE282101A88DF804108DF805408DF8CB
:10A2E00006508DF8074000F0DBFC05B030BD00BF24
:10A2F000000C01401FB52823002401A88DF804306C
:10A300008DF8074000F0CCFC4FF40060029002A8EA
:10A310008DF80E4000F0B8FE1FBD000020B10548CA
:10A320004FF4807100F0D8BF02484FF4807100F004
:10A33000D5BF00BF000C014013B5082001210F4C10
:10A3400001F0A2F8032010214FF480538DF806008D
:10A350008DF80710204601A9ADF8043000F066FF23
:10A36000FFF780FF4FF48072204601A9ADF804206A
:10A3700000F05CFF0020FFF7D1FF1CBD000C014086
:10A3800010B50B4C238823F0400001040A0C2280F6
:10A39000FFF768FF074B188881B2074841F0400279
:10A3A0004FF400712280BDE8104000F097BF00BF5D
:10A3B00000380040AA2C0020000C014002484FF455
:10A3C000007100F089BF00BF000C014070B508208B
:10A3D00086B0012101F058F82E4C01214FF4804045
:10A3E00001F05EF818204FF4005301258DF80300AA
:10A3F00069462046ADF800308DF8025000F016FF97
:10A400004FF40041ADF800102046694600F00EFF01
:10A4100004264FF4804220466946ADF800208DF8AE
:10A42000036000F003FF1020032369464FF4007619
:10A430008DF8030020468DF80230A4F55444ADF8A1
:10A44000006000F0F3FEFFF7B9FF00210720202392
:10A45000ADF804104FF48272ADF80810ADF80A1090
:10A46000ADF80C10ADF81210ADF8140001A920469B
:10A47000ADF80620ADF81030ADF80E6001F0ACF884
:10A480002188054B8AB2204629461A8001F0C3F87C
:10A4900006B070BD000C0140AA2C002010B50B4C7A
:10A4A000238823F0400001040A0C2280FFF786FF76
:10A4B000074B188881B2074841F040024FF48051A1
:10A4C0002280BDE8104000F009BF00BF0038004006
:10A4D000AC2C0020000C014007B50820012100F041
:10A4E000D3FF032014214FF480638DF806008DF80C
:10A4F0000710034801A9ADF8043000F097FE0EBD27
:10A50000000C0140002008B500F084FF4FF400006B
:10A510000121BDE8084000F0C3BF0000014B032249
:10A520001A607047F0220020044B05489A7A0AB15D
:10A53000052100E001210160704700BFC02C002010
:10A54000F022002007B5022014238DF80500002119
:10A55000012201A88DF804308DF806108DF807202F
:10A5600000F09EFB0EBD000020B105484FF4806155
:10A5700000F0B4BE02484FF4806100F0ADBE00BFF1
:10A58000000C0140094B987D70B10949094B0A88BC
:10A5900009489A870188094AD98710880849A3F889
:10A5A00040000A88A3F84220704700BFC022002064
:10A5B000004C000878020020024C0008044C0008FF
:10A5C000064C000810B5194B987D00282DD000F0DE
:10A5D000B3FD342000F0C4FD154800F009FE042846
:10A5E00022D1144C1248A18F00F0E6FD04281AD1A4
:10A5F0001148E18F00F0E0FD042813D10F48B4F8B2
:10A60000401000F0D9FD04280BD10D48B4F84210D9
:10A6100000F0D2FD042803D1BDE8104000F098BD41
:10A62000FEE7FEE7FEE7FEE7FEE710BDC0220020E2
:10A63000004C000878020020024C0008044C00087E
:10A64000064C000838B505464FF0FF10FFF7E6FA54
:10A65000E720FFF753FB0C4B0024A3F84240FFF721
:10A66000B1FF0A4820228562C2610462074C216A58
:10A67000E369994207D205EB013000F0F2F9206A54
:10A68000421C2262F2E738BD78020020C02200207E
:10A690002DE9F04106460F464FEA91080024444553
:10A6A00016D056F824201748174D0270C2F3072120
:10A6B000C2F30743EA62120E4170C270A96A042213
:10A6C000837000F065F9A86A0134011DA962E6E70C
:10A6D000BB0711D056F824300A480B4AC3F30721B0
:10A6E0004170C3F30741D362037081701B0E916AFE
:10A6F0000422C37000F04CF9E720BDE8F041FFF7F9
:10A7000047BB00BFA42C0020C022002008B5074B87
:10A710000524A3F84040FFF755FF2820214600F00C
:10A72000C9FB0020FFF720FFFFF710F97802002097
:10A730004FF480514FF4937200F07DB84FF4005104
:10A740004FF4197200F077B8034BB3F84200421E81
:10A75000514251EB0200704778020020024B002268
:10A76000A3F84220FFF72EBF7802002070B50E46F6
:10A77000054600F0BDFBB3082C461A46013A0434E6
:10A78000511C114905D054F8040C90FAA0F008604F
:10A79000F4E705EB8303086890FAA0F106F00306DE
:10A7A0009E19B3420ED013F8014B0822614011F0FC
:10A7B000010F4FEA510416BF044921466140013A96
:10A7C000F5D1EEE7C84370BD003002402083B8EDFC
:10A7D00010B504460A48022100F037FF0028F9D0DE
:10A7E0000748214600F02CFF0548012100F02DFF0D
:10A7F0000028F9D0024800F025FFC0B210BD00BF0C
:10A800000038004070B5FFF7BBFD9F20FFF7E0FF69
:10A81000FF20FFF7DDFF0446FF20FFF7D9FF0546C5
:10A82000FF20FFF7D5FF2D020646FFF7C7FD45EADB
:10A830000440304370BD70B50C4615460646FFF720
:10A840009FFD0320FFF7C4FFC4F30740FFF7C0FFDD
:10A85000C4F30720FFF7BCFFE0B2FFF7B9FF3DB13B
:10A86000FF20FFF7B5FF013D06F8010BADB2F6E79B
:10A87000BDE87040FFF7A2BD08B5FFF781FD0620D7
:10A88000FFF7A6FFBDE80840FFF798BD08B5FFF742
:10A8900077FD0420FFF79CFFBDE80840FFF78EBD61
:10A8A00008B5FFF793FDFFF7F1FFFFF7ABFF104B84
:10A8B000984202D04C3B984219D1FFF761FD8020AD
:10A8C000FFF786FFFFF77AFDFFF75AFD5020FFF7ED
:10A8D0007FFFFFF773FDFFF753FD0120FFF778FFC0
:10A8E0000020FFF775FFBDE80840FFF767BD08BD12
:10A8F0008D25BF0008B5FFF743FD0520FFF768FF72
:10A90000FF20FFF765FFC307FAD4BDE80840FFF753
:10A9100055BD70B50D4616460446FFF7ADFFFFF76F
:10A920002FFDAD20FFF754FFC5F30740FFF750FFA1
:10A93000C5F30720FFF74CFFE8B2FFF749FF207887
:10A94000FFF746FF6078FFF743FFFFF737FDFFF79C
:10A95000D1FFA51C2C4602342B1BF01881B289B103
:10A96000FFF70EFDAD20FFF733FF14F8020CFFF7E1
:10A970002FFF14F8010CFFF72BFFFFF71FFDFFF768
:10A98000B9FFE8E7FFF71AFDBDE87040FFF77EBFAB
:10A990002DE9F84F11F0FF0906460D4617464FEA1C
:10A9A00012381DD1B8F1000F03D1304629463A467E
:10A9B00051E004465FFA89F2A81B904504EB0001C0
:10A9C00009D020464FF48052FFF7A3FF04F58054CE
:10A9D00009F10109EEE74FEA08317018491939E029
:10A9E000C9F10004E4B2B8F1000F0DD1D2B2A24215
:10A9F000DBD902EB09035FFA83F92246FFF789FFEF
:10AA0000301961194A4626E0171B2246FFF781FFDD
:10AA1000BFB24FEA1739651934195FFA89FB5FFA3B
:10AA200087FAA0460026F3B2291B9B45414408D073
:10AA300040464FF48052FFF76CFF08F5805801360E
:10AA4000F1E74FEA093904EB090009EB0501BAF116
:10AA5000000F04D0FAB2BDE8F84FFFF75ABFBDE8C7
:10AA6000F88F10B50446FFF707FFFFF789FC202099
:10AA7000FFF7AEFEC4F30740FFF7AAFEC4F30720BA
:10AA8000FFF7A6FEE0B2FFF7A3FEFFF797FCBDE8D5
:10AA90001040FFF72FBF00003A4B82B01A6842F017
:10AAA000010018605968384A0A405A60186820F056
:10AAB000847121F480321A60186820F480211960B2
:10AAC0005A684FF41F0122F4FE000022586099607A
:10AAD00000920192186840F480311960294B1A687D
