:020000040800F2
:1050000000500020AD910008398800083B88000856
:10501000458800084F8800085988000800000000F3
:10502000000000000000000000000000638800088D
:10503000658800080000000067880008698800088B
:10504000019200080192000801920008CD8A000830
:105050000192000801920008D9880008F988000828
:10506000198900084D8900086D890008019200081F
:10507000019200080192000801920008358B000897
:105080000192000801920008798800080192000846
:10509000398B000801920008019200088D890008F0
:1050A000019200080192000801920008558A000848
:1050B0009D8A0008AD8A0008BD8A0008A9880008FA
:1050C000B98800080192000801920008C988000808
:1050D0000192000889880008998800080192000858
:1050E000DD890008F58A0008019200080000000030
:1050F00000000000000000000000000000000000B0
:0C51000000000000000000005FF808F153
:1051100081F0004102E000BF83F0004330B54FEA68
:1051200041044FEA430594EA050F08BF90EA020FD5
:105130001FBF54EA000C55EA020C7FEA645C7FEA68
:10514000655C00F0E2804FEA5454D4EB5555B8BF8B
:105150006D420CDD2C4480EA020281EA030382EAFC
:10516000000083EA010180EA020281EA0303362D8E
:1051700088BF30BD11F0004F4FEA01314FF4801C61
:105180004CEA113102D0404261EB410113F0004F73
:105190004FEA03334CEA133302D0524263EB43032A
:1051A00094EA050F00F0A780A4F10104D5F1200EC8
:1051B0000DDB02FA0EFC22FA05F2801841F1000123
:1051C00003FA0EF2801843FA05F359410EE0A5F1F7
:1051D00020050EF1200E012A03FA0EFC28BF4CF028
:1051E000020C43FA05F3C01851EBE37101F00045DE
:1051F00007D54FF0000EDCF1000C7EEB00006EEBEB
:105200000101B1F5801F1BD3B1F5001F0CD3490874
:105210005FEA30004FEA3C0C04F101044FEA4452CB
:1052200012F5800F80F09A80BCF1004F08BF5FEA52
:10523000500C50F1000041EB045141EA050130BD32
:105240005FEA4C0C404141EB010111F4801FA4F1D5
:105250000104E9D191F0000F04BF01460020B1FA2A
:1052600081F308BF2033A3F10B03B3F120020CDA62
:105270000C3208DD02F1140CC2F10C0201FA0CF040
:1052800021FA02F10CE002F11402D8BFC2F1200CA5
:1052900001FA02F120FA0CFCDCBF41EA0C0190405B
:1052A000E41AA2BF01EB0451294330BD6FEA0404A4
:1052B0001F3C1CDA0C340EDC04F11404C4F120028F
:1052C00020FA04F001FA02F340EA030021FA04F3A1
:1052D00045EA030130BDC4F10C04C4F1200220FAF8
:1052E00002F001FA04F340EA0300294630BD21FA36
:1052F00004F0294630BD94F0000F83F4801306BFFC
:1053000081F480110134013D4EE77FEA645C18BFEF
:105310007FEA655C29D094EA050F08BF90EA020F86
:1053200005D054EA000C04BF1946104630BD91EA7E
:10533000030F1EBF0021002030BD5FEA545C05D181
:105340004000494128BF41F0004130BD14F58004C0
:105350003CBF01F5801130BD01F0004545F0FE4134
:1053600041F470014FF0000030BD7FEA645C1ABF69
:10537000194610467FEA655C1CBF0B46024650EAA0
:10538000013406BF52EA033591EA030F41F40021CC
:1053900030BD00BF90F0000F04BF0021704730B552
:1053A0004FF4806404F132044FF000054FF0000127
:1053B00050E700BF90F0000F04BF0021704730B5E8
:1053C0004FF4806404F1320410F0004548BF4042BD
:1053D0004FF000013EE700BF42004FEAE2014FEA12
:1053E00031014FEA02701FBF12F07F4393F07F4FED
:1053F00081F06051704792F0000F14BF93F07F4F1F
:10540000704730B54FF4607401F0004521F0004161
:1054100020E700BF50EA010208BF704730B54FF0E7
:1054200000050AE050EA010208BF704730B511F0EC
:10543000004502D5404261EB41014FF4806404F124
:1054400032045FEA915C3FF4DCAE4FF003025FEAA6
:10545000DC0C18BF03325FEADC0C18BF033202EB2E
:10546000DC02C2F1200300FA03FC20FA02F001FA88
:1054700003FE40EA0E0021FA02F11444C1E600BF27
:1054800070B54FF0FF0C4CF4E06C1CEA11541DBFDA
:105490001CEA135594EA0C0F95EA0C0F00F0DEF8A5
:1054A0002C4481EA030621EA4C5123EA4C5350EA8A
:1054B000013518BF52EA033541F4801143F48013DB
:1054C00038D0A0FB02CE4FF00005E1FB02E506F06C
:1054D0000042E0FB03E54FF00006E1FB03569CF0C1
:1054E000000F18BF4EF0010EA4F1FF04B6F5007FC7
:1054F00064F5407404D25FEA4E0E6D4146EB060639
:1055000042EAC62141EA55514FEAC52040EA5E50C1
:105510004FEACE2EB4F1FD0C88BFBCF5E06F1ED86B
:10552000BEF1004F08BF5FEA500E50F1000041EBA2
:10553000045170BD06F0004646EA010140EA02004F
:1055400081EA0301B4EB5C04C2BFD4EB0C0541EA71
:10555000045170BD41F480114FF0000E013C00F386
:10556000AB8014F1360FDEBF002001F0004170BDAA
:10557000C4F10004203C35DA0C341BDC04F11404C3
:10558000C4F1200500FA05F320FA04F001FA05F24F
:1055900040EA020001F0004221F0004110EBD3701C
:1055A00021FA04F642EB06015EEA430E08BF20EA48
:1055B000D37070BDC4F10C04C4F1200500FA04F3EB
:1055C00020FA05F001FA04F240EA020001F000417D
:1055D00010EBD37041F100015EEA430E08BF20EAF0
:1055E000D37070BDC4F1200500FA05F24EEA020E38
:1055F00020FA04F301FA05F243EA020321FA04F067
:1056000001F0004121FA04F220EA020000EBD3701D
:105610005EEA430E08BF20EAD37070BD94F0000F1D
:105620000FD101F00046400041EB010111F4801F51
:1056300008BF013CF7D041EA060195F0000F18BF02
:10564000704703F00046520043EB030313F4801F3E
:1056500008BF013DF7D043EA0603704794EA0C0FF8
:105660000CEA135518BF95EA0C0F0CD050EA41060E
:1056700018BF52EA4306D1D181EA030101F000418B
:105680004FF0000070BD50EA410606BF10461946B3
:1056900052EA430619D094EA0C0F02D150EA0136BF
:1056A00013D195EA0C0F05D152EA03361CBF104600
:1056B00019460AD181EA030101F0004141F0FE419F
:1056C00041F470014FF0000070BD41F0FE4141F423
:1056D000780170BD70B54FF0FF0C4CF4E06C1CEA23
:1056E00011541DBF1CEA135594EA0C0F95EA0C0FD8
:1056F00000F0A7F8A4EB050481EA030E52EA033593
:105700004FEA013100F088804FEA03334FF08055B3
:1057100045EA131343EA12634FEA022245EA1115E0
:1057200045EA10654FEA00260EF000419D4208BF91
:10573000964244F1FD0404F5407402D25B084FEA3E
:105740003202B61A65EB03055B084FEA32024FF4EA
:1057500080104FF4002CB6EB020E75EB030E22BF47
:10576000B61A754640EA0C005B084FEA3202B6EB07
:10577000020E75EB030E22BFB61A754640EA5C00B6
:105780005B084FEA3202B6EB020E75EB030E22BF46
:10579000B61A754640EA9C005B084FEA3202B6EB47
:1057A000020E75EB030E22BFB61A754640EADC0006
:1057B00055EA060E18D04FEA051545EA16754FEA68
:1057C00006164FEAC30343EA52734FEAC2025FEA86
:1057D0001C1CC0D111F4801F0BD141EA00014FF015
:1057E00000004FF0004CB6E711F4801F04BF0143E6
:1057F0000020B4F1FD0C88BFBCF5E06F3FF6AFAE02
:10580000B5EB030C04BFB6EB020C5FEA500C50F191
:10581000000041EB045170BD0EF0004E4EEA113114
:1058200014EB5C04C2BFD4EB0C0541EA045170BD1B
:1058300041F480114FF0000E013C90E645EA060E5F
:105840008DE60CEA135594EA0C0F08BF95EA0C0F8D
:105850003FF43BAF94EA0C0F0AD150EA01347FF4D5
:1058600034AF95EA0C0F7FF425AF104619462CE7AC
:1058700095EA0C0F06D152EA03353FF4FDAE10460F
:10588000194622E750EA410618BF52EA43067FF460
:10589000C5AE50EA41047FF40DAF52EA43057FF4F0
:1058A000EBAE12E74FF0FF3C06E000BF4FF0010CFB
:1058B00002E000BF4FF0010C4DF804CD4FEA410C5F
:1058C0007FEA6C5C4FEA430C18BF7FEA6C5C1BD02C
:1058D00001B050EA410C0CBF52EA430C91EA030FAD
:1058E00002BF90EA020F0020704710F1000F91EA0A
:1058F000030F58BF994208BF90422CBFD8176FEAD8
:10590000E37040F0010070474FEA410C7FEA6C5CA5
:1059100002D150EA013C07D14FEA430C7FEA6C5CAC
:10592000D6D152EA033CD3D05DF8040B704700BFD8
:105930008446104662468C461946634600E000BF26
:1059400001B5FFF7B7FF002848BF10F1000F01BDF8
:105950004DF808EDFFF7F4FF0CBF012000205DF8C3
:1059600008FB00BF4DF808EDFFF7EAFF34BF012048
:1059700000205DF808FB00BF4DF808EDFFF7E0FFE1
:1059800094BF012000205DF808FB00BF4DF808ED32
:10599000FFF7CEFF94BF012000205DF808FB00BF99
:1059A0004DF808EDFFF7C4FF34BF012000205DF87B
:1059B00008FB00BF4FEA410212F5001215D211D5C3
:1059C0006FF47873B3EB625212D94FEAC12343F0FC
:1059D000004343EA505311F0004F23FA02F018BF7E
:1059E000404270474FF00000704750EA013005D147
:1059F00011F0004008BF6FF0004070474FF000000A
:105A0000704700BF014B0360704700BF7852010828
:105A100070B5012188B0044601F0C6FEA0F1300542
:105A2000072D37D803226846214601F0E5FE1C49C0
:105A300004A801F03FFE204604A901F0A3FE06469B
:105A400004A801F0F5FD1EB1ADB22846002110E01A
:105A5000144904A801F02EFE204604A901F092FE8C
:105A6000044604A801F0E4FD74B10A35ADB228463D
:105A7000314600F0C3FF684601F0C5FEC1B22846BA
:105A800001F0F2F9012401E06FF00104684601F031
:105A9000CFFD01E04FF0FF34204608B070BD00BFDD
:105AA000B8B20108BAB201087FB50121054601F07C
:105AB0007BFEA0F13004072C23D81549684601F07D
:105AC000F9FD2846694601F05DFE0646684601F08C
:105AD000AFFD6EB90F49684601F0ECFD28466946F6
:105AE00001F050FE0546684601F0A2FD65B10A349A
:105AF000A4B22046012100F081FF204601F01AF9EE
:105B000004E04FF0FF3001E06FF0010004B070BD21
:105B1000B8B20108BAB20108F0B5012185B0044657
:105B200001F042FEA0F13006072E49D86846214612
:105B30000322072301F03AFE6846264901F0F8FDEA
:105B40000546684601F074FD7DB96846214603228A
:105B5000062301F02BFE68461F4901F0E9FD0746C8
:105B6000684601F065FD0FB92DE001251B49684627
:105B700001F0A0FD2046694601F004FE0746684694
:105B800001F056FD1FB1B6B23046002110E01449B5
:105B9000684601F08FFD2046694601F0F3FD04469A
:105BA000684601F045FD8CB10A36B6B2304639463A
:105BB00000F024FF3046294600F0ACFF012007E04A
:105BC0004FF0FF3004E06FF0010001E06FF00200E1
:105BD00005B0F0BDBCB20108C1B20108B8B20108FD
:105BE000BAB201087FB50121054601F0DDFDA0F143
:105BF0003004072C23D81549684601F05BFD284680
:105C0000694601F0BFFD0646684601F011FD6EB918
:105C10000F49684601F04EFD2846694601F0B2FD85
:105C20000546684601F004FD65B10A34A4B2204679
:105C3000032100F0E3FE204600F0B8FF04E04FF03F
:105C4000FF3001E06FF0010004B070BDB8B2010890
:105C5000BAB20108034B10B50446036000F0F8FA2D
:105C6000204610BD7852010808B50948094900F0DE
:105C7000DDFB0948094900F0D9FB0948094900F052
:105C8000D5FB09480949BDE8084000F0CFBB00BF7B
:105C9000C5B20108E55B0008D1B20108195B000834
:105CA000DEB20108A95A0008E9B20108115A000839
:105CB0007047000013B5084C002100910A460B46BE
:105CC000204601F0ADFB0549054A204602B0BDE87B
:105CD00010400CF0D3BF00BF80040020055A00081C
:105CE000F005002010B50131002393420ED0040FBF
:105CF000092C01D8303400E0373401F8014C01336D
:105D00000024000101F8024BDBB2EEE710BD0000F9
:105D10001F4B10B51A88032A04D8042001461880A6
:105D200006F0CEFE4FF000604FF4A04106F016FEE4
:105D30001848012421460470174807F0DDF805F0E3
:105D4000B3FE05F09BFB2146402007F09DF96FF064
:105D50007F4005F0FFFCE72005F078FD0F490C704F
:105D600005F0D4FB7D2007F0B3F918B10C4B1C7083
:105D700007F0C2F940F6B83005F020FC06F072F9E1
:105D800006F0ECFB074A084901201070087010BDAE
:105D9000B81600209416002000043000D81400200B
:105DA000302000204C16002042160020304B10B549
:105DB0001A88042A04D805210420198006F080FEE0
:105DC0002C48017811B12C4802F0ECFA294C2378C8
:105DD00053B127480288052A04D8062101800420EF
:105DE00006F06EFE02F096FB217861B1234C237819
:105DF0004BB92348027832B122490C781CB9224BA6
:105E000018780028E2D0214A11780029DED1204CF0
:105E10002378002BDAD11C480278012A0FD01D49C3
:105E200069B1134C2388062B04D807210420218054
:105E300006F046FEFFF718FF134A012010701649BE
:105E40000029C3D00A4C2388072B04D8082104203A
:105E5000218006F035FEFFF72BFF20880828B5D8F3
:105E6000034A09210420118006F02AFEAEE700BF94
:105E7000B81600204C160020D1660008011600203C
:105E800042160020D614002088040020D7140020D9
:105E900030200020695C0008B15C0008524B70B5EE
:105EA0001A6812B11868411E1960504B1A783AB13D
:105EB0004F4A1078002829D04E49002949D125E0C1
:105EC0004D4C206810B12368591E0FE04B490B78E8
:105ED000E3B94B4A1078C8B94A490B78B3B94A4D6F
:105EE0002A782AB1E72005F02BFD142121600DE06E
:105EF0004648017800292FD1E72005F0D5FC444819
:105F00003D4B0178002935D032221A603F4B1A7878
:105F100032B1404D287818B92EE041684B1C4360DF
:105F20003D490B68B3F57A7F0FD300230B6007F070
:105F300041F83A484FF6FF7102888A4253D00180F7
:105F40000420BDE8704006F0BBBD0868421C0A6032
:105F500070BD00F021FCD9E7314B1A78002ACBD074
:105F60004FF6FF7005F0F6FBE72005F06FFC01200F
:105F70002870CBE76422C8E721490B7893B1294800
:105F800047F22F5243689342C7D9BFF34F8F264C35
:105F90002648E56805F4E06646EA0002E260BFF3E1
:105FA0004F8FFEE7154E347834B9204605F0DCFDFE
:105FB00040F6B73290420DD8002005F0D5FD41F6ED
:105FC00057318842ACD9002005F0D6FD184B01208E
:105FD0001870A5E7204605F0CFFD2A78002A9FD14A
:105FE000012131709CE770BD38200020741600201C
:105FF000240800209967000834200020081500209C
:10600000D7140020D9140020D81400204C160020EA
:10601000D5140020011600203C200020B8160020D6
:10602000D61400208804002000ED00E00400FA05EA
:106030000615002008B5094B186005F0BDFF0020CB
:1060400006F002F8064805F03DFA05F0CBFF05F032
:10605000E9FFBDE8084007F057BF00BFBC020020C1
:10606000A0860100074B1868052808D106490A7A5E
:10607000012A04D1887A0B7BC11AC8B2704700206C
:10608000704700BFBC160020880400200D4B10B5DF
:106090001868052813D10C4C217A01290FD1628987
:1060A000A389D01A012804D100210320217208F00D
:1060B00096F8A389E218591C907BA18110BD4FF07E
:1060C000FF3010BDBC1600208804002008B50C4B22
:1060D0001968052912D10B4B1A6D991881F85400D3
:1060E000501CB0F5807F08BF0020186505F034FE15
:1060F00020B16420BDE8084005F0E4B908BD00BF48
:10610000BC1600208804002070B5234A92F8543150
:10611000012B3FD0D2F85801B0F5807F02D1002189
:10612000C2F85811D2F85831126D1B48934203D16E
:10613000002180F8541170BD8CBFC3F58072C3EB91
:106140000202154CC0F85C21D4F85C5199B2402D84
:1061500007D94033403DC4F85831C4F85C5140265B
:1061600006E0E8180023AEB2C4F85801C4F85C3168
:106170000A4A01255018C021324684F8545107F0CC
:10618000A5FF2846314608F0ABF82846BDE8704028
:1061900008F014B870BD00BF88040020DC040020A3
:1061A000094B10B593E814000833186810180AD08A
:1061B00008220649FFF796FD054920460422BDE85E
:1061C0001040FFF78FBD10BDE8F7FF1F6A020020E7
:1061D0007A02002013B5084C002100910A460B46B4
:1061E000204601F01DF90549054A204602B0BDE8E8
:1061F00010400CF043BD00BFE8050020055A000820
:10620000F005002038B50D460446AC4203D254F8E0
:10621000043B9847F9E738BD08B507480749FFF739
:10622000F1FF07480749FFF7EDFF07480749BDE8B9
:106230000840FFF7E7BF00BF60B8010860B8010879
:1062400060B80108BCB80108BCB80108BCB80108B6
:106250000CF0B6BD08B5072006F0AAFAFEE700006C
:10626000074A08B51368074918188842106004D90E
:10627000082006F09DFA0CF03BFD184608BD00BF53
:1062800000000020004800204FF0FF307047012040
:10629000704708B50C2006F08BFAFEE7014B186832
:1062A000704700BFF4050020064B0246582000FB53
:1062B000013101F1080303CB106051601868906050
:1062C000704700BFF4050020014BD3F8640170470C
:1062D000F4050020064B0246142000FB013101F5B5
:1062E000B67303CB1060516018689060704700BFB0
:1062F000F40500200E4B2DE9F041D3F8647180467F
:106300000024BC4211DA14256543094E4146701938
:1063100000F5B6700C220CF0FCFE20B97519D5F80A
:106320006801BDE8F0810134EBE70020BDE8F081B1
:10633000F40500202DE9F04788B0814668460D46F7
:1063400001F0B8F91E4B0024D3F800A054452DDA13
:1063500055B3582666431A4F494607F1040808EB1F
:10636000060004300C220CF0D4FEE8B928460CF0EC
:10637000C8FE06F11001402834BF0246402208EB57
:10638000010029460CF08BFDBE19012286F8582029
:10639000694604A8746801F0AFF904A8A047044650
:1063A00004A801F045F903E00134CFE74FF0FF34D2
:1063B000684601F03DF9204608B0BDE8F08700BF0F
:1063C000F405002038B50546064C28B105F064FAFE
:1063D000012384F8303238BD05F00CFA84F83052CD
:1063E00038BD00BFF4050020024B00221A6005F002
:1063F000D5BE00BF8C040020034A0448002313705C
:10640000036005F003BF00BFD71400208C040020F8
:10641000044B0549002001221A7008604FF4C02087
:1064200005F096BED71400208C0400202DE9F84F0B
:1064300004468946002941D000283FD0204B1D68E2
:10644000042D3BD00027AF421E4E4FF058080FDA04
:1064500008FB07F856F80810494507D106EB080273
:10646000101D21460C220CF054FE38B30137EAE728
:1064700008FB05F8A6F1040A0AEB080708F110006A
:10648000C7F804900021402230180CF02BFD06EBD9
:106490000801081D0C2200210CF024FD2068616811
:1064A00007F1080203C2A3680020013507F1040BBD
:1064B00087F858001360543746F8045CBDE8F88F3D
:1064C000F4050020F805002073B5002B0CBF6523F0
:1064D000452306460D461446009331462A46234678
:1064E000014808F029F97CBD2808002010B5064CA9
:1064F000206803F0A3FA2368013303D0411E484209
:10650000484110BD012010BD04000020F0B5274B0C
:106510000646187887B00F46002843D124490A78E8
:10652000002A3FD1FFF7E2FF044600283AD1214D6F
:106530008DF80C002B688DF80D008DF80E008DF88D
:106540000F0006A9580901EB800203F01F0101208A
:1065500000FA01F052F80C1C0494014342F80C1CA0
:1065600004A841F288320592009003A9581C2246E3
:10657000234604F035F9002816DD2B6806A95D09CD
:1065800001EB850050F80C5C03F01F0245FA02F5A0
:1065900015F0010008D0184631463A46234604F06B
:1065A000BFF901E04FF0FF3007B0F0BD001600204A
:1065B000011600200400002038B50B4B0546187862
:1065C0000C4668B909490A7852B9FFF78FFF0346AC
:1065D00030B9074829462246006804F01FFA38BD42
:1065E0004FF0FF3038BD00BF00160020011600201C
:1065F0000400002030B51F48ADF57B7D07F0E0FEBC
:10660000002834D11C481D4B06901D4D1D48059394
:106610001D491E4A1E4B0A950C901E4D1E4807919F
:1066200008920B931D491E4A1E4B0F9511901E4D4B
:106630001E481F4C0D910E921E491F4A10931F4B6E
:106640001495169061AD17A81291139215930994A1
:1066500004900EAC039505F01FFE284605F022FEBF
:1066600000940448164903AA05AB07F0B0FE0DF5E7
:106670007B7D30BD280800200D650008B965000845
:10668000E9630008ED6F000811640008F963000871
:10669000C5630008A9620008C9620008E178000823
:1066A0009D62000835630008F5620008C5C2000855
:1066B000D5C20008D5620008A5690008B1C200086B
:1066C000E8F7FF1F014808F002BE00BF28080020BD
:1066D00030B5022011228DB0014603F0CBFF051E1C
:1066E00028DB154907A807F0B8FF0223162000246D
:1066F000ADF80C308DF80E003321E0220123BB20D1
:106700008DF811408DF80F108DF810208DF8123093
:106710008DF813000324102203A900910192002395
:106720001322284607A904F083F9013CF3D1284637
:1067300003F0CEFF0DB030BDE8F7FF1F30B5134CAE
:1067400087B0FFF757FF204607F03DFE204608F0D0
:106750004FFA0546FFF7BCFF03A803F05BFB9DF86B
:106760000D209DF80C300092082104A8084A0CF076
:1067700083FC04A93C2201230648FFF7A5FE20461E
:1067800007F0BFFF284607B030BD00BF2808002033
:10679000F5B20108FBB2010838B5114CD4F8585BCA
:1067A0002DB1D4F8581B4B1EC4F8583B38BDD4F853
:1067B0005C3B0C4A52F8230004F0F4FFE72005F09C
:1067C00045F8094A6420D4F85C1BC4F8580B50689B
:1067D0004B1C8342C4F85C3BA8BFC4F85C5B38BD6B
:1067E000F40500201C520108040000207FB502209F
:1067F0000121062203F03EFF041E23DB00200822B5
:10680000022335218DF802004FF4FA50ADF8003024
:106810008DF803108DF804208DF805208DF80620E2
:106820008DF8072001F0AEFC69460646102220468E
:1068300003F0AAFF0546304601F0A4FC204603F011
:1068400047FF01E04FF0FF35284604B070BD00005F
:1068500010B5064C2068002805DB03F039FF4FF027
:10686000FF33236010BD002010BD00BF04000020D6
:1068700030B5A7B0FFF7ECFF02200121062203F09C
:10688000F9FE334B0028186052DB324802221621F1
:106890003324A0F8602B80F8621B80F8634B05A8B6
:1068A00005F0C6FC9DF814300025009533B1012B8E
:1068B00017D0294B01A803F1100502E0069A0092B7
:1068C00014E0024659681868083303C2AB42104608
:1068D000F7D101A906AC0FC907C424F8023B1B0C71
:1068E00023700A24009D0DB9013C24D1009808B9F9
:1068F0001A490091009B174C180A1D0E1A0C84F8B7
:10690000660B4FF4FA5084F8673B84F8645B84F8B4
:10691000652B01F037FC0E4905461022086804F586
:10692000366103F031FF0446284601F02BFC0CE0F1
:106930004FF0FF3409E07E2106A80CF001FC6A4606
:1069400081B206A803F0EAFECCE7204627B030BDAE
:1069500004000020F405002016B3010804E5D03639
:106960000F4B2DE9F041D3F8647180460024BC42FE
:1069700011DA142565430A4E4146701900F5B670C8
:106980000C220CF0C6FB20B9751995F87801BDE80A
:10699000F0810134EBE74FF0FF30BDE8F08100BF3C
:1069A000F405002008B5FFF7DBFF0138082803D8FD
:1069B000024B1918087F08BD022008BD1C520108AF
:1069C00037B50B4C002104F537650B4600910A469C
:1069D000284600F025FD28460649074A0CF04EF9E6
:1069E00004F50D7003B0BDE8304007F0D9BC00BF1E
:1069F000F4050020055A0008F005002014282DE9B0
:106A0000F34104460E467CD8FF297AD000F0D8FD29
:106A100028B10D2C75D00F2C73D00E2C71D000F036
:106A200093FC08B1012C6CD901F0E2F818B1A4F183
:106A30001203012B65D918206043334D33492F5879
:106A40002A188F42B2F8048001D1042003E0304BB1
:106A50009F4203D10820012106F022FBADF80480FB
:106A6000062E4AD8DFE806F004121A222A35410021
:106A7000254B182101FB043410208DF80700032258
:106A80000020A0738DF80620083436E00421182376
:106A90008DF8071003FB045401212DE04820182233
:106AA0008DF8070002FB0454022125E02821182359
:106AB0008DF8071003FB045403211DE0124A18232C
:106AC00003208DF807308DF8060003FB0424042111
:106AD00012E00D491C230320182202FB04148DF838
:106AE00007308DF80600052106E0182202FB045449
:106AF00000208DF807000621A173384601A906F091
:106B00009BF9BDE8FC8100BF0C000020000801409B
:106B1000000C0140142870B504460E4642D8224BA2
:106B2000182202FB0030817B01293BD0022939D099
:106B3000032937D0062935D0FF2933D000F040FD96
:106B400030B10D2C2ED00F2C2CD00E2C00D170BDBE
:106B500000F0FAFB10B1012C00D870BD01F048F82C
:106B600020B1A4F11202012A00D870BD0E4D1823E5
:106B700003FB0450817B042903D120460021FFF749
:106B80003DFF012E06D11822544328192B59818824
:106B9000196170BD36B91822544328192B598188C0
:106BA000596170BD70BD00BF0C000020142838B5BD
:106BB000044618D81E4B182202FB0030817BFF29A7
:106BC00011D004290FD005290DD000F0F9FC28B10F
:106BD0000D2C08D00F2C06D00E2C04D000F0B4FBE6
:106BE00018B1012C01D8002038BD01F001F818B10E
:106BF000A4F11202012AF6D90D4D182303FB04500B
:106C0000817B062906D195F8F811FF29EBD02046A3
:106C1000FFF7F4FE182254432D19054BAA7BA988CF
:106C2000185912B906F05EF938BD06F055F938BDAD
:106C30000C000020F0B54FF4004091B006F0FCF9D4
:106C40000120014606F020FA01214FF4C06006F051
:106C500027FA334805F058FF3248334B0A21002405
:106C60008022069008914FF400754FF400664FF4AF
:106C700000572B4805A905930A920B950C96012500
:106C80000E974FF460264FF40027079409940D9453
:106C90000F9405F0B1FF2548694600978DF8044030
:106CA0008DF80540029603948DF8105005F060FEB3
:106CB0001F48694600978DF804408DF805400296FC
:106CC00003948DF8105005F053FE1848294605F03E
:106CD00073FE164805F082FE144805F084FE002875
:106CE000FAD1124805F083FE104805F085FE002811
:106CF000FAD10F48012105F05FFE0D4805F06EFE48
:106D00000B4805F070FE0028FAD1094805F06FFE27
:106D1000074805F071FE0028FAD111B0F0BD00BFA0
:106D200008000240701100204C2401400024014062
:106D300000280140092838B5044601D80A34A4B215
:106D400000F03EFC38B10D2C01D1002038BD0F2CD5
:106D5000FBD00E2CF9D000F0F7FA00F049FF18B183
:106D6000A4F11203012BF0D9142CEED8394D1820C0
:106D700000FB04539A79FF2AE7D095F8FA11914263
:106D800006D0987B062185F8F8012046FFF736FEED
:106D900095F8FB51012D05D1FFF74CFF2D4B00223B
:106DA00083F8FB212B4D182101FB045495F8FA01BF
:106DB000A17988420FD02848012295F8F93105F0D1
:106DC00028FE01222548A17995F8F93105F021FE28
:106DD000A27985F8FA210021214B002043F82100F7
:106DE00001310A29F8D11F4805F039FF1B4801215C
:106DF00005F05CFE1B48012105F01EFF164801212D
:106E000005F0E3FD1448012105F0FAFD022005F02C
:106E100029FF0028FAD0022005F032FF0E48002199
:106E200005F0D3FD0F48002105F006FF00231A46A8
:106E30000B4951F8230051F82310013389B201EBBB
:106E400010400A2B0244F3D11421B2FBF1F080B2BE
:106E500038BD00BF0C000020002401400028014084
:106E600070110020080002402DE9F041142888B07C
:106E700004460D4600F2AD80574B182202FB00304D
:106E80008168002900F0A58000F09AFB40B10D2C2C
:106E900000F09F800F2C00F09C800E2C00F0998059
:106EA00000F052FA10B1012C40F2938000F0A0FEE5
:106EB00020B1A4F11202012A40F28B80464B182027
:106EC00000FB04318A7B12B1042A40F08280434ED9
:106ED000434837684BF680326A43B7FBF0F3591EDC
:106EE0000120FF258EB2014692FBF5F706F0D8F897
:106EF00004212046FFF782FD374B182000FB0431A8
:106F00008D68BFB2B5F1804F02D10120014608E083
:106F1000344A0220954203D03348854203D10420ED
:106F2000012106F0C9F82C4D182101FB04554BF640
:106F30007F33ADF80460A868002601A9ADF80A60A7
:106F4000ADF80660ADF8083006F0AAF9ADF81860A3
:106F5000AE896022012005F10808ADF81020ADF8D7
:106F60001200ADF8167046B9A86804A906F0E2F957
:106F7000A868082106F01EFB1FE0042E08D1A868AF
:106F800004A906F01BFAA868082106F01BFB14E010
:106F9000082E08D1A86804A906F054FAA86831465A
:106FA00006F01AFB09E00C2E07D1A86804A906F028
:106FB0008BFAA868082106F017FB074B182101FB84
:106FC00004340121A06806F0E9FAA068012106F066
:106FD000C2FA08B0BDE8F0810C000020B003002028
:106FE00000366E01000400400008004005F0ACB916
:106FF00013B5084C002100910A460B46204600F0CC
:107000000FFA0549054A204602B0BDE810400BF0D2
:1070100035BE00BF98110020055A0008F005002079
:1070200038B5194B05461C88B3F80024A4B290B2B9
:1070300028B94EF6EE63E01A18BF012006E00CBB3B
:107040004EF6EE63C41A624252EB0400840204F16D
:10705000006201300D4B02F580448202D018844258
:107060000ED22268013209D1204605F0ABFE042879
:1070700009D1A01C294605F0A5FE38BD0434EEE771
:10708000802038BDAB2038BD00400008FE3F00081E
:1070900008B5084805F0B2FE04280AD100210548C9
:1070A00005F090FE042804D10348BDE8084005F02F
:1070B000A5BE08BD00400008004400080F4B10B5F5
:1070C0001A8893B20E4A128892B21BB10AB1AB2051
:1070D00010BD01239C020B4BE3180B4AA2189342EC
:1070E0000AD91A8892B2824204D133F8020C08807D
:1070F000002010BD043BF0E7012010BD0040000857
:1071000000440008FE43000802400008F8B5434E62
:1071100005F018FE424D34884EF6EE61A4B22B887D
:107120008C4298B24FF6FF720FD0944202D0002CDE
:1071300042D070E000286AD088426CD1304605F019
:107140005DFE042869D1284632E048BB0446164655
:10715000344D35492B8831F8145098B2A84208BFF5
:10716000A6B232B2944203D10134642CF0D10FE0C4
:107170002D4F284607F1C801FFF7A0FF0128F3D0E3
:107180002846B7F8C810FFF74BFF0428ECD0F8BD2D
:107190000021224805F016FE04283ED1204837E0A1
:1071A000904238D1284605F029FE042835D13046D2
:1071B000002105F007FEF8BD00282CD09042EDD04C
:1071C00016461A4D18492B8831F8145098B2A84227
:1071D00008BFA6B232B2944203D10134642CF0D17C
:1071E0000FE0114F284607F1C801FFF767FF01289C
:1071F000F3D02846B7F8C810FFF712FF0428ECD0E8
:10720000F8BD0021064805F0DDFD042805D103483E
:1072100005F0F4FDF8BDFFF73BFFF8BD00400008A6
:107220000044000806400008A011002006440008A1
:1072300010B50446FFF76AFF0023044A22F8133012
:107240000133642BF9D1204610BD00BFA0110020EE
:107250000148FFF7EDBF00BF6A120020024B18780B
:107260005978401A704700BF6C120020064B5A78BC
:107270001978914204D99818013280785A70704771
:107280004FF0FF30704700BF6C120020054B5A785A
:107290001978914202D99818807870474FF0FF30E2
:1072A000704700BF6C12002070470000014B036064
:1072B000704700BF90520108034B10B504460360AD
:1072C000FEF7C6FF204610BD90520108F8B5094BE5
:1072D000054693F82200164650B10C468F18BC4262
:1072E00006D0296828468A6814F8011B9047F6E7FB
:1072F0003046F8BD6C12002010B50C4B012293F8FB
:1073000022408CB193F823401F2C02D94260002008
:1073100010BD93F824001C1884F82510411CC8B235
:1073200083F8240083F82300104610BD6C1200205F
:1073300000224260024A4FF47A7181600260704715
:107340005052010870477047014B93F8590070473D
:107350006C12002073B50E4C002104F164050D4E33
:107360000B4600910A46284600F05AF86C34324623
:10737000094928460BF082FC2046FFF7D9FF074950
:107380002046324602B0BDE870400BF077BC00BF2B
:107390006C120020F0050020055A0008AD720008AC
:1073A00008B5034B53F8200000B1804708BD00BF6B
:1073B000E812002013B5084C002100910A460B4644
:1073C000204600F02DF80549054A204602B0BDE8E8
:1073D00010400BF053BC00BF28130020055A0008D2
:1073E000F00500202DE9F041002407460E46254611
:1073F0003B1919790A22304600F0AFF82E21804659
:10740000304600F078F801344044032C0544EFD1B5
:107410003046F9790A2200F0A0F82818BDE8F0817A
:1074200030B58371044D9DF80C3004460560017140
:107430004271C37130BD00BF785201080548002178
:10744000054B017141718171C171044A04490360A6
:107450000BF014BC3013002078520108F005002016
:10746000055A000813B5084C002100910A460B4646
:107470002046FFF7D5FF0549054A204602B0BDE882
:1074800010400BF0FBBB00BF38130020055A00086A
:10749000F0050020014B0360704700BF90520108C7
:1074A000F8B506460C468F180025BC4207D0336855
:1074B00030469A6814F8011B90472D18F5E72846C6
:1074C000F8BD0000034B10B504460360FEF7C0FE94
:1074D000204610BD9052010838B505460C460846B6
:1074E00041B10BF00EFE2B680246DB6828462146B0
:1074F000984738BD38BD08B503689A68904708BDFD
:1075000070B500238AB08DF82430012A98BF0A2272
:107510000DF12303B1FBF2F505FB1211CCB2092CDE
:107520001E4601D8303400E03734E4B203F8014994
:107530002946002DEED13146FFF7CEFF0AB070BDCF
:1075400010B5044622B90268C9B29268904710BDCE
:10755000D2B2BDE81040FFF7D3BFFFF7F1BF000084
:1075600013B5084C002100910A460B462046FFF750
:1075700057FF0549054A204602B0BDE810400BF010
:107580007DBB00BF48130020055A0008F00500200D
:1075900013B5084C002100910A460B462046FFF720
:1075A0003FFF0549054A204602B0BDE810400BF0F8
:1075B00065BB00BF50130020055A0008F0050020ED
:1075C000014B587D704700BF5813002070470000E2
:1075D00013B5084C002100910A460B462046FFF7E0
:1075E0001FFF0549054A204602B0BDE810400BF0D8
:1075F00045BB00BF70130020055A0008F0050020AD
:1076000013B5084C002100910A460B462046FFF7AF
:1076100007FF0549054A204602B0BDE810400BF0BF
:107620002DBB00BF7C130020055A0008F005002088
:1076300010B5044600680BF0C3FB204610BD10B522
:107640000446006808B10BF0BBFB00232360A36075
:10765000636010BD38B504460D46006801310BF07B
:1076600089FC10B184E82100012038BD036810B501
:10767000044613B14068884207D22046FFF7EAFF6C
:1076800020B1A16809B922681170012010BD70B540
:107690000E46114604461546FFF7E8FF18B9204686
:1076A000FFF7CDFF04E0A560206831460BF021FD17
:1076B000204670BD38B500230446036043608360F4
:1076C00003730D4639B108460BF01BFD29460246EF
:1076D0002046FFF7DCFF204638BD884210B50B4638
:1076E000044607D0096819B19A68FFF7D0FF01E096
:1076F000FFF7A5FF204610BD002310B50446036028
:10770000436083600373FFF7E8FF204610BD38B580
:1077100005460C4641B108460BF0F3FC21460246F3
:107720002846FFF7B4FF01E0FFF789FF284638BD80
:10773000826808B50B4612B919B9012008BD11B904
:107740000368187802E000680BF0C8FCD0F1010073
:1077500038BF002008BD10B58B688468E41AA242C7
:107760000CD8006868B1096851B180181A460BF04E
:10777000D0FCD0F1010038BF002010BD002010BDAA
:10778000084610BD82688B689A4202D30022FFF738
:10779000E2BF002070478368994203D2006810B1AD
:1077A000405C704700207047FFF7F5BF9A422DE913
:1077B000F04107460D4614461E4601D9344616468A
:1077C00038460C49FFF776FFA86884420FD829682D
:1077D000864228BF0646002211F806808A552B688B
:1077E00038461919FFF793FF286800F806803846D5
:1077F000BDE8F081E0B4010810B58B680446FFF7DE
:10780000D5FF204610BD006808B10BF078BA70476C
:1078100013B5084C002100910A460B462046FFF79D
:10782000FFFD0549054A204602B0BDE810400BF0B7
:1078300025BA00BF84130020055A0008F005002077
:1078400013B5084C002100910A460B462046FFF76D
:10785000E7FD0549054A204602B0BDE810400BF09F
:107860000DBA00BF8C130020055A0008F005002057
:1078700038B51A4C94F92C30002B2DD094F82D00EB
:10788000002829D005F060FC94F82C2094F82D50A5
:1078900051B2002995FBF1F306DD012B0BDC511EE3
:1078A00084F82C10002407E0591C04DB013284F812
:1078B0002C20022400E00124084B041993F82D2009
:1078C000511E83F82D1005F073FC204605F050FC86
:1078D000BDE8384005F06CBC38BD00BF94130020F3
:1078E00010B5044605F030FC001B00F17F02FE2AB3
:1078F00008D905F05DFC204605F03AFCBDE81040D3
:1079000005F056BC054980EAE073A3EBE07381F80B
:107910002C00580081F82D0010BD00BF94130020EA
:1079200013B5084C002100910A460B462046FFF78C
:1079300077FD0549054A204602B0BDE810400BF02E
:107940009DB900BFC4130020055A0008F0050020AF
:1079500013B5084C002100910A460B462046FFF75C
:107960005FFD0549054A204602B0BDE810400BF016
:1079700085B900BFD0130020055A0008F00500208B
:1079800013B5084C002100910A460B462046FFF72C
:1079900047FD0549054A204602B0BDE810400BF0FE
:1079A0006DB900BFD8130020055A0008F00500206B
:1079B000014B0360704700BF90520108426D836D18
:1079C000D01A00F03F007047426D836D9A4203D099
:1079D000816D4018007D70474FF0FF307047426D59
:1079E000836D9A4209D0816D4218816D137D4A1CC6
:1079F00002F03F018165184670474FF0FF30704735
:107A0000D0F8A43070B504460E46186840F22771CD
:107A100005F02BFE28B9D4F89C20D4F8A0008242AF
:107A200013D1D4F89C506B1C03F03F05D4F8A02070
:107A3000954213D0EFF31080C30744D5D4F89C10BF
:107A4000D4F8A030994209D13DE0D4F8A410012225
:107A5000086840F2277105F0E0FDE2E7D4F8A430B1
:107A600040F22771186805F000FE0028DED0D4F837
:107A7000A4208021106805F0F2FD0028D6D0D4F8AB
:107A8000A4000022006840F2277105F0C6FDD4F87A
:107A9000A030D4F8A410E2180133086892F85C1002
:107AA000C4F8A03005F0D3FDD4F8A000D4F8A42089
:107AB00000F03F01C4F8A010106840F227710122C5
:107AC00005F0ABFDB2E7D4F89C20D4F8A410A018C0
:107AD00080F85C60C4F89C5001250868257440F269
:107AE00027712A4605F099FD284670BD10B5044659
:107AF000D4F89C20D4F8A0309A42F9D1207C10B957
:107B00000022227410BDD4F8A4100868402105F0AA
:107B1000A6FD0028F2D0F3E7034B10B5044603603E
:107B2000FEF796FB204610BD9052010810B540F2BA
:107B300025510446006805F098FD70B1206805F0F5
:107B40008AFDE369C0B21A6C511C01F03F02596C06
:107B50008A4202D0196C1A645854206840F2277186
:107B600005F083FDB8B1A3692068196C5A6C914285
:107B700006D140F227710022BDE8104005F04DBD4E
:107B80005A6C995C01325A6405F061FDA069436C3E
:107B900003F03F01416410BDF8B500254FF47A733E
:107BA0000446836045600B4804F15C07206048266A
:107BB00004F11400C4F8A41032468F61C86129464C
:107BC0000BF090F93846294632460BF08BF92574B4
:107BD0002046F8BDA85201080148FFF7A7BF00BF23
:107BE000080200200148FFF7A1BF00BF28020020C3
:107BF000014B187C704700BFE013002073B50E4C9A
:107C0000002104F114050D4E0B4600910A4628464A
:107C1000FFF706FC1C343246284609490BF02EF8C3
:107C200020460849FFF7B8FF07492046324602B010
:107C3000BDE870400BF022B8E0130020F0050020F2
:107C4000055A000808020020B179000870474FF07B
:107C5000FF307047014B0360704700BF905201082E
:107C6000034B10B504460360FEF7F2FA204610BD40
:107C700090520108084608B5FEF728FA012008BD11
:107C800008B5FEF7EFF908BDFEF700BA0022426022
:107C9000024A4FF47A71816002607047D052010845
:107CA0000846FEF7C7B9000037B50D4C00210D4D51
:107CB0000B4600910A462046FFF7B2FB2A460A49C6
:107CC000204608340AF0DAFF2046FFF7DFFF0749B5
:107CD00020462A4603B0BDE830400AF0CFBF00BFBF
:107CE000A4140020F0050020055A0008557C000867
:107CF0007047000037B50B4C00210B4D0B4600912F
:107D00000A462046FFF78CFB2A46204607490AF020
:107D1000B5FF074904F108002A4603B0BDE830402A
:107D20000AF0ACBFBC140020F0050020055A000882
:107D3000F17C0008002303601846704700230360AD
:107D4000184670470023036018467047F0B50B785B
:107D500091B004460D4616462BB1032A54D8DFE8ED
:107D600002F002113C3C20460BF0CBF90246012008
:107D7000009000200190029003900490059021460D
:107D800003463DE008460BF0BCF9002647088DF895
:107D90001E600235BE4210D015F8021C15F8012CE9
:107DA0008DF81C108DF81D2007A8002110220BF063
:107DB000E7FA08AB98550136EBE720460BF0A1F93E
:107DC00001210023024608A88DE842000490029396
:107DD000084603930593214612E00BF092F90746FB
:107DE00028460BF08EF9012118221E234FF0020EB7
:107DF0008DE80E4005900495304621463A46002312
:107E000002F048FF03490870024B01225A7011B07A
:107E1000F0BD00BFC8140020F8B5394C0346A57862
:107E200008462E46002D69D148F21007BB4246D0C5
:107E30000BDC48F2010293421FD0501C834225D034
:107E4000992B5BD10121A174F8BD48F28007BB4298
:107E50000ED0B3F5084F43D048F2400083424DD1D5
:107E600004F114000BF01BF8A16A4B1CA362F8BDCF
:107E70000121E17021716571F8BD0123A371FFF744
:107E8000B5F800F5EA423032A260F8BDA37963B1DB
:107E9000FFF7ACF800F5EA4230324FF47F40A260C1
:107EA00003F058FCE72003F0D1FC15480021817154
:107EB000017341738173C17301744174F8BD0B7D0B
:107EC00063B901224FF47F402273A360227403F050
:107ED00041FCE720BDE8F84003F0B8BC2573F8BDCD
:107EE000294601F0A4F90121064601F0E7F9054A07
:107EF0001068864202D1E573A5736573F8BD00BFB3
:107F0000C81400200400002070B500228CB0174B6C
:107F100006460D461020022101F016FF01AB00229B
:107F2000B45A200A44F00101AC5A023203F8024C60
:107F3000240A03F8041C03F8030C03F8014C04336F
:107F4000182AEDD16B4630210422102001F0FCFEEE
:107F50000021302268460AF0C5FF10200146342275
:107F60006B4601F0F1FEC0B20CB070BD2FB301083A
:107F700010B50A4C04F12C0001F04CFF60B994F8E4
:107F80002C30012B09D194F82D00B0F11C0CDCF140
:107F9000000151EB0C0010BD002010BDC8140020E2
:107FA0001FB50A2200234FF461504FF461618DE840
:107FB0000F00064B44F620621A60684601A902AA27
:107FC00003AB01F03FFE05B000BD00BF70160020FE
:107FD0001FB50023009301930293039301A8694600
:107FE00002AA03AB01F0F6FD05B000BD70B500219B
:107FF0000A4C0E2001F028FF102510210E2001F060
:1080000023FF00212A4620460AF06CFF0E20294655
:1080100000222346BDE8704001F096BEF614002011
:1080200030B5544D00249FB0FF20EC702C716C7063
:10803000AC712C73AC746C73AC73EC732C7403F074
:1080400089FBE72003F002FC21462246204602F08D
:10805000FDFD2B46012103F82F4F0E200A4601F0AB
:1080600073FE444B9879012805D1642003F022FA6D
:1080700001F04AFAF5E710210C2001F0E5FE3E4838
:1080800002F0B3FA3D4802F055FF012002F036FF3E
:1080900068463B4900F050FF364DE9786A780A435C
:1080A00018D195F83E10002959D0FF2002F0DAFED1
:1080B000002854D11A24013C06D0E72003F0F4FB39
:1080C000322003F0F7F9F6E7FFF790FF294A82F82C
:1080D0003E40E1E7E72003F0B9FB0E20012100223A
:1080E00005F12E0301F004FEEC7814B102F040FF1C
:1080F0002870204C012123780022581C234603F8C5
:108100002E0F0E2001F020FE00200146012202F079
:108110009DFD0125234603F82F5F29462A460E20A0
:1081200001F012FE02F018FD642003F0C3F90020F4
:1081300002F0DCFC84F83F504FF47F4000252574AA
:1081400003F008FBE72003F081FB48F2042002F073
:10815000A3FEFFF725FF84F840501FB030BDE72095
:1081600003F0A2FBFA2003F0A5F9684600F056FFE1
:1081700092E700BFC8140020F05201084802002016
:108180004D7D0008024B1A6818601046704700BF0A
:10819000701600201FB5044603F040FE03F080FD7A
:1081A0000E4B0F480F49104A009301900F4B02915C
:1081B00003920F490F4A104802F080FC642003F03C
:1081C00079F9204602F092FC0C4802F0B3FE48F226
:1081D000042004B0BDE8104002F05EBE59BD0008A6
:1081E0006DBD0008D9BD000801BE0008457D00082E
:1081F000357D00083D7D0008197E000848020020FA
:1082000038B55E4C01255E48A57003F0A3FAE7205F
:1082100003F01CFB2846FFF7BDFF04F1C10001F08D
:10822000CEFD584BD8701D710020564D84F8C70004
:108230002A79524C28469AB194F8C71002290FD8CF
:1082400064210022022004F1C80301F051FD94F8DA
:10825000C710642814BFFF2200222A71481CE4E7DB
:1082600001230371002584F8C750464D434C2A79F9
:108270001AB194F8C700022870D994F8C710424B7D
:10828000424D404C0122032908BF1D4622713D4C3E
:10829000207930B13E4800F11801FFF735FE20711A
:1082A000F5E701212171374C23793BB10B20802167
:1082B00000222B4601F048FD2071F4E701252571CD
:1082C000304C22793AB1022064210022314B01F076
:1082D0003BFD2071F4E794F903100120207121B1D6
:1082E0002649012081F82C010FE0244B93F8C1505E
:1082F00025F0010483F8C140224D2A79002AEFD0ED
:10830000254801F053FD2871F6E71C4C94F82C31F8
:1083100043B11C490420C988204A01F05CFD84F85F
:108320002C01F2E7012584F82D51144C94F82D51BD
:1083300045B1144A05201189194A01F04CFD84F811
:108340002D01F2E72846FFF725FFFFF711FE10B1D8
:10835000A570A07838BD4FF0FF3038BD04F141035F
:108360000B208021002201F0C3FC94F8C730802844
:1083700014BFFF20002028715D1C74E7C814002082
:108380000060FF0048020020015301080915002089
:10839000825301089015002089150020B25301086E
:1083A0000A73010838B5534CC4F830010020FFF7B8
:1083B000F1FE0123002084F83F302074FFF7D8FD40
:1083C0000546E8B94C4C2188052919D0FFF718FF5C
:1083D0000028F3D02088052888BF25802588691CBF
:1083E000218003F067FEBFF34F8F444C444BE2689B
:1083F00002F4E06040EA0305E560BFF34F8FFEE75B
:108400003C4B93F8C120082A0BD193F8C20088B9DD
:1084100093F8C340282C0DD1374B1888012829D157
:1084200055E03AB993F8C210192903D193F8C33033
:10843000942BF0E7334A2F4B117A90780824527A24
:1084400083F8C14083F8C51000242F4983F8C24047
:1084500083F8C4002824012083F8C34083F8C62091
:108460000871294C2279002AD6D0284801F09EFCB8
:108470002071F6E70E2010210022254B01F038FC78
:10848000102824D11B4C6279AAB994F82E301BB95C
:10849000012084F840000EE094F82F0058B90146FE
:1084A000012202F0D3FB0121234603F82F1F0E20E7
:1084B0000A4601F049FC0F494A799AB991F84030CF
:1084C00083B1FFF785FDBDE83840FFF769BDFF20A8
:1084D000094C02F0C7FCFFF789FD0021218003F061
:1084E000E9FDCFE74FF47F4003F034F9E72003F0D4
:1084F000ADF9E6E7C81400209E03002000ED00E07F
:108500000400FA05E8F7FF1F480200208915002043
:10851000F61400202DE9F3419C4C04F04BFD0023A0
:10852000C4F8343194F8380148B994F8391131B9A4
:10853000A26882B3FEF75AFDA468A0422BD3934CE5
:1085400094F83F00002841D00025A571A56025734F
:10855000C4F83C5184F83851012684F83F506573C3
:10856000A573E573657402F0F7FA6FF07F40267427
:1085700003F0F0F8E72003F069F9642002F09AFFB5
:1085800094F8401011B3284602F0B0FA84F83F6026
:10859000FFF746FD1AE07D4C94F83F30B3B960799F
:1085A00028B9FEF723FD00F5EA413031A160002033
:1085B00002F09CFA012200234FF47F4084F83F2010
:1085C000237403F0C7F8E72003F040F96F4C94F8E8
:1085D000402012B1FFF724FD04E0637913B1267B3C
:1085E00035460EB369480179012914D1047B012C69
:1085F00011D18279012A0ED1032465480AF081FD48
:10860000634982B2012002F01FFA631E13F0FF04D7
:10861000F3D15E4804715D4C217B2346E1B194F8AF
:108620003921002A76D017E0314632463046A6601E
:1086300002F00CFB57480AF064FD574F804638465D
:108640000AF05FFD00970190791F032042463346F0
:1086500002F098FA6671C5E793F8430120B14F48DC
:1086600000213A220AF03EFC484B93F87A2132B9B5
:10867000587B00285AD19B7B002B57D1BEE01C7B36
:1086800004B393F83901E8B9597B00295FD019E0A8
:10869000234603F8312F0E200121032201F054FB61
:1086A0003A4C00254FF6FF70257403F053F8E7208D
:1086B00003F0CCF8FEF7DCF8A84273DBC4F83C51B9
:1086C00001236373314C617B002900F09780A27B0A
:1086D000BAB9FEF733F8002811D002DA4FF47F0060
:1086E00007E0012801D12E4803E0022803D14FF012
:1086F000FF1003F02FF8E72003F0A8F801E00120B5
:10870000A073FDF7DFFF002878D1204BD873987352
:10871000587373E094F843110029A5D1642002F046
:10872000C9FE04F5A07001F0D1FA9DE7FEF790F8BC
:10873000164900224FF47F40CA738A734A7303F0CC
:1087400009F8E72002B0BDE8F04103F07FB85D7C96
:10875000002DA5D04FF47F0002F0FCFF0B4C627C93
:10876000002A95D0E72003F071F84FF4FA7002F078
:10877000A1FEE72003F078F84FF4FA7002F09AFEB9
:10878000657C691ECAB26274E8E700BFC8140020A5
:1087900052020020590200205E020020081600202C
:1087A0000060FF0094F8383143BBD4F83C01411C11
:1087B0000229C4F83C1102D1012284F83821FEF7C5
:1087C00015F800280F4C0BDAD4F83C01411C0229A3
:1087D000C4F83C1102D1012284F83821022300E0C0
:1087E00003236374074C0121607C234603F8310F97
:1087F00003220E2001F0A8FA002362E702B0BDE8D0
:10880000F08100BFC814002013B5084C002100916E
:108810000A460B462046FEF703FE0549054A204658
:1088200002B0BDE810400AF029BA00BF441600208B
:10883000055A0008F0050020704708B5012003F034
:10884000B7FFFEE708B5032003F0B2FFFEE708B567
:10885000042003F0ADFFFEE708B5052003F0A8FFF4
:10886000FEE770477047704708B503F065FDBDE847
:108870000840FDF713BB000008B5024B0BB1AFF386
:10888000008008BD0000000008B5024B0BB1FFF7E7
:10889000A9F908BDE57B000808B5024B0BB1FFF74D
:1088A0009BF908BDD97B000808B5024B0BB1FEF758
:1088B00049FD08BD4573000808B5024B0BB1FEF732
:1088C00042FD08BD4773000808B5024B0BB1FEF727
:1088D0007DFE08BDCD75000808B5012004F01CFA26
:1088E00038B1012004F028FA024B13B10020FEF742
:1088F00057FD08BDA173000808B5022004F00CFA6A
:1089000038B1022004F018FA024B13B10120FEF72F
:1089100047FD08BDA173000808B5042004F0FCF968
:1089200078B1042004F008FA0020064B01461880B4
:1089300003F048F8044810210122BDE8084004F083
:1089400024BE08BD90160020002C014008B5082068
:1089500004F0E2F938B1082004F0EEF9024B13B14B
:108960000320FEF71DFD08BDA173000808B5102007
:1089700004F0D2F938B1102004F0DEF9024B13B143
:108980000420FEF70DFD08BDA173000808B52020E6
:1089900004F0C2F938B1202004F0CEF90E4B13B127
:1089A0000520FEF7FDFC402004F0B6F938B1402068
:1089B00004F0C2F9084810B10620FEF7F1FC80204F
:1089C00004F0AAF938B1802004F0B6F9024911B1D7
:1089D0000720FEF7E5FC08BDA173000808B54FF4B9
:1089E000005004F099F940B14FF4005004F0A4F99C
:1089F000174B13B10D20FEF7D3FC4FF4804004F069
:108A00008BF940B14FF4804004F096F9104810B152
:108A10000E20FEF7C5FC4FF4004004F07DF940B194
:108A20004FF4004004F088F9094911B10F20FEF716
:108A3000B7FC4FF4006004F06FF938B14FF40060F8
:108A400004F07AF9BDE8084002F0BEBC08BD00BFE2
:108A5000A173000808B50F48102104F0CFFDC0B184
:108A60000C48102104F0D5FD002003F06DF828B962
:108A7000094B1A880A3290B2188008BD10210548A7
:108A8000002204F082FD00200121BDE8084002F030
:108A900099BF08BD002C01409016002008B5024B7C
:108AA000186800B1804708BD5016002008B5024B79
:108AB000586800B1804708BD5016002008B5024B29
:108AC000986800B1804708BD5016002008B5012005
:108AD00004F08AFB50B1012004F098FB044B0BB169
:108AE000FEF7C6FEBDE8084004F062BB08BD00BF4B
:108AF0007178000808B5022004F076FBB0B10C4B89
:108B000000224FF400301A7004F016F9012004F02E
:108B10007BFA10B1012004F081FA04F049FB022035
:108B200004F074FBBDE8084004F042BB08BD00BF80
:108B30000116002002F0D8BB00F062B838B5144925
:108B40000B78012B23D1134A13680BB90B7038BD76
:108B5000114C402B206881B205D94030403B206049
:108B60001360402504E09DB2C3180020236010600C
:108B70000A4A5018C0212A4605F0A8FA01202946C1
:108B800005F0AEFB0120BDE8384005F017BB38BD4D
:108B9000DC050020E4050020E0050020DC040020C6
:108BA000094908B50020094B0122088003201A70EA
:108BB00005F0C2FB064B0246188006484FF4887148
:108BC000BDE8084005F099BA940400209004002004
:108BD0009204002096040020074B1868052809D14C
:108BE000064B1A68511C052A196003D10020186031
:108BF000FDF78ABA704700BFBC1600205C16002043
:108C00003A4A38B511683A4B88B23A4D18801C88F8
:108C10002988214001F4007084B244B14FF6FF5519
:108C200015609A78511CC8B29870FFF7D5FF304C88
:108C3000304B25881A882A4002F4004188B2254624
:108C40001C4608B105F07CF92A882388134003F4F8
:108C5000806188B230B1254B27494FF6FF321A6048
:108C600048688047224A234B11881B88194001F429
:108C7000005081B219B11D494DF6FF70086012888D
:108C8000134003F4805398B230B1184A4EF6FF7186
:108C90001160002003F048FD154B164918880A881A
:108CA000024002F4006398B260B114490A7812B12C
:108CB00003F01AFD02E0022003F036FD0B4B4FF2E9
:108CC000FF7018600A490B480A880388134003F4B0
:108CD00080718AB242B1054B4FF6FF6018600720E1
:108CE000BDE8384003F020BD38BD00BF445C004003
:108CF000601600207C200020F4020020C403002025
:108D0000034B987A10B1034905220A60704700BFEF
:108D100058200020BC160020014B04221A60704726
:108D2000BC160020034B1A78202A01D100201870AD
:108D3000704700BF6416002070470000212810B55E
:108D400008D111480368197801F07F02212A11D057
:108D5000022010BD2028FBD10B4B19680A780B4963
:108D600002F07F030A4A212B0CBF0B460023107030
:108D70000BB9EDE7074B044C206800248361448263
:108D800020469847204610BD78200020E58D000839
:108D900064160020CD8D0008074B19680A7802F090
:108DA0007F03212B05D1022801D100207047222802
:108DB000FBD00220704700BF7820002009B10220BC
:108DC00070470128FBD808467047000020B9034BC4
:108DD000082219680A8270470148704778200020ED
:108DE000BC02002020B9034B082219680A82704790
:108DF0000148704778200020BC020020054B19680C
:108E0000CA78042A04D8044B03EBC20104F018BE4C
:108E10000020704778200020C4020020014904F09F
:108E20000FBE00BFE4020020014904F009BE00BFEC
:108E3000EC020020334A344BD179186810B5002475
:108E400041728472C472204605F06AF920464FF4DC
:108E5000007105F06DF91021204605F075F94021EB
:108E6000204605F011FA8021204605F0FDF9204644
:108E700005F0C6F9254B204693F8641005F03EFA3C
:108E8000204605F0ACF90120214605F051F90120FA
:108E9000C02105F0E9F90120202105F055F9012054
:108EA000214605F06EF902204FF4C06105F040F94B
:108EB00002204FF4807105F0D7F90220214605F019
:108EC00060F90220202105F03FF90320214605F03A
:108ED0002FF903204FF4887105F0D6F903204021C3
:108EE00005F00CFA03204FF4405105F04AF9032035
:108EF000214605F029F9204604F0B4FF044A012078
:108F0000106010BDAA89010878200020BC02002052
:108F1000BC16002010B5FDF743F9054B0024186876
:108F2000847203F0C9FB05F01DFA02490C6010BD04
:108F300078200020BC16002038B504460D46FEF708
:108F4000A5FE204625614FF41651FEF7A9FE2046E6
:108F500038BD000013B5084C002100910A460B46AD
:108F60002046FEF75DFA0549054A204602B0BDE8F5
:108F7000104009F083BE00BF68160020055A0008A3
:108F8000F005002070B506460D46002428460AF07C
:108F9000B8F8844208D2295D3046FEF76BFE012006
:108FA00002F088FA0134F1E770BD0000F8B504461C
:108FB0000E46174600252046FEF762FE0028FADD21
:108FC0002046FEF761FEBD42C1B206D100233370D8
:108FD00020461149FFF7D6FF14E00D29F6D00A29E3
:108FE000F4D0082901D07F2904D1002DE3D0013E1F
:108FF000013D02E006F8011B01352046EDB2FEF707
:1090000039FED8E72046FEF73BFE002803DD204668
:10901000FEF73AFEF6E7F8BDDEB40108F0B585B01C
:109020000446FEF72DFE002840F39D802046FEF703
:109030002BFEC0B2772867D104F11406002121224B
:10904000304604F1350509F04DFF00214122284644
:1090500009F048FF04F17607002284F876202046C4
:109060007A704249FFF78EFF204631462022FFF7F3
:109070009DFF20463E49FFF785FF394601222046E5
:10908000FFF794FF94F87630A3F130010329F0D86C
:10909000312B0BD120463749FFF774FF2046364964
:1090A000FFF770FF20463549FFF76CFF94F8760014
:1090B000B0F1300708D020463149FFF763FF204662
:1090C00029464022FFF772FF20462E49FFF75AFF3C
:1090D00023693A4630462946984720462A49FFF7F1
:1090E00051FF20462949FFF74DFF20462849FFF749
:1090F00049FF20462749FFF745FF20462649FFF74D
:1091000041FF2046254929E069282CD1244A01AB9A
:1091100010685168002503C39168204619602149F1
:10912000FFF730FF01AEAE5D300900F130013929A3
:1091300088BF00F1570106F00F062046FEF79AFDA2
:1091400006F13001392988BF06F157012046013563
:10915000FEF790FD0C2DE5D11349204605B0BDE882
:10916000F040FFF70FBF05B0F0BD00BF32B30108FC
:1091700039B3010866B301089CB30108C7B30108FD
:109180000DB4010818B401085BB401087BB40108F0
:10919000AEB40108E1B4010820B5010851B50108D9
:1091A000E8F7FF1F67B50108DEB40108002100F0F1
:1091B00004B80E4B5B58435004310D480D4B421818
:1091C0009A42FFF4F6AF0C4A00F003B8002342F8CD
:1091D000043B0A4B9A42FFF4F9AF03F0EFF9FCF7B6
:1091E00097FDFDF719F8FCF7E1FD7047BCB80108E1
:1091F000000000208004002080040020882000203F
:10920000FFF7FEBF01700B0A0A0C090E4370827053
:10921000C170043070470170090A41700230704714
:1092200043185A78405C00EB022188B2704710B5B1
:1092300043189A78DC78415C120402EB0462587897
:10924000521802EB002010BD73B544790023022CA4
:1092500001930FD0032C19D0012C2BD1164D286966
:109260002E4620B1296901A888470246B8B9B168DD
:1092700001201BE0104DE8682E4620B1E96801A8E6
:109280008847024658B9B16802200FE00A4D6A6962
:109290002E464AB16B6901A89847024620B1A968D9
:1092A0002046BDF8043003E0B168032000221346D5
:1092B00000F02CFC7CBD00BFC0170020072830B593
:1092C00012D8012910D8EFF3108472B6012505FADF
:1092D00000F501FA00F0054B1A6822EA0502024384
:1092E0001A60E30700D462B630BD00BF4C03002013
:1092F000F0B5012187B00546FFF792FF00F48043E7
:10930000044698B250B3B4F5824F27D128460521C0
:10931000FFF786FF0026074607353446BE4208D0D1
:1093200028460221FFF77CFF013624180435B6B227
:10933000F4E7744B188E21188AB21A86D86B241859
:10934000DC63D96B9A6B914240F0CE8093F8400079
:10935000002800F0C9809B69992033E024F4FF4184
:1093600021F07F0290B2002800F09B8048F21002AA
:1093700094422AD00CD8B4F5004F40F2C08048F295
:1093800002039C4217D9991C8C4240F0B88012E02D
:1093900048F2800084420ED005D848F24002944240
:1093A00040F0AD8051E0B4F5024F04D0B4F5084F61
:1093B00040F0A5806CE053498869002800F0948053
:1093C0008B69204600210A4669E00023EA1851799A
:1093D0000DF803100133042BF8D1687A2B7BAA7A9D
:1093E000E97A8DF804008DF807308DF805208DF8A6
:1093F000061005F10D00002306AAD218C15C013346
:10940000042B02F8101CF7D105F11100002306AA65
:10941000D218C15C0133042B02F80C1CF7D105F102
:109420001500002300AAD218C15C0133042B11746B
:10943000F8D1344928798A698DF81400002A53D06C
:109440008B6920466946152229E00535002128460A
:10945000FFF7EDFE042100902846FFF7E8FE082103
:1094600001902846FFF7E3FE0C2102902846FFF703
:10947000DEFE102103902846FFF7D9FE214B049011
:109480009969002930D09B6920466946142206E07C
:109490001C48826942B38369691D204601229847AE
:1094A00022E041F203039C4205D00C339C4202D0DF
:1094B000591E8C421AD16C1D04212046FFF7B7FEBD
:1094C00039301CD12D790F480021C5622046FFF7A5
:1094D000AEFE042105462046FFF7A9FE393003D130
:1094E00028460121FFF7EAFE012009E0054A13881A
:1094F00099B28C4204D0B4F5805FF5D100E0002031
:1095000007B0F0BDC017002038B5104B5D88ADB274
:10951000CDB158680478221F514251EB02042CB19E
:10952000FFF7E6FE003018BF012000E020460546A8
:1095300020B944B1054B93F8412022B903480021DA
:10954000418001F0E9FD284638BD00BFC01700206A
:109550002DE9FF4704468946904602F0F5FE0025B6
:109560000190BA4B5A8890B2002840F0928003F0E4
:1095700021FD02F0E9FE0290029901980A1A039275
:10958000039B002B03DA0199029842180392B04B17
:1095900019680029E5D003988842E2D3AB4A41F22A
:1095A0000700138899B2814224D8421E91425FD2AB
:1095B00040F2022399425BD00DD80C2906D8082925
:1095C00056D200294DD0062952D959E00D294CD048
:1095D00040F201220BE041F2020081424BD8B1F58A
:1095E000805F45D8B1F5017F3FD940F20722914213
:1095F00037D13AE041F21103994236D014D841F202
:109600000B00814234D005D841F2090291422FD09B
:1096100031D82AE041F20F0399422CD028D841F2E8
:109620000D0081421DD126E042F2060291421CD07B
:1096300007D8B1F5005F14D942F20403994214D956
:1096400021E0B1F5804F00F0F28105D8A1F500507E
:109650000838012805D808E044F20B02914200F0D6
:10966000E6810B2003F0A4F8E1E1FF212170DEE1A7
:109670004FF0FF3105E04FF0FF3121606160D6E12E
:1096800000212160D3E1204600213A2209F02AFC82
:10969000CDE15E683178042940F07E8101213046B9
:1096A000FFF7BEFD05463046FFF722FE01460028C3
:1096B00040F0688141F20700771D854250D8411E75
:1096C0008D4280F0AF8040F20222954200F0AA80E5
:1096D00011D80C2D09D8082D80F0A480002D00F0A1
:1096E0005181062D40F29E80EAE00D2D00F097801A
:1096F00040F201237EE041F202039D4218D8B5F505
:10970000805F00F28F80B5F5017F40F2888040F2E3
:1097100007218D4240F036813079002104F8010B99
:109720003846FFF784FD01462046FFF76BFD29E12F
:1097300041F20402954200F0998040F2B080384630
:109740000021FFF774FD042120603846FFF76FFD0C
:109750006060083406F10D07234606F11D017EE026
:1097600041F2110295425AD02CD841F20B039D428E
:1097700058D01CD841F209018D4253D000F29B8091
:1097800000213846FFF753FD042120603846FFF7DB
:109790004EFD082160603846FFF749FD0C21A060AE
:1097A0003846FFF744FD04F10C0AE060E9E041F2BD
:1097B0000F02954273D03BD841F20D039D4240F019
:1097C000E18053E042F20500854200F09D8008D818
:1097D00041F2120295423DD0B5F5005F40F2D280D1
:1097E0001DE042F209018D4208D84F1EBD4216D23B
:1097F00042F206039D4240F0C58010E044F20B00A7
:10980000854240F0BF807279DFF840A038460121E0
:10981000AAF83020FFF704FDAAF83200B2E031794F
:109820002170AFE038460021FFF701FD2060A9E07C
:1098300000213846FFF7FBFCA2464AF8040B04213E
:109840003846FFF7F4FC60609BE000BFC0170020C3
:10985000701600203846FFF7E3FC208092E057F8AE
:10986000040B8F4243F8040BF9D18BE000213846FA
:10987000FFF7DDFC042120603846FFF7D8FC082103
:1098800060603846FFF7D3FC04F1080AA060E46882
:1098900014F1390375D10121FFF710FD71E00021AA
:1098A0003846FFF7C4FC042120603846FFF7BFFCB0
:1098B0006060083466E0307920713F68276061E0BD
:1098C00038460021FFF7B3FC042120603846FFF73B
:1098D000AEFC082160603846FFF7A2FC0A21A060B8
:1098E0003846FFF79DFCC4F80A000C3406F111035A
:1098F000274606F1350153F8040B8B4247F8040B59
:10990000F9D11A883A803DE077187B7963540131A8
:109910000429F9D106F109000027C15DE2190137D8
:10992000042F1171F9D106F10D000023C15CE2187A
:109930000133042B1172F9D106F111070022B85C32
:10994000A1180132042A0873F9D106F11507002382
:10995000F85CE1180133042B0874F9D106F11907FA
:109960000021785C6218013106291075F9D106F1E1
:109970001F070023F85CE2180133202B9076F9D101
:1099800000E054462C4F388882B2954236D10023ED
:109990003B8087F8413031E0DF8EBBB273B3304695
:1099A000032196F802A0FFF73BFC0746B9F1000F30
:1099B0000CD00421701DFFF73AFC0246C8F80000E5
:1099C00006F115014846D2B209F069FACAEB070759
:1099D000781EB0F5806F07D20AF105012046711894
:1099E0003A4609F05CFA01E04FF0FF37B8F1000F9A
:1099F00001D088F80070104B0022DA860E4F00204C
:109A0000788001F089FB3278042A05D1B5F5805FB2
:109A100002D13046FFF718FC3B8899B200297FF449
:109A2000A0AD0548C28E93B2002B7FF49AAD002002
:109A300004B0BDE8F08700BFC017002007284FF032
:109A400001030ED8EFF3108272B603FA00F0064954
:109A50000B6818420CBF00200120D10702D462B667
:109A600070471846704700BF4C030020034B188016
:109A7000084600210A46FFF76BBD00BFC017002053
:109A800010B5034B0124DC86BDE81040FFF760BD34
:109A9000C017002038B50346154601224A710C460E
:109AA000881D1946FFF7B7FB291D0570204601F0F8
:109AB000A1FB002038BD38B5BDF814500C469B18EA
:109AC000A071E81885B202216171E271294604F1A2
:109AD0000800FFF7A0FB6A1D204691B201F08AFB47
:109AE000002038BD38B59B180C469DB2022161712B
:109AF000A071E271294604F10800FFF78CFB6A1D92
:109B0000204691B2BDE8384001F074BB2DE9F04722
:109B10001D4605F1020A032301F107091FFA8AFA1B
:109B200088714B710C46484651461746FFF773FB48
:109B3000B5F57A7F804613D82946FFF76CFB294696
:109B40004046FFF768FB394604F10B002A4609F04E
:109B5000A6F9A91D204689B2BDE8F04701F04ABB2D
:109B60004FF47A76B5FBF6F10AEB410291B2FFF7BA
:109B700052FB31464046FFF74EFB394604F10B00DD
:109B8000324609F08CF9A5F57A75204640F2EE319F
:109B9000ADB2BF1901F02EFBB5F57A7F05D9A5F559
:109BA0007A7085B24FF47A7601E02E460025A04601
:109BB000394628F8056F4846324609F070F9B31C5B
:109BC000404699B2BF1901F015FB002DE4D1BDE864
:109BD000F0870000F7B51A4C1E46A468FF238DF8E5
:109BE00007300025475D63190135042D5F72F9D1F7
:109BF00000200D5C2318013004285D73F9D1002189
:109C0000505C6318013104295874F9D104F115002E
:109C10000021FFF7F7FA0022B35C83540132042AD3
:109C2000FAD12146142242F20100FFF733FF42F23B
:109C300001000DF10701FFF719FF9DF90700FEBDB7
:109C4000C01700202DE9F34106460C461E48316836
:109C50001546D0F808804A1E1F46FF23082A8DF8B3
:109C6000073008F1090001D80A23336021684A1E31
:109C7000082A01D80A23236029684A1E082A01D825
:109C80000A232B6039684A1E082A01D80A233B6040
:109C90003168FFF7B7FA2168FFF7B4FA2968FFF7D0
:109CA000B1FA3968FFF7AEFA4146142242F20900D0
:109CB000FFF7F0FE42F209000DF10701FFF7D6FEB3
:109CC0009DF90700BDE8FC81C017002038B5074B9F
:109CD00042F205040546996820460022FFF7DAFEA5
:109CE00020462946BDE83840FFF7C0BEC017002017
:109CF0002DE9F341864613480D46866871461F4696
:109D000002ACFF2306F1090004F8053D9046FFF779
:109D100079FA2946FFF776FA40F201254146FFF726
:109D200071FA0C2231462846FFF7B4FE2846214638
:109D3000FFF79CFE3846002101AAFFF7A1FE01981B
:109D4000BDE8FC81C01700202DE9F3418646164886
:109D50000C4686687146984602AD4FF0FF3306F117
:109D60000A0045F8043D1746FFF74CFA0C21FFF7AF
:109D700049FA2146FFF746FA3946FFF743FA4146CA
:109D8000224606F11A0009F08AF890203146102286
:109D9000A3B2FFF7A7FE40F202202946FFF766FEB6
:109DA0000198BDE8FC8100BFC017002008B503463C
:109DB000062001460022FFF7C7FFC0B208BD08B564
:109DC0000346062001460022FFF792FF062814BF33
:109DD000FF20002008BDF8B506460D4617460C4684
:109DE0007B192A1B1F2CC4EB030392B208D93046FF
:109DF0002021FFF7A9FFC0B2203C0028F0D007E0E7
:109E00002CB130462146FFF79FFFC0B2F8BD204677
:109E1000F8BD000037B50B4B40F2072504469968A2
:109E200000222846FFF736FE28466946FFF71EFE49
:109E30009DF803009DF80410207061709DF80000EB
:109E40003EBD00BFC017002037B50D4A03469568D8
:109E50000C4605F109001946FFF7D4F9214640F2F6
:109E60000324FFF7CFF9294608222046FFF712FE08
:109E700020460DF10701FFF7F9FD9DF807003EBDF3
:109E8000C01700202DE9F0430023CA5CC2540133FF
:109E9000102BFAD10022334B467B991891F80180A0
:109EA00004789F19F97A88EA0405847B85EA010819
:109EB0001D194178EF7A90F80CC04F40C17B80F8B3
:109EC00010805D1895F80B908578634489EA050544
:109ED00093F80B90C378477489EA030390F80490D1
:109EE000FFB288EA090890F80590857487EA0907A7
:109EF00090F80690EDB285EA090590F80790C374D2
:109F0000DBB283EA090390F8089080F814805FFAC6
:109F100088F888EA090890F809904775FFB287EA3F
:109F2000090790F80A908575EDB285EA090590F861
:109F30000B90C375DBB283EA090388EA0C0C7E4000
:109F40006C405940013280F8188047768576C37698
:109F500080F81CC046778477C17710300A2A9AD1DE
:109F6000BDE8F083FF89010810F0800F4FEA400040
:109F700018BF80F01B00C0B2704700002DE9F04F01
:109F8000037891F8A0A004468AEA030A80F800A0AA
:109F900091F8A1204078A77882EA0005657091F8D1
:109FA000A260E07886EA0703A37091F8A32097B037
:109FB000059582EA0005E57091F8A490267906934C
:109FC00089EA060984F8049091F8A57063790795E9
:109FD00087EA0302627191F8A600A579E37980EA25
:109FE0000506A67191F8A7700C9287EA030B84F816
:109FF00007B0227A91F8A880607A88EA020884F88B
:10A00000088091F8A97008964740677291F8AA50A5
:10A01000A67AE07A85EA0603A37291F8AB20267B44
:10A0200082EA0005E57291F8ACC009938CEA060C4F
:10A0300084F80CC091F8ADE0637BA27B8EEA030E3E
:10A0400084F80DE00D9591F8AE50E07B5540A57376
:10A0500091F8AF204B4B4240E2739A4491F8900044
:10A060009AF80B6199444640267091F8940099F84B
:10A070000BA198448AEA0006267191F8980098F896
:10A080000B919C4489EA000626729CF80BA191F87A
:10A090009C009E448AEA00062673DF199EF80B8115
:10A0A00097F80BC191F8910091F89D6088EA00093A
:10A0B0008CEA060060730C9FDDF814A0DE1996F898
:10A0C0000B0191F89970DDF8208080EA070666722E
:10A0D00003EB0A0091F8956090F80B7184F80190F9
:10A0E00087EA0600607103EB0800DDF818E090F8DD
:10A0F0000B91099803EB0E0703EB000E9EF80BC1C2
:10A1000091F8920091F89A6097F80B718CEA000A26
:10A1100077405D1991F89E6084F802A091F896004E
:10A1200095F80B81A772079F88EA000589EA060661
:10A13000A673A571DE1996F80B0191F89F5003EBF9
:10A140000B0791F89360454097F80B019A1880EA45
:10A1500006070D98E7701E1896F80B7191F8970096
:10A160004FF0090B87EA0006E67191F89B3092F8F0
:10A170000B71E57387EA0300E0720D46CDF840B03D
:10A1800002E000BFFF89010894F80090A77887EAF1
:10A190000900FFF7E9FEFFF7E7FE94F80180E67893
:10A1A000824686EA0800FFF7DFFEFFF7DDFE8AEA57
:10A1B000070380EA080227797040A6798AEA090134
:10A1C0005FFA80F886EA07005FFA82FB5FFA83FA9B
:10A1D0005FFA81F903970296FFF7C6FEFFF7C4FE08
:10A1E000E6796779014686EA07000491FFF7BCFE2D
:10A1F000FFF7BAFE039B049A94F808C082EA0301B1
:10A20000CBB2029947404A40A17A7040C6B205934A
:10A2100081EA0C00D3B20291CDF804C006930796F0
:10A22000FFF7A2FEFFF7A0FE637AE67A024686EA0F
:10A23000030003930492FFF797FEFFF795FE049A3D
:10A24000DDF804C0039B82EA0C015FFA81FC80EA1E
:10A250000301CBB2029909934A40D3B2CDF820C092
:10A260000A9394F80CC0A17B7040C6B281EA0C003E
:10A270000291CDF804C00B96FFF776FEFFF774FE4F
:10A28000637BE67B024686EA030003930492FFF7B2
:10A290006BFEFFF769FEDDF804C0049A039B82EAB7
:10A2A0000C015FFA81FC80EA0301CBB20299704095
:10A2B0004A40C6B288EA0A018BEA09000D93D3B27C
:10A2C0000E930291CDF830C00F9681EA0006FFF799
:10A2D0004BFE89EA000286EA020C5FFA8CFC8AEAED
:10A2E0000B0084F800C0CDF804C0FFF73DFE8BEAF8
:10A2F000000386EA030B02995FFA8BFC84F801C025
:10A300000846CDF844C0FFF72FFE8AEA000286EA2D
:10A31000020A5FFA8AFB88EA090084F802B0CDF8E5
:10A3200048B0FFF721FE88EA0000DDF81890059993
:10A33000079A4640FFB2F6B282EA090887EA0100AE
:10A34000E670139688EA0006FFF70EFE059B58405C
:10A3500086EA0001CAB24846227178401492FFF79B
:10A3600003FE474086EA0703D8B215906071404665
:10A37000FFF7FAFD89EA0001059B86EA01020798CA
:10A38000D7B25840A7710697FFF7EEFD0799089AD4
:10A3900048404640F6B20A9F0596E67109980B9E22
:10A3A00050407E4086EA0007FFF7DEFDDDF820A082
:10A3B0008AEA000387EA030C5FFA8CF884F80880C5
:10A3C00009990A984840FFF7CFFD099A504087EA5B
:10A3D000000B5FFA8BF9304684F80990FFF7C4FD53
:10A3E0000A9E524686EA000387EA03010B985FFA49
:10A3F00081FB504084F80AB0FFF7B6FDDDF82CA0D1
:10A400000E998AEA00000C9E47400F9B0D98FFB200
:10A410004B407040E77283EA000A0293FFF7A4FD05
:10A420000C9A0D9B50408AEA00060E98F6B22673ED
:10A430005840FFF799FD0D99029B81EA00028AEAD4
:10A440000200C1B2617318460391FFF78DFD0E9AA9
:10A450000C9B50408AEA00010F98CAB2A273584080
:10A460000492FFF781FD0F99514B48408AEA000C96
:10A470005FFA8CFADDF804C084F80FA003EB0C023D
:10A4800095F8800092F80B11DDF850C081EA0002C7
:10A49000227003EB0C0195F8840091F80B219E19B2
:10A4A00082EA000103EB0802217195F8880092F816
:10A4B0000BC196F80B218CEA0001217295F88C00F3
:10A4C000039E82EA000121739A1995F8811092F88F
:10A4D0000B0103EB090680EA010295F88D0096F85E
:10A4E0000B11DDF844C081EA00061599667358180F
:10A4F00090F80B6195F88910DF1986EA0100607207
:10A5000003EB0C0695F8850096F80B116270129A11
:10A5100081EA000666719918DDF818C095F88A601E
:10A5200091F80B0103EB0C0295F88E10704092F835
:10A530000B6103EB0B02714092F80BC195F882603E
:10A540008CEA0602049EA2709A1992F80B6195F8A3
:10A5500086205640A671A0721398A173191895F819
:10A560008F2091F80B61DDF814C0724003EB0C06EC
:10A5700095F8831096F80B0153444840E07095F825
:10A58000871097F80B014840E07195F88B0093F81D
:10A590000B11E273109A81EA0003511E103D11F075
:10A5A000FF00E37210907FF4EFAD17B0BDE8F08FBD
:10A5B000FF89010838B5054C05462046FFF762FCC7
:10A5C00028462146BDE83840FFF7D8BCCC1600200D
:10A5D00008B51021034600220C20FFF789FB102844
:10A5E00014BF4FF0FF30002008BD034610210C209F
:10A5F0000022FFF7A9BB000030B585B0054601F089
:10A60000A3FE0190194CE36A4BB108F087FBE26AA4
:10A6100002600020E06208F081FB018823E0284608
:10A62000FFF70CFA10B14FF6FF711CE001F08CFE41
:10A630000290029A0198111A0391039B002B03DAEE
:10A640000198029A11180391094B03981A689042D5
:10A65000E9D20649088E83B2002BD3D00A8E501E51
:10A6600083B20B86002108B205B030BDC0170020B0
:10A6700070160020F7B5034614480D468668194643
:10A68000174602AC4FF0FF3206F1090044F8042DE2
:10A69000FEF7B8FD2946FEF7B5FD41F20105394642
:10A6A000FEF7B0FD0C2231462846FFF7F3F92146AC
:10A6B0002846FFF7DBF908F031FB019901600846F5
:10A6C0000021FEF7FBFDBDF90400FEBDC017002010
:10A6D000F7B5054610484FF0FF33876802AC2946AE
:10A6E00041F20B0607F1090044F8043DFEF78AFD2C
:10A6F000042239463046FFF7CDF921463046FFF7B0
:10A70000B5F908F00BFB0199016028460121FEF71D
:10A71000D5FD0198FEBD00BFC0170020F7B50C465F
:10A720000746164608F0FAFA4FF0FF33E62C0360AE
:10A7300023D814480821856805F10900FEF762FD59
:10A740002146FEF75FFD0021A14203DA7A5C425404
:10A750000131F9E704F10802D2B2294641F21000B2
:10A76000FFF798F9694641F21000FFF77FF908F00A
:10A77000D5FA0099019B0160336008F0CFFA008898
:10A7800000B2FEBDC017002037B5034613484FF096
:10A79000FF3284680D4604F1090019460192FEF764
:10A7A00031FD0821FEF72EFD0821FEF72BFD0023C9
:10A7B000E95CC1540133082BFAD11422214641F23D
:10A7C0000700FFF767F901A941F20700FFF74EF90B
:10A7D00008F0A4FA019A026010463EBDC01700209E
:10A7E0002DE9FF411D46314B8646D3F808800F46C0
:10A7F00008F10900714616460A9CFEF703FD142174
:10A80000FEF700FD1421FEF7FDFC1421FEF7FAFC13
:10A810001421FEF7F7FCD4F1010138BF0021FEF747
:10A82000F1FC0FB1396800E03946FEF7EBFC0EB1E0
:10A83000316800E03146FEF7E5FC0DB1296800E023
:10A840002946FEF7DFFC74B1216839B9636841F22B
:10A8500087329342DCBF41F288336360FEF7D2FC5B
:10A860006168FEF7CFFC2C22414641F20800FFF759
:10A8700011F9694641F20800FFF7F8F8009900293C
:10A880000ADB0FB1019A3A600EB1029B33600DB141
:10A890000398286088B205E008F040FA009B036046
:10A8A0004FF6FF7000B204B0BDE8F081C017002081
:10A8B0002DE9FF419846194B86469E6815460F467E
:10A8C00006F1090071460B9CFEF79CFC2946FEF739
:10A8D00099FC4146FEF796FCBDF830500C223146FB
:10A8E0002846FFF7D7F8284601A9FFF7BFF80298D6
:10A8F00000280ADD0A9938466A46FFF7C1F8009930
:10A9000004B121600029D8BF029108F007FA029A29
:10A91000026010B204B0BDE8F08100BFC017002093
:10A920001FB500240094019441F204040294FFF73F
:10A93000BFFF04B010BD00002DE9F04F844689B080
:10A9400000B2CDF808C0039115469B46139E149C97
:10A95000FFF752FEDDF808C0002858D12E4B9A6B45
:10A96000511C9963D3F80890812C09F10A0307D090
:10A97000832C0AD105F1080A09F12208182704E0FE
:10A9800009F11A0810270646129061461846FEF78C
:10A9900039FC391FFEF736FC2946FEF733FC5946D1
:10A9A000FEF730FC832C05D15146FEF72BFC082125
:10A9B000FEF728FC0021A94205DA0398425C08F85A
:10A9C00001200131F7E7002DA8BFA844832C0ED049
:10A9D000129AB6B200920196E0B249463A46ABB23C
:10A9E000FFF769F8832C0BD141F20F000AE0002039
:10A9F000B042EDDA12990B5C08F800300130F7E74D
:10AA000041F2030005A9FFF731F8BDF8180000B2C4
:10AA100009B0BDE8F08F00BFC01700201FB50024AB
:10AA20000094019481240294FFF786FF04B010BDC6
:10AA30001FB5069C0094079C019483240294FFF7A1
:10AA40007BFF04B010BD0000202A73B503460E46FC
:10AA5000144625D8144A1946956805F10900FEF7F1
:10AA6000D1FB0821FEF7CEFB2146FEF7CBFB0022EF
:10AA7000A24203DAB15C81540132F9E704F10C031C
:10AA8000DAB2294641F21100FFF704F841F2110051
:10AA90000DF10701FEF7EAFF9DF9070083B201E01F
:10AAA0004FF6FF7318B27CBDC0170020024B012285
:10AAB0005A805860FEF728BDC017002010B50A4C18
:10AAC000E16022616361029B0399E361049A059B43
:10AAD000216262620021A362A061012084F840002B
