:020000040800F2
:105000000050002095930008658A0008678A000810
:10501000718A00087B8A0008858A00080000000069
:105020000000000000000000000000008F8A00085F
:10503000918A000800000000938A0008958A000801
:10504000E9930008E9930008E9930008B98C000887
:10505000E9930008E9930008F58A0008158B000819
:10506000358B0008698B0008898B0008E9930008DC
:10507000E9930008E9930008E9930008218D0008EE
:10508000E9930008E9930008A58A0008E99300085D
:10509000258D0008E9930008E9930008A98B000812
:1050A000E9930008E9930008E9930008718C00086F
:1050B000E9930008E9930008E9930008C58A00080D
:1050C000D58A0008E9930008E9930008E58A0008FA
:1050D000E9930008E9930008B58A0008E9930008FD
:1050E000F98B0008E18C0008E9930008000000003B
:1050F00000000000000000000000000000000000B0
:0C51000000000000000000005FF808F153
:1051100081F0004102E000BF83F0004330B54FEA68
:1051200041044FEA430594EA050F08BF90EA020FD5
:105130001FBF54EA000C55EA020C7FEA645C7FEA68
:10514000655C00F0E2804FEA5454D4EB5555B8BF8B
:105150006D420CDD2C4480EA020281EA030382EAFC
:10516000000083EA010180EA020281EA0303362D8E
:1051700088BF30BD11F0004F4FEA01314FF4801C61
:105180004CEA113102D0404261EB410113F0004F73
:105190004FEA03334CEA133302D0524263EB43032A
:1051A00094EA050F00F0A780A4F10104D5F1200EC8
:1051B0000DDB02FA0EFC22FA05F2801841F1000123
:1051C00003FA0EF2801843FA05F359410EE0A5F1F7
:1051D00020050EF1200E012A03FA0EFC28BF4CF028
:1051E000020C43FA05F3C01851EBE37101F00045DE
:1051F00007D54FF0000EDCF1000C7EEB00006EEBEB
:105200000101B1F5801F1BD3B1F5001F0CD3490874
:105210005FEA30004FEA3C0C04F101044FEA4452CB
:1052200012F5800F80F09A80BCF1004F08BF5FEA52
:10523000500C50F1000041EB045141EA050130BD32
:105240005FEA4C0C404141EB010111F4801FA4F1D5
:105250000104E9D191F0000F04BF01460020B1FA2A
:1052600081F308BF2033A3F10B03B3F120020CDA62
:105270000C3208DD02F1140CC2F10C0201FA0CF040
:1052800021FA02F10CE002F11402D8BFC2F1200CA5
:1052900001FA02F120FA0CFCDCBF41EA0C0190405B
:1052A000E41AA2BF01EB0451294330BD6FEA0404A4
:1052B0001F3C1CDA0C340EDC04F11404C4F120028F
:1052C00020FA04F001FA02F340EA030021FA04F3A1
:1052D00045EA030130BDC4F10C04C4F1200220FAF8
:1052E00002F001FA04F340EA0300294630BD21FA36
:1052F00004F0294630BD94F0000F83F4801306BFFC
:1053000081F480110134013D4EE77FEA645C18BFEF
:105310007FEA655C29D094EA050F08BF90EA020F86
:1053200005D054EA000C04BF1946104630BD91EA7E
:10533000030F1EBF0021002030BD5FEA545C05D181
:105340004000494128BF41F0004130BD14F58004C0
:105350003CBF01F5801130BD01F0004545F0FE4134
:1053600041F470014FF0000030BD7FEA645C1ABF69
:10537000194610467FEA655C1CBF0B46024650EAA0
:10538000013406BF52EA033591EA030F41F40021CC
:1053900030BD00BF90F0000F04BF0021704730B552
:1053A0004FF4806404F132044FF000054FF0000127
:1053B00050E700BF90F0000F04BF0021704730B5E8
:1053C0004FF4806404F1320410F0004548BF4042BD
:1053D0004FF000013EE700BF42004FEAE2014FEA12
:1053E00031014FEA02701FBF12F07F4393F07F4FED
:1053F00081F06051704792F0000F14BF93F07F4F1F
:10540000704730B54FF4607401F0004521F0004161
:1054100020E700BF50EA010208BF704730B54FF0E7
:1054200000050AE050EA010208BF704730B511F0EC
:10543000004502D5404261EB41014FF4806404F124
:1054400032045FEA915C3FF4DCAE4FF003025FEAA6
:10545000DC0C18BF03325FEADC0C18BF033202EB2E
:10546000DC02C2F1200300FA03FC20FA02F001FA88
:1054700003FE40EA0E0021FA02F11444C1E600BF27
:1054800070B54FF0FF0C4CF4E06C1CEA11541DBFDA
:105490001CEA135594EA0C0F95EA0C0F00F0DEF8A5
:1054A0002C4481EA030621EA4C5123EA4C5350EA8A
:1054B000013518BF52EA033541F4801143F48013DB
:1054C00038D0A0FB02CE4FF00005E1FB02E506F06C
:1054D0000042E0FB03E54FF00006E1FB03569CF0C1
:1054E000000F18BF4EF0010EA4F1FF04B6F5007FC7
:1054F00064F5407404D25FEA4E0E6D4146EB060639
:1055000042EAC62141EA55514FEAC52040EA5E50C1
:105510004FEACE2EB4F1FD0C88BFBCF5E06F1ED86B
:10552000BEF1004F08BF5FEA500E50F1000041EBA2
:10553000045170BD06F0004646EA010140EA02004F
:1055400081EA0301B4EB5C04C2BFD4EB0C0541EA71
:10555000045170BD41F480114FF0000E013C00F386
:10556000AB8014F1360FDEBF002001F0004170BDAA
:10557000C4F10004203C35DA0C341BDC04F11404C3
:10558000C4F1200500FA05F320FA04F001FA05F24F
:1055900040EA020001F0004221F0004110EBD3701C
:1055A00021FA04F642EB06015EEA430E08BF20EA48
:1055B000D37070BDC4F10C04C4F1200500FA04F3EB
:1055C00020FA05F001FA04F240EA020001F000417D
:1055D00010EBD37041F100015EEA430E08BF20EAF0
:1055E000D37070BDC4F1200500FA05F24EEA020E38
:1055F00020FA04F301FA05F243EA020321FA04F067
:1056000001F0004121FA04F220EA020000EBD3701D
:105610005EEA430E08BF20EAD37070BD94F0000F1D
:105620000FD101F00046400041EB010111F4801F51
:1056300008BF013CF7D041EA060195F0000F18BF02
:10564000704703F00046520043EB030313F4801F3E
:1056500008BF013DF7D043EA0603704794EA0C0FF8
:105660000CEA135518BF95EA0C0F0CD050EA41060E
:1056700018BF52EA4306D1D181EA030101F000418B
:105680004FF0000070BD50EA410606BF10461946B3
:1056900052EA430619D094EA0C0F02D150EA0136BF
:1056A00013D195EA0C0F05D152EA03361CBF104600
:1056B00019460AD181EA030101F0004141F0FE419F
:1056C00041F470014FF0000070BD41F0FE4141F423
:1056D000780170BD70B54FF0FF0C4CF4E06C1CEA23
:1056E00011541DBF1CEA135594EA0C0F95EA0C0FD8
:1056F00000F0A7F8A4EB050481EA030E52EA033593
:105700004FEA013100F088804FEA03334FF08055B3
:1057100045EA131343EA12634FEA022245EA1115E0
:1057200045EA10654FEA00260EF000419D4208BF91
:10573000964244F1FD0404F5407402D25B084FEA3E
:105740003202B61A65EB03055B084FEA32024FF4EA
:1057500080104FF4002CB6EB020E75EB030E22BF47
:10576000B61A754640EA0C005B084FEA3202B6EB07
:10577000020E75EB030E22BFB61A754640EA5C00B6
:105780005B084FEA3202B6EB020E75EB030E22BF46
:10579000B61A754640EA9C005B084FEA3202B6EB47
:1057A000020E75EB030E22BFB61A754640EADC0006
:1057B00055EA060E18D04FEA051545EA16754FEA68
:1057C00006164FEAC30343EA52734FEAC2025FEA86
:1057D0001C1CC0D111F4801F0BD141EA00014FF015
:1057E00000004FF0004CB6E711F4801F04BF0143E6
:1057F0000020B4F1FD0C88BFBCF5E06F3FF6AFAE02
:10580000B5EB030C04BFB6EB020C5FEA500C50F191
:10581000000041EB045170BD0EF0004E4EEA113114
:1058200014EB5C04C2BFD4EB0C0541EA045170BD1B
:1058300041F480114FF0000E013C90E645EA060E5F
:105840008DE60CEA135594EA0C0F08BF95EA0C0F8D
:105850003FF43BAF94EA0C0F0AD150EA01347FF4D5
:1058600034AF95EA0C0F7FF425AF104619462CE7AC
:1058700095EA0C0F06D152EA03353FF4FDAE10460F
:10588000194622E750EA410618BF52EA43067FF460
:10589000C5AE50EA41047FF40DAF52EA43057FF4F0
:1058A000EBAE12E74FF0FF3C06E000BF4FF0010CFB
:1058B00002E000BF4FF0010C4DF804CD4FEA410C5F
:1058C0007FEA6C5C4FEA430C18BF7FEA6C5C1BD02C
:1058D00001B050EA410C0CBF52EA430C91EA030FAD
:1058E00002BF90EA020F0020704710F1000F91EA0A
:1058F000030F58BF994208BF90422CBFD8176FEAD8
:10590000E37040F0010070474FEA410C7FEA6C5CA5
:1059100002D150EA013C07D14FEA430C7FEA6C5CAC
:10592000D6D152EA033CD3D05DF8040B704700BFD8
:105930008446104662468C461946634600E000BF26
:1059400001B5FFF7B7FF002848BF10F1000F01BDF8
:105950004DF808EDFFF7F4FF0CBF012000205DF8C3
:1059600008FB00BF4DF808EDFFF7EAFF34BF012048
:1059700000205DF808FB00BF4DF808EDFFF7E0FFE1
:1059800094BF012000205DF808FB00BF4DF808ED32
:10599000FFF7CEFF94BF012000205DF808FB00BF99
:1059A0004DF808EDFFF7C4FF34BF012000205DF87B
:1059B00008FB00BF4FEA410212F5001215D211D5C3
:1059C0006FF47873B3EB625212D94FEAC12343F0FC
:1059D000004343EA505311F0004F23FA02F018BF7E
:1059E000404270474FF00000704750EA013005D147
:1059F00011F0004008BF6FF0004070474FF000000A
:105A0000704700BF4BB942B9002908BF002802D037
:105A10004FF0FF31084600F03BB882B0EC462DE96C
:105A2000005000F01DF8DDF804E002B00CBC704737
:105A30002DE9F0411646984604460D4600F02AF836
:105A400006FB01FCA6FB002300FB08C7FB18A21AFB
:105A500065EB0303069CC4E90023BDE8F08100BFA9
:105A60002DE9F041904606460F461D4600F070F9BC
:105A700000FB05F3A0FB084508FB0138069B4544E5
:105A8000341B67EB0505C3E90045BDE8F08100BFA5
:105A9000704700BF00292DE9F00F1D46C0F29D8020
:105AA0000024002DC0F2948080460F4694461E4686
:105AB000E3BB8A4255D9B2FA82F747B1C7F1200554
:105AC00020FA05F601FA07F1BA40B8403143170C45
:105AD000B1FBF7F61FFA82FC07FB16110CFB06F56B
:105AE000030C43EA01439D4208D9711E9B1880F0C4
:105AF00013819D4240F21081023E9B18591BB1FB5D
:105B0000F7F507FB15130CFB05FC80B240EA0341D7
:105B10008C4507D96B1E8A1880F00081944540F2AD
:105B2000FD80023D45EA0641002503E08B420CD989
:105B3000002529460A462B4614B1524263EB430323
:105B400010461946BDE8F00F7047B3FA83F5002DF3
:105B500040F087808B4201D38242EAD800250121A0
:105B6000E8E712B90126B6FBF2F2B2FA82F6002E8D
:105B700039D18E1A130C1FFA82FC0125B6FBF3F7FC
:105B800003FB17610CFB07F84FEA104949EA01468D
:105B9000B04506D9791EB61802D2B04500F2D380BE
:105BA0000F46C8EB0606B6FBF3F103FB11630CFBD3
:105BB00001FC80B240EA03439C4506D94E1E9A1868
:105BC00002D2944500F2C280314641EA0741B1E772
:105BD000E443524263EB430366E7404261EB410119
:105BE0004FF0FF345DE7B240C6F1200921FA09F712
:105BF00020FA09F901FA06F1130CB7FBF3F81FFAC2
:105C000082FC03FB18770CFB08F549EA01094FEA0F
:105C1000194141EA0747B040BD420AD9BF1808F10F
:105C2000FF3680F08E80BD4240F28B80A8F10208E2
:105C3000BF18791BB1FBF3F503FB15170CFB05F639
:105C40001FFA89F949EA07418E4206D96F1E891861
:105C500071D28E426FD9023D89188E1B45EA0845E4
:105C60008CE7C5F1200122FA01F306FA05F627FABE
:105C700001F207FA05F720FA01F11E434FEA16492F
:105C8000B2FBF9F81FFA86FA09FB18220AFB08FB97
:105C90000F433B0C43EA024293450CFA05FC08D93A
:105CA000921908F1FF314AD2934548D9A8F1020868
:105CB0009219CBEB0203B3FBF9F109FB11320AFB9A
:105CC00001FABFB247EA02439A4506D94A1E9B1918
:105CD00033D29A4531D902399B1941EA08410F0C58
:105CE0001FFA8CF808FB07F68AB24FEA1C4C08FB37
:105CF00002F80CFB02620CFB07FC02EB1842964216
:105D000088BF0CF5803CCAEB03030CEB124C6345D7
:105D10000ED305D000250DE70E46EFE61D4601E740
:105D200000FA05F01FFA88F808EB0245A842F1D204
:105D300001390025FEE63D468FE71146CDE788464E
:105D4000B7E7B04675E7023FB6182AE702393CE7E5
:105D50002DE9F007144605460E46002B3DD18A4238
:105D600049D9B2FA82F747B1C7F1200120FA01F20E
:105D700006FA07F6BC40BD401643220CB6FBF2F013
:105D8000A1B202FB106601FB00F32F0C47EA0646A6
:105D9000B34208D9471E361980F0FA80B34240F268
:105DA000F78002383619F61AB6FBF2F302FB1362DB
:105DB00001FB03F1ADB245EA0242914207D95E1EF2
:105DC000121980F0E780914240F2E480023B43EAFE
:105DD00000400021BDE8F00770478B4243D8B3FA7A
:105DE00083F4002C42D18B4202D3824200F2E18044
:105DF00000210120EEE712B90127B7FBF2F4B4FA53
:105E000084F2002A40F089800A1B230CA7B20121EA
:105E1000B2FBF3F603FB162207FB06F04FEA154C24
:105E20004CEA0242904207D9121906F1FF3C02D215
:105E3000904200F2D0806646121AB2FBF3F003FBE8
:105E4000102307FB00F7ADB245EA03439F4207D991
:105E5000421E1B1980F0A0809F4240F29D800238B4
:105E600040EA0640B6E700210846B3E7C4F1200641
:105E700022FA06F703FA04F321FA06F501FA04F10F
:105E800020FA06F63B434FEA134CB5FBFCF71FFA2A
:105E900083F80CFB175508FB07F946EA010A4FEA9D
:105EA0001A4141EA0545A94502FA04F204D97E1EC9
:105EB000ED18C0F081803746C9EB0501B1FBFCF657
:105EC0000CFB161508FB06F81FFA8AFA4AEA054188
:105ED000884503D9751EC91874D32E4646EA07466D
:105EE000370C1FFA82FC0CFB07F5120CB3B20CFB4B
:105EF00003FC02FB035302FB07F203EB1C439D422E
:105F000088BF02F58032C8EB010102EB13429142D7
:105F10004CD343D0304600215CE79440C2F12005C9
:105F200021FA05F620FA05F501FA02F1230CB6FB79
:105F3000F3FCA7B203FB1C6607FB0CF829430D0C0E
:105F400045EA0646B04500FA02F508D936190CF1C3
:105F5000FF303ED2B0453CD9ACF1020C3619C8EB4B
:105F60000602B2FBF3F003FB102607FB00F889B230
:105F700041EA0642904506D9461E121927D290459D
:105F800025D902381219C8EB020240EA0C413FE75A
:105F9000384608E733461AE7104661E700FA04F08E
:105FA0001FFA8CFC0CEB03439842B3D2701E002105
:105FB00010E7214620460DE7A9457FF67CAF023F5A
:105FC000ED1879E7884588D9023EC91886E730463A
:105FD000D9E78446C3E7023E12192DE7014B03605F
:105FE000704700BFB083010870B5012188B0044636
:105FF00001F08AFDA0F13005072D37D8032268464D
:10600000214601F0A9FD1C4904A801F003FD20462A
:1060100004A901F067FD064604A801F0B9FC1EB111
:10602000ADB22846002110E0144904A801F0F2FCAA
:10603000204604A901F056FD044604A801F0A8FC7E
:1060400074B10A35ADB22846314600F0BBFF684650
:1060500001F089FDC1B2284601F0DAF9012401E01E
:106060006FF00104684601F093FC01E04FF0FF344B
:10607000204608B070BD00BFF0E30108F2E301085C
:106080007FB50121054601F03FFDA0F13004072C4A
:1060900023D81549684601F0BDFC2846694601F041
:1060A00021FD0646684601F073FC6EB90F4968464B
:1060B00001F0B0FC2846694601F014FD054668462B
:1060C00001F066FC65B10A34A4B22046012100F05B
:1060D00079FF204601F004F904E04FF0FF3001E0C1
:1060E0006FF0010004B070BDF0E30108F2E30108B5
:1060F000F0B5012185B0044601F006FDA0F130069F
:10610000072E49D8684621460322072301F0FEFCEA
:106110006846264901F0BCFC0546684601F038FC9B
:106120007DB9684621460322062301F0EFFC68464C
:106130001F4901F0ADFC0746684601F029FC0FB984
:106140002DE001251B49684601F064FC20466946A4
:1061500001F0C8FC0746684601F01AFC1FB1B6B250
:106160003046002110E01449684601F053FC2046F7
:10617000694601F0B7FC0446684601F009FC8CB1A1
:106180000A36B6B23046394600F01CFF3046294682
:1061900000F09CFF012007E04FF0FF3004E06FF0BB
:1061A000010001E06FF0020005B0F0BDF4E301086A
:1061B000F9E30108F0E30108F2E301087FB50121EA
:1061C000054601F0A1FCA0F13004072C23D81549A5
:1061D000684601F01FFC2846694601F083FC06462C
:1061E000684601F0D5FB6EB90F49684601F012FC14
:1061F0002846694601F076FC0546684601F0C8FB72
:1062000065B10A34A4B22046032100F0DBFE20462B
:1062100000F0A4FF04E04FF0FF3001E06FF0010058
:1062200004B070BDF0E30108F2E30108034B10B5C0
:106230000446036000F0F8FA204610BDB083010860
:1062400008B50948094900F0DDFB0948094900F093
:10625000D9FB0948094900F0D5FB09480949BDE8BF
:10626000084000F0CFBB00BFFDE30108BD6100089E
:1062700009E40108F160000816E4010881600008E3
:1062800021E40108E95F00087047000013B5084CDD
:10629000002100910A460B46204601F071FA05499B
:1062A000054A204602B0BDE810400CF0A5BD00BF75
:1062B000700B0020DD5F0008E00C002010B50131FC
:1062C000002393420ED0040F092C01D8303400E093
:1062D000373401F8014C01330024000101F8024B6E
:1062E000DBB2EEE710BD00001F4B10B51A88032A81
:1062F00004D804200146188006F0D4FC4FF000605A
:106300004FF4A04106F01CFC1848012421460470FB
:10631000174806F0E3FE05F0B9FC05F0A1F92146A7
:10632000402006F0A3FF6FF07F4005F005FBE7205B
:1063300005F07EFB0F490C7005F0DAF97D2006F0C0
:10634000B9FF18B10C4B1C7006F0C8FF40F6B8300E
:1063500005F026FA05F078FF06F0F2F9074A084939
:1063600001201070087010BDCC1C0020A81C00205B
:1063700000043000F81A0020742600206C1C002055
:10638000621C0020304B10B51A88042A04D805215D
:106390000420198006F086FC2C48017811B12C48A5
:1063A00002F016F9294C237853B127480288052AB0
:1063B00004D806210180042006F074FC02F0C0F924
:1063C000217861B1234C23784BB92348027832B14C
:1063D00022490C781CB9224B18780028E2D0214AB7
:1063E00011780029DED1204C2378002BDAD11C480B
:1063F0000278012A0FD01D4969B1134C2388062B5E
:1064000004D807210420218006F04CFCFFF718FF78
:10641000134A0120107016490029C3D00A4C238862
:10642000072B04D808210420218006F03BFCFFF74D
:106430002BFF20880828B5D8034A092104201180A1
:1064400006F030FCAEE700BFCC1C00206C1C002026
:10645000A16C0008211C0020621C0020F61A0020FC
:10646000780B0020F71A00207426002041620008F3
:1064700089620008524B70B51A6812B11868411E43
:106480001960504B1A783AB14F4A1078002829D039
:106490004E49002949D125E04D4C206810B12368B0
:1064A000591E0FE04B490B78E3B94B4A1078C8B935
:1064B0004A490B78B3B94A4D2A782AB1E72005F04A
:1064C00031FB142121600DE04648017800292FD1CD
:1064D000E72005F0DBFA44483D4B0178002935D030
:1064E00032221A603F4B1A7832B1404D287818B9E1
:1064F0002EE041684B1C43603D490B68B3F57A7F41
:106500000FD300230B6006F047FE3A484FF6FF71A9
:1065100002888A4253D001800420BDE8704006F012
:10652000C1BB0868421C0A6070BD00F019FCD9E7C5
:10653000314B1A78002ACBD04FF6FF7005F0FCF9EA
:10654000E72005F075FA01202870CBE76422C8E740
:1065500021490B7893B1294847F22F52436893425F
:10656000C7D9BFF34F8F264C2648E56805F4E0668F
:1065700046EA0002E260BFF34F8FFEE7154E347823
:1065800034B9204605F0E2FB40F6B73290420DD810
:10659000002005F0DBFB41F657318842ACD90020E2
:1065A00005F0DCFB184B01201870A5E7204605F02C
:1065B000D5FB2A78002A9FD1012131709CE770BD5C
:1065C0007C260020881C0020140F0020616D00082C
:1065D00078260020281B0020F71A0020F91A002036
:1065E000F81A00206C1C0020F51A0020211C002045
:1065F00080260020CC1C0020F61A0020780B0020FA
:1066000000ED00E00400FA05261B002008B5094B48
:10661000186005F0C3FD002005F008FE064805F0EF
:1066200043F805F0D1FD05F0EFFDBDE8084007F0A7
:106630005DBD00BFD4010020A0860100074B186893
:10664000052808D106490A7A012A04D1887A0B7BE9
:10665000C11AC8B270470020704700BFD01C00208C
:10666000780B00200D4B10B51868052813D10C4C81
:10667000217A01290FD16289A389D01A012804D176
:1066800000210320217207F09CFEA389E218591C07
:10669000907BA18110BD4FF0FF3010BDD01C0020B9
:1066A000780B002008B50C4B1968052912D10B4B4B
:1066B0001A6D991881F85400501CB0F5807F08BFFE
:1066C0000020186505F03AFC20B16420BDE80840C0
:1066D00004F0EABF08BD00BFD01C0020780B0020EA
:1066E00070B5234A92F85431012B3FD0D2F85801AB
:1066F000B0F5807F02D10021C2F85811D2F858318C
:10670000126D1B48934203D1002180F8541170BDD3
:106710008CBFC3F58072C3EB0202154CC0F85C213C
:10672000D4F85C5199B2402D07D94033403DC4F8AC
:106730005831C4F85C51402606E0E8180023AEB298
:10674000C4F85801C4F85C310A4A01255018C02128
:10675000324684F8545107F0ABFD2846314607F025
:10676000B1FE2846BDE8704007F01ABE70BD00BFFC
:10677000780B0020CC0B0020094B10B593E81400D7
:106780000833186810180AD008220649FFF796FD4A
:10679000054920460422BDE81040FFF78FBD10BD1B
:1067A000E8F7FF1F820100209201002013B5084C7A
:1067B000002100910A460B46204600F0E1FF054902
:1067C000054A204602B0BDE810400CF015BB00BFE2
:1067D000D80C0020DD5F0008E00C002038B50D4625
:1067E0000446AC4203D254F8043B9847F9E738BD5D
:1067F00008B507480749FFF7F1FF07480749FFF7C2
:10680000EDFF07480749BDE80840FFF7E7BF00BFB5
:1068100060E9010860E9010860E90108B4E90108DC
:10682000B4E90108B4E901080CF05ABC08B5072026
:1068300006F0B0F8FEE70000074A08B513680749FC
:1068400018188842106004D9082006F0A3F80CF04C
:106850000DFB184608BD00BF0000002000480020C6
:106860004FF0FF3070470120704708B50C2006F04C
:1068700091F8FEE7014B1868704700BFE40C002058
:10688000064B0246582000FB013101F1080303CBFF
:106890001060516018689060704700BFE40C0020E1
:1068A000014BD3F864017047E40C0020064B02460C
:1068B000142000FB013101F5B67303CB1060516069
:1068C00018689060704700BFE40C00200E4B2DE963
:1068D000F041D3F8647180460024BC4211DA1425DB
:1068E0006543094E4146701900F5B6700C220DF053
:1068F000E5FD20B97519D5F86801BDE8F0810134CE
:10690000EBE70020BDE8F081E40C00202DE9F04722
:1069100088B0814668460D4601F07CF81E4B002485
:10692000D3F800A054452DDA55B3582666431A4FC4
:10693000494607F1040808EB060004300C220DF06C
:10694000BDFDE8B928460DF089FD06F1100140288B
:1069500034BF0246402208EB010029460CF05CFFE0
:10696000BE19012286F85820694604A8746801F00F
:1069700073F804A8A047044604A801F009F803E04E
:106980000134CFE74FF0FF34684601F001F82046AC
:1069900008B0BDE8F08700BFE40C002038B505461C
:1069A000064C28B105F06AF8012384F8303238BD6E
:1069B00005F012F884F8305238BD00BFE40C002016
:1069C000024B00221A6005F0DBBC00BF7C0B0020EC
:1069D000034A044800231370036005F009BD00BF9B
:1069E000F71A00207C0B0020044B054900200122EF
:1069F0001A7008604FF4C02005F09CBCF71A002004
:106A00007C0B00202DE9F84F04468946002941D02F
:106A100000283FD0204B1D68042D3BD00027AF42FB
:106A20001E4E4FF058080FDA08FB07F856F808100A
:106A3000494507D106EB0802101D21460C220DF036
:106A40003DFD38B30137EAE708FB05F8A6F1040A73
:106A50000AEB080708F11000C7F804900021402253
:106A600030180DF05FF806EB0801081D0C2200211C
:106A70000DF058F82068616807F1080203C2A368A6
:106A80000020013507F1040B87F8580013605437D4
:106A900046F8045CBDE8F88FE40C0020E80C002008
:106AA00073B5002B0CBF6523452306460D461446DF
:106AB000009331462A462346014807F0FBFE7CBD81
:106AC000180F002010B5064C206803F0A9F82368C1
:106AD000013303D0411E4842484110BD012010BD82
:106AE00004000020F0B5274B0646187887B00F4603
:106AF000002843D124490A78002A3FD1FFF7E2FF5A
:106B0000044600283AD1214D8DF80C002B688DF8F1
:106B10000D008DF80E008DF80F0006A9580901EB45
:106B2000800203F01F01012000FA01F052F80C1C52
:106B30000494014342F80C1C04A841F288320592E7
:106B4000009003A9581C2246234603F03BFF00286F
:106B500016DD2B6806A95D0901EB850050F80C5C79
:106B600003F01F0245FA02F515F0010008D018469F
:106B700031463A46234603F0C5FF01E04FF0FF30AF
:106B800007B0F0BD201C0020211C002004000020C4
:106B900038B50B4B054618780C4668B909490A7890
:106BA00052B9FFF78FFF034630B9074829462246FE
:106BB000006804F025F838BD4FF0FF3038BD00BF45
:106BC000201C0020211C00200400002030B51E489D
:106BD000ADF57B7D07F0E6FC002832D11B4B1C484D
:106BE0001C4D05931C491D4A1D4B06900A951D48D6
:106BF0001D4D079108920B931C491D4A1D4B0C908B
:106C000010951D481D4D1E4C0E910F921D491E4A98
:106C100011931E4B1290159517A861AD1391149204
:106C20001693099404900EAC039505F027FC2846B2
:106C300005F02AFC00940448154903AA05AB07F0A7
:106C4000B8FC0DF57B7D30BD180F0020916B00085E
:106C5000E56A0008C1690008E9690008D16900080F
:106C60009D690008897500080D69000875680008AD
:106C700081680008A1680008AD68000895C4000894
:106C8000B9C400086D6F0008CD680008A9C40008E9
:106C9000E8F7FF1F014808F0D8BB00BF180F00201D
:106CA00030B5022011228DB0014603F0D5FD051E3E
:106CB00028DB154907A807F0A8FD022316200024A9
:106CC000ADF80C308DF80E003321E0220123BB20FB
:106CD0008DF811408DF80F108DF810208DF81230BE
:106CE0008DF813000324102203A9009101920023C0
:106CF0001322284607A903F08DFF013CF3D1284653
:106D000003F0D8FD0DB030BDE8F7FF1F10B5114CF2
:106D100086B0FFF75BFF204607F047FC204608F0EF
:106D200025F80446FFF7BCFF03A803F065F99DF8BA
:106D30000D209DF80C300092082104A8064A0DF0A1
:106D40000DFA064804A93C220123FFF7A9FE2046BC
:106D500006B010BD180F00202DE4010833E401082F
:106D600038B5114CD4F8585B2DB1D4F8581B4B1ED4
:106D7000C4F8583B38BDD4F85C3B0C4A52F82300A9
:106D800004F002FEE72004F053FE094A6420D4F820
:106D90005C1BC4F8580B50684B1C8342C4F85C3B26
:106DA000A8BFC4F85C5B38BDE40C00205883010820
:106DB000040000207FB502200121062203F04CFDD3
:106DC000041E23DB00200822022335218DF8020057
:106DD0004FF4FA50ADF800308DF803108DF8042010
:106DE0008DF805208DF806208DF8072001F0E0FAD7
:106DF000694606461022204603F0B8FD0546304697
:106E000001F0D6FA204603F055FD01E04FF0FF35C2
:106E1000284604B070BD000010B5064C206800285C
:106E200005DB03F047FD4FF0FF33236010BD00206A
:106E300010BD00BF0400002030B5A7B0FFF7ECFF85
:106E400002200121062203F007FD334B00281860C1
:106E500052DB3248022216213324A0F8602B80F83E
:106E6000621B80F8634B05A805F0D4FA9DF8143036
:106E70000025009533B1012B17D0294B01A803F150
:106E8000100502E0069A009214E00246596818685C
:106E9000083303C2AB421046F7D101A906AC0FC9B3
:106EA00007C424F8023B1B0C23700A24009D0DB973
:106EB000013C24D1009808B91A490091009B174C55
:106EC000180A1D0E1A0C84F8660B4FF4FA5084F859
:106ED000673B84F8645B84F8652B01F069FA0E491E
:106EE00005461022086804F5366103F03FFD0446AC
:106EF000284601F05DFA0CE04FF0FF3409E07E21F6
:106F000006A80DF06BFB6A4681B206A803F0F8FCF8
:106F1000CCE7204627B030BD04000020E40C002060
:106F20004EE4010804E5D0360F4B2DE9F041D3F8CB
:106F3000647180460024BC4211DA142565430A4E70
:106F40004146701900F5B6700C220DF0B7FA20B961
:106F5000751995F87801BDE8F0810134EBE74FF041
:106F6000FF30BDE8F08100BFE40C002008B5FFF75A
:106F7000DBFF0138082803D8024B1918087F08BD29
:106F8000022008BD5883010837B50B4C002104F5D9
:106F900037650B4600910A46284600F0F1FB28466B
:106FA0000649074A0BF028FF04F50D7003B0BDE851
:106FB000304007F0E7BA00BFE40C0020DD5F0008B6
:106FC000E00C002014282DE9F34104460E4675D844
:106FD000FF2973D000F0A4FC28B10D2C6ED00F2C2B
:106FE0006CD00E2C6AD000F05FFB08B1012C65D983
:106FF00000F03EFF18B1A4F11203012B5ED9304D11
:1070000020012F582F492A188F42B2F8048001D14D
:10701000042003E02C4B9F4203D10820012106F0FD
:1070200031F9ADF80480062E44D8DFE806F00411EB
:10703000181F26313C00224A102302EB04140320BF
:107040000021A1738DF807308DF80600083431E077
:1070500004218DF8071005EB0414012229E04822D1
:107060008DF8072005EB0414022222E028208DF879
:10707000070005EB041403221BE0114B1822032127
:107080008DF807208DF8061003EB0414042210E09D
:107090000B481C2103238DF807108DF8063000EBF8
:1070A0000414052205E000208DF8070005EB041408
:1070B0000622A273384601A905F0B0FFBDE8FC81A5
:1070C0000C00002000080140000C0140142870B59D
:1070D00004460E463ED8204B03EB0010817B01296D
:1070E00038D0022936D0032934D0062932D0FF29DE
:1070F00030D000F015FC30B10D2C2BD00F2C29D046
:107100000E2C00D170BD00F0CFFA10B1012C00D8C8
:1071100070BD00F0ADFE20B1A4F11202012A00D82A
:1071200070BD0D4D05EB0413987B042803D1204658
:107130000021FFF747FF012E05D124012819295905
:1071400083880B6170BD2EB9240129192B598A88B7
:107150005A6170BD70BD00BF0C000020142838B506
:10716000044617D81D4B03EB0010817BFF2911D07B
:1071700004290FD005290DD000F0D2FB28B10D2C29
:1071800008D00F2C06D00E2C04D000F08DFA18B1C8
:10719000012C01D8002038BD00F06AFE18B1A4F11E
:1071A0001202012AF6D90D4D05EB0413987B06282F
:1071B00006D195F85011FF29ECD02046FFF702FFC9
:1071C00024012D19054BAA7BA988185912B905F07D
:1071D0007BFF38BD05F072FF38BD00BF0C000020FA
:1071E000F0B54FF4004091B006F018F801200146C8
:1071F00006F03CF801214FF4C06006F043F8334834
:1072000005F074FD3248334B0A2100248022069099
:1072100008914FF400754FF400664FF400572B4867
:1072200005A905930A920B950C9601250E974FF42C
:1072300060264FF40027079409940D940F9405F0ED
:10724000CDFD2548694600978DF804408DF805402E
:10725000029603948DF8105005F07CFC1F48694697
:1072600000978DF804408DF80540029603948DF840
:10727000105005F06FFC1848294605F08FFC1648A1
:1072800005F09EFC144805F0A0FC0028FAD1124835
:1072900005F09FFC104805F0A1FC0028FAD10F482A
:1072A000012105F07BFC0D4805F08AFC0B4805F038
:1072B0008CFC0028FAD1094805F08BFC074805F042
:1072C0008DFC0028FAD111B0F0BD00BF08000240CB
:1072D000601800204C240140002401400028014097
:1072E000092838B5044601D80A34A4B200F018FBC6
:1072F00038B10D2C01D1002038BD0F2CFBD00E2C45
:10730000F9D000F0D1F900F0B3FD18B1A4F11203E7
:10731000012BF0D9142CEED8384D05EB04108279EE
:10732000FF2AE8D095F85211914206D0837B0621BE
:10733000204685F85031FFF745FE95F85351012D51
:1073400005D1FFF74DFF2D4A002082F853012B4D48
:1073500005EB0414A17995F852318B420FD02848DF
:10736000012295F8513105F046FCA179254801220A
:1073700095F8513105F03FFCA17985F852110021B3
:10738000214A002042F8210001310A29F8D11F4882
:1073900005F057FD1B48012105F07AFC1B4801212F
:1073A00005F03CFD1648012105F001FC14480121BF
:1073B00005F018FC022005F047FD0028FAD0022055
:1073C00005F050FD0E48002105F0F1FB0F480021AB
:1073D00005F024FD00231A460B4951F8230051F80B
:1073E0002310013389B201EB10400A2B0244F3D180
:1073F0001421B2FBF1F080B238BD00BF0C000020B8
:1074000000240140002801406018002008000240CC
:107410002DE9F041142888B004460D4600F2A780FB
:10742000544B03EB00108168002900F0A08000F0AD
:1074300077FA40B10D2C00F09A800F2C00F0978065
:107440000E2C00F0948000F02FF910B1012C40F2C6
:107450008E8000F00DFD20B1A4F11202012A40F24D
:107460008680444B03EB0410817B09B104297ED153
:10747000414E424A37684BF680316943B7FBF2F31D
:10748000581EFF2586B2012091FBF5F7014605F055
:10749000F9FE04212046FFF795FD364ABFB202EB04
:1074A00004139968B1F1804F02D10120014608E030
:1074B000334D0220A94203D03248814203D1042037
:1074C000012105F0EBFE2B4B4BF67F3203EB04154D
:1074D000ADF80460A868002601A9ADF80A60ADF80F
:1074E0000660ADF8082005F0CDFFADF81860AE8954
:1074F0006021012005F10808ADF81010ADF8120068
:10750000ADF8167046B9A86804A906F005F8A86891
:10751000082106F041F91FE0042E08D1A86804A94B
:1075200006F03EF8A868082106F03EF914E0082E9F
:1075300008D1A86804A906F077F8A868314606F0D3
:107540003DF909E00C2E07D1A86804A906F0AEF8B1
:10755000A868082106F03AF9064A012102EB041452
:10756000A06806F00DF9A068012106F0E6F808B061
:10757000BDE8F0810C000020C802002000366E013A
:10758000000400400008004004F0D0BF13B5084CD0
:10759000002100910A460B46204600F0F1F805490B
:1075A000054A204602B0BDE810400BF025BC00BFE4
:1075B00088180020DD5F0008E00C0020024B1878DE
:1075C0005978401A704700BF90180020064B5A782F
:1075D0001978914204D99818013280785A7070470E
:1075E0004FF0FF30704700BF90180020054B5A78CD
:1075F0001978914202D99818807870474FF0FF307F
:10760000704700BF9018002070470000014B0360D6
:10761000704700BFC8830108034B10B504460360E0
:10762000FFF702F9204610BDC8830108F8B5094BE1
:10763000054693F82200164650B10C468F18BC42FE
:1076400006D0296828468A6814F8011B9047F6E797
:107650003046F8BD9018002010B50C4B012293F86D
:1076600022408CB193F823401F2C02D942600020A5
:1076700010BD93F824001C1884F82510411CC8B2D2
:1076800083F8240083F82300104610BD90180020D2
:1076900000224260024A4FF47A71816002607047B2
:1076A0008883010870477047014B93F85900704771
:1076B0009018002073B50E4C002104F164050D4EA6
:1076C0000B4600910A46284600F05AF86C343246C0
:1076D000094928460BF090FB2046FFF7D9FF0749E0
:1076E0002046324602B0BDE870400BF085BB00BFBB
:1076F00090180020E00C0020DD5F00080D760008E7
:1077000008B5034B53F8200000B1804708BD00BF07
:107710000C19002013B5084C002100910A460B46B5
:10772000204600F02DF80549054A204602B0BDE884
:1077300010400BF061BB00BF4C190020DD5F00085A
:10774000E00C00202DE9F041002407460E462546B6
:107750003B1919790A22304600F0AFF82E218046F5
:10776000304600F078F801344044032C0544EFD152
:107770003046F9790A2200F0A0F82818BDE8F08117
:1077800030B58371044D9DF80C30044605600171DD
:107790004271C37130BD00BFB083010805480021AC
:1077A000054B017141718171C171044A0449036043
:1077B0000BF022BB54190020B0830108E00C00201C
:1077C000DD5F000813B5084C002100910A460B4606
:1077D0002046FFF7D5FF0549054A204602B0BDE81F
:1077E00010400BF009BB00BF5C190020DD5F0008F2
:1077F000E00C0020014B0360704700BFC883010804
:10780000F8B506460C468F180025BC4207D03368F1
:1078100030469A6814F8011B90472D18F5E7284662
:10782000F8BD0000034B10B504460360FEF7FCFFF3
:10783000204610BDC883010838B505460C460846E9
:1078400041B10CF00BFE2B680246DB68284621464E
:10785000984738BD38BD08B503689A68904708BD99
:1078600070B500238AB08DF82430012A98BF0A220F
:107870000DF12303B1FBF2F505FB1211CCB2092C7B
:107880001E4601D8303400E03734E4B203F8014931
:107890002946002DEED13146FFF7CEFF0AB070BD6C
:1078A00010B5044622B90268C9B29268904710BD6B
:1078B000D2B2BDE81040FFF7D3BFFFF7F1BF000021
:1078C00013B5084C002100910A460B462046FFF7ED
:1078D00057FF0549054A204602B0BDE810400BF0AD
:1078E0008BBA00BF6C190020DD5F0008E00C00209F
:1078F00013B5084C002100910A460B462046FFF7BD
:107900003FFF0549054A204602B0BDE810400BF094
:1079100073BA00BF74190020DD5F0008E00C00207E
:10792000014B587D704700BF7C1900207047000054
:1079300013B5084C002100910A460B462046FFF77C
:107940001FFF0549054A204602B0BDE810400BF074
:1079500053BA00BF94190020DD5F0008E00C00203E
:1079600013B5084C002100910A460B462046FFF74C
:1079700007FF0549054A204602B0BDE810400BF05C
:107980003BBA00BFA0190020DD5F0008E00C00201A
:1079900010B5044600680BF0A3FB204610BD10B5DF
:1079A0000446006808B10BF09BFB00232360A36032
:1079B000636010BD38B504460D46006801310CF017
:1079C0006FF910B184E82100012038BD036810B5BB
:1079D000044613B14068884207D22046FFF7EAFF09
:1079E00020B1A16809B922681170012010BD70B5DD
:1079F0000E46114604461546FFF7E8FF18B9204623
:107A0000FFF7CDFF04E0A560206831460CF0C8FC0C
:107A1000204670BD38B50023044603604360836090
:107A200003730D4639B108460CF018FD294602468D
:107A30002046FFF7DCFF204638BD884210B50B46D4
:107A4000044607D0096819B19A68FFF7D0FF01E032
:107A5000FFF7A5FF204610BD002310B504460360C4
:107A6000436083600373FFF7E8FF204610BD38B51D
:107A700005460C4641B108460CF0F0FC2146024692
:107A80002846FFF7B4FF01E0FFF789FF284638BD1D
:107A9000826808B50B4612B919B9012008BD11B9A1
:107AA0000368187802E000680CF08CFBD0F101004C
:107AB00038BF002008BD10B58B688468E41AA24264
:107AC0000CD8006868B1096851B180181A460CF0EA
:107AD000F5FCD0F1010038BF002010BD002010BD22
:107AE000084610BD82688B689A4202D30022FFF7D5
:107AF000E2BF002070478368994203D2006810B14A
:107B0000405C704700207047FFF7F5BF9A422DE9AF
:107B1000F04107460D4614461E4601D93446164626
:107B200038460C49FFF776FFA86884420FD82968C9
:107B3000864228BF0646002211F806808A552B6827
:107B400038461919FFF793FF286800F80680384671
:107B5000BDE8F08118E6010810B58B680446FFF710
:107B6000D5FF204610BD006808B10BF087B97047FB
:107B700013B5084C002100910A460B462046FFF73A
:107B8000FFFD0549054A204602B0BDE810400BF054
:107B900033B900BFA8190020DD5F0008E00C002009
:107BA00013B5084C002100910A460B462046FFF70A
:107BB000E7FD0549054A204602B0BDE810400BF03C
:107BC0001BB900BFB0190020DD5F0008E00C0020E9
:107BD00038B51A4C94F92C30002B2DD094F82D0088
:107BE000002829D005F0A2FB94F82C2094F82D5001
:107BF00051B2002995FBF1F306DD012B0BDC511E80
:107C000084F82C10002407E0591C04DB013284F8AE
:107C10002C20022400E00124084B041993F82D20A5
:107C2000511E83F82D1005F0B5FB204605F092FBA0
:107C3000BDE8384005F0AEBB38BD00BFB819002024
:107C400013B5084C002100910A460B462046FFF769
:107C500097FD0549054A204602B0BDE810400BF0EB
:107C6000CBB800BFE8190020DD5F0008E00C002061
:107C700013B5084C002100910A460B462046FFF739
:107C80007FFD0549054A204602B0BDE810400BF0D3
:107C9000B3B800BFF4190020DD5F0008E00C00203D
:107CA000014B0360704700BFC88301080369186C6B
:107CB000596C421A02F03F0070470369196C5A6C04
:107CC000914202D0586C185C70474FF0FF307047FB
:107CD0000369196C5A6C914207D0586C596C185C46
:107CE0004A1C02F03F01596470474FF0FF30704763
:107CF00070B504460E462C4840F2277105F0A7FDEA
:107D000020B963691A6C586C824211D161690D6C9B
:107D10006B1C03F03F056069426C95420FD0EFF396
:107D20001081CA0732D5036C426C934207D12DE013
:107D30001D4840F22771012205F061FDE6E71A486F
:107D400040F2277105F083FD0028E4D01648802119
:107D500005F077FD0028DED00022134840F227719D
:107D600005F04DFD63695A6C501C995C58640E48CF
:107D700005F05FFD61690C484B6C03F03F024A64FB
:107D800040F22771012205F03AFDC4E7016C465428
:107D9000606940F2277105640125257602482A466C
:107DA00005F02DFD284670BD00440040436910B524
:107DB0000446196C5A6C9142FBD1207E10B9002305
:107DC000237610BD0348402105F03BFD0028F4D088
:107DD000F5E700BF00440040034B10B504460360C4
:107DE000FEF722FD204610BDC883010810B51E48CD
:107DF00040F2255105F02BFD78B11B4805F01DFD23
:107E00001A4BC0B25A6D511C01F03F02996D8A4263
:107E100003D0596D5A6559180875134840F22771F7
:107E200005F015FDF8B1114CD4F89C00D4F8A03041
:107E3000984207D10C4840F227710022BDE810405B
:107E400005F0DDBCD4F8A0002218431C92F85C10A9
:107E50000548C4F8A03005F0ECFCD4F8A01001F0FF
:107E60003F00C4F8A00010BD00440040FC190020F1
:107E7000014B187C704700BFFC190020F7B5164C69
:107E8000002504F1A406154F2B4629462A460095E5
:107E90003046FFF775FC3A46304611490AF0ACFF10
:107EA00004F114010F4804F15C02C4F8BC100E493F
:107EB0004FF47A73C4F8AC00C4F8C02004F1AC00ED
:107EC0003A46C4F8B050C4F8B43084F8C45003B093
:107ED000BDE8F0400AF090BFFC190020E00C002043
:107EE000DD5F0008E0830108A17C000870474FF0C7
:107EF000FF307047014B0360704700BFC883010823
:107F0000034B10B504460360FEF78EFC204610BDFF
:107F1000C8830108084608B5FEF7C4FB012008BD68
:107F200008B5FEF78BFB08BDFEF79CBB0022426044
:107F3000024A4FF47A718160026070470884010838
:107F40000846FEF763BB000037B50D4C00210D4D10
:107F50000B4600910A462046FFF712FC2A460A49C2
:107F6000204608340AF048FF2046FFF7DFFF0749A4
:107F700020462A4603B0BDE830400AF03DBF00BFAE
:107F8000C41A0020E00C0020DD5F0008F57E000828
:107F90007047000037B50B4C00210B4D0B4600918C
:107FA0000A462046FFF7ECFB2A46204607490AF01E
:107FB00023FF074904F108002A4603B0BDE830401A
:107FC0000AF01ABFDC1A0020E00C0020DD5F000878
:107FD000917F000800230360184670470023036068
:107FE0001846704700230360184670472DE9F0419A
:107FF00091F8008086B00C46B8F1000F14BF90468F
:108000004FF0000806460CF029FA074620460CF00F
:1080100025FA012518231E210222019302910392C1
:108020000590002300950494404631463A4602F0FC
:1080300023FF034B18705D7006B0BDE8F08100BFF0
:10804000E81A0020F8B5394C0346A57808462E46B4
:10805000002D69D148F21007BB4246D00BDC48F234
:10806000010293421FD0501C834225D0992B5BD133
:108070000121A174F8BD48F28007BB420ED0B3F5D0
:10808000084F43D048F2400083424DD104F1140020
:108090000BF0C2FBA16A4B1CA362F8BD0121E17089
:1080A00021716571F8BD0123A371FFF76DFA00F529
:1080B000EA423032A260F8BDA37963B1FFF764FAF7
:1080C00000F5EA4230324FF47F40A26003F034FC06
:1080D000E72003F0ADFC1548002181710173417365
:1080E0008173C17301744174F8BD0B7D63B90122C2
:1080F0004FF47F402273A360227403F01DFCE7203D
:10810000BDE8F84003F094BC2573F8BD294601F0A2
:1081100082F90121064601F0C5F9054A1068864238
:1081200002D1E573A5736573F8BD00BFE81A00209E
:108130000400002070B500228CB0174B06460D4697
:108140001020022101F0F2FE01AB0022B45A200AF5
:1081500044F00101AC5A023203F8024C240A03F83D
:10816000041C03F8030C03F8014C0433182AEDD166
:108170006B4630210422102001F0D8FE002130226D
:1081800068460BF0CFFC1020014634226B4601F00C
:10819000CDFEC0B20CB070BD67E4010810B50A4C4A
:1081A00004F12C0001F028FF60B994F82C30012B69
:1081B00009D194F82D00B0F11C0CDCF1000151EB59
:1081C0000C0010BD002010BDE81A00201FB50A22C7
:1081D00000234FF461504FF461618DE80F00064BAE
:1081E00044F620621A60684601A902AA03AB01F0B6
:1081F0001BFE05B000BD00BF841C00201FB500237E
:10820000009301930293039301A8694602AA03AB6A
:1082100001F0D2FD05B000BD70B500210A4C0E2062
:1082200001F004FF102510210E2001F0FFFE0021B7
:108230002A4620460BF076FC0E20294600222346D3
:10824000BDE8704001F072BE161B002030B5544DE1
:1082500000249FB0FF20EC702C716C70AC712C73FB
:10826000AC746C73AC73EC732C7403F065FBE72097
:1082700003F0DEFB21462246204602F0D9FD2B46C4
:10828000012103F82F4F0E200A4601F04FFE444B08
:108290009879012805D1642003F0FEF901F028FA4D
:1082A000F5E710210C2001F0C1FE3E4802F08FFAE4
:1082B0003D4802F031FF012002F012FF68463B49C1
:1082C00000F030FF364DE9786A780A4318D195F806
:1082D0003E10002959D0FF2002F0B6FE002854D1EC
:1082E0001A24013C06D0E72003F0D0FB322003F033
:1082F000D3F9F6E7FFF790FF294A82F83E40E1E71D
:10830000E72003F095FB0E200121002205F12E034A
:1083100001F0E0FDEC7814B102F01CFF2870204C55
:10832000012123780022581C234603F82E0F0E202B
:1083300001F0FCFD00200146012202F079FD01253B
:10834000234603F82F5F29462A460E2001F0EEFD52
:1083500002F0F4FC642003F09FF9002002F0B8FC66
:1083600084F83F504FF47F400025257403F0E4FA71
:10837000E72003F05DFB48F2042002F07FFEFFF7E8
:1083800025FF84F840501FB030BDE72003F07EFB8E
:10839000FA2003F081F9684600F01CFF92E700BF65
:1083A000E81A00202884010860010020ED7F000801
:1083B000024B1A6818601046704700BF841C0020EA
:1083C0001FB5044603F01CFE03F05CFD0E4B0F4886
:1083D0000F49104A009301900F4B029103920F49ED
:1083E0000F4A104802F05CFC642003F055F9204667
:1083F00002F06EFC0C4802F08FFE48F2042004B03C
:10840000BDE8104002F03ABE3DBF000851BF000871
:10841000BDBF0008E5BF0008E57F0008D57F000864
:10842000DD7F0008458000086001002038B55F4C02
:1084300001254FF0FF10A57003F07EFAE72003F04E
:10844000F7FA2846FFF7BCFF04F1C10001F0A9FDCF
:10845000574BD8701D710020554D84F8C7002A79FC
:10846000524C28469AB194F8C71002290FD86421BB
:108470000022022004F1C80301F02CFD94F8C7107B
:10848000642814BFFF2200222A71481CE4E701235C
:108490000371002584F8C750454D444C2A791AB120
:1084A00094F8C700022870D994F8C710414B424D88
:1084B0003F4C0122032908BF1D4622713C4C207904
:1084C00030B13E4800F11801FFF734FE2071F5E7A6
:1084D00001212171364C23793BB10B2080210022F0
:1084E0002B4601F023FD2071F4E701252571304C66
:1084F00022793AB1022064210022314B01F016FDAD
:108500002071F4E794F903100120207121B127496B
:10851000012081F82C010FE0244B93F8C15025F085
:10852000010483F8C140224D2A79002AEFD0254862
:1085300001F02EFD2871F6E71C4C94F82C3143B164
:108540001B490420C988204A01F037FD84F82C011A
:10855000F2E7012584F82D51144C94F82D5145B1C2
:10856000134A05201189194A01F027FD84F82D01CD
:10857000F2E72846FFF724FFFFF710FE10B1A570C1
:10858000A07838BD4FF0FF3038BD04F141030B2017
:108590008021002201F09EFC94F8C730802814BF8F
:1085A000FF20002028715D1C74E700BFE81A00203E
:1085B0006001002039840108291B0020BA840108C9
:1085C000B01B0020A91B0020EA84010842A4010876
:1085D00038B5534CC4F830010020FFF7F1FE0123F9
:1085E000002084F83F302074FFF7D8FD0546E8B935
:1085F0004C4C2188052919D0FFF718FF0028F3D02B
:108600002088052888BF25802588691C218003F0E3
:1086100043FEBFF34F8F444C444BE26802F4E060EA
:1086200040EA0305E560BFF34F8FFEE73C4B93F84C
:10863000C120082A0BD193F8C20088B993F8C3402F
:10864000282C0DD1374B1888012829D155E03AB98B
:1086500093F8C210192903D193F8C330942BF0E793
:10866000334A2F4B117A90780824527A83F8C1400C
:1086700083F8C51000242F4983F8C24083F8C40052
:108680002824012083F8C34083F8C6200871294CB0
:108690002279002AD6D0284801F07AFC2071F6E72A
:1086A0000E2010210022254B01F014FC102824D1AB
:1086B0001B4C6279AAB994F82E301BB9012084F8BA
:1086C00040000EE094F82F0058B90146012202F054
:1086D000AFFB0121234603F82F1F0E200A4601F0AD
:1086E00025FC0F494A799AB991F8403083B1FFF7D8
:1086F00085FDBDE83840FFF769BDFF20094C02F059
:10870000A3FCFFF789FD0021218003F0C5FDCFE721
:108710004FF47F4003F010F9E72003F089F9E6E712
:10872000E81A0020B602002000ED00E00400FA057F
:10873000E8F7FF1F60010020A91B0020161B002086
:108740002DE9F3419C4C04F027FD0023C4F834319B
:1087500094F8380148B994F8391131B9A26882B354
:10876000FEF712FFA468A0422BD3934C94F83F006D
:10877000002841D00025A571A5602573C4F83C519F
:1087800084F83851012684F83F506573A573E5736A
:10879000657402F0D3FA6FF07F40267403F0CCF8D2
:1087A000E72003F045F9642002F076FF94F84010CA
:1087B00011B3284602F08CFA84F83F60FFF746FDBB
:1087C0001AE07D4C94F83F30B3B9607928B9FEF7D0
:1087D000DBFE00F5EA413031A160002002F078FABA
:1087E000012200234FF47F4084F83F20237403F0DC
:1087F000A3F8E72003F01CF96F4C94F8402012B165
:10880000FFF724FD04E0637913B1267B35460EB3F0
:1088100069480179012914D1047B012C11D1827995
:10882000012A0ED1032465480BF018FE634982B279
:10883000012002F0FBF9631E13F0FF04F3D15E4840
:1088400004715D4C217B2346E1B194F83921002A63
:1088500076D017E0314632463046A66002F0E8FA9C
:1088600057480BF0FBFD574F804638460BF0F6FD9E
:1088700000970190791F03204246334602F074FAB4
:108880006671C5E793F8430120B14F4800213A22B1
:108890000BF048F9484B93F87A2132B9587B0028FD
:1088A0005AD19B7B002B57D1BEE01C7B04B393F8BD
:1088B0003901E8B9597B00295FD019E0234603F854
:1088C000312F0E200121032201F030FB3A4C00250C
:1088D0004FF6FF70257403F02FF8E72003F0A8F897
:1088E000FEF7AAFAA84273DBC4F83C510123637374
:1088F000314C617B002900F09780A27BBAB9FEF76A
:1089000005FA002811D002DA4FF47F0007E00128B1
:1089100001D12E4803E0022803D14FF0FF1003F0ED
:108920000BF8E72003F084F801E00120A073FEF7C4
:10893000B1F9002878D1204BD8739873587373E03D
:1089400094F843110029A5D1642002F0A5FE04F596
:10895000A07001F0ADFA9DE7FEF75EFA164900221D
:108960004FF47F40CA738A734A7302F0E5FFE72031
:1089700002B0BDE8F04103F05BB85D7C002DA5D0EE
:108980004FF47F0002F0D8FF0B4C627C002A95D098
:10899000E72003F04DF84FF4FA7002F07DFEE72077
:1089A00003F054F84FF4FA7002F076FE657C691E0D
:1089B000CAB26274E8E700BFE81A00206A0100202A
:1089C0007101002076010020281C00200060FF00BB
:1089D00094F8383143BBD4F83C01411C0229C4F857
:1089E0003C1102D1012284F83821FEF7E3F9002876
:1089F0000F4C0BDAD4F83C01411C0229C4F83C119D
:108A000002D1012284F83821022300E00323637499
:108A1000074C0121607C234603F8310F03220E200E
:108A200001F084FA002362E702B0BDE8F08100BFE4
:108A3000E81A002013B5084C002100910A460B46A5
:108A40002046FEF79DFE0549054A204602B0BDE8D6
:108A500010400AF0D1B900BF641C0020DD5F00089F
:108A6000E00C0020704708B5012003F093FFFEE7FB
:108A700008B5032003F08EFFFEE708B5042003F0DD
:108A800089FFFEE708B5052003F084FFFEE7704785
:108A90007047704708B503F041FDBDE80840FDF799
:108AA000E9BC000008B5024B0BB1AFF3008008BD74
:108AB0000000000008B5024B0BB1FFF797F908BDA5
:108AC000ED7D000808B5024B0BB1FEF7EBFD08BDCC
:108AD000A576000808B5024B0BB1FEF7E4FD08BD12
:108AE000A776000808B5024B0BB1FEF71FFF08BDC3
:108AF0002D79000808B5012004F000FA38B10120F2
:108B000004F00CFA024B13B10020FEF7F9FD08BD8A
:108B10000177000808B5022004F0F0F938B102200E
:108B200004F0FCF9024B13B10120FEF7E9FD08BD8A
:108B30000177000808B5042004F0E0F978B10420BA
:108B400004F0ECF90020064B0146188003F02CF8E5
:108B5000044810210122BDE8084004F008BE08BD09
:108B6000A41C0020002C014008B5082004F0C6F920
:108B700038B1082004F0D2F9024B13B10320FEF7FC
:108B8000BFFD08BD0177000808B5102004F0B6F954
:108B900038B1102004F0C2F9024B13B10420FEF7E3
:108BA000AFFD08BD0177000808B5202004F0A6F944
:108BB00038B1202004F0B2F90E4B13B10520FEF7B6
:108BC0009FFD402004F09AF938B1402004F0A6F946
:108BD000084810B10620FEF793FD802004F08EF9BE
:108BE00038B1802004F09AF9024911B10720FEF74C
:108BF00087FD08BD0177000808B54FF4005004F068
:108C00007DF940B14FF4005004F088F9174B13B1CF
:108C10000D20FEF775FD4FF4804004F06FF940B170
:108C20004FF4804004F07AF9104810B10E20FEF79E
:108C300067FD4FF4004004F061F940B14FF400408B
:108C400004F06CF9094911B10F20FEF759FD4FF4FA
:108C5000006004F053F938B14FF4006004F05EF99D
:108C6000BDE8084002F0A2BC08BD00BF01770008C3
:108C700008B50F48102104F0B3FDC0B10C48102115
:108C800004F0B9FD002003F051F828B9094B1A8807
:108C90000A3290B2188008BD10210548002204F065
:108CA00066FD00200121BDE8084002F07DBF08BD3F
:108CB000002C0140A41C002008B5012004F086FB14
:108CC00050B1012004F094FB044B0BB1FEF780FF80
:108CD000BDE8084004F05EBB08BD00BFD17B0008C2
:108CE00008B5022004F072FBB0B10C4B00224FF427
:108CF00000301A7004F012F9012004F077FA10B174
:108D0000012004F07DFA04F045FB022004F070FB22
:108D1000BDE8084004F03EBB08BD00BF211C002098
:108D200002F0D4BB00F062B838B514490B78012BBF
:108D300023D1134A13680BB90B7038BD114C402B6B
:108D4000206881B205D94030403B20601360402547
:108D500004E09DB2C3180020236010600A4A501836
:108D6000C0212A4605F0A4FA0120294605F0AAFBF5
:108D70000120BDE8384005F013BB38BDCC0C002005
:108D8000D40C0020D00C0020CC0B0020094908B5E1
:108D90000020094B0122088003201A7005F0BEFB59
:108DA000064B0246188006484FF48871BDE808401B
:108DB00005F095BA840B0020800B0020820B002068
:108DC000860B0020074B1868052809D1064B1A6846
:108DD000511C052A196003D100201860FDF780BCE2
:108DE000704700BFD01C0020701C00203A4A38B5E4
:108DF00011683A4B88B23A4D18801C882988214066
:108E000001F4007084B244B14FF6FF5515609A78B2
:108E1000511CC8B29870FFF7D5FF304C304B2588F5
:108E20001A882A4002F4004188B225461C4608B13F
:108E300005F078F92A882388134003F4806188B20A
:108E400030B1254B27494FF6FF321A6048688047FA
:108E5000224A234B11881B88194001F4005081B22B
:108E600019B11D494DF6FF7008601288134003F4D4
:108E7000805398B230B1184A4EF6FF71116000204D
:108E800003F044FD154B164918880A88024002F485
:108E9000006398B260B114490A7812B103F016FD6C
:108EA00002E0022003F032FD0B4B4FF2FF7018601E
:108EB0000A490B480A880388134003F480718AB278
:108EC00042B1054B4FF6FF6018600720BDE83840FF
:108ED00003F01CBD38BD00BF445C0040741C002082
:108EE000C02600200C020020DC020020034B987AF0
:108EF00010B1034905220A60704700BF9C2600207C
:108F0000D01C0020014B04221A607047D01C0020A6
:108F1000034B1A78202A01D100201870704700BF37
:108F2000781C002070470000212810B508D1114896
:108F30000368197801F07F02212A11D0022010BDA8
:108F40002028FBD10B4B19680A780B4902F07F03EC
:108F50000A4A212B0CBF0B46002310700BB9EDE71A
:108F6000074B044C206800248361448220469847C4
:108F7000204610BDBC260020D18F0008781C0020A0
:108F8000B98F0008074B19680A7802F07F03212B7C
:108F900005D1022801D1002070472228FBD00220F1
:108FA000704700BFBC26002009B10220704701288D
:108FB000FBD808467047000020B9034B0822196807
:108FC0000A82704701487047BC260020D401002067
:108FD00020B9034B082219680A827047014870477C
:108FE000BC260020D4010020054B1968CA78042A49
:108FF00004D8044B03EBC20104F014BE00207047F8
:10900000BC260020DC010020014904F00BBE00BF9B
:10901000FC010020014904F005BE00BF040200204D
:10902000334A344BD179186810B5002441728472E8
:10903000C472204605F066F920464FF4007105F031
:1090400069F91021204605F071F94021204605F00C
:109050000DFA8021204605F0F9F9204605F0C2F905
:10906000254B204693F8641005F03AFA204605F0A7
:10907000A8F90120214605F04DF90120C02105F095
:10908000E5F90120202105F051F90120214605F0E4
:109090006AF902204FF4C06105F03CF902204FF458
:1090A000807105F0D3F90220214605F05CF9022019
:1090B000202105F03BF90320214605F02BF9032080
:1090C0004FF4887105F0D2F90320402105F008FA29
:1090D00003204FF4405105F046F90320214605F0E6
:1090E00025F9204604F0B0FF044A0120106010BDAD
:1090F000E2BA0108BC260020D4010020D01C0020C8
:1091000010B5FDF739FB054B00241868847203F095
:10911000C5FB05F019FA02490C6010BDBC26002001
:10912000D01C002038B504460D46FEF7FFFE204651
:1091300025614FF41651FEF703FF204638BD70B588
:1091400006460D46002428460BF088F9844208D2D2
:10915000295D3046FEF7DEFE012002F09DFA013463
:10916000F1E770BDF8B504460E46174600252046C7
:10917000FEF7D6FE0028FADD2046FEF7D5FEBD42FA
:10918000C1B206D10023337020461149FFF7D7FF43
:1091900014E00D29F6D00A29F4D0082901D07F293E
:1091A00004D1002DE3D0013E013D02E006F8011B91
:1091B00001352046EDB2FEF7ADFED8E72046FEF7BA
:1091C000AFFE002803DD2046FEF7AEFEF6E7F8BD51
:1091D00016E60108F0B585B00446FEF7A1FE0028AA
:1091E00040F39D802046FEF79FFEC0B2772867D1EE
:1091F00004F1140600212122304604F135050AF05D
:1092000091FC0021412228460AF08CFC04F17607EB
:10921000002284F8762020467A704249FFF78FFFBB
:10922000204631462022FFF79DFF20463E49FFF7AA
:1092300086FF394601222046FFF794FF94F87630E6
:10924000A3F130010329F0D8312B0BD12046374947
:10925000FFF775FF20463649FFF771FF2046354975
:10926000FFF76DFF94F87600B0F1300708D0204684
:109270003149FFF764FF204629464022FFF772FF7D
:1092800020462E49FFF75BFF23693A4630462946C0
:10929000984720462A49FFF752FF20462949FFF701
:1092A0004EFF20462849FFF74AFF20462749FFF78F
:1092B00046FF20462649FFF742FF2046254929E080
:1092C00069282CD1244A01AB10685168002503C3DA
:1092D0009168204619602149FFF731FF01AEAE5D6C
:1092E000300900F13001392988BF00F1570106F03B
:1092F0000F062046FEF70EFE06F13001392988BF21
:1093000006F1570120460135FEF704FE0C2DE5D18C
:109310001349204605B0BDE8F040FFF710BF05B087
:10932000F0BD00BF6AE4010871E401089EE4010891
:10933000D4E40108FFE4010845E5010850E501080F
:1093400093E50108B3E50108E6E5010819E601081F
:1093500058E6010889E60108E8F7FF1F9FE60108C3
:1093600016E6010813B5084C002100910A460B4689
:109370002046FEF705FA0549054A204602B0BDE839
:10938000104009F039BD00BF7C1C0020DD5F0008E3
:10939000E00C0020002100F004B80E4B5B58435055
:1093A00004310D480D4B42189A42FFF4F6AF0C4AB7
:1093B00000F003B8002342F8043B0A4B9A42FFF442
:1093C000F9AF03F0EDF9FCF78FFFFDF711FAFCF7A9
:1093D000D9FF7047B4E9010800000020700B00209D
:1093E000700B0020CC260020FFF7FEBF01700B0A97
:1093F0000A0C090E43708270C1700430704701700E
:10940000090A41700230704743185A78405C00EBFB
:10941000022188B2704710B543189A78DC78415C15
:10942000120402EB04625878521802EB002010BDBF
:1094300073B544790023022C01930FD0032C19D06B
:10944000012C2BD1164D28692E4620B1296901A87F
:1094500088470246B8B9B16801201BE0104DE868A2
:109460002E4620B1E96801A88847024658B9B1687C
:1094700002200FE00A4D6A692E464AB16B6901A8C5
:109480009847024620B1A9682046BDF8043003E0A1
:10949000B16803200022134600F02AFC7CBD00BF07
:1094A000041E0020072830B512D8012910D8EFF388
:1094B000108472B6012505FA00F501FA00F0054B9B
:1094C0001A6822EA050202431A60E30700D462B672
:1094D00030BD00BF64020020F0B5012187B0054611
:1094E000FFF792FF00F48043044698B250B3B4F5FE
:1094F000824F27D128460521FFF786FF0026074621
:1095000007353446BE4208D028460221FFF77CFFCB
:10951000013624180435B6B2F4E7744B188E2118BE
:109520008AB21A86D86B2418DC63D96B9A6B914285
:1095300040F0CE8093F84000002800F0C9809B697D
:10954000992033E024F4FF4121F07F0290B20028FB
:1095500000F09B8048F2100294422AD00CD8B4F557
:10956000004F40F2C08048F202039C4217D9991C78
:109570008C4240F0B88012E048F2800084420ED065
:1095800005D848F24002944240F0AD8051E0B4F575
:10959000024F04D0B4F5084F40F0A5806CE0534969
:1095A0008869002800F094808B69204600210A46D3
:1095B00069E00023EA1851790DF803100133042BF8
:1095C000F8D1687A2B7BAA7AE97A8DF804008DF8B5
:1095D00007308DF805208DF8061005F10D000023E9
:1095E00006AAD218C15C0133042B02F8101CF7D173
:1095F00005F11100002306AAD218C15C0133042B27
:1096000002F80C1CF7D105F11500002300AAD218AE
:10961000C15C0133042B1174F8D1344928798A696B
:109620008DF81400002A53D08B6920466946152214
:1096300029E0053500212846FFF7EDFE04210090C2
:109640002846FFF7E8FE082101902846FFF7E3FED1
:109650000C2102902846FFF7DEFE102103902846D9
:10966000FFF7D9FE214B04909969002930D09B69FE
:1096700020466946142206E01C48826942B3836989
:10968000691D20460122984722E041F203039C42D3
:1096900005D00C339C4202D0591E8C421AD16C1D4D
:1096A00004212046FFF7B7FE39301CD12D790F4831
:1096B0000021C5622046FFF7AEFE04210546204684
:1096C000FFF7A9FE393003D128460121FFF7EAFE52
:1096D000012009E0054A138899B28C4204D0B4F500
:1096E000805FF5D100E0002007B0F0BD041E00202F
:1096F00038B5104B5D88ADB2CDB158680478221FE3
:10970000514251EB02042CB1FFF7E6FE003018BFC6
:10971000012000E02046054620B944B1054B93F8EE
:10972000412022B903480021418001F0E7FD28468D
:1097300038BD00BF041E00202DE9FF4704468946BE
:10974000904602F0F3FE00250190BC4B5A8890B27F
:10975000002840F0928003F01FFD02F0E7FE029027
:10976000029901980A1A0392039B002B03DA0199CC
:10977000029842180392B24B19680029E5D0039869
:109780008842E2D3AD4A41F20700138899B2814280
:1097900024D8421E91425FD240F2022399425BD00C
:1097A0000DD80C2906D8082956D200294DD00629F3
:1097B00052D959E00D294CD040F201220BE041F280
:1097C000020081424BD8B1F5805F45D8B1F5017FE9
:1097D0003FD940F20722914237D13AE041F21103DA
:1097E000994236D014D841F20B00814234D005D8CA
:1097F00041F2090291422FD031D82AE041F20F0301
:1098000099422CD028D841F20D0081421DD126E08A
:1098100042F2060291421CD007D8B1F5005F14D97C
:1098200042F20403994214D921E0B1F5804F00F0CF
:10983000F18105D8A1F500500838012805D808E0C5
:1098400044F20B02914200F0E5810B2003F0A2F8F4
:10985000E0E1FF212170DDE14FF0FF3105E04FF045
:10986000FF3121606160D5E100212160D2E1204615
:1098700000213A220AF056F9CCE15E6831780429D9
:1098800040F07D8101213046FFF7BEFD05463046A0
:10989000FFF722FE0146002840F0678141F20700F1
:1098A000771D854250D8411E8D4280F0AF8040F236
:1098B0000222954200F0AA8011D80C2D09D8082D5B
:1098C00080F0A480002D00F05081062D40F29E8093
:1098D000E9E00D2D00F0978040F201237EE041F297
:1098E00002039D4218D8B5F5805F00F28F80B5F570
:1098F000017F40F2888040F207218D4240F035819F
:109900003079002104F8010B3846FFF784FD014649
:109910002046FFF76BFD28E141F20402954200F07A
:10992000988040F2AF8038460021FFF774FD042193
:1099300020603846FFF76FFD6060083406F10D07C0
:10994000234606F11D017DE041F2110295425AD0F5
:109950002CD841F20B039D4258D01CD841F209018A
:109960008D4253D000F29A8000213846FFF753FD14
:10997000042120603846FFF74EFD0821606038461C
:10998000FFF749FD0C21A0603846FFF744FD04F1C4
:109990000C0AE060E8E041F20F02954272D03BD839
:1099A00041F20D039D4240F0E08052E042F205009A
:1099B000854200F09C8008D841F21202954238D0CE
:1099C000B5F5005F40F2D1801DE042F209018D4201
:1099D00008D84F1EBD4216D242F206039D4240F007
:1099E000C48010E044F20B00854240F0BE807279E2
:1099F000DFF848A038460121AAF83020FFF704FD1F
:109A0000AAF83200B1E031792170AEE03846002189
:109A1000FFF701FD2060A8E000213846FFF7FBFCBE
:109A2000A2464AF8040B04213846FFF7F4FC6060B4
:109A30009AE03846FFF7E8FC208096E0041E0020FC
:109A4000841C002057F8040B8F4243F8040BF9D113
:109A50008BE000213846FFF7DEFC04212060384609
:109A6000FFF7D9FC082160603846FFF7D4FC04F109
:109A7000080AA060E46814F1390375D10121FFF7E9
:109A800011FD71E000213846FFF7C5FC042120607C
:109A90003846FFF7C0FC6060083466E0307920711A
:109AA0003F68276061E038460021FFF7B4FC0421DD
:109AB00020603846FFF7AFFC082160603846FFF7AA
:109AC000A3FC0A21A0603846FFF79EFCC4F80A00F8
:109AD0000C3406F11103274606F1350153F8040B47
:109AE0008B4247F8040BF9D11A883A803DE0771889
:109AF0007B79635401310429F9D106F1090000276B
:109B0000C15DE2190137042F1171F9D106F10D0081
:109B10000023C15CE2180133042B1172F9D106F164
:109B200011070022B85CA1180132042A0873F9D188
:109B300006F115070023F85CE1180133042B0874C3
:109B4000F9D106F119070021785C62180131062964
:109B50001075F9D106F11F070023F85CE2180133F4
:109B6000202B9076F9D100E054462C4F388882B2F1
:109B7000954236D100233B8087F8413031E0DF8EBB
:109B8000BBB273B33046032196F802A0FFF73CFC4A
:109B90000746B9F1000F0CD00421701DFFF73BFC04
:109BA0000246C8F8000006F115014846D2B209F095
:109BB00033FECAEB0707781EB0F5806F07D20AF1B3
:109BC0000501204671183A4609F026FE01E04FF0E3
:109BD000FF37B8F1000F01D088F800700F4B00225A
:109BE000DA860E4F0020788001F088FB3278042A54
:109BF00005D1B5F5805F02D13046FFF719FC3B88EF
:109C000099B200297FF4A1AD0448C28E93B2002B13
:109C10007FF49BAD002004B0BDE8F087041E002057
:109C200007284FF001030ED8EFF3108272B603FA43
:109C300000F006490B6818420CBF00200120D10734
:109C400002D462B670471846704700BF6402002015
:109C5000034B1880084600210A46FFF76DBD00BF80
:109C6000041E002010B5034B0124DC86BDE8104023
:109C7000FFF762BD041E002038B5034615460122D9
:109C80004A710C46881D1946FFF7B9FB291D05705E
:109C9000204601F0A1FB002038BD38B5BDF81450B6
:109CA0000C469B18A071E81885B202216171E2711F
:109CB000294604F10800FFF7A2FB6A1D204691B275
:109CC00001F08AFB002038BD38B59B180C469DB2C8
:109CD00002216171A071E271294604F10800FFF7C9
:109CE0008EFB6A1D204691B2BDE8384001F074BB7E
:109CF0002DE9F0471D4605F1020A032301F107098A
:109D00001FFA8AFA88714B710C464846514617462D
:109D1000FFF775FBB5F57A7F804613D82946FFF724
:109D20006EFB29464046FFF76AFB394604F10B00FB
:109D30002A4609F071FDA91D204689B2BDE8F04709
:109D400001F04ABB4FF47A76B5FBF6F10AEB41021B
:109D500091B2FFF754FB31464046FFF750FB3946BE
:109D600004F10B00324609F057FDA5F57A7520463F
:109D700040F2EE31ADB2BF1901F02EFBB5F57A7F9E
:109D800005D9A5F57A7085B24FF47A7601E02E46B2
:109D90000025A046394628F8056F4846324609F0A6
:109DA0003BFDB31C404699B2BF1901F015FB002DD5
:109DB000E4D1BDE8F0870000F7B51A4C1E46A46850
:109DC000FF238DF807300025475D63190135042D09
:109DD0005F72F9D100200D5C2318013004285D73F7
:109DE000F9D10021505C6318013104295874F9D16C
:109DF00004F115000021FFF7F9FA0022B35C835447
:109E00000132042AFAD12146142242F20100FFF75E
:109E100033FF42F201000DF10701FFF719FF9DF931
:109E20000700FEBD041E00202DE9F34106460C4646
:109E30001E4831681546D0F808804A1E1F46FF2389
:109E4000082A8DF8073008F1090001D80A23336089
:109E500021684A1E082A01D80A23236029684A1E5D
:109E6000082A01D80A232B6039684A1E082A01D81B
:109E70000A233B603168FFF7B9FA2168FFF7B6FAA9
:109E80002968FFF7B3FA3968FFF7B0FA41461422A0
:109E900042F20900FFF7F0FE42F209000DF107015E
:109EA000FFF7D6FE9DF90700BDE8FC81041E0020E7
:109EB00038B5074B42F20504054699682046002252
:109EC000FFF7DAFE20462946BDE83840FFF7C0BE5E
:109ED000041E00202DE9F341864613480D4686688E
:109EE00071461F4602ACFF2306F1090004F8053D48
:109EF0009046FFF77BFA2946FFF778FA40F20125F2
:109F00004146FFF773FA0C2231462846FFF7B4FEAC
:109F100028462146FFF79CFE3846002101AAFFF79C
:109F2000A1FE0198BDE8FC81041E00202DE9F3414B
:109F3000864616480C4686687146984602AD4FF034
:109F4000FF3306F10A0045F8043D1746FFF74EFAC5
:109F50000C21FFF74BFA2146FFF748FA3946FFF785
:109F600045FA4146224606F11A0009F055FC9020B8
:109F700031461022A3B2FFF7A7FE40F20220294685
:109F8000FFF766FE0198BDE8FC8100BF041E0020BB
:109F900008B50346062001460022FFF7C7FFC0B2FE
:109FA00008BD08B50346062001460022FFF792FFD0
:109FB000062814BFFF20002008BDF8B506460D4650
:109FC00017460C467B192A1B1F2CC4EB030392B2C5
:109FD00008D930462021FFF7A9FFC0B2203C002855
:109FE000F0D007E02CB130462146FFF79FFFC0B20A
:109FF000F8BD2046F8BD000037B50B4B40F20725F1
:10A000000446996800222846FFF736FE284669462E
:10A01000FFF71EFE9DF803009DF80410207061708C
:10A020009DF800003EBD00BF041E002037B50D4A5C
:10A03000034695680C4605F109001946FFF7D6F965
:10A04000214640F20324FFF7D1F929460822204691
:10A05000FFF712FE20460DF10701FFF7F9FD9DF80D
:10A0600007003EBD041E00202DE9F0430023CA5C1A
:10A07000C2540133102BFAD10022334B467B99187E
:10A0800091F8018004789F19F97A88EA0405847BA5
:10A0900085EA01081D194178EF7A90F80CC04F400D
:10A0A000C17B80F810805D1895F80B90857863442B
:10A0B00089EA050593F80B90C378477489EA03038E
:10A0C00090F80490FFB288EA090890F8059085742A
:10A0D00087EA090790F80690EDB285EA090590F83D
:10A0E0000790C374DBB283EA090390F8089080F804
:10A0F00014805FFA88F888EA090890F80990477593
:10A10000FFB287EA090790F80A908575EDB285EAF3
:10A11000090590F80B90C375DBB283EA090388EA5E
:10A120000C0C7E406C405940013280F81880477614
:10A130008576C37680F81CC046778477C177103067
:10A140000A2A9AD1BDE8F08337BB010810F0800FCE
:10A150004FEA400018BF80F01B00C0B270470000FB
:10A160002DE9F04F037891F8A0A004468AEA030A8B
:10A1700080F800A091F8A1204078A77882EA000535
:10A18000657091F8A260E07886EA0703A37091F801
:10A19000A32097B0059582EA0005E57091F8A49098
:10A1A0002679069389EA060984F8049091F8A57047
:10A1B0006379079587EA0302627191F8A600A57991
:10A1C000E37980EA0506A67191F8A7700C9287EAF8
:10A1D000030B84F807B0227A91F8A880607A88EAA5
:10A1E000020884F8088091F8A970089647406772C1
:10A1F00091F8AA50A67AE07A85EA0603A37291F84C
:10A20000AB20267B82EA0005E57291F8ACC0099389
:10A210008CEA060C84F80CC091F8ADE0637BA27B5D
:10A220008EEA030E84F80DE00D9591F8AE50E07BB8
:10A230005540A57391F8AF204B4B4240E2739A44CE
:10A2400091F890009AF80B6199444640267091F875
:10A25000940099F80BA198448AEA0006267191F8B7
:10A26000980098F80B919C4489EA000626729CF8A5
:10A270000BA191F89C009E448AEA00062673DF1920
:10A280009EF80B8197F80BC191F8910091F89D60B1
:10A2900088EA00098CEA060060730C9FDDF814A0C0
:10A2A000DE1996F80B0191F89970DDF8208080EAAC
:10A2B0000706667203EB0A0091F8956090F80B713F
:10A2C00084F8019087EA0600607103EB0800DDF86E
:10A2D00018E090F80B91099803EB0E0703EB000EC2
:10A2E0009EF80BC191F8920091F89A6097F80B7163
:10A2F0008CEA000A77405D1991F89E6084F802A00C
:10A3000091F8960095F80B81A772079F88EA0005DF
:10A3100089EA0606A673A571DE1996F80B0191F875
:10A320009F5003EB0B0791F89360454097F80B01A2
:10A330009A1880EA06070D98E7701E1896F80B71B8
:10A3400091F897004FF0090B87EA0006E67191F843
:10A350009B3092F80B71E57387EA0300E0720D46BB
:10A36000CDF840B002E000BF37BB010894F8009080
:10A37000A77887EA0900FFF7E9FEFFF7E7FE94F800
:10A380000180E678824686EA0800FFF7DFFEFFF7E5
:10A39000DDFE8AEA070380EA080227797040A67981
:10A3A0008AEA09015FFA80F886EA07005FFA82FB11
:10A3B0005FFA83FA5FFA81F903970296FFF7C6FE08
:10A3C000FFF7C4FEE6796779014686EA0700049143
:10A3D000FFF7BCFEFFF7BAFE039B049A94F808C08F
:10A3E00082EA0301CBB2029947404A40A17A704009
:10A3F000C6B2059381EA0C00D3B20291CDF804C035
:10A4000006930796FFF7A2FEFFF7A0FE637AE67AAF
:10A41000024686EA030003930492FFF797FEFFF7D4
:10A4200095FE049ADDF804C0039B82EA0C015FFAF2
:10A4300081FC80EA0301CBB2029909934A40D3B26E
:10A44000CDF820C00A9394F80CC0A17B7040C6B22E
:10A4500081EA0C000291CDF804C00B96FFF776FE5E
:10A46000FFF774FE637BE67B024686EA03000393F4
:10A470000492FFF76BFEFFF769FEDDF804C0049A53
:10A48000039B82EA0C015FFA81FC80EA0301CBB2F4
:10A49000029970404A40C6B288EA0A018BEA090074
:10A4A0000D93D3B20E930291CDF830C00F9681EA8E
:10A4B0000006FFF74BFE89EA000286EA020C5FFA0B
:10A4C0008CFC8AEA0B0084F800C0CDF804C0FFF7CA
:10A4D0003DFE8BEA000386EA030B02995FFA8BFCD0
:10A4E00084F801C00846CDF844C0FFF72FFE8AEA81
:10A4F000000286EA020A5FFA8AFB88EA090084F809
:10A5000002B0CDF848B0FFF721FE88EA0000DDF880
:10A5100018900599079A4640FFB2F6B282EA0908F8
:10A5200087EA0100E670139688EA0006FFF70EFE40
:10A53000059B584086EA0001CAB24846227178401D
:10A540001492FFF703FE474086EA0703D8B215903E
:10A5500060714046FFF7FAFD89EA0001059B86EA33
:10A5600001020798D7B25840A7710697FFF7EEFD92
:10A570000799089A48404640F6B20A9F0596E67148
:10A5800009980B9E50407E4086EA0007FFF7DEFDEB
:10A59000DDF820A08AEA000387EA030C5FFA8CF852
:10A5A00084F8088009990A984840FFF7CFFD099A76
:10A5B000504087EA000B5FFA8BF9304684F8099027
:10A5C000FFF7C4FD0A9E524686EA000387EA0301AC
:10A5D0000B985FFA81FB504084F80AB0FFF7B6FD94
:10A5E000DDF82CA00E998AEA00000C9E47400F9BD4
:10A5F0000D98FFB24B407040E77283EA000A029365
:10A60000FFF7A4FD0C9A0D9B50408AEA00060E98B5
:10A61000F6B226735840FFF799FD0D99029B81EA27
:10A6200000028AEA0200C1B2617318460391FFF783
:10A630008DFD0E9A0C9B50408AEA00010F98CAB219
:10A64000A27358400492FFF781FD0F99514B484087
:10A650008AEA000C5FFA8CFADDF804C084F80FA0D7
:10A6600003EB0C0295F8800092F80B11DDF850C056
:10A6700081EA0002227003EB0C0195F8840091F846
:10A680000B219E1982EA000103EB0802217195F863
:10A69000880092F80BC196F80B218CEA0001217218
:10A6A00095F88C00039E82EA000121739A1995F8AF
:10A6B000811092F80B0103EB090680EA010295F87C
:10A6C0008D0096F80B11DDF844C081EA000615995B
:10A6D0006673581890F80B6195F88910DF1986EAAF
:10A6E0000100607203EB0C0695F8850096F80B11DB
:10A6F0006270129A81EA000666719918DDF818C036
:10A7000095F88A6091F80B0103EB0C0295F88E1016
:10A71000704092F80B6103EB0B02714092F80BC191
:10A7200095F882608CEA0602049EA2709A1992F84B
:10A730000B6195F886205640A671A0721398A173FC
:10A74000191895F88F2091F80B61DDF814C072404C
:10A7500003EB0C0695F8831096F80B015344484020
:10A76000E07095F8871097F80B014840E07195F874
:10A770008B0093F80B11E273109A81EA0003511ECB
:10A78000103D11F0FF00E37210907FF4EFAD17B0B1
:10A79000BDE8F08F37BB010838B5054C05462046AB
:10A7A000FFF762FC28462146BDE83840FFF7D8BCD9
:10A7B000101D002008B51021034600220C20FFF7D1
:10A7C00089FB102814BF4FF0FF30002008BD03465E
:10A7D00010210C200022FFF7A9BB000030B585B086
:10A7E000054601F0A3FE0190194CE36A4BB108F055
:10A7F00053FBE26A02600020E06208F04DFB018832
:10A8000023E02846FFF70CFA10B14FF6FF711CE069
:10A8100001F08CFE0290029A0198111A0391039B99
:10A82000002B03DA0198029A11180391094B03983F
:10A830001A689042E9D20649088E83B2002BD3D021
:10A840000A8E501E83B20B86002108B205B030BDBF
:10A85000041E0020841C0020F7B5034614480D4652
:10A8600086681946174602AC4FF0FF3206F1090020
:10A8700044F8042DFEF7BAFD2946FEF7B7FD41F274
:10A8800001053946FEF7B2FD0C2231462846FFF796
:10A89000F3F921462846FFF7DBF908F0FDFA0199A4
:10A8A000016008460021FEF7FDFDBDF90400FEBD74
:10A8B000041E0020F7B5054610484FF0FF338768A7
:10A8C00002AC294641F20B0607F1090044F8043DA9
:10A8D000FEF78CFD042239463046FFF7CDF92146BC
:10A8E0003046FFF7B5F908F0D7FA0199016028461C
:10A8F0000121FEF7D7FD0198FEBD00BF041E002018
:10A90000F7B50C460746164608F0C6FA4FF0FF3377
:10A91000E62C036023D814480821856805F1090056
:10A92000FEF764FD2146FEF761FD0021A14203DA36
:10A930007A5C42540131F9E704F10802D2B22946A7
:10A9400041F21000FFF798F9694641F21000FFF755
:10A950007FF908F0A1FA0099019B0160336008F0CB
:10A960009BFA008800B2FEBD041E002037B50346E6
:10A9700013484FF0FF3284680D4604F10900194670
:10A980000192FEF733FD0821FEF730FD0821FEF7A6
:10A990002DFD0023E95CC1540133082BFAD11422A8
:10A9A000214641F20700FFF767F901A941F20700CC
:10A9B000FFF74EF908F070FA019A026010463EBDAA
:10A9C000041E00202DE9FF411D46314B8646D3F879
:10A9D00008800F4608F10900714616460A9CFEF7EA
:10A9E00005FD1421FEF702FD1421FEF7FFFC1421E2
:10A9F000FEF7FCFC1421FEF7F9FCD4F1010138BF8D
:10AA00000021FEF7F3FC0FB1396800E03946FEF78C
:10AA1000EDFC0EB1316800E03146FEF7E7FC0DB108
:10AA2000296800E02946FEF7E1FC74B1216839B9D4
:10AA3000636841F287329342DCBF41F2883363603E
:10AA4000FEF7D4FC6168FEF7D1FC2C22414641F2AE
:10AA50000800FFF711F9694641F20800FFF7F8F81E
:10AA6000009900290ADB0FB1019A3A600EB1029BEE
:10AA700033600DB10398286088B205E008F00CFA45
:10AA8000009B03604FF6FF7000B204B0BDE8F08198
:10AA9000041E00202DE9FF419846194B86469E680A
:10AAA00015460F4606F1090071460B9CFEF79EFC09
:10AAB0002946FEF79BFC4146FEF798FCBDF8305056
:10AAC0000C2231462846FFF7D7F8284601A9FFF7A0
:10AAD000BFF8029800280ADD0A9938466A46FFF74F
