:020000040800F2
:1050000000500020A9910008398800083B8800085A
:10501000458800084F8800085988000800000000F3
:10502000000000000000000000000000638800088D
:10503000658800080000000067880008698800088B
:10504000FD910008FD910008FD910008CD8A00083F
:10505000FD910008FD910008D9880008F988000832
:10506000198900084D8900086D890008FD91000824
:10507000FD910008FD910008FD910008358B0008A6
:10508000FD910008FD91000879880008FD91000855
:10509000398B0008FD910008FD9100088D890008FA
:1050A000FD910008FD910008FD910008558A000857
:1050B0009D8A0008AD8A0008BD8A0008A9880008FA
:1050C000B9880008FD910008FD910008C988000812
:1050D000FD9100088988000899880008FD91000862
:1050E000DD890008F58A0008FD9100080000000035
:1050F00000000000000000000000000000000000B0
:0C51000000000000000000005FF808F153
:1051100081F0004102E000BF83F0004330B54FEA68
:1051200041044FEA430594EA050F08BF90EA020FD5
:105130001FBF54EA000C55EA020C7FEA645C7FEA68
:10514000655C00F0E2804FEA5454D4EB5555B8BF8B
:105150006D420CDD2C4480EA020281EA030382EAFC
:10516000000083EA010180EA020281EA0303362D8E
:1051700088BF30BD11F0004F4FEA01314FF4801C61
:105180004CEA113102D0404261EB410113F0004F73
:105190004FEA03334CEA133302D0524263EB43032A
:1051A00094EA050F00F0A780A4F10104D5F1200EC8
:1051B0000DDB02FA0EFC22FA05F2801841F1000123
:1051C00003FA0EF2801843FA05F359410EE0A5F1F7
:1051D00020050EF1200E012A03FA0EFC28BF4CF028
:1051E000020C43FA05F3C01851EBE37101F00045DE
:1051F00007D54FF0000EDCF1000C7EEB00006EEBEB
:105200000101B1F5801F1BD3B1F5001F0CD3490874
:105210005FEA30004FEA3C0C04F101044FEA4452CB
:1052200012F5800F80F09A80BCF1004F08BF5FEA52
:10523000500C50F1000041EB045141EA050130BD32
:105240005FEA4C0C404141EB010111F4801FA4F1D5
:105250000104E9D191F0000F04BF01460020B1FA2A
:1052600081F308BF2033A3F10B03B3F120020CDA62
:105270000C3208DD02F1140CC2F10C0201FA0CF040
:1052800021FA02F10CE002F11402D8BFC2F1200CA5
:1052900001FA02F120FA0CFCDCBF41EA0C0190405B
:1052A000E41AA2BF01EB0451294330BD6FEA0404A4
:1052B0001F3C1CDA0C340EDC04F11404C4F120028F
:1052C00020FA04F001FA02F340EA030021FA04F3A1
:1052D00045EA030130BDC4F10C04C4F1200220FAF8
:1052E00002F001FA04F340EA0300294630BD21FA36
:1052F00004F0294630BD94F0000F83F4801306BFFC
:1053000081F480110134013D4EE77FEA645C18BFEF
:105310007FEA655C29D094EA050F08BF90EA020F86
:1053200005D054EA000C04BF1946104630BD91EA7E
:10533000030F1EBF0021002030BD5FEA545C05D181
:105340004000494128BF41F0004130BD14F58004C0
:105350003CBF01F5801130BD01F0004545F0FE4134
:1053600041F470014FF0000030BD7FEA645C1ABF69
:10537000194610467FEA655C1CBF0B46024650EAA0
:10538000013406BF52EA033591EA030F41F40021CC
:1053900030BD00BF90F0000F04BF0021704730B552
:1053A0004FF4806404F132044FF000054FF0000127
:1053B00050E700BF90F0000F04BF0021704730B5E8
:1053C0004FF4806404F1320410F0004548BF4042BD
:1053D0004FF000013EE700BF42004FEAE2014FEA12
:1053E00031014FEA02701FBF12F07F4393F07F4FED
:1053F00081F06051704792F0000F14BF93F07F4F1F
:10540000704730B54FF4607401F0004521F0004161
:1054100020E700BF50EA010208BF704730B54FF0E7
:1054200000050AE050EA010208BF704730B511F0EC
:10543000004502D5404261EB41014FF4806404F124
:1054400032045FEA915C3FF4DCAE4FF003025FEAA6
:10545000DC0C18BF03325FEADC0C18BF033202EB2E
:10546000DC02C2F1200300FA03FC20FA02F001FA88
:1054700003FE40EA0E0021FA02F11444C1E600BF27
:1054800070B54FF0FF0C4CF4E06C1CEA11541DBFDA
:105490001CEA135594EA0C0F95EA0C0F00F0DEF8A5
:1054A0002C4481EA030621EA4C5123EA4C5350EA8A
:1054B000013518BF52EA033541F4801143F48013DB
:1054C00038D0A0FB02CE4FF00005E1FB02E506F06C
:1054D0000042E0FB03E54FF00006E1FB03569CF0C1
:1054E000000F18BF4EF0010EA4F1FF04B6F5007FC7
:1054F00064F5407404D25FEA4E0E6D4146EB060639
:1055000042EAC62141EA55514FEAC52040EA5E50C1
:105510004FEACE2EB4F1FD0C88BFBCF5E06F1ED86B
:10552000BEF1004F08BF5FEA500E50F1000041EBA2
:10553000045170BD06F0004646EA010140EA02004F
:1055400081EA0301B4EB5C04C2BFD4EB0C0541EA71
:10555000045170BD41F480114FF0000E013C00F386
:10556000AB8014F1360FDEBF002001F0004170BDAA
:10557000C4F10004203C35DA0C341BDC04F11404C3
:10558000C4F1200500FA05F320FA04F001FA05F24F
:1055900040EA020001F0004221F0004110EBD3701C
:1055A00021FA04F642EB06015EEA430E08BF20EA48
:1055B000D37070BDC4F10C04C4F1200500FA04F3EB
:1055C00020FA05F001FA04F240EA020001F000417D
:1055D00010EBD37041F100015EEA430E08BF20EAF0
:1055E000D37070BDC4F1200500FA05F24EEA020E38
:1055F00020FA04F301FA05F243EA020321FA04F067
:1056000001F0004121FA04F220EA020000EBD3701D
:105610005EEA430E08BF20EAD37070BD94F0000F1D
:105620000FD101F00046400041EB010111F4801F51
:1056300008BF013CF7D041EA060195F0000F18BF02
:10564000704703F00046520043EB030313F4801F3E
:1056500008BF013DF7D043EA0603704794EA0C0FF8
:105660000CEA135518BF95EA0C0F0CD050EA41060E
:1056700018BF52EA4306D1D181EA030101F000418B
:105680004FF0000070BD50EA410606BF10461946B3
:1056900052EA430619D094EA0C0F02D150EA0136BF
:1056A00013D195EA0C0F05D152EA03361CBF104600
:1056B00019460AD181EA030101F0004141F0FE419F
:1056C00041F470014FF0000070BD41F0FE4141F423
:1056D000780170BD70B54FF0FF0C4CF4E06C1CEA23
:1056E00011541DBF1CEA135594EA0C0F95EA0C0FD8
:1056F00000F0A7F8A4EB050481EA030E52EA033593
:105700004FEA013100F088804FEA03334FF08055B3
:1057100045EA131343EA12634FEA022245EA1115E0
:1057200045EA10654FEA00260EF000419D4208BF91
:10573000964244F1FD0404F5407402D25B084FEA3E
:105740003202B61A65EB03055B084FEA32024FF4EA
:1057500080104FF4002CB6EB020E75EB030E22BF47
:10576000B61A754640EA0C005B084FEA3202B6EB07
:10577000020E75EB030E22BFB61A754640EA5C00B6
:105780005B084FEA3202B6EB020E75EB030E22BF46
:10579000B61A754640EA9C005B084FEA3202B6EB47
:1057A000020E75EB030E22BFB61A754640EADC0006
:1057B00055EA060E18D04FEA051545EA16754FEA68
:1057C00006164FEAC30343EA52734FEAC2025FEA86
:1057D0001C1CC0D111F4801F0BD141EA00014FF015
:1057E00000004FF0004CB6E711F4801F04BF0143E6
:1057F0000020B4F1FD0C88BFBCF5E06F3FF6AFAE02
:10580000B5EB030C04BFB6EB020C5FEA500C50F191
:10581000000041EB045170BD0EF0004E4EEA113114
:1058200014EB5C04C2BFD4EB0C0541EA045170BD1B
:1058300041F480114FF0000E013C90E645EA060E5F
:105840008DE60CEA135594EA0C0F08BF95EA0C0F8D
:105850003FF43BAF94EA0C0F0AD150EA01347FF4D5
:1058600034AF95EA0C0F7FF425AF104619462CE7AC
:1058700095EA0C0F06D152EA03353FF4FDAE10460F
:10588000194622E750EA410618BF52EA43067FF460
:10589000C5AE50EA41047FF40DAF52EA43057FF4F0
:1058A000EBAE12E74FF0FF3C06E000BF4FF0010CFB
:1058B00002E000BF4FF0010C4DF804CD4FEA410C5F
:1058C0007FEA6C5C4FEA430C18BF7FEA6C5C1BD02C
:1058D00001B050EA410C0CBF52EA430C91EA030FAD
:1058E00002BF90EA020F0020704710F1000F91EA0A
:1058F000030F58BF994208BF90422CBFD8176FEAD8
:10590000E37040F0010070474FEA410C7FEA6C5CA5
:1059100002D150EA013C07D14FEA430C7FEA6C5CAC
:10592000D6D152EA033CD3D05DF8040B704700BFD8
:105930008446104662468C461946634600E000BF26
:1059400001B5FFF7B7FF002848BF10F1000F01BDF8
:105950004DF808EDFFF7F4FF0CBF012000205DF8C3
:1059600008FB00BF4DF808EDFFF7EAFF34BF012048
:1059700000205DF808FB00BF4DF808EDFFF7E0FFE1
:1059800094BF012000205DF808FB00BF4DF808ED32
:10599000FFF7CEFF94BF012000205DF808FB00BF99
:1059A0004DF808EDFFF7C4FF34BF012000205DF87B
:1059B00008FB00BF4FEA410212F5001215D211D5C3
:1059C0006FF47873B3EB625212D94FEAC12343F0FC
:1059D000004343EA505311F0004F23FA02F018BF7E
:1059E000404270474FF00000704750EA013005D147
:1059F00011F0004008BF6FF0004070474FF000000A
:105A0000704700BF014B0360704700BF7052010830
:105A100070B5012188B0044601F0C6FEA0F1300542
:105A2000072D37D803226846214601F0E5FE1C49C0
:105A300004A801F03FFE204604A901F0A3FE06469B
:105A400004A801F0F5FD1EB1ADB22846002110E01A
:105A5000144904A801F02EFE204604A901F092FE8C
:105A6000044604A801F0E4FD74B10A35ADB228463D
:105A7000314600F0C3FF684601F0C5FEC1B22846BA
:105A800001F0F2F9012401E06FF00104684601F031
:105A9000CFFD01E04FF0FF34204608B070BD00BFDD
:105AA000B0B20108B2B201087FB50121054601F08C
:105AB0007BFEA0F13004072C23D81549684601F07D
:105AC000F9FD2846694601F05DFE0646684601F08C
:105AD000AFFD6EB90F49684601F0ECFD28466946F6
:105AE00001F050FE0546684601F0A2FD65B10A349A
:105AF000A4B22046012100F081FF204601F01AF9EE
:105B000004E04FF0FF3001E06FF0010004B070BD21
:105B1000B0B20108B2B20108F0B5012185B0044667
:105B200001F042FEA0F13006072E49D86846214612
:105B30000322072301F03AFE6846264901F0F8FDEA
:105B40000546684601F074FD7DB96846214603228A
:105B5000062301F02BFE68461F4901F0E9FD0746C8
:105B6000684601F065FD0FB92DE001251B49684627
:105B700001F0A0FD2046694601F004FE0746684694
:105B800001F056FD1FB1B6B23046002110E01449B5
:105B9000684601F08FFD2046694601F0F3FD04469A
:105BA000684601F045FD8CB10A36B6B2304639463A
:105BB00000F024FF3046294600F0ACFF012007E04A
:105BC0004FF0FF3004E06FF0010001E06FF00200E1
:105BD00005B0F0BDB4B20108B9B20108B0B2010815
:105BE000B2B201087FB50121054601F0DDFDA0F14B
:105BF0003004072C23D81549684601F05BFD284680
:105C0000694601F0BFFD0646684601F011FD6EB918
:105C10000F49684601F04EFD2846694601F0B2FD85
:105C20000546684601F004FD65B10A34A4B2204679
:105C3000032100F0E3FE204600F0B8FF04E04FF03F
:105C4000FF3001E06FF0010004B070BDB0B2010898
:105C5000B2B20108034B10B50446036000F0F8FA35
:105C6000204610BD7052010808B50948094900F0E6
:105C7000DDFB0948094900F0D9FB0948094900F052
:105C8000D5FB09480949BDE8084000F0CFBB00BF7B
:105C9000BDB20108E55B0008C9B20108195B000844
:105CA000D6B20108A95A0008E1B20108115A000849
:105CB0007047000013B5084C002100910A460B46BE
:105CC000204601F0ADFB0549054A204602B0BDE87B
:105CD00010400CF0CFBF00BF80040020055A000820
:105CE000F005002010B50131002393420ED0040FBF
:105CF000092C01D8303400E0373401F8014C01336D
:105D00000024000101F8024BDBB2EEE710BD0000F9
:105D10001F4B10B51A88032A04D8042001461880A6
:105D200006F0CAFE4FF000604FF4A04106F012FEEC
:105D30001848012421460470174807F0D9F805F0E7
:105D4000AFFE05F097FB2146402007F099F96FF070
:105D50007F4005F0FBFCE72005F074FD0F490C7057
:105D600005F0D0FB7D2007F0AFF918B10C4B1C708B
:105D700007F0BEF940F6B83005F01CFC06F06EF9ED
:105D800006F0E8FB074A084901201070087010BDB2
:105D9000B81600209416002000043000D81400200B
:105DA000302000204C16002042160020304B10B549
:105DB0001A88042A04D805210420198006F07CFEE4
:105DC0002C48017811B12C4802F0ECFA294C2378C8
:105DD00053B127480288052A04D8062101800420EF
:105DE00006F06AFE02F096FB217861B1234C23781D
:105DF0004BB92348027832B122490C781CB9224BA6
:105E000018780028E2D0214A11780029DED1204CF0
:105E10002378002BDAD11C480278012A0FD01D49C3
:105E200069B1134C2388062B04D807210420218054
:105E300006F042FEFFF718FF134A012010701649C2
:105E40000029C3D00A4C2388072B04D8082104203A
:105E5000218006F031FEFFF72BFF20880828B5D8F7
:105E6000034A09210420118006F026FEAEE700BF98
:105E7000B81600204C160020D1660008011600203C
:105E800042160020D614002088040020D7140020D9
:105E900030200020695C0008B15C0008524B70B5EE
:105EA0001A6812B11868411E1960504B1A783AB13D
:105EB0004F4A1078002829D04E49002949D125E0C1
:105EC0004D4C206810B12368591E0FE04B490B78E8
:105ED000E3B94B4A1078C8B94A490B78B3B94A4D6F
:105EE0002A782AB1E72005F027FD142121600DE072
:105EF0004648017800292FD1E72005F0D1FC44481D
:105F00003D4B0178002935D032221A603F4B1A7878
:105F100032B1404D287818B92EE041684B1C4360DF
:105F20003D490B68B3F57A7F0FD300230B6007F070
:105F30003DF83A484FF6FF7102888A4253D00180FB
:105F40000420BDE8704006F0B7BD0868421C0A6036
:105F500070BD00F021FCD9E7314B1A78002ACBD074
:105F60004FF6FF7005F0F2FBE72005F06BFC012017
:105F70002870CBE76422C8E721490B7893B1294800
:105F800047F22F5243689342C7D9BFF34F8F264C35
:105F90002648E56805F4E06646EA0002E260BFF3E1
:105FA0004F8FFEE7154E347834B9204605F0D8FD02
:105FB00040F6B73290420DD8002005F0D1FD41F6F1
:105FC00057318842ACD9002005F0D2FD184B012092
:105FD0001870A5E7204605F0CBFD2A78002A9FD14E
:105FE000012131709CE770BD38200020741600201C
:105FF000240800209967000834200020081500209C
:10600000D7140020D9140020D81400204C160020EA
:10601000D5140020011600203C200020B8160020D6
:10602000D61400208804002000ED00E00400FA05EA
:106030000615002008B5094B186005F0B9FF0020CF
:1060400005F0FEFF064805F039FA05F0C7FF05F038
:10605000E5FFBDE8084007F053BF00BFBC020020C9
:10606000A0860100074B1868052808D106490A7A5E
:10607000012A04D1887A0B7BC11AC8B2704700206C
:10608000704700BFBC160020880400200D4B10B5DF
:106090001868052813D10C4C217A01290FD1628987
:1060A000A389D01A012804D100210320217208F00D
:1060B00092F8A389E218591C907BA18110BD4FF082
:1060C000FF3010BDBC1600208804002008B50C4B22
:1060D0001968052912D10B4B1A6D991881F85400D3
:1060E000501CB0F5807F08BF0020186505F030FE19
:1060F00020B16420BDE8084005F0E0B908BD00BF4C
:10610000BC1600208804002070B5234A92F8543150
:10611000012B3FD0D2F85801B0F5807F02D1002189
:10612000C2F85811D2F85831126D1B48934203D16E
:10613000002180F8541170BD8CBFC3F58072C3EB91
:106140000202154CC0F85C21D4F85C5199B2402D84
:1061500007D94033403DC4F85831C4F85C5140265B
:1061600006E0E8180023AEB2C4F85801C4F85C3168
:106170000A4A01255018C021324684F8545107F0CC
:10618000A1FF2846314608F0A7F82846BDE8704030
:1061900008F010B870BD00BF88040020DC040020A7
:1061A000094B10B593E814000833186810180AD08A
:1061B00008220649FFF796FD054920460422BDE85E
:1061C0001040FFF78FBD10BDE8F7FF1F6A020020E7
:1061D0007A02002013B5084C002100910A460B46B4
:1061E000204601F01DF90549054A204602B0BDE8E8
:1061F00010400CF03FBD00BFE8050020055A000824
:10620000F005002038B50D460446AC4203D254F8E0
:10621000043B9847F9E738BD08B507480749FFF739
:10622000F1FF07480749FFF7EDFF07480749BDE8B9
:106230000840FFF7E7BF00BF58B8010858B8010889
:1062400058B80108B4B80108B4B80108B4B80108D6
:106250000CF0B2BD08B5072006F0A6FAFEE7000074
:10626000074A08B51368074918188842106004D90E
:10627000082006F099FA0CF037FD184608BD00BF5B
:1062800000000020004800204FF0FF307047012040
:10629000704708B50C2006F087FAFEE7014B186836
:1062A000704700BFF4050020064B0246582000FB53
:1062B000013101F1080303CB106051601868906050
:1062C000704700BFF4050020014BD3F8640170470C
:1062D000F4050020064B0246142000FB013101F5B5
:1062E000B67303CB1060516018689060704700BFB0
:1062F000F40500200E4B2DE9F041D3F8647180467F
:106300000024BC4211DA14256543094E4146701938
:1063100000F5B6700C220CF0F8FE20B97519D5F80E
:106320006801BDE8F0810134EBE70020BDE8F081B1
:10633000F40500202DE9F04788B0814668460D46F7
:1063400001F0B8F91E4B0024D3F800A054452DDA13
:1063500055B3582666431A4F494607F1040808EB1F
:10636000060004300C220CF0D0FEE8B928460CF0F0
:10637000C4FE06F11001402834BF0246402208EB5B
:10638000010029460CF087FDBE19012286F858202D
:10639000694604A8746801F0AFF904A8A047044650
:1063A00004A801F045F903E00134CFE74FF0FF34D2
:1063B000684601F03DF9204608B0BDE8F08700BF0F
:1063C000F405002038B50546064C28B105F060FA02
:1063D000012384F8303238BD05F008FA84F83052D1
:1063E00038BD00BFF4050020024B00221A6005F002
:1063F000D1BE00BF8C040020034A04480023137060
:10640000036005F0FFBE00BFD71400208C040020FD
:10641000044B0549002001221A7008604FF4C02087
:1064200005F092BED71400208C0400202DE9F84F0F
:1064300004468946002941D000283FD0204B1D68E2
:10644000042D3BD00027AF421E4E4FF058080FDA04
:1064500008FB07F856F80810494507D106EB080273
:10646000101D21460C220CF050FE38B30137EAE72C
:1064700008FB05F8A6F1040A0AEB080708F110006A
:10648000C7F804900021402230180CF027FD06EBDD
:106490000801081D0C2200210CF020FD2068616815
:1064A00007F1080203C2A3680020013507F1040BBD
:1064B00087F858001360543746F8045CBDE8F88F3D
:1064C000F4050020F805002073B5002B0CBF6523F0
:1064D000452306460D461446009331462A46234678
:1064E000014808F025F97CBD2808002010B5064CAD
:1064F000206803F09FFA2368013303D0411E48420D
:10650000484110BD012010BD04000020F0B5274B0C
:106510000646187887B00F46002843D124490A78E8
:10652000002A3FD1FFF7E2FF044600283AD1214D6F
:106530008DF80C002B688DF80D008DF80E008DF88D
:106540000F0006A9580901EB800203F01F0101208A
:1065500000FA01F052F80C1C0494014342F80C1CA0
:1065600004A841F288320592009003A9581C2246E3
:10657000234604F031F9002816DD2B6806A95D09D1
:1065800001EB850050F80C5C03F01F0245FA02F5A0
:1065900015F0010008D0184631463A46234604F06B
:1065A000BBF901E04FF0FF3007B0F0BD001600204E
:1065B000011600200400002038B50B4B0546187862
:1065C0000C4668B909490A7852B9FFF78FFF0346AC
:1065D00030B9074829462246006804F01BFA38BD46
:1065E0004FF0FF3038BD00BF00160020011600201C
:1065F0000400002030B51F48ADF57B7D07F0DCFEC0
:10660000002834D11C481D4B06901D4D1D48059394
:106610001D491E4A1E4B0A950C901E4D1E4807919F
:1066200008920B931D491E4A1E4B0F9511901E4D4B
:106630001E481F4C0D910E921E491F4A10931F4B6E
:106640001495169061AD17A81291139215930994A1
:1066500004900EAC039505F01BFE284605F01EFEC7
:1066600000940448164903AA05AB07F0ACFE0DF5EB
:106670007B7D30BD280800200D650008B965000845
:10668000E9630008ED6F000811640008F963000871
:10669000C5630008A9620008C9620008E178000823
:1066A0009D62000835630008F5620008BDC200085D
:1066B000CDC20008D5620008A5690008A9C200087B
:1066C000E8F7FF1F014808F0FEBD00BF28080020C2
:1066D00030B5022011228DB0014603F0C7FF051E20
:1066E00028DB154907A807F0B4FF02231620002471
:1066F000ADF80C308DF80E003321E0220123BB20D1
:106700008DF811408DF80F108DF810208DF8123093
:106710008DF813000324102203A900910192002395
:106720001322284607A904F07FF9013CF3D128463B
:1067300003F0CAFF0DB030BDE8F7FF1F30B5134CB2
:1067400087B0FFF757FF204607F039FE204608F0D4
:106750004BFA0546FFF7BCFF03A803F057FB9DF873
:106760000D209DF80C300092082104A8084A0CF076
:106770007FFC04A93C2201230648FFF7A5FE204622
:1067800007F0BBFF284607B030BD00BF2808002037
:10679000EDB20108F3B2010838B5114CD4F8585BDA
:1067A0002DB1D4F8581B4B1EC4F8583B38BDD4F853
:1067B0005C3B0C4A52F8230004F0F0FFE72005F0A0
:1067C00041F8094A6420D4F85C1BC4F8580B50689F
:1067D0004B1C8342C4F85C3BA8BFC4F85C5B38BD6B
:1067E000F405002014520108040000207FB50220A7
:1067F0000121062203F03AFF041E23DB00200822B9
:10680000022335218DF802004FF4FA50ADF8003024
:106810008DF803108DF804208DF805208DF80620E2
:106820008DF8072001F0AEFC69460646102220468E
:1068300003F0A6FF0546304601F0A4FC204603F015
:1068400043FF01E04FF0FF35284604B070BD000063
:1068500010B5064C2068002805DB03F035FF4FF02B
:10686000FF33236010BD002010BD00BF04000020D6
:1068700030B5A7B0FFF7ECFF02200121062203F09C
:10688000F5FE334B0028186052DB324802221621F5
:106890003324A0F8602B80F8621B80F8634B05A8B6
:1068A00005F0C2FC9DF814300025009533B1012B92
:1068B00017D0294B01A803F1100502E0069A0092B7
:1068C00014E0024659681868083303C2AB42104608
:1068D000F7D101A906AC0FC907C424F8023B1B0C71
:1068E00023700A24009D0DB9013C24D1009808B9F9
:1068F0001A490091009B174C180A1D0E1A0C84F8B7
:10690000660B4FF4FA5084F8673B84F8645B84F8B4
:10691000652B01F037FC0E4905461022086804F586
:10692000366103F02DFF0446284601F02BFC0CE0F5
:106930004FF0FF3409E07E2106A80CF0FDFB6A460B
:1069400081B206A803F0E6FECCE7204627B030BDB2
:1069500004000020F40500200EB3010804E5D03641
:106960000F4B2DE9F041D3F8647180460024BC42FE
:1069700011DA142565430A4E4146701900F5B670C8
:106980000C220CF0C2FB20B9751995F87801BDE80E
:10699000F0810134EBE74FF0FF30BDE8F08100BF3C
:1069A000F405002008B5FFF7DBFF0138082803D8FD
:1069B000024B1918087F08BD022008BD14520108B7
:1069C00037B50B4C002104F537650B4600910A469C
:1069D000284600F025FD28460649074A0CF04AF9EA
:1069E00004F50D7003B0BDE8304007F0D5BC00BF22
:1069F000F4050020055A0008F005002014282DE9B0
:106A0000F34104460E467CD8FF297AD000F0D8FD29
:106A100028B10D2C75D00F2C73D00E2C71D000F036
:106A200093FC08B1012C6CD901F0E2F818B1A4F183
:106A30001203012B65D918206043334D33492F5879
:106A40002A188F42B2F8048001D1042003E0304BB1
:106A50009F4203D10820012106F01EFBADF80480FF
:106A6000062E4AD8DFE806F004121A222A35410021
:106A7000254B182101FB043410208DF80700032258
:106A80000020A0738DF80620083436E00421182376
:106A90008DF8071003FB045401212DE04820182233
:106AA0008DF8070002FB0454022125E02821182359
:106AB0008DF8071003FB045403211DE0124A18232C
:106AC00003208DF807308DF8060003FB0424042111
:106AD00012E00D491C230320182202FB04148DF838
:106AE00007308DF80600052106E0182202FB045449
:106AF00000208DF807000621A173384601A906F091
:106B000097F9BDE8FC8100BF0C000020000801409F
:106B1000000C0140142870B504460E4642D8224BA2
:106B2000182202FB0030817B01293BD0022939D099
:106B3000032937D0062935D0FF2933D000F040FD96
:106B400030B10D2C2ED00F2C2CD00E2C00D170BDBE
:106B500000F0FAFB10B1012C00D870BD01F048F82C
:106B600020B1A4F11202012A00D870BD0E4D1823E5
:106B700003FB0450817B042903D120460021FFF749
:106B80003DFF012E06D11822544328192B59818824
:106B9000196170BD36B91822544328192B598188C0
:106BA000596170BD70BD00BF0C000020142838B5BD
:106BB000044618D81E4B182202FB0030817BFF29A7
:106BC00011D004290FD005290DD000F0F9FC28B10F
:106BD0000D2C08D00F2C06D00E2C04D000F0B4FBE6
:106BE00018B1012C01D8002038BD01F001F818B10E
:106BF000A4F11202012AF6D90D4D182303FB04500B
:106C0000817B062906D195F8F811FF29EBD02046A3
:106C1000FFF7F4FE182254432D19054BAA7BA988CF
:106C2000185912B906F05AF938BD06F051F938BDB5
:106C30000C000020F0B54FF4004091B006F0F8F9D8
:106C40000120014606F01CFA01214FF4C06006F055
:106C500023FA334805F054FF3248334B0A2100240D
:106C60008022069008914FF400754FF400664FF4AF
:106C700000572B4805A905930A920B950C96012500
:106C80000E974FF460264FF40027079409940D9453
:106C90000F9405F0ADFF2548694600978DF8044034
:106CA0008DF80540029603948DF8105005F05CFEB7
:106CB0001F48694600978DF804408DF805400296FC
:106CC00003948DF8105005F04FFE1848294605F042
:106CD0006FFE164805F07EFE144805F080FE002881
:106CE000FAD1124805F07FFE104805F081FE002819
:106CF000FAD10F48012105F05BFE0D4805F06AFE50
:106D00000B4805F06CFE0028FAD1094805F06BFE2F
:106D1000074805F06DFE0028FAD111B0F0BD00BFA4
:106D200008000240701100204C2401400024014062
:106D300000280140092838B5044601D80A34A4B215
:106D400000F03EFC38B10D2C01D1002038BD0F2CD5
:106D5000FBD00E2CF9D000F0F7FA00F049FF18B183
:106D6000A4F11203012BF0D9142CEED8394D1820C0
:106D700000FB04539A79FF2AE7D095F8FA11914263
:106D800006D0987B062185F8F8012046FFF736FEED
:106D900095F8FB51012D05D1FFF74CFF2D4B00223B
:106DA00083F8FB212B4D182101FB045495F8FA01BF
:106DB000A17988420FD02848012295F8F93105F0D1
:106DC00024FE01222548A17995F8F93105F01DFE30
:106DD000A27985F8FA210021214B002043F82100F7
:106DE00001310A29F8D11F4805F035FF1B48012160
:106DF00005F058FE1B48012105F01AFF1648012135
:106E000005F0DFFD1448012105F0F6FD022005F034
:106E100025FF0028FAD0022005F02EFF0E480021A1
:106E200005F0CFFD0F48002105F002FF00231A46B0
:106E30000B4951F8230051F82310013389B201EBBB
:106E400010400A2B0244F3D11421B2FBF1F080B2BE
:106E500038BD00BF0C000020002401400028014084
:106E600070110020080002402DE9F041142888B07C
:106E700004460D4600F2AD80574B182202FB00304D
:106E80008168002900F0A58000F09AFB40B10D2C2C
:106E900000F09F800F2C00F09C800E2C00F0998059
:106EA00000F052FA10B1012C40F2938000F0A0FEE5
:106EB00020B1A4F11202012A40F28B80464B182027
:106EC00000FB04318A7B12B1042A40F08280434ED9
:106ED000434837684BF680326A43B7FBF0F3591EDC
:106EE0000120FF258EB2014692FBF5F706F0D4F89B
:106EF00004212046FFF782FD374B182000FB0431A8
:106F00008D68BFB2B5F1804F02D10120014608E083
:106F1000344A0220954203D03348854203D10420ED
:106F2000012106F0C5F82C4D182101FB04554BF644
:106F30007F33ADF80460A868002601A9ADF80A60A7
:106F4000ADF80660ADF8083006F0A6F9ADF81860A7
:106F5000AE896022012005F10808ADF81020ADF8D7
:106F60001200ADF8167046B9A86804A906F0DEF95B
:106F7000A868082106F01AFB1FE0042E08D1A868B3
:106F800004A906F017FAA868082106F017FB14E018
:106F9000082E08D1A86804A906F050FAA86831465E
:106FA00006F016FB09E00C2E07D1A86804A906F02C
:106FB00087FAA868082106F013FB074B182101FB8C
:106FC00004340121A06806F0E5FAA068012106F06A
:106FD000BEFA08B0BDE8F0810C000020B00300202C
:106FE00000366E01000400400008004005F0A8B91A
:106FF00013B5084C002100910A460B46204600F0CC
:107000000FFA0549054A204602B0BDE810400BF0D2
:1070100031BE00BF98110020055A0008F00500207D
:1070200038B5194B05461C88B3F80024A4B290B2B9
:1070300028B94EF6EE63E01A18BF012006E00CBB3B
:107040004EF6EE63C41A624252EB0400840204F16D
:10705000006201300D4B02F580448202D018844258
:107060000ED22268013209D1204605F0A7FE04287D
:1070700009D1A01C294605F0A1FE38BD0434EEE775
:10708000802038BDAB2038BD00400008FE3F00081E
:1070900008B5084805F0AEFE04280AD100210548CD
:1070A00005F08CFE042804D10348BDE8084005F033
:1070B000A1BE08BD00400008004400080F4B10B5F9
:1070C0001A8893B20E4A128892B21BB10AB1AB2051
:1070D00010BD01239C020B4BE3180B4AA2189342EC
:1070E0000AD91A8892B2824204D133F8020C08807D
:1070F000002010BD043BF0E7012010BD0040000857
:1071000000440008FE43000802400008F8B5434E62
:1071100005F014FE424D34884EF6EE61A4B22B8881
:107120008C4298B24FF6FF720FD0944202D0002CDE
:1071300042D070E000286AD088426CD1304605F019
:1071400059FE042869D1284632E048BB0446164659
:10715000344D35492B8831F8145098B2A84208BFF5
:10716000A6B232B2944203D10134642CF0D10FE0C4
:107170002D4F284607F1C801FFF7A0FF0128F3D0E3
:107180002846B7F8C810FFF74BFF0428ECD0F8BD2D
:107190000021224805F012FE04283ED1204837E0A5
:1071A000904238D1284605F025FE042835D13046D6
:1071B000002105F003FEF8BD00282CD09042EDD050
:1071C00016461A4D18492B8831F8145098B2A84227
:1071D00008BFA6B232B2944203D10134642CF0D17C
:1071E0000FE0114F284607F1C801FFF767FF01289C
:1071F000F3D02846B7F8C810FFF712FF0428ECD0E8
:10720000F8BD0021064805F0D9FD042805D1034842
:1072100005F0F0FDF8BDFFF73BFFF8BD00400008AA
:107220000044000806400008A011002006440008A1
:1072300010B50446FFF76AFF0023044A22F8133012
:107240000133642BF9D1204610BD00BFA0110020EE
:107250000148FFF7EDBF00BF6A120020024B18780B
:107260005978401A704700BF6C120020064B5A78BC
:107270001978914204D99818013280785A70704771
:107280004FF0FF30704700BF6C120020054B5A785A
:107290001978914202D99818807870474FF0FF30E2
:1072A000704700BF6C12002070470000014B036064
:1072B000704700BF88520108034B10B504460360B5
:1072C000FEF7C6FF204610BD88520108F8B5094BED
:1072D000054693F82200164650B10C468F18BC4262
:1072E00006D0296828468A6814F8011B9047F6E7FB
:1072F0003046F8BD6C12002010B50C4B012293F8FB
:1073000022408CB193F823401F2C02D94260002008
:1073100010BD93F824001C1884F82510411CC8B235
:1073200083F8240083F82300104610BD6C1200205F
:1073300000224260024A4FF47A7181600260704715
:107340004852010870477047014B93F85900704745
:107350006C12002073B50E4C002104F164050D4E33
:107360000B4600910A46284600F05AF86C34324623
:10737000094928460BF07EFC2046FFF7D9FF074954
:107380002046324602B0BDE870400BF073BC00BF2F
:107390006C120020F0050020055A0008AD720008AC
:1073A00008B5034B53F8200000B1804708BD00BF6B
:1073B000E812002013B5084C002100910A460B4644
:1073C000204600F02DF80549054A204602B0BDE8E8
:1073D00010400BF04FBC00BF28130020055A0008D6
:1073E000F00500202DE9F041002407460E46254611
:1073F0003B1919790A22304600F0AFF82E21804659
:10740000304600F078F801344044032C0544EFD1B5
:107410003046F9790A2200F0A0F82818BDE8F0817A
:1074200030B58371044D9DF80C3004460560017140
:107430004271C37130BD00BF705201080548002180
:10744000054B017141718171C171044A04490360A6
:107450000BF010BC3013002070520108F005002022
:10746000055A000813B5084C002100910A460B4646
:107470002046FFF7D5FF0549054A204602B0BDE882
:1074800010400BF0F7BB00BF38130020055A00086E
:10749000F0050020014B0360704700BF88520108CF
:1074A000F8B506460C468F180025BC4207D0336855
:1074B00030469A6814F8011B90472D18F5E72846C6
:1074C000F8BD0000034B10B504460360FEF7C0FE94
:1074D000204610BD8852010838B505460C460846BE
:1074E00041B10BF00AFE2B680246DB6828462146B4
:1074F000984738BD38BD08B503689A68904708BDFD
:1075000070B500238AB08DF82430012A98BF0A2272
:107510000DF12303B1FBF2F505FB1211CCB2092CDE
:107520001E4601D8303400E03734E4B203F8014994
:107530002946002DEED13146FFF7CEFF0AB070BDCF
:1075400010B5044622B90268C9B29268904710BDCE
:10755000D2B2BDE81040FFF7D3BFFFF7F1BF000084
:1075600013B5084C002100910A460B462046FFF750
:1075700057FF0549054A204602B0BDE810400BF010
:1075800079BB00BF48130020055A0008F005002011
:1075900013B5084C002100910A460B462046FFF720
:1075A0003FFF0549054A204602B0BDE810400BF0F8
:1075B00061BB00BF50130020055A0008F0050020F1
:1075C000014B587D704700BF5813002070470000E2
:1075D00013B5084C002100910A460B462046FFF7E0
:1075E0001FFF0549054A204602B0BDE810400BF0D8
:1075F00041BB00BF70130020055A0008F0050020B1
:1076000013B5084C002100910A460B462046FFF7AF
:1076100007FF0549054A204602B0BDE810400BF0BF
:1076200029BB00BF7C130020055A0008F00500208C
:1076300010B5044600680BF0BFFB204610BD10B526
:107640000446006808B10BF0B7FB00232360A36079
:10765000636010BD38B504460D46006801310BF07B
:1076600085FC10B184E82100012038BD036810B505
:10767000044613B14068884207D22046FFF7EAFF6C
:1076800020B1A16809B922681170012010BD70B540
:107690000E46114604461546FFF7E8FF18B9204686
:1076A000FFF7CDFF04E0A560206831460BF01DFD1B
:1076B000204670BD38B500230446036043608360F4
:1076C00003730D4639B108460BF017FD29460246F3
:1076D0002046FFF7DCFF204638BD884210B50B4638
:1076E000044607D0096819B19A68FFF7D0FF01E096
:1076F000FFF7A5FF204610BD002310B50446036028
:10770000436083600373FFF7E8FF204610BD38B580
:1077100005460C4641B108460BF0EFFC21460246F7
:107720002846FFF7B4FF01E0FFF789FF284638BD80
:10773000826808B50B4612B919B9012008BD11B904
:107740000368187802E000680BF0C4FCD0F1010077
:1077500038BF002008BD10B58B688468E41AA242C7
:107760000CD8006868B1096851B180181A460BF04E
:10777000CCFCD0F1010038BF002010BD002010BDAE
:10778000084610BD82688B689A4202D30022FFF738
:10779000E2BF002070478368994203D2006810B1AD
:1077A000405C704700207047FFF7F5BF9A422DE913
:1077B000F04107460D4614461E4601D9344616468A
:1077C00038460C49FFF776FFA86884420FD829682D
:1077D000864228BF0646002211F806808A552B688B
:1077E00038461919FFF793FF286800F806803846D5
:1077F000BDE8F081D8B4010810B58B680446FFF7E6
:10780000D5FF204610BD006808B10BF074BA704770
:1078100013B5084C002100910A460B462046FFF79D
:10782000FFFD0549054A204602B0BDE810400BF0B7
:1078300021BA00BF84130020055A0008F00500207B
:1078400013B5084C002100910A460B462046FFF76D
:10785000E7FD0549054A204602B0BDE810400BF09F
:1078600009BA00BF8C130020055A0008F00500205B
:1078700038B51A4C94F92C30002B2DD094F82D00EB
:10788000002829D005F05CFC94F82C2094F82D50A9
:1078900051B2002995FBF1F306DD012B0BDC511EE3
:1078A00084F82C10002407E0591C04DB013284F812
:1078B0002C20022400E00124084B041993F82D2009
:1078C000511E83F82D1005F06FFC204605F04CFC8E
:1078D000BDE8384005F068BC38BD00BF94130020F7
:1078E00010B5044605F02CFC001B00F17F02FE2AB7
:1078F00008D905F059FC204605F036FCBDE81040DB
:1079000005F052BC054980EAE073A3EBE07381F80F
:107910002C00580081F82D0010BD00BF94130020EA
:1079200013B5084C002100910A460B462046FFF78C
:1079300077FD0549054A204602B0BDE810400BF02E
:1079400099B900BFC4130020055A0008F0050020B3
:1079500013B5084C002100910A460B462046FFF75C
:107960005FFD0549054A204602B0BDE810400BF016
:1079700081B900BFD0130020055A0008F00500208F
:1079800013B5084C002100910A460B462046FFF72C
:1079900047FD0549054A204602B0BDE810400BF0FE
:1079A00069B900BFD8130020055A0008F00500206F
:1079B000014B0360704700BF88520108426D836D20
:1079C000D01A00F03F007047426D836D9A4203D099
:1079D000816D4018007D70474FF0FF307047426D59
:1079E000836D9A4209D0816D4218816D137D4A1CC6
:1079F00002F03F018165184670474FF0FF30704735
:107A0000D0F8A43070B504460E46186840F22771CD
:107A100005F027FE28B9D4F89C20D4F8A0008242B3
:107A200013D1D4F89C506B1C03F03F05D4F8A02070
:107A3000954213D0EFF31080C30744D5D4F89C10BF
:107A4000D4F8A030994209D13DE0D4F8A410012225
:107A5000086840F2277105F0DCFDE2E7D4F8A430B5
:107A600040F22771186805F0FCFD0028DED0D4F83C
:107A7000A4208021106805F0EEFD0028D6D0D4F8AF
:107A8000A4000022006840F2277105F0C2FDD4F87E
:107A9000A030D4F8A410E2180133086892F85C1002
:107AA000C4F8A03005F0CFFDD4F8A000D4F8A4208D
:107AB00000F03F01C4F8A010106840F227710122C5
:107AC00005F0A7FDB2E7D4F89C20D4F8A410A018C4
:107AD00080F85C60C4F89C5001250868257440F269
:107AE00027712A4605F095FD284670BD10B504465D
:107AF000D4F89C20D4F8A0309A42F9D1207C10B957
:107B00000022227410BDD4F8A4100868402105F0AA
:107B1000A2FD0028F2D0F3E7034B10B50446036042
:107B2000FEF796FB204610BD8852010810B540F2C2
:107B300025510446006805F094FD70B1206805F0F9
:107B400086FDE369C0B21A6C511C01F03F02596C0A
:107B50008A4202D0196C1A645854206840F2277186
:107B600005F07FFDB8B1A3692068196C5A6C914289
:107B700006D140F227710022BDE8104005F049BD52
:107B80005A6C995C01325A6405F05DFDA069436C42
:107B900003F03F01416410BDF8B500254FF47A733E
:107BA0000446836045600B4804F15C07206048266A
:107BB00004F11400C4F8A41032468F61C86129464C
:107BC0000BF08CF93846294632460BF087F92574BC
:107BD0002046F8BDA05201080148FFF7A7BF00BF2B
:107BE000080200200148FFF7A1BF00BF28020020C3
:107BF000014B187C704700BFE013002073B50E4C9A
:107C0000002104F114050D4E0B4600910A4628464A
:107C1000FFF706FC1C343246284609490BF02AF8C7
:107C200020460849FFF7B8FF07492046324602B010
:107C3000BDE870400BF01EB8E0130020F0050020F6
:107C4000055A000808020020B179000870474FF07B
:107C5000FF307047014B0360704700BF8852010836
:107C6000034B10B504460360FEF7F2FA204610BD40
:107C700088520108084608B5FEF728FA012008BD19
:107C800008B5FEF7EFF908BDFEF700BA0022426022
:107C9000024A4FF47A71816002607047C85201084D
:107CA0000846FEF7C7B9000037B50D4C00210D4D51
:107CB0000B4600910A462046FFF7B2FB2A460A49C6
:107CC000204608340AF0D6FF2046FFF7DFFF0749B9
:107CD00020462A4603B0BDE830400AF0CBBF00BFC3
:107CE000A4140020F0050020055A0008557C000867
:107CF0007047000037B50B4C00210B4D0B4600912F
:107D00000A462046FFF78CFB2A46204607490AF020
:107D1000B1FF074904F108002A4603B0BDE830402E
:107D20000AF0A8BFBC140020F0050020055A000886
:107D3000F17C0008002303601846704700230360AD
:107D4000184670470023036018467047F0B50B785B
:107D500091B004460D4616462BB1032A54D8DFE8ED
:107D600002F002113C3C20460BF0C7F9024601200C
:107D7000009000200190029003900490059021460D
:107D800003463DE008460BF0B8F9002647088DF899
:107D90001E600235BE4210D015F8021C15F8012CE9
:107DA0008DF81C108DF81D2007A8002110220BF063
:107DB000E3FA08AB98550136EBE720460BF09DF946
:107DC00001210023024608A88DE842000490029396
:107DD000084603930593214612E00BF08EF90746FF
:107DE00028460BF08AF9012118221E234FF0020EBB
:107DF0008DE80E4005900495304621463A46002312
:107E000002F044FF03490870024B01225A7011B07E
:107E1000F0BD00BFC8140020F8B5394C0346A57862
:107E200008462E46002D69D148F21007BB4246D0C5
:107E30000BDC48F2010293421FD0501C834225D034
:107E4000992B5BD10121A174F8BD48F28007BB4298
:107E50000ED0B3F5084F43D048F2400083424DD1D5
:107E600004F114000BF017F8A16A4B1CA362F8BDD3
:107E70000121E17021716571F8BD0123A371FFF744
:107E8000B5F800F5EA423032A260F8BDA37963B1DB
:107E9000FFF7ACF800F5EA4230324FF47F40A260C1
:107EA00003F054FCE72003F0CDFC1548002181715C
:107EB000017341738173C17301744174F8BD0B7D0B
:107EC00063B901224FF47F402273A360227403F050
:107ED0003DFCE720BDE8F84003F0B4BC2573F8BDD5
:107EE000294601F0A2F90121064601F0E5F9054A0B
:107EF0001068864202D1E573A5736573F8BD00BFB3
:107F0000C81400200400002070B500228CB0174B6C
:107F100006460D461020022101F012FF01AB00229F
:107F2000B45A200A44F00101AC5A023203F8024C60
:107F3000240A03F8041C03F8030C03F8014C04336F
:107F4000182AEDD16B4630210422102001F0F8FEF2
:107F50000021302268460AF0C1FF10200146342279
:107F60006B4601F0EDFEC0B20CB070BD27B3010846
:107F700010B50A4C04F12C0001F048FF60B994F8E8
:107F80002C30012B09D194F82D00B0F11C0CDCF140
:107F9000000151EB0C0010BD002010BDC8140020E2
:107FA0001FB50A2200234FF461504FF461618DE840
:107FB0000F00064B44F620621A60684601A902AA27
:107FC00003AB01F03BFE05B000BD00BF7016002002
:107FD0001FB50023009301930293039301A8694600
:107FE00002AA03AB01F0F2FD05B000BD70B500219F
:107FF0000A4C0E2001F024FF102510210E2001F064
:108000001FFF00212A4620460AF068FF0E2029465D
:1080100000222346BDE8704001F092BEF614002015
:1080200030B5544D00249FB0FF20EC702C716C7063
:10803000AC712C73AC746C73AC73EC732C7403F074
:1080400085FBE72003F0FEFB21462246204602F096
:10805000F9FD2B46012103F82F4F0E200A4601F0AF
:108060006FFE444B9879012805D1642003F01EFA75
:1080700001F048FAF5E710210C2001F0E1FE3E483E
:1080800002F0AFFA3D4802F051FF012002F032FF4A
:1080900068463B4900F050FF364DE9786A780A435C
:1080A00018D195F83E10002959D0FF2002F0D6FED5
:1080B000002854D11A24013C06D0E72003F0F0FB3D
:1080C000322003F0F3F9F6E7FFF790FF294A82F830
:1080D0003E40E1E7E72003F0B5FB0E20012100223E
:1080E00005F12E0301F000FEEC7814B102F03CFF24
:1080F0002870204C012123780022581C234603F8C5
:108100002E0F0E2001F01CFE00200146012202F07D
:1081100099FD0125234603F82F5F29462A460E20A4
:1081200001F00EFE02F014FD642003F0BFF9002000
:1081300002F0D8FC84F83F504FF47F4000252574AE
:1081400003F004FBE72003F07DFB48F2042002F07B
:108150009FFEFFF725FF84F840501FB030BDE72099
:1081600003F09EFBFA2003F0A1F9684600F03CFF03
:1081700092E700BFC8140020E8520108480200201E
:108180004D7D0008024B1A6818601046704700BF0A
:10819000701600201FB5044603F03CFE03F07CFD82
:1081A0000E4B0F480F49104A009301900F4B02915C
:1081B00003920F490F4A104802F07CFC642003F040
:1081C00075F9204602F08EFC0C4802F0AFFE48F232
:1081D000042004B0BDE8104002F05ABE51BD0008B2
:1081E00065BD0008D1BD0008F9BD0008457D000847
:1081F000357D00083D7D0008197E000848020020FA
:1082000038B55F4C01254FF0FF10A57003F09EFAC2
:10821000E72003F017FB2846FFF7BCFF04F1C1007D
:1082200001F0C9FD574BD8701D710020554D84F8E1
:10823000C7002A79524C28469AB194F8C7100229EF
:108240000FD864210022022004F1C80301F04CFD84
:1082500094F8C710642814BFFF2200222A71481C1A
:10826000E4E701230371002584F8C750454D444CD1
:108270002A791AB194F8C700022870D994F8C71067
:10828000414B424D3F4C0122032908BF1D4622713C
:108290003C4C207930B13E4800F11801FFF734FE24
:1082A0002071F5E701212171364C23793BB10B2078
:1082B000802100222B4601F043FD2071F4E70125C7
:1082C0002571304C22793AB1022064210022314BD1
:1082D00001F036FD2071F4E794F9031001202071BC
:1082E00021B12749012081F82C010FE0244B93F89C
:1082F000C15025F0010483F8C140224D2A79002A9B
:10830000EFD0254801F04EFD2871F6E71C4C94F89B
:108310002C3143B11B490420C988204A01F057FD84
:1083200084F82C01F2E7012584F82D51144C94F8BF
:108330002D5145B1134A05201189194A01F047FD15
:1083400084F82D01F2E72846FFF724FFFFF710FE1F
:1083500010B1A570A07838BD4FF0FF3038BD04F1E2
:1083600041030B208021002201F0BEFC94F8C730AD
:10837000802814BFFF20002028715D1C74E700BF17
:10838000C814002048020020F952010809150020F5
:108390007A5301089015002089150020AA5301087E
:1083A0000273010838B5534CC4F830010020FFF7C0
:1083B000F1FE0123002084F83F302074FFF7D8FD40
:1083C0000546E8B94C4C2188052919D0FFF718FF5C
:1083D0000028F3D02088052888BF25802588691CBF
:1083E000218003F063FEBFF34F8F444C444BE2689F
:1083F00002F4E06040EA0305E560BFF34F8FFEE75B
:108400003C4B93F8C120082A0BD193F8C20088B9DD
:1084100093F8C340282C0DD1374B1888012829D157
:1084200055E03AB993F8C210192903D193F8C33033
:10843000942BF0E7334A2F4B117A90780824527A24
:1084400083F8C14083F8C51000242F4983F8C24047
:1084500083F8C4002824012083F8C34083F8C62091
:108460000871294C2279002AD6D0284801F09AFCBC
:108470002071F6E70E2010210022254B01F034FC7C
:10848000102824D11B4C6279AAB994F82E301BB95C
:10849000012084F840000EE094F82F0058B90146FE
:1084A000012202F0CFFB0121234603F82F1F0E20EB
:1084B0000A4601F045FC0F494A799AB991F84030D3
:1084C00083B1FFF785FDBDE83840FFF769BDFF20A8
:1084D000094C02F0C3FCFFF789FD0021218003F065
:1084E000E5FDCFE74FF47F4003F030F9E72003F0DC
:1084F000A9F9E6E7C81400209E03002000ED00E083
:108500000400FA05E8F7FF1F480200208915002043
:10851000F61400202DE9F3419C4C04F047FD0023A4
:10852000C4F8343194F8380148B994F8391131B9A4
:10853000A26882B3FEF75AFDA468A0422BD3934CE5
:1085400094F83F00002841D00025A571A56025734F
:10855000C4F83C5184F83851012684F83F506573C3
:10856000A573E573657402F0F3FA6FF07F4026742B
:1085700003F0ECF8E72003F065F9642002F096FFC1
:1085800094F8401011B3284602F0ACFA84F83F602A
:10859000FFF746FD1AE07D4C94F83F30B3B960799F
:1085A00028B9FEF723FD00F5EA413031A160002033
:1085B00002F098FA012200234FF47F4084F83F2014
:1085C000237403F0C3F8E72003F03CF96F4C94F8F0
:1085D000402012B1FFF724FD04E0637913B1267B3C
:1085E00035460EB369480179012914D1047B012C69
:1085F00011D18279012A0ED1032465480AF07DFD4C
:10860000634982B2012002F01BFA631E13F0FF04DB
:10861000F3D15E4804715D4C217B2346E1B194F8AF
:108620003921002A76D017E0314632463046A6601E
:1086300002F008FB57480AF060FD574F8046384665
:108640000AF05BFD00970190791F032042463346F4
:1086500002F094FA6671C5E793F8430120B14F48E0
:1086600000213A220AF03AFC484B93F87A2132B9B9
:10867000587B00285AD19B7B002B57D1BEE01C7B36
:1086800004B393F83901E8B9597B00295FD019E0A8
:10869000234603F8312F0E200121032201F050FB65
:1086A0003A4C00254FF6FF70257403F04FF8E72091
:1086B00003F0C8F8FEF7DCF8A84273DBC4F83C51BD
:1086C00001236373314C617B002900F09780A27B0A
:1086D000BAB9FEF733F8002811D002DA4FF47F0060
:1086E00007E0012801D12E4803E0022803D14FF012
:1086F000FF1003F02BF8E72003F0A4F801E00120BD
:10870000A073FDF7DFFF002878D1204BD873987352
:10871000587373E094F843110029A5D1642002F046
:10872000C5FE04F5A07001F0CDFA9DE7FEF790F8C4
:10873000164900224FF47F40CA738A734A7303F0CC
:1087400005F8E72002B0BDE8F04103F07BB85D7C9E
:10875000002DA5D04FF47F0002F0F8FF0B4C627C97
:10876000002A95D0E72003F06DF84FF4FA7002F07C
:108770009DFEE72003F074F84FF4FA7002F096FEC5
:10878000657C691ECAB26274E8E700BFC8140020A5
:1087900052020020590200205E020020081600202C
:1087A0000060FF0094F8383143BBD4F83C01411C11
:1087B0000229C4F83C1102D1012284F83821FEF7C5
:1087C00015F800280F4C0BDAD4F83C01411C0229A3
:1087D000C4F83C1102D1012284F83821022300E0C0
:1087E00003236374074C0121607C234603F8310F97
:1087F00003220E2001F0A4FA002362E702B0BDE8D4
:10880000F08100BFC814002013B5084C002100916E
:108810000A460B462046FEF703FE0549054A204658
:1088200002B0BDE810400AF025BA00BF441600208F
:10883000055A0008F0050020704708B5012003F034
:10884000B3FFFEE708B5032003F0AEFFFEE708B56F
:10885000042003F0A9FFFEE708B5052003F0A4FFFC
:10886000FEE770477047704708B503F061FDBDE84B
:108870000840FDF713BB000008B5024B0BB1AFF386
:10888000008008BD0000000008B5024B0BB1FFF7E7
:10889000A9F908BDE57B000808B5024B0BB1FFF74D
:1088A0009BF908BDD97B000808B5024B0BB1FEF758
:1088B00049FD08BD4573000808B5024B0BB1FEF732
:1088C00042FD08BD4773000808B5024B0BB1FEF727
:1088D0007DFE08BDCD75000808B5012004F018FA2A
:1088E00038B1012004F024FA024B13B10020FEF746
:1088F00057FD08BDA173000808B5022004F008FA6E
:1089000038B1022004F014FA024B13B10120FEF733
:1089100047FD08BDA173000808B5042004F0F8F96C
:1089200078B1042004F004FA0020064B01461880B8
:1089300003F044F8044810210122BDE8084004F087
:1089400020BE08BD90160020002C014008B508206C
:1089500004F0DEF938B1082004F0EAF9024B13B153
:108960000320FEF71DFD08BDA173000808B5102007
:1089700004F0CEF938B1102004F0DAF9024B13B14B
:108980000420FEF70DFD08BDA173000808B52020E6
:1089900004F0BEF938B1202004F0CAF90E4B13B12F
:1089A0000520FEF7FDFC402004F0B2F938B140206C
:1089B00004F0BEF9084810B10620FEF7F1FC802053
:1089C00004F0A6F938B1802004F0B2F9024911B1DF
:1089D0000720FEF7E5FC08BDA173000808B54FF4B9
:1089E000005004F095F940B14FF4005004F0A0F9A4
:1089F000174B13B10D20FEF7D3FC4FF4804004F069
:108A000087F940B14FF4804004F092F9104810B15A
:108A10000E20FEF7C5FC4FF4004004F079F940B198
:108A20004FF4004004F084F9094911B10F20FEF71A
:108A3000B7FC4FF4006004F06BF938B14FF40060FC
:108A400004F076F9BDE8084002F0BABC08BD00BFEA
:108A5000A173000808B50F48102104F0CBFDC0B188
:108A60000C48102104F0D1FD002003F069F828B96A
:108A7000094B1A880A3290B2188008BD10210548A7
:108A8000002204F07EFD00200121BDE8084002F034
:108A900095BF08BD002C01409016002008B5024B80
:108AA000186800B1804708BD5016002008B5024B79
:108AB000586800B1804708BD5016002008B5024B29
:108AC000986800B1804708BD5016002008B5012005
:108AD00004F086FB50B1012004F094FB044B0BB171
:108AE000FEF7C6FEBDE8084004F05EBB08BD00BF4F
:108AF0007178000808B5022004F072FBB0B10C4B8D
:108B000000224FF400301A7004F012F9012004F032
:108B100077FA10B1012004F07DFA04F045FB022041
:108B200004F070FBBDE8084004F03EBB08BD00BF88
:108B30000116002002F0D4BB00F062B838B5144929
:108B40000B78012B23D1134A13680BB90B7038BD76
:108B5000114C402B206881B205D94030403B206049
:108B60001360402504E09DB2C3180020236010600C
:108B70000A4A5018C0212A4605F0A4FA01202946C5
:108B800005F0AAFB0120BDE8384005F013BB38BD55
:108B9000DC050020E4050020E0050020DC040020C6
:108BA000094908B50020094B0122088003201A70EA
:108BB00005F0BEFB064B0246188006484FF488714C
:108BC000BDE8084005F095BA940400209004002008
:108BD0009204002096040020074B1868052809D14C
:108BE000064B1A68511C052A196003D10020186031
:108BF000FDF78ABA704700BFBC1600205C16002043
:108C00003A4A38B511683A4B88B23A4D18801C88F8
:108C10002988214001F4007084B244B14FF6FF5519
:108C200015609A78511CC8B29870FFF7D5FF304C88
:108C3000304B25881A882A4002F4004188B2254624
:108C40001C4608B105F078F92A882388134003F4FC
:108C5000806188B230B1254B27494FF6FF321A6048
:108C600048688047224A234B11881B88194001F429
:108C7000005081B219B11D494DF6FF70086012888D
:108C8000134003F4805398B230B1184A4EF6FF7186
:108C90001160002003F044FD154B164918880A881E
:108CA000024002F4006398B260B114490A7812B12C
:108CB00003F016FD02E0022003F032FD0B4B4FF2F1
:108CC000FF7018600A490B480A880388134003F4B0
:108CD00080718AB242B1054B4FF6FF6018600720E1
:108CE000BDE8384003F01CBD38BD00BF445C004007
:108CF000601600207C200020F4020020C403002025
:108D0000034B987A10B1034905220A60704700BFEF
:108D100058200020BC160020014B04221A60704726
:108D2000BC160020034B1A78202A01D100201870AD
:108D3000704700BF6416002070470000212810B55E
:108D400008D111480368197801F07F02212A11D057
:108D5000022010BD2028FBD10B4B19680A780B4963
:108D600002F07F030A4A212B0CBF0B460023107030
:108D70000BB9EDE7074B044C206800248361448263
:108D800020469847204610BD78200020E58D000839
:108D900064160020CD8D0008074B19680A7802F090
:108DA0007F03212B05D1022801D100207047222802
:108DB000FBD00220704700BF7820002009B10220BC
:108DC00070470128FBD808467047000020B9034BC4
:108DD000082219680A8270470148704778200020ED
:108DE000BC02002020B9034B082219680A82704790
:108DF0000148704778200020BC020020054B19680C
:108E0000CA78042A04D8044B03EBC20104F014BE50
:108E10000020704778200020C4020020014904F09F
:108E20000BBE00BFE4020020014904F005BE00BFF4
:108E3000EC020020334A344BD179186810B5002475
:108E400041728472C472204605F066F920464FF4E0
:108E5000007105F069F91021204605F071F94021F3
:108E6000204605F00DFA8021204605F0F9F920464C
:108E700005F0C2F9254B204693F8641005F03AFA44
:108E8000204605F0A8F90120214605F04DF9012002
:108E9000C02105F0E5F90120202105F051F901205C
:108EA000214605F06AF902204FF4C06105F03CF953
:108EB00002204FF4807105F0D3F90220214605F01D
:108EC0005CF90220202105F03BF90320214605F042
:108ED0002BF903204FF4887105F0D2F903204021CB
:108EE00005F008FA03204FF4405105F046F903203D
:108EF000214605F025F9204604F0B0FF044A012080
:108F0000106010BDA289010878200020BC0200205A
:108F1000BC16002010B5FDF743F9054B0024186876
:108F2000847203F0C5FB05F019FA02490C6010BD0C
:108F300078200020BC16002038B504460D46FEF708
:108F4000A5FE204625614FF41651FEF7A9FE2046E6
:108F500038BD70B506460D46002428460AF0CDF807
:108F6000844208D2295D3046FEF784FE012002F0DB
:108F70009DFA0134F1E770BDF8B504460E46174678
:108F800000252046FEF77CFE0028FADD2046FEF78D
:108F90007BFEBD42C1B206D1002333702046114989
:108FA000FFF7D7FF14E00D29F6D00A29F4D00829DD
:108FB00001D07F2904D1002DE3D0013E013D02E024
:108FC00006F8011B01352046EDB2FEF753FED8E747
:108FD0002046FEF755FE002803DD2046FEF754FE2E
:108FE000F6E7F8BDD6B40108F0B585B00446FEF743
:108FF00047FE002840F39D802046FEF745FEC0B2A4
:10900000772867D104F1140600212122304604F1AB
:10901000350509F063FF00214122284609F05EFF73
:1090200004F17607002284F8762020467A704249BF
:10903000FFF78FFF204631462022FFF79DFF204695
:109040003E49FFF786FF394601222046FFF794FF8D
:1090500094F87630A3F130010329F0D8312B0BD1ED
:1090600020463749FFF775FF20463649FFF771FF65
:1090700020463549FFF76DFF94F87600B0F13007D0
:1090800008D020463149FFF764FF20462946402298
:10909000FFF772FF20462E49FFF75BFF23693A4630
:1090A00030462946984720462A49FFF752FF204676
:1090B0002949FFF74EFF20462849FFF74AFF20467F
:1090C0002749FFF746FF20462649FFF742FF204683
:1090D000254929E069282CD1244A01AB1068516840
:1090E000002503C39168204619602149FFF731FF2D
:1090F00001AEAE5D300900F13001392988BF00F1C1
:10910000570106F00F062046FEF7B4FD06F13001C8
:10911000392988BF06F1570120460135FEF7AAFD1F
:109120000C2DE5D11349204605B0BDE8F040FFF70E
:1091300010BF05B0F0BD00BF2AB3010831B301086C
:109140005EB3010894B30108BFB3010805B4010878
:1091500010B4010853B4010873B40108A6B401089F
:10916000D9B4010818B5010849B50108E8F7FF1F8F
:109170005FB50108D6B4010813B5084C0021009171
:109180000A460B462046FEF74BF90549054A20469C
:1091900002B0BDE8104009F06DBD00BF68160020A8
:1091A000055A0008F0050020002100F004B80E4B1D
:1091B0005B58435004310D480D4B42189A42FFF45E
:1091C000F6AF0C4A00F003B8002342F8043B0A4B08
:1091D0009A42FFF4F9AF03F0EDF9FCF799FDFDF7C2
:1091E0001BF8FCF7E3FD7047B4B80108000000204D
:1091F000800400208004002088200020FFF7FEBFAC
:1092000001700B0A0A0C090E43708270C1700430A1
:1092100070470170090A41700230704743185A784C
:10922000405C00EB022188B2704710B543189A7871
:10923000DC78415C120402EB04625878521802EBAD
:10924000002010BD73B544790023022C01930FD088
:10925000032C19D0012C2BD1164D28692E4620B194
:10926000296901A888470246B8B9B16801201BE006
:10927000104DE8682E4620B1E96801A888470246EB
:1092800058B9B16802200FE00A4D6A692E464AB10A
:109290006B6901A89847024620B1A9682046BDF82D
:1092A000043003E0B16803200022134600F02AFCDA
:1092B0007CBD00BFC0170020072830B512D8012997
:1092C00010D8EFF3108472B6012505FA00F501FA03
:1092D00000F0054B1A6822EA050202431A60E30710
:1092E00000D462B630BD00BF4C030020F0B50121B0
:1092F00087B00546FFF792FF00F48043044698B21A
:1093000050B3B4F5824F27D128460521FFF786FFD9
:109310000026074607353446BE4208D028460221BB
:10932000FFF77CFF013624180435B6B2F4E7744B1E
:10933000188E21188AB21A86D86B2418DC63D96B70
:109340009A6B914240F0CE8093F84000002800F0E4
:10935000C9809B69992033E024F4FF4121F07F020A
:1093600090B2002800F09B8048F2100294422AD06C
:109370000CD8B4F5004F40F2C08048F202039C4282
:1093800017D9991C8C4240F0B88012E048F2800056
:1093900084420ED005D848F24002944240F0AD809D
:1093A00051E0B4F5024F04D0B4F5084F40F0A58069
:1093B0006CE053498869002800F094808B6920464E
:1093C00000210A4669E00023EA1851790DF80310DC
:1093D0000133042BF8D1687A2B7BAA7AE97A8DF8CD
:1093E00004008DF807308DF805208DF8061005F182
:1093F0000D00002306AAD218C15C0133042B02F829
:10940000101CF7D105F11100002306AAD218C15C87
:109410000133042B02F80C1CF7D105F115000023D1
:1094200000AAD218C15C0133042B1174F8D134495D
:1094300028798A698DF81400002A53D08B69204658
:109440006946152229E0053500212846FFF7EDFE83
:10945000042100902846FFF7E8FE082101902846E5
:10946000FFF7E3FE0C2102902846FFF7DEFE1021F5
:1094700003902846FFF7D9FE214B049099690029F3
:1094800030D09B6920466946142206E01C48826958
:1094900042B38369691D20460122984722E041F2C8
:1094A00003039C4205D00C339C4202D0591E8C42CF
:1094B0001AD16C1D04212046FFF7B7FE39301CD1AC
:1094C0002D790F480021C5622046FFF7AEFE04212A
:1094D00005462046FFF7A9FE393003D12846012171
:1094E000FFF7EAFE012009E0054A138899B28C4291
:1094F00004D0B4F5805FF5D100E0002007B0F0BDE6
:10950000C017002038B5104B5D88ADB2CDB158689A
:109510000478221F514251EB02042CB1FFF7E6FE02
:10952000003018BF012000E02046054620B944B1B4
:10953000054B93F8412022B903480021418001F0F6
:10954000E7FD284638BD00BFC01700202DE9FF47C2
:1095500004468946904602F0F3FE00250190BC4B7C
:109560005A8890B2002840F0928003F01FFD02F06C
:10957000E7FE0290029901980A1A0392039B002BBE
:1095800003DA0199029842180392B24B1968002934
:10959000E5D003988842E2D3AD4A41F20700138830
:1095A00099B2814224D8421E91425FD240F20223F6
:1095B00099425BD00DD80C2906D8082956D200292B
:1095C0004DD0062952D959E00D294CD040F2012244
:1095D0000BE041F2020081424BD8B1F5805F45D8E3
:1095E000B1F5017F3FD940F20722914237D13AE0ED
:1095F00041F21103994236D014D841F20B00814256
:1096000034D005D841F2090291422FD031D82AE056
:1096100041F20F0399422CD028D841F20D0081422B
:109620001DD126E042F2060291421CD007D8B1F5C6
:10963000005F14D942F20403994214D921E0B1F534
:10964000804F00F0F18105D8A1F5005008380128BD
:1096500005D808E044F20B02914200F0E5810B20AE
:1096600003F0A2F8E0E1FF212170DDE14FF0FF31CE
:1096700005E04FF0FF3121606160D5E100212160FC
:10968000D2E1204600213A2209F028FCCCE15E68B4
:109690003178042940F07D8101213046FFF7BEFD7D
:1096A00005463046FFF722FE0146002840F067815C
:1096B00041F20700771D854250D8411E8D4280F04F
:1096C000AF8040F20222954200F0AA8011D80C2D02
:1096D00009D8082D80F0A480002D00F05081062DBF
:1096E00040F29E80E9E00D2D00F0978040F20123CA
:1096F0007EE041F202039D4218D8B5F5805F00F28A
:109700008F80B5F5017F40F2888040F207218D42BD
:1097100040F035813079002104F8010B3846FFF71D
:1097200084FD01462046FFF76BFD28E141F204026B
:10973000954200F0988040F2AF8038460021FFF754
:1097400074FD042120603846FFF76FFD6060083427
:1097500006F10D07234606F11D017DE041F21102DD
:1097600095425AD02CD841F20B039D4258D01CD8B8
:1097700041F209018D4253D000F29A80002138460F
:10978000FFF753FD042120603846FFF74EFD082106
:1097900060603846FFF749FD0C21A0603846FFF7AE
:1097A00044FD04F10C0AE060E8E041F20F0295424A
:1097B00072D03BD841F20D039D4240F0E08052E070
:1097C00042F20500854200F09C8008D841F2120266
:1097D000954238D0B5F5005F40F2D1801DE042F2ED
:1097E00009018D4208D84F1EBD4216D242F206032F
:1097F0009D4240F0C48010E044F20B00854240F0EE
:10980000BE807279DFF848A038460121AAF83020DE
:10981000FFF704FDAAF83200B1E031792170AEE023
:1098200038460021FFF701FD2060A8E000213846FE
:10983000FFF7FBFCA2464AF8040B04213846FFF769
:10984000F4FC60609AE03846FFF7E8FC208096E080
:10985000C01700207016002057F8040B8F4243F801
:10986000040BF9D18BE000213846FFF7DEFC042120
:1098700020603846FFF7D9FC082160603846FFF7C2
:10988000D4FC04F1080AA060E46814F1390375D12E
:109890000121FFF711FD71E000213846FFF7C5FCFB
:1098A000042120603846FFF7C0FC6060083466E0A1
:1098B000307920713F68276061E038460021FFF76A
:1098C000B4FC042120603846FFF7AFFC082160603B
:1098D0003846FFF7A3FC0A21A0603846FFF79EFC3C
:1098E000C4F80A000C3406F11103274606F13501CD
:1098F00053F8040B8B4247F8040BF9D11A883A80CD
:109900003DE077187B79635401310429F9D106F1E0
:1099100009000027C15DE2190137042F1171F9D147
:1099200006F10D000023C15CE2180133042B117213
:10993000F9D106F111070022B85CA1180132042AFE
:109940000873F9D106F115070023F85CE11801331B
:10995000042B0874F9D106F119070021785C62180C
:10996000013106291075F9D106F11F070023F85CB3
:10997000E2180133202B9076F9D100E054462C4FA9
:10998000388882B2954236D100233B8087F8413037
:1099900031E0DF8EBBB273B33046032196F802A0EC
:1099A000FFF73CFC0746B9F1000F0CD00421701DF5
:1099B000FFF73BFC0246C8F8000006F115014846D7
:1099C000D2B209F068FACAEB0707781EB0F5806FCB
:1099D00007D20AF10501204671183A4609F05BFAF0
:1099E00001E04FF0FF37B8F1000F01D088F80070A8
:1099F0000F4B0022DA860E4F0020788001F088FBA2
:109A00003278042A05D1B5F5805F02D13046FFF7E0
:109A100019FC3B8899B200297FF4A1AD0448C28E9D
:109A200093B2002B7FF49BAD002004B0BDE8F0871B
:109A3000C017002007284FF001030ED8EFF3108263
:109A400072B603FA00F006490B6818420CBF0020FA
:109A50000120D10702D462B670471846704700BF94
:109A60004C030020034B1880084600210A46FFF7EC
:109A70006DBD00BFC017002010B5034B0124DC866C
:109A8000BDE81040FFF762BDC017002038B503469F
:109A9000154601224A710C46881D1946FFF7B9FB8D
:109AA000291D0570204601F0A1FB002038BD38B506
:109AB000BDF814500C469B18A071E81885B202211D
:109AC0006171E271294604F10800FFF7A2FB6A1DEB
:109AD000204691B201F08AFB002038BD38B59B18B2
:109AE0000C469DB202216171A071E271294604F118
:109AF0000800FFF78EFB6A1D204691B2BDE8384092
:109B000001F074BB2DE9F0471D4605F1020A03235D
:109B100001F107091FFA8AFA88714B710C46484611
:109B200051461746FFF775FBB5F57A7F804613D887
:109B30002946FFF76EFB29464046FFF76AFB394688
:109B400004F10B002A4609F0A6F9A91D204689B2A6
:109B5000BDE8F04701F04ABB4FF47A76B5FBF6F169
:109B60000AEB410291B2FFF754FB31464046FFF742
:109B700050FB394604F10B00324609F08CF9A5F58B
:109B80007A75204640F2EE31ADB2BF1901F02EFBDE
:109B9000B5F57A7F05D9A5F57A7085B24FF47A7656
:109BA00001E02E460025A046394628F8056F4846B4
:109BB000324609F070F9B31C404699B2BF1901F062
:109BC00015FB002DE4D1BDE8F0870000F7B51A4C75
:109BD0001E46A468FF238DF807300025475D6319F2
:109BE0000135042D5F72F9D100200D5C231801307E
:109BF00004285D73F9D10021505C631801310429F8
:109C00005874F9D104F115000021FFF7F9FA002288
:109C1000B35C83540132042AFAD12146142242F261
:109C20000100FFF733FF42F201000DF10701FFF7DA
:109C300019FF9DF90700FEBDC01700202DE9F34173
:109C400006460C461E4831681546D0F808804A1E64
:109C50001F46FF23082A8DF8073008F1090001D8B4
:109C60000A23336021684A1E082A01D80A23236088
:109C700029684A1E082A01D80A232B6039684A1E1F
:109C8000082A01D80A233B603168FFF7B9FA216836
:109C9000FFF7B6FA2968FFF7B3FA3968FFF7B0FAA9
:109CA0004146142242F20900FFF7F0FE42F2090099
:109CB0000DF10701FFF7D6FE9DF90700BDE8FC8115
:109CC000C017002038B5074B42F2050405469968D5
:109CD00020460022FFF7DAFE20462946BDE838403C
:109CE000FFF7C0BEC01700202DE9F3418646134898
:109CF0000D46866871461F4602ACFF2306F1090037
:109D000004F8053D9046FFF77BFA2946FFF778FAFD
:109D100040F201254146FFF773FA0C2231462846EE
:109D2000FFF7B4FE28462146FFF79CFE3846002187
:109D300001AAFFF7A1FE0198BDE8FC81C017002031
:109D40002DE9F341864616480C46866871469846CA
:109D500002AD4FF0FF3306F10A0045F8043D174607
:109D6000FFF74EFA0C21FFF74BFA2146FFF748FAAE
:109D70003946FFF745FA4146224606F11A0009F036
:109D80008AF8902031461022A3B2FFF7A7FE40F2D6
:109D900002202946FFF766FE0198BDE8FC8100BF5E
:109DA000C017002008B50346062001460022FFF731
:109DB000C7FFC0B208BD08B5034606200146002211
:109DC000FFF792FF062814BFFF20002008BDF8B55A
:109DD00006460D4617460C467B192A1B1F2CC4EB62
:109DE000030392B208D930462021FFF7A9FFC0B281
:109DF000203C0028F0D007E02CB130462146FFF788
:109E00009FFFC0B2F8BD2046F8BD000037B50B4B30
:109E100040F207250446996800222846FFF736FEDF
:109E200028466946FFF71EFE9DF803009DF80410C2
:109E3000207061709DF800003EBD00BFC01700207B
:109E400037B50D4A034695680C4605F109001946D9
:109E5000FFF7D6F9214640F20324FFF7D1F929464E
:109E600008222046FFF712FE20460DF10701FFF7FA
:109E7000F9FD9DF807003EBDC01700202DE9F04315
:109E80000023CA5CC2540133102BFAD10022334B99
:109E9000467B991891F8018004789F19F97A88EA2D
:109EA0000405847B85EA01081D194178EF7A90F852
:109EB0000CC04F40C17B80F810805D1895F80B9066
:109EC0008578634489EA050593F80B90C378477455
:109ED00089EA030390F80490FFB288EA090890F831
:109EE0000590857487EA090790F80690EDB285EA37
:109EF000090590F80790C374DBB283EA090390F870
:109F0000089080F814805FFA88F888EA090890F8C9
:109F100009904775FFB287EA090790F80A9085759E
:109F2000EDB285EA090590F80B90C375DBB283EAC0
:109F3000090388EA0C0C7E406C405940013280F8DD
:109F4000188047768576C37680F81CC0467784777C
:109F5000C17710300A2A9AD1BDE8F083F789010849
:109F600010F0800F4FEA400018BF80F01B00C0B215
:109F7000704700002DE9F04F037891F8A0A0044647
:109F80008AEA030A80F800A091F8A1204078A77817
:109F900082EA0005657091F8A260E07886EA07031E
:109FA000A37091F8A32097B0059582EA0005E570AB
:109FB00091F8A4902679069389EA060984F804901A
:109FC00091F8A5706379079587EA0302627191F8A9
:109FD000A600A579E37980EA0506A67191F8A77035
:109FE0000C9287EA030B84F807B0227A91F8A880D4
:109FF000607A88EA020884F8088091F8A9700896C7
:10A000004740677291F8AA50A67AE07A85EA06037B
:10A01000A37291F8AB20267B82EA0005E57291F8E5
:10A02000ACC009938CEA060C84F80CC091F8ADE042
:10A03000637BA27B8EEA030E84F80DE00D9591F808
:10A04000AE50E07B5540A57391F8AF204B4B42409A
:10A05000E2739A4491F890009AF80B619944464053
:10A06000267091F8940099F80BA198448AEA0006AA
:10A07000267191F8980098F80B919C4489EA0006A3
:10A0800026729CF80BA191F89C009E448AEA000677
:10A090002673DF199EF80B8197F80BC191F8910098
:10A0A00091F89D6088EA00098CEA060060730C9FB5
:10A0B000DDF814A0DE1996F80B0191F89970DDF81F
:10A0C000208080EA0706667203EB0A0091F895602B
:10A0D00090F80B7184F8019087EA0600607103EB39
:10A0E0000800DDF818E090F80B91099803EB0E07D3
:10A0F00003EB000E9EF80BC191F8920091F89A6064
:10A1000097F80B718CEA000A77405D1991F89E6010
:10A1100084F802A091F8960095F80B81A772079F2A
:10A1200088EA000589EA0606A673A571DE1996F885
:10A130000B0191F89F5003EB0B0791F8936045409A
:10A1400097F80B019A1880EA06070D98E7701E1819
:10A1500096F80B7191F897004FF0090B87EA00060B
:10A16000E67191F89B3092F80B71E57387EA030072
:10A17000E0720D46CDF840B002E000BFF78901085B
:10A1800094F80090A77887EA0900FFF7E9FEFFF747
:10A19000E7FE94F80180E678824686EA0800FFF739
:10A1A000DFFEFFF7DDFE8AEA070380EA080227796F
:10A1B0007040A6798AEA09015FFA80F886EA07000A
:10A1C0005FFA82FB5FFA83FA5FFA81F903970296DE
:10A1D000FFF7C6FEFFF7C4FEE6796779014686EA17
:10A1E00007000491FFF7BCFEFFF7BAFE039B049A39
:10A1F00094F808C082EA0301CBB2029947404A4072
:10A20000A17A7040C6B2059381EA0C00D3B20291E4
:10A21000CDF804C006930796FFF7A2FEFFF7A0FE55
:10A22000637AE67A024686EA030003930492FFF714
:10A2300097FEFFF795FE049ADDF804C0039B82EABF
:10A240000C015FFA81FC80EA0301CBB20299099309
:10A250004A40D3B2CDF820C00A9394F80CC0A17B39
:10A260007040C6B281EA0C000291CDF804C00B9692
:10A27000FFF776FEFFF774FE637BE67B024686EA15
:10A28000030003930492FFF76BFEFFF769FEDDF80E
:10A2900004C0049A039B82EA0C015FFA81FC80EA05
:10A2A0000301CBB2029970404A40C6B288EA0A0163
:10A2B0008BEA09000D93D3B20E930291CDF830C012
:10A2C0000F9681EA0006FFF74BFE89EA000286EA54
:10A2D000020C5FFA8CFC8AEA0B0084F800C0CDF80F
:10A2E00004C0FFF73DFE8BEA000386EA030B0299E8
:10A2F0005FFA8BFC84F801C00846CDF844C0FFF734
:10A300002FFE8AEA000286EA020A5FFA8AFB88EADE
:10A31000090084F802B0CDF848B0FFF721FE88EAC2
:10A320000000DDF818900599079A4640FFB2F6B292
:10A3300082EA090887EA0100E670139688EA0006B7
:10A34000FFF70EFE059B584086EA0001CAB2484658
:10A35000227178401492FFF703FE474086EA070314
:10A36000D8B2159060714046FFF7FAFD89EA000106
:10A37000059B86EA01020798D7B25840A771069755
:10A38000FFF7EEFD0799089A48404640F6B20A9F4B
:10A390000596E67109980B9E50407E4086EA0007BC
:10A3A000FFF7DEFDDDF820A08AEA000387EA030C50
:10A3B0005FFA8CF884F8088009990A984840FFF7FA
:10A3C000CFFD099A504087EA000B5FFA8BF93046BF
:10A3D00084F80990FFF7C4FD0A9E524686EA0003FE
:10A3E00087EA03010B985FFA81FB504084F80AB0BA
:10A3F000FFF7B6FDDDF82CA00E998AEA00000C9E4E
:10A4000047400F9B0D98FFB24B407040E77283EAC4
:10A41000000A0293FFF7A4FD0C9A0D9B50408AEAB4
:10A4200000060E98F6B226735840FFF799FD0D9975
:10A43000029B81EA00028AEA0200C1B261731846F7
:10A440000391FFF78DFD0E9A0C9B50408AEA0001A4
:10A450000F98CAB2A27358400492FFF781FD0F997A
:10A46000514B48408AEA000C5FFA8CFADDF804C0D0
:10A4700084F80FA003EB0C0295F8800092F80B1102
:10A48000DDF850C081EA0002227003EB0C0195F860
:10A49000840091F80B219E1982EA000103EB080267
:10A4A000217195F8880092F80BC196F80B218CEA7F
:10A4B0000001217295F88C00039E82EA000121734D
:10A4C0009A1995F8811092F80B0103EB090680EABE
:10A4D000010295F88D0096F80B11DDF844C081EA71
:10A4E000000615996673581890F80B6195F8891055
:10A4F000DF1986EA0100607203EB0C0695F885000F
:10A5000096F80B116270129A81EA0006667199182A
:10A51000DDF818C095F88A6091F80B0103EB0C0286
:10A5200095F88E10704092F80B6103EB0B027140AE
:10A5300092F80BC195F882608CEA0602049EA27024
:10A540009A1992F80B6195F886205640A671A07270
:10A550001398A173191895F88F2091F80B61DDF805
:10A5600014C0724003EB0C0695F8831096F80B01AB
:10A5700053444840E07095F8871097F80B01484025
:10A58000E07195F88B0093F80B11E273109A81EA51
:10A590000003511E103D11F0FF00E37210907FF494
:10A5A000EFAD17B0BDE8F08FF789010838B5054C5D
:10A5B00005462046FFF762FC28462146BDE83840A4
:10A5C000FFF7D8BCCC16002008B5102103460022A6
:10A5D0000C20FFF789FB102814BF4FF0FF3000203C
:10A5E00008BD034610210C200022FFF7A9BB000084
:10A5F00030B585B0054601F0A3FE0190194CE36A21
:10A600004BB108F087FBE26A02600020E06208F0CC
:10A6100081FB018823E02846FFF70CFA10B14FF6C2
:10A62000FF711CE001F08CFE0290029A0198111A51
:10A630000391039B002B03DA0198029A11180391EE
:10A64000094B03981A689042E9D20649088E83B2F2
:10A65000002BD3D00A8E501E83B20B86002108B285
:10A6600005B030BDC017002070160020F7B50346B6
:10A6700014480D4686681946174602AC4FF0FF3263
:10A6800006F1090044F8042DFEF7BAFD2946FEF74D
:10A69000B7FD41F201053946FEF7B2FD0C22314605
:10A6A0002846FFF7F3F921462846FFF7DBF908F0C3
:10A6B00031FB0199016008460021FEF7FDFDBDF95F
:10A6C0000400FEBDC0170020F7B5054610484FF046
:10A6D000FF33876802AC294641F20B0607F10900F7
:10A6E00044F8043DFEF78CFD042239463046FFF75E
:10A6F000CDF921463046FFF7B5F908F00BFB01997B
:10A70000016028460121FEF7D7FD0198FEBD00BF7C
:10A71000C0170020F7B50C460746164608F0FAFAAF
:10A720004FF0FF33E62C036023D8144808218568D6
:10A7300005F10900FEF764FD2146FEF761FD0021E9
:10A74000A14203DA7A5C42540131F9E704F10802CC
:10A75000D2B2294641F21000FFF798F9694641F25A
:10A760001000FFF77FF908F0D5FA0099019B01600E
:10A77000336008F0CFFA008800B2FEBDC017002099
:10A7800037B5034613484FF0FF3284680D4604F195
:10A79000090019460192FEF733FD0821FEF730FD4E
:10A7A0000821FEF72DFD0023E95CC1540133082B7D
:10A7B000FAD11422214641F20700FFF767F901A9F7
:10A7C00041F20700FFF74EF908F0A4FA019A02607F
:10A7D00010463EBDC01700202DE9FF411D46314BFC
:10A7E0008646D3F808800F4608F1090071461646E0
:10A7F0000A9CFEF705FD1421FEF702FD1421FEF769
:10A80000FFFC1421FEF7FCFC1421FEF7F9FCD4F147
:10A81000010138BF0021FEF7F3FC0FB1396800E0F9
:10A820003946FEF7EDFC0EB1316800E03146FEF727
:10A83000E7FC0DB1296800E02946FEF7E1FC74B1A0
:10A84000216839B9636841F287329342DCBF41F233
:10A8500088336360FEF7D4FC6168FEF7D1FC2C22DC
:10A86000414641F20800FFF711F9694641F208003C
:10A87000FFF7F8F8009900290ADB0FB1019A3A6056
:10A880000EB1029B33600DB10398286088B205E0D9
:10A8900008F040FA009B03604FF6FF7000B204B06E
:10A8A000BDE8F081C01700202DE9FF419846194B03
:10A8B00086469E6815460F4606F1090071460B9CB8
:10A8C000FEF79EFC2946FEF79BFC4146FEF798FCEE
:10A8D000BDF830500C2231462846FFF7D7F82846FD
:10A8E00001A9FFF7BFF8029800280ADD0A99384647
:10A8F0006A46FFF7C1F8009904B121600029D8BF6A
:10A90000029108F007FA029A026010B204B0BDE8A2
:10A91000F08100BFC01700201FB5002400940194EF
:10A9200041F204040294FFF7BFFF04B010BD000021
:10A930002DE9F04F844689B000B2CDF808C00391EC
:10A9400015469B46139E149CFFF752FEDDF808C087
:10A95000002858D12E4B9A6B511C9963D3F808905C
:10A96000812C09F10A0307D0832C0AD105F1080ACA
:10A9700009F12208182704E009F11A0810270646F1
:10A98000129061461846FEF73BFC391FFEF738FC73
:10A990002946FEF735FC5946FEF732FC832C05D1DB
:10A9A0005146FEF72DFC0821FEF72AFC0021A942A2
:10A9B00005DA0398425C08F801200131F7E7002D21
:10A9C000A8BFA844832C0ED0129AB6B2009201966A
:10A9D000E0B249463A46ABB2FFF769F8832C0BD197
:10A9E00041F20F000AE00020B042EDDA12990B5C50
:10A9F00008F800300130F7E741F2030005A9FFF73E
:10AA000031F8BDF8180000B209B0BDE8F08F00BF02
:10AA1000C01700201FB500240094019481240294E3
:10AA2000FFF786FF04B010BD1FB5069C0094079C7D
:10AA3000019483240294FFF77BFF04B010BD000053
:10AA4000202A73B503460E46144625D8144A1946E3
:10AA5000956805F10900FEF7D3FB0821FEF7D0FB4E
:10AA60002146FEF7CDFB0022A24203DAB15C8154FD
:10AA70000132F9E704F10C03DAB2294641F2110080
:10AA8000FFF704F841F211000DF10701FEF7EAFFAC
:10AA90009DF9070083B201E04FF6FF7318B27CBD49
:10AAA000C0170020024B01225A805860FEF72ABDD1
:10AAB000C017002010B50A4CE16022616361029B5F
:10AAC0000399E361049A059B216262620021A362FB
:10AAD000A061012084F8400084F8411010BD00BF3F
