:020000040800F2
:1050000000500020919300085D8A00085F8A000824
:10501000698A0008738A00087D8A00080000000081
:10502000000000000000000000000000878A000867
:10503000898A0008000000008B8A00088D8A000819
:10504000E5930008E5930008E5930008B18C00089B
:10505000E5930008E5930008ED8A00080D8B000831
:105060002D8B0008618B0008818B0008E5930008F8
:10507000E5930008E5930008E5930008198D000802
:10508000E5930008E59300089D8A0008E593000871
:105090001D8D0008E5930008E5930008A18B00082A
:1050A000E5930008E5930008E5930008698C000883
:1050B000E5930008E5930008E5930008BD8A000821
:1050C000CD8A0008E5930008E5930008DD8A000812
:1050D000E5930008E5930008AD8A0008E593000811
:1050E000F18B0008D98C0008E5930008000000004F
:1050F00000000000000000000000000000000000B0
:0C51000000000000000000005FF808F153
:1051100081F0004102E000BF83F0004330B54FEA68
:1051200041044FEA430594EA050F08BF90EA020FD5
:105130001FBF54EA000C55EA020C7FEA645C7FEA68
:10514000655C00F0E2804FEA5454D4EB5555B8BF8B
:105150006D420CDD2C4480EA020281EA030382EAFC
:10516000000083EA010180EA020281EA0303362D8E
:1051700088BF30BD11F0004F4FEA01314FF4801C61
:105180004CEA113102D0404261EB410113F0004F73
:105190004FEA03334CEA133302D0524263EB43032A
:1051A00094EA050F00F0A780A4F10104D5F1200EC8
:1051B0000DDB02FA0EFC22FA05F2801841F1000123
:1051C00003FA0EF2801843FA05F359410EE0A5F1F7
:1051D00020050EF1200E012A03FA0EFC28BF4CF028
:1051E000020C43FA05F3C01851EBE37101F00045DE
:1051F00007D54FF0000EDCF1000C7EEB00006EEBEB
:105200000101B1F5801F1BD3B1F5001F0CD3490874
:105210005FEA30004FEA3C0C04F101044FEA4452CB
:1052200012F5800F80F09A80BCF1004F08BF5FEA52
:10523000500C50F1000041EB045141EA050130BD32
:105240005FEA4C0C404141EB010111F4801FA4F1D5
:105250000104E9D191F0000F04BF01460020B1FA2A
:1052600081F308BF2033A3F10B03B3F120020CDA62
:105270000C3208DD02F1140CC2F10C0201FA0CF040
:1052800021FA02F10CE002F11402D8BFC2F1200CA5
:1052900001FA02F120FA0CFCDCBF41EA0C0190405B
:1052A000E41AA2BF01EB0451294330BD6FEA0404A4
:1052B0001F3C1CDA0C340EDC04F11404C4F120028F
:1052C00020FA04F001FA02F340EA030021FA04F3A1
:1052D00045EA030130BDC4F10C04C4F1200220FAF8
:1052E00002F001FA04F340EA0300294630BD21FA36
:1052F00004F0294630BD94F0000F83F4801306BFFC
:1053000081F480110134013D4EE77FEA645C18BFEF
:105310007FEA655C29D094EA050F08BF90EA020F86
:1053200005D054EA000C04BF1946104630BD91EA7E
:10533000030F1EBF0021002030BD5FEA545C05D181
:105340004000494128BF41F0004130BD14F58004C0
:105350003CBF01F5801130BD01F0004545F0FE4134
:1053600041F470014FF0000030BD7FEA645C1ABF69
:10537000194610467FEA655C1CBF0B46024650EAA0
:10538000013406BF52EA033591EA030F41F40021CC
:1053900030BD00BF90F0000F04BF0021704730B552
:1053A0004FF4806404F132044FF000054FF0000127
:1053B00050E700BF90F0000F04BF0021704730B5E8
:1053C0004FF4806404F1320410F0004548BF4042BD
:1053D0004FF000013EE700BF42004FEAE2014FEA12
:1053E00031014FEA02701FBF12F07F4393F07F4FED
:1053F00081F06051704792F0000F14BF93F07F4F1F
:10540000704730B54FF4607401F0004521F0004161
:1054100020E700BF50EA010208BF704730B54FF0E7
:1054200000050AE050EA010208BF704730B511F0EC
:10543000004502D5404261EB41014FF4806404F124
:1054400032045FEA915C3FF4DCAE4FF003025FEAA6
:10545000DC0C18BF03325FEADC0C18BF033202EB2E
:10546000DC02C2F1200300FA03FC20FA02F001FA88
:1054700003FE40EA0E0021FA02F11444C1E600BF27
:1054800070B54FF0FF0C4CF4E06C1CEA11541DBFDA
:105490001CEA135594EA0C0F95EA0C0F00F0DEF8A5
:1054A0002C4481EA030621EA4C5123EA4C5350EA8A
:1054B000013518BF52EA033541F4801143F48013DB
:1054C00038D0A0FB02CE4FF00005E1FB02E506F06C
:1054D0000042E0FB03E54FF00006E1FB03569CF0C1
:1054E000000F18BF4EF0010EA4F1FF04B6F5007FC7
:1054F00064F5407404D25FEA4E0E6D4146EB060639
:1055000042EAC62141EA55514FEAC52040EA5E50C1
:105510004FEACE2EB4F1FD0C88BFBCF5E06F1ED86B
:10552000BEF1004F08BF5FEA500E50F1000041EBA2
:10553000045170BD06F0004646EA010140EA02004F
:1055400081EA0301B4EB5C04C2BFD4EB0C0541EA71
:10555000045170BD41F480114FF0000E013C00F386
:10556000AB8014F1360FDEBF002001F0004170BDAA
:10557000C4F10004203C35DA0C341BDC04F11404C3
:10558000C4F1200500FA05F320FA04F001FA05F24F
:1055900040EA020001F0004221F0004110EBD3701C
:1055A00021FA04F642EB06015EEA430E08BF20EA48
:1055B000D37070BDC4F10C04C4F1200500FA04F3EB
:1055C00020FA05F001FA04F240EA020001F000417D
:1055D00010EBD37041F100015EEA430E08BF20EAF0
:1055E000D37070BDC4F1200500FA05F24EEA020E38
:1055F00020FA04F301FA05F243EA020321FA04F067
:1056000001F0004121FA04F220EA020000EBD3701D
:105610005EEA430E08BF20EAD37070BD94F0000F1D
:105620000FD101F00046400041EB010111F4801F51
:1056300008BF013CF7D041EA060195F0000F18BF02
:10564000704703F00046520043EB030313F4801F3E
:1056500008BF013DF7D043EA0603704794EA0C0FF8
:105660000CEA135518BF95EA0C0F0CD050EA41060E
:1056700018BF52EA4306D1D181EA030101F000418B
:105680004FF0000070BD50EA410606BF10461946B3
:1056900052EA430619D094EA0C0F02D150EA0136BF
:1056A00013D195EA0C0F05D152EA03361CBF104600
:1056B00019460AD181EA030101F0004141F0FE419F
:1056C00041F470014FF0000070BD41F0FE4141F423
:1056D000780170BD70B54FF0FF0C4CF4E06C1CEA23
:1056E00011541DBF1CEA135594EA0C0F95EA0C0FD8
:1056F00000F0A7F8A4EB050481EA030E52EA033593
:105700004FEA013100F088804FEA03334FF08055B3
:1057100045EA131343EA12634FEA022245EA1115E0
:1057200045EA10654FEA00260EF000419D4208BF91
:10573000964244F1FD0404F5407402D25B084FEA3E
:105740003202B61A65EB03055B084FEA32024FF4EA
:1057500080104FF4002CB6EB020E75EB030E22BF47
:10576000B61A754640EA0C005B084FEA3202B6EB07
:10577000020E75EB030E22BFB61A754640EA5C00B6
:105780005B084FEA3202B6EB020E75EB030E22BF46
:10579000B61A754640EA9C005B084FEA3202B6EB47
:1057A000020E75EB030E22BFB61A754640EADC0006
:1057B00055EA060E18D04FEA051545EA16754FEA68
:1057C00006164FEAC30343EA52734FEAC2025FEA86
:1057D0001C1CC0D111F4801F0BD141EA00014FF015
:1057E00000004FF0004CB6E711F4801F04BF0143E6
:1057F0000020B4F1FD0C88BFBCF5E06F3FF6AFAE02
:10580000B5EB030C04BFB6EB020C5FEA500C50F191
:10581000000041EB045170BD0EF0004E4EEA113114
:1058200014EB5C04C2BFD4EB0C0541EA045170BD1B
:1058300041F480114FF0000E013C90E645EA060E5F
:105840008DE60CEA135594EA0C0F08BF95EA0C0F8D
:105850003FF43BAF94EA0C0F0AD150EA01347FF4D5
:1058600034AF95EA0C0F7FF425AF104619462CE7AC
:1058700095EA0C0F06D152EA03353FF4FDAE10460F
:10588000194622E750EA410618BF52EA43067FF460
:10589000C5AE50EA41047FF40DAF52EA43057FF4F0
:1058A000EBAE12E74FF0FF3C06E000BF4FF0010CFB
:1058B00002E000BF4FF0010C4DF804CD4FEA410C5F
:1058C0007FEA6C5C4FEA430C18BF7FEA6C5C1BD02C
:1058D00001B050EA410C0CBF52EA430C91EA030FAD
:1058E00002BF90EA020F0020704710F1000F91EA0A
:1058F000030F58BF994208BF90422CBFD8176FEAD8
:10590000E37040F0010070474FEA410C7FEA6C5CA5
:1059100002D150EA013C07D14FEA430C7FEA6C5CAC
:10592000D6D152EA033CD3D05DF8040B704700BFD8
:105930008446104662468C461946634600E000BF26
:1059400001B5FFF7B7FF002848BF10F1000F01BDF8
:105950004DF808EDFFF7F4FF0CBF012000205DF8C3
:1059600008FB00BF4DF808EDFFF7EAFF34BF012048
:1059700000205DF808FB00BF4DF808EDFFF7E0FFE1
:1059800094BF012000205DF808FB00BF4DF808ED32
:10599000FFF7CEFF94BF012000205DF808FB00BF99
:1059A0004DF808EDFFF7C4FF34BF012000205DF87B
:1059B00008FB00BF4FEA410212F5001215D211D5C3
:1059C0006FF47873B3EB625212D94FEAC12343F0FC
:1059D000004343EA505311F0004F23FA02F018BF7E
:1059E000404270474FF00000704750EA013005D147
:1059F00011F0004008BF6FF0004070474FF000000A
:105A0000704700BF4BB942B9002908BF002802D037
:105A10004FF0FF31084600F03BB882B0EC462DE96C
:105A2000005000F01DF8DDF804E002B00CBC704737
:105A30002DE9F0411646984604460D4600F02AF836
:105A400006FB01FCA6FB002300FB08C7FB18A21AFB
:105A500065EB0303069CC4E90023BDE8F08100BFA9
:105A60002DE9F041904606460F461D4600F070F9BC
:105A700000FB05F3A0FB084508FB0138069B4544E5
:105A8000341B67EB0505C3E90045BDE8F08100BFA5
:105A9000704700BF00292DE9F00F1D46C0F29D8020
:105AA0000024002DC0F2948080460F4694461E4686
:105AB000E3BB8A4255D9B2FA82F747B1C7F1200554
:105AC00020FA05F601FA07F1BA40B8403143170C45
:105AD000B1FBF7F61FFA82FC07FB16110CFB06F56B
:105AE000030C43EA01439D4208D9711E9B1880F0C4
:105AF00013819D4240F21081023E9B18591BB1FB5D
:105B0000F7F507FB15130CFB05FC80B240EA0341D7
:105B10008C4507D96B1E8A1880F00081944540F2AD
:105B2000FD80023D45EA0641002503E08B420CD989
:105B3000002529460A462B4614B1524263EB430323
:105B400010461946BDE8F00F7047B3FA83F5002DF3
:105B500040F087808B4201D38242EAD800250121A0
:105B6000E8E712B90126B6FBF2F2B2FA82F6002E8D
:105B700039D18E1A130C1FFA82FC0125B6FBF3F7FC
:105B800003FB17610CFB07F84FEA104949EA01468D
:105B9000B04506D9791EB61802D2B04500F2D380BE
:105BA0000F46C8EB0606B6FBF3F103FB11630CFBD3
:105BB00001FC80B240EA03439C4506D94E1E9A1868
:105BC00002D2944500F2C280314641EA0741B1E772
:105BD000E443524263EB430366E7404261EB410119
:105BE0004FF0FF345DE7B240C6F1200921FA09F712
:105BF00020FA09F901FA06F1130CB7FBF3F81FFAC2
:105C000082FC03FB18770CFB08F549EA01094FEA0F
:105C1000194141EA0747B040BD420AD9BF1808F10F
:105C2000FF3680F08E80BD4240F28B80A8F10208E2
:105C3000BF18791BB1FBF3F503FB15170CFB05F639
:105C40001FFA89F949EA07418E4206D96F1E891861
:105C500071D28E426FD9023D89188E1B45EA0845E4
:105C60008CE7C5F1200122FA01F306FA05F627FABE
:105C700001F207FA05F720FA01F11E434FEA16492F
:105C8000B2FBF9F81FFA86FA09FB18220AFB08FB97
:105C90000F433B0C43EA024293450CFA05FC08D93A
:105CA000921908F1FF314AD2934548D9A8F1020868
:105CB0009219CBEB0203B3FBF9F109FB11320AFB9A
:105CC00001FABFB247EA02439A4506D94A1E9B1918
:105CD00033D29A4531D902399B1941EA08410F0C58
:105CE0001FFA8CF808FB07F68AB24FEA1C4C08FB37
:105CF00002F80CFB02620CFB07FC02EB1842964216
:105D000088BF0CF5803CCAEB03030CEB124C6345D7
:105D10000ED305D000250DE70E46EFE61D4601E740
:105D200000FA05F01FFA88F808EB0245A842F1D204
:105D300001390025FEE63D468FE71146CDE788464E
:105D4000B7E7B04675E7023FB6182AE702393CE7E5
:105D50002DE9F007144605460E46002B3DD18A4238
:105D600049D9B2FA82F747B1C7F1200120FA01F20E
:105D700006FA07F6BC40BD401643220CB6FBF2F013
:105D8000A1B202FB106601FB00F32F0C47EA0646A6
:105D9000B34208D9471E361980F0FA80B34240F268
:105DA000F78002383619F61AB6FBF2F302FB1362DB
:105DB00001FB03F1ADB245EA0242914207D95E1EF2
:105DC000121980F0E780914240F2E480023B43EAFE
:105DD00000400021BDE8F00770478B4243D8B3FA7A
:105DE00083F4002C42D18B4202D3824200F2E18044
:105DF00000210120EEE712B90127B7FBF2F4B4FA53
:105E000084F2002A40F089800A1B230CA7B20121EA
:105E1000B2FBF3F603FB162207FB06F04FEA154C24
:105E20004CEA0242904207D9121906F1FF3C02D215
:105E3000904200F2D0806646121AB2FBF3F003FBE8
:105E4000102307FB00F7ADB245EA03439F4207D991
:105E5000421E1B1980F0A0809F4240F29D800238B4
:105E600040EA0640B6E700210846B3E7C4F1200641
:105E700022FA06F703FA04F321FA06F501FA04F10F
:105E800020FA06F63B434FEA134CB5FBFCF71FFA2A
:105E900083F80CFB175508FB07F946EA010A4FEA9D
:105EA0001A4141EA0545A94502FA04F204D97E1EC9
:105EB000ED18C0F081803746C9EB0501B1FBFCF657
:105EC0000CFB161508FB06F81FFA8AFA4AEA054188
:105ED000884503D9751EC91874D32E4646EA07466D
:105EE000370C1FFA82FC0CFB07F5120CB3B20CFB4B
:105EF00003FC02FB035302FB07F203EB1C439D422E
:105F000088BF02F58032C8EB010102EB13429142D7
:105F10004CD343D0304600215CE79440C2F12005C9
:105F200021FA05F620FA05F501FA02F1230CB6FB79
:105F3000F3FCA7B203FB1C6607FB0CF829430D0C0E
:105F400045EA0646B04500FA02F508D936190CF1C3
:105F5000FF303ED2B0453CD9ACF1020C3619C8EB4B
:105F60000602B2FBF3F003FB102607FB00F889B230
:105F700041EA0642904506D9461E121927D290459D
:105F800025D902381219C8EB020240EA0C413FE75A
:105F9000384608E733461AE7104661E700FA04F08E
:105FA0001FFA8CFC0CEB03439842B3D2701E002105
:105FB00010E7214620460DE7A9457FF67CAF023F5A
:105FC000ED1879E7884588D9023EC91886E730463A
:105FD000D9E78446C3E7023E12192DE7014B03605F
:105FE000704700BF9883010870B5012188B004464E
:105FF00001F08AFDA0F13005072D37D8032268464D
:10600000214601F0A9FD1C4904A801F003FD20462A
:1060100004A901F067FD064604A801F0B9FC1EB111
:10602000ADB22846002110E0144904A801F0F2FCAA
:10603000204604A901F056FD044604A801F0A8FC7E
:1060400074B10A35ADB22846314600F0BBFF684650
:1060500001F089FDC1B2284601F0DAF9012401E01E
:106060006FF00104684601F093FC01E04FF0FF344B
:10607000204608B070BD00BFD8E30108DAE301088C
:106080007FB50121054601F03FFDA0F13004072C4A
:1060900023D81549684601F0BDFC2846694601F041
:1060A00021FD0646684601F073FC6EB90F4968464B
:1060B00001F0B0FC2846694601F014FD054668462B
:1060C00001F066FC65B10A34A4B22046012100F05B
:1060D00079FF204601F004F904E04FF0FF3001E0C1
:1060E0006FF0010004B070BDD8E30108DAE30108E5
:1060F000F0B5012185B0044601F006FDA0F130069F
:10610000072E49D8684621460322072301F0FEFCEA
:106110006846264901F0BCFC0546684601F038FC9B
:106120007DB9684621460322062301F0EFFC68464C
:106130001F4901F0ADFC0746684601F029FC0FB984
:106140002DE001251B49684601F064FC20466946A4
:1061500001F0C8FC0746684601F01AFC1FB1B6B250
:106160003046002110E01449684601F053FC2046F7
:10617000694601F0B7FC0446684601F009FC8CB1A1
:106180000A36B6B23046394600F01CFF3046294682
:1061900000F09CFF012007E04FF0FF3004E06FF0BB
:1061A000010001E06FF0020005B0F0BDDCE3010882
:1061B000E1E30108D8E30108DAE301087FB5012132
:1061C000054601F0A1FCA0F13004072C23D81549A5
:1061D000684601F01FFC2846694601F083FC06462C
:1061E000684601F0D5FB6EB90F49684601F012FC14
:1061F0002846694601F076FC0546684601F0C8FB72
:1062000065B10A34A4B22046032100F0DBFE20462B
:1062100000F0A4FF04E04FF0FF3001E06FF0010058
:1062200004B070BDD8E30108DAE30108034B10B5F0
:106230000446036000F0F8FA204610BD9883010878
:1062400008B50948094900F0DDFB0948094900F093
:10625000D9FB0948094900F0D5FB09480949BDE8BF
:10626000084000F0CFBB00BFE5E30108BD610008B6
:10627000F1E30108F1600008FEE301088160000815
:1062800009E40108E95F00087047000013B5084CF5
:10629000002100910A460B46204601F071FA05499B
:1062A000054A204602B0BDE810400CF099BD00BF81
:1062B000700B0020DD5F0008E00C002010B50131FC
:1062C000002393420ED0040F092C01D8303400E093
:1062D000373401F8014C01330024000101F8024B6E
:1062E000DBB2EEE710BD00001F4B10B51A88032A81
:1062F00004D804200146188006F0C8FC4FF0006066
:106300004FF4A04106F010FC184801242146047007
:10631000174806F0D7FE05F0ADFC05F095F92146CB
:10632000402006F097FF6FF07F4005F0F9FAE72074
:1063300005F072FB0F490C7005F0CEF97D2006F0D8
:10634000ADFF18B10C4B1C7006F0BCFF40F6B83026
:1063500005F01AFA05F06CFF06F0E6F9074A08495D
:1063600001201070087010BD681C0020441C002023
:1063700000043000F81A002010260020081C00201D
:10638000FE1B0020304B10B51A88042A04D80521C2
:106390000420198006F07AFC2C48017811B12C48B1
:1063A00002F00CF9294C237853B127480288052ABA
:1063B00004D806210180042006F068FC02F0BCF934
:1063C000217861B1234C23784BB92348027832B14C
:1063D00022490C781CB9224B18780028E2D0214AB7
:1063E00011780029DED1204C2378002BDAD11C480B
:1063F0000278012A0FD01D4969B1134C2388062B5E
:1064000004D807210420218006F040FCFFF718FF84
:10641000134A0120107016490029C3D00A4C238862
:10642000072B04D808210420218006F02FFCFFF759
:106430002BFF20880828B5D8034A092104201180A1
:1064400006F024FCAEE700BF681C0020081C0020FA
:10645000A16C0008BD1B0020FE1B0020F61A0020C6
:10646000780B0020F71A0020102600204162000857
:1064700089620008524B70B51A6812B11868411E43
:106480001960504B1A783AB14F4A1078002829D039
:106490004E49002949D125E04D4C206810B12368B0
:1064A000591E0FE04B490B78E3B94B4A1078C8B935
:1064B0004A490B78B3B94A4D2A782AB1E72005F04A
:1064C00025FB142121600DE04648017800292FD1D9
:1064D000E72005F0CFFA44483D4B0178002935D03C
:1064E00032221A603F4B1A7832B1404D287818B9E1
:1064F0002EE041684B1C43603D490B68B3F57A7F41
:106500000FD300230B6006F03BFE3A484FF6FF71B5
:1065100002888A4253D001800420BDE8704006F012
:10652000B5BB0868421C0A6070BD00F019FCD9E7D1
:10653000314B1A78002ACBD04FF6FF7005F0F0F9F6
:10654000E72005F069FA01202870CBE76422C8E74C
:1065500021490B7893B1294847F22F52436893425F
:10656000C7D9BFF34F8F264C2648E56805F4E0668F
:1065700046EA0002E260BFF34F8FFEE7154E347823
:1065800034B9204605F0D6FB40F6B73290420DD81C
:10659000002005F0CFFB41F657318842ACD90020EE
:1065A00005F0D0FB184B01201870A5E7204605F038
:1065B000C9FB2A78002A9FD1012131709CE770BD68
:1065C00018260020241C0020140F0020616D0008F4
:1065D00014260020281B0020F71A0020F91A00209A
:1065E000F81A0020081C0020F51A0020BD1B00200E
:1065F0001C260020681C0020F61A0020780B0020C2
:1066000000ED00E00400FA05261B002008B5094B48
:10661000186005F0B7FD002005F0FCFD064805F008
:1066200037F805F0C5FD05F0E3FDBDE8084007F0CB
:1066300051BD00BFD4010020A0860100074B18689F
:10664000052808D106490A7A012A04D1887A0B7BE9
:10665000C11AC8B270470020704700BF6C1C0020F0
:10666000780B00200D4B10B51868052813D10C4C81
:10667000217A01290FD16289A389D01A012804D176
:1066800000210320217207F090FEA389E218591C13
:10669000907BA18110BD4FF0FF3010BD6C1C00201D
:1066A000780B002008B50C4B1968052912D10B4B4B
:1066B0001A6D991881F85400501CB0F5807F08BFFE
:1066C0000020186505F02EFC20B16420BDE80840CC
:1066D00004F0DEBF08BD00BF6C1C0020780B00205A
:1066E00070B5234A92F85431012B3FD0D2F85801AB
:1066F000B0F5807F02D10021C2F85811D2F858318C
:10670000126D1B48934203D1002180F8541170BDD3
:106710008CBFC3F58072C3EB0202154CC0F85C213C
:10672000D4F85C5199B2402D07D94033403DC4F8AC
:106730005831C4F85C51402606E0E8180023AEB298
:10674000C4F85801C4F85C310A4A01255018C02128
:10675000324684F8545107F09FFD2846314607F031
:10676000A5FE2846BDE8704007F00EBE70BD00BF14
:10677000780B0020CC0B0020094B10B593E81400D7
:106780000833186810180AD008220649FFF796FD4A
:10679000054920460422BDE81040FFF78FBD10BD1B
:1067A000E8F7FF1F820100209201002013B5084C7A
:1067B000002100910A460B46204600F0E1FF054902
:1067C000054A204602B0BDE810400CF009BB00BFEE
:1067D000D80C0020DD5F0008E00C002038B50D4625
:1067E0000446AC4203D254F8043B9847F9E738BD5D
:1067F00008B507480749FFF7F1FF07480749FFF7C2
:10680000EDFF07480749BDE80840FFF7E7BF00BFB5
:1068100048E9010848E9010848E901089CE901083C
:106820009CE901089CE901080CF04EBC08B5072062
:1068300006F0A4F8FEE70000074A08B51368074908
:1068400018188842106004D9082006F097F80CF058
:1068500001FB184608BD00BF0000002000480020D2
:106860004FF0FF3070470120704708B50C2006F04C
:1068700085F8FEE7014B1868704700BFE40C002064
:10688000064B0246582000FB013101F1080303CBFF
:106890001060516018689060704700BFE40C0020E1
:1068A000014BD3F864017047E40C0020064B02460C
:1068B000142000FB013101F5B67303CB1060516069
:1068C00018689060704700BFE40C00200E4B2DE963
:1068D000F041D3F8647180460024BC4211DA1425DB
:1068E0006543094E4146701900F5B6700C220DF053
:1068F000D9FD20B97519D5F86801BDE8F0810134DA
:10690000EBE70020BDE8F081E40C00202DE9F04722
:1069100088B0814668460D4601F07CF81E4B002485
:10692000D3F800A054452DDA55B3582666431A4FC4
:10693000494607F1040808EB060004300C220DF06C
:10694000B1FDE8B928460DF07DFD06F110014028A3
:1069500034BF0246402208EB010029460CF050FFEC
:10696000BE19012286F85820694604A8746801F00F
:1069700073F804A8A047044604A801F009F803E04E
:106980000134CFE74FF0FF34684601F001F82046AC
:1069900008B0BDE8F08700BFE40C002038B505461C
:1069A000064C28B105F05EF8012384F8303238BD7A
:1069B00005F006F884F8305238BD00BFE40C002022
:1069C000024B00221A6005F0CFBC00BF7C0B0020F8
:1069D000034A044800231370036005F0FDBC00BFA8
:1069E000F71A00207C0B0020044B054900200122EF
:1069F0001A7008604FF4C02005F090BCF71A002010
:106A00007C0B00202DE9F84F04468946002941D02F
:106A100000283FD0204B1D68042D3BD00027AF42FB
:106A20001E4E4FF058080FDA08FB07F856F808100A
:106A3000494507D106EB0802101D21460C220DF036
:106A400031FD38B30137EAE708FB05F8A6F1040A7F
:106A50000AEB080708F11000C7F804900021402253
:106A600030180DF053F806EB0801081D0C22002128
:106A70000DF04CF82068616807F1080203C2A368B2
:106A80000020013507F1040B87F8580013605437D4
:106A900046F8045CBDE8F88FE40C0020E80C002008
:106AA00073B5002B0CBF6523452306460D461446DF
:106AB000009331462A462346014807F0EFFE7CBD8D
:106AC000180F002010B5064C206803F0A9F82368C1
:106AD000013303D0411E4842484110BD012010BD82
:106AE00004000020F0B5274B0646187887B00F4603
:106AF000002843D124490A78002A3FD1FFF7E2FF5A
:106B0000044600283AD1214D8DF80C002B688DF8F1
:106B10000D008DF80E008DF80F0006A9580901EB45
:106B2000800203F01F01012000FA01F052F80C1C52
:106B30000494014342F80C1C04A841F288320592E7
:106B4000009003A9581C2246234603F02FFF00287B
:106B500016DD2B6806A95D0901EB850050F80C5C79
:106B600003F01F0245FA02F515F0010008D018469F
:106B700031463A46234603F0B9FF01E04FF0FF30BB
:106B800007B0F0BDBC1B0020BD1B0020040000208E
:106B900038B50B4B054618780C4668B909490A7890
:106BA00052B9FFF78FFF034630B9074829462246FE
:106BB000006804F019F838BD4FF0FF3038BD00BF51
:106BC000BC1B0020BD1B00200400002030B51E4867
:106BD000ADF57B7D07F0DAFC002832D11B4B1C4859
:106BE0001C4D05931C491D4A1D4B06900A951D48D6
:106BF0001D4D079108920B931C491D4A1D4B0C908B
:106C000010951D481D4D1E4C0E910F921D491E4A98
:106C100011931E4B1290159517A861AD1391149204
:106C20001693099404900EAC039505F01BFC2846BE
:106C300005F01EFC00940448154903AA05AB07F0B3
:106C4000ACFC0DF57B7D30BD180F0020916B00086A
:106C5000E56A0008C1690008E9690008D16900080F
:106C60009D690008897500080D69000875680008AD
:106C700081680008A1680008AD6800087DC40008AC
:106C8000A1C400086D6F0008CD68000891C4000819
:106C9000E8F7FF1F014808F0CCBB00BF180F002029
:106CA00030B5022011228DB0014603F0C9FD051E4A
:106CB00028DB154907A807F09CFD022316200024B5
:106CC000ADF80C308DF80E003321E0220123BB20FB
:106CD0008DF811408DF80F108DF810208DF81230BE
:106CE0008DF813000324102203A9009101920023C0
:106CF0001322284607A903F081FF013CF3D128465F
:106D000003F0CCFD0DB030BDE8F7FF1F10B5114CFE
:106D100086B0FFF75BFF204607F03BFC204608F0FB
:106D200019F80446FFF7BCFF03A803F061F99DF8CA
:106D30000D209DF80C300092082104A8064A0DF0A1
:106D400001FA064804A93C220123FFF7A9FE2046C8
:106D500006B010BD180F002015E401081BE401085F
:106D600038B5114CD4F8585B2DB1D4F8581B4B1ED4
:106D7000C4F8583B38BDD4F85C3B0C4A52F82300A9
:106D800004F0F6FDE72004F047FE094A6420D4F839
:106D90005C1BC4F8580B50684B1C8342C4F85C3B26
:106DA000A8BFC4F85C5B38BDE40C00204083010838
:106DB000040000207FB502200121062203F040FDDF
:106DC000041E23DB00200822022335218DF8020057
:106DD0004FF4FA50ADF800308DF803108DF8042010
:106DE0008DF805208DF806208DF8072001F0E6FAD1
:106DF000694606461022204603F0ACFD05463046A3
:106E000001F0DCFA204603F049FD01E04FF0FF35C8
:106E1000284604B070BD000010B5064C206800285C
:106E200005DB03F03BFD4FF0FF33236010BD002076
:106E300010BD00BF0400002030B5A7B0FFF7ECFF85
:106E400002200121062203F0FBFC334B00281860CE
:106E500052DB3248022216213324A0F8602B80F83E
:106E6000621B80F8634B05A805F0C8FA9DF8143042
:106E70000025009533B1012B17D0294B01A803F150
:106E8000100502E0069A009214E00246596818685C
:106E9000083303C2AB421046F7D101A906AC0FC9B3
:106EA00007C424F8023B1B0C23700A24009D0DB973
:106EB000013C24D1009808B91A490091009B174C55
:106EC000180A1D0E1A0C84F8660B4FF4FA5084F859
:106ED000673B84F8645B84F8652B01F06FFA0E4918
:106EE00005461022086804F5366103F033FD0446B8
:106EF000284601F063FA0CE04FF0FF3409E07E21F0
:106F000006A80DF05FFB6A4681B206A803F0ECFC10
:106F1000CCE7204627B030BD04000020E40C002060
:106F200036E4010804E5D0360F4B2DE9F041D3F8E3
:106F3000647180460024BC4211DA142565430A4E70
:106F40004146701900F5B6700C220DF0ABFA20B96D
:106F5000751995F87801BDE8F0810134EBE74FF041
:106F6000FF30BDE8F08100BFE40C002008B5FFF75A
:106F7000DBFF0138082803D8024B1918087F08BD29
:106F8000022008BD4083010837B50B4C002104F5F1
:106F900037650B4600910A46284600F0F1FB28466B
:106FA0000649074A0BF01CFF04F50D7003B0BDE85D
:106FB000304007F0DBBA00BFE40C0020DD5F0008C2
:106FC000E00C002014282DE9F34104460E4675D844
:106FD000FF2973D000F0A4FC28B10D2C6ED00F2C2B
:106FE0006CD00E2C6AD000F05FFB08B1012C65D983
:106FF00000F03EFF18B1A4F11203012B5ED9304D11
:1070000020012F582F492A188F42B2F8048001D14D
:10701000042003E02C4B9F4203D10820012106F0FD
:1070200025F9ADF80480062E44D8DFE806F00411F7
:10703000181F26313C00224A102302EB04140320BF
:107040000021A1738DF807308DF80600083431E077
:1070500004218DF8071005EB0414012229E04822D1
:107060008DF8072005EB0414022222E028208DF879
:10707000070005EB041403221BE0114B1822032127
:107080008DF807208DF8061003EB0414042210E09D
:107090000B481C2103238DF807108DF8063000EBF8
:1070A0000414052205E000208DF8070005EB041408
:1070B0000622A273384601A905F0A4FFBDE8FC81B1
:1070C0000C00002000080140000C0140142870B59D
:1070D00004460E463ED8204B03EB0010817B01296D
:1070E00038D0022936D0032934D0062932D0FF29DE
:1070F00030D000F015FC30B10D2C2BD00F2C29D046
:107100000E2C00D170BD00F0CFFA10B1012C00D8C8
:1071100070BD00F0ADFE20B1A4F11202012A00D82A
:1071200070BD0D4D05EB0413987B042803D1204658
:107130000021FFF747FF012E05D124012819295905
:1071400083880B6170BD2EB9240129192B598A88B7
:107150005A6170BD70BD00BF0C000020142838B506
:10716000044617D81D4B03EB0010817BFF2911D07B
:1071700004290FD005290DD000F0D2FB28B10D2C29
:1071800008D00F2C06D00E2C04D000F08DFA18B1C8
:10719000012C01D8002038BD00F06AFE18B1A4F11E
:1071A0001202012AF6D90D4D05EB0413987B06282F
:1071B00006D195F85011FF29ECD02046FFF702FFC9
:1071C00024012D19054BAA7BA988185912B905F07D
:1071D0006FFF38BD05F066FF38BD00BF0C00002012
:1071E000F0B54FF4004091B006F00CF801200146D4
:1071F00006F030F801214FF4C06006F037F833484C
:1072000005F068FD3248334B0A21002480220690A5
:1072100008914FF400754FF400664FF400572B4867
:1072200005A905930A920B950C9601250E974FF42C
:1072300060264FF40027079409940D940F9405F0ED
:10724000C1FD2548694600978DF804408DF805403A
:10725000029603948DF8105005F070FC1F486946A3
:1072600000978DF804408DF80540029603948DF840
:10727000105005F063FC1848294605F083FC1648B9
:1072800005F092FC144805F094FC0028FAD112484D
:1072900005F093FC104805F095FC0028FAD10F4842
:1072A000012105F06FFC0D4805F07EFC0B4805F050
:1072B00080FC0028FAD1094805F07FFC074805F05A
:1072C00081FC0028FAD111B0F0BD00BF08000240D7
:1072D000601800204C240140002401400028014097
:1072E000092838B5044601D80A34A4B200F018FBC6
:1072F00038B10D2C01D1002038BD0F2CFBD00E2C45
:10730000F9D000F0D1F900F0B3FD18B1A4F11203E7
:10731000012BF0D9142CEED8384D05EB04108279EE
:10732000FF2AE8D095F85211914206D0837B0621BE
:10733000204685F85031FFF745FE95F85351012D51
:1073400005D1FFF74DFF2D4A002082F853012B4D48
:1073500005EB0414A17995F852318B420FD02848DF
:10736000012295F8513105F03AFCA1792548012216
:1073700095F8513105F033FCA17985F852110021BF
:10738000214A002042F8210001310A29F8D11F4882
:1073900005F04BFD1B48012105F06EFC1B48012147
:1073A00005F030FD1648012105F0F5FB14480121D8
:1073B00005F00CFC022005F03BFD0028FAD002206D
:1073C00005F044FD0E48002105F0E5FB0F480021C3
:1073D00005F018FD00231A460B4951F8230051F817
:1073E0002310013389B201EB10400A2B0244F3D180
:1073F0001421B2FBF1F080B238BD00BF0C000020B8
:1074000000240140002801406018002008000240CC
:107410002DE9F041142888B004460D4600F2A780FB
:10742000544B03EB00108168002900F0A08000F0AD
:1074300077FA40B10D2C00F09A800F2C00F0978065
:107440000E2C00F0948000F02FF910B1012C40F2C6
:107450008E8000F00DFD20B1A4F11202012A40F24D
:107460008680444B03EB0410817B09B104297ED153
:10747000414E424A37684BF680316943B7FBF2F31D
:10748000581EFF2586B2012091FBF5F7014605F055
:10749000EDFE04212046FFF795FD364ABFB202EB10
:1074A00004139968B1F1804F02D10120014608E030
:1074B000334D0220A94203D03248814203D1042037
:1074C000012105F0DFFE2B4B4BF67F3203EB041559
:1074D000ADF80460A868002601A9ADF80A60ADF80F
:1074E0000660ADF8082005F0C1FFADF81860AE8960
:1074F0006021012005F10808ADF81010ADF8120068
:10750000ADF8167046B9A86804A905F0F9FFA86897
:10751000082106F035F91FE0042E08D1A86804A957
:1075200006F032F8A868082106F032F914E0082EB7
:1075300008D1A86804A906F06BF8A868314606F0DF
:1075400031F909E00C2E07D1A86804A906F0A2F8C9
:10755000A868082106F02EF9064A012102EB04145E
:10756000A06806F001F9A068012106F0DAF808B079
:10757000BDE8F0810C000020C802002000366E013A
:10758000000400400008004004F0C4BF13B5084CDC
:10759000002100910A460B46204600F0F1F805490B
:1075A000054A204602B0BDE810400BF019BC00BFF0
:1075B00088180020DD5F0008E00C0020024B1878DE
:1075C0005978401A704700BF90180020064B5A782F
:1075D0001978914204D99818013280785A7070470E
:1075E0004FF0FF30704700BF90180020054B5A78CD
:1075F0001978914202D99818807870474FF0FF307F
:10760000704700BF9018002070470000014B0360D6
:10761000704700BFB0830108034B10B504460360F8
:10762000FFF702F9204610BDB0830108F8B5094BF9
:10763000054693F82200164650B10C468F18BC42FE
:1076400006D0296828468A6814F8011B9047F6E797
:107650003046F8BD9018002010B50C4B012293F86D
:1076600022408CB193F823401F2C02D942600020A5
:1076700010BD93F824001C1884F82510411CC8B2D2
:1076800083F8240083F82300104610BD90180020D2
:1076900000224260024A4FF47A71816002607047B2
:1076A0007083010870477047014B93F85900704789
:1076B0009018002073B50E4C002104F164050D4EA6
:1076C0000B4600910A46284600F05AF86C343246C0
:1076D000094928460BF084FB2046FFF7D9FF0749EC
:1076E0002046324602B0BDE870400BF079BB00BFC7
:1076F00090180020E00C0020DD5F00080D760008E7
:1077000008B5034B53F8200000B1804708BD00BF07
:107710000C19002013B5084C002100910A460B46B5
:10772000204600F02DF80549054A204602B0BDE884
:1077300010400BF055BB00BF4C190020DD5F000866
:10774000E00C00202DE9F041002407460E462546B6
:107750003B1919790A22304600F0AFF82E218046F5
:10776000304600F078F801344044032C0544EFD152
:107770003046F9790A2200F0A0F82818BDE8F08117
:1077800030B58371044D9DF80C30044605600171DD
:107790004271C37130BD00BF9883010805480021C4
:1077A000054B017141718171C171044A0449036043
:1077B0000BF016BB5419002098830108E00C002040
:1077C000DD5F000813B5084C002100910A460B4606
:1077D0002046FFF7D5FF0549054A204602B0BDE81F
:1077E00010400BF0FDBA00BF5C190020DD5F0008FF
:1077F000E00C0020014B0360704700BFB08301081C
:10780000F8B506460C468F180025BC4207D03368F1
:1078100030469A6814F8011B90472D18F5E7284662
:10782000F8BD0000034B10B504460360FEF7FCFFF3
:10783000204610BDB083010838B505460C46084601
:1078400041B10CF0FFFD2B680246DB68284621465B
:10785000984738BD38BD08B503689A68904708BD99
:1078600070B500238AB08DF82430012A98BF0A220F
:107870000DF12303B1FBF2F505FB1211CCB2092C7B
:107880001E4601D8303400E03734E4B203F8014931
:107890002946002DEED13146FFF7CEFF0AB070BD6C
:1078A00010B5044622B90268C9B29268904710BD6B
:1078B000D2B2BDE81040FFF7D3BFFFF7F1BF000021
:1078C00013B5084C002100910A460B462046FFF7ED
:1078D00057FF0549054A204602B0BDE810400BF0AD
:1078E0007FBA00BF6C190020DD5F0008E00C0020AB
:1078F00013B5084C002100910A460B462046FFF7BD
:107900003FFF0549054A204602B0BDE810400BF094
:1079100067BA00BF74190020DD5F0008E00C00208A
:10792000014B587D704700BF7C1900207047000054
:1079300013B5084C002100910A460B462046FFF77C
:107940001FFF0549054A204602B0BDE810400BF074
:1079500047BA00BF94190020DD5F0008E00C00204A
:1079600013B5084C002100910A460B462046FFF74C
:1079700007FF0549054A204602B0BDE810400BF05C
:107980002FBA00BFA0190020DD5F0008E00C002026
:1079900010B5044600680BF097FB204610BD10B5EB
:1079A0000446006808B10BF08FFB00232360A3603E
:1079B000636010BD38B504460D46006801310CF017
:1079C00063F910B184E82100012038BD036810B5C7
:1079D000044613B14068884207D22046FFF7EAFF09
:1079E00020B1A16809B922681170012010BD70B5DD
:1079F0000E46114604461546FFF7E8FF18B9204623
:107A0000FFF7CDFF04E0A560206831460CF0BCFC18
:107A1000204670BD38B50023044603604360836090
:107A200003730D4639B108460CF00CFD2946024699
:107A30002046FFF7DCFF204638BD884210B50B46D4
:107A4000044607D0096819B19A68FFF7D0FF01E032
:107A5000FFF7A5FF204610BD002310B504460360C4
:107A6000436083600373FFF7E8FF204610BD38B51D
:107A700005460C4641B108460CF0E4FC214602469E
:107A80002846FFF7B4FF01E0FFF789FF284638BD1D
:107A9000826808B50B4612B919B9012008BD11B9A1
:107AA0000368187802E000680CF080FBD0F1010058
:107AB00038BF002008BD10B58B688468E41AA24264
:107AC0000CD8006868B1096851B180181A460CF0EA
:107AD000E9FCD0F1010038BF002010BD002010BD2E
:107AE000084610BD82688B689A4202D30022FFF7D5
:107AF000E2BF002070478368994203D2006810B14A
:107B0000405C704700207047FFF7F5BF9A422DE9AF
:107B1000F04107460D4614461E4601D93446164626
:107B200038460C49FFF776FFA86884420FD82968C9
:107B3000864228BF0646002211F806808A552B6827
:107B400038461919FFF793FF286800F80680384671
:107B5000BDE8F08100E6010810B58B680446FFF728
:107B6000D5FF204610BD006808B10BF07BB9704707
:107B700013B5084C002100910A460B462046FFF73A
:107B8000FFFD0549054A204602B0BDE810400BF054
:107B900027B900BFA8190020DD5F0008E00C002015
:107BA00013B5084C002100910A460B462046FFF70A
:107BB000E7FD0549054A204602B0BDE810400BF03C
:107BC0000FB900BFB0190020DD5F0008E00C0020F5
:107BD00038B51A4C94F92C30002B2DD094F82D0088
:107BE000002829D005F096FB94F82C2094F82D500D
:107BF00051B2002995FBF1F306DD012B0BDC511E80
:107C000084F82C10002407E0591C04DB013284F8AE
:107C10002C20022400E00124084B041993F82D20A5
:107C2000511E83F82D1005F0A9FB204605F086FBB8
:107C3000BDE8384005F0A2BB38BD00BFB819002030
:107C400013B5084C002100910A460B462046FFF769
:107C500097FD0549054A204602B0BDE810400BF0EB
:107C6000BFB800BFE8190020DD5F0008E00C00206D
:107C700013B5084C002100910A460B462046FFF739
:107C80007FFD0549054A204602B0BDE810400BF0D3
:107C9000A7B800BFF4190020DD5F0008E00C002049
:107CA000014B0360704700BFB08301080369186C83
:107CB000596C421A02F03F0070470369196C5A6C04
:107CC000914202D0586C185C70474FF0FF307047FB
:107CD0000369196C5A6C914207D0586C596C185C46
:107CE0004A1C02F03F01596470474FF0FF30704763
:107CF00070B504460E462C4840F2277105F09BFDF6
:107D000020B963691A6C586C824211D161690D6C9B
:107D10006B1C03F03F056069426C95420FD0EFF396
:107D20001081CA0732D5036C426C934207D12DE013
:107D30001D4840F22771012205F055FDE6E71A487B
:107D400040F2277105F077FD0028E4D01648802125
:107D500005F06BFD0028DED00022134840F22771A9
:107D600005F041FD63695A6C501C995C58640E48DB
:107D700005F053FD61690C484B6C03F03F024A6407
:107D800040F22771012205F02EFDC4E7016C465434
:107D9000606940F2277105640125257602482A466C
:107DA00005F021FD284670BD00440040436910B530
:107DB0000446196C5A6C9142FBD1207E10B9002305
:107DC000237610BD0348402105F02FFD0028F4D094
:107DD000F5E700BF00440040034B10B504460360C4
:107DE000FEF722FD204610BDB083010810B51E48E5
:107DF00040F2255105F01FFD78B11B4805F011FD3B
:107E00001A4BC0B25A6D511C01F03F02996D8A4263
:107E100003D0596D5A6559180875134840F22771F7
:107E200005F009FDF8B1114CD4F89C00D4F8A0304D
:107E3000984207D10C4840F227710022BDE810405B
:107E400005F0D1BCD4F8A0002218431C92F85C10B5
:107E50000548C4F8A03005F0E0FCD4F8A01001F00B
:107E60003F00C4F8A00010BD00440040FC190020F1
:107E7000014B187C704700BFFC190020F7B5164C69
:107E8000002504F1A406154F2B4629462A460095E5
:107E90003046FFF775FC3A46304611490AF0A0FF1C
:107EA00004F114010F4804F15C02C4F8BC100E493F
:107EB0004FF47A73C4F8AC00C4F8C02004F1AC00ED
:107EC0003A46C4F8B050C4F8B43084F8C45003B093
:107ED000BDE8F0400AF084BFFC190020E00C00204F
:107EE000DD5F0008C8830108A17C000870474FF0DF
:107EF000FF307047014B0360704700BFB08301083B
:107F0000034B10B504460360FEF78EFC204610BDFF
:107F1000B0830108084608B5FEF7C4FB012008BD80
:107F200008B5FEF78BFB08BDFEF79CBB0022426044
:107F3000024A4FF47A71816002607047F083010851
:107F40000846FEF763BB000037B50D4C00210D4D10
:107F50000B4600910A462046FFF712FC2A460A49C2
:107F6000204608340AF03CFF2046FFF7DFFF0749B0
:107F700020462A4603B0BDE830400AF031BF00BFBA
:107F8000C41A0020E00C0020DD5F0008F57E000828
:107F90007047000037B50B4C00210B4D0B4600918C
:107FA0000A462046FFF7ECFB2A46204607490AF01E
:107FB00017FF074904F108002A4603B0BDE8304026
:107FC0000AF00EBFDC1A0020E00C0020DD5F000884
:107FD000917F000800230360184670470023036068
:107FE0001846704700230360184670472DE9F0419A
:107FF00091F8008086B00C46B8F1000F14BF90468F
:108000004FF0000806460CF01DFA074620460CF01B
:1080100019FA012518231E210222019302910392CD
:108020000590002300950494404631463A4602F0FC
:1080300017FF034B18705D7006B0BDE8F08100BFFC
:10804000E81A0020F8B5394C0346A57808462E46B4
:10805000002D69D148F21007BB4246D00BDC48F234
:10806000010293421FD0501C834225D0992B5BD133
:108070000121A174F8BD48F28007BB420ED0B3F5D0
:10808000084F43D048F2400083424DD104F1140020
:108090000BF0B6FBA16A4B1CA362F8BD0121E17095
:1080A00021716571F8BD0123A371FFF76DFA00F529
:1080B000EA423032A260F8BDA37963B1FFF764FAF7
:1080C00000F5EA4230324FF47F40A26003F028FC12
:1080D000E72003F0A1FC1548002181710173417371
:1080E0008173C17301744174F8BD0B7D63B90122C2
:1080F0004FF47F402273A360227403F011FCE72049
:10810000BDE8F84003F088BC2573F8BD294601F0AE
:1081100080F90121064601F0C3F9054A106886423C
:1081200002D1E573A5736573F8BD00BFE81A00209E
:108130000400002070B51B4B8CB006460D46102085
:108140000221002201F0F2FE002401AB325B42F07A
:108150000101100A2A5B03F8041C0234110A03F817
:10816000030C03F8022C03F8011C0433182CEDD186
:10817000214604226B46102001F0D8FE06AB2146B2
:108180001C22102001F0D2FE0021302268460BF0A4
:10819000BDFC1020014634226B4601F0C7FEC0B280
:1081A0000CB070BD4FE4010810B50A4C04F12C006E
:1081B00001F01EFF60B994F82C30012B09D194F81E
:1081C0002D00B0F11C0CDCF1000151EB0C0010BDD6
:1081D000002010BDE81A00201FB50A2200234FF42A
:1081E00061504FF461618DE80F00064B44F6206248
:1081F0001A60684601A902AA03AB01F015FE05B09A
:1082000000BD00BF201C00201FB500230093019378
:108210000293039301A8694602AA03AB01F0CCFDC7
:1082200005B000BD70B500210A4C0E2001F0FAFE29
:10823000102510210E2001F0F5FE00212A462046CF
:108240000BF064FC0E20294600222346BDE8704056
:1082500001F06CBE161B002030B5544D00249FB0B9
:10826000FF20EC702C716C70AC712C73AC746C735F
:10827000AC73EC732C7403F053FBE72003F0CCFBDE
:1082800021462246204602F0C7FD2B46012103F875
:108290002F4F0E200A4601F049FE444B98790128E1
:1082A00005D1642003F0ECF901F020FAF5E7102184
:1082B0000C2001F0B7FE3E4802F07EFA3D4802F085
:1082C0001FFF012002F000FF68463B4900F026FF37
:1082D000364DE9786A780A4318D195F83E1000299E
:1082E00059D0FF2002F0A4FE002854D11A24013CEA
:1082F00006D0E72003F0BEFB322003F0C1F9F6E719
:10830000FFF790FF294A82F83E40E1E7E72003F0BB
:1083100083FB0E200121002205F12E0301F0DAFD7E
:10832000EC7814B102F00AFF2870204C0121237868
:108330000022581C234603F82E0F0E2001F0F6FDF4
:1083400000200146012202F067FD0125234603F8C3
:108350002F5F29462A460E2001F0E8FD02F0E2FCDC
:10836000642003F08DF9002002F0A6FC84F83F5051
:108370004FF47F400025257403F0D2FAE72003F084
:108380004BFB48F2042002F06DFEFFF725FF84F856
:1083900040501FB030BDE72003F06CFBFA2003F023
:1083A0006FF9684600F02CFF92E700BFE81A002042
:1083B0001084010860010020ED7F0008024B1A685C
:1083C00018601046704700BF201C00201FB50446EF
:1083D00003F00AFE03F04AFD0E4B0F480F49104A06
:1083E000009301900F4B029103920F490F4A1048DE
:1083F00002F04AFC642003F043F9204602F05CFCE2
:108400000C4802F07DFE48F2042004B0BDE81040A4
:1084100002F028BE25BF000839BF0008A5BF00082C
:10842000CDBF0008E57F0008D57F0008DD7F00088C
:10843000458000086001002038B5584D01244FF0F8
:10844000FF10AC7003F06CFAE72003F0E5FA0220AD
:10845000FFF7BCFF00200146024602F0DDFCFF20D2
:1084600002F0E6FD05F1C10001F09BFD4C4B062832
:1084700014BFFF200020D8701C71494D474A29794C
:1084800019B192F8C740022C6CD992F8C700454B3D
:10849000454D434A0121032808BF1D461171404C38
:1084A000207930B1414800F11801FFF743FE2071F7
:1084B000F5E7012323713A490A7982B100240C714E
:1084C00020212B190B20224601F030FD344B2034A3
:1084D0001979802C40EA01001871F1D1EBE791F98C
:1084E000034001250D7124B12C48012480F8C840B7
:1084F0000FE02A4890F8C13023F0010180F8C11044
:10850000274D2A79002AEFD0294801F041FD287132
:10851000F6E7224D95F8C83043B1214C0420E1889C
:10852000244A01F047FD85F8C800F2E7012185F8EB
:10853000C9101A4D95F8C94044B1194A052011894E
:108540001D4A01F037FD85F8C900F2E72046FFF724
:108550003DFFFFF729FE10B1AC70204638BD4FF04B
:10856000FF3038BD00242C710F4D22462B190B20F3
:10857000082101F0AFFC0A4B08341A7908280CBF17
:1085800010464FF0FF30802C1871EDD1034991F85F
:10859000C740651C81F8C7506FE700BFE81A00208C
:1085A0006001002021840108291B0020A284010809
:1085B000A91B0020D28401082AA4010870B5564CDA
:1085C000C4F8CC000020FFF701FF0123002084F84D
:1085D0003F302074FFF7E8FD064618BB4F4D298851
:1085E0002C4605291ED0FFF727FF28B94AF6CD36BD
:1085F0002E8003F045FEEDE72588052D88BF2680F7
:108600002688701C208003F03BFEBFF34F8F444C44
:10861000444BE16801F4E06242EA0305E560BFF320
:108620004F8FFEE73C4B93F8C120082A0BD193F8FB
:10863000C20088B993F8C31028290DD1374B188888
:10864000012829D155E03AB993F8C240192C03D139
:1086500093F8C330942BF0E7334A2F4B117A90787C
:108660000824527A83F8C14083F8C51000242F49AA
:1086700083F8C24083F8C4002824012083F8C34053
:1086800083F8C6200871294C2279002AD6D02848C0
:1086900001F07EFC2071F6E70E2010210022254B10
:1086A00001F018FC102824D11B4C6279AAB994F867
:1086B0002E301BB9012084F840000EE094F82F0002
:1086C00058B90146012202F0A7FB0121234603F815
:1086D0002F1F0E200A4601F029FC0F494A799AB94A
:1086E00091F8403083B1FFF78FFDBDE87040FFF790
:1086F00073BDFF20094C02F09BFCFFF793FD0021A6
:10870000218003F0BDFDCFE74FF47F4003F008F96F
:10871000E72003F081F9E6E7E81A0020B60200201E
:1087200000ED00E00400FA05E8F7FF1F60010020FB
:10873000A91B0020161B00202DE9F3419C4C04F0DE
:108740001FFD0023C4F8D03094F8D40048B994F841
:10875000D51031B9A26882B3FEF716FFA468A04213
:108760002BD3934C94F83F00002841D00025A571ED
:10877000A5602573C4F8D85084F8D450012684F835
:108780003F506573A573E573657402F0CBFA6FF023
:108790007F40267403F0C4F8E72003F03DF964201D
:1087A00002F06EFF94F8401011B3284602F084FAEC
:1087B00084F83F60FFF750FD1AE07D4C94F83F309D
:1087C000B3B9607928B9FEF7DFFE00F5EA41303130
:1087D000A160002002F070FA012200234FF47F40D4
:1087E00084F83F20237403F09BF8E72003F014F98A
:1087F0006F4C94F8402012B1FFF72EFD04E063792E
:1088000013B1267B35460EB369480179012914D18D
:10881000047B012C11D18279012A0ED103246548F1
:108820000BF010FE634982B2012002F0F3F9631EDF
:1088300013F0FF04F3D15E4804715D4C217B2346A5
:10884000E1B194F8D520002A76D017E031463246BF
:108850003046A66002F0E0FA57480BF0F3FD574FA0
:10886000804638460BF0EEFD00970190791F0320FB
:108870004246334602F06CFA6671C5E793F8DF00B2
:1088800020B14F4800213A220BF040F9484B93F8B1
:10889000162132B9587B00285AD19B7B002B57D127
:1088A000BEE01C7B04B393F8D500E8B9597B0029DE
:1088B0005FD019E0234603F8312F0E200121032257
:1088C00001F034FB3A4C00254FF6FF70257403F09D
:1088D00027F8E72003F0A0F8FEF7AEFAA84273DB12
:1088E000C4F8D85001236373314C617B002900F038
:1088F0009780A27BBAB9FEF709FA002811D002DAF4
:108900004FF47F0007E0012801D12E4803E0022840
:1089100003D14FF0FF1003F003F8E72003F07CF8D9
:1089200001E00120A073FEF7B5F9002878D1204BB3
:10893000D8739873587373E094F8DF100029A5D1A9
:10894000642002F09DFE04F1DC0001F0B1FA9DE725
:10895000FEF762FA164900224FF47F40CA738A7309
:108960004A7302F0DDFFE72002B0BDE8F04103F0FA
:1089700053B85D7C002DA5D04FF47F0002F0D0FFEE
:108980000B4C627C002A95D0E72003F045F84FF4A9
:10899000FA7002F075FEE72003F04CF84FF4FA701D
:1089A00002F06EFE657C691ECAB26274E8E700BF21
:1089B000E81A00206A0100207101002076010020E1
:1089C000C41B00200060FF0094F8D43043BBD4F8EF
:1089D000D800411C0229C4F8D81002D1012284F821
:1089E000D420FEF7E7F900280F4C0BDAD4F8D800B2
:1089F000411C0229C4F8D81002D1012284F8D420E5
:108A0000022300E003236374074C0121607C2346AA
:108A100003F8310F03220E2001F088FA002362E7E9
:108A200002B0BDE8F08100BFE81A002013B5084C81
:108A3000002100910A460B462046FEF7A1FE05499B
:108A4000054A204602B0BDE810400AF0C9B900BF8F
:108A5000001C0020DD5F0008E00C0020704708B516
:108A6000012003F08BFFFEE708B5032003F086FF2B
:108A7000FEE708B5042003F081FFFEE708B50520F6
:108A800003F07CFFFEE770477047704708B503F0BE
:108A900039FDBDE80840FDF7EDBC000008B5024B0C
:108AA0000BB1AFF3008008BD0000000008B5024B19
:108AB0000BB1FFF79BF908BDED7D000808B5024B2F
:108AC0000BB1FEF7EFFD08BDA576000808B5024B17
:108AD0000BB1FEF7E8FD08BDA776000808B5024B0C
:108AE0000BB1FEF723FF08BD2D79000808B5012062
:108AF00004F0F8F938B1012004F004FA024B13B184
:108B00000020FEF7FDFD08BD0177000808B5022032
:108B100004F0E8F938B1022004F0F4F9024B13B183
:108B20000120FEF7EDFD08BD0177000808B504201F
:108B300004F0D8F978B1042004F0E4F90020064BE1
:108B40000146188003F024F8044810210122BDE8F2
:108B5000084004F000BE08BD401C0020002C01406D
:108B600008B5082004F0BEF938B1082004F0CAF9AD
:108B7000024B13B10320FEF7C3FD08BD01770008C7
:108B800008B5102004F0AEF938B1102004F0BAF99D
:108B9000024B13B10420FEF7B3FD08BD01770008B6
:108BA00008B5202004F09EF938B1202004F0AAF97D
:108BB0000E4B13B10520FEF7A3FD402004F092F9FF
:108BC00038B1402004F09EF9084810B10620FEF7A5
:108BD00097FD802004F086F938B1802004F092F9E6
:108BE000024911B10720FEF78BFD08BD017700088F
:108BF00008B54FF4005004F075F940B14FF400503F
:108C000004F080F9174B13B10D20FEF779FD4FF4F6
:108C1000804004F067F940B14FF4804004F072F9ED
:108C2000104810B10E20FEF76BFD4FF4004004F029
:108C300059F940B14FF4004004F064F9094911B109
:108C40000F20FEF75DFD4FF4006004F04BF938B1E2
:108C50004FF4006004F056F9BDE8084002F09ABCF9
:108C600008BD00BF0177000808B50F48102104F0C7
:108C7000ABFDC0B10C48102104F0B1FD002003F0A1
:108C800049F828B9094B1A880A3290B2188008BDF1
:108C900010210548002204F05EFD00200121BDE8FE
:108CA000084002F075BF08BD002C0140401C0020A8
:108CB00008B5012004F07EFB50B1012004F08CFBCC
:108CC000044B0BB1FEF784FFBDE8084004F056BB2F
:108CD00008BD00BFD17B000808B5022004F06AFB84
:108CE000B0B10C4B00224FF400301A7004F00AF9B6
:108CF000012004F06FFA10B1012004F075FA04F0BD
:108D00003DFB022004F068FBBDE8084004F036BBE0
:108D100008BD00BFBD1B002002F0CCBB00F062B854
:108D200038B514490B78012B23D1134A13680BB9BA
:108D30000B7038BD114C402B206881B205D94030F2
:108D4000403B20601360402504E09DB2C318002022
:108D5000236010600A4A5018C0212A4605F09CFA88
:108D60000120294605F0A2FB0120BDE8384005F0AE
:108D70000BBB38BDCC0C0020D40C0020D00C002044
:108D8000CC0B0020094908B50020094B01220880BE
:108D900003201A7005F0B6FB064B02461880064801
:108DA0004FF48871BDE8084005F08DBA840B0020AF
:108DB000800B0020820B0020860B0020074B1868D8
:108DC000052809D1064B1A68511C052A196003D1E0
:108DD00000201860FDF784BC704700BF6C1C0020A9
:108DE0000C1C00203A4A38B511683A4B88B23A4D0B
:108DF00018801C882988214001F4007084B244B195
:108E00004FF6FF5515609A78511CC8B29870FFF75D
:108E1000D5FF304C304B25881A882A4002F4004197
:108E200088B225461C4608B105F070F92A882388C7
:108E3000134003F4806188B230B1254B27494FF6C7
:108E4000FF321A6048688047224A234B11881B88EA
:108E5000194001F4005081B219B11D494DF6FF705F
:108E600008601288134003F4805398B230B1184A56
:108E70004EF6FF711160002003F03CFD154B1649C2
:108E800018880A88024002F4006398B260B114495D
:108E90000A7812B103F00EFD02E0022003F02AFD71
:108EA0000B4B4FF2FF7018600A490B480A88038881
:108EB000134003F480718AB242B1054B4FF6FF6054
:108EC00018600720BDE8384003F014BD38BD00BF6E
:108ED000445C0040101C00205C2600200C02002096
:108EE000DC020020034B987A10B1034905220A6086
:108EF000704700BF382600206C1C0020014B042264
:108F00001A6070476C1C0020034B1A78202A01D18C
:108F100000201870704700BF141C0020704700002C
:108F2000212810B508D111480368197801F07F0293
:108F3000212A11D0022010BD2028FBD10B4B19682B
:108F40000A780B4902F07F030A4A212B0CBF0B461B
:108F5000002310700BB9EDE7074B044C2068002488
:108F60008361448220469847204610BD5826002041
:108F7000C98F0008141C0020B18F0008074B196826
:108F80000A7802F07F03212B05D1022801D10020AD
:108F900070472228FBD00220704700BF58260020CF
:108FA00009B1022070470128FBD80846704700002D
:108FB00020B9034B082219680A827047014870479C
:108FC00058260020D401002020B9034B082219683C
:108FD0000A8270470148704758260020D4010020BB
:108FE000054B1968CA78042A04D8044B03EBC20164
:108FF00004F00CBE0020704758260020DC01002041
:10900000014904F003BE00BFFC010020014904F047
:10901000FDBD00BF04020020334A344BD1791868EB
:1090200010B5002441728472C472204605F05EF9C6
:1090300020464FF4007105F061F91021204605F03B
:1090400069F94021204605F005FA8021204605F007
:10905000F1F9204605F0BAF9254B204693F8641043
:1090600005F032FA204605F0A0F90120214605F06E
:1090700045F90120C02105F0DDF90120202105F08E
:1090800049F90120214605F062F902204FF4C06140
:1090900005F034F902204FF4807105F0CBF902207D
:1090A000214605F054F90220202105F033F9032070
:1090B000214605F023F903204FF4887105F0CAF921
:1090C0000320402105F000FA03204FF4405105F041
:1090D0003EF90320214605F01DF9204604F0A8FFC3
:1090E000044A0120106010BDCABA010858260020A9
:1090F000D40100206C1C002010B5FDF73DFB054B92
:1091000000241868847203F0BDFB05F011FA0249CF
:109110000C6010BD582600206C1C002038B5044699
:109120000D46FEF703FF204625614FF41651FEF76A
:1091300007FF204638BD000013B5084C0021009100
:109140000A460B462046FEF71BFB0549054A20460A
:1091500002B0BDE8104009F043BE00BF181C00205B
:10916000DD5F0008E00C002070B506460D460024C7
:1091700028460BF067F9844208D2295D3046FEF795
:10918000C9FE012002F07CFA0134F1E770BD000055
:10919000F8B504460E46174600252046FEF7C0FEE9
:1091A0000028FADD2046FEF7BFFEBD42C1B206D15F
:1091B0000023337020461149FFF7D6FF14E00D2934
:1091C000F6D00A29F4D0082901D07F2904D1002D36
:1091D000E3D0013E013D02E006F8011B01352046C7
:1091E000EDB2FEF797FED8E72046FEF799FE00287D
:1091F00003DD2046FEF798FEF6E7F8BDFEE5010820
:10920000F0B585B00446FEF78BFE002840F39D8044
:109210002046FEF789FEC0B2772867D104F1140614
:1092200000212122304604F135050AF06FFC0021AF
:10923000412228460AF06AFC04F17607002284F8ED
:10924000762020467A704249FFF78EFF204631464D
:109250002022FFF79DFF20463E49FFF785FF394654
:1092600001222046FFF794FF94F87630A3F13001F5
:109270000329F0D8312B0BD120463749FFF774FF73
:1092800020463649FFF770FF20463549FFF76CFF4F
:1092900094F87600B0F1300708D020463149FFF746
:1092A00063FF204629464022FFF772FF20462E49E1
:1092B000FFF75AFF23693A46304629469847204629
:1092C0002A49FFF751FF20462949FFF74DFF204665
:1092D0002849FFF749FF20462749FFF745FF204669
:1092E0002649FFF741FF2046254929E069282CD16E
:1092F000244A01AB10685168002503C391682046D9
:1093000019602149FFF730FF01AEAE5D300900F171
:109310003001392988BF00F1570106F00F062046B9
:10932000FEF7F8FD06F13001392988BF06F1570133
:1093300020460135FEF7EEFD0C2DE5D11349204600
:1093400005B0BDE8F040FFF70FBF05B0F0BD00BFAE
:1093500052E4010859E4010886E40108BCE401086C
:10936000E7E401082DE5010838E501087BE501087F
:109370009BE50108CEE5010801E6010840E6010889
:1093800071E60108E8F7FF1F87E60108FEE501081E
:10939000002100F004B80E4B5B58435004310D48D7
:1093A0000D4B42189A42FFF4F6AF0C4A00F003B896
:1093B000002342F8043B0A4B9A42FFF4F9AF03F052
:1093C000E3F9FCF791FFFDF713FAFCF7DBFF7047B9
:1093D0009CE9010800000020700B0020700B0020A9
:1093E00068260020FFF7FEBF01700B0A0A0C090E69
:1093F00043708270C170043070470170090A417077
:109400000230704743185A78405C00EB022188B262
:10941000704710B543189A78DC78415C120402EB6F
:1094200004625878521802EB002010BD73B54479DD
:109430000023022C01930FD0032C19D0012C2BD127
:10944000164D28692E4620B1296901A88847024691
:10945000B8B9B16801201BE0104DE8682E4620B174
:10946000E96801A88847024658B9B16802200FE0B0
:109470000A4D6A692E464AB16B6901A898470246AF
:1094800020B1A9682046BDF8043003E0B16803208C
:109490000022134600F02CFC7CBD00BFA01D002064
:1094A000072830B512D8012910D8EFF3108472B60E
:1094B000012505FA00F501FA00F0054B1A6822EAC9
:1094C000050202431A60E30700D462B630BD00BF54
:1094D00064020020F0B5012187B00546FFF792FF36
:1094E00000F48043044698B250B3B4F5824F27D1BC
:1094F00028460521FFF786FF002607460735344634
:10950000BE4208D028460221FFF77CFF013624180E
:109510000435B6B2F4E7744B188E21188AB21A8655
:10952000D86B2418DC63D96B9A6B914240F0CE80E3
:1095300093F84000002800F0C9809B69992033E02F
:1095400024F4FF4121F07F0290B2002800F09B80BC
:1095500048F2100294422AD00CD8B4F5004F40F2E1
:10956000C08048F202039C4217D9991C8C4240F0FB
:10957000B88012E048F2800084420ED005D848F24C
:109580004002944240F0AD8051E0B4F5024F04D067
:10959000B4F5084F40F0A5806CE053498869002875
:1095A00000F094808B69204600210A4669E0002380
:1095B000EA1851790DF803100133042BF8D1687AB9
:1095C0002B7BAA7AE97A8DF804008DF807308DF8A4
:1095D00005208DF8061005F10D00002306AAD2180B
:1095E000C15C0133042B02F8101CF7D105F1110006
:1095F000002306AAD218C15C0133042B02F80C1C0C
:10960000F7D105F11500002300AAD218C15C01337F
:10961000042B1174F8D1344928798A698DF8140023
:10962000002A53D08B6920466946152229E005356A
:1096300000212846FFF7EDFE042100902846FFF7A1
:10964000E8FE082101902846FFF7E3FE0C21029076
:109650002846FFF7DEFE102103902846FFF7D9FECB
:10966000214B04909969002930D09B6920466946B6
:10967000142206E01C48826942B38369691D2046B2
:109680000122984722E041F203039C4205D00C33AB
:109690009C4202D0591E8C421AD16C1D04212046D6
:1096A000FFF7B7FE39301CD12D790F480021C56274
:1096B0002046FFF7AEFE042105462046FFF7A9FE2F
:1096C000393003D128460121FFF7EAFE012009E0E5
:1096D000054A138899B28C4204D0B4F5805FF5D165
:1096E00000E0002007B0F0BDA01D002038B5104BF1
:1096F0005D88ADB2CDB158680478221F514251EB5C
:1097000002042CB1FFF7E6FE003018BF012000E094
:109710002046054620B944B1054B93F8412022B9B3
:1097200003480021418001F0DDFD284638BD00BF1F
:10973000A01D00202DE9FF4704468946904602F00F
:10974000E9FE00250190BA4B5A8890B2002840F0FB
:10975000928003F015FD02F0DDFE0290029901985F
:109760000A1A0392039B002B03DA0199029842180C
:109770000392B04B19680029E5D003988842E2D3E0
:10978000AB4A41F20700138899B2814224D8421EA5
:1097900091425FD240F2022399425BD00DD80C294E
:1097A00006D8082956D200294DD0062952D959E0A9
:1097B0000D294CD040F201220BE041F2020081421F
:1097C0004BD8B1F5805F45D8B1F5017F3FD940F264
:1097D0000722914237D13AE041F21103994236D043
:1097E00014D841F20B00814234D005D841F209026D
:1097F00091422FD031D82AE041F20F0399422CD068
:1098000028D841F20D0081421DD126E042F2060225
:1098100091421CD007D8B1F5005F14D942F204037D
:10982000994214D921E0B1F5804F00F0F28105D8BA
:10983000A1F500500838012805D808E044F20B02D1
:10984000914200F0E6810B2003F098F8E1E1FF215E
:109850002170DEE14FF0FF3105E04FF0FF31216074
:109860006160D6E100212160D3E1204600213A2247
:109870000AF04CF9CDE15E683178042940F07E8130
:1098800001213046FFF7BEFD05463046FFF722FEB8
:109890000146002840F0688141F20700771D8542AB
:1098A00050D8411E8D4280F0AF8040F20222954296
:1098B00000F0AA8011D80C2D09D8082D80F0A480C2
:1098C000002D00F05181062D40F29E80EAE00D2D22
:1098D00000F0978040F201237EE041F202039D42B6
:1098E00018D8B5F5805F00F28F80B5F5017F40F2A2
:1098F000888040F207218D4240F036813079002186
:1099000004F8010B3846FFF784FD01462046FFF7B7
:109910006BFD29E141F20402954200F0998040F28A
:10992000B08038460021FFF774FD042120603846DE
:10993000FFF76FFD6060083406F10D07234606F15E
:109940001D017EE041F2110295425AD02CD841F21D
:109950000B039D4258D01CD841F209018D4253D0CF
:1099600000F29B8000213846FFF753FD0421206060
:109970003846FFF74EFD082160603846FFF749FD85
:109980000C21A0603846FFF744FD04F10C0AE060AA
:10999000E9E041F20F02954273D03BD841F20D034A
:1099A0009D4240F0E18053E042F20500854200F024
:1099B0009D8008D841F2120295423DD0B5F5005F76
:1099C00040F2D2801DE042F209018D4208D84F1EBC
:1099D000BD4216D242F206039D4240F0C58010E01F
:1099E00044F20B00854240F0BF807279DFF840A05E
:1099F00038460121AAF83020FFF704FDAAF832000A
:109A0000B2E031792170AFE038460021FFF701FD67
:109A10002060A9E000213846FFF7FBFCA2464AF887
:109A2000040B04213846FFF7F4FC60609BE000BFA4
:109A3000A01D0020201C00203846FFF7E3FC2080FA
:109A400092E057F8040B8F4243F8040BF9D18BE0F6
:109A500000213846FFF7DDFC042120603846FFF77F
:109A6000D8FC082160603846FFF7D3FC04F1080AEF
:109A7000A060E46814F1390375D10121FFF710FDEE
:109A800071E000213846FFF7C4FC0421206038460D
:109A9000FFF7BFFC6060083466E0307920713F68F2
:109AA000276061E038460021FFF7B3FC0421206005
:109AB0003846FFF7AEFC082160603846FFF7A2FC8D
:109AC0000A21A0603846FFF79DFCC4F80A000C3458
:109AD00006F11103274606F1350153F8040B8B42BA
:109AE00047F8040BF9D11A883A803DE077187B7962
:109AF000635401310429F9D106F109000027C15D41
:109B0000E2190137042F1171F9D106F10D0000237C
:109B1000C15CE2180133042B1172F9D106F111076F
:109B20000022B85CA1180132042A0873F9D106F1A9
:109B300015070023F85CE1180133042B0874F9D1F0
:109B400006F119070021785C6218013106291075A9
:109B5000F9D106F11F070023F85CE2180133202B2E
:109B60009076F9D100E054462C4F388882B2954265
:109B700036D100233B8087F8413031E0DF8EBBB225
:109B800073B33046032196F802A0FFF73BFC07466B
:109B9000B9F1000F0CD00421701DFFF73AFC02460A
:109BA000C8F8000006F115014846D2B209F028FEB7
:109BB000CAEB0707781EB0F5806F07D20AF10501DE
:109BC000204671183A4609F01BFE01E04FF0FF37BE
:109BD000B8F1000F01D088F80070104B0022DA862F
:109BE0000E4F0020788001F07DFB3278042A05D1E9
:109BF000B5F5805F02D13046FFF718FC3B8899B27B
:109C000000297FF4A0AD0548C28E93B2002B7FF4EB
:109C10009AAD002004B0BDE8F08700BFA01D002071
:109C200007284FF001030ED8EFF3108272B603FA43
:109C300000F006490B6818420CBF00200120D10734
:109C400002D462B670471846704700BF6402002015
:109C5000034B1880084600210A46FFF76BBD00BF82
:109C6000A01D002010B5034B0124DC86BDE8104088
:109C7000FFF760BDA01D002038B503461546012240
:109C80004A710C46881D1946FFF7B7FB291D057060
:109C9000204601F095FB002038BD38B5BDF81450C2
:109CA0000C469B18A071E81885B202216171E2711F
:109CB000294604F10800FFF7A0FB6A1D204691B277
:109CC00001F07EFB002038BD38B59B180C469DB2D4
:109CD00002216171A071E271294604F10800FFF7C9
:109CE0008CFB6A1D204691B2BDE8384001F068BB8C
:109CF0002DE9F0471D4605F1020A032301F107098A
:109D00001FFA8AFA88714B710C464846514617462D
:109D1000FFF773FBB5F57A7F804613D82946FFF726
:109D20006CFB29464046FFF768FB394604F10B00FF
:109D30002A4609F065FDA91D204689B2BDE8F04715
:109D400001F03EBB4FF47A76B5FBF6F10AEB410227
:109D500091B2FFF752FB31464046FFF74EFB3946C2
:109D600004F10B00324609F04BFDA5F57A7520464B
:109D700040F2EE31ADB2BF1901F022FBB5F57A7FAA
:109D800005D9A5F57A7085B24FF47A7601E02E46B2
:109D90000025A046394628F8056F4846324609F0A6
:109DA0002FFDB31C404699B2BF1901F009FB002DED
:109DB000E4D1BDE8F0870000F7B51A4C1E46A46850
:109DC000FF238DF807300025475D63190135042D09
:109DD0005F72F9D100200D5C2318013004285D73F7
:109DE000F9D10021505C6318013104295874F9D16C
:109DF00004F115000021FFF7F7FA0022B35C835449
:109E00000132042AFAD12146142242F20100FFF75E
:109E100033FF42F201000DF10701FFF719FF9DF931
:109E20000700FEBDA01D00202DE9F34106460C46AB
:109E30001E4831681546D0F808804A1E1F46FF2389
:109E4000082A8DF8073008F1090001D80A23336089
:109E500021684A1E082A01D80A23236029684A1E5D
:109E6000082A01D80A232B6039684A1E082A01D81B
:109E70000A233B603168FFF7B7FA2168FFF7B4FAAD
:109E80002968FFF7B1FA3968FFF7AEFA41461422A4
:109E900042F20900FFF7F0FE42F209000DF107015E
:109EA000FFF7D6FE9DF90700BDE8FC81A01D00204C
:109EB00038B5074B42F20504054699682046002252
:109EC000FFF7DAFE20462946BDE83840FFF7C0BE5E
:109ED000A01D00202DE9F341864613480D468668F3
:109EE00071461F4602ACFF2306F1090004F8053D48
:109EF0009046FFF779FA2946FFF776FA40F20125F6
:109F00004146FFF771FA0C2231462846FFF7B4FEAE
:109F100028462146FFF79CFE3846002101AAFFF79C
:109F2000A1FE0198BDE8FC81A01D00202DE9F341B0
:109F3000864616480C4686687146984602AD4FF034
:109F4000FF3306F10A0045F8043D1746FFF74CFAC7
:109F50000C21FFF749FA2146FFF746FA3946FFF789
:109F600043FA4146224606F11A0009F049FC9020C6
:109F700031461022A3B2FFF7A7FE40F20220294685
:109F8000FFF766FE0198BDE8FC8100BFA01D002020
:109F900008B50346062001460022FFF7C7FFC0B2FE
:109FA00008BD08B50346062001460022FFF792FFD0
:109FB000C0B208BDF8B506460D4617460C467B19DB
:109FC0002A1B1F2CC4EB030392B208D93046202170
:109FD000FFF7ACFFC0B2203C0028F0D007E02CB166
:109FE00030462146FFF7A2FFC0B2F8BD2046F8BDBB
:109FF00037B50B4B40F207250446996800222846E6
:10A00000FFF73AFE28466946FFF722FE9DF8030057
:10A010009DF80410207061709DF800003EBD00BFE7
:10A02000A01D002037B50D4A034695680C4605F182
:10A0300009001946FFF7D8F9214640F20324FFF73B
:10A04000D3F9294608222046FFF716FE20460DF1D7
:10A050000701FFF7FDFD9DF807003EBDA01D002094
:10A060002DE9F0430023CA5CC2540133102BFAD10E
:10A070000022334B467B991891F8018004789F1990
:10A08000F97A88EA0405847B85EA01081D1941787C
:10A09000EF7A90F80CC04F40C17B80F810805D18BB
:10A0A00095F80B908578634489EA050593F80B9041
:10A0B000C378477489EA030390F80490FFB288EAF2
:10A0C000090890F80590857487EA090790F80690CA
:10A0D000EDB285EA090590F80790C374DBB283EA14
:10A0E000090390F8089080F814805FFA88F888EAED
:10A0F000090890F809904775FFB287EA090790F8B8
:10A100000A908575EDB285EA090590F80B90C37544
:10A11000DBB283EA090388EA0C0C7E406C405940AC
:10A12000013280F8188047768576C37680F81CC0A7
:10A1300046778477C17710300A2A9AD1BDE8F08338
:10A140001FBB010810F0800F4FEA400018BF80F0DD
:10A150001B00C0B2704700002DE9F04F037891F862
:10A16000A0A004468AEA030A80F800A091F8A12082
:10A170004078A77882EA0005657091F8A260E078DF
:10A1800086EA0703A37091F8A32097B0059582EAA9
:10A190000005E57091F8A4902679069389EA0609EE
:10A1A00084F8049091F8A5706379079587EA030213
:10A1B000627191F8A600A579E37980EA0506A67197
:10A1C00091F8A7700C9287EA030B84F807B0227A03
:10A1D00091F8A880607A88EA020884F8088091F8EB
:10A1E000A97008964740677291F8AA50A67AE07A5B
:10A1F00085EA0603A37291F8AB20267B82EA00056C
:10A20000E57291F8ACC009938CEA060C84F80CC096
:10A2100091F8ADE0637BA27B8EEA030E84F80DE03B
:10A220000D9591F8AE50E07B5540A57391F8AF20A5
:10A230004B4B4240E2739A4491F890009AF80B61BC
:10A2400099444640267091F8940099F80BA19844DF
:10A250008AEA0006267191F8980098F80B919C44C0
:10A2600089EA000626729CF80BA191F89C009E4496
:10A270008AEA00062673DF199EF80B8197F80BC156
:10A2800091F8910091F89D6088EA00098CEA060037
:10A2900060730C9FDDF814A0DE1996F80B0191F89D
:10A2A0009970DDF8208080EA0706667203EB0A00E9
:10A2B00091F8956090F80B7184F8019087EA060098
:10A2C000607103EB0800DDF818E090F80B91099835
:10A2D00003EB0E0703EB000E9EF80BC191F8920002
:10A2E00091F89A6097F80B718CEA000A77405D1933
:10A2F00091F89E6084F802A091F8960095F80B8181
:10A30000A772079F88EA000589EA0606A673A57169
:10A31000DE1996F80B0191F89F5003EB0B0791F8AB
:10A320009360454097F80B019A1880EA06070D984C
:10A33000E7701E1896F80B7191F897004FF0090B13
:10A3400087EA0006E67191F89B3092F80B71E5738D
:10A3500087EA0300E0720D46CDF840B002E000BF8E
:10A360001FBB010894F80090A77887EA0900FFF75F
:10A37000E9FEFFF7E7FE94F80180E678824686EA78
:10A380000800FFF7DFFEFFF7DDFE8AEA070380EA39
:10A39000080227797040A6798AEA09015FFA80F8F5
:10A3A00086EA07005FFA82FB5FFA83FA5FFA81F9B7
:10A3B00003970296FFF7C6FEFFF7C4FEE6796779BA
:10A3C000014686EA07000491FFF7BCFEFFF7BAFEDC
:10A3D000039B049A94F808C082EA0301CBB2029965
:10A3E00047404A40A17A7040C6B2059381EA0C000A
:10A3F000D3B20291CDF804C006930796FFF7A2FEF0
:10A40000FFF7A0FE637AE67A024686EA030003932A
:10A410000492FFF797FEFFF795FE049ADDF804C05B
:10A42000039B82EA0C015FFA81FC80EA0301CBB254
:10A43000029909934A40D3B2CDF820C00A9394F808
:10A440000CC0A17B7040C6B281EA0C000291CDF82D
:10A4500004C00B96FFF776FEFFF774FE637BE67B86
:10A46000024686EA030003930492FFF76BFEFFF7B0
:10A4700069FEDDF804C0049A039B82EA0C015FFACE
:10A4800081FC80EA0301CBB2029970404A40C6B217
:10A4900088EA0A018BEA09000D93D3B20E93029168
:10A4A000CDF830C00F9681EA0006FFF74BFE89EA2F
:10A4B000000286EA020C5FFA8CFC8AEA0B0084F840
:10A4C00000C0CDF804C0FFF73DFE8BEA000386EA2A
:10A4D000030B02995FFA8BFC84F801C00846CDF8A3
:10A4E00044C0FFF72FFE8AEA000286EA020A5FFAFA
:10A4F0008AFB88EA090084F802B0CDF848B0FFF77B
:10A5000021FE88EA0000DDF818900599079A464078
:10A51000FFB2F6B282EA090887EA0100E6701396F4
:10A5200088EA0006FFF70EFE059B584086EA000108
:10A53000CAB24846227178401492FFF703FE4740A2
:10A5400086EA0703D8B2159060714046FFF7FAFD1E
:10A5500089EA0001059B86EA01020798D7B25840B4
:10A56000A7710697FFF7EEFD0799089A4840464005
:10A57000F6B20A9F0596E67109980B9E50407E4000
:10A5800086EA0007FFF7DEFDDDF820A08AEA000377
:10A5900087EA030C5FFA8CF884F8088009990A9816
:10A5A0004840FFF7CFFD099A504087EA000B5FFA59
:10A5B0008BF9304684F80990FFF7C4FD0A9E524695
:10A5C00086EA000387EA03010B985FFA81FB50409B
:10A5D00084F80AB0FFF7B6FDDDF82CA00E998AEAE0
:10A5E00000000C9E47400F9B0D98FFB24B407040FF
:10A5F000E77283EA000A0293FFF7A4FD0C9A0D9B11
:10A6000050408AEA00060E98F6B226735840FFF7CB
:10A6100099FD0D99029B81EA00028AEA0200C1B20B
:10A62000617318460391FFF78DFD0E9A0C9B504005
:10A630008AEA00010F98CAB2A27358400492FFF749
:10A6400081FD0F99514B48408AEA000C5FFA8CFA61
:10A65000DDF804C084F80FA003EB0C0295F880002D
:10A6600092F80B11DDF850C081EA0002227003EB72
:10A670000C0195F8840091F80B219E1982EA0001E3
:10A6800003EB0802217195F8880092F80BC196F847
:10A690000B218CEA0001217295F88C00039E82EA5E
:10A6A000000121739A1995F8811092F80B0103EBC0
:10A6B000090680EA010295F88D0096F80B11DDF885
:10A6C00044C081EA000615996673581890F80B612A
:10A6D00095F88910DF1986EA0100607203EB0C0619
:10A6E00095F8850096F80B116270129A81EA0006BF
:10A6F00066719918DDF818C095F88A6091F80B0119
:10A7000003EB0C0295F88E10704092F80B6103EB8E
:10A710000B02714092F80BC195F882608CEA060238
:10A72000049EA2709A1992F80B6195F88620564003
:10A73000A671A0721398A173191895F88F2091F83B
:10A740000B61DDF814C0724003EB0C0695F8831022
:10A7500096F80B0153444840E07095F8871097F83D
:10A760000B014840E07195F88B0093F80B11E273F0
:10A77000109A81EA0003511E103D11F0FF00E372B0
:10A7800010907FF4EFAD17B0BDE8F08F1FBB01084C
:10A7900038B5054C05462046FFF762FC28462146A1
:10A7A000BDE83840FFF7D8BCAC1C002003461021A0
:10A7B0000C200022FFF78EBB034610210C20002244
:10A7C000FFF7B4BB30B585B0054601F0A3FE01909C
:10A7D000194CE36A4BB108F053FBE26A02600020B7
:10A7E000E06208F04DFB018823E02846FFF718FAE5
:10A7F00010B14FF6FF711CE001F08CFE0290029A3E
:10A800000198111A0391039B002B03DA0198029A15
:10A8100011180391094B03981A689042E9D206492E
:10A82000088E83B2002BD3D00A8E501E83B20B86C3
:10A83000002108B205B030BDA01D0020201C002062
:10A84000F7B5034614480D4686681946174602AC0C
:10A850004FF0FF3206F1090044F8042DFEF7C4FD65
:10A860002946FEF7C1FD41F201053946FEF7BCFD60
:10A870000C2231462846FFF7FFF921462846FFF70C
:10A88000E7F908F0FDFA0199016008460021FEF79A
:10A8900007FEBDF90400FEBDA01D0020F7B505466A
:10A8A00010484FF0FF33876802AC294641F20B068F
:10A8B00007F1090044F8043DFEF796FD04223946ED
:10A8C0003046FFF7D9F921463046FFF7C1F908F0C5
:10A8D000D7FA0199016028460121FEF7E1FD0198B0
:10A8E000FEBD00BFA01D0020F7B50C46074616466A
:10A8F00008F0C6FA4FF0FF33E62C036023D8144863
:10A900000821856805F10900FEF76EFD2146FEF776
:10A910006BFD0021A14203DA7A5C42540131F9E770
:10A9200004F10802D2B2294641F21000FFF7A4F95F
:10A93000694641F21000FFF78BF908F0A1FA00997F
:10A94000019B0160336008F09BFA008800B2FEBDF5
:10A95000A01D002037B5034613484FF0FF3284682E
:10A960000D4604F1090019460192FEF73DFD08214C
:10A97000FEF73AFD0821FEF737FD0023E95CC154DC
:10A980000133082BFAD11422214641F20700FFF7C8
:10A9900073F901A941F20700FFF75AF908F070FABC
:10A9A000019A026010463EBDA01D00202DE9FF4126
:10A9B0001D46314B8646D3F808800F4608F1090042
:10A9C000714616460A9CFEF70FFD1421FEF70CFD9A
:10A9D0001421FEF709FD1421FEF706FD1421FEF7F0
:10A9E00003FDD4F1010138BF0021FEF7FDFC0FB1DA
:10A9F000396800E03946FEF7F7FC0EB1316800E037
:10AA00003146FEF7F1FC0DB1296800E02946FEF75A
:10AA1000EBFC74B1216839B9636841F28732934223
:10AA2000DCBF41F288336360FEF7DEFC6168FEF74D
:10AA3000DBFC2C22414641F20800FFF71DF9694674
:10AA400041F20800FFF704F9009900290ADB0FB171
:10AA5000019A3A600EB1029B33600DB103982860F1
:10AA600088B205E008F00CFA009B03604FF6FF7017
:10AA700000B204B0BDE8F081A01D00202DE9FF4127
:10AA80009846194B86469E6815460F4606F1090002
:10AA900071460B9CFEF7A8FC2946FEF7A5FC414633
:10AAA000FEF7A2FCBDF830500C2231462846FFF7D5
:10AAB000E3F8284601A9FFF7CBF8029800280ADD41
:10AAC0000A9938466A46FFF7CDF8009904B121602B
:10AAD0000029D8BF029108F0D3F9029A026010B29F
