:020000040800F2
:10500000005000206D8400083D7B00083F7B0008B5
:10501000497B0008537B00085D7B0008000000000E
:10502000000000000000000000000000677B000896
:10503000697B0008000000006B7B00086D7B0008A6
:10504000C1840008C1840008C1840008917D000863
:10505000C1840008C1840008CD7B0008ED7B0008F6
:105060000D7C0008417C0008617C0008C1840008B8
:10507000C1840008C1840008C1840008F97D0008CB
:10508000C1840008C18400087D7B0008C184000839
:10509000FD7D0008C1840008C1840008817C0008EF
:1050A000C1840008C1840008C1840008497D00084B
:1050B000C1840008C1840008C18400089D7B0008E9
:1050C000AD7B0008C1840008C1840008BD7B0008D6
:1050D000C1840008C18400088D7B0008C1840008D9
:1050E000D17C0008B97D0008C184000800000000E0
:1050F00000000000000000000000000000000000B0
:0C51000000000000000000005FF808F153
:10511000014B0360704700BFB835010870B501212D
:1051200088B0044601F060FDA0F13005072D37D8A6
:1051300003226846214601F07FFD1C4904A801F0C6
:10514000D9FC204604A901F03DFD064604A801F063
:105150008FFC1EB1ADB22846002110E0144904A80E
:1051600001F0C8FC204604A901F02CFD044604A867
:1051700001F07EFC74B10A35ADB22846314600F02C
:1051800091FF684601F05FFDC1B2284601F0B0F919
:10519000012401E06FF00104684601F069FC01E0C0
:1051A0004FF0FF34204608B070BD00BFF8950108ED
:1051B000FA9501087FB50121054601F015FDA0F122
:1051C0003004072C23D81549684601F093FC284683
:1051D000694601F0F7FC0646684601F049FC6EB9E5
:1051E0000F49684601F086FC2846694601F0EAFC52
:1051F0000546684601F03CFC65B10A34A4B220467D
:10520000012100F04FFF204601F0DAF804E04FF0F2
:10521000FF3001E06FF0010004B070BDF8950108A7
:10522000FA950108F0B5012185B0044601F0DCFCD7
:10523000A0F13006072E49D86846214603220723ED
:1052400001F0D4FC6846264901F092FC0546684608
:1052500001F00EFC7DB9684621460322062301F0C9
:10526000C5FC68461F4901F083FC0746684601F00B
:10527000FFFB0FB92DE001251B49684601F03AFC00
:105280002046694601F09EFC0746684601F0F0FBA7
:105290001FB1B6B23046002110E01449684601F053
:1052A00029FC2046694601F08DFC0446684601F061
:1052B000DFFB8CB10A36B6B23046394600F0F2FE5A
:1052C0003046294600F072FF012007E04FF0FF3022
:1052D00004E06FF0010001E06FF0020005B0F0BDE6
:1052E000FC95010801960108F8950108FA95010856
:1052F0007FB50121054601F077FCA0F13004072CB1
:1053000023D81549684601F0F5FB2846694601F0A7
:1053100059FC0646684601F0ABFB6EB90F4968467A
:1053200001F0E8FB2846694601F04CFC054668465A
:1053300001F09EFB65B10A34A4B22046032100F0BF
:10534000B1FE204600F07AFF04E04FF0FF3001E0AC
:105350006FF0010004B070BDF8950108FA950108DE
:10536000034B10B50446036000F0F8FA204610BD68
:10537000B835010808B50948094900F0DDFB0948BE
:10538000094900F0D9FB0948094900F0D5FB094853
:105390000949BDE8084000F0CFBB00BF05960108F1
:1053A000F152000811960108255200081E960108C6
:1053B000B5510008299601081D51000870470000EA
:1053C00013B5084C002100910A460B46204601F017
:1053D00047FA0549054A204602B0BDE810400CF0E6
:1053E000B3BC00BF200B002011510008900C00201E
:1053F00010B50131002393420ED0040F092C01D8BF
:10540000303400E0373401F8014C0133002400014E
:1054100001F8024BDBB2EEE710BD00001F4B10B5E8
:105420001A88032A04D804200146188006F09AFC42
:105430004FF000604FF4A04106F0E2FB1848012451
:1054400021460470174806F0A9FE05F07FFC05F020
:1054500067F92146402006F069FF6FF07F4005F0B4
:10546000CBFAE72005F044FB0F490C7005F0A0F9DA
:105470007D2006F07FFF18B10C4B1C7006F08EFFEC
:1054800040F6B83005F0ECF905F03EFF06F0B8F94B
:10549000074A084901201070087010BD181C002030
:1054A000F41B002000043000A81A0020BC250020B6
:1054B000B81B0020AE1B0020304B10B51A88042A00
:1054C00004D805210420198006F04CFC2C480178F2
:1054D00011B12C4802F0E2F8294C237853B1274847
:1054E0000288052A04D806210180042006F03AFC2F
:1054F00002F092F9217861B1234C23784BB923480B
:10550000027832B122490C781CB9224B1878002855
:10551000E2D0214A11780029DED1204C2378002BDB
:10552000DAD11C480278012A0FD01D4969B1134C09
:105530002388062B04D807210420218006F012FCC2
:10554000FFF718FF134A0120107016490029C3D035
:105550000A4C2388072B04D808210420218006F058
:1055600001FCFFF72BFF20880828B5D8034A092142
:105570000420118006F0F6FBAEE700BF181C0020E7
:10558000B81B0020B15D00086D1B0020AE1B002081
:10559000A61A0020280B0020A71A0020BC250020F6
:1055A00075530008BD530008524B70B51A6812B10C
:1055B0001868411E1960504B1A783AB14F4A10785A
:1055C000002829D04E49002949D125E04D4C2068BA
:1055D00010B12368591E0FE04B490B78E3B94B4AD1
:1055E0001078C8B94A490B78B3B94A4D2A782AB11C
:1055F000E72005F0F7FA142121600DE04648017814
:1056000000292FD1E72005F0A1FA44483D4B01784D
:10561000002935D032221A603F4B1A7832B1404D02
:10562000287818B92EE041684B1C43603D490B684F
:10563000B3F57A7F0FD300230B6006F00DFE3A48D6
:105640004FF6FF7102888A4253D001800420BDE8E2
:10565000704006F087BB0868421C0A6070BD00F00D
:10566000EFFBD9E7314B1A78002ACBD04FF6FF7009
:1056700005F0C2F9E72005F03BFA01202870CBE7DE
:105680006422C8E721490B7893B1294847F22F5289
:1056900043689342C7D9BFF34F8F264C2648E5682D
:1056A00005F4E06646EA0002E260BFF34F8FFEE7D2
:1056B000154E347834B9204605F0A8FB40F6B732D1
:1056C00090420DD8002005F0A1FB41F657318842E9
:1056D000ACD9002005F0A2FB184B01201870A5E7FB
:1056E000204605F09BFB2A78002A9FD101213170CA
:1056F0009CE770BDC4250020D41B0020C40E0020F0
:10570000415E0008C0250020D81A0020A71A0020FA
:10571000A91A0020A81A0020B81B0020A51A0020F2
:105720006D1B0020C8250020181C0020A61A002090
:10573000280B002000ED00E00400FA05D61A002036
:1057400008B5094B186005F089FD002005F0CEFD75
:10575000064805F009F805F097FD05F0B5FDBDE830
:10576000084007F023BD00BFD4010020A08601003F
:10577000074B1868052808D106490A7A012A04D17E
:10578000887A0B7BC11AC8B270470020704700BFEF
:105790001C1C0020280B00200D4B10B51868052894
:1057A00013D10C4C217A01290FD16289A389D01A17
:1057B000012804D100210320217207F062FEA38991
:1057C000E218591C907BA18110BD4FF0FF3010BD35
:1057D0001C1C0020280B002008B50C4B196805295B
:1057E00012D10B4B1A6D991881F85400501CB0F56A
:1057F000807F08BF0020186505F000FC20B1642000
:10580000BDE8084004F0B0BF08BD00BF1C1C00206C
:10581000280B002070B5234A92F85431012B3FD059
:10582000D2F85801B0F5807F02D10021C2F858119A
:10583000D2F85831126D1B48934203D1002180F8F1
:10584000541170BD8CBFC3F58072C3EB0202154CBE
:10585000C0F85C21D4F85C5199B2402D07D940338F
:10586000403DC4F85831C4F85C51402606E0E818C1
:105870000023AEB2C4F85801C4F85C310A4A0125CD
:105880005018C021324684F8545107F071FD284663
:10589000314607F077FE2846BDE8704007F0E0BDCE
:1058A00070BD00BF280B00207C0B0020094B10B5F9
:1058B00093E814000833186810180AD00822064923
:1058C000FFF796FD054920460422BDE81040FFF78A
:1058D0008FBD10BDE8F7FF1F82010020920100205C
:1058E00013B5084C002100910A460B46204600F0F3
:1058F000B7FF0549054A204602B0BDE810400CF04C
:1059000023BA00BF880C002011510008900C002021
:1059100038B50D460446AC4203D254F8043B9847D0
:10592000F9E738BD08B507480749FFF7F1FF074811
:105930000749FFF7EDFF07480749BDE80840FFF7B3
:10594000E7BF00BFC8990108C8990108C8990108B4
:105950001C9A01081C9A01081C9A01080CF034BB1F
:1059600008B5072006F076F8FEE70000074A08B5FC
:105970001368074918188842106004D9082006F0F7
:1059800069F80CF0E7F9184608BD00BF00000020D8
:10599000004800204FF0FF3070470120704708B5E5
:1059A0000C2006F057F8FEE7014B1868704700BF5F
:1059B000940C0020064B0246582000FB013101F1F7
:1059C000080303CB1060516018689060704700BFF7
:1059D000940C0020014BD3F864017047940C002014
:1059E000064B0246142000FB013101F5B67303CBD0
:1059F0001060516018689060704700BF940C0020E0
:105A00000E4B2DE9F041D3F8647180460024BC426E
:105A100011DA14256543094E4146701900F5B67038
:105A20000C220DF0EBFB20B97519D5F86801BDE823
:105A3000F0810134EBE70020BDE8F081940C0020F8
:105A40002DE9F04788B0814668460D4601F052F8CE
:105A50001E4B0024D3F800A054452DDA55B3582628
:105A600066431A4F494607F1040808EB0600043064
:105A70000C220DF0C3FBE8B928460DF08FFB06F1B0
:105A80001001402834BF0246402208EB010029469D
:105A90000CF096FDBE19012286F85820694604A82C
:105AA000746801F049F804A8A047044604A800F06F
:105AB000DFFF03E00134CFE74FF0FF34684600F02A
:105AC000D7FF204608B0BDE8F08700BF940C002047
:105AD00038B50546064C28B105F030F8012384F8A6
:105AE000303238BD04F0D8FF84F8305238BD00BFE2
:105AF000940C0020024B00221A6005F0A1BC00BFEC
:105B00002C0B0020034A044800231370036005F0A7
:105B1000CFBC00BFA71A00202C0B0020044B054966
:105B2000002001221A7008604FF4C02005F062BC0A
:105B3000A71A00202C0B00202DE9F84F04468946B7
:105B4000002941D000283FD0204B1D68042D3BD0B8
:105B50000027AF421E4E4FF058080FDA08FB07F837
:105B600056F80810494507D106EB0802101D2146DA
:105B70000C220DF043FB38B30137EAE708FB05F8C8
:105B8000A6F1040A0AEB080708F11000C7F8049010
:105B90000021402230180CF099FE06EB0801081D88
:105BA0000C2200210CF092FE2068616807F10802C7
:105BB00003C2A3680020013507F1040B87F85800E1
:105BC0001360543746F8045CBDE8F88F940C00204D
:105BD000980C002010B5064C206803F08DF823685F
:105BE000013303D0411E4842484110BD012010BD81
:105BF00004000020F0B5274B0646187887B00F4602
:105C0000002843D124490A78002A3FD1FFF7E2FF58
:105C1000044600283AD1214D8DF80C002B688DF8F0
:105C20000D008DF80E008DF80F0006A9580901EB44
:105C3000800203F01F01012000FA01F052F80C1C51
:105C40000494014342F80C1C04A841F288320592E6
:105C5000009003A9581C2246234603F013FF002896
:105C600016DD2B6806A95D0901EB850050F80C5C78
:105C700003F01F0245FA02F515F0010008D018469E
:105C800031463A46234603F09DFF01E04FF0FF30D6
:105C900007B0F0BD6C1B00206D1B0020040000202D
:105CA00038B50B4B054618780C4668B909490A788F
:105CB00052B9FFF78FFF034630B9074829462246FD
:105CC000006803F0FDFF38BD4FF0FF3038BD00BF66
:105CD0006C1B00206D1B00200400002030B51E4806
:105CE000ADF57B7D07F0BEFC002832D11B4B1C4874
:105CF0001C4D05931C491D4A1D4B06900A951D48D5
:105D00001D4D079108920B931C491D4A1D4B0C9089
:105D100010951D481D4D1E4C0E910F921D491E4A97
:105D200011931E4B1290159517A861AD1391149203
:105D30001693099404900EAC039505F0FFFB2846DA
:105D400005F002FC00940448154903AA05AB07F0CE
:105D500090FC0DF57B7D30BDC80E0020A15C0008D5
:105D6000F55B0008F55A00081D5B0008055B00089C
:105D7000D15A000869660008415A0008A95900086C
:105D8000B5590008D5590008E159000855B5000873
:105D900079B500084D600008015A000869B500088F
:105DA000E8F7FF1F014808F04CBB00BFC80E0020F9
:105DB00030B5022011228DB0014603F0ADFD051E65
:105DC00028DB154907A807F080FD022316200024D0
:105DD000ADF80C308DF80E003321E0220123BB20FA
:105DE0008DF811408DF80F108DF810208DF81230BD
:105DF0008DF813000324102203A9009101920023BF
:105E00001322284607A903F065FF013CF3D1284679
:105E100003F0B0FD0DB030BDE8F7FF1F10B5074C23
:105E2000FFF75CFF204607F020FC204607F09AFFB2
:105E30000446FFF7BDFF204610BD00BFC80E00207E
:105E400038B5114CD4F8585B2DB1D4F8581B4B1E03
:105E5000C4F8583B38BDD4F85C3B0C4A52F82300D8
:105E600004F0F2FDE72004F043FE094A6420D4F870
:105E70005C1BC4F8580B50684B1C8342C4F85C3B55
:105E8000A8BFC4F85C5B38BD940C002060350108E5
:105E9000040000207FB502200121062203F03CFD12
:105EA000041E23DB00200822022335218DF8020086
:105EB0004FF4FA50ADF800308DF803108DF804203F
:105EC0008DF805208DF806208DF8072001F0E6FA00
:105ED000694606461022204603F0A8FD05463046D6
:105EE00001F0DCFA204603F045FD01E04FF0FF35FC
:105EF000284604B070BD000010B5064C206800288C
:105F000005DB03F037FD4FF0FF33236010BD0020A9
:105F100010BD00BF0400002030B5A7B0FFF7ECFFB4
:105F200002200121062203F0F7FC334B0028186001
:105F300052DB3248022216213324A0F8602B80F86D
:105F4000621B80F8634B05A805F0C4FA9DF8143075
:105F50000025009533B1012B17D0294B01A803F17F
:105F6000100502E0069A009214E00246596818688B
:105F7000083303C2AB421046F7D101A906AC0FC9E2
:105F800007C424F8023B1B0C23700A24009D0DB9A2
:105F9000013C24D1009808B91A490091009B174C84
:105FA000180A1D0E1A0C84F8660B4FF4FA5084F888
:105FB000673B84F8645B84F8652B01F06FFA0E4947
:105FC00005461022086804F5366103F02FFD0446EB
:105FD000284601F063FA0CE04FF0FF3409E07E211F
:105FE00006A80DF09BF96A4681B206A803F0E8FC0A
:105FF000CCE7204627B030BD04000020940C0020E0
:106000003596010804E5D0360F4B2DE9F041D3F861
:10601000647180460024BC4211DA142565430A4E9F
:106020004146701900F5B6700C220DF0E7F820B962
:10603000751995F87801BDE8F0810134EBE74FF070
:10604000FF30BDE8F08100BF940C002008B5FFF7D9
:10605000DBFF0138082803D8024B1918087F08BD58
:10606000022008BD6035010837B50B4C002104F54E
:1060700037650B4600910A46284600F0F1FB28469A
:106080000649074A0BF060FE04F50D7003B0BDE849
:10609000304007F0D7BA00BF940C0020115100081F
:1060A000900C002014282DE9F34104460E4675D8C3
:1060B000FF2973D000F0A4FC28B10D2C6ED00F2C5A
:1060C0006CD00E2C6AD000F05FFB08B1012C65D9B2
:1060D00000F03EFF18B1A4F11203012B5ED9304D40
:1060E00020012F582F492A188F42B2F8048001D17D
:1060F000042003E02C4B9F4203D10820012106F02D
:1061000021F9ADF80480062E44D8DFE806F004112A
:10611000181F26313C00224A102302EB04140320EE
:106120000021A1738DF807308DF80600083431E0A6
:1061300004218DF8071005EB0414012229E0482200
:106140008DF8072005EB0414022222E028208DF8A8
:10615000070005EB041403221BE0114B1822032156
:106160008DF807208DF8061003EB0414042210E0CC
:106170000B481C2103238DF807108DF8063000EB27
:106180000414052205E000208DF8070005EB041437
:106190000622A273384601A905F0A0FFBDE8FC81E4
:1061A0000C00002000080140000C0140142870B5CC
:1061B00004460E463ED8204B03EB0010817B01299C
:1061C00038D0022936D0032934D0062932D0FF290D
:1061D00030D000F015FC30B10D2C2BD00F2C29D075
:1061E0000E2C00D170BD00F0CFFA10B1012C00D8F8
:1061F00070BD00F0ADFE20B1A4F11202012A00D85A
:1062000070BD0D4D05EB0413987B042803D1204687
:106210000021FFF747FF012E05D124012819295934
:1062200083880B6170BD2EB9240129192B598A88E6
:106230005A6170BD70BD00BF0C000020142838B535
:10624000044617D81D4B03EB0010817BFF2911D0AA
:1062500004290FD005290DD000F0D2FB28B10D2C58
:1062600008D00F2C06D00E2C04D000F08DFA18B1F7
:10627000012C01D8002038BD00F06AFE18B1A4F14D
:106280001202012AF6D90D4D05EB0413987B06285E
:1062900006D195F85011FF29ECD02046FFF702FFF8
:1062A00024012D19054BAA7BA988185912B905F0AC
:1062B0006BFF38BD05F062FF38BD00BF0C00002049
:1062C000F0B54FF4004091B006F008F80120014607
:1062D00006F02CF801214FF4C06006F033F8334883
:1062E00005F064FD3248334B0A21002480220690D9
:1062F00008914FF400754FF400664FF400572B4897
:1063000005A905930A920B950C9601250E974FF45B
:1063100060264FF40027079409940D940F9405F01C
:10632000BDFD2548694600978DF804408DF805406D
:10633000029603948DF8105005F06CFC1F486946D6
:1063400000978DF804408DF80540029603948DF86F
:10635000105005F05FFC1848294605F07FFC1648F0
:1063600005F08EFC144805F090FC0028FAD1124884
:1063700005F08FFC104805F091FC0028FAD10F4879
:10638000012105F06BFC0D4805F07AFC0B4805F087
:106390007CFC0028FAD1094805F07BFC074805F091
:1063A0007DFC0028FAD111B0F0BD00BF080002400A
:1063B000101800204C240140002401400028014016
:1063C000092838B5044601D80A34A4B200F018FBF5
:1063D00038B10D2C01D1002038BD0F2CFBD00E2C74
:1063E000F9D000F0D1F900F0B3FD18B1A4F1120317
:1063F000012BF0D9142CEED8384D05EB041082791E
:10640000FF2AE8D095F85211914206D0837B0621ED
:10641000204685F85031FFF745FE95F85351012D80
:1064200005D1FFF74DFF2D4A002082F853012B4D77
:1064300005EB0414A17995F852318B420FD028480E
:10644000012295F8513105F036FCA1792548012249
:1064500095F8513105F02FFCA17985F852110021F2
:10646000214A002042F8210001310A29F8D11F48B1
:1064700005F047FD1B48012105F06AFC1B4801217E
:1064800005F02CFD1648012105F0F1FB144801210F
:1064900005F008FC022005F037FD0028FAD00220A4
:1064A00005F040FD0E48002105F0E1FB0F480021FA
:1064B00005F014FD00231A460B4951F8230051F84A
:1064C0002310013389B201EB10400A2B0244F3D1AF
:1064D0001421B2FBF1F080B238BD00BF0C000020E7
:1064E000002401400028014010180020080002404C
:1064F0002DE9F041142888B004460D4600F2A7802B
:10650000544B03EB00108168002900F0A08000F0DC
:1065100077FA40B10D2C00F09A800F2C00F0978094
:106520000E2C00F0948000F02FF910B1012C40F2F5
:106530008E8000F00DFD20B1A4F11202012A40F27C
:106540008680444B03EB0410817B09B104297ED182
:10655000414E424A37684BF680316943B7FBF2F34C
:10656000581EFF2586B2012091FBF5F7014605F084
:10657000E9FE04212046FFF795FD364ABFB202EB43
:1065800004139968B1F1804F02D10120014608E05F
:10659000334D0220A94203D03248814203D1042066
:1065A000012105F0DBFE2B4B4BF67F3203EB04158C
:1065B000ADF80460A868002601A9ADF80A60ADF83E
:1065C0000660ADF8082005F0BDFFADF81860AE8993
:1065D0006021012005F10808ADF81010ADF8120097
:1065E000ADF8167046B9A86804A905F0F5FFA868CB
:1065F000082106F031F91FE0042E08D1A86804A98B
:1066000006F02EF8A868082106F02EF914E0082EEE
:1066100008D1A86804A906F067F8A868314606F012
:106620002DF909E00C2E07D1A86804A906F09EF800
:10663000A868082106F02AF9064A012102EB041491
:10664000A06806F0FDF8A068012106F0D6F808B0B1
:10665000BDE8F0810C000020C802002000366E0169
:10666000000400400008004004F0C0BF13B5084C0F
:10667000002100910A460B46204600F0F1F805493A
:10668000054A204602B0BDE810400BF05DBB00BFDC
:106690003818002011510008900C0020024B187887
:1066A0005978401A704700BF40180020064B5A78AE
:1066B0001978914204D99818013280785A7070473D
:1066C0004FF0FF30704700BF40180020054B5A784C
:1066D0001978914202D99818807870474FF0FF30AE
:1066E000704700BF4018002070470000014B036056
:1066F000704700BFD0350108034B10B50446036056
:10670000FFF72CF9204610BDD0350108F8B5094B2C
:10671000054693F82200164650B10C468F18BC422D
:1067200006D0296828468A6814F8011B9047F6E7C6
:106730003046F8BD4018002010B50C4B012293F8EC
:1067400022408CB193F823401F2C02D942600020D4
:1067500010BD93F824001C1884F82510411CC8B201
:1067600083F8240083F82300104610BD4018002051
:1067700000224260024A4FF47A71816002607047E1
:106780009035010870477047014B93F859007047E6
:106790004018002073B50E4C002104F164050D4E25
:1067A0000B4600910A46284600F05AF86C343246EF
:1067B000094928460BF0C8FA2046FFF7D9FF0749D8
:1067C0002046324602B0BDE870400BF0BDBA00BFB3
:1067D00040180020900C002011510008ED660008C0
:1067E00008B5034B53F8200000B1804708BD00BF37
:1067F000BC18002013B5084C002100910A460B4636
:10680000204600F02DF80549054A204602B0BDE8B3
:1068100010400BF099BA00BFFC180020115100087D
:10682000900C00202DE9F041002407460E46254635
:106830003B1919790A22304600F0AFF82E21804624
:10684000304600F078F801344044032C0544EFD181
:106850003046F9790A2200F0A0F82818BDE8F08146
:1068600030B58371044D9DF80C300446056001710C
:106870004271C37130BD00BFB83501080548002121
:10688000054B017141718171C171044A0449036072
:106890000BF05ABA04190020B8350108900C0020FA
:1068A0001151000813B5084C002100910A460B460F
:1068B0002046FFF7D5FF0549054A204602B0BDE84E
:1068C00010400BF041BA00BF0C1900201151000814
:1068D000900C0020014B0360704700BFD0350108C9
:1068E000F8B506460C468F180025BC4207D0336821
:1068F00030469A6814F8011B90472D18F5E7284692
:10690000F8BD0000034B10B504460360FFF726F8FE
:10691000204610BDD035010838B505460C4608465E
:1069200041B10CF03BFC2B680246DB68284621464F
:10693000984738BD38BD08B503689A68904708BDC8
:1069400070B500238AB08DF82430012A98BF0A223E
:106950000DF12303B1FBF2F505FB1211CCB2092CAA
:106960001E4601D8303400E03734E4B203F8014960
:106970002946002DEED13146FFF7CEFF0AB070BD9B
:1069800010B5044622B90268C9B29268904710BD9A
:10699000D2B2BDE81040FFF7D3BFFFF7F1BF000050
:1069A00013B5084C002100910A460B462046FFF71C
:1069B00057FF0549054A204602B0BDE810400BF0DC
:1069C000C3B900BF1C19002011510008900C002011
:1069D00013B5084C002100910A460B462046FFF7EC
:1069E0003FFF0549054A204602B0BDE810400BF0C4
:1069F000ABB900BF2419002011510008900C0020F1
:106A0000014B587D704700BF2C19002070470000D3
:106A100013B5084C002100910A460B462046FFF7AB
:106A20001FFF0549054A204602B0BDE810400BF0A3
:106A30008BB900BF4419002011510008900C0020B0
:106A400013B5084C002100910A460B462046FFF77B
:106A500007FF0549054A204602B0BDE810400BF08B
:106A600073B900BF5019002011510008900C00208C
:106A700010B5044600680BF0A7FA204610BD10B50B
:106A80000446006808B10BF09FFA00232360A3605E
:106A9000636010BD38B504460D46006801310BF047
:106AA000D3FF10B184E82100012038BD036810B580
:106AB000044613B14068884207D22046FFF7EAFF38
:106AC00020B1A16809B922681170012010BD70B50C
:106AD0000E46114604461546FFF7E8FF18B9204652
:106AE000FFF7CDFF04E0A560206831460CF0F8FA0E
:106AF000204670BD38B500230446036043608360C0
:106B000003730D4639B108460CF048FB294602468E
:106B10002046FFF7DCFF204638BD884210B50B4603
:106B2000044607D0096819B19A68FFF7D0FF01E061
:106B3000FFF7A5FF204610BD002310B504460360F3
:106B4000436083600373FFF7E8FF204610BD38B54C
:106B500005460C4641B108460CF020FB2146024692
:106B60002846FFF7B4FF01E0FFF789FF284638BD4C
:106B7000826808B50B4612B919B9012008BD11B9D0
:106B80000368187802E000680CF0BCF9D0F101004D
:106B900038BF002008BD10B58B688468E41AA24293
:106BA0000CD8006868B1096851B180181A460CF019
:106BB00025FBD0F1010038BF002010BD002010BD22
:106BC000084610BD82688B689A4202D30022FFF704
:106BD000E2BF002070478368994203D2006810B179
:106BE000405C704700207047FFF7F5BF9A422DE9DF
:106BF000F04107460D4614461E4601D93446164656
:106C000038460C49FFF776FFA86884420FD82968F8
:106C1000864228BF0646002211F806808A552B6856
:106C200038461919FFF793FF286800F806803846A0
:106C3000BDE8F081FF97010810B58B680446FFF7A7
:106C4000D5FF204610BD006808B10BF08BB8704727
:106C500013B5084C002100910A460B462046FFF769
:106C6000FFFD0549054A204602B0BDE810400BF083
:106C70006BB800BF5819002011510008900C00207B
:106C800013B5084C002100910A460B462046FFF739
:106C9000E7FD0549054A204602B0BDE810400BF06B
:106CA00053B800BF6019002011510008900C00205B
:106CB00038B51A4C94F92C30002B2DD094F82D00B7
:106CC000002829D005F092FB94F82C2094F82D5040
:106CD00051B2002995FBF1F306DD012B0BDC511EAF
:106CE00084F82C10002407E0591C04DB013284F8DE
:106CF0002C20022400E00124084B041993F82D20D5
:106D0000511E83F82D1005F0A5FB204605F082FBEF
:106D1000BDE8384005F09EBB38BD00BF68190020B3
:106D200013B5084C002100910A460B462046FFF798
:106D300097FD0549054A204602B0BDE810400BF01A
:106D400003B800BF9819002011510008900C0020D2
:106D500013B5084C002100910A460B462046FFF768
:106D60007FFD0549054A204602B0BDE810400AF003
:106D7000EBBF00BFA419002011510008900C0020A7
:106D8000014B0360704700BFD03501080369186CE0
:106D9000596C421A02F03F0070470369196C5A6C33
:106DA000914202D0586C185C70474FF0FF3070472A
:106DB0000369196C5A6C914207D0586C596C185C75
:106DC0004A1C02F03F01596470474FF0FF30704792
:106DD00070B504460E462C4840F2277105F097FD29
:106DE00020B963691A6C586C824211D161690D6CCB
:106DF0006B1C03F03F056069426C95420FD0EFF3C6
:106E00001081CA0732D5036C426C934207D12DE042
:106E10001D4840F22771012205F051FDE6E71A48AE
:106E200040F2277105F073FD0028E4D01648802158
:106E300005F067FD0028DED00022134840F22771DC
:106E400005F03DFD63695A6C501C995C58640E480E
:106E500005F04FFD61690C484B6C03F03F024A643A
:106E600040F22771012205F02AFDC4E7016C465467
:106E7000606940F2277105640125257602482A469B
:106E800005F01DFD284670BD00440040436910B563
:106E90000446196C5A6C9142FBD1207E10B9002334
:106EA000237610BD0348402105F02BFD0028F4D0C7
:106EB000F5E700BF00440040034B10B504460360F3
:106EC000FEF74CFD204610BDD035010810B51E4818
:106ED00040F2255105F01BFD78B11B4805F00DFD72
:106EE0001A4BC0B25A6D511C01F03F02996D8A4293
:106EF00003D0596D5A6559180875134840F2277127
:106F000005F005FDF8B1114CD4F89C00D4F8A03080
:106F1000984207D10C4840F227710022BDE810408A
:106F200005F0CDBCD4F8A0002218431C92F85C10E8
:106F30000548C4F8A03005F0DCFCD4F8A01001F03E
:106F40003F00C4F8A00010BD00440040AC19002070
:106F5000014B187C704700BFAC190020F7B5164CE8
:106F6000002504F1A406154F2B4629462A46009514
:106F70003046FFF775FC3A46304611490AF0E4FE08
:106F800004F114010F4804F15C02C4F8BC100E496E
:106F90004FF47A73C4F8AC00C4F8C02004F1AC001C
:106FA0003A46C4F8B050C4F8B43084F8C45003B0C2
:106FB000BDE8F0400AF0C8BEAC190020900C0020DB
:106FC00011510008E8350108816D000870474FF045
:106FD000FF307047014B0360704700BFD035010898
:106FE000034B10B504460360FEF7B8FC204610BD05
:106FF000D0350108084608B5FEF7EEFB012008BDB4
:1070000008B5FEF7B5FB08BDFEF7C6BB002242601F
:10701000024A4FF47A7181600260704710360108AD
:107020000846FEF78DBB000037B50D4C00210D4D15
:107030000B4600910A462046FFF712FC2A460A49F1
:10704000204608340AF080FE2046FFF7DFFF07499C
:1070500020462A4603B0BDE830400AF075BE00BFA6
:10706000741A0020900C002011510008D56F000800
:107070007047000037B50B4C00210B4D0B460091BB
:107080000A462046FFF7ECFB2A46204607490AF04D
:107090005BFE074904F108002A4603B0BDE8304012
:1070A0000AF052BE8C1A0020900C002011510008EA
:1070B00071700008002303601846704700230360C6
:1070C0001846704700230360184670472DE9F041C9
:1070D00091F8008086B00C46B8F1000F14BF9046BE
:1070E0004FF0000806460CF059F8074620460CF011
:1070F00055F8012518231E210222019302910392C3
:107100000590002300950494404631463A4602F02B
:1071100013FF034B18705D7006B0BDE8F08100BF2F
:10712000981A0020F8B5394C0346A57808462E4633
:10713000002D69D148F21007BB4246D00BDC48F263
:10714000010293421FD0501C834225D0992B5BD162
:107150000121A174F8BD48F28007BB420ED0B3F5FF
:10716000084F43D048F2400083424DD104F114004F
:107170000BF026FAA16A4B1CA362F8BD0121E17055
:1071800021716571F8BD0123A371FFF76DFA00F558
:10719000EA423032A260F8BDA37963B1FFF764FA26
:1071A00000F5EA4230324FF47F40A26003F024FC45
:1071B000E72003F09DFC15480021817101734173A4
:1071C0008173C17301744174F8BD0B7D63B90122F1
:1071D0004FF47F402273A360227403F00DFCE7207C
:1071E000BDE8F84003F084BC2573F8BD294601F0E2
:1071F0007EF90121064601F0C1F9054A1068864270
:1072000002D1E573A5736573F8BD00BF981A00201D
:107210000400002070B51B4B8CB006460D461020B4
:107220000221002201F0EEFE002401AB325B42F0AD
:107230000101100A2A5B03F8041C0234110A03F846
:10724000030C03F8022C03F8011C0433182CEDD1B5
:10725000214604226B46102001F0D4FE06AB2146E5
:107260001C22102001F0CEFE0021302268460BF0D7
:107270002DFB1020014634226B4601F0C3FEC0B244
:107280000CB070BD4E96010810B50A4C04F12C00EC
:1072900001F01AFF60B994F82C30012B09D194F851
:1072A0002D00B0F11C0CDCF1000151EB0C0010BD05
:1072B000002010BD981A00201FB50A2200234FF4A9
:1072C00061504FF461618DE80F00064B44F6206277
:1072D0001A60684601A902AA03AB01F011FE05B0CD
:1072E00000BD00BFD01B00201FB5002300930193F9
:1072F0000293039301A8694602AA03AB01F0C8FDFB
:1073000005B000BD70B500210A4C0E2001F0F6FE5C
:10731000102510210E2001F0F1FE00212A46204602
:107320000BF0D4FA0E20294600222346BDE8704017
:1073300001F068BEC61A002030B5544D00249FB03D
:10734000FF20EC702C716C70AC712C73AC746C738E
:10735000AC73EC732C7403F04FFBE72003F0C8FB15
:1073600021462246204602F0C3FD2B46012103F8A8
:107370002F4F0E200A4601F045FE444B9879012814
:1073800005D1642003F0E8F901F01EFAF5E71021B9
:107390000C2001F0B3FE3E4802F07AFA3D4802F0BC
:1073A0001BFF012002F0FCFE68463B4900F026FF6F
:1073B000364DE9786A780A4318D195F83E100029CD
:1073C00059D0FF2002F0A0FE002854D11A24013C1D
:1073D00006D0E72003F0BAFB322003F0BDF9F6E750
:1073E000FFF790FF294A82F83E40E1E7E72003F0EB
:1073F0007FFB0E200121002205F12E0301F0D6FDB6
:10740000EC7814B102F006FF2870204C012123789B
:107410000022581C234603F82E0F0E2001F0F2FD27
:1074200000200146012202F063FD0125234603F8F6
:107430002F5F29462A460E2001F0E4FD02F0DEFC13
:10744000642003F089F9002002F0A2FC84F83F5088
:107450004FF47F400025257403F0CEFAE72003F0B7
:1074600047FB48F2042002F069FEFFF725FF84F88D
:1074700040501FB030BDE72003F068FBFA2003F056
:107480006BF9684600F012FF92E700BF981A0020DF
:107490003036010860010020CD700008024B1A68E8
:1074A00018601046704700BFD01B00201FB504466F
:1074B00003F006FE03F046FD0E4B0F480F49104A3D
:1074C000009301900F4B029103920F490F4A10480D
:1074D00002F046FC642003F03FF9204602F058FC1D
:1074E0000C4802F079FE48F2042004B0BDE81040D8
:1074F00002F024BEFDAF000811B000087DB0000806
:10750000A5B00008C5700008B5700008BD7000087F
:10751000257100086001002038B5584D01244FF056
:10752000FF10AC7003F068FAE72003F0E1FA0220E4
:10753000FFF7BCFF00200146024602F0D9FCFF2005
:1075400002F0E2FD05F1C10001F097FD4C4B062869
:1075500014BFFF200020D8701C71494D474A29797B
:1075600019B192F8C740022C6CD992F8C700454B6C
:10757000454D434A0121032808BF1D461171404C67
:10758000207930B1414800F11801FFF743FE207126
:10759000F5E7012323713A490A7982B100240C717D
:1075A00020212B190B20224601F02CFD344B2034D6
:1075B0001979802C40EA01001871F1D1EBE791F9BB
:1075C000034001250D7124B12C48012480F8C840E6
:1075D0000FE02A4890F8C13023F0010180F8C11073
:1075E000274D2A79002AEFD0294801F03DFD287166
:1075F000F6E7224D95F8C83043B1214C0420E188CC
:10760000244A01F043FD85F8C800F2E7012185F81E
:10761000C9101A4D95F8C94044B1194A052011897D
:107620001D4A01F033FD85F8C900F2E72046FFF757
:107630003DFFFFF729FE10B1AC70204638BD4FF07A
:10764000FF3038BD00242C710F4D22462B190B2022
:10765000082101F0ABFC0A4B08341A7908280CBF4A
:1076600010464FF0FF30802C1871EDD1034991F88E
:10767000C740651C81F8C7506FE700BF981A00200B
:107680006001002041360108D91A0020C2360108E5
:10769000591B0020F23601084A56010870B5564CB5
:1076A000C4F8CC000020FFF701FF0123002084F87C
:1076B0003F302074FFF7E8FD064618BB4F4D298880
:1076C0002C4605291ED0FFF727FF28B94AF6CD36EC
:1076D0002E8003F041FEEDE72588052D88BF26802A
:1076E0002688701C208003F037FEBFF34F8F444C78
:1076F000444BE16801F4E06242EA0305E560BFF350
:107700004F8FFEE73C4B93F8C120082A0BD193F82A
:10771000C20088B993F8C31028290DD1374B1888B7
:10772000012829D155E03AB993F8C240192C03D168
:1077300093F8C330942BF0E7334A2F4B117A9078AB
:107740000824527A83F8C14083F8C51000242F49D9
:1077500083F8C24083F8C4002824012083F8C34082
:1077600083F8C6200871294C2279002AD6D02848EF
:1077700001F07AFC2071F6E70E2010210022254B43
:1077800001F014FC102824D11B4C6279AAB994F89A
:107790002E301BB9012084F840000EE094F82F0031
:1077A00058B90146012202F0A3FB0121234603F848
:1077B0002F1F0E200A4601F025FC0F494A799AB97D
:1077C00091F8403083B1FFF78FFDBDE87040FFF7BF
:1077D00073BDFF20094C02F097FCFFF793FD0021D9
:1077E000218003F0B9FDCFE74FF47F4003F004F9A7
:1077F000E72003F07DF9E6E7981A0020B6020020A2
:1078000000ED00E00400FA05E8F7FF1F600100202A
:10781000591B0020C61A00202DE9F3419C4C04F0AE
:107820001BFD0023C4F8D03094F8D40048B994F874
:10783000D51031B9A26882B3FEF716FFA468A04242
:107840002BD3934C94F83F00002841D00025A5711C
:10785000A5602573C4F8D85084F8D450012684F864
:107860003F506573A573E573657402F0C7FA6FF056
:107870007F40267403F0C0F8E72003F039F9642054
:1078800002F06AFF94F8401011B3284602F080FA23
:1078900084F83F60FFF750FD1AE07D4C94F83F30CC
:1078A000B3B9607928B9FEF7DFFE00F5EA4130315F
:1078B000A160002002F06CFA012200234FF47F4007
:1078C00084F83F20237403F097F8E72003F010F9C1
:1078D0006F4C94F8402012B1FFF72EFD04E063795D
:1078E00013B1267B35460EB369480179012914D1BD
:1078F000047B012C11D18279012A0ED10324654821
:107900000BF04CFC634982B2012002F0EFF9631ED8
:1079100013F0FF04F3D15E4804715D4C217B2346D4
:10792000E1B194F8D520002A76D017E031463246EE
:107930003046A66002F0DCFA57480BF02FFC574F98
:10794000804638460BF02AFC00970190791F0320EF
:107950004246334602F068FA6671C5E793F8DF00E5
:1079600020B14F4800213A220AF0B0FF484B93F86B
:10797000162132B9587B00285AD19B7B002B57D156
:10798000BEE01C7B04B393F8D500E8B9597B00290D
:107990005FD019E0234603F8312F0E200121032286
:1079A00001F030FB3A4C00254FF6FF70257403F0D0
:1079B00023F8E72003F09CF8FEF7AEFAA84273DB49
:1079C000C4F8D85001236373314C617B002900F067
:1079D0009780A27BBAB9FEF721FA002811D002DA0B
:1079E0004FF47F0007E0012801D12E4803E0022870
:1079F00003D14FF0FF1002F0FFFFE72003F078F80B
:107A000001E00120A073FEF7CDF9002878D1204BCA
:107A1000D8739873587373E094F8DF100029A5D1D8
:107A2000642002F099FE04F1DC0001F0ADFA9DE75C
:107A3000FEF762FA164900224FF47F40CA738A7338
:107A40004A7302F0D9FFE72002B0BDE8F04103F02D
:107A50004FB85D7C002DA5D04FF47F0002F0CCFF25
:107A60000B4C627C002A95D0E72003F041F84FF4DC
:107A7000FA7002F071FEE72003F048F84FF4FA7054
:107A800002F06AFE657C691ECAB26274E8E700BF54
:107A9000981A00206A010020710100207601002060
:107AA000741B00200060FF0094F8D43043BBD4F86E
:107AB000D800411C0229C4F8D81002D1012284F850
:107AC000D420FEF7E7F900280F4C0BDAD4F8D800E1
:107AD000411C0229C4F8D81002D1012284F8D42014
:107AE000022300E003236374074C0121607C2346DA
:107AF00003F8310F03220E2001F084FA002362E71D
:107B000002B0BDE8F08100BF981A002013B5084C00
:107B1000002100910A460B462046FEF7A1FE0549CA
:107B2000054A204602B0BDE810400AF00DB900BF7A
:107B3000B01B002011510008900C0020704708B5C0
:107B4000012003F087FFFEE708B5032003F082FF62
:107B5000FEE708B5042003F07DFFFEE708B5052029
:107B600003F078FFFEE770477047704708B503F0F1
:107B700035FDBDE80840FDF717BD000008B5024B14
:107B80000BB1AFF3008008BD0000000008B5024B48
:107B90000BB1FFF79BF908BDCD6E000808B5024B8D
:107BA0000BB1FEF7EFFD08BD8567000808B5024B75
:107BB0000BB1FEF7E8FD08BD8767000808B5024B6A
:107BC0000BB1FEF723FF08BD0D6A000808B50120C0
:107BD00004F0F4F938B1012004F000FA024B13B1BB
:107BE0000020FEF7FDFD08BDE167000808B5022092
:107BF00004F0E4F938B1022004F0F0F9024B13B1BB
:107C00000120FEF7EDFD08BDE167000808B504207E
:107C100004F0D4F978B1042004F0E0F90020064B18
:107C20000146188003F020F8044810210122BDE825
:107C3000084004F0FCBD08BDF01B0020002C0140F2
:107C400008B5082004F0BAF938B1082004F0C6F9E4
:107C5000024B13B10320FEF7C3FD08BDE167000826
:107C600008B5102004F0AAF938B1102004F0B6F9D4
:107C7000024B13B10420FEF7B3FD08BDE167000815
:107C800008B5202004F09AF938B1202004F0A6F9B4
:107C90000E4B13B10520FEF7A3FD402004F08EF932
:107CA00038B1402004F09AF9084810B10620FEF7D8
:107CB00097FD802004F082F938B1802004F08EF91D
:107CC000024911B10720FEF78BFD08BDE1670008EE
:107CD00008B54FF4005004F071F940B14FF4005072
:107CE00004F07CF9174B13B10D20FEF779FD4FF42A
:107CF000804004F063F940B14FF4804004F06EF925
:107D0000104810B10E20FEF76BFD4FF4004004F058
:107D100055F940B14FF4004004F060F9094911B140
:107D20000F20FEF75DFD4FF4006004F047F938B115
:107D30004FF4006004F052F9BDE8084002F096BC30
:107D400008BD00BFE167000808B50F48102104F026
:107D5000A7FDC0B10C48102104F0ADFD002003F0D8
:107D600045F828B9094B1A880A3290B2188008BD24
:107D700010210548002204F05AFD00200121BDE831
:107D8000084002F071BF08BD002C0140F01B00202C
:107D900008B5012004F07AFB50B1012004F088FB03
:107DA000044B0BB1FEF784FFBDE8084004F052BB62
:107DB00008BD00BFB16C000808B5022004F066FBE6
:107DC000B0B10C4B00224FF400301A7004F006F9E9
:107DD000012004F06BFA10B1012004F071FA04F0F4
:107DE00039FB022004F064FBBDE8084004F032BB1C
:107DF00008BD00BF6D1B002002F0C8BB00F062B8D8
:107E000038B514490B78012B23D1134A13680BB9E9
:107E10000B7038BD114C402B206881B205D9403021
:107E2000403B20601360402504E09DB2C318002051
:107E3000236010600A4A5018C0212A4605F098FABB
:107E40000120294605F09EFB0120BDE8384005F0E1
:107E500007BB38BD7C0C0020840C0020800C002067
:107E60007C0B0020094908B50020094B012208803D
:107E700003201A7005F0B2FB064B02461880064834
:107E80004FF48871BDE8084005F089BA340B002032
:107E9000300B0020320B0020360B0020074B1868F7
:107EA000052809D1064B1A68511C052A196003D10F
:107EB00000201860FDF7AEBC704700BF1C1C0020FE
:107EC000BC1B00203A4A38B511683A4B88B23A4D8B
:107ED00018801C882988214001F4007084B244B1C4
:107EE0004FF6FF5515609A78511CC8B29870FFF78D
:107EF000D5FF304C304B25881A882A4002F40041C7
:107F000088B225461C4608B105F06CF92A882388FA
:107F1000134003F4806188B230B1254B27494FF6F6
:107F2000FF321A6048688047224A234B11881B8819
:107F3000194001F4005081B219B11D494DF6FF708E
:107F400008601288134003F4805398B230B1184A85
:107F50004EF6FF711160002003F038FD154B1649F5
:107F600018880A88024002F4006398B260B114498C
:107F70000A7812B103F00AFD02E0022003F026FDA8
:107F80000B4B4FF2FF7018600A490B480A880388B0
:107F9000134003F480718AB242B1054B4FF6FF6083
:107FA00018600720BDE8384003F010BD38BD00BFA1
:107FB000445C0040C01B0020082600200C0200206A
:107FC000DC020020034B987A10B1034905220A60B5
:107FD000704700BFE42500201C1C0020014B042238
:107FE0001A6070471C1C0020034B1A78202A01D10C
:107FF00000201870704700BFC41B002070470000AD
:10800000212810B508D111480368197801F07F02C2
:10801000212A11D0022010BD2028FBD10B4B19685A
:108020000A780B4902F07F030A4A212B0CBF0B464A
:10803000002310700BB9EDE7074B044C20680024B7
:108040008361448220469847204610BD04260020C4
:10805000A9800008C41B002091800008074B196804
:108060000A7802F07F03212B05D1022801D10020DC
:1080700070472228FBD00220704700BF0426002052
:1080800009B1022070470128FBD80846704700005C
:1080900020B9034B082219680A82704701487047CB
:1080A00004260020D401002020B9034B08221968BF
:1080B0000A8270470148704704260020D40100203E
:1080C000054B1968CA78042A04D8044B03EBC20193
:1080D00004F008BE0020704704260020DC010020C8
:1080E000014904F0FFBD00BFFC010020014904F07C
:1080F000F9BD00BF04020020334A344BD17918681F
:1081000010B5002441728472C472204605F05AF9F9
:1081100020464FF4007105F05DF91021204605F06E
:1081200065F94021204605F001FA8021204605F03E
:10813000EDF9204605F0B6F9254B204693F864107A
:1081400005F02EFA204605F09CF90120214605F0A5
:1081500041F90120C02105F0D9F90120202105F0C5
:1081600045F90120214605F05EF902204FF4C06177
:1081700005F030F902204FF4807105F0C7F90220B4
:10818000214605F050F90220202105F02FF90320A7
:10819000214605F01FF903204FF4887105F0C6F958
:1081A0000320402105F0FCF903204FF4405105F075
:1081B0003AF90320214605F019F9204604F0A4FFFE
:1081C000044A0120106010BDEA6C0108042600205A
:1081D000D40100201C1C002010B5FDF767FB054BE7
:1081E00000241868847203F0B9FB05F00DFA024907
:1081F0000C6010BD042600201C1C002038B504466D
:108200000D46FEF703FF204625614FF41651FEF799
:1082100007FF204638BD70B506460D4600242846A7
:108220000AF0BCFF844208D2295D3046FEF7E2FE28
:10823000012002F091FA0134F1E770BDF8B504466F
:108240000E46174600252046FEF7DAFE0028FADD26
:108250002046FEF7D9FEBD42C1B206D100233370DD
:1082600020461149FFF7D7FF14E00D29F6D00A295F
:10827000F4D0082901D07F2904D1002DE3D0013E9C
:10828000013D02E006F8011B01352046EDB2FEF784
:10829000B1FED8E72046FEF7B3FE002803DD2046F6
:1082A000FEF7B2FEF6E7F8BDFD970108F0B585B020
:1082B0000446FEF7A5FE002840F39D802046FEF709
:1082C000A3FEC0B2772867D104F114060021212251
:1082D000304604F135050AF0F9FA0021412228461A
:1082E0000AF0F4FA04F17607002284F8762020469A
:1082F0007A704249FFF78FFF204631462022FFF770
:108300009DFF20463E49FFF786FF39460122204661
:10831000FFF794FF94F87630A3F130010329F0D8E9
:10832000312B0BD120463749FFF775FF20463649E0
:10833000FFF771FF20463549FFF76DFF94F876008F
:10834000B0F1300708D020463149FFF764FF2046DE
:1083500029464022FFF772FF20462E49FFF75BFFB8
:1083600023693A4630462946984720462A49FFF76E
:1083700052FF20462949FFF74EFF20462849FFF7C4
:108380004AFF20462749FFF746FF20462649FFF7C8
:1083900042FF2046254929E069282CD1244A01AB17
:1083A00010685168002503C391682046196021496F
:1083B000FFF731FF01AEAE5D300900F13001392920
:1083C00088BF00F1570106F00F062046FEF712FEA7
:1083D00006F13001392988BF06F1570120460135E1
:1083E000FEF708FE0C2DE5D11349204605B0BDE887
:1083F000F040FFF710BF05B0F0BD00BF5196010877
:108400005896010885960108BB960108E696010872
:108410002C970108379701087A9701089A97010865
:10842000CD970108009801083F980108709801084D
:10843000E8F7FF1F86980108FD97010813B5084C5F
:10844000002100910A460B462046FEF709FA05492D
:10845000054A204602B0BDE8104009F075BC00BFD7
:10846000C81B002011510008900C0020002100F0D2
:1084700004B80E4B5B58435004310D480D4B421865
:108480009A42FFF4F6AF0C4A00F003B8002342F81A
:10849000043B0A4B9A42FFF4F9AF03F0E1F9FCF711
:1084A000BDFFFDF73FFAFDF707F870471C9A01087A
:1084B00000000020200B0020200B002014260020AC
:1084C000FFF7FEBF01700B0A0A0C090E43708270A1
:1084D000C170043070470170090A41700230704762
:1084E00043185A78405C00EB022188B2704710B5FF
:1084F00043189A78DC78415C120402EB04625878E5
:10850000521802EB002010BD73B544790023022CF1
:1085100001930FD0032C19D0012C2BD1164D2869B3
:108520002E4620B1296901A888470246B8B9B1682A
:1085300001201BE0104DE8682E4620B1E96801A833
:108540008847024658B9B16802200FE00A4D6A69AF
:108550002E464AB16B6901A89847024620B1A96826
:108560002046BDF8043003E0B16803200022134622
:1085700000F02AFC7CBD00BF4C1D0020072830B550
:1085800012D8012910D8EFF3108472B6012505FA2C
:1085900000F501FA00F0054B1A6822EA05020243D1
:1085A0001A60E30700D462B630BD00BF6402002049
:1085B000F0B5012187B00546FFF792FF00F4804334
:1085C000044698B250B3B4F5824F27D1284605210E
:1085D000FFF786FF0026074607353446BE4208D01F
:1085E00028460221FFF77CFF013624180435B6B275
:1085F000F4E7744B188E21188AB21A86D86B2418A7
:10860000DC63D96B9A6B914240F0CE8093F84000C6
:10861000002800F0C9809B69992033E024F4FF41D1
:1086200021F07F0290B2002800F09B8048F21002F7
:1086300094422AD00CD8B4F5004F40F2C08048F2E2
:1086400002039C4217D9991C8C4240F0B88012E07A
:1086500048F2800084420ED005D848F2400294428D
:1086600040F0AD8051E0B4F5024F04D0B4F5084FAE
:1086700040F0A5806CE053498869002800F09480A0
:108680008B69204600210A4669E00023EA185179E7
:108690000DF803100133042BF8D1687A2B7BAA7AEA
:1086A000E97A8DF804008DF807308DF805208DF8F3
:1086B000061005F10D00002306AAD218C15C013393
:1086C000042B02F8101CF7D105F11100002306AAB3
:1086D000D218C15C0133042B02F80C1CF7D105F150
:1086E0001500002300AAD218C15C0133042B1174B9
:1086F000F8D1344928798A698DF81400002A53D0BA
:108700008B6920466946152229E005350021284657
:10871000FFF7EDFE042100902846FFF7E8FE082150
:1087200001902846FFF7E3FE0C2102902846FFF750
:10873000DEFE102103902846FFF7D9FE214B04905E
:108740009969002930D09B6920466946142206E0C9
:108750001C48826942B38369691D204601229847FB
:1087600022E041F203039C4205D00C339C4202D02C
:10877000591E8C421AD16C1D04212046FFF7B7FE0A
:1087800039301CD12D790F480021C5622046FFF7F2
:10879000AEFE042105462046FFF7A9FE393003D17D
:1087A00028460121FFF7EAFE012009E0054A138867
:1087B00099B28C4204D0B4F5805FF5D100E000207E
:1087C00007B0F0BD4C1D002038B5104B5D88ADB230
:1087D000CDB158680478221F514251EB02042CB1EC
:1087E000FFF7E6FE003018BF012000E020460546F6
:1087F00020B944B1054B93F8412022B90348002128
:10880000418001F0DBFD284638BD00BF4C1D002033
:108810002DE9FF4704468946904602F0E7FE002511
:108820000190BC4B5A8890B2002840F0928003F02F
:1088300013FD02F0DBFE0290029901980A1A0392DE
:10884000039B002B03DA0199029842180392B24B62
:1088500019680029E5D003988842E2D3AD4A41F275
:108860000700138899B2814224D8421E91425FD2F8
:1088700040F2022399425BD00DD80C2906D8082972
:1088800056D200294DD0062952D959E00D294CD095
:1088900040F201220BE041F2020081424BD8B1F5D7
:1088A000805F45D8B1F5017F3FD940F20722914260
:1088B00037D13AE041F21103994236D014D841F24F
:1088C0000B00814234D005D841F2090291422FD0E9
:1088D00031D82AE041F20F0399422CD028D841F236
:1088E0000D0081421DD126E042F2060291421CD0C9
:1088F00007D8B1F5005F14D942F20403994214D9A4
:1089000021E0B1F5804F00F0F18105D8A1F50050CC
:108910000838012805D808E044F20B02914200F023
:10892000E5810B2003F096F8E0E1FF212170DDE105
:108930004FF0FF3105E04FF0FF3121606160D5E17C
:1089400000212160D2E1204600213A2209F0BEFF39
:10895000CCE15E683178042940F07D810121304608
:10896000FFF7BEFD05463046FFF722FE0146002810
:1089700040F0678141F20700771D854250D8411EC3
:108980008D4280F0AF8040F20222954200F0AA8032
:1089900011D80C2D09D8082D80F0A480002D00F0EE
:1089A0005081062D40F29E80E9E00D2D00F0978069
:1089B00040F201237EE041F202039D4218D8B5F552
:1089C000805F00F28F80B5F5017F40F2888040F231
:1089D00007218D4240F035813079002104F8010BE8
:1089E0003846FFF784FD01462046FFF76BFD28E17E
:1089F00041F20402954200F0988040F2AF80384680
:108A00000021FFF774FD042120603846FFF76FFD59
:108A10006060083406F10D07234606F11D017DE074
:108A200041F2110295425AD02CD841F20B039D42DB
:108A300058D01CD841F209018D4253D000F29A80DF
:108A400000213846FFF753FD042120603846FFF728
:108A50004EFD082160603846FFF749FD0C21A060FB
:108A60003846FFF744FD04F10C0AE060E8E041F20B
:108A70000F02954272D03BD841F20D039D4240F067
:108A8000E08052E042F20500854200F09C8008D868
:108A900041F21202954238D0B5F5005F40F2D18024
:108AA0001DE042F209018D4208D84F1EBD4216D288
:108AB00042F206039D4240F0C48010E044F20B00F5
:108AC000854240F0BE807279DFF848A03846012127
:108AD000AAF83020FFF704FDAAF83200B1E031799E
:108AE0002170AEE038460021FFF701FD2060A8E0CC
:108AF00000213846FFF7FBFCA2464AF8040B04218C
:108B00003846FFF7F4FC60609AE03846FFF7E8FC6F
:108B1000208096E04C1D0020D01B002057F8040B4D
:108B20008F4243F8040BF9D18BE000213846FFF760
:108B3000DEFC042120603846FFF7D9FC0821606084
:108B40003846FFF7D4FC04F1080AA060E46814F189
:108B5000390375D10121FFF711FD71E0002138467D
:108B6000FFF7C5FC042120603846FFF7C0FC6060B9
:108B7000083466E0307920713F68276061E038464C
:108B80000021FFF7B4FC042120603846FFF7AFFC5A
:108B9000082160603846FFF7A3FC0A21A060384630
:108BA000FFF79EFCC4F80A000C3406F111032746B7
:108BB00006F1350153F8040B8B4247F8040BF9D149
:108BC0001A883A803DE077187B7963540131042993
:108BD000F9D106F109000027C15DE2190137042F20
:108BE0001171F9D106F10D000023C15CE2180133C7
:108BF000042B1172F9D106F111070022B85CA118FB
:108C00000132042A0873F9D106F115070023F85C34
:108C1000E1180133042B0874F9D106F1190700217A
:108C2000785C6218013106291075F9D106F11F0729
:108C30000023F85CE2180133202B9076F9D100E094
:108C400054462C4F388882B2954236D100233B805F
:108C500087F8413031E0DF8EBBB273B33046032179
:108C600096F802A0FFF73CFC0746B9F1000F0CD0C4
:108C70000421701DFFF73BFC0246C8F8000006F116
:108C800015014846D2B209F09BFCCAEB0707781ED3
:108C9000B0F5806F07D20AF10501204671183A46F7
:108CA00009F08EFC01E04FF0FF37B8F1000F01D062
:108CB00088F800700F4B0022DA860E4F0020788073
:108CC00001F07CFB3278042A05D1B5F5805F02D132
:108CD0003046FFF719FC3B8899B200297FF4A1AD1B
:108CE0000448C28E93B2002B7FF49BAD002004B0E9
:108CF000BDE8F0874C1D002007284FF001030ED877
:108D0000EFF3108272B603FA00F006490B681842BE
:108D10000CBF00200120D10702D462B6704718466C
:108D2000704700BF64020020034B188008460021F2
:108D30000A46FFF76DBD00BF4C1D002010B5034B68
:108D40000124DC86BDE81040FFF762BD4C1D002009
:108D500038B50346154601224A710C46881D19464E
:108D6000FFF7B9FB291D0570204601F095FB002097
:108D700038BD38B5BDF814500C469B18A071E818E2
:108D800085B202216171E271294604F10800FFF702
:108D9000A2FB6A1D204691B201F07EFB002038BD87
:108DA00038B59B180C469DB202216171A071E27129
:108DB000294604F10800FFF78EFB6A1D204691B298
:108DC000BDE8384001F068BB2DE9F0471D4605F1CC
:108DD000020A032301F107091FFA8AFA88714B710D
:108DE0000C46484651461746FFF775FBB5F57A7FA6
:108DF000804613D82946FFF76EFB29464046FFF709
:108E00006AFB394604F10B002A4609F0D9FBA91D7B
:108E1000204689B2BDE8F04701F03EBB4FF47A76B8
:108E2000B5FBF6F10AEB410291B2FFF754FB314674
:108E30004046FFF750FB394604F10B00324609F07B
:108E4000BFFBA5F57A75204640F2EE31ADB2BF19F1
:108E500001F022FBB5F57A7F05D9A5F57A7085B2C8
:108E60004FF47A7601E02E460025A046394628F8D0
:108E7000056F4846324609F0A3FBB31C404699B241
:108E8000BF1901F009FB002DE4D1BDE8F087000017
:108E9000F7B51A4C1E46A468FF238DF8073000254D
:108EA000475D63190135042D5F72F9D100200D5C17
:108EB0002318013004285D73F9D10021505C631838
:108EC000013104295874F9D104F115000021FFF78C
:108ED000F9FA0022B35C83540132042AFAD1214604
:108EE000142242F20100FFF733FF42F201000DF1BC
:108EF0000701FFF719FF9DF90700FEBD4C1D00207B
:108F00002DE9F34106460C461E4831681546D0F857
:108F100008804A1E1F46FF23082A8DF8073008F1F3
:108F2000090001D80A23336021684A1E082A01D8A3
:108F30000A23236029684A1E082A01D80A232B60C5
:108F400039684A1E082A01D80A233B603168FFF7B6
:108F5000B9FA2168FFF7B6FA2968FFF7B3FA39685A
:108F6000FFF7B0FA4146142242F20900FFF7F0FE83
:108F700042F209000DF10701FFF7D6FE9DF9070047
:108F8000BDE8FC814C1D002038B5074B42F20504BA
:108F90000546996820460022FFF7DAFE204629465A
:108FA000BDE83840FFF7C0BE4C1D00202DE9F3415D
:108FB000864613480D46866871461F4602ACFF235D
:108FC00006F1090004F8053D9046FFF77BFA2946B3
:108FD000FFF778FA40F201254146FFF773FA0C22B9
:108FE00031462846FFF7B4FE28462146FFF79CFE8F
:108FF0003846002101AAFFF7A1FE0198BDE8FC81D7
:109000004C1D00202DE9F341864616480C46866823
:109010007146984602AD4FF0FF3306F10A0045F85D
:10902000043D1746FFF74EFA0C21FFF74BFA214695
:10903000FFF748FA3946FFF745FA4146224606F15E
:109040001A0009F0BDFA902031461022A3B2FFF7B2
:10905000A7FE40F202202946FFF766FE0198BDE810
:10906000FC8100BF4C1D002008B5034606200146C8
:109070000022FFF7C7FFC0B208BD08B503460620AF
:1090800001460022FFF792FFC0B208BDF8B50646C0
:109090000D4617460C467B192A1B1F2CC4EB0303F5
:1090A00092B208D930462021FFF7ACFFC0B2203C75
:1090B0000028F0D007E02CB130462146FFF7A2FF90
:1090C000C0B2F8BD2046F8BD37B50B4B40F20725BE
:1090D0000446996800222846FFF73AFE284669466A
:1090E000FFF722FE9DF803009DF8041020706170C8
:1090F0009DF800003EBD00BF4C1D002037B50D4A55
:10910000034695680C4605F109001946FFF7DAF9A0
:10911000214640F20324FFF7D5F9294608222046CC
:10912000FFF716FE20460DF10701FFF7FDFD9DF844
:1091300007003EBD4C1D00202DE9F0430023CA5C12
:10914000C2540133102BFAD10022334B467B9918BD
:1091500091F8018004789F19F97A88EA0405847BE4
:1091600085EA01081D194178EF7A90F80CC04F404C
:10917000C17B80F810805D1895F80B90857863446A
:1091800089EA050593F80B90C378477489EA0303CD
:1091900090F80490FFB288EA090890F80590857469
:1091A00087EA090790F80690EDB285EA090590F87C
:1091B0000790C374DBB283EA090390F8089080F843
:1091C00014805FFA88F888EA090890F809904775D2
:1091D000FFB287EA090790F80A908575EDB285EA33
:1091E000090590F80B90C375DBB283EA090388EA9E
:1091F0000C0C7E406C405940013280F81880477654
:109200008576C37680F81CC046778477C1771030A6
:109210000A2A9AD1BDE8F0833F6D010810F0800F53
:109220004FEA400018BF80F01B00C0B2704700003A
:109230002DE9F04F037891F8A0A004468AEA030ACA
:1092400080F800A091F8A1204078A77882EA000574
:10925000657091F8A260E07886EA0703A37091F840
:10926000A32097B0059582EA0005E57091F8A490D7
:109270002679069389EA060984F8049091F8A57086
:109280006379079587EA0302627191F8A600A579D0
:10929000E37980EA0506A67191F8A7700C9287EA37
:1092A000030B84F807B0227A91F8A880607A88EAE4
:1092B000020884F8088091F8A97008964740677200
:1092C00091F8AA50A67AE07A85EA0603A37291F88B
:1092D000AB20267B82EA0005E57291F8ACC00993C9
:1092E0008CEA060C84F80CC091F8ADE0637BA27B9D
:1092F0008EEA030E84F80DE00D9591F8AE50E07BF8
:109300005540A57391F8AF204B4B4240E2739A440D
:1093100091F890009AF80B6199444640267091F8B4
:10932000940099F80BA198448AEA0006267191F8F6
:10933000980098F80B919C4489EA000626729CF8E4
:109340000BA191F89C009E448AEA00062673DF195F
:109350009EF80B8197F80BC191F8910091F89D60F0
:1093600088EA00098CEA060060730C9FDDF814A0FF
:10937000DE1996F80B0191F89970DDF8208080EAEB
:109380000706667203EB0A0091F8956090F80B717E
:1093900084F8019087EA0600607103EB0800DDF8AD
:1093A00018E090F80B91099803EB0E0703EB000E01
:1093B0009EF80BC191F8920091F89A6097F80B71A2
:1093C0008CEA000A77405D1991F89E6084F802A04B
:1093D00091F8960095F80B81A772079F88EA00051F
:1093E00089EA0606A673A571DE1996F80B0191F8B5
:1093F0009F5003EB0B0791F89360454097F80B01E2
:109400009A1880EA06070D98E7701E1896F80B71F7
:1094100091F897004FF0090B87EA0006E67191F882
:109420009B3092F80B71E57387EA0300E0720D46FA
:10943000CDF840B002E000BF3F6D010894F8009005
:10944000A77887EA0900FFF7E9FEFFF7E7FE94F83F
:109450000180E678824686EA0800FFF7DFFEFFF724
:10946000DDFE8AEA070380EA080227797040A679C0
:109470008AEA09015FFA80F886EA07005FFA82FB50
:109480005FFA83FA5FFA81F903970296FFF7C6FE47
:10949000FFF7C4FEE6796779014686EA0700049182
:1094A000FFF7BCFEFFF7BAFE039B049A94F808C0CE
:1094B00082EA0301CBB2029947404A40A17A704048
:1094C000C6B2059381EA0C00D3B20291CDF804C074
:1094D00006930796FFF7A2FEFFF7A0FE637AE67AEF
:1094E000024686EA030003930492FFF797FEFFF714
:1094F00095FE049ADDF804C0039B82EA0C015FFA32
:1095000081FC80EA0301CBB2029909934A40D3B2AD
:10951000CDF820C00A9394F80CC0A17B7040C6B26D
:1095200081EA0C000291CDF804C00B96FFF776FE9D
:10953000FFF774FE637BE67B024686EA0300039333
:109540000492FFF76BFEFFF769FEDDF804C0049A92
:10955000039B82EA0C015FFA81FC80EA0301CBB233
:10956000029970404A40C6B288EA0A018BEA0900B3
:109570000D93D3B20E930291CDF830C00F9681EACD
:109580000006FFF74BFE89EA000286EA020C5FFA4A
:109590008CFC8AEA0B0084F800C0CDF804C0FFF709
:1095A0003DFE8BEA000386EA030B02995FFA8BFC0F
:1095B00084F801C00846CDF844C0FFF72FFE8AEAC0
:1095C000000286EA020A5FFA8AFB88EA090084F848
:1095D00002B0CDF848B0FFF721FE88EA0000DDF8C0
:1095E00018900599079A4640FFB2F6B282EA090838
:1095F00087EA0100E670139688EA0006FFF70EFE80
:10960000059B584086EA0001CAB24846227178405C
:109610001492FFF703FE474086EA0703D8B215907D
:1096200060714046FFF7FAFD89EA0001059B86EA72
:1096300001020798D7B25840A7710697FFF7EEFDD1
:109640000799089A48404640F6B20A9F0596E67187
:1096500009980B9E50407E4086EA0007FFF7DEFD2A
:10966000DDF820A08AEA000387EA030C5FFA8CF891
:1096700084F8088009990A984840FFF7CFFD099AB5
:10968000504087EA000B5FFA8BF9304684F8099066
:10969000FFF7C4FD0A9E524686EA000387EA0301EB
:1096A0000B985FFA81FB504084F80AB0FFF7B6FDD3
:1096B000DDF82CA00E998AEA00000C9E47400F9B13
:1096C0000D98FFB24B407040E77283EA000A0293A4
:1096D000FFF7A4FD0C9A0D9B50408AEA00060E98F5
:1096E000F6B226735840FFF799FD0D99029B81EA67
:1096F00000028AEA0200C1B2617318460391FFF7C3
:109700008DFD0E9A0C9B50408AEA00010F98CAB258
:10971000A27358400492FFF781FD0F99514B4840C6
:109720008AEA000C5FFA8CFADDF804C084F80FA016
:1097300003EB0C0295F8800092F80B11DDF850C095
:1097400081EA0002227003EB0C0195F8840091F885
:109750000B219E1982EA000103EB0802217195F8A2
:10976000880092F80BC196F80B218CEA0001217257
:1097700095F88C00039E82EA000121739A1995F8EE
:10978000811092F80B0103EB090680EA010295F8BB
:109790008D0096F80B11DDF844C081EA000615999A
:1097A0006673581890F80B6195F88910DF1986EAEE
:1097B0000100607203EB0C0695F8850096F80B111A
:1097C0006270129A81EA000666719918DDF818C075
:1097D00095F88A6091F80B0103EB0C0295F88E1056
:1097E000704092F80B6103EB0B02714092F80BC1D1
:1097F00095F882608CEA0602049EA2709A1992F88B
:109800000B6195F886205640A671A0721398A1733B
:10981000191895F88F2091F80B61DDF814C072408B
:1098200003EB0C0695F8831096F80B01534448405F
:10983000E07095F8871097F80B014840E07195F8B3
:109840008B0093F80B11E273109A81EA0003511E0A
:10985000103D11F0FF00E37210907FF4EFAD17B0F0
:10986000BDE8F08F3F6D010838B5054C0546204630
:10987000FFF762FC28462146BDE83840FFF7D8BC18
:10988000581C0020034610210C200022FFF78EBB3D
:10989000034610210C200022FFF7B4BB30B585B081
:1098A000054601F0A3FE0190194CE36A4BB108F0A4
:1098B00067FAE26A02600020E06208F061FA01885B
:1098C00023E02846FFF718FA10B14FF6FF711CE0AD
:1098D00001F08CFE0290029A0198111A0391039BE9
:1098E000002B03DA0198029A11180391094B03988F
:1098F0001A689042E9D20649088E83B2002BD3D071
:109900000A8E501E83B20B86002108B205B030BD0E
:109910004C1D0020D01B0020F7B5034614480D460F
:1099200086681946174602AC4FF0FF3206F109006F
:1099300044F8042DFEF7C6FD2946FEF7C3FD41F2AB
:1099400001053946FEF7BEFD0C2231462846FFF7D9
:10995000FFF921462846FFF7E7F908F011FA0199C7
:10996000016008460021FEF709FEBDF90400FEBDB6
:109970004C1D0020F7B5054610484FF0FF338768AF
:1099800002AC294641F20B0607F1090044F8043DF8
:10999000FEF798FD042239463046FFF7D9F92146F3
:1099A0003046FFF7C1F908F0EBF90199016028464C
:1099B0000121FEF7E3FD0198FEBD00BF4C1D002014
:1099C000F7B50C460746164608F0DAF94FF0FF33B4
:1099D000E62C036023D814480821856805F10900A6
:1099E000FEF770FD2146FEF76DFD0021A14203DA6E
:1099F0007A5C42540131F9E704F10802D2B22946F7
:109A000041F21000FFF7A4F9694641F21000FFF798
:109A10008BF908F0B5F90099019B0160336008F0FB
:109A2000AFF9008800B2FEBD4C1D002037B50346DB
:109A300013484FF0FF3284680D4604F109001946BF
:109A40000192FEF73FFD0821FEF73CFD0821FEF7DD
:109A500039FD0023E95CC1540133082BFAD11422EB
:109A6000214641F20700FFF773F901A941F207000F
:109A7000FFF75AF908F084F9019A026010463EBDDA
:109A80004C1D00202DE9FF411D46314B8646D3F881
:109A900008800F4608F10900714616460A9CFEF739
:109AA00011FD1421FEF70EFD1421FEF70BFD14210C
:109AB000FEF708FD1421FEF705FDD4F1010138BFC2
:109AC0000021FEF7FFFC0FB1396800E03946FEF7D0
:109AD000F9FC0EB1316800E03146FEF7F3FC0DB140
:109AE000296800E02946FEF7EDFC74B1216839B918
:109AF000636841F287329342DCBF41F2883363608E
:109B0000FEF7E0FC6168FEF7DDFC2C22414641F2E5
:109B10000800FFF71DF9694641F20800FFF704F954
:109B2000009900290ADB0FB1019A3A600EB1029B3D
:109B300033600DB10398286088B205E008F020F981
:109B4000009B03604FF6FF7000B204B0BDE8F081E7
:109B50004C1D00202DE9FF419846194B86469E6812
:109B600015460F4606F1090071460B9CFEF7AAFC4C
:109B70002946FEF7A7FC4146FEF7A4FCBDF830508D
:109B80000C2231462846FFF7E3F8284601A9FFF7E3
:109B9000CBF8029800280ADD0A9938466A46FFF792
:109BA000CDF8009904B121600029D8BF029108F0D6
:109BB000E7F8029A026010B204B0BDE8F08100BF7D
:109BC0004C1D00201FB500240094019441F20404B0
:109BD0000294FFF7BFFF04B010BD00002DE9F04F65
:109BE000844689B000B2CDF808C0039115469B4663
:109BF000139E149CFFF752FEDDF808C0002858D1D0
:109C00002E4B9A6B511C9963D3F80890812C09F163
:109C10000A0307D0832C0AD105F1080A09F12208AA
:109C2000182704E009F11A08102706461290614629
:109C30001846FEF747FC391FFEF744FC2946FEF79D
:109C400041FC5946FEF73EFC832C05D15146FEF7F8
:109C500039FC0821FEF736FC0021A94205DA0398F9
:109C6000425C08F801200131F7E7002DA8BFA844A5
:109C7000832C0ED0129AB6B200920196E0B24946F9
:109C80003A46ABB2FFF775F8832C0BD141F20F00C7
:109C90000AE00020B042EDDA12990B5C08F80030BF
:109CA0000130F7E741F2030005A9FFF73DF8BDF8E1
:109CB000180000B209B0BDE8F08F00BF4C1D0020B5
:109CC0001FB500240094019481240294FFF786FFBD
:109CD00004B010BD1FB5069C0094079C019483241A
:109CE0000294FFF77BFF04B010BD0000202A73B57B
:109CF00003460E46144625D8144A1946956805F1C0
:109D00000900FEF7DFFB0821FEF7DCFB2146FEF72A
:109D1000D9FB0022A24203DAB15C81540132F9E797
:109D200004F10C03DAB2294641F21100FFF710F8F2
:109D300041F211000DF10701FEF7F6FF9DF9070052
:109D400083B201E04FF6FF7318B27CBD4C1D0020BA
:109D5000024B01225A805860FEF736BD4C1D002090
:109D600010B50A4CE16022616361029B0399E361D3
:109D7000049A059B216262620021A362A061012016
:109D800084F8400084F8411010BD00BF4C1D002035
:109D900070B5174B174D002406461748AC63EC63AB
:109DA0002C802C866C86AC86EC86EC626C806C60B9
:109DB000AB6000F0CBFAA968A64214BF0226264683
:109DC00001224E724FF48040FEF7C2FF21464FF44D
:109DD0008040FEF7A9FFA968224644F20B00FEF777
:109DE000B7FF44F20B002146BDE87040FEF79CBF70
:109DF000B81D00204C1D0020519D000838B5094CAD
:109E00000020A36A98472546E869064C8047002849
:109E1000FAD0A16809B10022A260BDE8384000F084
:109E2000BDBA00BF4C1D00202DE9F04F83462F48DE
:109E300085B0D0F80890144600259A4688464FF021
:109E4000FF331C2109F1090001930F9E0E9F02951B
:109E5000ADF80C50FEF736FB2146FEF733FB5946B2
:109E6000FEF730FB04F11001FEF72CFB3146FEF744
:109E700029FB2946FEF72FFBBAF1000F08D01AF88C
:109E8000052042550135062DF9D10630002207E0A4
:109E9000534602AA995CC1540133062BF9D1F4E769
:109EA000A24204DA18F8021081540132F8E7002CBB
:109EB000A8BF00193EB100232FB1B34203DAFA5C08
:109EC000C2540133F9E71C34A319DAB24946012020
:109ED000FEF73EFF01A90120FEF726FF07F050FF25
:109EE00001990160084605B0BDE8F08F4C1D0020C7
:109EF000F7B503460F480E4685681946174602AC6B
:109F00004FF0FF3205F1090044F8042DFEF7DAFAAC
:109F10003146FEF7D7FA3946FEF7D4FA29460C2225
:109F20000420FEF715FF04202146FEF7FDFE0198F0
:109F3000FEBD00BF4C1D00202DE9F04F8346714847
:109F400085B0D0F808900D4614465946002209F114
:109F500009009A460E9F0F9E0292ADF80C20FEF764
:109F6000B1FABBF1030F00F2BE80DFE80BF0022F65
:109F700076761421FEF7A6FA2146FEF7A3FA002111
:109F8000FEF7A9FABAF1000F07D000221AF8021062
:109F900081540132062AF9D106E0534602A95A5CDF
:109FA000C2540133062BF9D106303946FEF78AFA3E
:109FB0004FF00008A04506D015F8083000F808302A
:109FC00008F10108F6E708F118008AE02021FEF701
:109FD00079FA2146FEF776FA0021FEF77CFABAF10B
:109FE000000F07D000221AF8021081540132062A0D
:109FF000F9D106E0534602AA995CC1540133062BFD
:10A00000F9D139460630FEF75DFA04F10C01FEF78E
:10A0100059FA3146FEF756FA1099FEF753FA002224
:10A02000A24203D0AF5C87540132F9E70019002245
:10A030000421129D8718AD180023B34205D015F8EE
:10A0400003E007F803E00133F7E701391A44F0D1E0
:10A0500004F1240C0CEB830043E02821FEF732FAD4
:10A060002146FEF72FFA0021FEF735FABAF1000F6C
:10A0700007D000221AF8021081540132062AF9D1C1
:10A0800006E0534602A95A5CC2540133062BF9D1AB
:10A0900039460630FEF716FA3146FEF713FA1099E4
:10A0A000FEF710FA1199FEF70DFA04F10801FEF718
:10A0B00009FA1399FEF706FA0021A14203D06A5C5F
:10A0C00042540131F9E70019002313998B4204D05F
:10A0D000129AD15CC1540133F7E704F12C0808EB64
:10A0E00003001FFA80F849465FFA88F20520FEF760
:10A0F0002FFE052001A9FEF717FE019805B0BDE867
:10A10000F08F00BF4C1D002037B50B4B01469D68FA
:10A1100002AC05F10900FEF7D5F94FF0FF3044F825
:10A12000040D294604220620FEF712FE06202146D1
:10A13000FEF7FAFD01983EBD4C1D002037B548F2F0
:10A14000080248F2080102408A42034613490BD133
:10A150000020934281F840001FD023F4004424F0F3
:10A16000080545F4004302E0012081F840000B4956
:10A170004FF0FF328D6802AC194605F1090044F832
:10A18000042DFEF79FF9294604220820FEF7E0FD82
:10A1900008202146FEF7C8FD01983EBD4C1D002059
:10A1A00073B50C4B01469D684FF0FF3602AC05F1CC
:10A1B00009000196FEF786F944F8046D2946042249
:10A1C0000A20FEF7C5FD0A202146FEF7ADFD0198E5
:10A1D0007CBD00BF4C1D002007B50D4A4FF0FF337A
:10A1E0000193916890B154234370037083704B7254
:10A1F00042788A7280780322C8720C20FEF7A8FD8C
:10A200000C2001A9FEF790FD019800E018460EBD54
:10A210004C1D00202DE9F041324886B0FFF732FB9B
:10A22000054600285AD1304E0D2043212A46334698
:10A23000FEF7BCFE432802D04FF0FF354EE03778E2
:10A24000284907F1030808EB06042046FFF70CFB3A
:10A250003378F6187078102804D904F110002149D9
:10A26000FFF702FBE17F204A21B112F808301F2BD3
:10A2700004D101E012F80830013400E02023107806
:10A2800011188A78032A29D8DFE802F0020E19197A
:10A290000020012500950190029003900490059004
:10A2A00012493A46034616E001208DE809000023D2
:10A2B00002930393049405930C493A460BE0012062
:10A2C00018211E2202258DE82700084905930494D1
:10A2D00003203A460023FFF72FFE0546284606B026
:10A2E000BDE8F081901D0020081D0020091D002000
:10A2F00000F0010383F0010003B962B6704700006B
:10A30000F8B50446EFF3108772B60E4E337A9C42CE
:10A3100009D0052C01D0012506E00B48C16988470A
:10A320000028F8D1347200253846FFF7E1FF054BCD
:10A3300015B15A69002AE5D05869D0F1010038BF3B
:10A340000020F8BDA01D00204C1D00200F4B10B5B3
:10A3500000220F490F4C1A721961DA80DA609A8074
:10A360001860A36A104698470B4800F0FDF9206A70
:10A3700080474FF47A7000F0F7F90120A26A904705
:10A380000120BDE81040FFF7BBBF00BFA01D0020AB
:10A39000B82100204C1D0020E093040010B5054CAE
:10A3A000636A98470020A16A884703480022026137
:10A3B00010BD00BF4C1D0020A01D0020024B4FF41B
:10A3C00080725A60704700BF00E100E02DE9F84359
:10A3D00007460E4614461D46EFF3108072B6DFF8AE
:10A3E0008080A4B298F80890FFF782FF002000F068
:10A3F000EDFD012037B93146224600F06FFD3846A9
:10A40000154906E0D8F81010224600F067FD00203C
:10A410003146224600F062FD10480221012201F07F
:10A4200068FD012000F0D2FD9DB1EFF3108072B6FF
:10A430000B4C257AFFF75CFFA945234602D16269E0
:10A44000002AF2D05869D0F1010038BF0020BDE8E1
:10A45000F8832846BDE8F8836802002058000240CF
:10A46000A01D0020CB074CBF0B464B1C10B5C3F3FF
:10A47000072444700024C4700471054C012202704A
:10A48000837084F84120034AD0609180581D10BD2C
:10A490004C1D0020A01D00202DE9F04104460D4672
:10A4A000EFF3108072B6384E377AFFF721FF17B1FD
:10A4B000012F2AD104E00120FFF722FF00285FD0FE
:10A4C000EFF3108872B60321377A317200F0A8FEDC
:10A4D0004046FFF70DFF20462946FFF7C3FF06461B
:10A4E000002F4DD0322000F03FF9012021460422F8
:10A4F0000346FFF76BFF002842D03220B5B200F0D0
:10A5000033F90120211D2A1F30E00220FFF7F8FE59
:10A51000002835D0EFF3108772B61B4B1E7AB21E9F
:10A52000504250EB020656B1EFF3108872B6042188
:10A530001A7A197200F074FE4046FFF7D9FE3846C9
:10A54000FFF7D6FE104B16B95A69002AE2D05869B7
:10A55000B0B920462946FFF785FF06460520FFF7DC
:10A56000CFFE68B1B5B2012021462A460346FFF767
:10A570002DFF002814BF28464FF0FF30BDE8F081C2
:10A580004FF0FF30BDE8F081A01D002070B54FF402
:10A59000003001F0B9FC324C05464FF4005001F098
:10A5A000B3FC237AD91E052954D8DFE801F03D53C6
:10A5B0003D53032A002D52D0002850D04FF40830CC
:10A5C00001F0B0FC082020722469B4F80320C2F323
:10A5D000072343EA02218CB2002C40D0E10701D4CA
:10A5E000601C84B2B4F5806F02D90A2001F032FAFF
:10A5F0001B4A0020116903462246BDE87040FFF760
:10A60000E5BE00282BD04FF4083001F08BFC154B31
:10A6100002204FF480722072C3F8842000F0E6FC20
:10A6200021682069884770BDCDB10F48802101F0B5
:10A6300082FF0028F9D10A4C4FF4083001F072FC77
:10A64000237A032B01D1052102E000F0CFFC022187
:10A65000217270BD0B20BDE8704001F0FBB970BDE8
:10A66000A01D002000E100E0003800400E4B70B556
:10A67000D86980470546B0B90C4C217A022904D02C
:10A6800004290ED079B901220CE00723237200F0CF
:10A69000C7FD2169284605222B46BDE87040FFF71B
:10A6A00095BE0522227270BD4C1D0020A01D002009
:10A6B000BFF34F8F054A064BD16801F4E06040EAD2
:10A6C0000301D160BFF34F8FFEE700BF00ED00E054
:10A6D0000400FA050D4B0E4A197839B9D88881B2B1
:10A6E0001187188981B291879B8806E0D88981B249
:10A6F0001187188A81B291879B8906489BB29386FD
:10A70000FF21632202704170704700BFD41B0020FC
:10A71000002C0140700200204FF4407001F032BA6A
:10A720000A4B4FF47A701A68094BB2FBF0F10948F2
:10A730004A1EF0215A6080F82310002207219A60F7
:10A740001960D02380F82330704700BFC802002072
:10A7500010E000E000ED00E0024B18601A68002AEB
:10A76000FCD17047C425002007B50E4B0E4A59682E
:10A770000E4B009111684FF0FF32B1FBF3F1B2FBC9
:10A78000F1F3984228BF18464143019105484168BA
:10A79000009A019B881A984202D201F05DFDF5E70C
:10A7A0000EBD00BF001000E0C802002040420F00B4
:10A7B0007FB54FF4003001F011FC08204FF4003356
:10A7C000002501248DF80D00684402938DF80C508B
:10A7D0008DF80E4001F0B0FB04210DEB01000326C3
:10A7E0008DF805108DF804608DF806508DF807403F
:10A7F00001F0D2F9292201A88DF804208DF8056016
:10A800008DF806508DF8074001F0C6F9022001F0DE
:10A810004DFD28B1022001F053FD01F025FE18E0A6
:10A82000204601F065FD412001F0A4FD0028FAD08A
:10A830004FF4807001F06CFD012001F071FD01F01A
:10A8400013FE01F007FE47F6FF7001F0F3FD01F083
:10A8500001FE0320012101F0A9FD01F0FBFD7FBDF8
:10A8600010B5044645F2555001F0E4FC062001F015
:10A87000E7FC2820604340F6FF73010A994228BF95
:10A88000194688B201F0E2FC01F0E6FCBDE8104098
:10A8900001F0EABC082814D8012908D10B490C4A58
:10A8A00001EB8003596832F8100008610BE051B9E0
:10A8B000064B074A03EB80014B6832F810005861E1
:10A8C00001E0FF2300E0002358B27047700200202F
:10A8D0004C6F010873B50E4E8500731904460121B3
:10A8E000186901F02FFD0B4B36F8140010215D198B
:10A8F000ADF804008DF807100322686801A98DF8EF
:10A90000062001F0EBFB20460021FFF7C3FF7CBDD2
:10A910004C6F01087002002070B5012188B04FF41F
:10A92000006001F00FFD314B31481C686026B4FB1C
:10A93000F0F1304C01A88DB201F04CFF01A801F0FC
:10A9400049FF42F20F7201A9ADF8045020460025DC
:10A95000ADF80820ADF80A50ADF8065001F0F2FD50
:10A9600004A801F040FF0223ADF810602046012644
:10A9700004A9ADF81830ADF81260ADF81650ADF876
:10A980001C5001F029FE2046294601F065FF2046B3
:10A9900004A901F065FE2046294601F065FF204626
:10A9A00004A901F0A1FE2046294601F067FF2046D8
:10A9B00004A9ADF81050ADF81260ADF81650ADF81E
:10A9C000185001F0D3FE2046294601F05FFF2046D3
:10A9D000314601F035FF2046314601F00EFF20469A
:10A9E000314601F016FF08B070BD00BFC80200205C
:10A9F00040420F00002C014030B51049104A8C8DA8
:10AA000092F82420A5B26C1C5443C0F307456C4354
:10AA10000C4B240CDC808D8D5861ACB20134544356
:10AA2000C0F307256C43240C1C81898DC0B289B208
:10AA3000013148434243120C9A8030BD002C014042
:10AA400070020020D41B002030B51049104A8C8DB4
:10AA500092F82420A5B26C1C5443C0F307456C4304
:10AA60000C4B240CDC818D8D9861ACB201345443C5
:10AA7000C0F307256C43240C1C82898DC0B289B2B7
:10AA8000013148434243120C9A8130BD002C0140F1
:10AA900070020020D41B0020024B00221A70FFF726
:10AAA00019BE00BFD41B002037B50F4D044605EB7F
:10AAB0008003186B012105EB440501F043FCB5F858
:10AAC0004000ADF804000CB9102100E01821074B3C
:10AAD0008DF8071003EB84040322A06A01A98DF806
