:020000040800F2
:10C00000005000200DC1000805DB000807DB000818
:10C0100009DB00080BDB00080DDB00080000000056
:10C020000000000000000000000000000FDB00081E
:10C0300011DB00080000000013DB000815DB00081E
:10C0400059C1000859C1000859C1000859C1000868
:10C0500059C1000859C1000859C1000859C1000858
:10C060001DDB000859C1000859C1000859C100086A
:10C0700059C1000859C1000859C1000819DB00085E
:10C0800059C1000859C1000859C1000859C1000828
:10C09000B9DB000859C1000859C1000859C100089E
:10C0A00059C1000859C1000859C1000871DB0008D6
:10C0B00059C1000859C1000859C1000859C10008F8
:10C0C00059C1000859C1000859C1000859C10008E8
:10C0D00059C1000859C1000859C1000859C10008D8
:10C0E00021DB000859C1000859C100080000000008
:10C0F0000000000000000000000000000000000040
:0CC1000000000000000000005FF808F1E3
:10C10C00002100F004B80C4B5B58435004310B4831
:10C11C000B4B42189A42FFF4F6AF0A4A00F003B8F0
:10C12C00002342F8043B084B9A42FFF4F9AF01F0AC
:10C13C003FFD01F0C7F87047A81D01080000002062
:10C14C003C0700203C070020C0140020FFF7FEBF76
:10C15C0008B5064B00221860054906489A6019611B
:10C16C00DA80DA609A80036A984708BD7C07002061
:10C17C00900B00206C14002008B5044B1A690AB10E
:10C18C000020186102494B6A984708BD7C070020C3
:10C19C006C14002062B6704708B572B606484FF4AE
:10C1AC00805103F023F8054B022218699A60196834
:10C1BC000530884708BD00BF000C01407C070020FB
:10C1CC0070B50646002014460D4600F0D9FC012E31
:10C1DC00A4B207D130462946224600F059FC002073
:10C1EC00124907E0124B01201969224600F050FC5D
:10C1FC0000202946224600F04BFC0E480221012269
:10C20C0002F0A9FE012000F0BBFC0A4802F0ABFED4
:10C21C000028FAD1084802F0A6FE0028FAD10748F7
:10C22C00802103F0E7F80028F9D170BD0000002050
:10C23C007C070020580002404400024000380040B7
:10C24C0003460A4601201946FFF7BABF70B50646E9
:10C25C00002014460D4600F093FC012EA4B207D129
:10C26C0030462946224600F013FC0020104907E016
:10C27C00104B01201969224600F00AFC00202946C7
:10C28C00224600F005FC012000F07AFC0A4802F07E
:10C29C006AFE0028FAD1094802F065FE0028FAD19E
:10C2AC000748802103F0A6F80028F9D170BD00BF23
:10C2BC00000000207C07002058000240440002408F
:10C2CC000038004003460A4600201946FFF7BEBF5F
:10C2DC0070B50E4D04460E4628464FF4805102F0C0
:10C2EC0087FF002021460422FFF7B0FF0020211D0C
:10C2FC00321FFFF7ABFF064B022228464FF480514A
:10C30C009A6002F073FF002070BD00BF000C01406A
:10C31C007C07002070B501F00106044686F0010090
:10C32C000D18012300262370C5F307221D4BE67060
:10C33C0026716270A57005319D68081886B215B912
:10C34C009A68012AFCD19968164D012907D120461B
:10C35C003146FFF7BDFFAA68022AFCD11FE0A8688E
:10C36C000228FCD11048802103F044F80028F9D1B0
:10C37C000E4BDD69A8470028FAD00A4D03220C4861
:10C38C004FF48051AA60EC60AE8002F031FF074997
:10C39C00C86980470028FAD0AB68022BFCD100207A
:10C3AC0070BD00BF7C070020003800406C140020DA
:10C3BC00000C014070B5184E35696B79022B08D012
:10C3CC00042B25D1287A441E14F0010F18BF044603
:10C3DC0014E0681D032103F051FAB0F5806F044698
:10C3EC0008DB05F10A004FF480610724FFF728FFF2
:10C3FC00B4600EE0C30701D4441C00E024B105F185
:10C40C000A00A1B2FFF71CFF034908228A6000E072
:10C41C000024204670BD00BF7C070020024B012089
:10C42C0019690A22FFF7CCBE7C07002008B5FFF77C
:10C43C00C1FF18B9BDE80840FFF7AEBE08BD00004B
:10C44C0070B5384C4FF40030266902F08FFD05466C
:10C45C004FF4005002F08AFDA368062B0BD1002D7F
:10C46C005ED000285CD04FF4083002F08DFDBDE8A2
:10C47C007040FFF7DBBFA16807291BD100284FD004
:10C48C004FF4083002F080FD0321701D03F0F6F923
:10C49C00A0F58064A1B2234CCA0758BFA0F2FF31AB
:10C4AC00206958BF89B200F20A40FFF7C9FE082381
:10C4BC00A36070BDA268082A09D1002830D04FF4BF
:10C4CC00083002F061FDBDE87040FFF765BEA06862
:10C4DC00052814D1002D23D01348802102F08AFFA7
:10C4EC000028F9D14FF4083002F04EFD4FF4805182
:10C4FC000E4802F07BFE0B4A0221916070BDA368CE
:10C50C00042B0DD165B1A088E2680521A0F58063EC
:10C51C00A16002F5806099B2BDE87040FFF7D2BE11
:10C52C0070BD00BF7C07002000380040000C0140AB
:10C53C0008B5184BD869804700282AD1164B9A6841
:10C54C0012B90120986008BD996802290AD1062207
:10C55C0012484FF480519A6002F04AFEBDE8084040
:10C56C00FFF75CBF9A68032A13D19A88B2F5806FE3
:10C57C0006D805219960D968BDE80840FFF720BEB0
:10C58C0004209860D8684FF48061BDE80840FFF73C
:10C59C0099BE08BD6C1400207C070020000C0140E3
:10C5AC0010B50131002393420ED0040F092C01D891
:10C5BC00303400E0373401F8014C01330024000121
:10C5CC0001F8024BDBB2EEE710BD08B54FF000608E
:10C5DC004FF4404102F004FC4FF4A060BDE8084069
:10C5EC0002F0C0BB10B5044645F2555002F01CFEDB
:10C5FC00062002F01FFE42F21070844228BF04464F
:10C60C0028216143C1F30F2002F01AFE02F01EFE36
:10C61C00BDE8104002F022BE082812D8012907D12B
:10C62C000A4B0B4A53F8201032F8100008610AE04C
:10C63C0049B9064B064A53F8201032F810004861ED
:10C64C0001E0FF2300E0002358B2704708000020EF
:10C65C00101A010837B50E4D044605EB8003186916
:10C66C00012102F05FFE35F814000A4B1021ADF8E1
:10C67C0004008DF80710032253F8240001A98DF84B
:10C68C00062002F05DFD20460021FFF7C5FF3EBDF0
:10C69C00101A01080800002070B5012188B04FF471
:10C6AC00006002F03FFE314B42F210701C686326B2
:10C6BC00B4FBF0F14A1E2E4C01A895B202F0E8FF33
:10C6CC0001A802F0E5FF01A9ADF8045020460025B1
:10C6DC00ADF80860ADF80A50ADF8065002F090FEC7
:10C6EC0004A802F0DEFF01266023204604A9ADF861
:10C6FC001030ADF81260ADF81650ADF81850ADF81A
:10C70C001C5002F0C7FE2046294603F003F82046D1
:10C71C0004A902F003FF2046294603F003F8204643
:10C72C0004A902F03FFF2046294603F005F82046F5
:10C73C0004A9ADF81050ADF81260ADF81650ADF874
:10C74C00185002F071FF2046294602F0FDFF2046EA
:10C75C00314602F0D3FF2046314602F0ACFF2046B2
:10C76C00314602F0B4FF08B070BD00BF00020020DB
:10C77C00002C014073B50D4D84002B190646012188
:10C78C00186B02F0CFFD05EB4605094BB5F84000E0
:10C79C0018211C19ADF804008DF807100322206A2B
:10C7AC0001A98DF8062002F0CBFC7CBD101A010803
:10C7BC000800002038B101280BD1064B9A8D501C73
:10C7CC0081B2198705E0034B9A8D501C81B2998672
:10C7DC0070477047002C014028B1012806D1044B4A
:10C7EC0000221A8702E0024988867047704700BF12
:10C7FC00002C014050B1012811D1094B198F9A8D91
:10C80C0090B2421C4A4091B2198708E0044B988EB2
:10C81C009A8D91B24A1C424090B2988670477047EC
:10C82C00002C014073B5104C0E4604EB400494F8F8
:10C83C004C10054694F8480002F0DCFCB4F850406B
:10C84C00204602F0E7FB09480023451995F8301003
:10C85C00684600948DF804308DF805108DF806604C
:10C86C0002F09CFB7CBD00BF101A010808000020E0
:10C87C00F7B5224E8700F3190546586D0C4640F06B
:10C88C000100012102F04EFD1D4B06EB45065A1925
:10C89C0092F83210B6F85C0002AADF198DF803107A
:10C8AC0022F8080D6946786B02F04AFC012C23D162
:10C8BC001021002213481B2702F017FF00238DF8CC
:10C8CC00047001A802278DF806308DF805708DF8DC
:10C8DC00074002F051FAB6F8601001A88DF8041068
:10C8EC008DF805708DF806408DF8074002F044FA7B
:10C8FC0028462146FFF796FFFEBD00BF101A01081F
:10C90C0008000020002C014010B501214FF0C05050
:10C91C0002F014FD012002F0A9FCFFF756FE0120E5
:10C92C00014602F0FFFC0024E0B20134FFF792FE56
:10C93C00082CF9D1FFF7B0FE0020FFF71BFF0120F8
:10C94C00FFF718FF00200121FFF792FF154B4FF462
:10C95C007A701A68144BB2FBF0F14A1E1349F0209E
:10C96C005A6081F82300002207209A601860CB6877
:10C97C00C3F30220011D0629C0F1070388BFC21EA4
:10C98C00042B28BF0423012000FA03F14B1E03F0F3
:10C99C00030000FA02F2054B1101C8B283F8230020
:10C9AC0010BD00BF0002002010E000E000ED00E030
:10C9BC00054A064B02EB800103EB4002486BB2F8D0
:10C9CC005C1002F00DBC00BF08000020101A01081A
:10C9DC00024B03EB4000018988B270473C070020F2
:10C9EC00024B002203EB4000028170473C07002001
:10C9FC0030B5082087B0012102F094FC224C0121B3
:10CA0C004FF4804002F09AFC18204FF4005301259B
:10CA1C008DF8030069462046ADF800308DF80250C1
:10CA2C0002F08EFB4FF40041ADF800102046694631
:10CA3C0002F086FB04234FF4804220466946ADF891
:10CA4C0000208DF8033002F07BFB0020ADF80400D1
:10CA5C004FF48271ADF80800ADF80A00ADF8120081
:10CA6C000720ADF806104FF400722023ADF8140027
:10CA7C0001A90648ADF80C50ADF80E20ADF81030F9
:10CA8C0002F084FC07B030BD000C014000380040BF
:10CA9C0070B5044601208CB00E460146154602F0D6
:10CAAC0035FC124B002080224FF44051012C019395
:10CABC000296059006920790089009900A910B90A7
:10CACC0006D103900A48049502F0A2F9084807E041
:10CADC004CB9102307480393049502F099F90548C3
:10CAEC0001A902F00DFA0CB070BD00BF0C3800406B
:10CAFC00440002405800024073B50F230124002566
:10CB0C0001A88DF804308DF805508DF80650174E9D
:10CB1C008DF8074002F030F9FFF76AFF20462A46ED
:10CB2C001349FFF7B5FF28462A461249124DFFF765
:10CB3C00AFFF30460221224602F00DFA284621466C
:10CB4C00224602F04EFC22462846022102F049FC05
:10CB5C002846214602F039FC2146084802F0F0F93B
:10CB6C003046214602F0ECF97CBD00BF5800024073
:10CB7C00900B002090070020003800404400024039
:10CB8C0010B504462146044802F0DAF90348214660
:10CB9C00BDE8104002F0D4B94400024058000240F5
:10CBAC0008B54FF40061024802F01AFB08BD00BF43
:10CBBC00000C014030B5092085B0012102F0B2FB18
:10CBCC004FF400644823694614488DF80330ADF8DF
:10CBDC00004002F0B5FA0B21012002F00BFB2046BD
:10CBEC0002F018FA0C200294002501248DF80D0097
:10CBFC0002A88DF80C508DF80E4002F0CFF92821C8
:10CC0C0001A88DF804108DF805508DF806408DF8AC
:10CC1C00074002F0B1F805B030BD00BF000C014078
:10CC2C001FB52823002401A88DF804308DF8074087
:10CC3C0002F0A2F84FF40060029002A88DF80E40AA
:10CC4C0002F0ACF91FBD000020B105484FF4807113
:10CC5C0002F0CCBA02484FF4807102F0C9BA00BF9E
:10CC6C00000C014037B5114C0820012102F05AFB91
:10CC7C00102003234FF480558DF8070001A920469E
:10CC8C008DF80630ADF8045002F05AFA20462946C9
:10CC9C0002F0ACFA4FF48071ADF80410204601A9F3
:10CCAC0002F04EFA0020FFF7CFFF3EBD000C014012
:10CCBC0007B50820012102F035FB032014214FF4A5
:10CCCC0080638DF806008DF80710034801A9ADF8B4
:10CCDC00043002F035FA0EBD000C0140002008B5FE
:10CCEC0002F0CAFA4FF400000121BDE8084002F03E
:10CCFC0025BB07B5012014238DF8050000228DF803
:10CD0C00070001A88DF804308DF8062002F034F8E5
:10CD1C000EBD000020B105484FF4806102F068BAE6
:10CD2C0002484FF4806102F061BA00BF000C014070
:10CD3C0008B5064B1860FFF7BBFFFFF7CFFFFFF7F7
:10CD4C00D8FFBDE8084001F0CFBD00BF680200204D
:10CD5C00074B1868052808D106490A7B012A04D11B
:10CD6C00887B0B7CC11AC8B270470020704700BF8B
:10CD7C00740700203C0700200D4B10B518680528DF
:10CD8C0013D10C4C217B01290FD1E289238AD01AB3
:10CD9C00012804D100210320217301F010FF238A04
:10CDAC00054A591CD05C218210BD4FF0FF3010BDDC
:10CDBC00740700203C070020920F0020074B1968D5
:10CDCC0005290AD1064B07495A698854501CB0F5FD
:10CDDC00807F586101D100225A617047740700208E
:10CDEC003C070020D20F002070B51D4A137E012B8A
:10CDFC0034D0D069B0F5807F01D10021D161D369E5
:10CE0C0052691748934202D10021017670BD8CBF44
:10CE1C00C3F58072C3EB0202114C0262256A99B20F
:10CE2C00402D05D94033403DE3612562402604E0A6
:10CE3C00E8180023AEB2E06123620A4A01255018BB
:10CE4C00C0213246257601F031FE2846314601F0EC
:10CE5C0037FF2846BDE8704001F0A0BE70BD00BF92
:10CE6C003C070020D20F0020094B10B593E81400AA
:10CE7C000833186810180AD008220649FFF790FBEF
:10CE8C00054920460422BDE81040FFF789BB10BDC0
:10CE9C00E8F7FF1F1602002026020020BFF34F8F79
:10CEAC00054A064BD16801F4E06040EA0301D16009
:10CEBC00BFF34F8FFEE700BF00ED00E00400FA0562
:10CECC000023036018467047002303601846704720
:10CEDC00002303601846704748F20203984210B5CD
:10CEEC0017D007DC99283DD0591E88423DD101222C
:10CEFC001E4B39E048F21002904228D0703290421A
:10CF0C0033D11B4B1B4901201870087000221A4B9F
:10CF1C002AE0164C207818B10120FFF75DFC07E0E1
:10CF2C00164B197809B14A1E01E0154B01221A70F3
:10CF3C001449154A154B00201070087018701449CC
:10CF4C00144A154B087020701070187010BD0A7DB3
:10CF5C000C4B2AB901201870BDE81040FFF72ABC11
:10CF6C00002201E00D4B01221A7010BDD5100020DB
:10CF7C00141100200811002060070020D61000209A
:10CF8C00EC10002001110020EF100020FA100020FE
:10CF9C00F91000200011002002110020D4100020F4
:10CFAC00024B18601A68002AFCD17047F41000205C
:10CFBC00054B06481A88064902800B88054A4380AF
:10CFCC0011888180704700BF004C00084800002089
:10CFDC00024C0008044C000810B502F037F834205D
:10CFEC0002F048F80F4802F08DF8042819D10E4CC5
:10CFFC000C48218802F06AF8042811D10B4861888A
:10D00C0002F064F804280AD10948A18802F05EF8FD
:10D01C00042803D1BDE8104002F024B8FEE7FEE777
:10D02C00FEE7FEE7004C000848000020024C000818
:10D03C00044C000838B54A4B4A491A68501C186011
:10D04C000C6814B10B685A1E0A60474C206810B16A
:10D05C002368591E08E045490B7873B9444A107887
:10D06C0020B9FFF7C7FB6421216006E0414C6078D2
:10D07C0018B9FFF79FFB012060700020FFF7A8FC98
:10D08C0040F6B732904209D93B4C00204FF6FF7561
:10D09C00FFF7A6FC6580FFF79FFF1BE03748016890
:10D0AC00B1F57A7F04D30021016002F0CFF802E0E1
:10D0BC0003685A1C026032480378A3B1314A1178D4
:10D0CC0089B9314803785BB9304847F22F5301686E
:10D0DC00994201D9FFF7E2FE0268511C016002E09F
:10D0EC000278022AF6D827480378002B37D0264C32
:10D0FC00217811B10020207001E0244A1160244CE9
:10D10C000123244923700A68C72A07D900250D601A
:10D11C0000F0E8FBA84204DA257002E00868431C22
:10D12C000B6013490A786AB11B4843F697210368D0
:10D13C008B4204D9002101601548017002E002689D
:10D14C00531C0360124A1378012B08D000F0A0FA8C
:10D15C000C48074A0C4B002101701170197038BD36
:10D16C0010110020F4100020F010002000110020FD
:10D17C00F91000206007002048000020E810002073
:10D18C00D5100020EF100020021100200C110020FF
:10D19C00FA10002004110020FC1000201FB50A22F8
:10D1AC004FF461504FF461613C230A4C8DE80F0041
:10D1BC004FF6FF732380FFF70FFF684601A902AA01
:10D1CC0003AB02F053FF4AF6AA202080FFF704FFBE
:10D1DC001FBD00BF48000020304B00203049314AB1
:10D1EC0010B51870304C314B087010700146024667
:10D1FC002070187003F092FE2078012805D164206D
:10D20C00FFF7CEFE02F094FCF6E710210C2002F0A2
:10D21C00EBFF274803F0B2FB264803F0F3FF012095
:10D22C0003F0D4FF1D4C0120217829B9FFF7E2FA55
:10D23C006420FFF7B5FEF5E71F4CFFF7CDFA01218F
:10D24C00002223460E2002F055FF03F0F9FF421C8A
:10D25C000121234622700E20002202F079FF0020CB
:10D26C000146012203F05AFE144B4BF6BB30598891
:10D27C00814202D05880FFF7AFFE03F0D5FD104A73
:10D28C00002464201470FFF78BFE204603F082FD0F
:10D29C0048F24420BDE8104003F066BF081100209E
:10D2AC001411002001110020D5100020D4100020F2
:10D2BC00741A01084E000020D610002048000020EF
:10D2CC00EC10002030B585B0FFF71EFB7D2002F07E
:10D2DC0041F820B1644B01221A7002F04FF840F66D
:10D2EC00B830FFF77FF9FFF763FE60488188B1F52E
:10D2FC00404F04D04FF440448480FFF76DFE5A4DEC
:10D30C002A78012A03D05A4B0BB100F0A3FEFFF789
:10D31C00A9FC584CFFF7F0FB574D58485849594A4F
:10D32C00594B00900191594859490294039503F0C7
:10D33C001DFD6420FFF734FE002003F02BFD48F2A6
:10D34C00442003F011FF0E2010210022514B02F05B
:10D35C00D1FE60B1FF2003F0EDFE10210E2002F093
:10D36C0043FF0E20102100224A4B02F0F1FE3F4BEE
:10D37C004AF6AA2218881C46904201D0FFF70EFFED
:10D38C0045490D7855B960884BF6BB33984202D1AC
:10D39C00404A147814B9414D01212970404802F0DB
:10D3AC0009FF3E48037813B1FFF716FF15E03A4D1D
:10D3BC002A7892B13B4C24787CB9214622462046EF
:10D3CC0003F0ACFD38490820009101903749032047
:10D3DC000422234603F03EFD2C70354B1D78012DA5
:10D3EC0016D1304A1478012C12D132490878012810
:10D3FC000ED10325304804F045FA2F4982B20120A2
:10D40C0003F07EFC6B1E13F0FF05F3D1284A157058
:10D41C00244C217879B1294C257865B928480378B2
:10D42C005A1CD1B2017000F003F9002801DA257002
:10D43C0001E001252570214C20780028B1D0214B2A
:10D44C001A78002AADD0084D2978012903D01E4C3A
:10D45C000CB100F009FE28780128A2D01B4B1A68E9
:10D46C00002A9ED090479CE7F8100020480000202E
:10D47C0061E000082DCC000855CC0008ADCB0008AD
:10D48C00C1CB0008D5CE0008DDCE0008E5CE0008E3
:10D49C00CDCE0008D610002060070020EC10002034
:10D4AC00ED10002001110020961D0108911D0108AE
:10D4BC0014110020D510002051000020EF10002086
:10D4CC0002110020F910002075E00008381300202C
:10D4DC0008B5064B4FF4A0449C80FFF77DFD282037
:10D4EC00214601F087FCFFF7D9FC00BF4800002063
:10D4FC000346A0F13000C0B2092817D9612B0CD01B
:10D50C00622B0CD0632B0CD0642B0CD0652B0CD065
:10D51C00662B14BF00200F2070470A2070470B2089
:10D52C0070470C2070470D2070470E2070472DE976
:10D53C00F041C0B00F4680461646684600214FF4B5
:10D54C0080721D4603F09CFF4FB1384604F09AF9E7
:10D55C00044639466846224603F0E4FE00E03C46A9
:10D56C0066B1304604F08EF900AB0246314618190C
:10D57C0003F0D8FE304604F085F9041965B128464D
:10D58C0004F080F9024600A80019294603F0CAFEEF
:10D59C00284604F077F904190A210DF804104046C6
:10D5AC006946621C002303F0A1FB40B0BDE8F0818A
:10D5BC001FB5194B002B2ED01848002404601848B6
:10D5CC00AFF3008020B930238DF80430012316E02E
:10D5DC00024623460A215C1C92FBF1F2E3B2002ABC
:10D5EC00F8D101A9C9180A2490FBF4F204FB12002B
:10D5FC000C4C205C01F8010D1046002AF3D104A953
:10D60C00C818094B0949002200F80C2C18680A1D8F
:10D61C0001ABFFF78CFF1FBD00000000381300208A
:10D62C0038120020580000201C110020851A010817
:10D63C0010B502200121062203F0C8F9114C002874
:10D64C0020601BDB104902220A801D222323CA7092
:10D65C00EB228B704A713623F9220B71CA714F235E
:10D66C0010228B7103F006FA002807DB00222068D9
:10D67C0006491346BDE81040FFF759BF4FF0FF3085
:10D68C0010BD00BF1C11002020120020931A0108AD
:10D69C0010B5044C206803F0C7F910B94FF0FF33F4
:10D6AC00236010BD1C110020284BF7B51E682EB945
:10D6BC00274831464FF4807203F0E2FE254F0121DA
:10D6CC003868254D00F01F0201FA02F100244309CD
:10D6DC002C6055F8232001300A4345F823201F4BBA
:10D6EC004FF4FA7159601C60294600932246234678
:10D6FC0003F0ECF9A042C6F1FF0602DC002E22DC9E
:10D70C001CE03868430955F8231000F01F0241FA59
:10D71C0002F3DB07F2D50D4D0D4F2A682346B918DD
:10D72C00324603F06BFA00280EDB296808182860D3
:10D73C000A21384603F03AFF0028DFD0034B0022C1
:10D74C0018681A6000E00020FEBD00BF64070020CE
:10D75C00201100201C110020181100203012002074
:10D76C0070B54D4C032220464C4904F0BBF80246E0
:10D77C0018B94B4B4B49186816E020464A4905220C
:10D78C0004F0B0F890B9494803780BB90121017045
:10D79C00474A48480023136002784149086812B18F
:10D7AC0045491A4672E0404913466FE0204643490A
:10D7BC00062204F097F810B9FFF78AFE6AE0404D94
:10D7CC00204605F10B01062204F08CF8064690B9B0
:10D7DC00A0796874FFF78CFE0121FEF71DFF304A1B
:10D7EC00034610681BB9374905F10B024EE0364968
:10D7FC0005F10B0219E0204605F11301052204F096
:10D80C0071F8064698B960792876FFF771FE3146B3
:10D81C00FEF702FF2249034608681BB9294905F1A6
:10D82C00130233E0284905F1130233462EE020465B
:10D83C002649092204F056F8F0B904F109000A212E
:10D84C0003F0B4FE30B110F8011C0D2908BF0138EB
:10D85C000022027000214FF480721D4803F010FE6C
:10D86C001C4804F00FF81B490246194803F05AFDF6
:10D87C0019481A4B18600DE02046194903F014FFA3
:10D88C0040B1074B1049186822460023BDE8704090
:10D89C00FFF74DBE002070BD201100209A1A010820
:10D8AC001C1100209E1A0108AE1A0108F910002064
:10D8BC00FC100020F8100020B41A0108BC1A010852
:10D8CC0058000020851A0108C31A0108891A01089A
:10D8DC003812002029110020BDD500083813002073
:10D8EC00C91A010808B5FFF7DFFE002803DDBDE803
:10D8FC000840FFF735BF08BD70470000014608B56A
:10D90C00044801F09FFF0348802101F0A3FF002889
:10D91C00F9D008BD0044004010B5441E14F8010FA6
:10D92C0010B1FFF7EBFFF9E710BD000008B5FFF7EA
:10D93C00F3FF0248BDE80840FFF7EEBF9F1D01084A
:10D94C00202108B5034801F085FF003018BF0120E5
:10D95C0008BD00BF0044004008B5024801F076FF46
:10D96C0008BD00BF0044004008B50448002101F088
:10D97C005DFF034B00221A7008BD00BF004400403D
:10D98C0068070020FFF71ABA10B5441E14F8010FEF
:10D99C0010B1FFF713FAF9E710BD000008B5FFF757
:10D9AC00F3FF0248BDE80840FFF7EEBF9F1D0108DA
:10D9BC00FFF7E2B9FFF7CCB9FFF7BAB914282DE994
:10D9CC00F34104460E465BD8FF2959D02D4B1878ED
:10D9DC00012803D1A4F11201012951D92A4D2701A3
:10D9EC00EA192A4BEF5904209F42B2F8048003D065
:10D9FC002748874203D10820012101F093FCADF8A0
:10DA0C000480052E38D8DFE806F00310171E2530E9
:10DA1C001D4B102103EB041403220020A0738DF87E
:10DA2C0007108DF80620083426E004208DF8070036
:10DA3C0005EB041401221EE048238DF8073005EB9A
:10DA4C000414022217E028228DF8072005EB041499
:10DA5C00032210E00C49182303208DF807308DF8B1
:10DA6C00060001EB0414042205E000218DF80710D8
:10DA7C0005EB04140522A273384601A901F060FBE2
:10DA8C00BDE8FC81680700207400002000080140FC
:10DA9C00000C01401FB504460120014601F042FC78
:10DAAC004FF40030012101F049FC12200121FFF755
:10DABC0085FF13200421FFF781FF00940C4C0C20F0
:10DACC000023ADF80A0069462046ADF80430ADF8E5
:10DADC000630ADF80830ADF80C3001F04FFE0121E6
:10DAEC00204601F0A3FE034901220A701FBD00BFAE
:10DAFC0000440040680700207047FEE7FEE7FEE7A1
:10DB0C00FEE7704770477047FFF794BAFEF798BC72
:10DB1C007047000008B54FF4006001F081FA28B19D
:10DB2C004FF4006001F08CFAFEF702FD4FF48060B8
:10DB3C0001F076FA80B14FF4806001F081FA002098
:10DB4C00064B01461880FEF76DFE05481021012298
:10DB5C00BDE8084001F0C9BD08BD00BF4407002066
:10DB6C00002C014008B50F48102101F0F7FDC0B1A1
:10DB7C000C48102101F0FDFD0020FEF719FF28B91B
:10DB8C00094B1A880A3290B2188008BD102105483A
:10DB9C00002201F0AAFD00200121BDE80840FEF79B
:10DBAC0041BE08BD002C01404407002000F0E0B845
:10DBBC003A4B82B01A6842F0010018605968384A32
:10DBCC000A405A60186820F0847121F480321A607F
:10DBDC00186820F4802119605A684FF41F0122F450
:10DBEC00FE0000225860996000920192186840F47F
:10DBFC0080311960294B1A6802F4003001900099A9
:10DC0C004A1C0092019818B90099B1F5A06FF1D196
:10DC1C001B6813F4003218BF0122019201980128ED
:10DC2C0005D0204B4FF000629A6002B070471E493D
:10DC3C000B6843F010020A60086820F003030B60C5
:10DC4C000A68A1F5805342F00200086059685960D7
:10DC5C005A685A60586840F4806159605A6822F4D6
:10DC6C007C105860596841F4E8125A60186840F00A
:10DC7C00807119601868094A8101FBD5536823F03B
:10DC8C0003015160506840F002035360034A51682D
:10DC9C0001F00C000828F9D1C3E700BF00100240C6
:10DCAC000000FFF800ED00E00020024038B51449F8
:10DCBC000B78012B23D1134A13680BB90B7038BDA9
:10DCCC00114C402B206881B205D94030403B20607C
:10DCDC001360402504E09DB2C3180020236010603F
:10DCEC000A4A5018C0212A4600F0E0FE01202946BD
:10DCFC0000F0E6FF0120BDE8384000F04FBF38BD12
:10DD0C00540700205C07002058070020D20F002089
:10DD1C00094908B50020094B0122088003201A701C
:10DD2C0000F0FAFF064B0246188006484FF4887143
:10DD3C00BDE8084000F0D1BE4C0700204807002089
:10DD4C004A070020920F0020074B1868052809D1BC
:10DD5C00064B1A68511C052A196003D10020186063
:10DD6C00FFF742B8704700BF740700206C07002013
:10DD7C0038B5194B194A1968194D88B21080148896
:10DD8C002988214001F4007082B24AB14FF6FF5449
:10DD9C001C60144B1D78691CC8B21870FFF7D4FFB7
:10DDAC000E4A0F4B14881D88254005F4004188B29B
:10DDBC0015461C4608B100F0B3FD2A882388134091
:10DDCC0003F4806188B230B1034B07494FF6FF3240
:10DDDC001A604868804738BD445C00403C13002002
:10DDEC007013002070070020A0020020034B987ACB
:10DDFC0010B1034905220A60704700BF4C13002084
:10DE0C0074070020014B04221A607047740700202D
:10DE1C00034B1A78202A01D100201870704700BFDC
:10DE2C007107002070470000212810B508D1114857
:10DE3C000368197801F07F02212A11D0022010BD4D
:10DE4C002028FBD10B4B19680A780B4902F07F0391
:10DE5C000A4A212B0CBF0B46002310700BB9EDE7BF
:10DE6C00074B044C20680024836144822046984769
:10DE7C00204610BD6C130020DDDE00087107002069
:10DE8C00C5DE0008074B19680A7802F07F03212BC6
:10DE9C0005D1022801D1002070472228FBD0022096
:10DEAC00704700BF6C13002009B102207047012895
:10DEBC00FBD808467047000020B9034B08221968AC
:10DECC000A827047014870476C13002068020020DA
:10DEDC0020B9034B082219680A8270470148704721
:10DEEC006C13002068020020054B1968CA78042ABC
:10DEFC0004D8044B03EBC20100F092BA0020704727
:10DF0C006C13002070020020014900F089BA00BF98
:10DF1C0090020020014900F083BA00BF9802002053
:10DF2C00334A344BD179186810B50024417284728D
:10DF3C00C472204600F0E4FD20464FF4007100F05E
:10DF4C00E7FD1021204600F0EFFD4021204600F0B7
:10DF5C008BFE8021204600F077FE204600F040FE2C
:10DF6C00254B204693F8641000F0B8FE204600F0D4
:10DF7C0026FE0120214600F0CBFD0120C02100F03F
:10DF8C0063FE0120202100F0CFFD0120214600F08E
:10DF9C00E8FD02204FF4C06100F0BAFD02204FF4FE
:10DFAC00807100F051FE0220214600F0DAFD0220C3
:10DFBC00202100F0B9FD0320214600F0A9FD03202B
:10DFCC004FF4887100F050FE0320402100F086FED3
:10DFDC0003204FF4405100F0C4FD0320214600F013
:10DFEC00A3FD204600F02EFC044A0120106010BD59
:10DFFC00311B01086C1300206802002074070020FC
:10E00C0010B5FEF731FF054B00241868847200F040
:10E01C0009F800F097FE02490C6010BD6C1300204B
:10E02C007407002008B50120FEF774FE064B074963
:10E03C00012200201A601860086005494FF4E05274
:10E04C000A801A6008BD00BF405C0040445C004080
:10E05C007013002008B5034B4FF41650196888470D
:10E06C0008BD00BFE401002010B5064CA36898471A
:10E07C0018B105482169C0B28847FA20BDE81040A4
:10E08C00FEF78EBFE4010020A21D010810B5064C5E
:10E09C0018B9236801221A8210BD044B1868016854
:10E0AC00884720680A3010BD6C13002068130020CC
:10E0BC0010B5064C18B9236801221A8210BD044B06
:10E0CC0018688168884720680C3010BD6C130020DC
:10E0DC006813002008B5234A18B9136802221A8263
:10E0EC0008BD214B002012681880117811F07F01B7
:10E0FC0013D1507A00F02002D1B209B102221A7069
:10E10C0000F04003D8B2184B18B11A7842F0010154
:10E11C001EE0197821F001011AE001291FD0022913
:10E12C001ED1507900F00F024FEA820110F0800FDF
:10E13C0001F1804000F5B842116803D001F03002C3
:10E14C00102A03E001F44050B0F5805F01D10121A9
:10E15C001970064B186801698847034808BD1846B2
:10E16C0008BD00BF6C1300203E1300206813002074
:10E17C00F8B5224B1C68238A267AABB9042E13D12E
:10E18C001F48017801291F490AD11F4C226894B2FB
:10E19C001E4AA2185200136030220A80037028E035
:10E1AC0010260E80072624E0A58AA169AB428CBFFD
:10E1BC00022604269D4228BF1D462846884707464E
:10E1CC00002000F061FD2A460146384600F06EFC46
:10E1DC002946002000F074FD208A638A421BED184A
:10E1EC0008480B4B228230214FF44052018065824B
:10E1FC001A80024B18680672F8BD00BF6C13002021
:10E20C007807002074130020505C0040023000207E
:10E21C007213002010B50A4B0A4918684B78C27863
:10E22C0093420AD3817841B9848834B98272064802
:10E23C00026853689847204610BD022010BD00BFED
:10E24C006C130020F40200206813002038B50E4A2D
:10E25C000E4C106823688269D978587990472168E8
:10E26C008B7A7BB170B9087960B98D7855B9084A49
:10E27C001168CB68984720684279C178C2720173E3
:10E28C00284638BD022038BD441300206C130020F2
:10E29C006813002010B5324B1B68187810F07F0003
:10E2AC0004D15A7A22F02001597210BD022855D19E
:10E2BC005A88002A53D11979002950D15A7922F061
:10E2CC0080004FEA800404F1804101F5B8442168D4
:10E2DC00244C12F0800F247814BF01F0300101F4AB
:10E2EC004051A0423AD2002938D09B7A002B35D02D
:10E2FC00840002F0800204F18043D1B203F5B844EB
:10E30C00226861B102F03002102A21D1C4B2204639
:10E31C0000F087FC2046302100F006FC18E002F4E7
:10E32C004051B1F5805F13D128B90F4B93F82C10E5
:10E33C0000F0D4FC01E000F062FC20684BF68F7218
:10E34C00024082F4405141F4004343F080002060CD
:10E35C0006490B6858698047002010BD022010BD8B
:10E36C006C130020F4020020A0020020681300208F
:10E37C0010B51F4B19684A7922F080034FEA8300CD
:10E38C0000F1804404F5B8401A4C0068247812F06F
:10E39C00800F14BF00F0300000F44050A34224D290
:10E3AC004C8814BB08B3897AF9B19B0003F1804106
:10E3BC0002F0800201F5B843D0B2196828B148F6D2
:10E3CC00BF720A4082F0100004E04BF68F720A40D4
:10E3DC0082F4805040F4004141F080001860064BFC
:10E3EC001A6891698847002010BD022010BD00BF3B
:10E3FC006C130020F40200206813002008B5064BB3
:10E40C001868064B427A42F0200141721868C269C2
:10E41C009047002008BD00BF6C130020681300203B
:10E42C00054B1A68538A18B98988CB1A138270471E
:10E43C000868C018704700BF6C13002008B50B4B60
:10E44C00002093F82C1000F049FC09480168087A68
:10E45C00082806D1074B4FF480521A80064A102127
:10E46C001180B0F109035842584108BDA0020020A8
:10E47C006C130020721300207413002070B52E4B07
:10E48C001C68207A02284FD004284DD0032801D0D4
:10E49C00052843D1A169208AA9B1A0B1A58A8542DA
:10E4AC0028BF054628468847228A0646608A531BA1
:10E4BC00291861822382002000F0F4FB2A460146D1
:10E4CC00304600F00AFB228A52B11C4B4FF44050EC
:10E4DC0018800020014600F0F3FB194A302111800E
:10E4EC00208AA38A1449834202D80B68032202E0D3
:10E4FC0018B10B6805221A720CE00A680623114940
:10E50C0013720A68104993B25A1853000C491860D8
:10E51C0030200880084801680B7A06E0072803D1F0
:10E52C000A490A68D36898470823034A106803729B
:10E53C00BDE87040FFF782BF6C13002072130020FF
:10E54C0074130020505C0040023000204413002063
:10E55C00944B73B51A68944990B24418934E650065
:10E56C002A6835682B7A092B15D090B2410001F13D
:10E57C00804404F5C04422782A7063786B70A088BC
:10E58C0000F0DAFB68802089356800F0D5FBA880A4
:10E59C00A0893168C880854D01242B68DA881C72EB
:10E5AC005C78002A64D1187810F07F0238D1092CDD
:10E5BC0002D1FFF72FFE45E0052C0FD193F9032074
:10E5CC00002A01DA08214FE099780029FAD19888BD
:10E5DC000028F7D19B7A002B38D0F3E7032C10D10D
:10E5EC00D878012807D0724A204611684B699847A1
:10E5FC00032829D137E09B88002BF4D1FFF7FEFECE
:10E60C0020E0012CEFD1D9780129ECD19888002891
:10E61C00E9D15B7A03F02002D1B20029E3D00AE001
:10E62C00012A04D10B2CDED1FFF710FE0AE0022ADE
:10E63C00D9D1012C02D1FFF72DFE03E0032CD2D14E
:10E64C00FFF796FE10B1CEE70028BBD15548594BC9
:10E65C00026891B2C818584B4100002230200A6061
:10E66C001880062100E00921504A10680172D3E09D
:10E67C00062C13D11C7861067AD19A784C4B012A5E
:10E68C0002D11C68E36969E0022A02D11868036AA6
:10E69C0064E0032A6CD119684B6A5FE0002C3ED110
:10E6AC005988002964D1586820F47F42B2F5003FA4
:10E6BC005ED11C7814F07F0004D19888002800F0FB
:10E6CC00AE8055E001280CD1394A58791468A269FA
:10E6DC00904700284CD12B68997A002940F09F80F4
:10E6EC0046E0022844D15B7903F00F014FEA810226
:10E6FC0002F1804404F5B840304C0268207813F0E5
:10E70C00800F14BF02F0300202F4405281422FD22B
:10E71C0013F0700F2CD1002A40F0818028E0082CD7
:10E72C0003D119784A067CD022E00A2C20D1187823
:10E73C0000F07F0101291BD19C7ACCB15988B9B961
:10E74C005A6822F47F40B0F5803F11D1184C5879AB
:10E75C0022689469A047002865D009E043B11348AA
:10E76C000024016820464C828B61984720460AE0C1
:10E77C000F4A0E4C116823680A6958789047032891
:10E78C0001D1236806E0094B4FF6FF711B681A8A0A
:10E79C008A4201D1092103E0022800D082B9082164
:10E7AC00197239E0505C0040043000206C130020DA
:10E7BC00441300200230002074130020F4020020C7
:10E7CC0093F90000002821DAD9880191019882423E
:10E7DC0002D9019A1A8211E08A420FD213490868B1
:10E7EC0090F82C108A4201D2002105E092FBF1F046
:10E7FC0001FB102212B901210D4801700B49086868
:10E80C0090F82C209A82FFF7B3FC05E003221A72D1
:10E81C00084B4FF440511980FFF710FE7CBD064B9E
:10E82C009DE7064B9BE7064B99E700BF441300207E
:10E83C007807002072130020E1E0000899E000083E
:10E84C00BDE0000870B50D4B1C780023A34210D21C
:10E85C0003F1805202F5B855A90043F400420E684A
:10E86C0042F0800540F60F7232402A430A600133B1
:10E87C00ECE7034940F08000086070BDF402002012
:10E88C004C5C004010B514490B680C461A7A022AED
:10E89C0001D0042A04D1FFF76BFC2168087A13E03D
:10E8AC00062A10D15878052809D11978480606D1BE
:10E8BC00D878FFF7C7FF094B1A68106A80470849D8
:10E8CC000B689A6890470820034B1A681072BDE8D1
:10E8DC001040FFF7B3BD00BF6C130020681300207D
:10E8EC00441300207047000008B5074A074B02206C
:10E8FC00136018720649074B0748084A0B601060F2
:10E90C001B68984708BD00BF6C1300204C130020F7
:10E91C0044130020A0020020D00200206813002025
:10E92C0037B50023ADF806305848594B026891B200
:10E93C001204198040F1A8801888564900F00F0283
:10E94C000A70002A6ED1544C2568AAB2534D2A8005
:10E95C002988534A01F03000108029884BF6BF7289
:10E96C0001F44050288021680A4082F4005080F065
:10E97C00200141F4004242F0800020601B8803F02B
:10E98C0010018AB23AB9226848F60F701040206024
:10E99C00FFF778FF1DE0206883B2ADF80630BDF8B4
:10E9AC00061001F4006290B238B1216840F68F7302
:10E9BC000B402360FFF7CCFD0BE0BDF8063019B21D
:10E9CC000029B1DA226840F68F7010402060FFF702
:10E9DC0055FD21682A884BF6BF7302F480500B401A
:10E9EC0081B209B183F480532C4A108800F4005191
:10E9FC008AB20AB183F400532948018801F010024D
:10EA0C0091B209B183F01003008800F0200291B29A
:10EA1C0009B183F0200343F400401F4A40F0800109
:10EA2C00116031E0930003F1804000F5B8431968A0
:10EA3C0088B2ADF80600BDF8061008B2002809DA55
:10EA4C00186840F68F7101401960164B013A53F863
:10EA5C0022008047BDF8061001F0800293B2002B13
:10EA6C003FF462AF0B480278910001F1804303F54B
:10EA7C00B841086848F60F7303400B600A49013A25
:10EA8C0051F8220080474FE73EBD00BF445C004078
:10EA9C003C13002048130020005C0040721300203F
:10EAAC0074130020300200204C02002030B501F11C
:10EABC00005101F54053013259005210002302302D
:10EACC00934209D010F8015C10F8024C44EA05247A
:10EADC0021F823400133F2E730BD01F1005110B5AC
:10EAEC00013201F54054521064000023934205D0CA
:10EAFC0054F8231020F813100133F7E710BD000071
:10EB0C004FF6F873014A034013607047505C0040A5
:10EB1C00800000F1804202F5B842106848F68F136D
:10EB2C000340194311607047800000F1804202F5E8
:10EB3C00B842106848F6BF73034001F0100080B271
:10EB4C0008B99BB201E083F0100301F0200188B2F8
:10EB5C0008B183F0200343F4004141F080001060C1
:10EB6C007047800000F1804202F5B84210684BF605
:10EB7C008F73034001F4805080B208B99BB201E05E
:10EB8C0083F4805301F4005188B208B183F400532C
:10EB9C0043F4004141F0800010607047800000F1A8
:10EBAC00804202F5B840016848F6BF730B4083F011
:10EBBC00300242F4004141F0800303607047800052
:10EBCC0000F1804202F5B84001684BF68F730B40A0
:10EBDC0083F4405242F4004141F0800303607047DB
:10EBEC00800000F1804202F5B840016840F60F63E6
:10EBFC000B4043F4004242F08001016070478000FA
:10EC0C0000F1804303F5B8400268510408D501684F
:10EC1C0040F60F730B4043F4404242F08001016018
:10EC2C007047800000F1804303F5B8431A68500622
:10EC3C0008D5196840F60F70084040F4004242F0C5
:10EC4C00C001196070470000064B49081A6893B25E
:10EC5C0003EBC00000F1005202F5405358004A008B
:10EC6C0002607047505C0040054B49081A6893B22B
:10EC7C00044A03EBC000831858004A000260704736
:10EC8C00505C004004300020054B19688AB202EB3E
:10EC9C00C00000F1005303F540514A001088704742
:10ECAC00505C0040044B1968044B8AB202EBC00064
:10ECBC00C1184A0010887047505C00400430002096
:10ECCC00044B1A6893B2044A03EBC0008318580033
:10ECDC0001607047505C0040023000200C4B1A68F9
:10ECEC0093B20C4A03EBC00083185A003E2908D992
:10ECFC004B09C90601D1581E83B2990241F4004157
:10ED0C0004E04B08C80748BF0133990211607047F3
:10ED1C00505C004006300020054B1968054B8AB248
:10ED2C0002EBC000C1184A0010688305980D7047AB
:10ED3C00505C004006300020C3B2000A40EA0320B9
:10ED4C0070470000044B00201860044A044B4FF439
:10ED5C000641118019607047445C0040701300201C
:10ED6C00405C004040F0BF60024B40F40031D96081
:10ED7C00704700BF00ED00E0C37810B503B3164C2C
:10ED8C00E168CB43C3F302244178C4F1040201FAD5
:10ED9C0002F10F2222FA04F28478037822400A430B
:10EDAC00110103F16043CAB203F5614181F80023FC
:10EDBC000078012200F01F03410902FA03F007E07A
:10EDCC000078012200F01F03410902FA03F0203100
:10EDDC00024B43F8210010BD00ED00E000E100E023
:10EDEC0021F0604121F07F02014B10439860704785
:10EDFC0000ED00E0054A82B0002301930192019BD3
:10EE0C00C0180190019A116002B07047006C00406C
:10EE1C0002684FF6FE73134003602D4B002198429D
:10EE2C00016041608160C16022D02A49884229D0AA
:10EE3C00294B984230D02949884237D0284B9842E8
:10EE4C003ED0284B984206D153F8681C41F4700010
:10EE5C0043F8680C70472449884206D151F87C0C61
:10EE6C0040F0706241F87C2C7047204B984206D1E0
:10EE7C0053F8042C42F00F0143F8041C70471C4952
:10EE8C00884206D151F8183C43F0F00041F8180CB8
:10EE9C007047184B984206D153F82C2C42F47061F1
:10EEAC0043F82C1C70471449884206D151F8403C59
:10EEBC0043F4704041F8400C7047104B984205D118
:10EECC0053F8542C42F4702143F8541C704700BF83
:10EEDC00080002401C000240300002404400024086
:10EEEC00580002406C0002408000024008040240BE
:10EEFC001C04024030040240440402405804024006
:10EF0C0070B506688C680D6A26F4FF4222F0700614
:10EF1C000A6945EA04034C6913438A692343CC69A3
:10EF2C0013431C434B6A44EA03028B6A1A43324371
:10EF3C000260CB680A68496843608260C16070BD3A
:10EF4C0019B1016841F0010303E002684FF6FE734A
:10EF5C0013400360704703680AB1194301E023EAC8
:10EF6C00010101607047406880B27047C3004CBF1C
:10EF7C00034B044B196801420CBF00200120704761
:10EF8C000004024000000240C2004CBF014B024B87
:10EF9C00586070470004024000000240837910B5AD
:10EFAC00002B29D01A4B01681C68CA4314401C6002
:10EFBC005C6822405A60027902F1804404F5823286
:10EFCC0014682143116002689C68D1430C409C601A
:10EFDC00DC68407921401028D96006D1986810432C
:10EFEC009860D9680A43DA6010BD00F1804303F5DC
:10EFFC00823319680A4308E00179006801F1804204
:10F00C0002F582331A6822EA00021A6010BD00BFB2
:10F01C0000040140014B5861704700BF00040140DF
:10F02C00064B1A68596910EA010304D010420CBF50
:10F03C000020012070471846704700BF00040140B3
:10F04C00014B5861704700BF00040140034A044B58
:10F05C0002F188305A605860704700BF2301674541
:10F06C0000200240024B1A6942F080001861704780
:10F07C0000200240014BD860704700BF00200240C6
:10F08C00084BDA68D20709D4D868400708D4D96885
:10F09C0011F0100F0CBF04200320704701207047A3
:10F0AC00022070470020024010B50446FFF7E8FF2D
:10F0BC00012806D11CB1FFF7E3FF013CF8E705205E
:10F0CC0010BD002C08BF052010BD000070B5054612
:10F0DC004FF400500E46FFF7E7FF04280ED1084C02
:10F0EC00236943F0010020612E804FF40050FFF79C
:10F0FC00DBFF226941F6FE711140216170BD00BF3A
:10F10C000020024038B505464FF43020FFF7CCFF05
:10F11C00042812D1094C236943F002002061656177
:10F12C0021694FF4302041F040022261FFF7BCFF0F
:10F13C00216941F6FD730B40236138BD002002406C
:10F14C00CB78F0B5DA0648BF8A78098803F00F054A
:10F15C0048BF154311F0FF0F1ED004680022012791
:10F16C0007FA02F707EA0106BE4211D197004FF0E9
:10F17C000F0C0CFA07FC05FA07F724EA0C04282BF1
:10F18C0044EA070401D1466102E0482B08BF06613E
:10F19C000132082AE3D10460FF2920D944680022F7
:10F1AC0002F10806012707FA06F707EA0106BE4234
:10F1BC0011D197004FF00F0C0CFA07FC05FA07F76A
:10F1CC0024EA0C04282B44EA070401D1466102E02E
:10F1DC00482B08BF06610132082AE1D14460F0BD1A
:10F1EC00836819420CBF00200120704701617047F1
:10F1FC004161704701F0030230B592000F2404FA0C
:10F20C0002F400FA02F0074B8908023153F821503E
:10F21C0025EA040443F8214053F82140044343F801
:10F22C00214030BD00000140014B1860704700BF09
:10F23C0000300040014B5860704700BF0030004068
:10F24C00014B9860704700BF00300040024B4AF6FB
:10F25C00AA221A60704700BF00300040024B4CF6E7
:10F26C00CC421A60704700BF00300040014B186060
:10F27C00704700BF20000E42014B1860704700BF62
:10F28C00D80042421D4B10B55A6802F00C010429FB
:10F29C0001D0082902D01A4A02600EE05C68596855
:10F2AC00C4F38342941CC90302D55B689B0301D54C
:10F2BC00144900E012494C430460104A124B546844
:10F2CC00C4F303115C5C016821FA04F141605468D9
:10F2DC00C4F302241C5D21FA04F484605468C4F362
:10F2EC00C2241C5D21FA04F1C1605268C2F3813260
:10F2FC009B181A7CB1FBF2F1016110BD00100240A9
:10F30C0000127A0000093D00F8020020044B5A69F3
:10F31C0009B1104301E022EA00005861704700BFB8
:10F32C0000100240044B9A6909B1104301E022EA33
:10F33C0000009861704700BF00100240044BDA696E
:10F34C0009B1104301E022EA0000D861704700BF08
:10F35C00001002404309012B074A01D1136803E056
:10F36C00022B0CBF136A536A00F01F0023FA00F142
:10F37C0001F00100704700BF00100240024B5A6AB6
:10F38C0042F0807058627047001002400B8810B534
:10F39C004C88028823438C8802F441522343CC8846
:10F3AC0023430C8923434C8923438C892343CC89E5
:10F3BC00098A23431A4393B20380828B22F400639D
:10F3CC001A04130C8383018210BD038819B199B2FE
:10F3DC0041F0400303E023F040010A04130C0380C6
:10F3EC00704783889BB20AB1194301E023EA0101FB
:10F3FC0081807047038919420CBF0020012070479F
:10F40C00224A038890429BB212D002F500629042CD
:10F41C000ED0B0F1804F0BD0A2F59832904207D0AD
:10F42C0002F58062904203D002F58062904203D1D3
:10F43C004A8823F070031343154A904208D002F512
:10F44C008062904204D023F44073CA889BB2134369
:10F45C0003808B880A8883850C4B028598420FD0D9
:10F46C0003F5006290420BD002F54063984207D03E
:10F47C0003F58062904203D002F58063984201D17B
:10F48C00097A018601228282704700BF002C01405C
:10F49C0000100040038C70B523F001021404250CFD
:10F4AC000584068C8388028B9CB222F073052B0496
:10F4BC000D881A0C26F0020633042A434E880D8957
:10F4CC001B0C3543ADB22B43134DA8420FD005F5A1
:10F4DC000065A8420BD005F54065A84207D005F59C
:10F4EC008065A84203D005F58065A8420ED123F0B3
:10F4FC0008064B898D881E4326F004032B43CE89C6
:10F50C008D8924F440743543ADB22C43C988848072
:10F51C0002838186038470BD002C0140038C30B5BE
:10F52C0023F010021404250C0584038C8288048BB0
:10F53C0023F0200324F4E6452C040D88240C44EA23
:10F54C0005241D042B0C0D8992B243EA05134D883A
:10F55C00A4B243EA0513124D9BB2A84203D005F5A1
:10F56C000065A84215D14D8923F080039BB243EA74
:10F57C0005134FF6BF751D408B8822F4406245EA97
:10F58C000315ABB28D8942EA8502CD8942EA850228
:10F59C0092B2C988828004830187038430BD00BF86
:10F5AC00002C0140038C30B523F480721404250C1C
:10F5BC000584038C8288848B23F4007324F07305F8
:10F5CC002C040D88240C2C431D042B0C0D8992B299
:10F5DC0043EA05234D8843EA0523124D9BB2A8420A
:10F5EC0003D005F50065A84215D14D8923F40063BD
:10F5FC009BB243EA05234FF6FF351D408B8822F45E
:10F60C00405245EA0325ABB28D8942EA0512CD89F9
:10F61C0042EA051292B2C98882808483818703846E
:10F62C0030BD00BF002C0140038C30B523F4805258
:10F63C001404250C0584038C8288858B94B225F4E4
:10F64C00E64215042A0C0D8823F4005342EA0522E5
:10F65C001D042B0C0D8992B243EA05334D8843EA05
:10F66C0005330A4D9BB2A84203D005F50065A842AC
:10F67C0005D18D8924F4804444EA8514A4B2C98848
:10F68C0084808283A0F84010038430BD002C01409C
:10F69C0000214FF6FF7383800180C180418001728D
:10F6AC0070470023038043808380C38003814381A0
:10F6BC008381C3817047038819B199B241F001036A
:10F6CC0003E023F001010A04130C03807047B0F827
:10F6DC00443029B16FEA43436FEA53418AB201E0E7
:10F6EC0059044A0CA0F84420704783899BB20AB194
:10F6FC00194301E023EA010181817047038819B1A4
:10F70C0099B241F0800303E023F080010A04130C4A
:10F71C0003807047038B23F0080213041A0C114367
:10F72C0001837047038B23F4006213041A0C42EA22
:10F73C0001218BB203837047838B23F008021304DF
:10F74C001A0C114381837047838B23F400621304DA
:10F75C001A0C42EA01218BB283837047038A828997
:10F76C0011EA030092B203D011420CBF0020012019
:10F77C007047C9438AB2028270470000038A30B5D1
:10F78C000D460446EA8898B220F440511143218278
:10F79C00A3892889A98823F4B05340EA0102688917
:10F7AC0023F00C0102430804030C1A4391B2A1810B
:10F7BC00A08AAA8983B223F4407187B01143A18235
:10F7CC0001A8FFF75FFD1848A38984420CBF049879
:10F7DC00039819B200294FF019032A6803FB00F0B3
:10F7EC0001DA510000E09100B0FBF1F16423B1FBB0
:10F7FC00F3F21201100903FB1011A08900B20028CA
:10F80C0006DAC9003231B1FBF3F303F0070005E06F
:10F81C0009013231B1FBF3F303F00F00024390B254
:10F82C00208107B030BD00BF00380140838919B179
:10F83C0099B241F4005303E023F400510A04130C71
:10F84C0083817047C905CA0D828070478088C105C5
:10F85C00C80D7047038819420CBF00200120704767
:10F86C0001700B0A0A0C090E43708270C1700430CF
:10F87C0070470170090A41700230704743185A787A
:10F88C00405C00EB022188B2704710B543189A789F
:10F89C00DC78415C120402EB04625878521802EBDB
:10F8AC00002010BD73B544790023022C01930FD0B6
:10F8BC00032C19D0012C2BD1164D28692E4620B1C2
:10F8CC00296901A888470246B8B9B16801201BE034
:10F8DC00104DE8682E4620B1E96801A88847024619
:10F8EC0058B9B16802200FE00A4D6A692E464AB138
:10F8FC006B6901A89847024620B1A9682046BDF85B
:10F90C00043003E0B16803200022134600F04AFBE8
:10F91C007CBD00BF6C140020072810B50CD8012941
:10F92C000AD8012404FA00F401FA00F0034B1A6817
:10F93C0022EA040202431A6010BD00BF0C0300202F
:10F94C00F0B5012187B00546FFF798FF00F480431E
:10F95C00044698B250B3B4F5824F27D128460521FE
:10F96C00FFF78CFF0026074607353446BE4208D009
:10F97C0028460221FFF782FF013624180435B6B25F
:10F98C00F4E76A4B188E21188AB21A86D86B2418A1
:10F99C00DC63D96B9A6B914240F0C28093F84000C3
:10F9AC00002800F0BD809B69992092E024F4FF416F
:10F9BC0021F07F0293B2002B00F08F8048F21003ED
:10F9CC009C421ED00AD8B4F5004F40F2AB8048F2EE
:10F9DC000200844278D9811C8C420FE048F28002EC
:10F9EC00944271D005D848F240039C4240F09A8072
:10F9FC0047E0B4F5024F67D0B4F5084F40F0928061
:10FA0C0062E00022A81841790DF802100132042A94
:10FA1C00F8D16B7AA87AE97A2A7B8DF804308DF8C4
:10FA2C0005008DF806108DF8072005F10D00002358
:10FA3C0006A9CA18C15C0133042B02F8101CF7D1BB
:10FA4C0005F11100002306AAD218C15C0133042B66
:10FA5C0002F80C1CF7D105F11500002300AAD218EE
:10FA6C00C15C0133042B1174F8D1304928798A69AF
:10FA7C008DF81400002A53D08B6920466946152254
:10FA8C0029E0053500212846FFF7FFFE04210090F0
:10FA9C002846FFF7FAFE082101902846FFF7F5FEED
:10FAAC000C2102902846FFF7F0FE10210390284607
:10FABC00FFF7EBFE04901D488169002930D0836963
:10FACC0069462046142206E0184B9A6942B39B699A
:10FADC00204600210A46984722E041F20300844266
:10FAEC0005D00C30844202D0411E8C421AD16C1DC0
:10FAFC0004212046FFF7C9FE393013D12D790B4A6A
:10FB0C0000212046D562FFF7C0FE042105462046A1
:10FB1C00FFF7BBFE393003D128460121FFF7FCFE6D
:10FB2C00012000E0002007B0F0BD00BF6C140020E5
:10FB3C0038B50A4C638898B208B9002038BD6068A3
:10FB4C0001780429F9D1FFF7FBFE01280546F4D111
:10FB5C0000226280FCF71EFB284638BD6C14002086
:10FB6C002DE9F0470446884691460025BC4B5A883F
:10FB7C0090B20028FAD05E683178042940F0728186
:10FB8C0030460121FFF77AFE05463046FFF7D8FED6
:10FB9C00002840F05C8141F20703771D9D4253D849
:10FBAC005A1E954280F0AC8040F20220854200F053
:10FBBC00A78014D80C2D09D8082D80F0A180002D19
:10FBCC0000F04581062D40F29B80DDE00D2D00F00C
:10FBDC00948040F20127BD4240F039818DE041F222
:10FBEC000202954218D8B5F5805F00F28980B5F510
:10FBFC00017F40F2828040F207218D4240F0278144
:10FC0C003379002104F8013B3846FFF73EFE0146EC
:10FC1C002046FFF725FE1AE141F20400854200F070
:10FC2C00898040F2A08038460021FFF72EFE042187
:10FC3C0020603846FFF729FE6060083406F10D0796
:10FC4C00224606F11D016EE041F21100854254D0AE
:10FC5C002CD841F20B02954252D01CD841F209012A
:10FC6C008D424DD000F28B8000213846FFF70DFEFF
:10FC7C00042120603846FFF708FE082160603846F2
:10FC8C00FFF703FE0C21A0603846FFF7FEFD04F1E0
:10FC9C000C0AE060DAE041F20F00854263D035D8FF
:10FCAC0041F20D02954240F0D28043E042F206014F
:10FCBC008D4222D008D8B5F5005F40F2C88042F2E0
:10FCCC0004039D4219D983E042F208039D42C0F01F
:10FCDC00BE80581C854210D944F20B02954240F06C
:10FCEC00B6807179DFF878A13846AAF83010012176
:10FCFC00FFF7C4FDAAF83200A9E037792770A6E017
:10FD0C0038460021FFF7C1FD2060A0E000213846F5
:10FD1C00FFF7BBFDA2464AF8040B04213846FFF757
:10FD2C00B4FD606092E057F8043B8F4242F8043B0C
:10FD3C00F9D18CE000213846FFF7A7FD04212060A3
:10FD4C003846FFF7A2FD082160603846FFF79DFD9D
:10FD5C0004F1080AA060E46814F1390376D101219A
:10FD6C00FFF7DAFD72E000213846FFF78EFD042123
:10FD7C0020603846FFF789FD6060083467E033790E
:10FD8C0023713F68276062E038460021FFF77DFD54
:10FD9C00042120603846FFF778FD08216060384662
:10FDAC00FFF76CFD0A21A0603846FFF767FDC4F829
:10FDBC000A000C3406F11107224606F1350157F8FA
:10FDCC00043B8F4242F8043BF9D1388810803EE066
:10FDDC000022B7187879A0540132042AF9D106F11F
:10FDEC0009070023F95CE0180133042B0171F9D1E8
:10FDFC0006F10D070020395C22180130042811721D
:10FE0C00F9D106F111070023F95CE2180133042B38
:10FE1C001173F9D106F115000022875CA11801328B
:10FE2C00042A0F74F9D106F119000023C75CE118FC
:10FE3C000133062B0F75F9D106F11F000021475C29
:10FE4C006218013120299776F9D100E05446044B11
:10FE5C00188882B2954225D10021198022E000BF7A
:10FE6C006C14002030460321B778FFF707FD82465B
:10FE7C00B8F1000F0CD00421701DFFF706FD0346EE
:10FE8C00C9F8000006F115014046DAB201F04AFA51
:10FE9C007A1DB1182046C7EB0A0201F043FA0F494C
:10FEAC000020C8860D4F00237B80FCF773F9307857
:10FEBC00042805D1B5F5805F02D13046FFF7F2FC7E
:10FECC003A8891B200297FF451AE044BD88E80B29F
:10FEDC0000287FF44BAEBDE8F08700BF6C14002007
:10FEEC0007284FF0010308D803FA00F004490A6808
:10FEFC0010420CBF0020012070471846704700BF0D
:10FF0C000C030020034B1880084600210A46FFF71B
:10FF1C0027BE00BF6C14002010B5034B0124DC86F7
:10FF2C00BDE81040FFF71CBE6C14002038B503462A
:10FF3C00154601224A710C46881D1946FFF799FC9B
:10FF4C00291D05702046FCF7E5F9002038BD38B5B1
:10FF5C00BDF814500C469B18A071E81885B202210C
:10FF6C006171E271294604F10800FFF782FC6A1DF9
:10FF7C00204691B2FCF7CEF9002038BD38B59B185D
:10FF8C000C469DB202216171A071E271294604F107
:10FF9C000800FFF76EFC6A1D204691B2BDE83840A0
:10FFAC00FCF7B8B92DE9F0471D4605F1020A032309
:10FFBC0001F107091FFA8AFA88714B710C46484601
:10FFCC0051461746FFF755FCB5F57A7F804613D896
:10FFDC002946FFF74EFC29464046FFF74AFC3946B6
:10FFEC0004F10B002A4601F09DF9A91D204689B2A7
:04FFFC00BDE8F04725
:020000040801F1
:10000000FCF78EB94FF47A76B5FBF6F10AEB4102B4
:1000100091B2FFF734FC31464046FFF730FC3946D9
:1000200004F10B00324601F083F9A5F57A752046FC
:1000300040F2EE31ADB2BF19FCF772F9B5F57A7F37
:1000400005D9A5F57A7085B24FF47A7601E02E468F
:100050000025A046394628F8056F4846324601F08B
:1000600067F9B31C404699B2BF19FCF759F9002D46
:10007000E4D1BDE8F08700002DE9F34106460C46C7
:100080001E4831681546D0F808804A1E1F46FF23D7
:10009000122A8DF8073008F1090001D814233360C3
:1000A00021684A1E122A01D81423236029684A1E97
:1000B000122A01D814232B6039684A1E122A01D84B
:1000C00014233B603168FFF7D1FB2168FFF7CEFBBB
:1000D0002968FFF7CBFB3968FFF7C8FB41461422BC
:1000E00042F20900FFF728FF42F209000DF1070173
:1000F000FFF70EFF9DF90700BDE8FC816C1400209E
:100100002DE9F341864614480D46866871461F4620
:1001100002ACFF2306F1090004F8013D9046FFF709
:10012000A5FB2946FFF7A2FB40F201254146FFF758
:100130009DFB0C2231462846FFF7FEFE284621464D
:10014000FFF7E6FE002138460A46FFF7EBFE9DF872
:100150000700BDE8FC8100BF6C1400202DE9F341CD
:10016000864616480C4686687146984602AD4FF0A2
:10017000FF3306F10A0045F8043D1746FFF776FB0A
:100180000C21FFF773FB2146FFF770FB3946FFF7A1
:100190006DFB4146224606F11A0001F0C9F8902095
:1001A00031461022A3B2FFF7EFFE40F202202946AB
:1001B000FFF7AEFE0198BDE8FC8100BF6C14002083
:1001C00037B50B4B40F207250446996800222846B4
:1001D000FFF7B2FE28466946FFF79AFE9DF8030036
:1001E0009DF80410207061709DF800003EBD00BFB6
:1001F0006C14002037B50D4A034695680C4605F18E
:1002000009001946FFF732FB214640F20324FFF7AD
:100210002DFB294608222046FFF78EFE20460DF1D1
:100220000601FFF775FEBDF806003EBD6C14002008
:100230002DE9F0430023CA5CC2540133102BFAD1DC
:100240000022334B467B991891F8018004789F195E
:10025000F97A88EA0405847B85EA01081D1941784A
:10026000EF7A90F80CC04F40C17B80F810805D1889
:1002700095F80B908578634489EA050593F80B900F
:10028000C378477489EA030390F80490FFB288EAC0
:10029000090890F80590857487EA090790F8069098
:1002A000EDB285EA090590F80790C374DBB283EAE2
:1002B000090390F8089080F814805FFA88F888EABB
:1002C000090890F809904775FFB287EA090790F886
:1002D0000A908575EDB285EA090590F80B90C37513
:1002E000DBB283EA090388EA0C0C7E406C4059407B
:1002F000013280F8188047768576C37680F81CC076
:1003000046778477C17710300A2A9AD1BDE8F08306
:10031000861B010810F0800F4FEA400018BF80F0E4
:100320001B00C0B2704700002DE9F04F037891F830
:10033000A0A004468AEA030A80F800A091F8A12050
:100340004078A77882EA0005657091F8A260E078AD
:1003500086EA0703A37091F8A32097B0059582EA77
:100360000005E57091F8A4902679069389EA0609BC
:1003700084F8049091F8A5706379079587EA0302E1
:10038000627191F8A600A579E37980EA0506A67165
:1003900091F8A7700C9287EA030B84F807B0227AD1
:1003A00091F8A880607A88EA020884F8088091F8B9
:1003B000A97008964740677291F8AA50A67AE07A29
:1003C00085EA0603A37291F8AB20267B82EA00053A
:1003D000E57291F8ACC009938CEA060C84F80CC065
:1003E00091F8ADE0637BA27B8EEA030E84F80DE00A
:1003F0000D9591F8AE50E07B5540A57391F8AF2074
:100400004B4B4240E2739A4491F890009AF80B618A
:1004100099444640267091F8940099F80BA19844AD
:100420008AEA0006267191F8980098F80B919C448E
:1004300089EA000626729CF80BA191F89C009E4464
:100440008AEA00062673DF199EF80B8197F80BC124
:1004500091F8910091F89D6088EA00098CEA060005
:1004600060730C9FDDF814A0DE1996F80B0191F86B
:100470009970DDF8208080EA0706667203EB0A00B7
:1004800091F8956090F80B7184F8019087EA060066
:10049000607103EB0800DDF818E090F80B91099803
:1004A00003EB0E0703EB000E9EF80BC191F89200D0
:1004B00091F89A6097F80B718CEA000A77405D1901
:1004C00091F89E6084F802A091F8960095F80B814F
:1004D000A772079F88EA000589EA0606A673A57138
:1004E000DE1996F80B0191F89F5003EB0B0791F87A
:1004F0009360454097F80B019A1880EA06070D981B
:10050000E7701E1896F80B7191F897004FF0090BE1
:1005100087EA0006E67191F89B3092F80B71E5735B
:1005200087EA0300E0720D46CDF840B002E000BF5C
:10053000861B010894F80090A77887EA0900FFF766
:10054000E9FEFFF7E7FE94F80180E678824686EA46
:100550000800FFF7DFFEFFF7DDFE8AEA070380EA07
:10056000080227797040A6798AEA09015FFA80F8C3
:1005700086EA07005FFA82FB5FFA83FA5FFA81F985
:1005800003970296FFF7C6FEFFF7C4FEE679677988
:10059000014686EA07000491FFF7BCFEFFF7BAFEAA
:1005A000039B049A94F808C082EA0301CBB2029933
:1005B00047404A40A17A7040C6B2059381EA0C00D8
:1005C000D3B20291CDF804C006930796FFF7A2FEBE
:1005D000FFF7A0FE637AE67A024686EA03000393F9
:1005E0000492FFF797FEFFF795FE049ADDF804C02A
:1005F000039B82EA0C015FFA81FC80EA0301CBB223
:10060000029909934A40D3B2CDF820C00A9394F8D6
:100610000CC0A17B7040C6B281EA0C000291CDF8FB
:1006200004C00B96FFF776FEFFF774FE637BE67B54
:10063000024686EA030003930492FFF76BFEFFF77E
:1006400069FEDDF804C0049A039B82EA0C015FFA9C
:1006500081FC80EA0301CBB2029970404A40C6B2E5
:1006600088EA0A018BEA09000D93D3B20E93029136
:10067000CDF830C00F9681EA0006FFF74BFE89EAFD
:10068000000286EA020C5FFA8CFC8AEA0B0084F80E
:1006900000C0CDF804C0FFF73DFE8BEA000386EAF8
:1006A000030B02995FFA8BFC84F801C00846CDF871
:1006B00044C0FFF72FFE8AEA000286EA020A5FFAC8
:1006C0008AFB88EA090084F802B0CDF848B0FFF749
:1006D00021FE88EA0000DDF818900599079A464047
:1006E000FFB2F6B282EA090887EA0100E6701396C3
:1006F00088EA0006FFF70EFE059B584086EA0001D7
:10070000CAB24846227178401492FFF703FE474070
:1007100086EA0703D8B2159060714046FFF7FAFDEC
:1007200089EA0001059B86EA01020798D7B2584082
:10073000A7710697FFF7EEFD0799089A48404640D3
:10074000F6B20A9F0596E67109980B9E50407E40CE
:1007500086EA0007FFF7DEFDDDF820A08AEA000345
:1007600087EA030C5FFA8CF884F8088009990A98E4
:100770004840FFF7CFFD099A504087EA000B5FFA27
:100780008BF9304684F80990FFF7C4FD0A9E524663
:1007900086EA000387EA03010B985FFA81FB504069
:1007A00084F80AB0FFF7B6FDDDF82CA00E998AEAAE
:1007B00000000C9E47400F9B0D98FFB24B407040CD
:1007C000E77283EA000A0293FFF7A4FD0C9A0D9BDF
:1007D00050408AEA00060E98F6B226735840FFF79A
:1007E00099FD0D99029B81EA00028AEA0200C1B2DA
:1007F000617318460391FFF78DFD0E9A0C9B5040D4
:100800008AEA00010F98CAB2A27358400492FFF717
:1008100081FD0F99514B48408AEA000C5FFA8CFA2F
:10082000DDF804C084F80FA003EB0C0295F88000FB
:1008300092F80B11DDF850C081EA0002227003EB40
:100840000C0195F8840091F80B219E1982EA0001B1
:1008500003EB0802217195F8880092F80BC196F815
:100860000B218CEA0001217295F88C00039E82EA2C
:10087000000121739A1995F8811092F80B0103EB8E
:10088000090680EA010295F88D0096F80B11DDF853
:1008900044C081EA000615996673581890F80B61F8
:1008A00095F88910DF1986EA0100607203EB0C06E7
:1008B00095F8850096F80B116270129A81EA00068D
:1008C00066719918DDF818C095F88A6091F80B01E7
:1008D00003EB0C0295F88E10704092F80B6103EB5D
:1008E0000B02714092F80BC195F882608CEA060207
:1008F000049EA2709A1992F80B6195F886205640D2
:10090000A671A0721398A173191895F88F2091F809
:100910000B61DDF814C0724003EB0C0695F88310F0
:1009200096F80B0153444840E07095F8871097F80B
:100930000B014840E07195F88B0093F80B11E273BE
:10094000109A81EA0003511E103D11F0FF00E3727E
:1009500010907FF4EFAD17B0BDE8F08F861B010853
:1009600038B5054C05462046FFF762FC284621466F
:10097000BDE83840FFF7D8BC7613002003461021AD
:100980000C200022FFF7BCBB034610210C200022E4
:10099000FFF7E4BB38B505460E4CE36A4BB100F0F7
:1009A000C1FCE36A03600020E06200F0BBFC006869
:1009B00038BD2846FFF79AFA40B9228E91B2002935
:1009C000EAD0238E5A1E91B2218638BD4FF0FF30F7
:1009D00038BD00BF6C140020F7B5034614480D461F
:1009E00086681946174602AC4FF0FF3206F109003F
:1009F00044F8042DFEF73AFF2946FEF737FF41F28F
:100A000001053946FEF732FF0C2231462846FFF732
:100A100093FA21462846FFF77BFA00F083FC019900
:100A2000016008460021FEF77DFF0198FEBD00BF72
:100A30006C140020F7B5054610484FF0FF33876867
:100A400002AC294641F20B0607F1090044F8043DC7
:100A5000FEF70CFF042239463046FFF76DFA2146B7
:100A60003046FFF755FA00F05DFC01990160284619
:100A70000121FEF757FF0198FEBD00BF6C14002056
:100A800037B5034613484FF0FF3284680D4604F132
:100A9000090019460192FEF7E9FE0821FEF7E6FE7D
:100AA0000821FEF7E3FE0023E95CC1540133082B63
:100AB000FAD11422214641F20700FFF73DFA01A9BD
:100AC00041F20700FFF724FA00F02CFC019A0260C3
:100AD00010463EBD6C1400202DE9FF411D46314BF0
:100AE0008646D3F808800F4608F10900714616467D
:100AF0000A9CFEF7BBFE1421FEF7B8FE1421FEF798
:100B0000B5FE1421FEF7B2FE1421FEF7AFFED4F1BC
:100B1000010138BF0021FEF7A9FE0FB1396800E0DE
:100B20003946FEF7A3FE0EB1316800E03146FEF70C
:100B30009DFE0DB1296800E02946FEF797FE74B1CD
:100B4000216839B9636841F287329342DCBF41F2D0
:100B500088336360FEF78AFE6168FEF787FE2C2209
:100B6000414641F20800FFF7E7F941F20800694603
:100B7000FFF7CEF9009B002B09DB0FB1019838601D
:100B80000EB1029A326045B10399296005E000F088
:100B9000C9FB00994FF0FF330160184604B0BDE86F
:100BA000F08100BF6C1400202DE9FF419846154BE1
:100BB00007469D6814460E4605F109003946FEF7C2
:100BC00055FE2146FEF752FE4146FEF74FFEBDF8A8
:100BD00030400C2229462046FFF7AEF9204601A9F5
:100BE000FFF796F90298002804DD30460A990B9A1F
:100BF000FFF798F900F096FB02990160084604B0EF
:100C0000BDE8F0816C1400201FB50024009401940D
:100C100041F204040294FFF7C7FF04B010BD0000C6
:100C20002DE9F04F89B0039114469B46139E149D05
:100C30000290FFF7AFFEDDF808C0002857D12D4B1A
:100C40009A6B511C9963D3F80890812D09F10A031E
:100C500007D0832D0AD104F1080A09F122081827C8
:100C600004E009F11A08102706461290614618465A
:100C7000FEF7FCFD391FFEF7F9FD2146FEF7F6FDF4
:100C80005946FEF7F3FD832D05D15146FEF7EEFDE3
:100C90000821FEF7EBFD0022A24205DA0398815CF1
:100CA00008F802100132F7E7002CA8BFA044832DFA
:100CB0000ED0129AB6B200920196E8B249463A4670
:100CC000A3B2FFF74AF9832D0BD141F20F000AE0DE
:100CD0000020B042EDDA12990B5C08F800300130C8
:100CE000F7E741F2030005A9FFF712F9204609B022
:100CF000BDE8F08F6C1400201FB50024009401940F
:100D000081240294FFF78CFF04B010BD202A73B534
:100D100003460E46144622D8124A1946956805F134
:100D20000900FEF7A3FD0821FEF7A0FD2146FEF70E
:100D30009DFD0022A24203DAB15C81540132F9E741
:100D400004F10C032946DAB241F21100FFF7F4F87E
:100D500041F2110001A9FFF7DBF8019801E04FF023
:100D6000FF307CBD6C140020024B01225A80586079
:100D7000FEF7E4BE6C14002010B5084CE16022615F
:100D80006361029B0399E361049A059B216262629D
:100D9000A362A061012084F8400010BD6C14002003
:100DA00070B5214C054621480023A363E3632380EB
:100DB00023866386A386E386E36263806360A06024
:100DC0001B48FBF7CBF9E1698847A26A0646012078
:100DD000904706B3E16988470028FBD1124C0035E3
:100DE000A16818BF01254D7201224FF48040FFF722
:100DF000A3F800214FF48040FFF78AF8A168002291
:100E000044F20B00FFF798F844F20B000021BDE814
:100E10007040FFF77DB8E36998470028FBD0E06990
:100E200080470028FBD1D9E76C14002090070020F0
:100E3000690D010838B5094C0020A36A984725467A
:100E4000E869064C80470028FAD0A16809B1002261
:100E5000A260BDE83840FBF795B900BF6C140020D4
:100E60002DE9F04F83462F4885B0D0F808901446FE
:100E700000259A4688464FF0FF331C2109F10900EE
:100E800001930F9E0E9F0295ADF80C50FEF7EEFCFD
:100E90002146FEF7EBFC5946FEF7E8FC04F1100191
:100EA000FEF7E4FC3146FEF7E1FC2946FEF7E7FCDD
:100EB000BAF1000F08D01AF8052042550135062D69
:100EC000F9D10630002207E0534602AA995CC154CA
:100ED0000133062BF9D1F4E7A24204DA18F8021024
:100EE00081540132F8E7002CA8BF00193EB100235D
:100EF0002FB1B34203DAFA5CC2540133F9E71C3470
:100F0000A319DAB249460120FFF716F801A901201A
:100F1000FEF7FEFF00F006FA01990160084605B0F1
:100F2000BDE8F08F6C140020F7B503460F480E465D
:100F300085681946174602AC4FF0FF3205F10900EB
:100F400044F8042DFEF792FC3146FEF78FFC39463B
:100F5000FEF78CFC29460C220420FEF7EDFF04204E
:100F60002146FEF7D5FF0198FEBD00BF6C1400209E
:100F70002DE9F04F8346714885B0D0F808900D46B2
:100F800014465946002209F109009A460E9F0F9E09
:100F90000292ADF80C20FEF769FCBBF1030F00F2E2
:100FA000BE80DFE80BF0022F76761421FEF75EFCA0
:100FB0002146FEF75BFC0021FEF761FCBAF1000F51
:100FC00007D000221AF8021081540132062AF9D102
:100FD00006E0534602A95A5CC2540133062BF9D1EC
:100FE00006303946FEF742FC4FF00008A04506D017
:100FF00015F8083000F8083008F10108F6E708F1A4
:1010000018008AE02021FEF731FC2146FEF72EFC75
:101010000021FEF734FCBAF1000F07D000221AF8C5
:10102000021081540132062AF9D106E0534602AA81
:10103000995CC1540133062BF9D139460630FEF7CD
:1010400015FC04F10C01FEF711FC3146FEF70EFC15
:101050001099FEF70BFC0022A24203D0AF5C87542C
:101060000132F9E7001900220421129D8718AD18FA
:101070000023B34205D015F803E007F803E001337D
:10108000F7E701391A44F0D104F1240C0CEB83008A
:1010900043E02821FEF7EAFB2146FEF7E7FB0021AB
:1010A000FEF7EDFBBAF1000F07D000221AF802108C
:1010B00081540132062AF9D106E0534602A95A5C4E
:1010C000C2540133062BF9D139460630FEF7CEFB68
:1010D0003146FEF7CBFB1099FEF7C8FB1199FEF7DE
:1010E000C5FB04F10801FEF7C1FB1399FEF7BEFB37
:1010F0000021A14203D06A5C42540131F9E7001992
:10110000002313998B4204D0129AD15CC15401334D
:10111000F7E704F12C0808EB03001FFA80F84946B2
:101120005FFA88F20520FEF707FF052001A9FEF708
:10113000EFFE019805B0BDE8F08F00BF6C140020F1
:1011400037B50B4B01469D6802AC05F10900FEF76F
:101150008DFB4FF0FF3044F8040D29460422062091
:10116000FEF7EAFE06202146FEF7D2FE01983EBDBC
:101170006C14002037B548F2080248F2080102401A
:101180008A42034613490BD10020934281F8400064
:101190001FD023F4004424F0080545F4004302E086
:1011A000012081F840000B494FF0FF328D6802ACFE
:1011B000194605F1090044F8042DFEF757FB2946AE
:1011C00004220820FEF7B8FE08202146FEF7A0FE04
:1011D00001983EBD6C14002073B50C4B01469D6810
:1011E0004FF0FF3602AC05F109000196FEF73EFB19
:1011F00044F8046D294604220A20FEF79DFE0A20C9
:101200002146FEF785FE01987CBD00BF6C140020CE
:1012100007B50D4A4FF0FF330193916890B1542305
:101220004370037083704B7242788A728078032215
:10123000C8720C20FEF780FE0C2001A9FEF768FEA4
:10124000019800E018460EBD6C1400202DE9F04115
:10125000314886B0FFF792FB0546002858D12F4E43
:101260002A460D2043213346FEF74AFF0546002853
:101270004ED13778284907F1030808EB06042046C9
:10128000FFF76EFB3378F6187078102804D904F154
:1012900010002149FFF764FBE17F204A21B112F8D9
:1012A00008301F2B04D101E012F80830013400E0AF
:1012B0002023107811188A78032A29D8DFE802F051
:1012C000020E19190020012500950190029003904B
:1012D0000490059012493A46034616E001208DE835
:1012E0000900002302930393049405930C493A46A2
:1012F0000BE0012018211E2202258DE82700084955
:101300000593049403203A460023FFF731FE054677
:10131000284606B0BDE8F081B01400202814002053
:101320002914002040F23873C2F200031868704795
:101330000F2A2DE9F00340F2A18041EA00039B0748
:1013400040F09E800C68A2F1100504604B68AC462A
:1013500043608C68BCF10F0F8460CC68C5F3001546
:10136000C46000F1100301F110042BD975B1256898
:10137000ACF1100C1D6065685D60A5689D60E56856
:101380001034DD601033BCF10F0F1BD9276804F156
:1013900010061F60676803F110055F60A768ACF175
:1013A000200C9F60E768DF6024691C61776806F1A4
:1013B00010046F60B7682033AF60F668BCF10F0FA0
:1013C000EE60E3D8A2F1100828F00F0302F00F043A
:1013D00003F1100C032C00EB0C0301EB0C0851D9AA
:1013E000211F4FEA9109444608EB890C54F8046B1D
:1013F000C8EB0C010CF1040C1D46644545F8046B68
:10140000C1F3800112D029B154F8041B644545F89A
:10141000041B0BD0274657F8041B2E4646F8041B26
:1014200064686C603C1D351D6445F3D109F1010C05
:101430004FEA8C0902F0030208EB09014B44D2B1D8
:101440000D789A18DC4303F8015B1419934204F0F9
:10145000010410D02CB111F8014F03F8014B934255
:1014600009D04D781C4604F8015B8D7802315D701F
:10147000631C9342F5D1BDE8F00370470346DEE7F5
:101480000346DDE741462246D9E700BFF0B48407B2
:10149000034600F08D80541E002A00F08780E50787
:1014A000CEB211D41A4602F8016B134615469207C4
:1014B00010D0621E002C79D003F8016B14469A07F5
:1014C0001D4607D0013CEDE7034603F8016B9A0780
:1014D0001D46F7D1032C52D9CEB246EA06270F2C6F
:1014E00047EA07432DD9A4F1100217460F2FC2F384
:1014F00000162B606B60AB60EB6005F1100216D933
:101500003EB1103F136053609360D36010320F2FD1
:101510000DD9203F02F11006136053609360D36031
:10152000136153619361D36120320F2FF1D8A4F17D
:10153000100222F00F0204F00F041032032C1544A5
:101540001DD9271F3E462A46032E42F8043BC7F307
:1015500080070DD927B1043E032E42F8043B07D97A
:10156000174647F8043B083E53603A1D032EF7D850
:10157000231F23F00302131D04F00304ED18ACB184
:10158000C9B2EA432C1905F8011BA318A54203F0C0
:1015900001020BD01AB105F8011BA54206D02B465B
:1015A00003F8011B69705D1CA542F8D1F0BC7047BF
:1015B000054614468EE700BFC9B2F0B400294BD0EF
:1015C00082070FD00278002A71D0914242D0431C8A
:1015D00005E013F8012B002A3BD091423AD09A073C
:1015E0001846F6D1036841EA0127A3F1013222EA45
:1015F000030212F0803F47EA07471CD17B40A3F16A
:10160000013222EA030313F0803F14D1021D02E0ED
:1016100014F0803F0FD1104652F8043BA3F101367D
:1016200087EA030426EA0303A4F1013513F0803F9F
:1016300025EA0404ECD00278002A38D0914209D07F
:10164000431C01E0914205D0184613F8012B002AF3
:10165000F8D11046F0BC704783070BD00278002AFF
:10166000F8D0431C03E0017801330029F2D0990738
:101670001846F8D10168A1F1013323EA010212F002
:10168000803F0AD1031D184653F8041BA1F1013411
:1016900024EA010212F0803FF5D00378002BD9D064
:1016A000421C1178104601320029FAD1D2E71046C7
:1016B000D0E700BF80EA010212F0030F40F03A8049
:1016C00010F0030220F0030021F0030150F804CBD6
:1016D00008BF51F8043B0DD082F003024FEAC2026A
:1016E0006FF07F4323FA02F251F8043B4CEA020CFC
:1016F00043EA0203ACF101329C4501BF22EA0C022D
:1017000012F0803F50F804CB51F8043BF2D04FEA7E
:101710000C604FEA1C2C012828BFB0EB036F08BFF8
:101720001B0AF4D003F0FF034FEA1060A0EB0300A4
:10173000704700BF10F0030F0AD010F8012B11F80A
:10174000013B012A28BF9A42F4D0A2EB0300704764
:101750004DF8045D4DF8044D4FF0010242EA0222BB
:1017600042EA024201F0030C21F0030150F8044B5D
:1017700051F8045BBCF1020F26D04BD824F07F4C0B
:10178000BCEB152FA4EB020323EA04030DD113EAEB
:10179000C21308BF51F8045B0AD18CEA040CBCEBFD
:1017A000056F0CD150F8044BE8E74FEA15255CE0D3
:1017B00033F07F4352D10D784FEA146C55E04FEA75
:1017C000146C05F0FF0550E04FEA044CA4EB020353
:1017D0004FEA1C4C23EA0403BCEB154F17D113EA64
:1017E000C21308BF51F8045B07D18CEA040CBCEBB0
:1017F000054F08D150F8044BE6E71B042ED10D88A5
:101800004FEA144C31E04FEA05454FEA144C4FEAD9
:1018100015452AE004F0FF0CBCEB156FA4EB0203A6
:1018200023EA04030DD113EAC21308BF51F8045B85
:101830000AD18CEA040CBCEB052F0AD150F8044BFA
:10184000E8E74FEA156510E014F0FF0F06D051F8F5
:10185000045B4FEA142C25F07F4506E04FF00000B2
:101860005DF8044B5DF8045B70470CF0FF0205F077
:10187000FF00012828BF904204BF4FEA1C2C2D0A0C
:10188000F3D0A2EB00005DF8044B5DF8045B7047F9
:1018900020F0030110F00300C0F1000051F8043BF8
:1018A00000F1040C4FEACC0C6FF000021CBF22FACE
:1018B0000CF213434FF0010C4CEA0C2C4CEA0C4C8C
:1018C000A3EB0C0222EA030212EACC1204BF51F885
:1018D000043B0430F4D013F0FF0F1FBF013013F4AA
:1018E0007F4F013013F47F0F18BF0130704700BFE6
:1018F000F0B4002A00F0838041EA000313F00305EE
:101900002ED0551E03780A78934226D1002D7AD026
:10191000002B7AD001358C1C4D192B1BDB0716D5FB
:1019200010F8013F14F8012C934216D1CC1C73B966
:1019300036E0AC4234D00134002B31D014F8012C05
:1019400010F8013F0134934207D1002B28D010F842
:10195000013F14F8012C9342EBD0981AF0BC704769
:10196000032ACED904680B689C42CAD1131F4CD0FD
:10197000A4F1013222EA040414F0803F43D15A0753
:101980002FD542684C6804300431A24239D1043B5F
:1019900006D0A2F1013424EA020212F0803F20D0E6
:1019A0000020DBE772686468A2F10135A24225EAF3
:1019B000020526D1043B00F1040001F10401EFD03F
:1019C00015F0803FECD1DCF804207C68A2F10135F1
:1019D000A24225EA020514D1043BE1D015F0803F74
:1019E000DED10C46064604310430032B84460F46F4
:1019F000D8D85D1E002B85D133792279ADE710460A
:101A0000ACE75D1E7EE72846A8E71846A6E700BFBC
:101A100080004000200010000800008000400020EE
:101A20000800000008000000080000000800000096
:101A30000800000004000000040000000400000092
:101A4000040000000400000000000000000000008E
:101A50000001000200000000000000000A00000079
:101A6000000400000400000000000000000400006A
:101A700028000000737061726B646576696365733A
:101A800032303133004F4B20005553455246554EAE
:101A90004320007365637265740077686F0073702C
:101AA00061726B64656D6F64657669636500616C16
:101AB0006976650049574447525354005550444194
:101AC0005445004641494C20000A0043414C4C42D9
